S0120000342E53656D65737465722E7372656368
S1130000E5C0000004C1000002C1000000C10000FE
S1130010FEC00000FCC00000FAC00000F8C00000F0
S1130020F6C00000F4C00000F2C00000F0C0000000
S11300303EC50000ECC00000EAC00000E8C00000BB
S1130040E6C00000E4C00000E2C00000E0C0000020
S1130050DEC00000DCC00000DAC00000D8C0000030
S1130060D6C000000C9400240C945224D0C000008C
S1130070CEC00000CCC00000CAC00000C8C0000050
S1130080C6C00000C4C00000C2C00000C0C0000060
S11300900C9496240C94E824BAC000000C943329E0
S11300A0B6C00000B4C00000B2C00000B0C0000080
S11300B0AEC00000ACC00000AAC00000A8C0000090
S11300C0A6C00000A4C00000A2C000000C942C250F
S11300D00C947E259CC000000C94C2250C9414261C
S11300E096C000006E196E196E19A519AD19C219C2
S11300F06E196E19A519AD195529C529C529C52922
S1130100C529C529C529C5295529C529C529C529EB
S1130110C529C529C529C5295729C529C529C529D9
S1130120C529C529C529C529C529C529C529C5295B
S1130130C529C529C529C5295729C529C529C529B9
S1130140C529C529C529C529C529C529C529C5293B
S1130150C529C529C529C529C129C529C529C5292F
S1130160C529C529C529C5298C29C529C529C52954
S1130170C529C529C529C529C529C529C529C5290B
S1130180C529C529C529C5298029C529C529C52940
S1130190C529C529C529C529A4290E94B00C809167
S11301A05D15823008F0BDD30E94EB19F6CFCF93D2
S11301B0DF931F92CDB7DEB7CE0101960E94EB16F6
S11301C049810E94E0180E943719F6CF11241FBEFE
S11301D0CFEFD1E2DEBFCDBF00E00CBF17E0A0E05F
S11301E0B2E0EEEEF0E600E00BBF02C007900D9225
S11301F0A035B107D9F727E1A0E5B7E001C01D920A
S1130200AD36B207E1F70E945D1D0C947530F8CE4F
S11302100F9301110CC0DC01CB0182239323A4238F
S1130220B523892B8A2B8B2B79F480E010C0DC0159
S1130230CB0182239323A423B523281739074A0724
S11302405B0721F080E003C081E001C081E00F91F1
S11302500895CF93DF938FE090E0AFD1EC01009746
S113026039F0FC011192119211921192CF018BD2AB
S1130270CE01DF91CF9108952F923F924F925F92DA
S11302806F927F928F929F92AF92BF92CF92DF92A2
S1130290EF92FF920F931F93CF93DF93EC014A01E8
S11302A05B01622E702E0E94FB0D288039804A80EB
S11302B05B80A5019401C201B101AADF8823A1F0EA
S11302C0662089F1D501C40180959095A095B095DB
S11302D082219321A421B52188839983AA83BB8396
S11302E0C12CD12C760122C0C114D104E104F10443
S11302F0E9F0611004C040E050E0BA0104C040E0FD
S113030050E060E071E071107460482959296A294D
S11303107B2997018601CE0104960E941311212C9A
S1130320312C210103C0C12CD12C76010E943B0F3A
S1130330CD28CE28CF2859F1811101C0F2D20E94D4
S1130340E7136B017C0191FD1FC00FB6F8940F9267
S1130350C880D980EA80FB80072DA5019401C701DC
S1130360B60156DF882371F0662061F08094909482
S1130370A094B0948C209D20AE20BF2088829982C6
S1130380AA82BB820F900FBE160127015524C20119
S1130390B101DF91CF911F910F91FF90EF90DF900A
S11303A0CF90BF90AF909F908F907F906F905F9011
S11303B04F903F902F9008954F925F926F927F924B
S11303C0AF92BF92CF92DF92EF92FF920F931F935F
S11303D0CF93DF93EC016A017B018C01095F1F4F0E
S11303E00E94FB0DEB85FC8588819981AA81BB81E4
S11303F0C82AD92AEA2AFB2AC882D982EA82FB823D
S1130400C12CD12C76013DC0A480B580808191811E
S1130410A281B381AC01BD017727B2FD0EC0488033
S113042059806A807B80442255226622772245289F
S11304304628472889F420E012C0488059806A8001
S11304407B80442255226622772244155505660591
S1130450770521F020E003C021E001C021E0222340
S113046071F0B0FF04C0C42AD52AE62AF72A4881CD
S113047059816A817B817260CF010E944E12EA2DFC
S1130480FB2DE017F10709F0BFCFC094D094E0949E
S1130490F09488819981AA81BB81C822D922EA2259
S11304A0FB22C882D982EA82FB820E943B0F6881C8
S11304B079818A819B81DF91CF911F910F91FF9068
S11304C0EF90DF90CF90BF90AF907F906F905F9050
S11304D04F900895ECE5F7E0A0E6B7E0B183A08380
S11304E013821282E8E0F5E1F0935B07E0935A0788
S11304F0138212821182108288EA9DE013969C93E3
S11305008E931297ED93FC9390935707809356071D
S1130510909359078093580780E090E8909351078F
S1130520809350070895CF93DF93EC01ACE5B7E0D7
S113053001C0DF01ED91FC911197EC17FD07C8F3A1
S113054012968D919C9113979D01280F391FC21704
S1130550D30749F42A813B81820F931F13969C93FE
S11305608E931297ED018A819B819E01280F391F7A
S1130570E217F307C1F420915A0730915B07E217A1
S1130580F30771F022813381820F931F9B838A8347
S1130590ED91FC911197808191819983888305C0A5
S11305A03983288302C0F983E883CA17DB0711F073
S11305B0CD93DC93DF91CF910895EF92FF920F9347
S11305C01F93CF93DF938C010E94FB0D80915A07F8
S11305D090915B07892B09F47DDF809150079091FE
S11305E0510780239123892B09F076C00115110549
S11305F049F0C80104960817190718F000E010E044
S113060001C08C010115110509F469C080915807D6
S1130610909159078017910708F464C0C0915C0752
S1130620D0915D07ECE5F7E002C0FE01EC018A81A0
S11306309B818017910720F4888199810097A9F7FD
S113064080915A0790915B07C817D90709F44DC0E8
S1130650E080F18084E0E80EF11C88819981918327
S113066080832A813B81201B310B2930310548F0DE
S1130670CE01800F911FFC01338322831B830A83E5
S113068052DF2A813B818091580790915907821B40
S1130690930B9093590780935807409156075091B4
S11306A057078417950720F49093570780935607AC
S11306B08091500790915107282B392B3B832A8333
S11306C0198218828091540790915507019690934E
S11306D05507809354070BC0E12CF12C08C0E12C82
S11306E0F12C05C0E12CF12C02C0E12CF12C0E946C
S11306F03B0FE114F10411F40E94F719C701DF91D3
S1130700CF911F910F91FF90EF9008950F931F9336
S1130710CF93DF93009791F1EC0124974A815B8199
S11307202091500730915107BA0162237323672B3C
S113073029F168817981672B09F520953095242367
S113074035233B832A830E94FB0D8A819B81209160
S1130750580730915907820F931F9093590780933C
S11307605807CE01E0DE809152079091530701961D
S113077090935307809352070E943B0FDF91CF91D0
S11307801F910F910895FC010396928381834FEF8B
S11307905FEFBA01438354836583768390878783AD
S11307A09287818710820895FC011386128608952A
S11307B00F931F93CF93DF93EB01088119812A8153
S11307C03B810F3F4FEF14072407340721F4FC014A
S11307D0A185B28511C0DC01139601C0DF01149616
S11307E0ED91FC91159740815181628173810417C9
S11307F015072607370790F71496ED91FC91159786
S1130800FD83EC83D783C683BF83AE831596DC93C5
S1130810CE9314979B878A87FC0120812F5F2083C6
S1130820DF91CF911F910F910895CF93DF93FC0136
S1130830A285B385C481D581868197819F838E8368
S1130840C681D781848195819D838C8311968D91F6
S11308509C911297E817F90731F4868197811296D3
S11308609C938E931197138612868C9181508C934E
S11308708C91DF91CF910895A89590EC88E10FB603
S1130880F894A895809360000FBE9093600008953B
S1130890FC01608331977083319710823197108205
S11308A0319720E820833197108231971082319755
S11308B01082779740833197508386970895DCDFC1
S11308C0A091CB15B091CC15CD91CDBFDD91DEBFFC
S11308D0FF91EF91DF91CF91BF91AF919F918F9154
S11308E07F916F915F914F913F912F911F910F9144
S11308F0FF90EF90DF90CF90BF90AF909F908F903C
S11309007F906F905F904F903F902F901F900F902B
S11309100CBE0F900BBE0F900FBE0F90089581E098
S113092008950F920FB6F8940F920BB60F920CB66F
S11309300F921F9211242F923F924F925F926F92C7
S11309407F928F929F92AF92BF92CF92DF92EF925B
S1130950FF920F931F932F933F934F935F936F9344
S11309607F938F939F93AF93BF93CF93DF93EF9333
S1130970FF93A091CB15B091CC150DB60D920EB688
S11309800D920E949710A091CB15B091CC15CD91EA
S1130990CDBFDD91DEBFFF91EF91DF91CF91BF918C
S11309A0AF919F918F917F916F915F914F913F9103
S11309B02F911F910F91FF90EF90DF90CF90BF90F8
S11309C0AF909F908F907F906F905F904F903F90EB
S11309D02F901F900F900CBE0F900BBE0F900FBE68
S11309E00F9008950F920FB6F8940F920BB60F92D2
S11309F00CB60F921F9211242F923F924F925F9246
S1130A006F927F928F929F92AF92BF92CF92DF921A
S1130A10EF92FF920F931F932F933F934F935F9304
S1130A206F937F938F939F93AF93BF93CF93DF93F2
S1130A30EF93FF93A091CB15B091CC150DB60D9209
S1130A400EB60D9213BE0E940F0E81110E949710D4
S1130A50A091CB15B091CC15CD91CDBFDD91DEBF6A
S1130A60FF91EF91DF91CF91BF91AF919F918F91C2
S1130A707F916F915F914F913F912F911F910F91B2
S1130A80FF90EF90DF90CF90BF90AF909F908F90AA
S1130A907F906F905F904F903F902F901F900F909A
S1130AA00CBE0F900BBE0F900FBE0F9008959ADFEF
S1130AB018950FB6F8940F92FC01868D811102C02F
S1130AC081E001C080E00F900FBE08950FB6F89446
S1130AD00F92FC01268D878D281302C081E001C08E
S1130AE080E00F900FBE08950F931F93CF93DF9371
S1130AF0EC01042F1E8D48A141110CC088819981FD
S1130B00892B09F042C08C819D810E948C131D8227
S1130B101C8242C0011117C050E08A819B810E944F
S1130B20F82C28A18A819B81820F911D9B838A8343
S1130B302C813D818217930750F1888199819B8391
S1130B408A8380E029C050E08E819F810E94F82C26
S1130B5088A190E09195819591092E813F81280F7C
S1130B60391F3F832E83488159812417350730F478
S1130B702C813D81820F931F9F838E83023049F421
S1130B80112349F0115080E007C080E005C080E0E7
S1130B9003C080E001C080E01F5F1E8FDF91CF9112
S1130BA01F910F910895FC0140A14423A9F050E046
S1130BB026813781240F351F3783268384819581CD
S1130BC02817390720F08081918197838683CB0190
S1130BD0668177810C94F82C08951F93CF93DF934B
S1130BE0EC010FB6F8940F921AA10BC08B898823DD
S1130BF051F0CE0143960E949F1181110E947513FA
S1130C00115011169CF38FEF8AA30F900FBE0FB6ED
S1130C10F8940F9219A10BC08885882351F0CE0156
S1130C2008960E949F1181110E947513115011168C
S1130C309CF38FEF89A30F900FBEDF91CF911F918B
S1130C400895CF93DF93EC010FB6F8940F92E881E7
S1130C50F9818F8D28A190E030E0829FA001839FCD
S1130C60500D929F500D11244E0F5F1F5D834C83D6
S1130C701E8EFB83EA830197289FA001299F500DB4
S1130C80389F500D1124CF01840F951F9F838E83AD
S1130C908FEF89A38AA361110BC08885882371F023
S1130CA0CE0108960E949F11882341F03ADE06C0C7
S1130CB0CE01089668DDCE01439665DD0F900FBE28
S1130CC081E0DF91CF9108950F931F93F801611193
S1130CD003C01183008302C051834083878F60A3C4
S1130CE061E0CF01AEDF1F910F910895DF92EF9283
S1130CF0FF920F931F93CF93DF93F82EE62ED42EFB
S1130D00869FC0011124839658DCEC01009741F0C2
S1130D108C012D2DAC014D5D5F4F6E2D8F2DD4DFD9
S1130D20CE01DF91CF911F910F91FF90EF90DF9053
S1130D300895CF92DF92EF92FF920F931F93CF9378
S1130D40DF93CDB7DEB729970FB6F894DEBF0FBE99
S1130D50CDBF7C016B012E833F834887598710E008
S1130D600FB6F8940F92F701968D878D981710F0AF
S1130D700230B1F4402FB601C701B6DEF701938902
S1130D80992341F0C70143960E949F11882321F0C3
S1130D90C8DD02C08111C5DD0F900FBE81E04CC0DB
S1130DA08E819F81A885B985892B8A2B8B2B21F471
S1130DB00F900FBE80E040C0111105C0CE01019616
S1130DC00E94FE1211E00F900FBE15D70FB6F894D3
S1130DD00F92F70181A18F3F09F411A2F70182A1BB
S1130DE08F3F09F412A20F900FBEBE016A5F7F4FBE
S1130DF0CE0101960E940F13811119C0C70166DE4E
S1130E00882381F04E815F8168857985C7010896C2
S1130E100E94FC10C701E1DE0E943B0F8111A0CFAC
S1130E2080DD9ECFC701D9DE0E943B0F99CFC70159
S1130E30D4DE0E943B0F80E029960FB6F894DEBF03
S1130E400FBECDBFDF91CF911F910F91FF90EF9017
S1130E50DF90CF9008950F93009769F0FC011582FD
S1130E60148211821082168200E020E030E0A90191
S1130E7060E070E05EDF0F910895CF93DF93482F19
S1130E8060E081E033DFEC01E6DFCE01DF91CF915A
S1130E900895EF92FF920F931F93CF93DF938A01EC
S1130EA0FC01568D378D531710F02230F9F4422F80
S1130EB07801EC011AA18E8DCE0116DE1F3F81F45C
S1130EC08B898823A9F0CE0143960E949F11882321
S1130ED089F0E114F10481F081E0F70180830DC011
S1130EE0FF24F394F10EFAA281E007C080E005C06C
S1130EF081E003C081E001C081E0DF91CF911F91C7
S1130F000F91FF90EF900895CF92DF92EF92FF92AE
S1130F100F931F93CF93DF93CDB7DEB729970FB607
S1130F20F894DEBF0FBECDBF8C016B012E833F83CF
S1130F3048875987E12C0FB6F8940F92F801F68C84
S1130F40FF2099F0B601C8012EDEFA94F801F68E5E
S1130F508085882331F0C80108960E949F11811171
S1130F60E0DC0F900FBE81E04FC08E819F81A88589
S1130F70B985892B8A2B8B2B21F40F900FBE80E02F
S1130F8043C0E11006C0CE0101960E94FE12EE2479
S1130F90E3940F900FBE2FD60FB6F8940F92F8017A
S1130FA081A18F3F09F411A2F80182A18F3F09F4B6
S1130FB012A20F900FBEBE016A5F7F4FCE01019651
S1130FC00E940F13811117C0C80173DD882379F0C3
S1130FD04E815F8168857985C80143960E94FC1023
S1130FE0C801FBDD48D78111A6CF9BDCA4CFC80183
S1130FF0F4DD41D7A0CFC801F0DD3DD7C80159DDEC
S1131000882309F498CF80E029960FB6F894DEBFC0
S11310100FBECDBFDF91CF911F910F91FF90EF9045
S1131020DF90CF900895CF93DF93EC010FB6F8943F
S11310300F9289A18F3F09F419A28AA18F3F09F465
S11310401AA20F900FBE8E8D811104C0CE0143965B
S11310500E945D11CE01C1DDDF91CF910895FC01A5
S11310604481558122813381240F351F80819181F0
S1131070B901681B790BCB016417750710F0841B49
S1131080950B08950F93FC018FE0DF011D928A9563
S1131090E9F77587648755834483378326830687F6
S11310A00F910895AF92BF92CF92DF92EF92FF9289
S11310B00F931F93CF93DF936C015B017A01FC01C3
S11310C0C281D381048115810C1B1D0B401751076C
S11310D008F48A01F60184859585A801B5018C0F71
S11310E09D1F0E94F82C0E151F0558F4A701401BE4
S11310F0510BB501600F711FF601848595850E941F
S1131100F82CCE018E0D9F1DF601248135818217A6
S1131110930710F0821B930BF60193838283C7011C
S1131120DF91CF911F910F91FF90EF90DF90CF90BF
S1131130BF90AF900895CF92DF92EF92FF920F93FA
S11311401F93CF93DF931F921F92CDB7DEB77C011D
S11311506B015A83498321153105C1F0FC01868551
S113116080FD08C04217530708F49A013A83298383
S113117081E00FC02017310758F042E050E0BE0173
S11311806F5F7F4FC7018EDF81E003C080E001C045
S113119080E0882331F049815A81B601C70182DF9A
S11311A002C080E090E00F900F90DF91CF911F91EB
S11311B00F91FF90EF90DF90CF900895AF92BF9280
S11311C0CF92DF92EF92FF920F931F93CF93DF930F
S11311D07C015B01E9014217530708F4EA012097F7
S11311E081F1F7010081118184819581801B910B2C
S11311F06E018C179D0708F46C01F70164857585F1
S1131200600F711FA601C5010E94F82CCC16DD06E3
S113121058F4AE014C195D09F70164857585C50163
S11312208C0D9D1D0E94F82C0C0F1D1FF70184814D
S113123095810817190710F0081B190BF701118382
S11312400083CE01DF91CF911F910F91FF90EF901A
S1131250DF90CF90BF90AF9008956F927F928F925E
S11312609F92AF92BF92CF92DF92EF92FF920F9331
S11312701F93CF93DF931F921F92CDB7DEB76C01FC
S11312804B015A01790101151105B1F0FC0160808F
S11312907180A801BE016F5F7F4F90DF89819A81C1
S11312A0E01AF10AA816B90630F4F60171826082D8
S11312B0A12CB12C01C05C019701A501B401C601A8
S11312C07DDF0F900F90DF91CF911F910F91FF90D1
S11312D0EF90DF90CF90BF90AF909F908F907F90D2
S11312E06F900895CF92DF92EF92FF920F93CF9376
S11312F0DF93EC016B01413011F401E001C000E027
S1131300C114D10419F4CC24C394D12CCE01409639
S1131310C817D90720F4219650D97C0102C0E12CCA
S1131320F12CE114F10439F09601AE01B701615FCB
S11313307F4FC701A7DEC701DF91CF910F91FF90C7
S1131340EF90DF90CF9008950F930FB6F8940F921B
S1131350FC0120853185232B71F422853385232BD1
S113136061F42681378144815581648575850685BC
S113137089DE81E003C080E001C080E00F900FBEF1
S11313800F910895FC012481358180819181820F20
S1131390931F42815381841B950B019782179307F6
S11313A010F0821B930B08952F923F924F925F92FD
S11313B06F927F928F929F92AF92BF92CF92DF9261
S11313C0EF92FF920F931F93CF93DF93CDB7DEB7C6
S11313D02B970FB6F894DEBF0FBECDBF4C017B87B1
S11313E06A871A010E831F8328873987FC01848149
S11313F095810197268520FF0CC02A01F2E04F0E4B
S1131400511C8415950558F41E821F82188619866E
S113141006C08417950710F02A0101C02C018E81A3
S11314209F81A885B985892B8A2B8B2B09F438C019
S1131430CE0101960E94E8120FB6F8940F92C401EF
S1131440A1DF3C018415950540F560E080E090E063
S11314500E94D1160E947913F401938782870F901A
S11314600FBEAE80BF80C884D984E12CF12C00E08B
S113147010E0980140E050E0BA0180E00E941114AD
S1131480F40113861286BE016A5F7F4FCE01019676
S11314900E940F13882381F205C00F900FBE02C073
S11314A0612C712C6114710419F4C4016BDF3C01CB
S11314B082019301A1016A857B85C4013CDE6C0134
S11314C0892BE9F0C401CBDDF40126813781821731
S11314D09307A8F090D3F40180859185892B71F04E
S11314E080859185E12CF12C00E020E030E0A90119
S11314F060E00E94B814F40111861086BCD4C601C1
S11315002B960FB6F894DEBF0FBECDBFDF91CF91FF
S11315101F910F91FF90EF90DF90CF90BF90AF900D
S11315209F908F907F906F905F904F903F902F90FF
S11315300895AF92BF92CF92DF92EF92FF920F93F2
S11315401F93CF93DF93EC017B015A0169018E85D0
S113155080FF04C08A010E5F1F4F01C08A01CE01C3
S113156011DF9C01A501B701CE01E5DD5C01892BEA
S1131570C1F0CE0174DD2E813F818217930788F07C
S113158088859985892B69F088859985E12CF12CCA
S113159000E020E030E0A90160E00E94AF15198668
S11315A01886C501DF91CF911F910F91FF90EF90A5
S11315B0DF90CF90BF90AF9008954F925F926F925B
S11315C07F928F929F92AF92BF92CF92DF92EF92CF
S11315D0FF920F931F93CF93DF93EC012B013A01FA
S11315E0580169018E8580FF05C06894882481F8BC
S11315F0912C02C0812C912CA114B104C104D104FA
S113160041F10FB6F8940F92CE0129DD7C018816C2
S1131610990648F060E080E090E00E94D1160E94B4
S11316207913998788870F900FBE8E149F04A0F0BA
S1131630E12CF12C00E010E0980140E050E0BA0108
S113164080E00E94111419861886CE0108DD7C0101
S113165003C0CE0104DD7C018E149F04E8F48401F0
S11316609701A301B201CE01F8DD6C01892BB1F021
S1131670C2D28A859B85892B69F08A859B85E12C5A
S1131680F12C00E020E030E0A90160E00E94B814F1
S11316901B861A86F0D302C0C12CD12CC601DF915F
S11316A0CF911F910F91FF90EF90DF90CF90BF905B
S11316B0AF909F908F907F906F905F904F90089520
S11316C0E0914515F0914615808181110CC08FEF92
S11316D09FEFDC0180930F1590931015A0931115C3
S11316E0B09312150895E0914515F09146150780C1
S11316F0F085E02D80819181A281B38180930F15C3
S113170090931015A0931115B09312150895CF93CB
S1131710DF93EC018B8D9C8D0E948603CE010E9489
S11317208603DF91CF9108954F925F926F927F92DB
S11317308F929F92AF92BF92CF92DF92EF92FF92DD
S11317400F93CF93DF932C015B014A013901E6012A
S113175065EA70E08B8D9C8D0E94012D8B8D9C8D94
S113176021E0821A9108880E991EA114B10489F40B
S113177015C0822F90E0F501E80FF91F3081DE01DA
S1131780A80FB91F5D963C938081882329F02F5FB1
S113179001C020E0203168F31CA601C01D8E0A3070
S11317A008F009E00A8F0DA71EA6CE0102960E943A
S11317B0D403CE010E960E94D403DB87CA878AE045
S11317C090E0A0E0B0E0801B9109A109B1098E87E7
S11317D09F87A88BB98BDF8BCE8B84E0FE01BF96ED
S11317E0DF011D928A95E9F71BAAA301B201C40186
S11317F04FD899838883E114F10419F0F701D18358
S1131800C083DF91CF910F91FF90EF90DF90CF9045
S1131810BF90AF909F908F907F906F905F904F900C
S11318200895CF93C0E009C02BE0C29FC0011124EA
S1131830835A9A4E0E94C303CF5FCA30A8F382E54D
S113184095E10E94C30387E495E10E94C30388E302
S113185095E10E94C3038DE295E10E94C30381E2F6
S113186095E10E94C30382E595E190934615809328
S1131870451587E495E19093441580934315CF91E2
S11318800895CF93DF93EC010FB6F8940F928091F3
S113189020158F5F809320158091CB159091CC15E6
S11318A0892B51F4D093CC15C093CB15809120157E
S11318B0813091F4B6DF10C080911A1581110CC0EB
S11318C0E091CB15F091CC15928D8A8D891720F07B
S11318D0D093CC15C093CB15809113158F5F809353
S11318E01315EA8D80911B158E1710F4E0931B15C8
S11318F08BE08E9FF0011124E35AFA4E0180F281AD
S1131900E02DFF83EE832681378139872887A681DE
S1131910B7819E012E5F3F4F15963C932E931497EB
S113192037832683EA8D8E9FF0011124E35AFA4E01
S1131930FD87EC8780818F5F80830F900FBE80913D
S11319401A15882351F0E091CB15F091CC15928DA6
S11319508A8D981710F40E949104DF91CF91089515
S1131960CF93DF931BC00FB6F8940F92E091341518
S1131970F0913515C085D185CE0102960E941504DB
S11319808091201581508093201580912C158150D1
S113199080932C150F900FBECE01B9DE80912C15CB
S11319A08111E1CFDF91CF9108958F929F92AF92F1
S11319B0BF92CF92DF92EF92FF92CF93DF936B01AE
S11319C07C01C42F80901C1590901D15A0901E15AD
S11319D0B0901F158091CB159091CC1502960E9462
S11319E015048FEFC816D806E806F806B1F5CC231F
S11319F0A1F1E1E2F5E1A181B281C091CB15D091D1
S1131A00CC15BF83AE83C091CB15D091CC1516965F
S1131A108D919C911797998788871696CD91DC9123
S1131A2017978091CB159091CC1502969D838C834A
S1131A308091CB159091CC15029617969C938E931A
S1131A401697A091CB15B091CC151D96FC93EE93EF
S1131A501C9780818F5F80833FC0C80CD91CEA1C0F
S1131A60FB1CE091CB15F091CC15C282D382E482A9
S1131A70F582C814D904EA04FB0468F46091CB1518
S1131A807091CC1580914315909144156E5F7F4FF2
S1131A900E94D80321C06091CB157091CC15809120
S1131AA04515909146156E5F7F4F0E94D803809133
S1131AB00F1590911015A0911115B0911215C8161B
S1131AC0D906EA06FB0640F4C0920F15D092101511
S1131AD0E0921115F0921215DF91CF91FF90EF90E3
S1131AE0DF90CF90BF90AF909F908F9008952F92EA
S1131AF03F924F925F926F927F928F929F92AF929A
S1131B00BF92CF92DF92EF92FF920F93CF93DF9326
S1131B103C011B014A012901CA010E94DD026C013A
S1131B20892B71F084E390E00E94DD02EC01892BA3
S1131B3019F0DC8ECB8E06C0C6010E94860302C05B
S1131B40C0E0D0E0209761F0A12CB12C6E0192018D
S1131B50A401B101C301E8DDCE0193DE81E001C03F
S1131B608FEFDF91CF910F91FF90EF90DF90CF90A7
S1131B70BF90AF909F908F907F906F905F904F90A9
S1131B803F902F900895EF92FF920F930F2EFDE058
S1131B90EF2EF5E1FF2EF02D00E020E030E040ECE8
S1131BA050E062E472E08DEC90E0A1DF813011F44A
S1131BB00E9475178130C9F4F8948FEF9FEFDC0110
S1131BC080930F1590931015A0931115B0931215CF
S1131BD081E080931A1510921C1510921D15109215
S1131BE01E1510921F150E945F04809106020F912A
S1131BF0FF90EF90089580910C158F5F80930C15E2
S1131C0008950FB6F8940F9260911C1570911D15EC
S1131C1080911E1590911F150F900FBE0895CF92BD
S1131C20DF92EF92FF92CF93DF9380910C15811195
S1131C3005C1C0901C15D0901D15E0901E15F090A4
S1131C401F158FEFC81AD80AE80AF80AC0921C15A3
S1131C50D0921D15E0921E15F0921F15C114D104E7
S1131C60E104F104B1F48091451590914615209159
S1131C7043153091441530934615209345159093A0
S1131C80441580934315809114158F5F8093141528
S1131C9017DD80910F1590911015A0911115B09139
S1131CA01215C816D906EA06FB0620F480E0B2C075
S1131CB081E001C080E0E0914515F09146159081E6
S1131CC091110CC04FEF5FEFBA0140930F15509381
S1131CD0101560931115709312159CC0E091451571
S1131CE0F09146150780F085E02D0084F185E02D04
S1131CF04281538164817581C416D506E606F706D0
S1131D0048F440930F155093101560931115709378
S1131D10121580C0A485B585C681D78120853185FB
S1131D203F832E83C085D185268137813D832C83D3
S1131D3011964D915C9112979F012E5F3F4F421770
S1131D40530731F44085518512965C934E93119755
S1131D50158614869C9191509C93A08DB18D1097FB
S1131D6009F1C289D389448955895F834E83C48923
S1131D70D589428953895D834C8311966D917C91F9
S1131D801297AF01425F5F4F6417750731F44489BE
S1131D90558912965C934E931197118E108E9C91D7
S1131DA091509C93A28D90911B159A1710F4A093B7
S1131DB01B159BE09A9FD0011124A35ABA4E119689
S1131DC00D90BC91A02DB783A68316964D915C917E
S1131DD01797518740871696CD91DC9117973D83CD
S1131DE02C8317963C932E931697A28D9A9FD0011D
S1131DF01124A35ABA4EB587A4879C919F5F9C93E4
S1131E00228DE091CB15F091CC15928D291708F015
S1131E104FCF51CFE091CB15F091CC15E28D9BE0E3
S1131E20E99FF0011124E35AFA4E9081923008F0B0
S1131E3081E090911515911116C016C08091161568
S1131E4090911715A0911815B09119150196A11D1F
S1131E50B11D8093161590931715A0931815B09380
S1131E60191580E001C081E0DF91CF91FF90EF90E0
S1131E70DF90CF900895CF92DF92EF92FF92CF93AD
S1131E80DF930FB6F8940F9280910C1581508093D4
S1131E900C1580910C158111BEC080912015811103
S1131EA088C0BCC0E0913F15F09140150084F185D5
S1131EB0E02DA08DB18DC289D389848995899F83B2
S1131EC08E83C489D589828993899D838C83119655
S1131ED02D913C911297CF010E962817390731F4B2
S1131EE08489958912969C938E931197118E108EE6
S1131EF08C9181508C93A485B585C681D7818085CA
S1131F0091859F838E83C085D185868197819D83AA
S1131F108C8311968D919C9112979F012E5F3F4F58
S1131F208217930731F48085918512969C938E9342
S1131F301197158614868C9181508C93A28D809173
S1131F401B158A1710F4A0931B158BE08A9FD001F0
S1131F501124A35ABA4E11960D90BC91A02DB783AB
S1131F60A68316964D915C911797518740871696D4
S1131F70CD91DC9117973D832C8317963C932E9338
S1131F801697A28D8A9FD0011124A35ABA4EB58701
S1131F90A4878C918F5F8C93928DA091CB15B09177
S1131FA0CC155A968C91981730F081E080931515D2
S1131FB002C0E0E0F0E080913815811173CFEF2B7F
S1131FC009F07EDBC0901615D0901715E090181517
S1131FD0F0901915C114D104E104F104A1F01FDE3D
S1131FE0882319F081E08093151581E0C81AD1087F
S1131FF0E108F108A1F71092161510921715109226
S113200018151092191580911515882331F00E9426
S1132010910481E003C080E001C080E00F900FBE16
S1132020DF91CF91FF90EF90DF90CF9008958F9242
S11320309F92AF92BF92CF92DF92EF92FF921F9343
S1132040CF93DF93EC016A017B01D5DD80901C15F1
S113205090901D15A0901E15B0901F158881998130
S1132060AA81BB81AC01BD014C0D5D1D6E1D7F1DA0
S113207088169906AA06BB0660F4481759076A072A
S11320807B0798F484169506A606B70680F010E040
S113209013C0481759076A077B0758F0841695063A
S11320A0A606B70640F010E007C010E005C011E036
S11320B003C011E001C011E0488359836A837B8324
S11320C0112341F0CB01BA01681979098A099B09E6
S11320D040E06BDCD0DE811102C00E949104812FAC
S11320E0DF91CF911F91FF90EF90DF90CF90BF9041
S11320F0AF909F908F900895CF92DF92EF92FF92CE
S11321006B017C01672B682B692B39F074DD40E08F
S1132110C701B6014ADCAFDE01C080E0811102C014
S11321200E949104FF90EF90DF90CF9008958091EA
S11321300C15882321F081E08093151508951092E1
S11321401515E091CB15F091CC1520813181E091EA
S1132150CB15F091CC15838D948D8217930760F085
S11321606091CB157091CC15635E7F4F8091CB1538
S11321709091CC150E94031A80911B1501C08150C7
S1132180282F30E09BE0929FF001939FF00D1124E3
S1132190E35AFA4E9081992391F39BE0929FA00118
S11321A0939F500D1124DF010180F281E02D048002
S11321B0F581E02D1296FC93EE931197405A5A4EF6
S11321C0E417F50729F444815581FD0152834183C5
S11321D09BE0929FF001939FF00D1124E35AFA4E75
S11321E00180F281E02D208531853093CC15209338
S11321F0CB1580931B150895CF92DF92EF92FF9237
S11322006A017B016091CB157091CC15625F7F4FA1
S11322100E94D80341E0C701B601C7DBFF90EF90ED
S1132220DF90CF9008950F931F93CF93DF93FC011A
S1132230A091CB15B091CC1570681E964D935D930B
S11322406D937C935197A181B281C091CB15D091AC
S1132250CC15BB8BAA8BC091CB15D091CC151696FF
S11322608D919C9117979D8B8C8B1696CD91DC91BB
S113227017978091CB159091CC150E969D838C83E6
S11322808091CB159091CC150E9617969C938E93B6
S11322901697A091CB15B091CC155996FC93EE935B
S11322A0589780818F5F808341E0C901B8017DDB4D
S11322B0DF91CF911F910F910895CF93DF93FC018C
S11322C0CB01BA01A181B281C091CB15D091CC15BB
S11322D0BB8BAA8BC091CB15D091CC1516964D9182
S11322E05C9117975D8B4C8B1696CD91DC9117976B
S11322F04091CB155091CC15425F5F4F5D834C8369
S11323004091CB155091CC15425F5F4F17965C936B
S11323104E931697A091CB15B091CC155996FC937A
S1132320EE93589730813F5F3083222319F06FEF8B
S11323307FEFCB01422F39DBDF91CF910895CF930B
S1132340DF93DC011796ED91FC9118970084F185D9
S1132350E02DA08DB18DC289D389848995899F830D
S11323608E83C489D589828993899D838C831196B0
S11323708D919C9112979F01225F3F4F8217930783
S113238031F48489958912969C938E931197118EBA
S1132390108E8C9181508C9380910C15811152C0B8
S11323A0A485B585C681D781808591859F838E83D9
S11323B0C085D185868197819D838C8311968D916B
S11323C09C9112979F012E5F3F4F8217930731F420
S11323D08085918512969C938E9311971586148609
S11323E08C9181508C93A28D80911B158A1710F4C7
S11323F0A0931B158BE08A9FD0011124A35ABA4ED7
S113240011960D90BC91A02DB783A68316964D917D
S11324105C911797518740871696CD91DC91179759
S11324203D832C8317963C932E931697A28D8A9FF7
S1132430D0011124A35ABA4EB587A4878C918F5F1B
S11324408C931CC048E355E1DA011196CD91DC91DF
S11324501297D38BC28B8E819F81958B848B8E81B7
S11324609F81DC0115963C932E9314973F832E8312
S1132470518F408FDA018C918F5F8C93928DE09114
S1132480CB15F091CC15828D891720F481E08093CF
S1132490151501C080E0DF91CF910895CF93DF93AC
S11324A0DC0170684D935D936D937C93139718963C
S11324B0ED91FC9119971A964D915C911B97149686
S11324C08D919C91159716962D913C911797EC013F
S11324D03F832E8316968D919C91179714962D9178
S11324E03C911597EC013D832C83EA0189819A8103
S11324F0A817B90731F416968D919C9117979A8372
S113250089831B961C921E921A97DA018C91815032
S11325108C93A485B585C681D781808591859F8359
S11325208E83C085D185868197819D838C83119606
S11325308D919C9112979F012E5F3F4F82179307B5
S113254031F48085918512969C938E93119715860C
S113255014868C9181508C93A28D80911B158A17BF
S113256010F4A0931B158BE08A9FD0011124A35A69
S1132570BA4E11960D90BC91A02DB783A6831696E2
S11325804D915C911797518740871696CD91DC91B8
S113259017973D832C8317963C932E931697A28D01
S11325A08A9FD0011124A35ABA4EB587A4878C916F
S11325B08F5F8C93928DE091CB15F091CC15828D29
S11325C0891718F481E080931515DF91CF91089550
S11325D00FB6F8940F9220911415FC0120834091BA
S11325E01C1550911D1560911E1570911F15418386
S11325F05283638374830F900FBE08952091141542
S1132600FC01208340911C1550911D1560911E15ED
S113261070911F15418352836383748308958F924D
S11326209F92AF92BF92CF92DF92EF92FF920F935D
S11326301F93CF93DF93FB010FB6F8940F92C090D2
S11326401C15D0901D15E0901E15F0901F15DC018F
S113265011960D911D912D913C91149746015701AE
S1132660801A910AA20AB30A40815181628173815E
S11326704F3FBFEF5B076B077B0739F1EC01B88174
S1132680A0911415BA1759F0C016D106E206F30644
S113269030F0108211821282138281E017C08416F6
S11326A09506A606B70658F4481959096A097B091C
S11326B04083518362837383A1DF80E007C010826B
S11326C011821282138281E001C080E00F900FBE5C
S11326D0DF91CF911F910F91FF90EF90DF90CF90FA
S11326E0BF90AF909F908F90089581E080931515CF
S11326F008958091CB159091CC15089580911A1569
S1132700882331F080910C15811104C082E0089572
S113271081E0089580E008950F931F93CF93DF9392
S1132720FC01892B09F449C086A5815086A7228D16
S113273095A5291709F443C0811143C0EF018F0106
S11327400E5F1F4FC8010E941504EDA5EA8F8AE0B1
S113275090E0A0E0B0E08E1B9109A109B1098E8739
S11327609F87A88BB98B80911B158E1710F4E0936B
S11327701B158BE08E9FF0011124E35AFA4E018061
S1132780F281E02DFF83EE83268137813987288704
S1132790A681B78115961C930E931497178306830D
S11327A0EA8D8E9FF0011124E35AFA4EFD87EC87DF
S11327B080818F5F808381E005C080E003C080E07A
S11327C001C080E0DF91CF911F910F910895CF92C6
S11327D0DF92EF92FF92E091CB15F091CC156685D4
S11327E0778580899189E091CB15F091CC15A091E2
S11327F0CB15B091CC155A962C910F2EFAE0CF2E12
S1132800D12CE12CF12CF02DC21AD108E108F108E9
S1132810C686D786E08AF18AFF90EF90DF90CF904A
S113282008954F925F926F927F92AF92BF92CF9230
S1132830DF92EF92FF920F931F93CF93DF932801C0
S113284039010FB6F8940F92E091CB15F091CC15A5
S1132850C82FD0E0EC0FFD1F83A9823071F1E09105
S1132860CB15F091CC15CE01880F991F880F991FB5
S1132870E80FF91F87A590A9A1A9B2A94095509581
S113288060957095482359236A237B2347A750AB4F
S113289061AB72ABE091CB15F091CC15EC0FFD1F41
S11328A081E083ABA114B104C104D10431F041E04F
S11328B0C601B5017AD80E9491040F900FBE0FB6DD
S11328C0F8940F92E114F104A1F0E091CB15F0918A
S11328D0CC15CE01880F991F880F991FE80FF91F97
S11328E087A590A9A1A9B2A9F70180839183A283A6
S11328F0B383E091CB15F091CC15EC0FFD1F83A9A8
S11329008230E9F4E091CB15F091CC15CE01880F1B
S1132910991F880F991FE80FF91F87A590A9A1A9EE
S1132920B2A94094509460947094482259226A2227
S11329307B2247A650AA61AA72AA81E001C080E066
S11329402091CB153091CC15C20FD31F1BAA0F9029
S11329500FBEDF91CF911F910F91FF90EF90DF9009
S1132960CF90BF90AF907F906F905F904F900895FD
S11329708F929F92AF92BF92EF92FF920F93CF9359
S1132980DF93DC010FB6F8940F92E114F10489F09F
S1132990E62FF0E0EE0FFF1FEE0FFF1FE80FF91F09
S11329A087A490A8A1A8B2A8F70180829182A282EC
S11329B0B38270E0FD01E60FF71F83A992E093ABA9
S11329C0023001F118F4013031F04DC0033079F1D7
S11329D00430D1F148C0660F771F660F771FFD01E1
S11329E0E60FF71F87A490A8A1A8B2A8BA01A9016D
S11329F0482959296A297B2947A750AB61AB72AB97
S1132A0001E034C0660F771F660F771FFD01E60FE4
S1132A10F71F47A550A961A972A94F5F5F4F6F4F78
S1132A207F4F47A750AB61AB72AB01E01FC0660F8D
S1132A30771F660F771FFD01E60FF71F27A730AB3F
S1132A4041AB52AB01E012C0823079F0660F771FC0
S1132A50660F771FFD01E60FF71F27A730AB41ABC9
S1132A6052AB01E003C001E001C000E0813009F095
S1132A7069C01C96ED91FC911D971696CD91DC9141
S1132A80179718968D919C9119979F838E8318960A
S1132A90CD91DC91199716968D919C9117979D83F2
S1132AA08C83818192819D012E5F3F4F8217930712
S1132AB031F418968D919C911997928381831D9678
S1132AC01C921E921C978081815080835A96EC91AF
S1132AD05A9780911B158E1710F4E0931B158BE009
S1132AE08E9FF0011124E35AFA4E0180F281E02D09
S1132AF01796FC93EE9316974681578119965C932B
S1132B004E931897C681D7813D832C8337832683C0
S1132B105A96EC915A978E9FF0011124E35AFA4E7B
S1132B201D96FC93EE931C9780818F5F80835A9649
S1132B309C91E091CB15F091CC15828D891710F4FE
S1132B400E9491040F900FBE802FDF91CF910F91BF
S1132B50FF90EF90BF90AF909F908F9008958F92C9
S1132B609F92AF92BF92CF92DF92EF92FF920F9318
S1132B70CF93DF93DC01E114F10489F0E62FF0E058
S1132B80EE0FFF1FEE0FFF1FE80FF91F87A490A899
S1132B90A1A8B2A8F70180829182A282B38270E0D8
S1132BA0FD01E60FF71F93A982E083AB023001F128
S1132BB018F4013031F04DC0033079F10430D1F113
S1132BC048C0660F771F660F771FFD01E60FF71FDA
S1132BD087A490A8A1A8B2A8BA01A9014829592993
S1132BE06A297B2947A750AB61AB72AB81E034C043
S1132BF0660F771F660F771FFD01E60FF71F47A5C6
S1132C0050A961A972A94F5F5F4F6F4F7F4F47A7CC
S1132C1050AB61AB72AB81E01FC0660F771F660FCC
S1132C20771FFD01E60FF71F27A730AB41AB52AB6F
S1132C3081E012C0923079F0660F771F660F771F1C
S1132C40FD01E60FF71F27A730AB41AB52AB81E084
S1132C5003C081E001C080E0913009F096C09091FA
S1132C600C1591115FC01C96ED91FC911D97169661
S1132C70CD91DC91179718962D913C9119973F832C
S1132C802E831896CD91DC91199716962D913C912F
S1132C9017973D832C83418152819D012E5F3F4FC5
S1132CA04217530731F418964D915C91199752834A
S1132CB041831D961C921E921C9790819150908383
S1132CC05A96EC915A9790911B159E1710F4E09325
S1132CD01B159BE09E9FF0011124E35AFA4E0180DC
S1132CE0F281E02D1796FC93EE9316974681578157
S1132CF019965C934E931897C681D7813D832C8394
S1132D00378326835A96EC915A979E9FF00111249B
S1132D10E35AFA4E1D96FC93EE931C9790819F5FA5
S1132D20908321C068E375E1FB01C181D281539690
S1132D30DC93CE9352972E813F8155963C932E93EC
S1132D4054974E815F819D01225F3F4FFA01358385
S1132D5024833F832E8359967C936E935897FB016B
S1132D6090819F5F90835A962C91E091CB15F091BE
S1132D70CC15928D921748F4C114D10419F091E046
S1132D80F601908391E090931515DF91CF910F9107
S1132D90FF90EF90DF90CF90BF90AF909F908F9077
S1132DA00895009721F48091CB159091CC150FB61E
S1132DB0F8940F9270E0FC01E60FF71F23A922306C
S1132DC031F4FC01E60FF71F13AA81E001C080E093
S1132DD00F900FBE0895DC01E091D715F091D8153E
S1132DE0808191E0811190E09C93911108C007804B
S1132DF0F085E02D6081718182819381089560E086
S1132E0070E0CB010895CF92DF92EF92FF920F937F
S1132E101F93FC0142835383648375839387828762
S1132E200417150726073707C0F00C191D092E09CA
S1132E303F0986859785A089B189081719072A074C
S1132E403B0700F5BF016E5F7F4F8091D5159091D0
S1132E50D6150E94D80380E018C00C151D052E0558
S1132E603F0528F44C155D056E057F0568F4BF0128
S1132E706E5F7F4F8091D7159091D8150E94D8032B
S1132E8080E003C081E001C081E01F910F91FF90B9
S1132E90EF90DF90CF9008950FB6F8940F92809141
S1132EA0D3159091D415892BE9F484EE95E10E9411
S1132EB0C30389ED95E10E94C30384EE95E19093E9
S1132EC0D8158093D71589ED95E19093D615809305
S1132ED0D51540E067E08AE00E9476069093D41509
S1132EE08093D3150F900FBE0895EF92FF920F9326
S1132EF0D3DF8091D3159091D415892B91F00F2EA7
S1132F00F1EDEF2EF5E1FF2EF02D03E020E030E0AF
S1132F1040EC50E067E472E087ED90E00E94770DAA
S1132F2001C080E00F91FF90EF9008958F929F92DF
S1132F30AF92BF92CF92DF92EF92FF920F931F93C3
S1132F40CF93DF93CDB7DEB727970FB6F894DEBFE4
S1132F500FBECDBFE091D315F091D415309781F118
S1132F6069832A833B834C835D839F838E8366308E
S1132F70F4F4C4DB823069F400E0A7019601BE01D9
S1132F806F5F7F4F8091D3159091D4150E9499065D
S1132F9018C000E020E030E0A901BE016F5F7F4F60
S1132FA08091D3159091D4150E9499060AC020E00F
S1132FB0A801BE016F5F7F4FCF010E94490701C086
S1132FC080E027960FB6F894DEBF0FBECDBFDF9129
S1132FD0CF911F910F91FF90EF90DF90CF90BF9012
S1132FE0AF909F908F9008958F929F92AF92BF92CF
S1132FF0CF92DF92EF92FF920F931F93CF93DF93C1
S11330003BC00780F085E02D80809180A280B38052
S1133010C085D1858E010E5F1F4FC8010E94150423
S1133020EC89FD89CE0119958E8982FF25C08E8594
S11330309F85A889B989880D991DAA1DBB1D88166D
S11330409906AA06BB0670F48A839B83AC83BD836E
S1133050DB87CA87B8018091D7159091D8150E9453
S1133060D8030AC0C12CD12C760100E010E0A501E0
S1133070940160E0CE015ADFE091D715F091D815A4
S113308080818111BECF8091D5159091D6159093F2
S1133090D8158093D715F093D615E093D515DF9105
S11330A0CF911F910F91FF90EF90DF90CF90BF9041
S11330B0AF909F908F900895CF92DF92EF92FF92FE
S11330C0CF93DF93EC010E94010E6B017C01809190
S11330D0CD159091CE15A091CF15B091D015C816ED
S11330E0D906EA06FB0620F47FDF81E0888301C06D
S11330F01882C092CD15D092CE15E092CF15F092E1
S1133100D015C701B601DF91CF91FF90EF90DF900A
S1133110CF9008954F925F926F927F928F929F9279
S1133120AF92BF92CF92DF92EF92FF920F931F93D1
S1133130CF93DF934B015C0129013A01E091D7154C
S1133140F091D8150780F085E02DC085D185CE019A
S113315002960E9415048E8982FF1BC04E855F85EE
S113316068897989480D591D6A1D7B1D75016401A3
S113317093018201CE0147DE882369F0C12CD12C52
S1133180760100E010E0A501940160E0CE01CEDEFE
S113319002C08E7F8E8BEC89FD89CE011995DF915B
S11331A0CF911F910F91FF90EF90DF90CF90BF9040
S11331B0AF909F908F907F906F905F904F90089505
S11331C08F929F92AF92BF92CF92DF92EF92FF9233
S11331D01F93CF93DF931F92CDB7DEB76B017C01B2
S11331E0142F0E94FB0DCE01019666DF4B015C019A
S11331F0898181112DC011110DC08C149D04AE0460
S1133200BF0440F00E943B0FA5019401C701B60121
S113321081DF20C0112341F0E091D515F091D6153E
S1133220808111E0811110E0B701A6014819590904
S11332306A097B09212F8091D3159091D4150E949E
S113324013080E943B0F811105C00E94910402C023
S11332500E943B0F0F90DF91CF911F91FF90EF9051
S1133260DF90CF90BF90AF909F908F900895AF92D2
S1133270BF92CF92DF92EF92FF920F931F93CF935F
S1133280DF93CDB7DEB728970FB6F894DEBF0FBE35
S1133290CDBF82C0898188230CF47EC0AE80BF80FC
S11332A0D5011C968D919C911D97892B21F0C50108
S11332B002960E941504CE010896FEDE8B019C0145
S11332C0E9810E2E000CFF0BEA30F10508F064C012
S11332D08827EE58FF4F8F4F0C94CB2BF50186892E
S11332E08160868BCA80DB80EC80FD8046855785B3
S11332F0608971894C0D5D1D6E1D7F1DC50183DDC7
S1133300882309F449C0D5015496ED91FC91559751
S1133310C5011995F501868982FF3EC04A815B810A
S11333206C817D8186859785A089B1899A01AB01DD
S1133330280F391F4A1F5B1FC12CD12C760100E0D6
S113334010E060E0C501F2DD27C0D50156968C91EE
S113335056978E7F56968C931FC0F501868981609F
S1133360868B4A815B816C817D8146875787608B20
S1133370718B400F511F621F731F68017901C501D2
S113338042DD0AC0F501868981FD04C0C5010E94A1
S1133390860302C08E7F868B20E030E0A901BE0147
S11333A06F5F7F4F8091D3159091D4150E9484074D
S11333B0811170CF28960FB6F894DEBF0FBECDBF33
S11333C0DF91CF911F910F91FF90EF90DF90CF90FD
S11333D0BF90AF900895089584B1806884B985B191
S11333E0806885B9089583B1806883B90895F4DF4E
S11333F02FEF80E792E0215080409040E1F700C039
S11334000000F1DFF5CFE8DF2FEF87EA91E62150E6
S113341080409040E1F700C00000E5DFF5CF86E092
S113342090E00E94DD0290934A1780934917009719
S113343069F0FC01118210828091491790914A171A
S1133440FC011582148213821282089580E090E0B8
S11334500895E0914917F0914A1791838083089564
S1133460E0914917F0914A17938382830895E0917C
S11334704917F0914A17958384830895EFEEF5E197
S113348026E021836083A0914917B0914A172C91BB
S113349011963C9111973283238312962C911297A3
S11334A013963C9113973483258314962C91149787
S11334B015963C913683278326E1DC0101900D9219
S11334C02A95E1F708950F931F93CF93DF938C010F
S11334D0EB0188E090E00E94DD02009709F110936F
S11334E0501700934F17D0935617C0935517409118
S11334F00516509106166091071670910816FC0186
S113350044835583668377834091091650910A1644
S113351060910B1670910C16408351836283738300
S1133520DF91CF911F910F910895609109167091C9
S11335300A1680910B1690910C16C5D2CB010895F2
S113354060910516709106168091071690910816E1
S1133550BAD2CB01089539D3882341F08FE492E0A5
S11335609F938F930E94572D0F900F900895CC2412
S1133570CA94DC2C760101E021E042E050E060E0F6
S113358070E080914F17909150170E943C0161FFA9
S11335904EC066E070E080E090E00E947C102DD385
S11335A08823C1F066E070E080E090E00E947C1027
S11335B084E692E09F938F930E94572D0F900F9073
S11335C006C063E070E080E090E00E947C1015D3B8
S11335D08823B9F327D363E070E080E090E00E9491
S11335E07C1020D38111C3CF66E070E080E090E0CE
S11335F00E947C1028D3609305167093061680935E
S113360007169093081634D36093091670930A161C
S113361080930B1690930C1641E050E060E070E04C
S113362080915517909156170E94DC01A0CF8EE926
S113363092E00E946A2D9BCF0F931F93CF93DF9349
S1133640CDB7DEB764970FB6F894DEBF0FBECDBF1B
S113365084EA92E00E946A2D81E00E94CB2790D4F4
S11336600CD79F938F9380EB92E09F938F930E944C
S1133670572D04D602D79F938F9383EC92E09F93A8
S11336808F930E94572D8CED92E00E946A2D8E013B
S11336900F5F1F4FC80186D4F0D61F930F939F93DB
S11336A08F9389EE92E09F938F930E94572DC801C8
S11336B095D4E3D69F938F931F930F938DEF92E04E
S11336C09F938F930E94572D82E193E00E946A2D6D
S11336D0A8016FE173E080E493E0AED6CED69F9369
S11336E08F931F930F938FE193E09F938F9380E4C5
S11336F093E09F938F9381E593E09F938F930E9430
S1133700572D9FD4BAD69F938F9387E893E09F93C6
S11337108F930E94572D0FB6F894DEBF0FBECDBF16
S113372081E089D5AAD69F938F9386E993E09F93EE
S11337308F930E94572D87EB93E00E946A2D84EFAC
S113374091E084D59AD69F938F9381E08F9384EFF1
S11337508F9384EC93E09F938F930E94572D84EA78
S113376092E00E946A2D0FB6F894DEBF0FBECDBF63
S11337701AE080E06CD4082F80D69F938F931F9219
S11337801F9384EE93E09F938F930E94572D0F9085
S11337900F900F900F900F900F90083059F080E029
S11337A00E942F2866E371E080E090E00E947C1084
S11337B01150F9F6083021F481E00E9411280DC05F
S11337C084E094E00E946A2D81E00E94202880E039
S11337D00E94EE270E949104FDCF64960FB6F894E0
S11337E0DEBF0FBECDBFDF91CF911F910F91089522
S11337F0EF92FF920F939B0170930E1660930D1638
S1133800E12CF12C082F48E851E06FE074E08DE6DC
S11338109CE10E94770D0F91FF90EF900895CF9354
S1133820DF9300D01F92CDB7DEB781E09BD362E077
S113383070E080E090E00E947C1080E093D366E921
S113384070E080E090E00E947C108AE194E00E94A5
S11338506A2D41D3F1DEEFE0F6E186E0818382E078
S113386080830E94010E69837A838B839C8381E227
S113387094E00E946A2D0FEF1FEF980146E150E09B
S11338806FE076E180910D1690910E160E94DD0A8C
S11338908C0189E294E00E946A2D44E457E060E0E0
S11338A070E0CE0101960E94171001151105A9F3CD
S11338B083E00E9441286FE076E180E0F1D3DDD51A
S11338C09F938F9382E394E09F938F930E94572D4D
S11338D00F900F900F900F90E0CFA1DFCF93DF9365
S11338E0EC010E94010ECE0142DEDF91CF910895DA
S11338F0CF93DF93CDB7DEB7AC970FB6F894DEBFA6
S11339000FBECDBF42E050E060E070E080915D17F3
S113391090915E170E94DC01CC24CA94DC2C7601C1
S113392000E021E041E050E060E070E08091591750
S113393090915A170E943C0160FF1EC08AE194E0F6
S113394088DDF3DD8DDDF1DD9F938F9388E494E0D2
S11339509F938F930E94572DF3DD89DDF1DD9F93B3
S11339608F9387E494E09F938F930E94572D0FB613
S1133970F894DEBF0FBECDBF62E0CE0147967EDD78
S113398086E1FE017796DE01119601900D928A95EB
S1133990E1F763E070E080E090E00E947C100FEFBC
S11339A01FEF980146E150E0BE016F5F7F4F8091A9
S11339B05717909158170E94D409A4CFEF92FF9201
S11339C00F9341E060E070E084E690E00E947209A9
S11339D0909358178093571722DD0E942901092ECE
S11339E0000CAA0BBB0B80935D1790935E17A093FA
S11339F05F17B09360170E942901AC01092E000CD7
S1133A00660B770B4093591750935A1760935B17C3
S1133A1070935C17BC0180915D1790915E1753DD24
S1133A208091611790916217892B89F481E00E943B
S1133A303D079093621780936117009741F000E06F
S1133A4020E030E0A90160E070E00E949906E12CDA
S1133A50F12C03E020E030E040EC50E065E574E058
S1133A6088E79CE10E94770D01E020E030E040EC23
S1133A7050E061E674E08EE69CE10E94770D0F91C0
S1133A80FF90EF90089581B1816881B980E00E9430
S1133A90762661DD86E794E00E946A2D8FDF85E05B
S1133AA00E947D2760E070E081E01CD2609157178E
S1133AB07091581784E09CCE0895E5DF0E94C30DF1
S1133AC080E090E0089533D088F09F5790F0B92FAC
S1133AD09927B751A0F0D1F0660F771F881F991F5F
S1133AE01AF0BA95C9F712C0B13081F03AD0B1E0FA
S1133AF0089537C0672F782F8827B85F39F0B93F0A
S1133B00CCF3869577956795B395D9F73EF4909560
S1133B108095709561957F4F8F4F9F4F089557FD06
S1133B209058440F551F59F05F3F71F04795880F27
S1133B3097FB991F61F09F3F79F0879508951216BE
S1133B4013061406551FF2CF4695F1DF08C016166A
S1133B5017061806991FF1CF86957105610508941B
S1133B600895E894BB2766277727CB0197F9089532
S1133B706530F1F4FA0180818F7390E0982F8827E3
S1133B802181822B90930A02809309028281F0E4BE
S1133B908F9FC0011124FA01238126952695822B3B
S1133BA0909308028093070281E08093251608957C
S1133BB0643051F080E090E490930802809307020F
S1133BC090930A028093090208950F931F9308EBC0
S1133BD01DE120E034E244EF50E060E087E20E941F
S1133BE06328909327168093261621E0892B09F0E9
S1133BF020E0822F1F910F910895809126169091B5
S1133C002716009759F040E060E070E00E94B42865
S1133C10843031F41092251680E0089582E00895EE
S1133C2083E008958091261690912716009739F025
S1133C3064E00E940029853021F083E0089582E049
S1133C40089580E008956091090270910A0280E06D
S1133C5090E00E94DE2A20E030E048EC52E40E942A
S1133C60432B20E038EF4FE756E40C94732A089571
S1133C70609107027091080280E090E00E94DE2AC1
S1133C8020E030E045E253E40E94432B20E038EF8B
S1133C904FE756E40E94732A20E030E040E252E409
S1133CA00C940C2A08950F931F93CF93DF931F92C4
S1133CB01F92CDB7DEB78C0119822DC0E0915F163B
S1133CC0EC3250F481E08E0F80935F16F0E0EF56F3
S1133CD0F94E8A81808302C010925F168A818A30ED
S1133CE0D1F440915F1650E0FA01E157F94E108289
S1133CF0415051099E012F5F3F4F61E976E1809168
S1133D006216909163160E94990A898181110E941A
S1133D10910410925F16BE016E5F7F4FC80150D5AB
S1133D20882361F20F900F90DF91CF911F910F9133
S1133D3008950F931F93CF93DF938C01EB01809130
S1133D406216909163160E94A409B80188E296E174
S1133D500E94382D209779F0E8E2F6E101900020E6
S1133D60E9F7319780E290E091838083BE0188E295
S1133D7096E10E942D2DE8E2F6E1DF010D9000208E
S1133D80E9F711978DE09AE011969C938E93129621
S1133D901C9201900020E9F73197E852F641AE2FCA
S1133DA088E296E1AC016A2F8091641690916516C1
S1133DB0B2D4811111C008E215E020E030E04DE2F8
S1133DC050E06BEE76E180916216909163160E944A
S1133DD0DD0A8BEE96E102C080E090E0DF91CF91A6
S1133DE01F910F9108952F923F924F925F926F927D
S1133DF07F928F929F92AF92BF92CF92DF92EF9277
S1133E00FF920F931F93CF93DF935C01FC0101900A
S1133E100020E9F731976F01C81AD90A5C2C0F2EDC
S1133E20F5E18F2EF7E09F2EF02DE12CF12C4C2C98
S1133E303701F40101811281E80109900020E9F7BA
S1133E402197C01BD10B3C2EF9E0CF16D10458F0BA
S1133E50F4012080FEE02F1206C0B801C5010E94C3
S1133E60082D892B09F5442D351408F44C2F50E006
S1133E70B801C5010E943F2D892B49F4F301EE0FCF
S1133E80FF1FE60DF71DEB5EF84F20800DC08FEF8E
S1133E90E81AF80AE3E08E0E911CF1E1EF16F10442
S1133EA039F66894222424F8822DDF91CF911F9152
S1133EB00F91FF90EF90DF90CF90BF90AF909F90C5
S1133EC08F907F906F905F904F903F902F900895C8
S1133ED030DF89CF089580916216909163160C9417
S1133EE0A40908958F929F92AF92CF92EF920F936D
S1133EF01F93CF93C82F8B0141E060E070E088EC02
S1133F0090E00E9472099093631680936216109356
S1133F106116009360160F2EF3E58F2EFEE19F2E9F
S1133F20F02D6894AA24A6F86894CC24C6F8E12C51
S1133F3000E023E040E051EE60E070E08C2F1ED3FF
S1133F409093651680936416E7E0F1E080818061C8
S1133F508083CF911F910F91EF90CF90AF909F905E
S1133F608F900895882331F0E8E0F1E080818F7E1E
S1133F7080830895E8E0F1E0808180618083089582
S1133F8060E070E08BE994E0D4DEEBEEF6E10190C2
S1133F900020E9F73197EB5EF64181E0759708F070
S1133FA080E00895CF93DF93EC0160E070E08CEA49
S1133FB094E0BFDEEBEEF6E101900020E9F7EC5F60
S1133FC0F64139F46BEE76E1CE010E94382D80E0A3
S1133FD002C0188281E0DF91CF910895FC01019025
S1133FE00020E9F79F01215131092817390729F4E5
S1133FF0BC018AED94E06CCF089589E00895FC013A
S113400001900020E9F79F01215131092817390750
S113401029F4BC0189EE94E05BCF089589E008950A
S1134020FC0101900020E9F79F0121523109281772
S1134030390729F4BC0188EF94E04ACF089589E058
S1134040089560E070E087E395E042CF08950F9310
S11340501F93E82FF0E0EE0FFF1FEF5EF84F608133
S1134060718180E495E034DF811114C008E215E029
S113407020E030E04DE250E06BEE76E18091621694
S1134080909163160E94DD0A882321F08BEE96E15D
S1134090AADE03C08BEE96E1A6DE1F910F91089570
S11340A00F931F93CF93DF931F92CDB7DEB7DB013E
S11340B011969C911197953108F0B4C0992381F120
S11340C060E070E0272F30E0462F50E0FD01E40F60
S11340D0F51F928192959F709A3010F0995C01C0FF
S11340E0905DF901E458F94E90832F5F3F4FFD0135
S11340F0E40FF51F92819F70492F50E04A3051051B
S113410014F0995C01C0905DF901E458F94E908374
S11341107E5F6F5F11969C911197691798F201C0A9
S113412070E0E72FF0E0E458F94E10824C918111D1
S113413003C089E495E002C08BE495E02CE736E106
S11341403F932F931F924F939F938F938FE495E008
S11341509F938F938EEB96E19F938F930E949A2D5A
S113416060E070E08EEB96E1B3DE0FB6F894DEBF4C
S11341700FBECDBF811159C008E215E020E030E048
S11341804DE250E06BEE76E18091621690916316F9
S11341900E94DD0A882309F447C08BEE96E123DEF2
S11341A08E3009F042C087E0898380916016909137
S11341B06116892BA9F1BE016F5F7F4F8BEE96E1EB
S11341C068D180936616E981F0E0E551F94EDF018C
S11341D00D900020E9F71197AE1BBF0BAA2391F0B5
S11341E0BB27CD0101979C0112F42F5F3F4F3595FA
S11341F0279520936716AF014F5F5F4F64E188E610
S113420096E173D101E010E020E030E046E150E0B7
S113421066E676E180916016909161160E94D40959
S11342208EE003C084E101C080E00F90DF91CF9164
S11342301F910F910895813019F06FE575E002C068
S113424068E376E083E695E043CE08959F938F93E9
S113425084E995E09F938F938EEB96E19F938F93E0
S11342600E949A2D60E070E08EEB96E131DE0F90B3
S11342700F900F900F900F900F9008952F923F92F0
S11342804F925F926F927F928F929F92AF92BF9262
S1134290CF92DF92EF92FF920F931F93CF93DF930E
S11342A0CDB7DEB7A0970FB6F894DEBF0FBECDBF73
S11342B061EC75E08DEC95E03CDD95DD8111A3C0EA
S11342C080E2E2E2F2E0DE01119601900D928A951D
S11342D0E1F79E012F5F3F4F6901E12CF12C0F2E76
S11342E0F9EDAF2EF5E0BF2EF02D0EEB16E10F2EFB
S11342F0F2EF4F2EF5E05F2EF02D0F2EF9E08F2E0A
S1134300F6E09F2EF02D0F2EF3E26F2EF6E07F2EB7
S1134310F02D3E2C2F2CFF92EF92BF92AF921F9361
S11343200F930E949A2D60E070E0C80102DD5BDD0E
S11343300F900F900F900F900F900F90811163C00A
S113434032E03E15E8F4F60183818F9382818F93E6
S113435081818F9380818F93FF92EF925F924F922E
S11343601F930F930E949A2D60E070E0C801E1DC76
S11343703ADD0FB6F894DEBF0FBECDBF811143C046
S11343802F923F929F928F921F930F930E949A2D88
S113439060E070E0C801CDDC26DD0F900F900F9037
S11343A00F900F900F9081112EC02F923F927F9209
S11343B06F921F930F930E949A2D60E070E0C801E2
S11343C0B8DC11DD0F900F900F900F900F900F90AD
S11343D0811119C03FEFE31AF30A84E0C80ED11C1F
S11343E098E0E916F10409F094CF60E070E08BE303
S11343F096E09FDCF8DC811106C060E070E08CE49C
S113440096E097DCF0DCA0960FB6F894DEBF0FBE02
S1134410CDBFDF91CF911F910F91FF90EF90DF906F
S1134420CF90BF90AF909F908F907F906F905F9050
S11344304F903F902F900895EF92FF920F931F9308
S1134440CF93DF93EC018B017A0181E0F4DE8111DB
S11344500DC0CE01D4DD811109C0C801E1DD811197
S113446005C0C701BBDD811101C0EBDDDF91CF9138
S11344701F910F91FF90EF90089590E0FC01EE0FD3
S1134480FF1F8E0F9F1FFC01EB5EF84F818192810D
S11344900895DC01009729F1FB012081FC010190C2
S11344A00020E9F73197E81BF90B822F90E0E81719
S11344B0F907C8F080E008C0880F382F330F330F96
S11344C0830F8053890F2F5FFD01E20FF11D90814F
S11344D030ED390F3A3010F49111EECFFB01208307
S11344E0089580E0089580E008950F931F93CF937B
S11344F0DF93DC01EA012097E1F1FA010190002049
S1134500E9F73197E41BF50B329710F532C08D01B2
S1134510040F151F30E0AE01420F531FFA019081C2
S1134520913428F09753592F5295507F03C0592F37
S11345305295507F2C0F3D1FF9019181913410F059
S1134540975301C09053950FF80190838F5F01C07A
S113455080E0282F220F482F50E0FE010190002018
S1134560E9F73197EC1BFD0B4E175F0710F4861328
S1134570CECFDF91CF911F910F9108952F923F924B
S11345804F925F926F927F928F929F92AF92CF924F
S1134590EF92FF920F931F93CF93DF93CDB7DEB7C4
S11345A0F82E2A013B0188E090E00E94D32B8C0175
S11345B08F2D90E0FC01EE0FFF1FE85EF84E118393
S11345C000830115110509F469C0880F991FFC01C6
S11345D0E55FFD4F80819181D8018D939C938C2D53
S11345E090E0880F991F880F991F0E94D32B1C01FC
S11345F086E090E00E94D32B7C014C2DB101F0D6D3
S1134600F801F582E4828A2D90E0880F991F880FC3
S1134610991F0E94D32B1C0186E090E00E94D32BAB
S11346207C014A2DB101DCD6D8011396FC92EE929E
S1134630129717969C928E921697FFB6F894ED9166
S1134640FC91119736978081826080838D909C9035
S1134650C301B201B3D720E030E040E051E40E944E
S1134660432B9B01AC0160E074E284E79BE43BD7FD
S113467020E030E040E85FE3CFD625DAF40132975A
S11346806083D801ED91FC911197359788E9808377
S1134690ED91FC91349786E08083FFBEC801DF91E1
S11346A0CF911F910F91FF90EF90CF90AF909F907B
S11346B08F907F906F905F904F903F902F900895D0
S11346C0CF93DF93DC01892B01F11296ED91FC91DC
S11346D01397938182812581981B92238481981753
S11346E0B1F0838126952823C081D181C20FD11DC9
S11346F068838F5F958189238383ED91FC9135973E
S113470080818062808380E003C081E001C082E018
S1134710DF91CF910895EF92FF920F931F93CF9360
S1134720DF937C01009709F441C0DC011296ED91FE
S1134730FC91139793818281981B858198238481AE
S1134740891B8617A8F1662341F1842F952FDC017C
S11347506150462F50E04F5F5F4F480F591FE701EC
S1134760EA81FB81938182812581981B9223848134
S1134770981779F08C919381269529236081718112
S11347808B01020F111DE80188839F5F85819823A7
S113479093831196A417B50711F7D701ED91FC91F6
S11347A0359780818062808380E003C081E001C00E
S11347B082E0DF91CF911F910F91FF90EF900895C8
S11347C00097D1F0DC011496ED91FC91159793813B
S11347D08281981799F09281858186958923A08199
S11347E0B181A80FB11D8C91DB018C939F5F8581F2
S11347F09823928380E0089581E0089583E00895EA
S11348001F920F920FB60F9211240BB60F922F9393
S11348103F934F935F936F937F938F939F93AF9344
S1134820BF93CF93DF93EF93FF93A0911817B091A9
S11348301917109711F16091C6001496ED91FC912F
S11348401597938182812581981B922384819817DF
S113485061F0838126952823C081D181C20FD11DA7
S113486068838F5F9581892383831696ED91FC91EC
S11348701797309711F0CD011995FF91EF91DF91C2
S1134880CF91BF91AF919F918F917F916F915F91E4
S11348904F913F912F910F900BBE0F900FBE0F9031
S11348A01F9018951F920F920FB60F9211240BB6FA
S11348B00F922F938F939F93AF93BF93EF93FF9395
S11348C0E0911817F09119173097B9F00280F3812D
S11348D0E02D938182819817B1F092818581282FF0
S11348E026952923A081B181A20FB11D2C919F5F30
S11348F0892382832093C6000BC0E1ECF0E0808121
S11349008F7D808305C0E1ECF0E080818F7D808322
S1134910FF91EF91BF91AF919F918F912F910F9044
S11349200BBE0F900FBE0F901F9018951F920F9201
S11349300FB60F9211240BB60F922F933F934F9300
S11349405F936F937F938F939F93AF93BF93CF9313
S1134950DF93EF93FF93A0911A17B0911B17109751
S113496011F16091CE001496ED91FC91159793810D
S113497082812581981B92238481981761F0838119
S113498026952823C081D181C20FD11D68838F5FF2
S11349909581892383831696ED91FC91179730971F
S11349A011F0CD011995FF91EF91DF91CF91BF9156
S11349B0AF919F918F917F916F915F914F913F91B3
S11349C02F910F900BBE0F900FBE0F901F90189554
S11349D01F920F920FB60F9211240BB60F922F93C2
S11349E08F939F93AF93BF93EF93FF93E0911A1725
S11349F0F0911B173097B9F00280F381E02D938179
S1134A0082819817B1F092818581282F26952923D8
S1134A10A081B181A20FB11D2C919F5F8923828354
S1134A202093CE000BC0E9ECF0E080818F7D808381
S1134A3005C0E9ECF0E080818F7D8083FF91EF91E8
S1134A40BF91AF919F918F912F910F900BBE0F90BB
S1134A500FBE0F901F9018951F920F920FB60F92D2
S1134A6011240BB60F922F933F934F935F936F9341
S1134A707F938F939F93AF93BF93CF93DF93EF93E2
S1134A80FF93A0911C17B0911D17109711F160911D
S1134A90D6001496ED91FC9115979381828125811E
S1134AA0981B92238481981761F08381269528238B
S1134AB0C081D181C20FD11D68838F5F9581892305
S1134AC083831696ED91FC911797309711F0CD01E1
S1134AD01995FF91EF91DF91CF91BF91AF919F9184
S1134AE08F917F916F915F914F913F912F910F9093
S1134AF00BBE0F900FBE0F901F9018951F920F9230
S1134B000FB60F9211240BB60F922F938F939F938E
S1134B10AF93BF93EF93FF93E0911C17F0911D1790
S1134B203097B9F00280F381E02D93818281981748
S1134B30B1F092818581282F26952923A081B18106
S1134B40A20FB11D2C919F5F892382832093D600ED
S1134B500BC0E1EDF0E080818F7D808305C0E1ED45
S1134B60F0E080818F7D8083FF91EF91BF91AF91C1
S1134B709F918F912F910F900BBE0F900FBE0F90AE
S1134B801F9018951F920F920FB60F9211240BB617
S1134B900F922F933F934F935F936F937F938F93D2
S1134BA09F93AF93BF93CF93DF93EF93FF93A09122
S1134BB01E17B0911F17109711F1609136011496CA
S1134BC0ED91FC911597938182812581981B922305
S1134BD08481981761F0838126952823C081D1812F
S1134BE0C20FD11D68838F5F9581892383831696B5
S1134BF0ED91FC911797309711F0CD011995FF9124
S1134C00EF91DF91CF91BF91AF919F918F917F9160
S1134C106F915F914F913F912F910F900BBE0F9029
S1134C200FBE0F901F9018951F920F920FB60F9200
S1134C3011240BB60F922F938F939F93AF93BF932F
S1134C40EF93FF93E0911E17F0911F173097B9F07F
S1134C500280F381E02D938182819817B1F09281D3
S1134C608581282F26952923A081B181A20FB11D0A
S1134C702C919F5F89238283209336010BC0E1E34B
S1134C80F1E080818F7D808305C0E1E3F1E08081E4
S1134C908F7D8083FF91EF91BF91AF919F918F9111
S1134CA02F910F900BBE0F900FBE0F901F90189571
S1134CB0CF93DF931F92CDB7DEB7BE016F5F7F4FF7
S1134CC080912017909121177BDD8111F6CF898186
S1134CD090E00F90DF91CF910895682F8091201775
S1134CE090912117EDDC80E090E008958F929F92DF
S1134CF0AF92CF92EF920F93812C912C6894AA24B7
S1134D00A7F86894CC24C7F8E12C00E023E040E045
S1134D1051EE60E070E032DC90932117809320170D
S1134D20E7E6F7E183E192E09183808393838283D2
S1134D300F91EF90CF90AF909F908F90089590E057
S1134D40FC01EE0FFF1FE80FF91FEE0FFF1FEE5DD2
S1134D50F84E238121111FC09C01220F331FF9013A
S1134D60E80FF91FEE0FFF1FEE5DF84EA081B18131
S1134D704C91F901E80FF91FEE0FFF1FEE5DF84E9D
S1134D8081E090E0028002C0880F991F0A94E2F744
S1134D90842B8C930895FC01EE0FFF1FDF01A80FF5
S1134DA0B91FAA0FBB1FAE5DB84E0D90BC91A02DCC
S1134DB02C91E80FF91FEE0FFF1FEE5DF84E81E016
S1134DC090E0028002C0880F991F0A94E2F7809550
S1134DD082238C93089590E0FC01EE0FFF1FE80FEF
S1134DE0F91FEE0FFF1FEE5DF84E2381211120C045
S1134DF09C01220F331FF901E80FF91FEE0FFF1F6B
S1134E00EE5DF84EA081B1814C91F901E80FF91FD4
S1134E10EE0FFF1FEE5DF84E81E090E0028002C0CD
S1134E20880F991F0A94E2F7809584238C93089540
S1134E30FC01EE0FFF1FDF01A80FB91FAA0FBB1F54
S1134E40AE5DB84E0D90BC91A02D2C91E80FF91FCA
S1134E50EE0FFF1FEE5DF84E81E090E0028002C08D
S1134E60880F991F0A94E2F7822B8C930895CC241F
S1134E70C394D12C6894BB24B2F8C2E2D7E110E009
S1134E808C81813081F018F1823061F5E881F981FB
S1134E902081C6010A8002C0880F991F0A94E2F794
S1134EA0822780831FC08D818F5F863010F48D83AD
S1134EB019C01D82E881F9812081C6010A8002C0DF
S1134EC0880F991F0A94E2F7822780830BC00D8113
S1134ED0002329F0812F7FDF01500D8303C0BC82A2
S1134EE0812F2DDF1F5F2696143051F66CE070E0A1
S1134EF080E090E00E947C10C0CFEF92FF920F936D
S1134F001F93CF93DF93082F80E487B9C2E2D7E1E0
S1134F100F2EF8E2EF2EF12CF02DF982E88286E0D4
S1134F208A831B8214E01C8380E009DF80E887B950
S1134F30FF82EE8287E0888719861A8781E0FFDE88
S1134F4080E283BB84E390E09D878C8785E08E8735
S1134F501F86188B82E0F3DE80E18093010182E0FA
S1134F6091E09B8B8A8B1C8B1D8A1E8B83E0E7DE72
S1134F70E12CF12C20E030E040EC50E068E477E0F4
S1134F8087E397E20E94770DDF91CF911F910F91F4
S1134F90FF90EF900895CF93DF9390E0FC01EE0F24
S1134FA0FF1FDF01A80FB91FAA0FBB1FAE5DB84ECC
S1134FB0CD91DC911197488121E030E012960C905C
S1134FC0129702C0220F331F0A94E2F72427288382
S1134FD0FD0181E08483DF91CF910895CF93DF9326
S1134FE090E0FC01EE0FFF1FDF01A80FB91FAA0F0D
S1134FF0BB1FAE5DB84ECD91DC911197488121E085
S113500030E012960C90129702C0220F331F0A94BC
S1135010E2F724272883FD0182E08483DF91CF9186
S11350200895282F30E0F901EE0FFF1FE20FF31F60
S1135030EE0FFF1FEE5DF84E93E09483CCCE0895FF
S1135040282F30E0F901EE0FFF1FE20FF31FEE0FE0
S1135050FF1FEE5DF84E94E0948371CE089590E0C6
S1135060FC01EE0FFF1FDF01A80FB91FAA0FBB1F22
S1135070AE5DB84E26E015962C931597FD0114826B
S1135080089590E0FC01EE0FFF1FDF01A80FB91F88
S1135090AA0FBB1FAE5DB84E15961C921597FD0165
S11350A0148208958091481781110CC08CE080937C
S11350B0B8008FEF8093BB0084E08093BC0081E054
S11350C0809348170895AF92BF92CF92DF92EF92E8
S11350D0FF920F931F93CF93DF93A82EB62E6901EF
S11350E07A0184E090E05FD3EC01892B61F1A8821E
S11350F081E0B81212C0C701B60120EA36E841E0E7
S113510050E027D3DA01C9014097A109B109B69546
S1135110A79597958795898311C0C701B60120E8A3
S11351203AE146E050E015D3DA01C9014097A109FC
S1135130B109B695A7959795879589831B830A83AB
S11351408C2F9D2F02C080E090E0DF91CF911F91C2
S11351500F91FF90EF90DF90CF90BF90AF900895A4
S11351608091BC0081700895FF920F931F93CF9399
S1135170DF930097D1F14A30D0F5F42E8B01EC0186
S1135180EFDF811136C080913B1790913C17C8170F
S1135190D90741F087DF89818093B800D0933C1709
S11351A0C0933B1781E08F0D80933D178881880F52
S11351B080933E17FF2089F0F801AFE3B7E14FEF8A
S11351C04F0D642F70E0CB010196B801680F791F71
S11351D081918D93E617F707D9F788EF8093210221
S11351E085EA8093BC0084E005C086E003C087E0C4
S11351F001C082E0DF91CF911F910F91FF9008953C
S11352001F93CF93DF93009729F16B3028F5162F66
S1135210EC01A6DF811122C080913B1790913C17CD
S1135220C817D90741F03EDF89818093B800D09335
S11352303C17C0933B1710933D178881880F8160FA
S113524080933E1788EF8093210285EA8093BC0007
S113525085E005C086E003C087E001C082E0DF91FD
S1135260CF911F9108951F920F920FB60F921124A0
S11352700BB60F922F933F934F935F936F937F934C
S11352808F939F93AF93BF93EF93FF93E091B900F4
S11352908E2F90E0FC013897E135F10508F075C0D8
S11352A08827E458FF4F8F4F76C210923A17E09147
S11352B03A1780913D17E81770F481E08E0F8093C0
S11352C03A17F0E0E25CF84E80818093BB0085E8F9
S11352D08093BC0072C084E98093BC0080913B172A
S11352E090913C17DC011296ED91FC911397309745
S11352F009F463C020E040E050E064E019955DC02B
S1135300E0913A1781E08E0F80933A178091BB00A9
S1135310F0E0E25CF84E80838091B900803411F4AF
S113532010923A1720913A1730E080913D1790E09F
S113533001972817390724F485EC8093BC003DC0FD
S113534085E88093BC0039C08091BB00E0913A1796
S1135350F0E0E25CF84E808384E98093BC008091A5
S11353603B1790913C17DC011296ED91FC91139739
S1135370309719F120913D174EE357E165E01995F7
S11353801CC085EA8093BC0018C08091B90080934A
S1135390210284E08093BC0080913B1790913C17DC
S11353A0DC011296ED91FC911397309731F020E0D7
S11353B040E050E0609121021995FF91EF91BF9177
S11353C0AF919F918F917F916F915F914F913F9199
S11353D02F910F900BBE0F900FBE0F901F9018953A
S11353E0FC01411101C000D3842F90E09C012150A5
S11353F0310982239323892B09F0F6D2413808F02E
S1135400F3D2128213824483440F41504583718343
S1135410608380E090E008955058BB27AA270ED0FF
S113542021C112D130F017D120F031F49F3F11F493
S11354301EF407C10EF4E095E7FBFDC0E92F0E94BE
S11354408F1D78F3BA17620773078407950720F056
S113545079F4A6F50C94B11D0EF4E0950B2EBA2F39
S1135460A02D0B01B90190010C01CA01A001112466
S1135470FF27591B99F0593F50F4503E68F11A1612
S1135480F040A22F232F342F4427585FF3CF4695A3
S113549037952795A795F0405395C9F77EF41F16C5
S11354A0BA0B620B730B840BBAF09150A1F0FF0F8F
S11354B0BB1F661F771F881FC2F70EC0BA0F621F7B
S11354C0731F841F48F4879577956795B795F7956B
S11354D09E3F08F0B1CF9395880F08F09927EE0FFF
S11354E09795879508950DD0BDC0B5D048F0ACD040
S11354F038F021F45F3F21F09EC051110C94B21D8D
S1135500A0C00E948F1D88F39923B9F35523A1F3FA
S1135510951B550BBB27AA2762177307840738F01E
S11355209F5F5F4F220F331F441FAA1FA9F334D07C
S11355300E2E3AF0E0E831D091505040E695001C30
S1135540CAF72AD0FE2F28D0660F771F881FBB1FEB
S1135550261737074807AB07B0E809F0BB0B802DC7
S1135560BF01FF2793585F4F32F09E3F510570F003
S113557062C00C94B21D5F3FE4F3983ED4F3869569
S113558077956795B795F7959F5FC9F7880F911D34
S11355909695879597F90895E1E0660F771F881F20
S11355A0BB1F621773078407BA0720F0621B730BD3
S11355B0840BBA0BEE1F88F7E0950895E89409C0B0
S11355C097FB3EF490958095709561957F4F8F4F32
S11355D09F4F9923A9F0F92F96E9BB279395F69548
S11355E0879577956795B795F111F8CFFAF4BB0FC6
S11355F011F460FF1BC06F5F7F4F8F4F9F4F16C02A
S1135600882311F096E911C0772321F09EE8872FB3
S1135610762F05C0662371F096E8862F70E060E06F
S11356202AF09A95660F771F881FDAF7880F9695E8
S1135630879597F9089597F99F6780E870E060E08F
S113564008959FEF80EC089500240A941616170617
S113565018060906089500240A941216130614065F
S113566005060895092E0394000C11F4882352F0C2
S1135670BB0F40F4BF2B11F460FF04C06F5F7F4F7A
S11356808F4F9F4F08950CD0EDCFDEDF28F0E3DF7E
S113569018F0952309F0CFCFD4CF11240C94B21D68
S11356A00E948F1D90F3959FC1F3950F50E0551FF5
S11356B0629FF001729FBB27F00DB11D639FAA2763
S11356C0F00DB11DAA1F649F6627B00DA11D661FB2
S11356D0829F2227B00DA11D621F739FB00DA11DD3
S11356E0621F839FA00D611D221F749F3327A00D8D
S11356F0611D231F849F600D211D822F762F6A2F29
S113570011249F57504092F0E9F088234AF0EE0F9D
S1135710FF1FBB1F661F771F881F91505040A9F7BA
S11357209E3F510578F087CF0C94B21D5F3FE4F3A0
S1135730983ED4F3869577956795B795F795E79551
S11357409F5FC1F7FE2B880F911D9695879597F95A
S11357500895A1E21A2EAA1BBB1BFD010DC0AA1FAE
S1135760BB1FEE1FFF1FA217B307E407F50720F0C6
S1135770A21BB30BE40BF50B661F771F881F991F41
S11357801A9469F760957095809590959B01AC018A
S1135790BD01CF010895EE0FFF1F881F8BBF079037
S11357A0F691E02D19940F931F93CF93DF938230DA
S11357B0910510F482E090E0E0916517F09166178E
S11357C020E030E0A0E0B0E0309719F14081518151
S11357D00281138148175907C8F08417950769F4A3
S11357E0109731F012960C93129713961C9327C0BE
S11357F0009365171093661722C02115310519F01F
S11358004217530718F49A01BD01EF01DF01F801B3
S1135810DBCF21153105F9F0281B390B2430310574
S113582080F48A819B816115710521F0FB019383CA
S1135830828304C09093661780936517FE013296A5
S113584044C0FE01E20FF31F81939193225031096A
S1135850398328833AC02091631730916417232B2E
S113586041F4209102023091030230936417209393
S1135870631720910002309101022115310541F492
S11358802DB73EB74091040250910502241B350BFD
S1135890E0916317F0916417E217F307A0F42E1B4D
S11358A03F0B2817390778F0AC014E5F5F4F241780
S11358B0350748F04E0F5F1F5093641740936317EA
S11358C08193919302C0E0E0F0E0CF01DF91CF91AA
S11358D01F910F910895CF93DF93009709F481C02E
S11358E0FC01329713821282A0916517B09166175A
S11358F0109781F420813181820F931F20916317C7
S1135900309164172817390751F5F0936417E09321
S1135910631767C0ED0120E030E0CE17DF0740F4E5
S11359204A815B819E0141155105F1F0EA01F5CFF1
S1135930D383C28340815181840F951FC817D9072F
S113594059F488819981840F951F029691838083ED
S11359508A819B81938382832115310529F4F093F5
S11359606617E09365173DC0E901FB83EA8349911B
S11359705991C40FD51FEC17FD0761F48081918103
S1135980840F951F0296E90199838883828193810C
S11359909B838A83E0E0F0E012968D919C911397AB
S11359A0009719F0FD01DC01F7CF8D919C911197BF
S11359B09D012E5F3F4F820F931F209163173091FB
S11359C064172817390769F4309729F41092661779
S11359D01092651702C013821282B0936417A093C9
S11359E06317DF91CF91089581E090E0F8947DC32F
S11359F0FB01DC0102C001900D9241505040D8F7E8
S1135A000895DC0101C06D9341505040E0F70895C2
S1135A10FB0151915523B1F0BF01DC01052E4D91DD
S1135A20442369F010D0D9F7CD010190002049F04A
S1135A304D91411108D0C9F3FB014111EECF81E032
S1135A4090E001970895402539F0403229F4402927
S1135A504B57465E08F018940895FB01DC010D9045
S1135A600020E9F7119701900D920020E1F70895C5
S1135A70FB01DC0101900D920020E1F70895FB0188
S1135A80DC014150504088F08D9181341CF08B35FD
S1135A900CF4805E619161341CF06B350CF4605E33
S1135AA0861B611171F3990B0895881BFCCFCF936A
S1135AB0DF93CDB7DEB7AE014A5F5F4FFA01619164
S1135AC07191AF018091691790916A1761D0DF914C
S1135AD0CF9108950F931F93CF93DF93E0916917AC
S1135AE0F0916A17238121FF1BC08C01D0E0C0E034
S1135AF0F80181918F016091691770916A17DB0138
S1135B001896ED91FC911997882331F01995892BFA
S1135B1079F3DFEFCFEFECCF8AE01995892B19F0F9
S1135B208FEF9FEF02C08D2F9C2FDF91CF911F919C
S1135B300F9108950F931F93CF93DF93CDB7DEB7E3
S1135B402E970FB6F894DEBF0FBECDBF0E891F8906
S1135B5086E08C831A8309838FEF9FE79E838D836E
S1135B60AE01465E5F4F688D798DCE01019610D0EF
S1135B70EF81F885E00FF11F10822E960FB6F8948E
S1135B80DEBF0FBECDBFDF91CF911F910F9108955E
S1135B902F923F924F925F926F927F928F929F9239
S1135BA0AF92BF92CF92DF92EF92FF920F931F9327
S1135BB0CF93DF93CDB7DEB72B970FB6F894DEBF44
S1135BC00FBECDBF6C017B018A01FC0117821682D6
S1135BD0838181FFBFC1CE0101963C01F60193810F
S1135BE0F70193FD859193FF81917F01882309F447
S1135BF0ADC1853239F493FD859193FF81917F0185
S1135C00853221F4B60190E0D6D1E8CF912C212C35
S1135C10312CFFE1F315D8F08B3279F038F480326F
S1135C2079F08332A1F4232D20611DC08D3261F0FF
S1135C30803369F4232D216016C0832D8260382EB1
S1135C40E32DE4603E2E2AC0F32DF8601DC037FC1E
S1135C502DC020ED280F2A3040F08E32B9F436FCE6
S1135C6075C1232D2064322E19C036FE06C08AE089
S1135C70989E200D1124922E11C0EAE02E9E200D34
S1135C801124222EF32DF0623F2E08C08C3621F40D
S1135C90832D8068382E02C0883641F4F70193FDC5
S1135CA0859193FF81917F018111B3CF982F9F7DBF
S1135CB09554933028F40C5F1F4F9FE399830DC0D4
S1135CC0833631F0833771F0833509F055C020C035
S1135CD0F801808189830E5F1F4F88248394912C5F
S1135CE0530112C02801F2E04F0E511CF801A080AC
