S0120000342E53656D65737465722E7372656368
S1130000E5C0000004C1000002C1000000C10000FE
S1130010FEC00000FCC00000FAC00000F8C00000F0
S1130020F6C00000F4C00000F2C00000F0C0000000
S1130030EBC50000ECC00000EAC00000E8C000000E
S1130040E6C00000E4C00000E2C00000E0C0000020
S1130050DEC00000DCC00000DAC00000D8C0000030
S1130060D6C000000C9481250C94D325D0C0000088
S1130070CEC00000CCC00000CAC00000C8C0000050
S1130080C6C00000C4C00000C2C00000C0C0000060
S11300900C9417260C946926BAC000000C94B42A58
S11300A0B6C00000B4C00000B2C00000B0C0000080
S11300B0AEC00000ACC00000AAC00000A8C0000090
S11300C0A6C00000A4C00000A2C000000C94AD268D
S11300D00C94FF269CC000000C9443270C94952795
S11300E096C000001B1A1B1A1B1A521A5A1A6F1AAE
S11300F01B1A1B1A521A5A1AD62A462B462B462B5F
S1130100462B462B462B462BD62A462B462B462BD4
S1130110462B462B462B462BD82A462B462B462BC2
S1130120462B462B462B462B462B462B462B462B43
S1130130462B462B462B462BD82A462B462B462BA2
S1130140462B462B462B462B462B462B462B462B23
S1130150462B462B462B462B422B462B462B462B17
S1130160462B462B462B462B0D2B462B462B462B3C
S1130170462B462B462B462B462B462B462B462BF3
S1130180462B462B462B462B012B462B462B462B28
S1130190462B462B462B462B252B0E945D0D80912A
S11301A0F715823008F06AD40E94981AF6CFCF93DC
S11301B0DF931F92CDB7DEB7CE0101960E94981748
S11301C049810E948D190E94E419F6CF11241FBEA3
S11301D0CFEFD1E2DEBFCDBF00E00CBF17E0A0E05F
S11301E0B2E0E0EFF3E600E00BBF02C007900D922F
S11301F0AA3EB107D9F728E1AAEEB7E001C01D92E3
S1130200A331B207E1F70E94191E0C94F631F8CE1F
S11302109093F0178093EF1708958091F0178F93C0
S11302208091EF178F9383E792E09F938F930E94BF
S1130230D82E0F900F900F900F908091EF17909100
S1130240F0170895CF92DF92EF92FF920F93CF931E
S1130250CC24CA94DC2C760100E021E042E050E09A
S113026060E070E08091060290910702B2D0409164
S1130270F7175091F8176091F9177091FA1781EFF9
S113028097E10E94C4100E94FF238093EE178823F5
S113029041F080E892E09F938F930E94D82E0F90B4
S11302A00F906FE170E080E090E00E9429118FE8E8
S11302B092E00E94EB2E8091F5179091F6170E9420
S11302C02E24C82F8091F6178F938091F5178F9362
S11302D085E992E09F938F930E94D82E0F900F9000
S11302E00F900F90CC2341F08FE992E09F938F936E
S11302F00E94D82E0F900F9088E091E00E94FA237C
S113030081EB92E00E94EB2E88DFCF910F91FF905A
S1130310EF90DF90CF90089583EC92E00E94EB2E53
S113032041E050E060E070E08091080290910902A1
S1130330F0D08BEB90E0A0E0B0E08093F7179093BF
S1130340F817A093F917B093FA170E94AE0E6093B2
S1130350F1177093F2178093F3179093F41787ECC7
S113036092E00E94EB2E6EDFFECF0F9301110CC0C2
S1130370DC01CB0182239323A423B523892B8A2B6D
S11303808B2B79F480E010C0DC01CB018223932312
S1130390A423B523281739074A075B0721F080E017
S11303A003C081E001C081E00F910895CF93DF93F2
S11303B08FE090E0AFD1EC01009739F0FC0111928D
S11303C0119211921192CF018BD2CE01DF91CF9174
S11303D008952F923F924F925F926F927F928F92E5
S11303E09F92AF92BF92CF92DF92EF92FF920F93C0
S11303F01F93CF93DF93EC014A015B01622E702EB1
S11304000E94A80E288039804A805B80A50194014F
S1130410C201B101AADF8823A1F0662089F1D501C8
S1130420C40180959095A095B09582219321A42133
S1130430B52188839983AA83BB83C12CD12C7601EF
S113044022C0C114D104E104F104E9F0611004C034
S113045040E050E0BA0104C040E050E060E071E0E8
S113046071107460482959296A297B2997018601EA
S1130470CE0104960E94C011212C312C210103C00D
S1130480C12CD12C76010E94E80FCD28CE28CF288C
S113049059F1811101C0F2D20E9494146B017C01C4
S11304A091FD1FC00FB6F8940F92C880D980EA80DE
S11304B0FB80072DA5019401C701B60156DF8823EF
S11304C071F0662061F080949094A094B0948C2094
S11304D09D20AE20BF2088829982AA82BB820F9081
S11304E00FBE160127015524C201B101DF91CF913E
S11304F01F910F91FF90EF90DF90CF90BF90AF903E
S11305009F908F907F906F905F904F903F902F902F
S113051008954F925F926F927F92AF92BF92CF9263
S1130520DF92EF92FF920F931F93CF93DF93EC012F
S11305306A017B018C01095F1F4F0E94A80EEB85A5
S1130540FC8588819981AA81BB81C82AD92AEA2A93
S1130550FB2AC882D982EA82FB82C12CD12C760183
S11305603DC0A480B58080819181A281B381AC011A
S1130570BD017727B2FD0EC0488059806A807B8018
S1130580442255226622772245284628472889F4A2
S113059020E012C0488059806A807B804422552222
S11305A066227722441555056605770521F020E07B
S11305B003C021E001C021E0222371F0B0FF04C098
S11305C0C42AD52AE62AF72A488159816A817B817F
S11305D07260CF010E94FB12EA2DFB2DE017F10798
S11305E009F0BFCFC094D094E094F09488819981AD
S11305F0AA81BB81C822D922EA22FB22C882D982DD
S1130600EA82FB820E94E80F688179818A819B815A
S1130610DF91CF911F910F91FF90EF90DF90CF90DA
S1130620BF90AF907F906F905F904F900895E6EFEA
S1130630F7E0AAEFB7E0B183A08313821282E2EA63
S1130640F5E1F093F507E093F40713821282118227
S1130650108288EA9DE013969C938E931297ED93F3
S1130660FC939093F1078093F0079093F3078093A2
S1130670F20780E090E89093EB078093EA070895EF
S1130680CF93DF93EC01A6EFB7E001C0DF01ED915A
S1130690FC911197EC17FD07C8F312968D919C916C
S11306A013979D01280F391FC217D30749F42A81D4
S11306B03B81820F931F13969C938E931297ED01A7
S11306C08A819B819E01280F391FE217F307C1F429
S11306D02091F4073091F507E217F30771F02281B6
S11306E03381820F931F9B838A83ED91FC91119731
S11306F0808191819983888305C03983288302C0CE
S1130700F983E883CA17DB0711F0CD93DC93DF91FB
S1130710CF910895EF92FF920F931F93CF93DF939E
S11307208C010E94A80E8091F4079091F507892B03
S113073009F47DDF8091EA079091EB0780239123F0
S1130740892B09F076C00115110549F0C8010496FA
S11307500817190718F000E010E001C08C0101151A
S1130760110509F469C08091F2079091F30780178D
S1130770910708F464C0C091F607D091F707E6EF3B
S1130780F7E002C0FE01EC018A819B81801791078A
S113079020F4888199810097A9F78091F4079091BA
S11307A0F507C817D90709F44DC0E080F18084E04B
S11307B0E80EF11C88819981918380832A813B8191
S11307C0201B310B2930310548F0CE01800F911FD9
S11307D0FC01338322831B830A8352DF2A813B81FA
S11307E08091F2079091F307821B930B9093F30788
S11307F08093F2074091F0075091F1078417950711
S113080020F49093F1078093F0078091EA07909188
S1130810EB07282B392B3B832A831982188280917A
S1130820EE079091EF0701969093EF078093EE0700
S11308300BC0E12CF12C08C0E12CF12C05C0E12CFB
S1130840F12C02C0E12CF12C0E94E80FE114F10418
S113085011F40E94A41AC701DF91CF911F910F9147
S1130860FF90EF9008950F931F93CF93DF9300971A
S113087091F1EC0124974A815B812091EA07309140
S1130880EB07BA0162237323672B29F1688179810D
S1130890672B09F520953095242335233B832A8340
S11308A00E94A80E8A819B812091F2073091F30760
S11308B0820F931F9093F3078093F207CE01E0DE3B
S11308C08091EC079091ED0701969093ED0780934A
S11308D0EC070E94E80FDF91CF911F910F910895CB
S11308E0FC010396928381834FEF5FEFBA01438348
S11308F05483658376839087878392878187108268
S11309000895FC011386128608950F931F93CF93C5
S1130910DF93EB01088119812A813B810F3F4FEF5F
S113092014072407340721F4FC01A185B28511C002
S1130930DC01139601C0DF011496ED91FC9115972B
S11309404081518162817381041715072607370797
S113095090F71496ED91FC911597FD83EC83D78362
S1130960C683BF83AE831596DC93CE9314979B877F
S11309708A87FC0120812F5F2083DF91CF911F9113
S11309800F910895CF93DF93FC01A285B385C481B1
S1130990D581868197819F838E83C681D781848107
S11309A095819D838C8311968D919C911297E81764
S11309B0F90731F48681978112969C938E9311974F
S11309C0138612868C9181508C938C91DF91CF91F8
S11309D00895A89590EC88E10FB6F894A8958093B3
S11309E060000FBE909360000895FC01608331970E
S11309F070833197108231971082319720E82083D9
S1130A003197108231971082319710827797408303
S1130A103197508386970895DCDFA0916516B091D5
S1130A206616CD91CDBFDD91DEBFFF91EF91DF91D1
S1130A30CF91BF91AF919F918F917F916F915F9172
S1130A404F913F912F911F910F91FF90EF90DF9065
S1130A50CF90BF90AF909F908F907F906F905F905A
S1130A604F903F902F901F900F900CBE0F900BBE95
S1130A700F900FBE0F90089581E008950F920FB666
S1130A80F8940F920BB60F920CB60F921F9211248A
S1130A902F923F924F925F926F927F928F929F928A
S1130AA0AF92BF92CF92DF92EF92FF920F931F9378
S1130AB02F933F934F935F936F937F938F939F9362
S1130AC0AF93BF93CF93DF93EF93FF93A0916516FA
S1130AD0B09166160DB60D920EB60D920E94441199
S1130AE0A0916516B0916616CD91CDBFDD91DEBFA4
S1130AF0FF91EF91DF91CF91BF91AF919F918F9132
S1130B007F916F915F914F913F912F911F910F9121
S1130B10FF90EF90DF90CF90BF90AF909F908F9019
S1130B207F906F905F904F903F902F901F900F9009
S1130B300CBE0F900BBE0F900FBE0F9008950F9236
S1130B400FB6F8940F920BB60F920CB60F921F9239
S1130B5011242F923F924F925F926F927F928F92C5
S1130B609F92AF92BF92CF92DF92EF92FF920F9338
S1130B701F932F933F934F935F936F937F938F9321
S1130B809F93AF93BF93CF93DF93EF93FF93A09182
S1130B906516B09166160DB60D920EB60D9213BE83
S1130BA00E94BC0E81110E944411A0916516B0915F
S1130BB06616CD91CDBFDD91DEBFFF91EF91DF9140
S1130BC0CF91BF91AF919F918F917F916F915F91E1
S1130BD04F913F912F911F910F91FF90EF90DF90D4
S1130BE0CF90BF90AF909F908F907F906F905F90C9
S1130BF04F903F902F901F900F900CBE0F900BBE04
S1130C000F900FBE0F9008959ADF18950FB6F894C1
S1130C100F92FC01868D811102C081E001C080E049
S1130C200F900FBE08950FB6F8940F92FC01268D15
S1130C30878D281302C081E001C080E00F900FBEB1
S1130C4008950F931F93CF93DF93EC01042F1E8D10
S1130C5048A141110CC088819981892B09F042C0B7
S1130C608C819D810E9439141D821C8242C0011115
S1130C7017C050E08A819B810E94792E28A18A8125
S1130C809B81820F911D9B838A832C813D818217D6
S1130C90930750F1888199819B838A8380E029C0DE
S1130CA050E08E819F810E94792E88A190E09195D9
S1130CB0819591092E813F81280F391F3F832E830F
S1130CC0488159812417350730F42C813D81820FE6
S1130CD0931F9F838E83023049F4112349F01150EE
S1130CE080E007C080E005C080E003C080E001C070
S1130CF080E01F5F1E8FDF91CF911F910F910895A8
S1130D00FC0140A14423A9F050E026813781240F3F
S1130D10351F37832683848195812817390720F06E
S1130D208081918197838683CB01668177810C943E
S1130D30792E08951F93CF93DF93EC010FB6F894A7
S1130D400F921AA10BC08B89882351F0CE014396D0
S1130D500E944C1281110E942214115011169CF30E
S1130D608FEF8AA30F900FBE0FB6F8940F9219A1BC
S1130D700BC08885882351F0CE0108960E944C123E
S1130D8081110E942214115011169CF38FEF89A334
S1130D900F900FBEDF91CF911F910895CF93DF93F2
S1130DA0EC010FB6F8940F92E881F9818F8D28A198
S1130DB090E030E0829FA001839F500D929F500DE0
S1130DC011244E0F5F1F5D834C831E8EFB83EA83C9
S1130DD00197289FA001299F500D389F500D112481
S1130DE0CF01840F951F9F838E838FEF89A38AA3DE
S1130DF061110BC08885882371F0CE0108960E948A
S1130E004C12882341F03ADE06C0CE01089668DD14
S1130E10CE01439665DD0F900FBE81E0DF91CF9147
S1130E2008950F931F93F801611103C01183008388
S1130E3002C051834083878F60A361E0CF01AEDF9E
S1130E401F910F910895DF92EF92FF920F931F93DA
S1130E50CF93DF93F82EE62ED42E869FC001112463
S1130E60839658DCEC01009741F08C012D2DAC01E8
S1130E704D5D5F4F6E2D8F2DD4DFCE01DF91CF916D
S1130E801F910F91FF90EF90DF900895CF92DF9222
S1130E90EF92FF920F931F93CF93DF93CDB7DEB7FB
S1130EA029970FB6F894DEBF0FBECDBF7C016B014E
S1130EB02E833F834887598710E00FB6F8940F922A
S1130EC0F701968D878D981710F00230B1F4402FFA
S1130ED0B601C701B6DEF7019389992341F0C70132
S1130EE043960E944C12882321F0C8DD02C0811170
S1130EF0C5DD0F900FBE81E04CC08E819F81A88517
S1130F00B985892B8A2B8B2B21F40F900FBE80E09F
S1130F1040C0111105C0CE0101960E94AB1311E02F
S1130F200F900FBE15D70FB6F8940F92F70181A159
S1130F308F3F09F411A2F70182A18F3F09F412A295
S1130F400F900FBEBE016A5F7F4FCE0101960E94D3
S1130F50BC13811119C0C70166DE882381F04E815C
S1130F605F8168857985C70108960E94A911C70128
S1130F70E1DE0E94E80F8111A0CF80DD9ECFC70182
S1130F80D9DE0E94E80F99CFC701D4DE0E94E80F92
S1130F9080E029960FB6F894DEBF0FBECDBFDF9177
S1130FA0CF911F910F91FF90EF90DF90CF90089514
S1130FB00F93009769F0FC0115821482118210824C
S1130FC0168200E020E030E0A90160E070E05EDF1E
S1130FD00F910895CF93DF93482F60E081E033DFD2
S1130FE0EC01E6DFCE01DF91CF910895EF92FF92FD
S1130FF00F931F93CF93DF938A01FC01568D378D96
S1131000531710F02230F9F4422F7801EC011AA1A1
S11310108E8DCE0116DE1F3F81F48B898823A9F0C3
S1131020CE0143960E944C12882389F0E114F10406
S113103081F081E0F70180830DC0FF24F394F10E69
S1131040FAA281E007C080E005C081E003C081E02E
S113105001C081E0DF91CF911F910F91FF90EF903C
S11310600895CF92DF92EF92FF920F931F93CF9345
S1131070DF93CDB7DEB729970FB6F894DEBF0FBE66
S1131080CDBF8C016B012E833F8348875987E12CA8
S11310900FB6F8940F92F801F68CFF2099F0B60180
S11310A0C8012EDEFA94F801F68E8085882331F08B
S11310B0C80108960E944C128111E0DC0F900FBE0B
S11310C081E04FC08E819F81A885B985892B8A2BA9
S11310D08B2B21F40F900FBE80E043C0E11006C0BB
S11310E0CE0101960E94AB13EE24E3940F900FBE41
S11310F02FD60FB6F8940F92F80181A18F3F09F40F
S113110011A2F80182A18F3F09F412A20F900FBE21
S1131110BE016A5F7F4FCE0101960E94BC1381110C
S113112017C0C80173DD882379F04E815F8168851B
S11311307985C80143960E94A911C801FBDD48D7EF
S11311408111A6CF9BDCA4CFC801F4DD41D7A0CF89
S1131150C801F0DD3DD7C80159DD882309F498CFD3
S113116080E029960FB6F894DEBF0FBECDBFDF91A5
S1131170CF911F910F91FF90EF90DF90CF90089542
S1131180CF93DF93EC010FB6F8940F9289A18F3FB0
S113119009F419A28AA18F3F09F41AA20F900FBE75
S11311A08E8D811104C0CE0143960E940A12CE0195
S11311B0C1DDDF91CF910895FC01448155812281E5
S11311C03381240F351F80819181B901681B790B0C
S11311D0CB016417750710F0841B950B08950F93CA
S11311E0FC018FE0DF011D928A95E9F7758764871A
S11311F0558344833783268306870F910895AF92DE
S1131200BF92CF92DF92EF92FF920F931F93CF93EF
S1131210DF936C015B017A01FC01C281D3810481FB
S113122015810C1B1D0B4017510708F48A01F601A8
S113123084859585A801B5018C0F9D1F0E94792E88
S11312400E151F0558F4A701401B510BB501600F83
S1131250711FF601848595850E94792ECE018E0D2D
S11312609F1DF601248135818217930710F0821B9C
S1131270930BF60193838283C701DF91CF911F9172
S11312800F91FF90EF90DF90CF90BF90AF900895B3
S1131290CF92DF92EF92FF920F931F93CF93DF933E
S11312A01F921F92CDB7DEB77C016B015A8349832D
S11312B021153105C1F0FC01868580FD08C0421767
S11312C0530708F49A013A83298381E00FC0201759
S11312D0310758F042E050E0BE016F5F7F4FC70115
S11312E08EDF81E003C080E001C080E0882331F01C
S11312F049815A81B601C70182DF02C080E090E0D3
S11313000F900F90DF91CF911F910F91FF90EF906D
S1131310DF90CF900895AF92BF92CF92DF92EF9279
S1131320FF920F931F93CF93DF937C015B01E9013D
S11313304217530708F4EA01209781F1F70100816D
S1131340118184819581801B910B6E018C179D07FF
S113135008F46C01F70164857585600F711FA6019F
S1131360C5010E94792ECC16DD0658F4AE014C1945
S11313705D09F70164857585C5018C0D9D1D0E946D
S1131380792E0C0F1D1FF701848195810817190709
S113139010F0081B190BF70111830083CE01DF91B4
S11313A0CF911F910F91FF90EF90DF90CF90BF905E
S11313B0AF9008956F927F928F929F92AF92BF9257
S11313C0CF92DF92EF92FF920F931F93CF93DF930D
S11313D01F921F92CDB7DEB76C014B015A01790100
S11313E001151105B1F0FC0160807180A801BE01F6
S11313F06F5F7F4F90DF89819A81E01AF10AA81606
S1131400B90630F4F60171826082A12CB12C01C0BE
S11314105C019701A501B401C6017DDF0F900F9017
S1131420DF91CF911F910F91FF90EF90DF90CF90BC
S1131430BF90AF909F908F907F906F900895CF92C0
S1131440DF92EF92FF920F93CF93DF93EC016B0146
S1131450413011F401E001C000E0C114D10419F4D9
S1131460CC24C394D12CCE014096C817D90720F4BC
S1131470219650D97C0102C0E12CF12CE114F10435
S113148039F09601AE01B701615F7F4FC701A7DE56
S1131490C701DF91CF910F91FF90EF90DF90CF9034
S11314A008950F930FB6F8940F92FC0120853185AF
S11314B0232B71F422853385232B61F42681378114
S11314C04481558164857585068589DE81E003C084
S11314D080E001C080E00F900FBE0F910895FC01E1
S11314E02481358180819181820F931F42815381B0
S11314F0841B950B01978217930710F0821B930BA3
S113150008952F923F924F925F926F927F928F92A3
S11315109F92AF92BF92CF92DF92EF92FF920F937E
S11315201F93CF93DF93CDB7DEB72B970FB6F89405
S1131530DEBF0FBECDBF4C017B876A871A010E83C5
S11315401F8328873987FC0184819581019726852B
S113155020FF0CC02A01F2E04F0E511C84159505A2
S113156058F41E821F821886198606C084179507B0
S113157010F02A0101C02C018E819F81A885B985B4
S1131580892B8A2B8B2B09F438C0CE0101960E943B
S113159095130FB6F8940F92C401A1DF3C01841592
S11315A0950540F560E080E090E00E947E170E947F
S11315B02614F401938782870F900FBEAE80BF80FC
S11315C0C884D984E12CF12C00E010E0980140E0BB
S11315D050E0BA0180E00E94BE14F4011386128622
S11315E0BE016A5F7F4FCE0101960E94BC1388231F
S11315F081F205C00F900FBE02C0612C712C6114E2
S1131600710419F4C4016BDF3C0182019301A1014F
S11316106A857B85C4013CDE6C01892BE9F0C40139
S1131620CBDDF4012681378182179307A8F090D38C
S1131630F40180859185892B71F080859185E12C59
S1131640F12C00E020E030E0A90160E00E94651583
S1131650F40111861086BCD4C6012B960FB6F894FB
S1131660DEBF0FBECDBFDF91CF911F910F91FF90D1
S1131670EF90DF90CF90BF90AF909F908F907F902E
S11316806F905F904F903F902F900895AF92BF92CC
S1131690CF92DF92EF92FF920F931F93CF93DF933A
S11316A0EC017B015A0169018E8580FF04C08A0127
S11316B00E5F1F4F01C08A01CE0111DF9C01A501FD
S11316C0B701CE01E5DD5C01892BC1F0CE0174DDEB
S11316D02E813F818217930788F088859985892B0D
S11316E069F088859985E12CF12C00E020E030E058
S11316F0A90160E00E945C1619861886C501DF9175
S1131700CF911F910F91FF90EF90DF90CF90BF90FA
S1131710AF9008954F925F926F927F928F929F92B3
S1131720AF92BF92CF92DF92EF92FF920F931F93EB
S1131730CF93DF93EC012B013A01580169018E85A7
S113174080FF05C06894882481F8912C02C0812C04
S1131750912CA114B104C104D10441F10FB6F89441
S11317600F92CE0129DD7C018816990648F060E0CD
S113177080E090E00E947E170E9426149987888753
S11317800F900FBE8E149F04A0F0E12CF12C00E00A
S113179010E0980140E050E0BA0180E00E94BE14DD
S11317A019861886CE0108DD7C0103C0CE0104DD54
S11317B07C018E149F04E8F484019701A301B20113
S11317C0CE01F8DD6C01892BB1F0C2D28A859B85EC
S11317D0892B69F08A859B85E12CF12C00E020E0BF
S11317E030E0A90160E00E9465151B861A86F0D3DB
S11317F002C0C12CD12CC601DF91CF911F910F9152
S1131800FF90EF90DF90CF90BF90AF909F908F901C
S11318107F906F905F904F900895E091DF15F09165
S1131820E015808181110CC08FEF9FEFDC01809364
S1131830A9159093AA15A093AB15B093AC15089570
S1131840E091DF15F091E0150780F085E02D8081AF
S11318509181A281B3818093A9159093AA15A09335
S1131860AB15B093AC150895CF93DF93EC018B8D3A
S11318709C8D0E943304CE010E943304DF91CF91EA
S113188008954F925F926F927F928F929F92AF9240
S1131890BF92CF92DF92EF92FF920F93CF93DF9399
S11318A02C015B014A013901E60165EA70E08B8D88
S11318B09C8D0E94822E8B8D9C8D21E0821A910832
S11318C0880E991EA114B10489F415C0822F90E0EA
S11318D0F501E80FF91F3081DE01A80FB91F5D96ED
S11318E03C938081882329F02F5F01C020E02031C0
S11318F068F31CA601C01D8E0A3008F009E00A8FA7
S11319000DA71EA6CE0102960E948104CE010E965A
S11319100E948104DB87CA878AE090E0A0E0B0E0FF
S1131920801B9109A109B1098E879F87A88BB98B68
S1131930DF8BCE8B84E0FE01BF96DF011D928A957A
S1131940E9F71BAAA301B201C4014FD89983888384
S1131950E114F10419F0F701D183C083DF91CF9131
S11319600F91FF90EF90DF90CF90BF90AF909F903A
S11319708F907F906F905F904F900895CF93C0E0C9
S113198009C02BE0C29FC001112489509A4E0E94C5
S11319907004CF5FCA30A8F38CEE95E10E94700406
S11319A081EE95E10E94700482ED95E10E9470043D
S11319B087EC95E10E9470048BEB95E10E94700422
S11319C08CEE95E19093E0158093DF1581EE95E11F
S11319D09093DE158093DD15CF910895CF93DF9317
S11319E0EC010FB6F8940F928091BA158F5F809333
S11319F0BA158091651690916616892B51F4D0938F
S1131A006616C09365168091BA15813091F4B6DFDD
S1131A1010C08091B41581110CC0E0916516F0914D
S1131A206616928D8A8D891720F0D0936616C0931E
S1131A3065168091AD158F5F8093AD15EA8D809109
S1131A40B5158E1710F4E093B5158BE08E9FF00159
S1131A501124E950FA4E0180F281E02DFF83EE83D8
S1131A602681378139872887A681B7819E012E5F19
S1131A703F4F15963C932E93149737832683EA8D14
S1131A808E9FF0011124E950FA4EFD87EC87808186
S1131A908F5F80830F900FBE8091B415882351F01F
S1131AA0E0916516F0916616928D8A8D981710F460
S1131AB00E943E05DF91CF910895CF93DF931BC021
S1131AC00FB6F8940F92E091CE15F091CF15C08522
S1131AD0D185CE0102960E94C2048091BA1581502C
S1131AE08093BA158091C61581508093C6150F90C6
S1131AF00FBECE01B9DE8091C6158111E1CFDF9111
S1131B00CF9108958F929F92AF92BF92CF92DF921E
S1131B10EF92FF92CF93DF936B017C01C42F8090EF
S1131B20B6159090B715A090B815B090B9158091DE
S1131B3065169091661602960E94C2048FEFC8162D
S1131B40D806E806F806B1F5CC23A1F1EBEBF5E1F4
S1131B50A181B281C0916516D0916616BF83AE8310
S1131B60C0916516D091661616968D919C91179723
S1131B70998788871696CD91DC9117978091651681
S1131B809091661602969D838C8380916516909140
S1131B906616029617969C938E931697A0916516D7
S1131BA0B09166161D96FC93EE931C9780818F5F0F
S1131BB080833FC0C80CD91CEA1CFB1CE09165164D
S1131BC0F0916616C282D382E482F582C814D904E5
S1131BD0EA04FB0468F460916516709166168091BE
S1131BE0DD159091DE156E5F7F4F0E94850421C044
S1131BF060916516709166168091DF159091E015DD
S1131C006E5F7F4F0E9485048091A9159091AA155B
S1131C10A091AB15B091AC15C816D906EA06FB061F
S1131C2040F4C092A915D092AA15E092AB15F09297
S1131C30AC15DF91CF91FF90EF90DF90CF90BF90E4
S1131C40AF909F908F9008952F923F924F925F9202
S1131C506F927F928F929F92AF92BF92CF92DF92B8
S1131C60EF92FF920F93CF93DF933C011B014A0144
S1131C702901CA010E948A036C01892B71F084E353
S1131C8090E00E948A03EC01892B19F0DC8ECB8E44
S1131C9006C0C6010E94330402C0C0E0D0E0209711
S1131CA061F0A12CB12C6E019201A401B101C30118
S1131CB0E8DDCE0193DE81E001C08FEFDF91CF91AB
S1131CC00F91FF90EF90DF90CF90BF90AF909F90D7
S1131CD08F907F906F905F904F903F902F900895DA
S1131CE0EF92FF920F930F2EF7EAEF2EF5E1FF2EFE
S1131CF0F02D00E020E030E040EC50E062ED72E0D6
S1131D008DEC90E0A1DF813011F40E942218813023
S1131D10C9F4F8948FEF9FEFDC018093A915909399
S1131D20AA15A093AB15B093AC1581E08093B415BC
S1131D301092B6151092B7151092B8151092B915E5
S1131D400E940C0580910A020F91FF90EF90089574
S1131D508091A6158F5F8093A61508950FB6F89409
S1131D600F926091B6157091B7158091B815909146
S1131D70B9150F900FBE0895CF92DF92EF92FF92A4
S1131D80CF93DF938091A615811105C1C090B6153C
S1131D90D090B715E090B815F090B9158FEFC81A28
S1131DA0D80AE80AF80AC092B615D092B715E0929C
S1131DB0B815F092B915C114D104E104F104B1F4D9
S1131DC08091DF159091E0152091DD153091DE159D
S1131DD03093E0152093DF159093DE158093DD1585
S1131DE08091AE158F5F8093AE1517DD8091A91594
S1131DF09091AA15A091AB15B091AC15C816D9064F
S1131E00EA06FB0620F480E0B2C081E001C080E075
S1131E10E091DF15F091E015908191110CC04FEF26
S1131E205FEFBA014093A9155093AA156093AB15BF
S1131E307093AC159CC0E091DF15F091E01507801C
S1131E40F085E02D0084F185E02D42815381648189
S1131E507581C416D506E606F70648F44093A9151D
S1131E605093AA156093AB157093AC1580C0A485EC
S1131E70B585C681D781208531853F832E83C08572
S1131E80D185268137813D832C8311964D915C91B8
S1131E9012979F012E5F3F4F4217530731F440853D
S1131EA0518512965C934E931197158614869C91D6
S1131EB091509C93A08DB18D109709F1C289D3895B
S1131EC0448955895F834E83C489D589428953895E
S1131ED05D834C8311966D917C911297AF01425FA3
S1131EE05F4F6417750731F44489558912965C93E2
S1131EF04E931197118E108E9C9191509C93A28DAC
S1131F009091B5159A1710F4A093B5159BE09A9F7C
S1131F10D0011124A950BA4E11960D90BC91A02D58
S1131F20B783A68316964D915C9117975187408786
S1131F301696CD91DC9117973D832C8317963C938D
S1131F402E931697A28D9A9FD0011124A950BA4EB0
S1131F50B587A4879C919F5F9C93228DE091651621
S1131F60F0916616928D291708F04FCF51CFE0916A
S1131F706516F0916616E28D9BE0E99FF00111244D
S1131F80E950FA4E9081923008F081E09091AF15BB
S1131F90911116C016C08091B0159091B115A09101
S1131FA0B215B091B3150196A11DB11D8093B01562
S1131FB09093B115A093B215B093B31580E001C00E
S1131FC081E0DF91CF91FF90EF90DF90CF90089563
S1131FD0CF92DF92EF92FF92CF93DF930FB6F894F4
S1131FE00F928091A61581508093A6158091A61515
S1131FF08111BEC08091BA15811188C0BCC0E09126
S1132000D915F091DA150084F185E02DA08DB18DFC
S1132010C289D389848995899F838E83C489D5890C
S1132020828993899D838C8311962D913C9112977B
S1132030CF010E962817390731F4848995891296B1
S11320409C938E931197118E108E8C9181508C934A
S1132050A485B585C681D781808591859F838E832C
S1132060C085D185868197819D838C8311968D91BE
S11320709C9112979F012E5F3F4F8217930731F473
S11320808085918512969C938E931197158614865C
S11320908C9181508C93A28D8091B5158A1710F480
S11320A0A093B5158BE08A9FD0011124A950BA4E94
S11320B011960D90BC91A02DB783A68316964D91D1
S11320C05C911797518740871696CD91DC911797AD
S11320D03D832C8317963C932E931697A28D8A9F4B
S11320E0D0011124A950BA4EB587A4878C918F5F73
S11320F08C93928DA0916516B09166165A968C9128
S1132100981730F081E08093AF1502C0E0E0F0E072
S11321108091D215811173CFEF2B09F07EDBC09033
S1132120B015D090B115E090B215F090B315C1146C
S1132130D104E104F104A1F01FDE882319F081E049
S11321408093AF1581E0C81AD108E108F108A1F71E
S11321501092B0151092B1151092B2151092B315D9
S11321608091AF15882331F00E943E0581E003C0C1
S113217080E001C080E00F900FBEDF91CF91FF900F
S1132180EF90DF90CF9008958F929F92AF92BF927D
S1132190CF92DF92EF92FF921F93CF93DF93EC01E4
S11321A06A017B01D5DD8090B6159090B715A0909B
S11321B0B815B090B91588819981AA81BB81AC0109
S11321C0BD014C0D5D1D6E1D7F1D88169906AA0666
S11321D0BB0660F4481759076A077B0798F484160E
S11321E09506A606B70680F010E013C048175907F5
S11321F06A077B0758F084169506A606B70640F0D2
S113220010E007C010E005C011E003C011E001C0F8
S113221011E0488359836A837B83112341F0CB0106
S1132220BA01681979098A099B0940E06BDCD0DEA0
S1132230811102C00E943E05812FDF91CF911F9131
S1132240FF90EF90DF90CF90BF90AF909F908F90D2
S11322500895CF92DF92EF92FF926B017C01672B7E
S1132260682B692B39F074DD40E0C701B6014ADC04
S1132270AFDE01C080E0811102C00E943E05FF90E4
S1132280EF90DF90CF9008958091A615882321F0D8
S113229081E08093AF1508951092AF15E091651613
S11322A0F091661620813181E0916516F0916616F1
S11322B0838D948D8217930760F0609165167091F9
S11322C06616635E7F4F80916516909166160E9434
S11322D0B01A8091B51501C08150282F30E09BE0E1
S11322E0929FF001939FF00D1124E950FA4E9081D2
S11322F0992391F39BE0929FA001939F500D112489
S1132300DF010180F281E02D0480F581E02D129639
S1132310FC93EE93119746505A4EE417F50729F4AF
S113232044815581FD01528341839BE0929FF001DA
S1132330939FF00D1124E950FA4E0180F281E02DB3
S11323402085318530936616209365168093B515E4
S11323500895CF92DF92EF92FF926A017B01609120
S1132360651670916616625F7F4F0E94850441E096
S1132370C701B601C7DBFF90EF90DF90CF900895BF
S11323800F931F93CF93DF93FC01A0916516B09137
S1132390661670681E964D935D936D937C9351976A
S11323A0A181B281C0916516D0916616BB8BAA8BB0
S11323B0C0916516D091661616968D919C911797CB
S11323C09D8B8C8B1696CD91DC9117978091651619
S11323D0909166160E969D838C83809165169091DC
S11323E066160E9617969C938E931697A091651673
S11323F0B09166165996FC93EE93589780818F5F3F
S1132400808341E0C901B8017DDBDF91CF911F9149
S11324100F910895CF93DF93FC01CB01BA01A18101
S1132420B281C0916516D0916616BB8BAA8BC09100
S11324306516D091661616964D915C9117975D8B33
S11324404C8B1696CD91DC9117974091651650915F
S11324506616425F5F4F5D834C83409165165091D1
S11324606616425F5F4F17965C934E931697A09142
S11324706516B09166165996FC93EE935897308181
S11324803F5F3083222319F06FEF7FEFCB01422FA0
S113249039DBDF91CF910895CF93DF93DC01179659
S11324A0ED91FC9118970084F185E02DA08DB18DFC
S11324B0C289D389848995899F838E83C489D58968
S11324C0828993899D838C8311968D919C91129717
S11324D09F01225F3F4F8217930731F484899589C6
S11324E012969C938E931197118E108E8C9181501D
S11324F08C938091A615811152C0A485B585C6819F
S1132500D781808591859F838E83C085D18586817F
S113251097819D838C8311968D919C9112979F0135
S11325202E5F3F4F8217930731F480859185129671
S11325309C938E931197158614868C9181508C935D
S1132540A28D8091B5158A1710F4A093B5158BE070
S11325508A9FD0011124A950BA4E11960D90BC91B6
S1132560A02DB783A68316964D915C91179751873A
S113257040871696CD91DC9117973D832C8317964F
S11325803C932E931697A28D8A9FD0011124A950B3
S1132590BA4EB587A4878C918F5F8C931CC042ED93
S11325A055E1DA011196CD91DC911297D38BC28B50
S11325B08E819F81958B848B8E819F81DC01159602
S11325C03C932E9314973F832E83518F408FDA01CF
S11325D08C918F5F8C93928DE0916516F0916616C5
S11325E0828D891720F481E08093AF1501C080E0CB
S11325F0DF91CF910895CF93DF93DC0170684D9301
S11326005D936D937C9313971896ED91FC911997B4
S11326101A964D915C911B9714968D919C911597E8
S113262016962D913C911797EC013F832E831696B5
S11326308D919C91179714962D913C911597EC01CF
S11326403D832C83EA0189819A81A817B90731F463
S113265016968D919C9117979A8389831B961C9249
S11326601E921A97DA018C9181508C93A485B585BA
S1132670C681D781808591859F838E83C085D185CE
S1132680868197819D838C8311968D919C9112975D
S11326909F012E5F3F4F8217930731F48085918508
S11326A012969C938E931197158614868C91815063
S11326B08C93A28D8091B5158A1710F4A093B5154B
S11326C08BE08A9FD0011124A950BA4E11960D9027
S11326D0BC91A02DB783A68316964D915C91179754
S11326E0518740871696CD91DC9117973D832C83B3
S11326F017963C932E931697A28D8A9FD00111248E
S1132700A950BA4EB587A4878C918F5F8C93928D14
S1132710E0916516F0916616828D891718F481E0B0
S11327208093AF15DF91CF9108950FB6F8940F926F
S11327302091AE15FC0120834091B6155091B71538
S11327406091B8157091B915418352836383748382
S11327500F900FBE08952091AE15FC012083409187
S1132760B6155091B7156091B8157091B91541839C
S113277052836383748308958F929F92AF92BF9222
S1132780CF92DF92EF92FF920F931F93CF93DF9339
S1132790FB010FB6F8940F92C090B615D090B71500
S11327A0E090B815F090B915DC0111960D911D91CA
S11327B02D913C91149746015701801A910AA20A5F
S11327C0B30A40815181628173814F3FBFEF5B0740
S11327D06B077B0739F1EC01B881A091AE15BA17EC
S11327E059F0C016D106E206F30630F010821182C9
S11327F01282138281E017C084169506A606B706D6
S113280058F4481959096A097B0940835183628342
S11328107383A1DF80E007C01082118212821382C9
S113282081E001C080E00F900FBEDF91CF911F9136
S11328300F91FF90EF90DF90CF90BF90AF909F905B
S11328408F90089581E08093AF1508958091651667
S11328509091661608958091B415882331F0809183
S1132860A615811104C082E0089581E0089580E0F6
S113287008950F931F93CF93DF93FC01892B09F4E1
S113288049C086A5815086A7228D95A5291709F4EC
S113289043C0811143C0EF018F010E5F1F4FC80178
S11328A00E94C204EDA5EA8F8AE090E0A0E0B0E0C7
S11328B08E1B9109A109B1098E879F87A88BB98BBB
S11328C08091B5158E1710F4E093B5158BE08E9FAB
S11328D0F0011124E950FA4E0180F281E02DFF83CA
S11328E0EE832681378139872887A681B78115969B
S11328F01C930E93149717830683EA8D8E9FF00121
S11329001124E950FA4EFD87EC8780818F5F808324
S113291081E005C080E003C080E001C080E0DF9179
S1132920CF911F910F910895CF92DF92EF92FF9272
S1132930E0916516F09166166685778580899189A0
S1132940E0916516F0916616A0916516B091661631
S11329505A962C910F2EFAE0CF2ED12CE12CF12C8B
S1132960F02DC21AD108E108F108C686D786E08A9C
S1132970F18AFF90EF90DF90CF9008954F925F928D
S11329806F927F92AF92BF92CF92DF92EF92FF92BB
S11329900F931F93CF93DF93280139010FB6F89457
S11329A00F92E0916516F0916616C82FD0E0EC0FF7
S11329B0FD1F83A9823071F1E0916516F0916616CE
S11329C0CE01880F991F880F991FE80FF91F87A55B
S11329D090A9A1A9B2A940955095609570954823F6
S11329E059236A237B2347A750AB61AB72ABE091B9
S11329F06516F0916616EC0FFD1F81E083ABA11400
S1132A00B104C104D10431F041E0C601B5017AD862
S1132A100E943E050F900FBE0FB6F8940F92E1147A
S1132A20F104A1F0E0916516F0916616CE01880FCD
S1132A30991F880F991FE80FF91F87A590A9A1A9CD
S1132A40B2A9F70180839183A283B383E0916516D1
S1132A50F0916616EC0FFD1F83A98230E9F4E09132
S1132A606516F0916616CE01880F991F880F991F7D
S1132A70E80FF91F87A590A9A1A9B2A94094509481
S1132A8060947094482259226A227B2247A650AA55
S1132A9061AA72AA81E001C080E02091651630919C
S1132AA06616C20FD31F1BAA0F900FBEDF91CF91E2
S1132AB01F910F91FF90EF90DF90CF90BF90AF9058
S1132AC07F906F905F904F9008958F929F92AF92F6
S1132AD0BF92EF92FF920F93CF93DF93DC010FB677
S1132AE0F8940F92E114F10489F0E62FF0E0EE0F70
S1132AF0FF1FEE0FFF1FE80FF91F87A490A8A1A8DE
S1132B00B2A8F70180829182A282B38270E0FD01B3
S1132B10E60FF71F83A992E093AB023001F118F49A
S1132B20013031F04DC0033079F10430D1F148C0A7
S1132B30660F771F660F771FFD01E60FF71F87A447
S1132B4090A8A1A8B2A8BA01A901482959296A29BB
S1132B507B2947A750AB61AB72AB01E034C0660F71
S1132B60771F660F771FFD01E60FF71F47A550A9D2
S1132B7061A972A94F5F5F4F6F4F7F4F47A750AB5B
S1132B8061AB72AB01E01FC0660F771F660F771F42
S1132B90FD01E60FF71F27A730AB41AB52AB01E0B5
S1132BA012C0823079F0660F771F660F771FFD0120
S1132BB0E60FF71F27A730AB41AB52AB01E003C0D0
S1132BC001E001C000E0813009F069C01C96ED917C
S1132BD0FC911D971696CD91DC91179718968D91BF
S1132BE09C9119979F838E831896CD91DC911997A8
S1132BF016968D919C9117979D838C8381819281E8
S1132C009D012E5F3F4F8217930731F418968D91E3
S1132C109C911997928381831D961C921E921C97F6
S1132C208081815080835A96EC915A978091B51592
S1132C308E1710F4E093B5158BE08E9FF0011124EC
S1132C40E950FA4E0180F281E02D1796FC93EE9341
S1132C5016974681578119965C934E931897C681AF
S1132C60D7813D832C83378326835A96EC915A97D8
S1132C708E9FF0011124E950FA4E1D96FC93EE93B9
S1132C801C9780818F5F80835A969C91E091651692
S1132C90F0916616828D891710F40E943E050F90FC
S1132CA00FBE802FDF91CF910F91FF90EF90BF90D7
S1132CB0AF909F908F9008958F929F92AF92BF9202
S1132CC0CF92DF92EF92FF920F93CF93DF93DC01C9
S1132CD0E114F10489F0E62FF0E0EE0FFF1FEE0F90
S1132CE0FF1FE80FF91F87A490A8A1A8B2A8F701B5
S1132CF080829182A282B38270E0FD01E60FF71F09
S1132D0093A982E083AB023001F118F4013031F071
S1132D104DC0033079F10430D1F148C0660F771FFC
S1132D20660F771FFD01E60FF71F87A490A8A1A8DF
S1132D30B2A8BA01A901482959296A297B2947A7B8
S1132D4050AB61AB72AB81E034C0660F771F660F86
S1132D50771FFD01E60FF71F47A550A961A972A9C6
S1132D604F5F5F4F6F4F7F4F47A750AB61AB72AB65
S1132D7081E01FC0660F771F660F771FFD01E60F06
S1132D80F71F27A730AB41AB52AB81E012C09230A2
S1132D9079F0660F771F660F771FFD01E60FF71FA7
S1132DA027A730AB41AB52AB81E003C081E001C047
S1132DB080E0913009F096C09091A61591115FC002
S1132DC01C96ED91FC911D971696CD91DC91179769
S1132DD018962D913C9119973F832E831896CD9187
S1132DE0DC91199716962D913C9117973D832C836E
S1132DF0418152819D012E5F3F4F4217530731F4A9
S1132E0018964D915C911997528341831D961C929B
S1132E101E921C979081915090835A96EC915A97E8
S1132E209091B5159E1710F4E093B5159BE09E9F05
S1132E30F0011124E950FA4E0180F281E02D179639
S1132E40FC93EE9316974681578119965C934E93A3
S1132E501897C681D7813D832C83378326835A965E
S1132E60EC915A979E9FF0011124E950FA4E1D9659
S1132E70FC93EE931C9790819F5F908321C062ED39
S1132E8075E1FB01C181D2815396DC93CE935297B5
S1132E902E813F8155963C932E9354974E815F81AA
S1132EA09D01225F3F4FFA01358324833F832E83A4
S1132EB059967C936E935897FB0190819F5F908302
S1132EC05A962C91E0916516F0916616928D9217A0
S1132ED048F4C114D10419F091E0F601908391E013
S1132EE09093AF15DF91CF910F91FF90EF90DF900A
S1132EF0CF90BF90AF909F908F900895009721F44A
S1132F0080916516909166160FB6F8940F9270E052
S1132F10FC01E60FF71F23A9223031F4FC01E60F70
S1132F20F71F13AA81E001C080E00F900FBE08953F
S1132F30DC01E0917116F0917216808191E08111AB
S1132F4090E09C93911108C00780F085E02D60818A
S1132F50718182819381089560E070E0CB010895CE
S1132F60CF92DF92EF92FF920F931F93FC01428363
S1132F705383648375839387828704171507260711
S1132F803707C0F00C191D092E093F09868597855E
S1132F90A089B189081719072A073B0700F5BF0163
S1132FA06E5F7F4F80916F16909170160E9485041A
S1132FB080E018C00C151D052E053F0528F44C159E
S1132FC05D056E057F0568F4BF016E5F7F4F8091DC
S1132FD07116909172160E94850480E003C081E00E
S1132FE001C081E01F910F91FF90EF90DF90CF908F
S1132FF008950FB6F8940F9280916D1690916E1605
S1133000892BE9F48EE796E10E94700483E796E148
S11330100E9470048EE796E1909372168093711665
S113302083E796E19093701680936F1640E067E013
S11330308AE00E94230790936E1680936D160F907A
S11330400FBE0895EF92FF920F93D3DF80916D1618
S113305090916E16892B91F00F2EFBE6EF2EF6E180
S1133060FF2EF02D03E020E030E040EC50E067ED6F
S113307072E087ED90E00E94240E01C080E00F9181
S1133080FF90EF9008958F929F92AF92BF92CF924C
S1133090DF92EF92FF920F931F93CF93DF93CDB7FD
S11330A0DEB727970FB6F894DEBF0FBECDBFE09111
S11330B06D16F0916E16309781F169832A833B83F4
S11330C04C835D839F838E836630F4F4C4DB82304B
S11330D069F400E0A7019601BE016F5F7F4F809104
S11330E06D1690916E160E94460718C000E020E00D
S11330F030E0A901BE016F5F7F4F80916D16909102
S11331006E160E9446070AC020E0A801BE016F5F48
S11331107F4FCF010E94F60701C080E027960FB6CB
S1133120F894DEBF0FBECDBFDF91CF911F910F91F9
S1133130FF90EF90DF90CF90BF90AF909F908F90D3
S113314008958F929F92AF92BF92CF92DF92EF92A7
S1133150FF920F931F93CF93DF933BC00780F085BB
S1133160E02D80809180A280B380C085D1858E01BE
S11331700E5F1F4FC8010E94C204EC89FD89CE0175
S113318019958E8982FF25C08E859F85A889B98966
S1133190880D991DAA1DBB1D88169906AA06BB0693
S11331A070F48A839B83AC83BD83DB87CA87B801B1
S11331B080917116909172160E9485040AC0C12CE8
S11331C0D12C760100E010E0A501940160E0CE016D
S11331D05ADFE0917116F091721680818111BECF91
S11331E080916F1690917016909372168093711659
S11331F0F0937016E0936F16DF91CF911F910F91AA
S1133200FF90EF90DF90CF90BF90AF909F908F9002
S11332100895CF92DF92EF92FF92CF93DF93EC0168
S11332200E94AE0E6B017C01809167169091681626
S1133230A0916916B0916A16C816D906EA06FB066B
S113324020F47FDF81E0888301C01882C092671672
S1133250D0926816E0926916F0926A16C701B60118
S1133260DF91CF91FF90EF90DF90CF9008954F9230
S11332705F926F927F928F929F92AF92BF92CF9202
S1133280DF92EF92FF920F931F93CF93DF934B0143
S11332905C0129013A01E0917116F09172160780E0
S11332A0F085E02DC085D185CE0102960E94C2042E
S11332B08E8982FF1BC04E855F8568897989480D98
S11332C0591D6A1D7B1D7501640193018201CE01A4
S11332D047DE882369F0C12CD12C760100E010E090
S11332E0A501940160E0CE01CEDE02C08E7F8E8BFC
S11332F0EC89FD89CE011995DF91CF911F910F9132
S1133300FF90EF90DF90CF90BF90AF909F908F9001
S11333107F906F905F904F9008958F929F92AF929D
S1133320BF92CF92DF92EF92FF921F93CF93DF93DE
S11333301F92CDB7DEB76B017C01142F0E94A80E3B
S1133340CE01019666DF4B015C01898181112DC09C
S113335011110DC08C149D04AE04BF0440F00E94F2
S1133360E80FA5019401C701B60181DF20C0112334
S113337041F0E0916F16F0917016808111E0811197
S113338010E0B701A601481959096A097B09212FE0
S113339080916D1690916E160E94C0080E94E80FED
S11333A0811105C00E943E0502C00E94E80F0F90E3
S11333B0DF91CF911F91FF90EF90DF90CF90BF905E
S11333C0AF909F908F900895AF92BF92CF92DF926B
S11333D0EF92FF920F931F93CF93DF93CDB7DEB796
S11333E028970FB6F894DEBF0FBECDBF82C0898187
S11333F088230CF47EC0AE80BF80D5011C968D91CD
S11334009C911D97892B21F0C50102960E94C2044C
S1133410CE010896FEDE8B019C01E9810E2E000C84
S1133420FF0BEA30F10508F064C08827EE58FF4F1F
S11334308F4F0C944C2DF50186898160868BCA8050
S1133440DB80EC80FD8046855785608971894C0D51
S11334505D1D6E1D7F1DC50183DD882309F449C0F0
S1133460D5015496ED91FC915597C5011995F50137
S1133470868982FF3EC04A815B816C817D8186851D
S11334809785A089B1899A01AB01280F391F4A1F7A
S11334905B1FC12CD12C760100E010E060E0C50177
S11334A0F2DD27C0D50156968C9156978E7F56969D
S11334B08C931FC0F50186898160868B4A815B816C
S11334C06C817D8146875787608B718B400F511FBC
S11334D0621F731F68017901C50142DD0AC0F5014D
S11334E0868981FD04C0C5010E94330402C08E7F19
S11334F0868B20E030E0A901BE016F5F7F4F809191
S11335006D1690916E160E943108811170CF289625
S11335100FB6F894DEBF0FBECDBFDF91CF911F91E0
S11335200F91FF90EF90DF90CF90BF90AF900895F0
S1133530089584B1806884B985B1806885B9089597
S113354083B1806883B90895F4DF2FEF80E792E0B8
S1133550215080409040E1F700C00000F1DFF5CF3A
S1133560E8DF2FEF87EA91E6215080409040E1F7B1
S113357000C00000E5DFF5CF86E090E00E948A03FA
S11335809093FC178093FB17009769F0FC0111825C
S113359010828091FB179091FC17FC011582148214
S11335A013821282089580E090E00895E091FB1761
S11335B0F091FC17918380830895E091FB17F091BB
S11335C0FC17938382830895E091FB17F091FC1715
S11335D0958384830895E9E8F6E126E021836083F6
S11335E0A091FB17B091FC172C9111963C91119767
S11335F03283238312962C91129713963C9113973E
S11336003483258314962C91149715963C91368314
S1133610278326E1DC0101900D922A95E1F70895B4
S11336200F931F93CF93DF938C01EB0188E090E01D
S11336300E948A03009709F11093FE170093FD1767
S1133640D0930018C093FF1740919F165091A01675
S11336506091A1167091A216FC0144835583668380
S113366077834091A3165091A4166091A51670918A
S1133670A6164083518362837383DF91CF911F9198
S11336800F9108956091A3167091A4168091A516C8
S11336909091A616D4D2CB01089560919F16709193
S11336A0A0168091A1169091A216C9D2CB010895BB
S11336B048D3882341F08FED92E09F938F930E942B
S11336C0D82E0F900F900895CC24CA94DC2C760148
S11336D001E021E042E050E060E070E08091FD17FD
S11336E09091FE170E94E90161FF4EC066E070E010
S11336F080E090E00E9429113CD38823C1F066E069
S113370070E080E090E00E94291184EF92E09F93A2
S11337108F930E94D82E0F900F9006C063E070E044
S113372080E090E00E94291124D38823B9F336D392
S113373063E070E080E090E00E9429112FD38111B2
S1133740C3CF66E070E080E090E00E94291137D397
S113375060939F167093A0168093A1169093A2165F
S113376043D36093A3167093A4168093A5169093E5
S1133770A61641E050E060E070E08091FF17909160
S113378000180E948902A0CF8EE293E00E94EB2EE3
S11337909BCF0F931F93CF93DF93CDB7DEB764977F
S11337A00FB6F894DEBF0FBECDBF84E393E00E9452
S11337B0EB2E81E00E944C299FD41BD79F938F93BB
S11337C080E493E09F938F930E94D82E13D611D751
S11337D09F938F9383E593E09F938F930E94D82EBA
S11337E08CE693E00E94EB2E8E010F5F1F4FC80101
S11337F095D4FFD61F930F939F938F9389E793E0FC
S11338009F938F930E94D82EC801A4D4F2D69F937D
S11338108F931F930F938DE893E09F938F930E9450
S1133820D82E82EA93E00E94EB2EA8016FEA73E09F
S113383080ED93E0BDD6DDD69F938F931F930F93B6
S11338408FEA93E09F938F9380ED93E09F938F9300
S113385081EE93E09F938F930E94D82EAED4C9D665
S11338609F938F9387E194E09F938F930E94D82E28
S11338700FB6F894DEBF0FBECDBF81E098D5B9D6A0
S11338809F938F9386E294E09F938F930E94D82E08
S113389087E494E00E94EB2E84EF91E093D5A9D6BF
S11338A09F938F9381E08F9384EF8F9384E594E0CB
S11338B09F938F930E94D82E84E393E00E94EB2E73
S11338C00FB6F894DEBF0FBECDBF1AE080E07BD404
S11338D0082F8FD69F938F931F921F9384E794E0B2
S11338E09F938F930E94D82E0F900F900F900F905C
S11338F00F900F90083059F080E00E94B02966E3E1
S113390071E080E090E00E9429111150F9F608302E
S113391021F481E00E9492290DC084E994E00E9480
S1133920EB2E81E00E94A12980E00E946F290E9471
S11339303E05FDCF64960FB6F894DEBF0FBECDBF33
S1133940DF91CF911F910F910895EF92FF920F9302
S11339509B017093A8166093A716E12CF12C082FF5
S113396048E851E06FE974E08AE19DE10E94240E89
S11339700F91FF90EF900895CF93DF9300D01F92A3
S1133980CDB7DEB781E0AAD362E070E080E090E0DA
S11339900E94291180E0A2D366E970E080E090E003
S11339A00E9429118AEA94E00E94EB2E50D3F1DEA2
S11339B0E9EAF6E186E0818382E080830E94AE0E2C
S11339C069837A838B839C8381EB94E00E94EB2E42
S11339D00FEF1FEF980146E150E069EA76E180912C
S11339E0A7169091A8160E948A0B8C0189EB94E08B
S11339F00E94EB2E44E457E060E070E0CE010196B3
S1133A000E94C41001151105A9F383E00E94C22984
S1133A1069EA76E180E000D4ECD59F938F9382EC41
S1133A2094E09F938F930E94D82E0F900F900F9045
S1133A300F90E0CFA1DFCF93DF93EC010E94AE0E95
S1133A40CE0142DEDF91CF9108950C948C0108954C
S1133A50CF93DF93CDB7DEB7AC970FB6F894DEBF44
S1133A600FBECDBF42E050E060E070E080910318EB
S1133A70909104180E948902CC24CA94DC2C76010B
S1133A8000E021E041E050E060E070E08091080255
S1133A90909109020E94E90160FF1EC08AE194E04E
S1133AA085DDF0DD8ADDEEDD9F938F9388ED94E074
S1133AB09F938F930E94D82EF0DD86DDEEDD9F93D9
S1133AC08F9387ED94E09F938F930E94D82E0FB627
S1133AD0F894DEBF0FBECDBF62E0CE0147967BDD1A
S1133AE086E1FE017796DE01119601900D928A958A
S1133AF0E1F763E070E080E090E00E9429110FEFAD
S1133B001FEF980146E150E0BE016F5F7F4F809147
S1133B100118909102180E94810AA4CFEF92FF929B
S1133B200F9341E060E070E084E690E00E941F0A99
S1133B3090930218809301181FDD0E94D601092E6C
S1133B40000CAA0BBB0B8093031890930418A0934A
S1133B500518B09306180E94D601AC01092E000C7A
S1133B60660B770B409308025093090260930A0294
S1133B7070930B02BC01809103189091041850DDDE
S1133B808091071890910818892B89F481E00E948C
S1133B90EA079093081880930718009741F000E013
S1133BA020E030E0A90160E070E00E944607E12CCB
S1133BB0F12C03E020E030E040EC50E065EE74E0EE
S1133BC088E29DE10E94240E01E020E030E040EC18
S1133BD050E061EF74E08BE19DE10E94240E20E04F
S1133BE030E040EC50E066E075E085E29DE10E9443
S1133BF0240E0F91FF90EF90089581B1816881B9EF
S1133C0080E00E94F72754DD83E0CFD58FE095E074
S1133C100E94EB2E83DF85E00E94FE2860E070E0C6
S1133C2081E01CD2609101187091021884E08DCE5D
S1133C300895E3DF0E94700E80E090E0089533D091
S1133C4088F09F5790F0B92F9927B751A0F0D1F081
S1133C50660F771F881F991F1AF0BA95C9F712C00B
S1133C60B13081F03AD0B1E0089537C0672F782F92
S1133C708827B85F39F0B93FCCF386957795679577
S1133C80B395D9F73EF490958095709561957F4FE3
S1133C908F4F9F4F089557FD9058440F551F59F06B
S1133CA05F3F71F04795880F97FB991F61F09F3F25
S1133CB079F087950895121613061406551FF2CF4E
S1133CC04695F1DF08C0161617061806991FF1CF9E
S1133CD086957105610508940895E894BB276627C5
S1133CE07727CB0197F908956530F1F4FA018081C3
S1133CF08F7390E0982F88272181822B90930E0256
S1133D0080930D028281F0E48F9FC0011124FA0197
S1133D10238126952695822B90930C0280930B0287
S1133D2081E08093BF160895643051F080E090E400
S1133D3090930C0280930B0290930E0280930D02D9
S1133D4008950F931F9304E71EE120E034E244EF4B
S1133D5050E060E087E20E94E4299093C1168093CA
S1133D60C01621E0892B09F020E0822F1F910F91CA
S1133D7008958091C0169091C116009759F040E0C3
S1133D8060E070E00E94352A843031F41092BF164E
S1133D9080E0089582E0089583E008958091C0163C
S1133DA09091C116009739F064E00E94812A853011
S1133DB021F083E0089582E0089580E00895609101
S1133DC00D0270910E0280E090E00E945F2C20E0D2
S1133DD030E048EC52E40E94C42C20E038EF4FE776
S1133DE056E40C94F42B089560910B0270910C022C
S1133DF080E090E00E945F2C20E030E045E253E454
S1133E000E94C42C20E038EF4FE756E40E94F42BC4
S1133E1020E030E040E252E40C948D2B08950F939F
S1133E201F93CF93DF931F921F92CDB7DEB78C0100
S1133E3019822DC0E091F916EC3250F481E08E0F16
S1133E408093F916F0E0E55DF84E8A81808302C024
S1133E501092F9168A818A30D1F44091F91650E013
S1133E60FA01E75DF84E1082415051099E012F5F1F
S1133E703F4F6BE277E18091FC169091FD160E9412
S1133E80460B898181110E943E051092F916BE01EC
S1133E906E5F7F4FC80115D6882361F20F900F9093
S1133EA0DF91CF911F910F9108950F931F93CF939B
S1133EB0DF938C01EB018091FC169091FD160E941A
S1133EC0510AB80182EC96E10E94B92E209779F04C
S1133ED0E2ECF6E101900020E9F7319780E290E00E
S1133EE091838083BE0182EC96E10E94AE2EE2ECC7
S1133EF0F6E1DF010D900020E9F711978DE09AE0DB
S1133F0011969C938E9312961C9201900020E9F7CF
S1133F103197E25CF641AE2F82EC96E1AC016A2F58
S1133F208091FE169091FF1677D5811111C008E299
S1133F3015E020E030E04DE250E065E877E1809163
S1133F40FC169091FD160E948A0B85E897E102C049
S1133F5080E090E0DF91CF911F910F9108952F920F
S1133F603F924F925F926F927F928F929F92AF9205
S1133F70BF92CF92DF92EF92FF920F931F93CF9352
S1133F80DF935C01FC0101900020E9F731976F0198
S1133F90C81AD90A5C2C0F2EFEEA8F2EF7E09F2E4A
S1133FA0F02DE12CF12C4C2C3701F401018112810C
S1133FB0E80109900020E9F72197C01BD10B3C2EA2
S1133FC0F9E0CF16D10458F0F4012080FEE02F125E
S1133FD006C0B801C5010E94892E892B09F5442D1C
S1133FE0351408F44C2F50E0B801C5010E94C02ECE
S1133FF0892B49F4F301EE0FFF1FE60DF71DE2557F
S1134000F84F20800DC08FEFE81AF80AE3E08E0E17
S1134010911CF1E1EF16F10439F66894222424F896
S1134020822DDF91CF911F910F91FF90EF90DF9040
S1134030CF90BF90AF909F908F907F906F905F9044
S11340404F903F902F90089530DF89CF089580914D
S1134050FC169091FD160C94510A08958F929F922C
S1134060AF92CF92EF920F931F93CF93C82F8B01F0
S113407041E060E070E088EC90E00E941F0A9093B9
S1134080FD168093FC161093FB160093FA160F2E60
S1134090FFE08F2EFFE19F2EF02D6894AA24A6F84E
S11340A06894CC24C6F8E12C00E023E040E051EE13
S11340B060E070E08C2FE3D39093FF168093FE169C
S11340C0E7E0F1E0808180618083CF911F910F91BF
S11340D0EF90CF90AF909F908F900895882331F008
S11340E0E8E0F1E080818F7E80830895E8E0F1E0EC
S11340F0808180618083089560E070E084E395E0CE
S1134100D4DEE5E8F7E101900020E9F73197E558BE
S1134110F74181E0759708F080E00895CF93DF932D
S1134120EC0160E070E085E495E0BFDEE5E8F7E1EE
S113413001900020E9F7E659F74139F465E877E1A1
S1134140CE010E94B92E80E002C0188281E0DF9186
S1134150CF910895FC0101900020E9F79F012151BE
S113416031092817390729F4BC0183E795E06CCF9E
S1134170089589E00895FC0101900020E9F79F016A
S1134180215131092817390729F4BC0182E895E047
S11341905BCF089589E00895FC0101900020E9F7C0
S11341A09F01215231092817390729F4BC0181E9FB
S11341B095E04ACF089589E0089560E070E080EDCD
S11341C095E042CF08950F931F93E82FF0E0EE0F90
S11341D0FF1FE655F84F6081718189ED95E034DF6A
S11341E0811114C008E215E020E030E04DE250E017
S11341F065E877E18091FC169091FD160E948A0B88
S1134200882321F085E897E1AADE03C085E897E1D9
S1134210A6DE1F910F9108950F931F93CF93DF9301
S11342201F92CDB7DEB7DB0111969C9111979531A2
S113423008F0B4C0992381F160E070E0272F30E0EA
S1134240462F50E0FD01E40FF51F928192959F7077
S11342509A3010F0995C01C0905DF901EA5EF84E65
S113426090832F5F3F4FFD01E40FF51F92819F70F4
S1134270492F50E04A30510514F0995C01C0905D1B
S1134280F901EA5EF84E90837E5F6F5F11969C9110
S11342901197691798F201C070E0E72FF0E0EA5E29
S11342A0F84E10824C91811103C082EE95E002C059
S11342B084EE95E026E137E13F932F931F924F93CD
S11342C09F938F9388EE95E09F938F9388E597E172
S11342D09F938F930E941B2F60E070E088E597E125
S11342E0B3DE0FB6F894DEBF0FBECDBF811159C047
S11342F008E215E020E030E04DE250E065E877E1C7
S11343008091FC169091FD160E948A0B882309F473
S113431047C085E897E123DE8E3009F042C087E08C
S113432089838091FA169091FB16892BA9F1BE011D
S11343306F5F7F4F85E897E168D180930017E9812B
S1134340F0E0EB57F84EDF010D900020E9F71197EC
S1134350AE1BBF0BAA2391F0BB27CD0101979C0193
S113436012F42F5F3F4F3595279520930117AF0126
S11343704F5F5F4F64E182E097E173D101E010E0A9
S113438020E030E046E150E060E077E18091FA1609
S11343909091FB160E94810A8EE003C084E101C063
S11343A080E00F90DF91CF911F910F91089581309C
S11343B019F068EF75E002C061ED76E08CEF95E0EE
S11343C043CE08959F938F938DE296E09F938F93AE
S11343D088E597E19F938F930E941B2F60E070E024
S11343E088E597E131DE0F900F900F900F900F90BA
S11343F00F9008952F923F924F925F926F927F9207
S11344008F929F92AF92BF92CF92DF92EF92FF92E0
S11344100F931F93CF93DF93CDB7DEB7A0970FB65B
S1134420F894DEBF0FBECDBF6AE576E086E696E07F
S11344303CDD95DD8111A3C080E2E6E2F2E0DE011D
S1134440119601900D928A95E1F79E012F5F3F4FDF
S11344506901E12CF12C0F2EF2E7AF2EF6E0BF2E0E
S1134460F02D08E517E10F2EFBE84F2EF6E05F2E46
S1134470F02D0F2EF2EA8F2EF6E09F2EF02D0F2E48
S1134480FCEB6F2EF6E07F2EF02D3E2C2F2CFF92AE
S1134490EF92BF92AF921F930F930E941B2F60E085
S11344A070E0C80102DD5BDD0F900F900F900F905C
S11344B00F900F90811163C032E03E15E8F4F601CD
S11344C083818F9382818F9381818F9380818F9356
S11344D0FF92EF925F924F921F930F930E941B2FB4
S11344E060E070E0C801E1DC3ADD0FB6F894DEBFAD
S11344F00FBECDBF811143C02F923F929F928F92E6
S11345001F930F930E941B2F60E070E0C801CDDC65
S113451026DD0F900F900F900F900F900F90811148
S11345202EC02F923F927F926F921F930F930E94FF
S11345301B2F60E070E0C801B8DC11DD0F900F9014
S11345400F900F900F900F90811119C03FEFE31A55
S1134550F30A84E0C80ED11C98E0E916F10409F0CE
S113456094CF60E070E084ED96E09FDCF8DC81118C
S113457006C060E070E085EE96E097DCF0DCA09683
S11345800FB6F894DEBF0FBECDBFDF91CF911F9160
S11345900F91FF90EF90DF90CF90BF90AF909F90DE
S11345A08F907F906F905F904F903F902F900895E1
S11345B0EF92FF920F931F93CF93DF93EC018B0144
S11345C07A0181E0F4DE81110DC0CE01D4DD8111C8
S11345D009C0C801E1DD811105C0C701BBDD81113E
S11345E001C0EBDDDF91CF911F910F91FF90EF9010
S11345F0089590E0FC01EE0FFF1F8E0F9F1FFC013A
S1134600E255F84F818192810895DC01009729F1E8
S1134610FB012081FC0101900020E9F73197E81BA0
S1134620F90B822F90E0E817F907C8F080E008C082
S1134630880F382F330F330F830F8053890F2F5F69
S1134640FD01E20FF11D908130ED390F3A3010F485
S11346509111EECFFB012083089580E0089580E05E
S113466008950F931F93CF93DF93DC01EA01209702
S1134670E1F1FA0101900020E9F73197E41BF50B11
S1134680329710F532C08D01040F151F30E0AE01D2
S1134690420F531FFA019081913428F09753592FF8
S11346A05295507F03C0592F5295507F2C0F3D1FB8
S11346B0F9019181913410F0975301C09053950FF3
S11346C0F80190838F5F01C080E0282F220F482FCC
S11346D050E0FE0101900020E9F73197EC1BFD0B3F
S11346E04E175F0710F48613CECFDF91CF911F9141
S11346F00F9108958091B517860F8093B517909107
S1134700B817913079F028F09230A9F0933019F16C
S113471008956F3F09F048C01092B51781E0809367
S1134720B8170895663809F03FC01092B41782E0B4
S11347308093B8170895E091B41781E08E0F8093A9
S1134740B417F0E0EE54F84E6083823069F583E0EC
S11347508093B81708959091B41721E0290F2093FE
S1134760B417963009F581110EC0E2EBF7E18081B0
S113477090E0982F88272181820F911D9093BA177A
S11347808093B91704C01092BA171092B9171092F7
S1134790B817E091B617F091B717309729F08091C8
S11347A0B9179091BA17199508958F929F92AF9265
S11347B0CF92EF920F930F2EFAE78F2EF3E29F2EF4
S11347C0F02D6894AA24A4F86894CC24C4F8E12CAD
S11347D000E023E040E855E260E070E050D09093C0
S11347E0BC178093BB170F91EF90CF90AF909F9021
S11347F08F9008959093B7178093B6170895CF9329
S1134800DF93CDB7DEB729970FB6F894DEBF0FBE9E
S1134810CDBF89E0E6E4F2E09E012F5F3F4FD9016E
S113482001900D928A95E1F71092BA171092B91778
S11348308091BB179091BC17009731F0422F532FF2
S113484069E0EAD080E001C082E029960FB6F894CE
S1134850DEBF0FBECDBFDF91CF9108952091B91770
S11348603091BA172115310529F4FC011182108207
S113487081E00895FC013183208380E008952F9224
S11348803F924F925F926F927F928F929F92AF92DC
S1134890CF92EF92FF920F931F93CF93DF93CDB7F5
S11348A0DEB7F82E2A013B0188E090E00E94542DE7
S11348B08C018F2D90E0FC01EE0FFF1FE354F84EA6
S11348C0118300830115110509F469C0880F991F2C
S11348D0FC01E15FFD4F80819181D8018D939C9310
S11348E08C2D90E0880F991F880F991F0E94542DDA
S11348F01C0186E090E00E94542D7C014C2DB101F6
S1134900F0D6F801F582E4828A2D90E0880F991F91
S1134910880F991F0E94542D1C0186E090E00E948C
S1134920542D7C014A2DB101DCD6D8011396FC929A
S1134930EE92129717969C928E921697FFB6F89461
S1134940ED91FC91119736978081826080838D90E0
S11349509C90C301B201B3D720E030E040E051E4C1
S11349600E94C42C9B01AC0160E074E284E79BE4E8
S11349703BD720E030E040E85FE3CFD660D9F401D4
S113498032976083D801ED91FC911197359788E9AE
S11349908083ED91FC91349786E08083FFBEC8014B
S11349A0DF91CF911F910F91FF90EF90CF90AF9037
S11349B09F908F907F906F905F904F903F902F903B
S11349C00895CF93DF93DC01892B01F11296ED91C9
S11349D0FC911397938182812581981B9223848172
S11349E09817B1F0838126952823C081D181C20F05
S11349F0D11D68838F5F958189238383ED91FC9119
S1134A00359780818062808380E003C081E001C0AB
S1134A1082E0DF91CF910895EF92FF920F931F935D
S1134A20CF93DF937C01009709F441C0DC01129617
S1134A30ED91FC91139793818281981B8581982332
S1134A408481891B8617A8F1662341F1842F952F51
S1134A50DC016150462F50E04F5F5F4F480F591FF4
S1134A60E701EA81FB81938182812581981B92234E
S1134A708481981779F08C919381269529236081FC
S1134A8071818B01020F111DE80188839F5F85816D
S1134A90982393831196A417B50711F7D701ED91C5
S1134AA0FC91359780818062808380E003C081E03F
S1134AB001C082E0DF91CF911F910F91FF90EF90A1
S1134AC008950097D1F0DC011496ED91FC911597AF
S1134AD093818281981799F09281858186958923A3
S1134AE0A081B181A80FB11D8C91DB018C939F5FD4
S1134AF085819823928380E0089581E0089583E07E
S1134B0008951F920F920FB60F9211240BB60F92B5
S1134B102F933F934F935F936F937F938F939F93C1
S1134B20AF93BF93CF93DF93EF93FF93A091BD1700
S1134B30B091BE17109711F16091C6001496ED91D3
S1134B40FC911597938182812581981B92238481FE
S1134B50981761F0838126952823C081D181C20FE3
S1134B60D11D68838F5F9581892383831696ED9188
S1134B70FC911797309711F0CD011995FF91EF91A2
S1134B80DF91CF91BF91AF919F918F917F916F9161
S1134B905F914F913F912F910F900BBE0F900FBEDD
S1134BA00F901F9018951F920F920FB60F92112419
S1134BB00BB60F922F938F939F93AF93BF93EF9363
S1134BC0FF93E091BD17F091BE173097B9F00280C2
S1134BD0F381E02D938182819817B1F092818581D0
S1134BE0282F26952923A081B181A20FB11D2C91D4
S1134BF09F5F892382832093C6000BC0E1ECF0E021
S1134C0080818F7D808305C0E1ECF0E080818F7D21
S1134C108083FF91EF91BF91AF919F918F912F91DD
S1134C200F900BBE0F900FBE0F901F9018951F9200
S1134C300F920FB60F9211240BB60F922F933F933E
S1134C404F935F936F937F938F939F93AF93BF9390
S1134C50CF93DF93EF93FF93A091BF17B091C01749
S1134C60109711F16091CE001496ED91FC91159777
S1134C70938182812581981B92238481981761F006
S1134C80838126952823C081D181C20FD11D6883D9
S1134C908F5F9581892383831696ED91FC911797F5
S1134CA0309711F0CD011995FF91EF91DF91CF91DC
S1134CB0BF91AF919F918F917F916F915F914F9130
S1134CC03F912F910F900BBE0F900FBE0F901F902E
S1134CD018951F920F920FB60F9211240BB60F92D4
S1134CE02F938F939F93AF93BF93EF93FF93E09191
S1134CF0BF17F091C0173097B9F00280F381E02D0F
S1134D00938182819817B1F092818581282F26950D
S1134D102923A081B181A20FB11D2C919F5F89230A
S1134D2082832093CE000BC0E9ECF0E080818F7D7C
S1134D30808305C0E9ECF0E080818F7D8083FF9162
S1134D40EF91BF91AF919F918F912F910F900BBED7
S1134D500F900FBE0F901F9018951F920F920FB6D1
S1134D600F9211240BB60F922F933F934F935F939F
S1134D706F937F938F939F93AF93BF93CF93DF935F
S1134D80EF93FF93A091C117B091C217109711F13F
S1134D906091D6001496ED91FC91159793818281D0
S1134DA02581981B92238481981761F0838126952D
S1134DB02823C081D181C20FD11D68838F5F958163
S1134DC0892383831696ED91FC911797309711F000
S1134DD0CD011995FF91EF91DF91CF91BF91AF91E3
S1134DE09F918F917F916F915F914F913F912F91FF
S1134DF00F900BBE0F900FBE0F901F9018951F922F
S1134E000F920FB60F9211240BB60F922F938F931C
S1134E109F93AF93BF93EF93FF93E091C117F091EA
S1134E20C2173097B9F00280F381E02D938182811B
S1134E309817B1F092818581282F26952923A08186
S1134E40B181A20FB11D2C919F5F8923828320938E
S1134E50D6000BC0E1EDF0E080818F7D808305C03A
S1134E60E1EDF0E080818F7D8083FF91EF91BF9130
S1134E70AF919F918F912F910F900BBE0F900FBE0A
S1134E800F901F9018951F920F920FB60F92112436
S1134E900BB60F922F933F934F935F936F937F9330
S1134EA08F939F93AF93BF93CF93DF93EF93FF932E
S1134EB0A091C317B091C417109711F160913601F6
S1134EC01496ED91FC911597938182812581981B0D
S1134ED092238481981761F0838126952823C081C9
S1134EE0D181C20FD11D68838F5F9581892383830C
S1134EF01696ED91FC911797309711F0CD01199505
S1134F00FF91EF91DF91CF91BF91AF919F918F91DD
S1134F107F916F915F914F913F912F910F900BBEB5
S1134F200F900FBE0F901F9018951F920F920FB6FF
S1134F300F9211240BB60F922F938F939F93AF93DD
S1134F40BF93EF93FF93E091C317F091C417309789
S1134F50B9F00280F381E02D938182819817B1F03A
S1134F6092818581282F26952923A081B181A20FC2
S1134F70B11D2C919F5F89238283209336010BC03E
S1134F80E1E3F1E080818F7D808305C0E1E3F1E01E
S1134F9080818F7D8083FF91EF91BF91AF919F912D
S1134FA08F912F910F900BBE0F900FBE0F901F90FB
S1134FB01895CF93DF931F92CDB7DEB7BE016F5F15
S1134FC07F4F8091C5179091C6177BDD8111F6CF75
S1134FD0898190E00F90DF91CF910895682F80919F
S1134FE0C5179091C617EDDC80E090E008958F928C
S1134FF09F92AF92CF92EF920F93812C912C689451
S1135000AA24A7F86894CC24C7F8E12C00E023E094
S113501040E051EE60E070E032DC9093C61780937C
S1135020C517EDE0F8E187E192E0918380839383F3
S113503082830F91EF90CF90AF909F908F900895BF
S113504090E0FC01EE0FFF1FE80FF91FEE0FFF1FAA
S1135050E953F84E238121111FC09C01220F331FF5
S1135060F901E80FF91FEE0FFF1FE953F84EA08175
S1135070B1814C91F901E80FF91FEE0FFF1FE953BD
S1135080F84E81E090E0028002C0880F991F0A94D4
S1135090E2F7842B8C930895FC01EE0FFF1FDF01D0
S11350A0A80FB91FAA0FBB1FA953B84E0D90BC91EE
S11350B0A02D2C91E80FF91FEE0FFF1FE953F84EB6
S11350C081E090E0028002C0880F991F0A94E2F701
S11350D0809582238C93089590E0FC01EE0FFF1FCE
S11350E0E80FF91FEE0FFF1FE953F84E238121113A
S11350F020C09C01220F331FF901E80FF91FEE0FA6
S1135100FF1FE953F84EA081B1814C91F901E80FDA
S1135110F91FEE0FFF1FE953F84E81E090E0028083
S113512002C0880F991F0A94E2F7809584238C9318
S11351300895FC01EE0FFF1FDF01A80FB91FAA0F8E
S1135140BB1FA953B84E0D90BC91A02D2C91E80F14
S1135150F91FEE0FFF1FE953F84E81E090E0028043
S113516002C0880F991F0A94E2F7822B8C9308954A
S1135170CC24C394D12C6894BB24B2F8C7ECD7E1F7
S113518010E08C81813081F018F1823061F5E88182
S1135190F9812081C6010A8002C0880F991F0A94F0
S11351A0E2F7822780831FC08D818F5F863010F4E1
S11351B08D8319C01D82E881F9812081C6010A808E
S11351C002C0880F991F0A94E2F7822780830BC0DC
S11351D00D81002329F0812F7FDF01500D8303C04F
S11351E0BC82812F2DDF1F5F2696143051F66CE0B0
S11351F070E080E090E00E942911C0CFEF92FF920E
S11352000F931F93CF93DF93082F80E487B9C7ECE4
S1135210D7E10F2EF8E2EF2EF12CF02DF982E8827F
S113522086E08A831B8214E01C8380E009DF80E827
S113523087B9FF82EE8287E0888719861A8781E022
S1135240FFDE80E283BB84E390E09D878C8785E06A
S11352508E871F86188B82E0F3DE80E18093010144
S113526082E091E09B8B8A8B1C8B1D8A1E8B83E0D2
S1135270E7DEE12CF12C20E030E040EC50E061EE80
S113528077E088EB98E20E94240EDF91CF911F9182
S11352900F91FF90EF900895CF93DF9390E0FC017E
S11352A0EE0FFF1FDF01A80FB91FAA0FBB1FA953E1
S11352B0B84ECD91DC911197488121E030E01296EF
S11352C00C90129702C0220F331F0A94E2F724278E
S11352D02883FD0181E08483DF91CF910895CF93EA
S11352E0DF9390E0FC01EE0FFF1FDF01A80FB91F51
S11352F0AA0FBB1FA953B84ECD91DC9111974881D9
S113530021E030E012960C90129702C0220F331F56
S11353100A94E2F724272883FD0182E08483DF9145
S1135320CF910895282F30E0F901EE0FFF1FE20F0F
S1135330F31FEE0FFF1FE953F84E93E09483CCCE96
S11353400895282F30E0F901EE0FFF1FE20FF31F3D
S1135350EE0FFF1FE953F84E94E0948371CE089545
S113536090E0FC01EE0FFF1FDF01A80FB91FAA0F89
S1135370BB1FA953B84E26E015962C931597FD0133
S11353801482089590E0FC01EE0FFF1FDF01A80FC7
S1135390B91FAA0FBB1FA953B84E15961C92159797
S11353A0FD01148208958091ED1781110CC08CE0E9
S11353B08093B8008FEF8093BB0084E08093BC009F
S11353C081E08093ED170895AF92BF92CF92DF9260
S11353D0EF92FF920F931F93CF93DF93A82EB62ED5
S11353E069017A0184E090E05FD3EC01892B61F1DB
S11353F0A88281E0B81212C0C701B60120EA36E8DB
S113540041E050E027D3DA01C9014097A109B1096D
S1135410B695A79597958795898311C0C701B6015D
S113542020E83AE146E050E015D3DA01C90140979B
S1135430A109B109B695A7959795879589831B838B
S11354400A838C2F9D2F02C080E090E0DF91CF91E2
S11354501F910F91FF90EF90DF90CF90BF90AF908E
S113546008958091BC0081700895FF920F931F935B
S1135470CF93DF930097D1F14A30D0F5F42E8B010E
S1135480EC01EFDF811136C08091E0179091E117B4
S1135490C817D90741F087DF89818093B800D0937A
S11354A0E117C093E01781E08F0D8093E2178881A4
S11354B0880F8093E317FF2089F0F801A4EEB7E189
S11354C04FEF4F0D642F70E0CB010196B801680FC8
S11354D0791F81918D93E617F707D9F788EF8093A9
S11354E0250285EA8093BC0084E005C086E003C001
S11354F087E001C082E0DF91CF911F910F91FF906F
S113550008951F93CF93DF93009729F16B3028F50B
S1135510162FEC01A6DF811122C08091E017909133
S1135520E117C817D90741F03EDF89818093B8009D
S1135530D093E117C093E0171093E2178881880F86
S113554081608093E31788EF8093250285EA809336
S1135550BC0085E005C086E003C087E001C082E0AE
S1135560DF91CF911F9108951F920F920FB60F9262
S113557011240BB60F922F933F934F935F936F9326
S11355807F938F939F93AF93BF93EF93FF93E09198
S1135590B9008E2F90E0FC013897E135F10508F051
S11355A075C08827E458FF4F8F4F76C21092DF17DB
S11355B0E091DF178091E217E81770F481E08E0F15
S11355C08093DF17F0E0ED51F84E80818093BB00AB
S11355D085E88093BC0072C084E98093BC0080910C
S11355E0E0179091E117DC011296ED91FC9113976D
S11355F0309709F463C020E040E050E064E019957E
S11356005DC0E091DF1781E08E0F8093DF178091FA
S1135610BB00F0E0ED51F84E80838091B9008034F6
S113562011F41092DF172091DF1730E08091E21718
S113563090E001972817390724F485EC8093BC0087
S11356403DC085E88093BC0039C08091BB00E091E7
S1135650DF17F0E0ED51F84E808384E98093BC00BD
S11356608091E0179091E117DC011296ED91FC9185
S11356701397309719F12091E21743EE57E165E053
S113568019951CC085EA8093BC0018C08091B900AC
S11356908093250284E08093BC008091E017909170
S11356A0E117DC011296ED91FC911397309731F0DC
S11356B020E040E050E0609125021995FF91EF91C0
S11356C0BF91AF919F918F917F916F915F914F9116
S11356D03F912F910F900BBE0F900FBE0F901F9014
S11356E01895FC01411101C000D3842F90E09C0166
S11356F02150310982239323892B09F0F6D24138B2
S113570008F0F3D2128213824483440F415045833C
S11357107183608380E090E008955058BB27AA27E6
S11357200ED021C112D130F017D120F031F49F3FB7
S113573011F41EF407C10EF4E095E7FBFDC0E92F58
S11357400E944B1E78F3BA17620773078407950704
S113575020F079F4A6F50C946D1E0EF4E0950B2E52
S1135760BA2FA02D0B01B90190010C01CA01A001AF
S11357701124FF27591B99F0593F50F4503E68F10A
S11357801A16F040A22F232F342F4427585FF3CF4B
S1135790469537952795A795F0405395C9F77EF41C
S11357A01F16BA0B620B730B840BBAF09150A1F065
S11357B0FF0FBB1F661F771F881FC2F70EC0BA0FEB
S11357C0621F731F841F48F4879577956795B79573
S11357D0F7959E3F08F0B1CF9395880F08F099276D
S11357E0EE0F9795879508950DD0BDC0B5D048F0BC
S11357F0ACD038F021F45F3F21F09EC051110C94DD
S11358006E1EA0C00E944B1E88F39923B9F3552342
S1135810A1F3951B550BBB27AA27621773078407AF
S113582038F09F5F5F4F220F331F441FAA1FA9F355
S113583034D00E2E3AF0E0E831D091505040E69545
S1135840001CCAF72AD0FE2F28D0660F771F881FA6
S1135850BB1F261737074807AB07B0E809F0BB0B97
S1135860802DBF01FF2793585F4F32F09E3F5105B3
S113587070F062C00C946E1E5F3FE4F3983ED4F364
S1135880869577956795B795F7959F5FC9F7880FC4
S1135890911D9695879597F90895E1E0660F771F16
S11358A0881FBB1F621773078407BA0720F0621BA7
S11358B0730B840BBA0BEE1F88F7E0950895E894F8
S11358C009C097FB3EF490958095709561957F4F44
S11358D08F4F9F4F9923A9F0F92F96E9BB279395F2
S11358E0F695879577956795B795F111F8CFFAF402
S11358F0BB0F11F460FF1BC06F5F7F4F8F4F9F4F33
S113590016C0882311F096E911C0772321F09EE890
S1135910872F762F05C0662371F096E8862F70E0F6
S113592060E02AF09A95660F771F881FDAF7880FD0
S11359309695879597F9089597F99F6780E870E0A1
S113594060E008959FEF80EC089500240A941616F1
S1135950170618060906089500240A941216130659
S1135960140605060895092E0394000C11F48823E7
S113597052F0BB0F40F4BF2B11F460FF04C06F5F03
S11359807F4F8F4F9F4F08950CD0EDCFDEDF28F06F
S1135990E3DF18F0952309F0CFCFD4CF11240C9472
S11359A06E1E0E944B1E90F3959FC1F3950F50E01D
S11359B0551F629FF001729FBB27F00DB11D639FBD
S11359C0AA27F00DB11DAA1F649F6627B00DA11D63
S11359D0661F829F2227B00DA11D621F739FB00D09
S11359E0A11D621F839FA00D611D221F749F332779
S11359F0A00D611D231F849F600D211D822F762F12
S1135A006A2F11249F57504092F0E9F088234AF0FE
S1135A10EE0FFF1FBB1F661F771F881F915050405A
S1135A20A9F79E3F510578F087CF0C946E1E5F3F17
S1135A30E4F3983ED4F3869577956795B795F795F3
S1135A40E7959F5FC1F7FE2B880F911D969587956B
S1135A5097F90895A1E21A2EAA1BBB1BFD010DC0E4
S1135A60AA1FBB1FEE1FFF1FA217B307E407F5070A
S1135A7020F0A21BB30BE40BF50B661F771F881FE6
S1135A80991F1A9469F760957095809590959B017C
S1135A90AC01BD01CF010895EE0FFF1F881F8BBF1E
S1135AA00790F691E02D19940F931F93CF93DF93F2
S1135AB08230910510F482E090E0E0910B18F091AF
S1135AC00C1820E030E0A0E0B0E0309719F14081FC
S1135AD051810281138148175907C8F0841795072B
S1135AE069F4109731F012960C93129713961C9345
S1135AF027C000930B1810930C1822C021153105F0
S1135B0019F04217530718F49A01BD01EF01DF01A0
S1135B10F801DBCF21153105F9F0281B390B2430AE
S1135B20310580F48A819B816115710521F0FB01A7
S1135B309383828304C090930C1880930B18FE0106
S1135B40329644C0FE01E20FF31F819391932250D9
S1135B503109398328833AC02091091830910A18F1
S1135B60232B41F4209102023091030230930A184E
S1135B70209309182091000230910102211531056A
S1135B8041F42DB73EB74091040250910502241B05
S1135B90350BE0910918F0910A18E217F307A0F405
S1135BA02E1B3F0B2817390778F0AC014E5F5F4F6F
S1135BB02417350748F04E0F5F1F50930A1840937F
S1135BC009188193919302C0E0E0F0E0CF01DF91E6
S1135BD0CF911F910F910895CF93DF93009709F40C
S1135BE081C0FC01329713821282A0910B18B091EC
S1135BF00C18109781F420813181820F931F20911A
S1135C00091830910A182817390751F5F0930A1822
S1135C10E093091867C0ED0120E030E0CE17DF07FC
S1135C2040F44A815B819E0141155105F1F0EA017E
S1135C30F5CFD383C28340815181840F951FC81748
S1135C40D90759F488819981840F951F029691830D
S1135C5080838A819B81938382832115310529F472
S1135C60F0930C18E0930B183DC0E901FB83EA8321
S1135C7049915991C40FD51FEC17FD0761F4808138
S1135C809181840F951F0296E9019983888382810B
S1135C9093819B838A83E0E0F0E012968D919C913E
S1135CA01397009719F0FD01DC01F7CF8D919C91BA
S1135CB011979D012E5F3F4F820F931F209109186A
S1135CC030910A182817390769F4309729F410928B
S1135CD00C1810920B1802C013821282B0930A1887
S1135CE0A0930918DF91CF91089581E090E0F89492
