:10000000E5C0000004C1000002C1000000C1000002
:10001000FEC00000FCC00000FAC00000F8C00000F4
:10002000F6C00000F4C00000F2C00000F0C0000004
:100030002BC50000ECC00000EAC00000E8C00000D2
:10004000E6C00000E4C00000E2C00000E0C0000024
:10005000DEC00000DCC00000DAC00000D8C0000034
:10006000D6C000000C9485220C94D722D0C000008A
:10007000CEC00000CCC00000CAC00000C8C0000054
:10008000C6C00000C4C00000C2C00000C0C0000064
:100090000C941B230C946D23BAC000000C942427ED
:1000A000B6C00000B4C00000B2C00000B0C0000084
:1000B000AEC00000ACC00000AAC00000A8C0000094
:1000C000A6C00000A4C00000A2C000000C94B12390
:1000D0000C9403249CC000000C9447240C94992495
:1000E00096C000005B195B195B1992199A19AF1938
:1000F0005B195B1992199A194627B627B627B627B6
:10010000B627B627B627B6274627B627B627B62777
:10011000B627B627B627B6274827B627B627B62765
:10012000B627B627B627B627B627B627B627B627E7
:10013000B627B627B627B6274827B627B627B62745
:10014000B627B627B627B627B627B627B627B627C7
:10015000B627B627B627B627B227B627B627B627BB
:10016000B627B627B627B6277D27B627B627B627E0
:10017000B627B627B627B627B627B627B627B62797
:10018000B627B627B627B6277127B627B627B627CC
:10019000B627B627B627B62795270E949D0C8091D3
:1001A0000115823008F0AAD30E94D819F6CFCF9358
:1001B000DF931F92CDB7DEB7CE0101960E94D8160D
:1001C00049810E94CD180E942419F6CF11241FBE28
:1001D000CFEFD1E2DEBFCDBF00E00CBF16E0A0E064
:1001E000B2E0E0EDFCE500E00BBF02C007900D922D
:1001F000A43FB107D9F726E1A4EFB6E001C01D92F4
:10020000A83FB207E1F70E94121B0C94662EF8CEAD
:100210000F9301110CC0DC01CB0182239323A42393
:10022000B523892B8A2B8B2B79F480E010C0DC015D
:10023000CB0182239323A423B523281739074A0728
:100240005B0721F080E003C081E001C081E00F91F5
:1002500008952F923F924F925F926F927F928F926A
:100260009F92AF92BF92CF92DF92EF92FF920F9345
:100270001F93CF93DF93EC014A015B01622E702E36
:100280000E94E80D288039804A805B80A501940196
:10029000C201B101BDDF8823A1F0662089F1D5013B
:1002A000C40180959095A095B09582219321A421B9
:1002B000B52188839983AA83BB83C12CD12C760175
:1002C00022C0C114D104E104F104E9F0611004C0BA
:1002D00040E050E0BA0104C040E050E060E071E06E
:1002E00071107460482959296A297B299701860170
:1002F000CE0104960E940011212C312C210103C053
:10030000C12CD12C76010E94280FCD28CE28CF28D1
:1003100059F1811101C0F2D20E94D4136B017C010A
:1003200091FD1FC00FB6F8940F92C880D980EA8063
:10033000FB80072DA5019401C701B60169DF882361
:1003400071F0662061F080949094A094B0948C2019
:100350009D20AE20BF2088829982AA82BB820F9006
:100360000FBE160127015524C201B101DF91CF91C3
:100370001F910F91FF90EF90DF90CF90BF90AF90C3
:100380009F908F907F906F905F904F903F902F90B5
:1003900008954F925F926F927F92AF92BF92CF92E9
:1003A000DF92EF92FF920F931F93CF93DF93EC01B5
:1003B0006A017B018C01095F1F4F0E94E80DEB85EC
:1003C000FC8588819981AA81BB81C82AD92AEA2A19
:1003D000FB2AC882D982EA82FB82C12CD12C760109
:1003E0003DC0A480B58080819181A281B381AC01A0
:1003F000BD017727B2FD0EC0488059806A807B809E
:10040000442255226622772245284628472889F427
:1004100020E012C0488059806A807B8044225522A7
:1004200066227722441555056605770521F020E000
:1004300003C021E001C021E0222371F0B0FF04C01D
:10044000C42AD52AE62AF72A488159816A817B8104
:100450007260CF010E943B12EA2DFB2DE017F107DD
:1004600009F0BFCFC094D094E094F0948881998132
:10047000AA81BB81C822D922EA22FB22C882D98262
:10048000EA82FB820E94280F688179818A819B81A0
:10049000DF91CF911F910F91FF90EF90DF90CF9060
:1004A000BF90AF907F906F905F904F900895E0E085
:1004B000F7E0A4E0B7E0B183A08313821282ECEAF4
:1004C000F4E1F093FF06E093FE061382128211829C
:1004D000108288EA9DE013969C938E931297ED9379
:1004E000FC939093FB068093FA069093FD0680930D
:1004F000FC0680E090E89093F5068093F40608955A
:10050000CF93DF93EC01A0E0B7E001C0DF01ED91F4
:10051000FC911197EC17FD07C8F312968D919C91F1
:1005200013979D01280F391FC217D30749F42A8159
:100530003B81820F931F13969C938E931297ED012C
:100540008A819B819E01280F391FE217F307C1F4AE
:100550002091FE063091FF06E217F30771F0228129
:100560003381820F931F9B838A83ED91FC911197B6
:10057000808191819983888305C03983288302C053
:10058000F983E883CA17DB0711F0CD93DC93DF9181
:10059000CF910895EF92FF920F931F93CF93DF9324
:1005A0008C010E94E80D8091FE069091FF06892B38
:1005B00009F47DDF8091F4069091F5068023912364
:1005C000892B09F076C00115110549F0C801049680
:1005D0000817190718F000E010E001C08C010115A0
:1005E000110509F469C08091FC069091FD06801701
:1005F000910708F464C0C0910007D0910107E0E0C2
:10060000F7E002C0FE01EC018A819B81801791070F
:1006100020F4888199810097A9F78091FE06909136
:10062000FF06C817D90709F44DC0E080F18084E0C7
:10063000E80EF11C88819981918380832A813B8116
:10064000201B310B2930310548F0CE01800F911F5E
:10065000FC01338322831B830A8352DF2A813B817F
:100660008091FC069091FD06821B930B9093FD06F2
:100670008093FC064091FA065091FB06841795077B
:1006800020F49093FB068093FA068091F4069091F3
:10069000F506282B392B3B832A83198218828091F7
:1006A000F8069091F90601969093F9068093F80662
:1006B0000BC0E12CF12C08C0E12CF12C05C0E12C81
:1006C000F12C02C0E12CF12C0E94280FE114F1045E
:1006D00011F40E94E419C701DF91CF911F910F918E
:1006E000FF90EF9008950F931F93CF93DF930097A0
:1006F00091F1EC0124974A815B812091F4063091BD
:10070000F506BA0162237323672B29F16881798189
:10071000672B09F520953095242335233B832A83C5
:100720000E94E80D8A819B812091FC063091FD0694
:10073000820F931F9093FD068093FC06CE01E0DEAE
:100740008091F6069091F70601969093F7068093B4
:10075000F6060E94280FDF91CF911F910F91089507
:10076000FC010396928381834FEF5FEFBA014383CD
:1007700054836583768390878783928781871082ED
:100780000895FC011386128608950F931F93CF934B
:10079000DF93EB01088119812A813B810F3F4FEFE5
:1007A00014072407340721F4FC01A185B28511C088
:1007B000DC01139601C0DF011496ED91FC911597B1
:1007C000408151816281738104171507260737071D
:1007D00090F71496ED91FC911597FD83EC83D783E8
:1007E000C683BF83AE831596DC93CE9314979B8705
:1007F0008A87FC0120812F5F2083DF91CF911F9199
:100800000F910895CF93DF93FC01A285B385C48136
:10081000D581868197819F838E83C681D78184818C
:1008200095819D838C8311968D919C911297E817E9
:10083000F90731F48681978112969C938E931197D4
:10084000138612868C9181508C938C91DF91CF917D
:100850000895A89590EC88E10FB6F894A895809338
:1008600060000FBE909360000895FC016083319793
:1008700070833197108231971082319720E820835E
:100880003197108231971082319710827797408389
:100890003197508386970895DCDFA0916F15B09152
:1008A0007015CD91CDBFDD91DEBFFF91EF91DF914E
:1008B000CF91BF91AF919F918F917F916F915F91F8
:1008C0004F913F912F911F910F91FF90EF90DF90EB
:1008D000CF90BF90AF909F908F907F906F905F90E0
:1008E0004F903F902F901F900F900CBE0F900BBE1B
:1008F0000F900FBE0F90089581E008950F920FB6EC
:10090000F8940F920BB60F920CB60F921F9211240F
:100910002F923F924F925F926F927F928F929F920F
:10092000AF92BF92CF92DF92EF92FF920F931F93FD
:100930002F933F934F935F936F937F938F939F93E7
:10094000AF93BF93CF93DF93EF93FF93A0916F1576
:10095000B09170150DB60D920EB60D920E948410D6
:10096000A0916F15B0917015CD91CDBFDD91DEBF17
:10097000FF91EF91DF91CF91BF91AF919F918F91B7
:100980007F916F915F914F913F912F911F910F91A7
:10099000FF90EF90DF90CF90BF90AF909F908F909F
:1009A0007F906F905F904F903F902F901F900F908F
:1009B0000CBE0F900BBE0F900FBE0F9008950F92BC
:1009C0000FB6F8940F920BB60F920CB60F921F92BF
:1009D00011242F923F924F925F926F927F928F924B
:1009E0009F92AF92BF92CF92DF92EF92FF920F93BE
:1009F0001F932F933F934F935F936F937F938F93A7
:100A00009F93AF93BF93CF93DF93EF93FF93A09107
:100A10006F15B09170150DB60D920EB60D9213BEF6
:100A20000E94FC0D81110E948410A0916F15B0915D
:100A30007015CD91CDBFDD91DEBFFF91EF91DF91BC
:100A4000CF91BF91AF919F918F917F916F915F9166
:100A50004F913F912F911F910F91FF90EF90DF9059
:100A6000CF90BF90AF909F908F907F906F905F904E
:100A70004F903F902F901F900F900CBE0F900BBE89
:100A80000F900FBE0F9008959ADF18950FB6F89447
:100A90000F92FC01868D811102C081E001C080E0CF
:100AA0000F900FBE08950FB6F8940F92FC01268D9B
:100AB000878D281302C081E001C080E00F900FBE37
:100AC00008950F931F93CF93DF93EC01042F1E8D96
:100AD00048A141110CC088819981892B09F042C03D
:100AE0008C819D810E9479131D821C8242C001115C
:100AF00017C050E08A819B810E94E92A28A18A813F
:100B00009B81820F911D9B838A832C813D8182175B
:100B1000930750F1888199819B838A8380E029C063
:100B200050E08E819F810E94E92A88A190E09195F2
:100B3000819591092E813F81280F391F3F832E8394
:100B4000488159812417350730F42C813D81820F6B
:100B5000931F9F838E83023049F4112349F0115073
:100B600080E007C080E005C080E003C080E001C0F5
:100B700080E01F5F1E8FDF91CF911F910F9108952D
:100B8000FC0140A14423A9F050E026813781240FC5
:100B9000351F37832683848195812817390720F0F4
:100BA0008081918197838683CB01668177810C94C4
:100BB000E92A08951F93CF93DF93EC010FB6F894C1
:100BC0000F921AA10BC08B89882351F0CE01439656
:100BD0000E948C1181110E946213115011169CF316
:100BE0008FEF8AA30F900FBE0FB6F8940F9219A142
:100BF0000BC08885882351F0CE0108960E948C1185
:100C000081110E946213115011169CF38FEF89A37A
:100C10000F900FBEDF91CF911F910895CF93DF9377
:100C2000EC010FB6F8940F92E881F9818F8D28A11D
:100C300090E030E0829FA001839F500D929F500D65
:100C400011244E0F5F1F5D834C831E8EFB83EA834E
:100C50000197289FA001299F500D389F500D112406
:100C6000CF01840F951F9F838E838FEF89A38AA363
:100C700061110BC08885882371F0CE0108960E940F
:100C80008C11882341F03ADE06C0CE01089668DD5B
:100C9000CE01439665DD0F900FBE81E0DF91CF91CD
:100CA00008950F931F93F801611103C0118300830E
:100CB00002C051834083878F60A361E0CF01AEDF24
:100CC0001F910F910895DF92EF92FF920F931F9360
:100CD000CF93DF93F82EE62ED42E869FC0011124E9
:100CE000839658DCEC01009741F08C012D2DAC016E
:100CF0004D5D5F4F6E2D8F2DD4DFCE01DF91CF91F3
:100D00001F910F91FF90EF90DF900895CF92DF92A7
:100D1000EF92FF920F931F93CF93DF93CDB7DEB780
:100D200029970FB6F894DEBF0FBECDBF7C016B01D3
:100D30002E833F834887598710E00FB6F8940F92AF
:100D4000F701968D878D981710F00230B1F4402F7F
:100D5000B601C701B6DEF7019389992341F0C701B7
:100D600043960E948C11882321F0C8DD02C08111B6
:100D7000C5DD0F900FBE81E04CC08E819F81A8859C
:100D8000B985892B8A2B8B2B21F40F900FBE80E025
:100D900040C0111105C0CE0101960E94EB1211E076
:100DA0000F900FBE15D70FB6F8940F92F70181A1DF
:100DB0008F3F09F411A2F70182A18F3F09F412A21B
:100DC0000F900FBEBE016A5F7F4FCE0101960E9459
:100DD000FC12811119C0C70166DE882381F04E81A3
:100DE0005F8168857985C70108960E94E910C7016F
:100DF000E1DE0E94280F8111A0CF80DD9ECFC701C8
:100E0000D9DE0E94280F99CFC701D4DE0E94280F97
:100E100080E029960FB6F894DEBF0FBECDBFDF91FC
:100E2000CF911F910F91FF90EF90DF90CF90089599
:100E30000F93009769F0FC011582148211821082D1
:100E4000168200E020E030E0A90160E070E05EDFA3
:100E50000F910895CF93DF93482F60E081E033DF57
:100E6000EC01E6DFCE01DF91CF910895EF92FF9282
:100E70000F931F93CF93DF938A01FC01568D378D1B
:100E8000531710F02230F9F4422F7801EC011AA127
:100E90008E8DCE0116DE1F3F81F48B898823A9F049
:100EA000CE0143960E948C11882389F0E114F1044D
:100EB00081F081E0F70180830DC0FF24F394F10EEF
:100EC000FAA281E007C080E005C081E003C081E0B4
:100ED00001C081E0DF91CF911F910F91FF90EF90C2
:100EE0000895CF92DF92EF92FF920F931F93CF93CB
:100EF000DF93CDB7DEB729970FB6F894DEBF0FBEEC
:100F0000CDBF8C016B012E833F8348875987E12C2D
:100F10000FB6F8940F92F801F68CFF2099F0B60105
:100F2000C8012EDEFA94F801F68E8085882331F010
:100F3000C80108960E948C118111E0DC0F900FBE51
:100F400081E04FC08E819F81A885B985892B8A2B2E
:100F50008B2B21F40F900FBE80E043C0E11006C040
:100F6000CE0101960E94EB12EE24E3940F900FBE87
:100F70002FD60FB6F8940F92F80181A18F3F09F494
:100F800011A2F80182A18F3F09F412A20F900FBEA7
:100F9000BE016A5F7F4FCE0101960E94FC12811153
:100FA00017C0C80173DD882379F04E815F816885A1
:100FB0007985C80143960E94E910C801FBDD48D736
:100FC0008111A6CF9BDCA4CFC801F4DD41D7A0CF0F
:100FD000C801F0DD3DD7C80159DD882309F498CF59
:100FE00080E029960FB6F894DEBF0FBECDBFDF912B
:100FF000CF911F910F91FF90EF90DF90CF900895C8
:10100000CF93DF93EC010FB6F8940F9289A18F3F35
:1010100009F419A28AA18F3F09F41AA20F900FBEFA
:101020008E8D811104C0CE0143960E944A11CE01DB
:10103000C1DDDF91CF910895FC014481558122816A
:101040003381240F351F80819181B901681B790B91
:10105000CB016417750710F0841B950B08950F934F
:10106000FC018FE0DF011D928A95E9F7758764879F
:10107000558344833783268306870F910895AF9263
:10108000BF92CF92DF92EF92FF920F931F93CF9375
:10109000DF936C015B017A01FC01C281D381048181
:1010A00015810C1B1D0B4017510708F48A01F6012E
:1010B00084859585A801B5018C0F9D1F0E94E92AA2
:1010C0000E151F0558F4A701401B510BB501600F09
:1010D000711FF601848595850E94E92ACE018E0D47
:1010E0009F1DF601248135818217930710F0821B22
:1010F000930BF60193838283C701DF91CF911F91F8
:101100000F91FF90EF90DF90CF90BF90AF90089538
:10111000CF92DF92EF92FF920F931F93CF93DF93C3
:101120001F921F92CDB7DEB77C016B015A834983B2
:1011300021153105C1F0FC01868580FD08C04217EC
:10114000530708F49A013A83298381E00FC02017DE
:10115000310758F042E050E0BE016F5F7F4FC7019A
:101160008EDF81E003C080E001C080E0882331F0A1
:1011700049815A81B601C70182DF02C080E090E058
:101180000F900F90DF91CF911F910F91FF90EF90F3
:10119000DF90CF900895AF92BF92CF92DF92EF92FF
:1011A000FF920F931F93CF93DF937C015B01E901C3
:1011B0004217530708F4EA01209781F1F7010081F3
:1011C000118184819581801B910B6E018C179D0785
:1011D00008F46C01F70164857585600F711FA60125
:1011E000C5010E94E92ACC16DD0658F4AE014C195F
:1011F0005D09F70164857585C5018C0D9D1D0E94F3
:10120000E92A0C0F1D1FF701848195810817190722
:1012100010F0081B190BF70111830083CE01DF9139
:10122000CF911F910F91FF90EF90DF90CF90BF90E3
:10123000AF9008956F927F928F929F92AF92BF92DC
:10124000CF92DF92EF92FF920F931F93CF93DF9392
:101250001F921F92CDB7DEB76C014B015A01790185
:1012600001151105B1F0FC0160807180A801BE017B
:101270006F5F7F4F90DF89819A81E01AF10AA8168B
:10128000B90630F4F60171826082A12CB12C01C044
:101290005C019701A501B401C6017DDF0F900F909D
:1012A000DF91CF911F910F91FF90EF90DF90CF9042
:1012B000BF90AF909F908F907F906F900895CF9246
:1012C000DF92EF92FF920F93CF93DF93EC016B01CC
:1012D000413011F401E001C000E0C114D10419F45F
:1012E000CC24C394D12CCE014096C817D90720F442
:1012F000219650D97C0102C0E12CF12CE114F104BB
:1013000039F09601AE01B701615F7F4FC701A7DEDB
:10131000C701DF91CF910F91FF90EF90DF90CF90B9
:1013200008950F930FB6F8940F92FC012085318534
:10133000232B71F422853385232B61F42681378199
:101340004481558164857585068589DE81E003C009
:1013500080E001C080E00F900FBE0F910895FC0166
:101360002481358180819181820F931F4281538135
:10137000841B950B01978217930710F0821B930B28
:1013800008952F923F924F925F926F927F928F9229
:101390009F92AF92BF92CF92DF92EF92FF920F9304
:1013A0001F93CF93DF93CDB7DEB72B970FB6F8948B
:1013B000DEBF0FBECDBF4C017B876A871A010E834B
:1013C0001F8328873987FC018481958101972685B1
:1013D00020FF0CC02A01F2E04F0E511C8415950528
:1013E00058F41E821F821886198606C08417950736
:1013F00010F02A0101C02C018E819F81A885B9853A
:10140000892B8A2B8B2B09F438C0CE0101960E94C0
:10141000D5120FB6F8940F92C401A1DF3C018415D8
:10142000950540F560E080E090E00E94BE160E94C5
:101430006613F401938782870F900FBEAE80BF8042
:10144000C884D984E12CF12C00E010E0980140E040
:1014500050E0BA0180E00E94FE13F4011386128668
:10146000BE016A5F7F4FCE0101960E94FC12882365
:1014700081F205C00F900FBE02C0612C712C611467
:10148000710419F4C4016BDF3C0182019301A101D5
:101490006A857B85C4013CDE6C01892BE9F0C401BF
:1014A000CBDDF4012681378182179307A8F090D312
:1014B000F40180859185892B71F080859185E12CDF
:1014C000F12C00E020E030E0A90160E00E94A514CA
:1014D000F40111861086BCD4C6012B960FB6F89481
:1014E000DEBF0FBECDBFDF91CF911F910F91FF9057
:1014F000EF90DF90CF90BF90AF909F908F907F90B4
:101500006F905F904F903F902F900895AF92BF9251
:10151000CF92DF92EF92FF920F931F93CF93DF93BF
:10152000EC017B015A0169018E8580FF04C08A01AC
:101530000E5F1F4F01C08A01CE0111DF9C01A50182
:10154000B701CE01E5DD5C01892BC1F0CE0174DD70
:101550002E813F818217930788F088859985892B92
:1015600069F088859985E12CF12C00E020E030E0DD
:10157000A90160E00E949C1519861886C501DF91BB
:10158000CF911F910F91FF90EF90DF90CF90BF9080
:10159000AF9008954F925F926F927F928F929F9239
:1015A000AF92BF92CF92DF92EF92FF920F931F9371
:1015B000CF93DF93EC012B013A01580169018E852D
:1015C00080FF05C06894882481F8912C02C0812C8A
:1015D000912CA114B104C104D10441F10FB6F894C7
:1015E0000F92CE0129DD7C018816990648F060E053
:1015F00080E090E00E94BE160E946613998788875B
:101600000F900FBE8E149F04A0F0E12CF12C00E08F
:1016100010E0980140E050E0BA0180E00E94FE1323
:1016200019861886CE0108DD7C0103C0CE0104DDD9
:101630007C018E149F04E8F484019701A301B20198
:10164000CE01F8DD6C01892BB1F0C2D28A859B8571
:10165000892B69F08A859B85E12CF12C00E020E044
:1016600030E0A90160E00E94A5141B861A86F0D321
:1016700002C0C12CD12CC601DF91CF911F910F91D7
:10168000FF90EF90DF90CF90BF90AF909F908F90A2
:101690007F906F905F904F900895E091E914F091E2
:1016A000EA14808181110CC08FEF9FEFDC018093E1
:1016B000B3149093B414A093B514B093B6140895D2
:1016C000E091E914F091EA140780F085E02D808123
:1016D0009181A281B3818093B3149093B414A093A9
:1016E000B514B093B6140895CF93DF93EC018B8DAE
:1016F0009C8D0E947303CE010E947303DF91CF91F2
:1017000008954F925F926F927F928F929F92AF92C5
:10171000BF92CF92DF92EF92FF920F93CF93DF931E
:101720002C015B014A013901E60165EA70E08B8D0D
:101730009C8D0E94F22A8B8D9C8D21E0821A91084B
:10174000880E991EA114B10489F415C0822F90E06F
:10175000F501E80FF91F3081DE01A80FB91F5D9672
:101760003C938081882329F02F5F01C020E0203145
:1017700068F31CA601C01D8E0A3008F009E00A8F2C
:101780000DA71EA6CE0102960E94C103CE010E96A1
:101790000E94C103DB87CA878AE090E0A0E0B0E046
:1017A000801B9109A109B1098E879F87A88BB98BEE
:1017B000DF8BCE8B84E0FE01BF96DF011D928A9500
:1017C000E9F71BAAA301B201C4014FD8998388830A
:1017D000E114F10419F0F701D183C083DF91CF91B7
:1017E0000F91FF90EF90DF90CF90BF90AF909F90C0
:1017F0008F907F906F905F904F900895CF93C0E04F
:1018000009C02BE0C29FC00111248F5F9A4E0E9435
:10181000B003CF5FCA30A8F386EF94E10E94B00313
:101820008BEE94E10E94B0038CED94E10E94B00332
:1018300081ED94E10E94B00385EC94E10E94B00335
:1018400086EF94E19093EA148093E9148BEE94E18F
:101850009093E8148093E714CF910895CF93DF938A
:10186000EC010FB6F8940F928091C4148F5F8093AF
:10187000C41480916F1590917015892B51F4D093F9
:101880007015C0936F158091C414813091F4B6DF48
:1018900010C08091BE1481110CC0E0916F15F091C1
:1018A0007015928D8A8D891720F0D0937015C09392
:1018B0006F158091B7148F5F8093B714EA8D809174
:1018C000BF148E1710F4E093BF148BE08E9FF001CD
:1018D0001124EF5FFA4E0180F281E02DFF83EE8349
:1018E0002681378139872887A681B7819E012E5F9F
:1018F0003F4F15963C932E93149737832683EA8D9A
:101900008E9FF0011124EF5FFA4EFD87EC878081F6
:101910008F5F80830F900FBE8091BE14882351F09B
:10192000E0916F15F0917015928D8A8D981710F4D3
:101930000E947E04DF91CF910895CF93DF931BC067
:101940000FB6F8940F92E091D814F091D914C08595
:10195000D185CE0102960E9402048091C414815068
:101960008093C4148091D01481508093D0140F9030
:101970000FBECE01B9DE8091D0148111E1CFDF918D
:10198000CF9108958F929F92AF92BF92CF92DF92A4
:10199000EF92FF92CF93DF936B017C01C42F809075
:1019A000C0149090C114A090C214B090C314809140
:1019B0006F159091701502960E9402048FEFC81661
:1019C000D806E806F806B1F5CC23A1F1E5ECF4E180
:1019D000A181B281C0916F15D0917015BF83AE8384
:1019E000C0916F15D091701516968D919C91179797
:1019F000998788871696CD91DC91179780916F15FE
:101A00009091701502969D838C8380916F159091B3
:101A10007015029617969C938E931697A0916F154A
:101A2000B09170151D96FC93EE931C9780818F5F8B
:101A300080833FC0C80CD91CEA1CFB1CE0916F15C9
:101A4000F0917015C282D382E482F582C814D90461
:101A5000EA04FB0468F460916F1570917015809131
:101A6000E7149091E8146E5F7F4F0E94C50321C078
:101A700060916F15709170158091E9149091EA143E
:101A80006E5F7F4F0E94C5038091B3149091B41490
:101A9000A091B514B091B614C816D906EA06FB0693
:101AA00040F4C092B314D092B414E092B514F09202
:101AB000B614DF91CF91FF90EF90DF90CF90BF9061
:101AC000AF909F908F9008952F923F924F925F9288
:101AD0006F927F928F929F92AF92BF92CF92DF923E
:101AE000EF92FF920F93CF93DF933C011B014A01CA
:101AF0002901CA010E94CA026C01892B71F084E39A
:101B000090E00E94CA02EC01892B19F0DC8ECB8E8A
:101B100006C0C6010E94730302C0C0E0D0E0209757
:101B200061F0A12CB12C6E019201A401B101C3019D
:101B3000E8DDCE0193DE81E001C08FEFDF91CF9130
:101B40000F91FF90EF90DF90CF90BF90AF909F905C
:101B50008F907F906F905F904F903F902F9008955F
:101B6000EF92FF920F930F2EF1EBEF2EF4E1FF2E89
:101B7000F02D00E020E030E040EC50E062E472E064
:101B80008DEC90E0A1DF813011F40E94621781306A
:101B9000C9F4F8948FEF9FEFDC018093B314909316
:101BA000B414A093B514B093B61481E08093BE141E
:101BB0001092C0141092C1141092C2141092C31447
:101BC0000E944C04809106020F91FF90EF900895BF
:101BD0008091B0148F5F8093B01408950FB6F8947D
:101BE0000F926091C0147091C1148091C2149091B1
:101BF000C3140F900FBE0895CF92DF92EF92FF9221
:101C0000CF93DF938091B014811105C1C090C014AF
:101C1000D090C114E090C214F090C3148FEFC81A92
:101C2000D80AE80AF80AC092C014D092C114E0920F
:101C3000C214F092C314C114D104E104F104B1F44C
:101C40008091E9149091EA142091E7143091E814FE
:101C50003093EA142093E9149093E8148093E714E6
:101C60008091B8148F5F8093B81417DD8091B314FE
:101C70009091B414A091B514B091B614C816D906B9
:101C8000EA06FB0620F480E0B2C081E001C080E0FB
:101C9000E091E914F091EA14908191110CC04FEF9A
:101CA0005FEFBA014093B3145093B4146093B5142A
:101CB0007093B6149CC0E091E914F091EA14078087
:101CC000F085E02D0084F185E02D4281538164810F
:101CD0007581C416D506E606F70648F44093B3149A
:101CE0005093B4146093B5147093B61480C0A48557
:101CF000B585C681D781208531853F832E83C085F8
:101D0000D185268137813D832C8311964D915C913D
:101D100012979F012E5F3F4F4217530731F44085C2
:101D2000518512965C934E931197158614869C915B
:101D300091509C93A08DB18D109709F1C289D389E0
:101D4000448955895F834E83C489D58942895389E3
:101D50005D834C8311966D917C911297AF01425F28
:101D60005F4F6417750731F44489558912965C9367
:101D70004E931197118E108E9C9191509C93A28D31
:101D80009091BF149A1710F4A093BF149BE09A9FF0
:101D9000D0011124AF5FBA4E11960D90BC91A02DC9
:101DA000B783A68316964D915C911797518740870C
:101DB0001696CD91DC9117973D832C8317963C9313
:101DC0002E931697A28D9A9FD0011124AF5FBA4E21
:101DD000B587A4879C919F5F9C93228DE0916F159E
:101DE000F0917015928D291708F04FCF51CFE091E7
:101DF0006F15F0917015E28D9BE0E99FF0011124C1
:101E0000EF5FFA4E9081923008F081E09091B91422
:101E1000911116C016C08091BA149091BB14A09174
:101E2000BC14B091BD140196A11DB11D8093BA14CC
:101E30009093BB14A093BC14B093BD1480E001C078
:101E400081E0DF91CF91FF90EF90DF90CF900895E8
:101E5000CF92DF92EF92FF92CF93DF930FB6F89479
:101E60000F928091B01481508093B0148091B0147F
:101E70008111BEC08091C414811188C0BCC0E091A2
:101E8000E314F091E4140084F185E02DA08DB18D70
:101E9000C289D389848995899F838E83C489D58992
:101EA000828993899D838C8311962D913C91129701
:101EB000CF010E962817390731F484899589129637
:101EC0009C938E931197118E108E8C9181508C93D0
:101ED000A485B585C681D781808591859F838E83B2
:101EE000C085D185868197819D838C8311968D9144
:101EF0009C9112979F012E5F3F4F8217930731F4F9
:101F00008085918512969C938E93119715861486E1
:101F10008C9181508C93A28D8091BF148A1710F4FC
:101F2000A093BF148BE08A9FD0011124AF5FBA4EFB
:101F300011960D90BC91A02DB783A68316964D9156
:101F40005C911797518740871696CD91DC91179732
:101F50003D832C8317963C932E931697A28D8A9FD0
:101F6000D0011124AF5FBA4EB587A4878C918F5FE3
:101F70008C93928DA0916F15B09170155A968C919B
:101F8000981730F081E08093B91402C0E0E0F0E0EF
:101F90008091DC14811173CFEF2B09F07EDBC090B0
:101FA000BA14D090BB14E090BC14F090BD14C114CE
:101FB000D104E104F104A1F01FDE882319F081E0CF
:101FC0008093B91481E0C81AD108E108F108A1F79B
:101FD0001092BA141092BB141092BC141092BD143B
:101FE0008091B914882331F00E947E0481E003C0FF
:101FF00080E001C080E00F900FBEDF91CF91FF9095
:10200000EF90DF90CF9008958F929F92AF92BF9202
:10201000CF92DF92EF92FF921F93CF93DF93EC0169
:102020006A017B01D5DD8090C0149090C114A0900E
:10203000C214B090C31488819981AA81BB81AC017C
:10204000BD014C0D5D1D6E1D7F1D88169906AA06EB
:10205000BB0660F4481759076A077B0798F4841693
:102060009506A606B70680F010E013C0481759077A
:102070006A077B0758F084169506A606B70640F057
:1020800010E007C010E005C011E003C011E001C07E
:1020900011E0488359836A837B83112341F0CB018C
:1020A000BA01681979098A099B0940E06BDCD0DE26
:1020B000811102C00E947E04812FDF91CF911F9178
:1020C000FF90EF90DF90CF90BF90AF909F908F9058
:1020D0000895CF92DF92EF92FF926B017C01672B04
:1020E000682B692B39F074DD40E0C701B6014ADC8A
:1020F000AFDE01C080E0811102C00E947E04FF902B
:10210000EF90DF90CF9008958091B014882321F054
:1021100081E08093B91408951092B914E0916F157D
:10212000F091701520813181E0916F15F09170155B
:10213000838D948D8217930760F060916F15709175
:102140007015635E7F4F80916F15909170150E949E
:10215000F0198091BF1401C08150282F30E09BE01E
:10216000929FF001939FF00D1124EF5FFA4E908142
:10217000992391F39BE0929FA001939F500D11240E
:10218000DF010180F281E02D0480F581E02D1296BF
:10219000FC93EE9311974C5F5A4EE417F50729F420
:1021A00044815581FD01528341839BE0929FF00160
:1021B000939FF00D1124EF5FFA4E0180F281E02D24
:1021C000208531853093701520936F158093BF144F
:1021D0000895CF92DF92EF92FF926A017B016091A6
:1021E0006F1570917015625F7F4F0E94C50341E0CB
:1021F000C701B601C7DBFF90EF90DF90CF90089545
:102200000F931F93CF93DF93FC01A0916F15B091B3
:10221000701570681E964D935D936D937C935197E6
:10222000A181B281C0916F15D0917015BB8BAA8B23
:10223000C0916F15D091701516968D919C9117973E
:102240009D8B8C8B1696CD91DC91179780916F1595
:10225000909170150E969D838C8380916F1590914F
:1022600070150E9617969C938E931697A0916F15E6
:10227000B09170155996FC93EE93589780818F5FBB
:10228000808341E0C901B8017DDBDF91CF911F91CF
:102290000F910895CF93DF93FC01CB01BA01A18187
:1022A000B281C0916F15D0917015BB8BAA8BC09174
:1022B0006F15D091701516964D915C9117975D8BA7
:1022C0004C8B1696CD91DC91179740916F155091DC
:1022D0007015425F5F4F5D834C8340916F15509145
:1022E0007015425F5F4F17965C934E931697A091BF
:1022F0006F15B09170155996FC93EE9358973081F5
:102300003F5F3083222319F06FEF7FEFCB01422F25
:1023100039DBDF91CF910895CF93DF93DC011796DE
:10232000ED91FC9118970084F185E02DA08DB18D81
:10233000C289D389848995899F838E83C489D589ED
:10234000828993899D838C8311968D919C9112979C
:102350009F01225F3F4F8217930731F4848995894B
:1023600012969C938E931197118E108E8C918150A2
:102370008C938091B014811152C0A485B585C6811B
:10238000D781808591859F838E83C085D185868105
:1023900097819D838C8311968D919C9112979F01BB
:1023A0002E5F3F4F8217930731F4808591851296F7
:1023B0009C938E931197158614868C9181508C93E3
:1023C000A28D8091BF148A1710F4A093BF148BE0E4
:1023D0008A9FD0011124AF5FBA4E11960D90BC9127
:1023E000A02DB783A68316964D915C9117975187C0
:1023F00040871696CD91DC9117973D832C831796D5
:102400003C932E931697A28D8A9FD0011124AF5F23
:10241000BA4EB587A4878C918F5F8C931CC04CED0E
:1024200054E1DA011196CD91DC911297D38BC28BD6
:102430008E819F81958B848B8E819F81DC01159687
:102440003C932E9314973F832E83518F408FDA0154
:102450008C918F5F8C93928DE0916F15F091701538
:10246000828D891720F481E08093B91401C080E047
:10247000DF91CF910895CF93DF93DC0170684D9386
:102480005D936D937C9313971896ED91FC9119973A
:102490001A964D915C911B9714968D919C9115976E
:1024A00016962D913C911797EC013F832E8316963B
:1024B0008D919C91179714962D913C911597EC0155
:1024C0003D832C83EA0189819A81A817B90731F4E9
:1024D00016968D919C9117979A8389831B961C92CF
:1024E0001E921A97DA018C9181508C93A485B58540
:1024F000C681D781808591859F838E83C085D18554
:10250000868197819D838C8311968D919C911297E2
:102510009F012E5F3F4F8217930731F4808591858D
:1025200012969C938E931197158614868C918150E8
:102530008C93A28D8091BF148A1710F4A093BF14BE
:102540008BE08A9FD0011124AF5FBA4E11960D9097
:10255000BC91A02DB783A68316964D915C911797D9
:10256000518740871696CD91DC9117973D832C8338
:1025700017963C932E931697A28D8A9FD001112413
:10258000AF5FBA4EB587A4878C918F5F8C93928D85
:10259000E0916F15F0917015828D891718F481E024
:1025A0008093B914DF91CF9108950FB6F8940F92EC
:1025B0002091B814FC0120834091C0145091C114A3
:1025C0006091C2147091C3144183528363837483F6
:1025D0000F900FBE08952091B814FC012083409104
:1025E000C0145091C1146091C2147091C3144183FE
:1025F00052836383748308958F929F92AF92BF92A8
:10260000CF92DF92EF92FF920F931F93CF93DF93BE
:10261000FB010FB6F8940F92C090C014D090C11473
:10262000E090C214F090C314DC0111960D911D913D
:102630002D913C91149746015701801A910AA20AE4
:10264000B30A40815181628173814F3FBFEF5B07C5
:102650006B077B0739F1EC01B881A091B814BA1768
:1026600059F0C016D106E206F30630F0108211824E
:102670001282138281E017C084169506A606B7065B
:1026800058F4481959096A097B09408351836283C8
:102690007383A1DF80E007C010821182128213824F
:1026A00081E001C080E00F900FBEDF91CF911F91BC
:1026B0000F91FF90EF90DF90CF90BF90AF909F90E1
:1026C0008F90089581E08093B914089580916F15DB
:1026D0009091701508958091BE14882331F08091F7
:1026E000B014811104C082E0089581E0089580E073
:1026F00008950F931F93CF93DF93FC01892B09F467
:1027000049C086A5815086A7228D95A5291709F471
:1027100043C0811143C0EF018F010E5F1F4FC801FD
:102720000E940204EDA5EA8F8AE090E0A0E0B0E00C
:102730008E1B9109A109B1098E879F87A88BB98B40
:102740008091BF148E1710F4E093BF148BE08E9F1E
:10275000F0011124EF5FFA4E0180F281E02DFF833A
:10276000EE832681378139872887A681B781159620
:102770001C930E93149717830683EA8D8E9FF001A6
:102780001124EF5FFA4EFD87EC8780818F5F808395
:1027900081E005C080E003C080E001C080E0DF91FF
:1027A000CF911F910F910895CF92DF92EF92FF92F8
:1027B000E0916F15F0917015668577858089918914
:1027C000E0916F15F0917015A0916F15B091701593
:1027D0005A962C910F2EFAE0CF2ED12CE12CF12C11
:1027E000F02DC21AD108E108F108C686D786E08A22
:1027F000F18AFF90EF90DF90CF9008954F925F9213
:102800006F927F92AF92BF92CF92DF92EF92FF9240
:102810000F931F93CF93DF93280139010FB6F894DC
:102820000F92E0916F15F0917015C82FD0E0EC0F6A
:10283000FD1F83A9823071F1E0916F15F091701541
:10284000CE01880F991F880F991FE80FF91F87A5E0
:1028500090A9A1A9B2A9409550956095709548237B
:1028600059236A237B2347A750AB61AB72ABE0913E
:102870006F15F0917015EC0FFD1F81E083ABA11473
:10288000B104C104D10431F041E0C601B5017AD8E8
:102890000E947E040F900FBE0FB6F8940F92E114C1
:1028A000F104A1F0E0916F15F0917015CE01880F41
:1028B000991F880F991FE80FF91F87A590A9A1A953
:1028C000B2A9F70180839183A283B383E0916F154E
:1028D000F0917015EC0FFD1F83A98230E9F4E091AF
:1028E0006F15F0917015CE01880F991F880F991FF1
:1028F000E80FF91F87A590A9A1A9B2A94094509407
:1029000060947094482259226A227B2247A650AADA
:1029100061AA72AA81E001C080E020916F15309118
:102920007015C20FD31F1BAA0F900FBEDF91CF915E
:102930001F910F91FF90EF90DF90CF90BF90AF90DD
:102940007F906F905F904F9008958F929F92AF927B
:10295000BF92EF92FF920F93CF93DF93DC010FB6FC
:10296000F8940F92E114F10489F0E62FF0E0EE0FF5
:10297000FF1FEE0FFF1FE80FF91F87A490A8A1A863
:10298000B2A8F70180829182A282B38270E0FD0139
:10299000E60FF71F83A992E093AB023001F118F420
:1029A000013031F04DC0033079F10430D1F148C02D
:1029B000660F771F660F771FFD01E60FF71F87A4CD
:1029C00090A8A1A8B2A8BA01A901482959296A2941
:1029D0007B2947A750AB61AB72AB01E034C0660FF7
:1029E000771F660F771FFD01E60FF71F47A550A958
:1029F00061A972A94F5F5F4F6F4F7F4F47A750ABE1
:102A000061AB72AB01E01FC0660F771F660F771FC7
:102A1000FD01E60FF71F27A730AB41AB52AB01E03A
:102A200012C0823079F0660F771F660F771FFD01A5
:102A3000E60FF71F27A730AB41AB52AB01E003C055
:102A400001E001C000E0813009F069C01C96ED9101
:102A5000FC911D971696CD91DC91179718968D9144
:102A60009C9119979F838E831896CD91DC9119972D
:102A700016968D919C9117979D838C83818192816D
:102A80009D012E5F3F4F8217930731F418968D9169
:102A90009C911997928381831D961C921E921C977C
:102AA0008081815080835A96EC915A978091BF140F
:102AB0008E1710F4E093BF148BE08E9FF001112469
:102AC000EF5FFA4E0180F281E02D1796FC93EE93B2
:102AD00016974681578119965C934E931897C68135
:102AE000D7813D832C83378326835A96EC915A975E
:102AF0008E9FF0011124EF5FFA4E1D96FC93EE932A
:102B00001C9780818F5F80835A969C91E0916F150E
:102B1000F0917015828D891710F40E947E040F9039
:102B20000FBE802FDF91CF910F91FF90EF90BF905C
:102B3000AF909F908F9008958F929F92AF92BF9287
:102B4000CF92DF92EF92FF920F93CF93DF93DC014E
:102B5000E114F10489F0E62FF0E0EE0FFF1FEE0F15
:102B6000FF1FE80FF91F87A490A8A1A8B2A8F7013A
:102B700080829182A282B38270E0FD01E60FF71F8E
:102B800093A982E083AB023001F118F4013031F0F7
:102B90004DC0033079F10430D1F148C0660F771F82
:102BA000660F771FFD01E60FF71F87A490A8A1A865
:102BB000B2A8BA01A901482959296A297B2947A73E
:102BC00050AB61AB72AB81E034C0660F771F660F0C
:102BD000771FFD01E60FF71F47A550A961A972A94C
:102BE0004F5F5F4F6F4F7F4F47A750AB61AB72ABEB
:102BF00081E01FC0660F771F660F771FFD01E60F8C
:102C0000F71F27A730AB41AB52AB81E012C0923027
:102C100079F0660F771F660F771FFD01E60FF71F2C
:102C200027A730AB41AB52AB81E003C081E001C0CC
:102C300080E0913009F096C09091B01491115FC07E
:102C40001C96ED91FC911D971696CD91DC911797EE
:102C500018962D913C9119973F832E831896CD910C
:102C6000DC91199716962D913C9117973D832C83F3
:102C7000418152819D012E5F3F4F4217530731F42E
:102C800018964D915C911997528341831D961C9221
:102C90001E921C979081915090835A96EC915A976E
:102CA0009091BF149E1710F4E093BF149BE09E9F79
:102CB000F0011124EF5FFA4E0180F281E02D1796AA
:102CC000FC93EE9316974681578119965C934E9329
:102CD0001897C681D7813D832C83378326835A96E4
:102CE000EC915A979E9FF0011124EF5FFA4E1D96CA
:102CF000FC93EE931C9790819F5F908321C06CEDB5
:102D000074E1FB01C181D2815396DC93CE9352973B
:102D10002E813F8155963C932E9354974E815F812F
:102D20009D01225F3F4FFA01358324833F832E8329
:102D300059967C936E935897FB0190819F5F908387
:102D40005A962C91E0916F15F0917015928D921713
:102D500048F4C114D10419F091E0F601908391E098
:102D60009093B914DF91CF910F91FF90EF90DF9086
:102D7000CF90BF90AF909F908F900895009721F4CF
:102D800080916F15909170150FB6F8940F9270E0C6
:102D9000FC01E60FF71F23A9223031F4FC01E60FF6
:102DA000F71F13AA81E001C080E00F900FBE0895C5
:102DB000DC01E0917B15F0917C15808191E081111F
:102DC00090E09C93911108C00780F085E02D608110
:102DD000718182819381089560E070E0CB01089554
:102DE000CF92DF92EF92FF920F931F93FC014283E9
:102DF0005383648375839387828704171507260797
:102E00003707C0F00C191D092E093F0986859785E3
:102E1000A089B189081719072A073B0700F5BF01E8
:102E20006E5F7F4F8091791590917A150E94C5034E
:102E300080E018C00C151D052E053F0528F44C1523
:102E40005D056E057F0568F4BF016E5F7F4F809161
:102E50007B1590917C150E94C50380E003C081E042
:102E600001C081E01F910F91FF90EF90DF90CF9014
:102E700008950FB6F8940F92809177159091781578
:102E8000892BE9F488E895E10E94B0038DE795E18C
:102E90000E94B00388E895E190937C1580937B15A0
:102EA0008DE795E190937A158093791540E067E07E
:102EB0008AE00E94630690937815809377150F90AF
:102EC0000FBE0895EF92FF920F93D3DF8091771595
:102ED00090917815892B91F00F2EF5E7EF2EF5E103
:102EE000FF2EF02D03E020E030E040EC50E067E4FE
:102EF00072E087ED90E00E94640D01C080E00F91C8
:102F0000FF90EF9008958F929F92AF92BF92CF92D1
:102F1000DF92EF92FF920F931F93CF93DF93CDB782
:102F2000DEB727970FB6F894DEBF0FBECDBFE09196
:102F30007715F0917815309781F169832A833B8367
:102F40004C835D839F838E836630F4F4C4DB8230D0
:102F500069F400E0A7019601BE016F5F7F4F809189
:102F60007715909178150E94860618C000E020E041
:102F700030E0A901BE016F5F7F4F8091771590917E
:102F800078150E9486060AC020E0A801BE016F5F86
:102F90007F4FCF010E94360701C080E027960FB611
:102FA000F894DEBF0FBECDBFDF91CF911F910F917F
:102FB000FF90EF90DF90CF90BF90AF909F908F9059
:102FC00008958F929F92AF92BF92CF92DF92EF922D
:102FD000FF920F931F93CF93DF933BC00780F08541
:102FE000E02D80809180A280B380C085D1858E0144
:102FF0000E5F1F4FC8010E940204EC89FD89CE01BB
:1030000019958E8982FF25C08E859F85A889B989EB
:10301000880D991DAA1DBB1D88169906AA06BB0618
:1030200070F48A839B83AC83BD83DB87CA87B80136
:1030300080917B1590917C150E94C5030AC0C12C1C
:10304000D12C760100E010E0A501940160E0CE01F2
:103050005ADFE0917B15F0917C1580818111BECF04
:103060008091791590917A1590937C1580937B15BA
:10307000F0937A15E0937915DF91CF911F910F911D
:10308000FF90EF90DF90CF90BF90AF909F908F9088
:103090000895CF92DF92EF92FF92CF93DF93EC01EE
:1030A0000E94EE0D6B017C0180917115909172155B
:1030B000A0917315B0917415C816D906EA06FB06DF
:1030C00020F47FDF81E0888301C01882C0927115EF
:1030D000D0927215E0927315F0927415C701B60183
:1030E000DF91CF91FF90EF90DF90CF9008954F92B6
:1030F0005F926F927F928F929F92AF92BF92CF9288
:10310000DF92EF92FF920F931F93CF93DF934B01C8
:103110005C0129013A01E0917B15F0917C15078053
:10312000F085E02DC085D185CE0102960E94020473
:103130008E8982FF1BC04E855F8568897989480D1D
:10314000591D6A1D7B1D7501640193018201CE0129
:1031500047DE882369F0C12CD12C760100E010E015
:10316000A501940160E0CE01CEDE02C08E7F8E8B81
:10317000EC89FD89CE011995DF91CF911F910F91B7
:10318000FF90EF90DF90CF90BF90AF909F908F9087
:103190007F906F905F904F9008958F929F92AF9223
:1031A000BF92CF92DF92EF92FF921F93CF93DF9364
:1031B0001F92CDB7DEB76B017C01142F0E94E80D82
:1031C000CE01019666DF4B015C01898181112DC022
:1031D00011110DC08C149D04AE04BF0440F00E9478
:1031E000280FA5019401C701B60181DF20C011237A
:1031F00041F0E0917915F0917A15808111E081110B
:1032000010E0B701A601481959096A097B09212F65
:1032100080917715909178150E9400080E94280FE0
:10322000811105C00E947E0402C00E94280F0F90E9
:10323000DF91CF911F91FF90EF90DF90CF90BF90E3
:10324000AF909F908F900895AF92BF92CF92DF92F0
:10325000EF92FF920F931F93CF93DF93CDB7DEB71B
:1032600028970FB6F894DEBF0FBECDBF82C089810C
:1032700088230CF47EC0AE80BF80D5011C968D9152
:103280009C911D97892B21F0C50102960E94020492
:10329000CE010896FEDE8B019C01E9810E2E000C0A
:1032A000FF0BEA30F10508F064C08827EE58FF4FA5
:1032B0008F4F0C94BC29F50186898160868BCA806A
:1032C000DB80EC80FD8046855785608971894C0DD7
:1032D0005D1D6E1D7F1DC50183DD882309F449C076
:1032E000D5015496ED91FC915597C5011995F501BD
:1032F000868982FF3EC04A815B816C817D818685A3
:103300009785A089B1899A01AB01280F391F4A1FFF
:103310005B1FC12CD12C760100E010E060E0C501FC
:10332000F2DD27C0D50156968C9156978E7F569622
:103330008C931FC0F50186898160868B4A815B81F1
:103340006C817D8146875787608B718B400F511F41
:10335000621F731F68017901C50142DD0AC0F501D2
:10336000868981FD04C0C5010E94730302C08E7F5F
:10337000868B20E030E0A901BE016F5F7F4F809116
:103380007715909178150E947107811170CF28965A
:103390000FB6F894DEBF0FBECDBFDF91CF911F9166
:1033A0000F91FF90EF90DF90CF90BF90AF90089576
:1033B000089584B1806884B985B1806885B908951D
:1033C00083B1806883B90895F4DF2FEF80E792E03E
:1033D000215080409040E1F700C00000F1DFF5CFC0
:1033E000E8DF2FEF87EA91E6215080409040E1F737
:1033F00000C00000E5DFF5CF86E090E00E94CA0241
:103400009093EB168093EA16009769F0FC01118205
:1034100010828091EA169091EB16FC0115821482BD
:1034200013821282089580E090E00895E091EA16F8
:10343000F091EB16918380830895E091EA16F09164
:10344000EB16938382830895E091EA16F091EB16D0
:10345000958384830895E3E9F5E126E02183608381
:10346000A091EA16B091EB162C9111963C91119710
:103470003283238312962C91129713963C911397C3
:103480003583268314962C91149715963C91378397
:10349000208726E1DC0101900D922A95E1F708953D
:1034A0008FE492E00E945B2B6091AD157091AE1598
:1034B0008091AF159091B015E2D1CB010895609144
:1034C000A9157091AA158091AB159091AC15D7D123
:1034D000CB010895CF93DF93CDB7DEB7AC970FB68E
:1034E000F894DEBF0FBECDBF80EB92E00E945B2B55
:1034F00083DF41E050E060E070E080E090E00E9417
:10350000C90187EB92E00E945B2BCC24CA94DC2C8F
:10351000760101E021E042E050E060E070E08B2DB8
:103520009A2D0E942901B62EA72E61FF18C08EEB9E
:1035300092E00E945B2B8AE194E078DFB1DF7DDFCF
:10354000AFDF9F938F9389E495E09F938F930E94C1
:10355000482BB5DF79DF0F900F900F900F9062E04E
:10356000CE01479678DF86E1FE017796DE0111965F
:1035700001900D928A95E1F763E070E080E090E0C1
:103580000E9469100FEF1FEF980146E150E0BE0165
:103590006F5F7F4F80E090E00E94C109AACFEF9259
:1035A000FF920F938091EC169091ED16892B89F480
:1035B00081E00E942A079093ED168093EC16009705
:1035C00041F000E020E030E0A90160E070E00E94FE
:1035D0008606E12CF12C03E020E030E040EC50E0E6
:1035E00065EC72E08AE69AE10E94640D0F91FF900B
:1035F000EF90089581B1816881B980E00E94FB2439
:10360000C0D1811105C081ED92E00E945B2BC7DF24
:1036100085E00E94022660E070E081E0E9D283E06C
:103620001AC10895E7DF0E94B00D80E090E0089590
:103630000F931F93CF93DF93CDB7DEB764970FB689
:10364000F894DEBF0FBECDBF81E00E9450261ED38E
:103650009AD59F938F9387ED92E09F938F930E94CB
:10366000482B92D490D59F938F938AEE92E09F93AC
:103670008F930E94482B8E010F5F1F4FC80118D3F4
:1036800082D51F930F939F938F9383E093E09F9333
:103690008F930E94482BC80127D375D59F938F9392
:1036A0001F930F9387E193E09F938F930E94482B82
:1036B000A8016CE273E08DE493E044D564D59F9358
:1036C0008F931F930F938CE293E09F938F938DE4DE
:1036D00093E09F938F938EE593E09F938F930E9447
:1036E000482B35D350D59F938F9384E993E09F93D4
:1036F0008F930E94482B0FB6F894DEBF0FBECDBF4C
:1037000081E01FD440D59F938F9383EA93E09F93EA
:103710008F930E94482B84EF91E01ED434D59F9361
:103720008F9381E08F9384EF8F9384EC93E09F934A
:103730008F930E94482B0FB6F894DEBF0FBECDBF0B
:103740001AE080E00AD3082F1ED59F938F931F9213
:103750001F9384EE93E09F938F930E94482B0F90CA
:103760000F900F900F900F900F90083059F080E05D
:103770000E94B42666E371E080E090E00E94691048
:103780001150F9F6083021F481E00E94962609C014
:1037900081E00E94A52680E00E9473260E947E049C
:1037A000FDCF64960FB6F894DEBF0FBECDBFDF919C
:1037B000CF911F910F910895CF93DF9300D01F9267
:1037C000CDB7DEB781E054D262E070E080E090E0F7
:1037D0000E94691080E04CD266E970E080E090E0E1
:1037E0000E946910FED124DFE1EBF5E186E08183E0
:1037F00082E080830E94EE0D69837A838B839C83B1
:1038000048EA58E460E070E0CE0101960E9404109E
:10381000E1EBF5E180E3828389E3838382E08483C3
:1038200083EA858384E086838AE1878383E00E943C
:10383000C62661EB75E180E0B9D2A5D49F938F9342
:1038400084E094E09F938F930E94482B0F900F90F9
:103850000F900F90D5CFEF92FF920F93E12CF12CA8
:10386000082F20E030E048E851E069E174E08CED99
:103870009BE10E94640D0F91FF90EF90089533D06B
:1038800088F09F5790F0B92F9927B751A0F0D1F049
:10389000660F771F881F991F1AF0BA95C9F712C0D3
:1038A000B13081F03AD0B1E0089537C0672F782F5A
:1038B0008827B85F39F0B93FCCF38695779567953F
:1038C000B395D9F73EF490958095709561957F4FAB
:1038D0008F4F9F4F089557FD9058440F551F59F033
:1038E0005F3F71F04795880F97FB991F61F09F3FED
:1038F00079F087950895121613061406551FF2CF16
:103900004695F1DF08C0161617061806991FF1CF65
:1039100086957105610508940895E894BB2766278C
:103920007727CB0197F908956530F1F4FA0180818A
:103930008F7390E0982F88272181822B90930A0221
:10394000809309028281F0E48F9FC0011124FA0163
:10395000238126952695822B909308028093070257
:1039600081E08093C7150895643051F080E090E4C1
:10397000909308028093070290930A0280930902B1
:1039800008950F931F9304E91CE120E034E244EF13
:1039900050E060E087E20E94D7269093C91580939B
:1039A000C81521E0892B09F020E0822F1F910F918B
:1039B00008950F931F93CF93DF931F921F92CDB75C
:1039C000DEB78C0119822DC0E0910116EC3250F463
:1039D00081E08E0F80930116F0E0ED5CF94E8A8154
:1039E000808302C0109201168A818A30D1F44091FE
:1039F000011650E0FA01EF5CF94E10824150510976
:103A00009E012F5F3F4F63E376E180910416909112
:103A100005160E94860A898181110E947E041092F7
:103A20000116BE016E5F7F4FC8014FD5882361F23A
:103A30000F900F90DF91CF911F910F9108950F93E9
:103A40001F93CF93DF938C01EB018091041690912B
:103A500005160E949109B8018AEC95E10E94292B74
:103A6000209779F0EAECF5E101900020E9F7319731
:103A700080E290E091838083BE018AEC95E10E9410
:103A80001E2BEAECF5E1DF010D900020E9F711971C
:103A90008DE09AE011969C938E9312961C92019061
:103AA0000020E9F73197EA5CF541AE2F8AEC95E109
:103AB000AC016A2F8091061690910716B1D481113E
:103AC00011C008E215E020E030E04DE250E06DE882
:103AD00076E180910416909105160E94CA0A8DE83D
:103AE00096E102C080E090E0DF91CF911F910F91AD
:103AF00008952F923F924F925F926F927F928F9292
:103B00009F92AF92BF92CF92DF92EF92FF920F936C
:103B10001F93CF93DF935C01FC0101900020E9F734
:103B200031976F01C81AD90A5C2C0F2EF9EB8F2E32
:103B3000F6E09F2EF02DE12CF12C4C2C3701F401F6
:103B400001811281E80109900020E9F72197C01B4B
:103B5000D10B3C2EF9E0CF16D10458F0F4012080AF
:103B6000FEE02F1206C0B801C5010E94F92A892B78
:103B700009F5442D351408F44C2F50E0B801C50167
:103B80000E94302B892B49F4F301EE0FFF1FE60D45
:103B9000F71DE754F94F20800DC08FEFE81AF80A9F
:103BA000E3E08E0E911CF1E1EF16F10439F6689412
:103BB000222424F8822DDF91CF911F910F91FF9045
:103BC000EF90DF90CF90BF90AF909F908F907F90BD
:103BD0006F905F904F903F902F90089530DF89CF86
:103BE000089580910416909105160C9491090895FA
:103BF0008F929F92AF92CF92EF920F931F93CF939A
:103C0000C82F8B0141E060E070E088EC90E00E94FA
:103C10005F09909305168093041610930316009382
:103C200002160F2EF9ED8F2EFCE19F2EF02D6894D9
:103C3000AA24A6F86894CC24C6F8E12C00E023E07E
:103C400040E051EE60E070E08C2F1ED39093071699
:103C500080930616E7E0F1E0808180618083CF9158
:103C60001F910F91EF90CF90AF909F908F900895FC
:103C7000882331F0E8E0F1E080818F7E8083089531
:103C8000E8E0F1E0808180618083089560E070E089
:103C90008FE394E0D4DEEDE8F6E101900020E9F74F
:103CA0003197ED58F64181E0759708F080E008956E
:103CB000CF93DF93EC0160E070E080E594E0BFDE3D
:103CC000EDE8F6E101900020E9F7EE59F64139F40C
:103CD0006DE876E1CE010E94292B80E002C01882B7
:103CE00081E0DF91CF910895FC0101900020E9F778
:103CF0009F01215131092817390729F4BC018EE7AA
:103D000094E06CCF089589E00895FC0101900020B3
:103D1000E9F79F01215131092817390729F4BC011E
:103D20008DE894E05BCF089589E00895FC0101904F
:103D30000020E9F79F01215231092817390729F49A
:103D4000BC018CE994E04ACF089589E0089560E0D1
:103D500070E08BED94E042CF08950F931F93E82F0E
:103D6000F0E0EE0FFF1FEB54F94F6081718184EE9C
:103D700094E034DF811114C008E215E020E030E067
:103D80004DE250E06DE876E18091041690910516C1
:103D90000E94CA0A882321F08DE896E1AADE03C0BA
:103DA0008DE896E1A6DE1F910F9108950F931F9362
:103DB000CF93DF931F92CDB7DEB7DB0111969C91B5
:103DC0001197953108F0B4C0992381F160E070E05B
:103DD000272F30E0462F50E0FD01E40FF51F9281C0
:103DE00092959F709A3010F0995C01C0905DF90136
:103DF000E25EF94E90832F5F3F4FFD01E40FF51F08
:103E000092819F70492F50E04A30510514F0995C1F
:103E100001C0905DF901E25EF94E90837E5F6F5FB5
:103E200011969C911197691798F201C070E0E72FE5
:103E3000F0E0E25EF94E10824C91811103C08DEEEC
:103E400094E002C08FEE94E02EE136E13F932F9391
:103E50001F924F939F938F9383EF94E09F938F9341
:103E600080E696E19F938F930E948B2B60E070E039
:103E700080E696E1B3DE0FB6F894DEBF0FBECDBF8D
:103E8000811159C008E215E020E030E04DE250E039
:103E90006DE876E180910416909105160E94CA0A99
:103EA000882309F447C08DE896E123DE8E3009F0BF
:103EB00042C087E089838091021690910316892B76
:103EC000A9F1BE016F5F7F4F8DE896E168D18093C5
:103ED0000816E981F0E0E357F94EDF010D9000206C
:103EE000E9F71197AE1BBF0BAA2391F0BB27CD01B9
:103EF00001979C0112F42F5F3F4F35952795209332
:103F00000916AF014F5F5F4F64E18AE096E173D11C
:103F100001E010E020E030E046E150E068E076E1CA
:103F200080910216909103160E94C1098EE003C091
:103F300084E101C080E00F90DF91CF911F910F913C
:103F40000895813019F063E075E002C06CED75E012
:103F500087E095E043CE08959F938F9388E395E0A3
:103F60009F938F9380E696E19F938F930E948B2B74
:103F700060E070E080E696E131DE0F900F900F90E8
:103F80000F900F900F9008952F923F924F925F9253
:103F90006F927F928F929F92AF92BF92CF92DF9259
:103FA000EF92FF920F931F93CF93DF93CDB7DEB7BE
:103FB000A0970FB6F894DEBF0FBECDBF65E675E0E3
:103FC00081E795E03CDD95DD8111A3C080E2E2E26E
:103FD000F2E0DE01119601900D928A95E1F79E01C3
:103FE0002F5F3F4F6901E12CF12C0F2EFDE7AF2E23
:103FF000F5E0BF2EF02D00E616E10F2EF6E94F2E6C
:10400000F5E05F2EF02D0F2EFDEA8F2EF5E09F2EAE
:10401000F02D0F2EF7EC6F2EF5E07F2EF02D3E2CBD
:104020002F2CFF92EF92BF92AF921F930F930E949B
:104030008B2B60E070E0C80102DD5BDD0F900F901C
:104040000F900F900F900F90811163C032E03E15DA
:10405000E8F4F60183818F9382818F9381818F931E
:1040600080818F93FF92EF925F924F921F930F93F5
:104070000E948B2B60E070E0C801E1DC3ADD0FB6F6
:10408000F894DEBF0FBECDBF811143C02F923F9287
:104090009F928F921F930F930E948B2B60E070E092
:1040A000C801CDDC26DD0F900F900F900F900F9080
:1040B0000F9081112EC02F923F927F926F921F938B
:1040C0000F930E948B2B60E070E0C801B8DC11DD1B
:1040D0000F900F900F900F900F900F90811119C0BB
:1040E0003FEFE31AF30A84E0C80ED11C98E0E9160A
:1040F000F10409F094CF60E070E08FED95E09FDC73
:10410000F8DC811106C060E070E080EF95E097DC9C
:10411000F0DCA0960FB6F894DEBF0FBECDBFDF91E6
:10412000CF911F910F91FF90EF90DF90CF90BF90B4
:10413000AF909F908F907F906F905F904F903F9047
:104140002F900895EF92FF920F931F93CF93DF93D9
:10415000EC018B017A0181E0F4DE81110DC0CE010A
:10416000D4DD811109C0C801E1DD811105C0C7019D
:10417000BBDD811101C0EBDDDF91CF911F910F916C
:10418000FF90EF90089590E0FC01EE0FFF1F8E0F5F
:104190009F1FFC01E754F94F818192810895DC0152
:1041A000009729F1FB012081FC0101900020E9F733
:1041B0003197E81BF90B822F90E0E817F907C8F058
:1041C00080E008C0880F382F330F330F830F8053E0
:1041D000890F2F5FFD01E20FF11D908130ED390F46
:1041E0003A3010F49111EECFFB012083089580E066
:1041F000089580E008950F931F93CF93DF93DC0120
:10420000EA012097E1F1FA0101900020E9F73197E6
:10421000E41BF50B329710F532C08D01040F151F0A
:1042200030E0AE01420F531FFA019081913428F023
:104230009753592F5295507F03C0592F5295507F55
:104240002C0F3D1FF9019181913410F0975301C05B
:104250009053950FF80190838F5F01C080E0282F65
:10426000220F482F50E0FE0101900020E9F731971E
:10427000EC1BFD0B4E175F0710F48613CECFDF91BA
:10428000CF911F910F9108952F923F924F925F927D
:104290006F927F928F929F92AF92CF92EF92FF9206
:1042A0000F931F93CF93DF93CDB7DEB7F82E2A017C
:1042B0003B0188E090E00E94C4298C018F2D90E0A2
:1042C000FC01EE0FFF1FE654F94E11830083011528
:1042D000110509F468C0880F991FFC01E55FFD4FC7
:1042E00080819181D8018D939C938C2D90E0880FD3
:1042F000991F880F991F0E94C4291C0186E090E035
:104300000E94C4297C014C2DB1015BD6F801F582D5
:10431000E4828A2D90E0880F991F880F991F0E94D0
:10432000C4291C0186E090E00E94C4297C014A2D2A
:10433000B10147D6D8011396FC92EE9212971796C8
:104340009C928E921697FFB6F894ED91FC9111977E
:1043500036978081826080838D909C90C301B201EA
:104360001ED720E030E040E051E47ED79B01AC0155
:1043700060E074E284E79BE4A7D620E030E040E808
:104380005FE33BD67CDAF40132976083D801ED918C
:10439000FC911197359788E98083ED91FC913497D2
:1043A00086E08083FFBEC801DF91CF911F910F91FE
:1043B000FF90EF90CF90AF909F908F907F906F90F5
:1043C0005F904F903F902F900895CF93DF93DC0143
:1043D000892B01F11296ED91FC91139793818281C3
:1043E0002581981B922384819817B1F083812695AB
:1043F0002823C081D181C20FD11D68838F5F958131
:1044000089238383ED91FC9135978081806280833D
:1044100080E003C081E001C082E0DF91CF91089588
:10442000EF92FF920F931F93CF93DF937C0100973E
:1044300009F441C0DC011296ED91FC911397938130
:104440008281981B858198238481891B8617A8F116
:10445000662341F1842F952FDC016150462F50E0F7
:104460004F5F5F4F480F591FE701EA81FB8193813E
:1044700082812581981B92238481981779F08C91F1
:10448000938126952923608171818B01020F111D73
:10449000E80188839F5F8581982393831196A417F1
:1044A000B50711F7D701ED91FC91359780818062B6
:1044B000808380E003C081E001C082E0DF91CF9182
:1044C0001F910F91FF90EF9008950097D1F0DC01BC
:1044D0001496ED91FC91159793818281981799F02C
:1044E0009281858186958923A081B181A80FB11D14
:1044F0008C91DB018C939F5F85819823928380E070
:10450000089581E0089583E008951F920F920FB6F9
:104510000F9211240BB60F922F933F934F935F93FB
:104520006F937F938F939F93AF93BF93CF93DF93BB
:10453000EF93FF93A091BA16B091BB16109711F1AB
:104540006091C6001496ED91FC911597938182813C
:104550002581981B92238481981761F08381269589
:104560002823C081D181C20FD11D68838F5F9581BF
:10457000892383831696ED91FC911797309711F05C
:10458000CD011995FF91EF91DF91CF91BF91AF913F
:104590009F918F917F916F915F914F913F912F915B
:1045A0000F900BBE0F900FBE0F901F9018951F928B
:1045B0000F920FB60F9211240BB60F922F938F9379
:1045C0009F93AF93BF93EF93FF93E091BA16F0914F
:1045D000BB163097B9F00280F381E02D9381828180
:1045E0009817B1F092818581282F26952923A081E3
:1045F000B181A20FB11D2C919F5F892382832093EB
:10460000C6000BC0E1ECF0E080818F7D808305C0A7
:10461000E1ECF0E080818F7D8083FF91EF91BF918D
:10462000AF919F918F912F910F900BBE0F900FBE66
:104630000F901F9018951F920F920FB60F92112492
:104640000BB60F922F933F934F935F936F937F938C
:104650008F939F93AF93BF93CF93DF93EF93FF938A
:10466000A091BC16B091BD16109711F16091CE00CB
:104670001496ED91FC911597938182812581981B69
:1046800092238481981761F0838126952823C08125
:10469000D181C20FD11D68838F5F95818923838368
:1046A0001696ED91FC911797309711F0CD01199561
:1046B000FF91EF91DF91CF91BF91AF919F918F913A
:1046C0007F916F915F914F913F912F910F900BBE12
:1046D0000F900FBE0F901F9018951F920F920FB65C
:1046E0000F9211240BB60F922F938F939F93AF933A
:1046F000BF93EF93FF93E091BC16F091BD163097F6
:10470000B9F00280F381E02D938182819817B1F096
:1047100092818581282F26952923A081B181A20F1E
:10472000B11D2C919F5F892382832093CE000BC003
:10473000E9ECF0E080818F7D808305C0E9ECF0E05A
:1047400080818F7D8083FF91EF91BF91AF919F9189
:104750008F912F910F900BBE0F900FBE0F901F9057
:1047600018951F920F920FB60F9211240BB60F924D
:104770002F933F934F935F936F937F938F939F9369
:10478000AF93BF93CF93DF93EF93FF93A091BE16A8
:10479000B091BF16109711F16091D6001496ED916B
:1047A000FC911597938182812581981B92238481A6
:1047B000981761F0838126952823C081D181C20F8B
:1047C000D11D68838F5F9581892383831696ED9130
:1047D000FC911797309711F0CD011995FF91EF914A
:1047E000DF91CF91BF91AF919F918F917F916F9109
:1047F0005F914F913F912F910F900BBE0F900FBE85
:104800000F901F9018951F920F920FB60F921124C0
:104810000BB60F922F938F939F93AF93BF93EF930A
:10482000FF93E091BE16F091BF163097B9F0028069
:10483000F381E02D938182819817B1F09281858177
:10484000282F26952923A081B181A20FB11D2C917B
:104850009F5F892382832093D6000BC0E1EDF0E0B7
:1048600080818F7D808305C0E1EDF0E080818F7DC8
:104870008083FF91EF91BF91AF919F918F912F9185
:104880000F900BBE0F900FBE0F901F9018951F92A8
:104890000F920FB60F9211240BB60F922F933F93E6
:1048A0004F935F936F937F938F939F93AF93BF9338
:1048B000CF93DF93EF93FF93A091C016B091C116F1
:1048C000109711F1609136011496ED91FC911597B6
:1048D000938182812581981B92238481981761F0AE
:1048E000838126952823C081D181C20FD11D688381
:1048F0008F5F9581892383831696ED91FC9117979D
:10490000309711F0CD011995FF91EF91DF91CF9183
:10491000BF91AF919F918F917F916F915F914F91D7
:104920003F912F910F900BBE0F900FBE0F901F90D5
:1049300018951F920F920FB60F9211240BB60F927B
:104940002F938F939F93AF93BF93EF93FF93E09138
:10495000C016F091C1163097B9F00280F381E02DB6
:10496000938182819817B1F092818581282F2695B5
:104970002923A081B181A20FB11D2C919F5F8923B2
:104980008283209336010BC0E1E3F1E080818F7DCB
:10499000808305C0E1E3F1E080818F7D8083FF911A
:1049A000EF91BF91AF919F918F912F910F900BBE7F
:1049B0000F900FBE0F901F901895CF93DF931F920B
:1049C000CDB7DEB7BE016F5F7F4F8091C216909169
:1049D000C3167BDD8111F6CF898190E00F90DF91C6
:1049E000CF910895682F8091C2169091C316EDDC87
:1049F00080E090E008958F929F92AF92CF92EF92D5
:104A00000F93812C912C6894AA24A7F86894CC2445
:104A1000C7F8E12C00E023E040E051EE60E070E0F8
:104A200033DC9093C3168093C216E2EFF6E183E184
:104A300092E091838083938382830F91EF90CF9054
:104A4000AF909F908F90089590E0FC01EE0FFF1FB4
:104A5000E80FF91FEE0FFF1FEC53F94E23812111D0
:104A60001FC09C01220F331FF901E80FF91FEE0F41
:104A7000FF1FEC53F94EA081B1814C91F901E80F71
:104A8000F91FEE0FFF1FEC53F94E81E090E002801A
:104A900002C0880F991F0A94E2F7842B8C93089523
:104AA000FC01EE0FFF1FDF01A80FB91FAA0FBB1FEC
:104AB000AC53B94E0D90BC91A02D2C91E80FF91F6D
:104AC000EE0FFF1FEC53F94E81E090E0028002C030
:104AD000880F991F0A94E2F7809582238C9308959A
:104AE00090E0FC01EE0FFF1FE80FF91FEE0FFF1F14
:104AF000EC53F94E2381211120C09C01220F331F5A
:104B0000F901E80FF91FEE0FFF1FEC53F94EA081DA
:104B1000B1814C91F901E80FF91FEE0FFF1FEC5323
:104B2000F94E81E090E0028002C0880F991F0A943C
:104B3000E2F7809584238C930895FC01EE0FFF1F0C
:104B4000DF01A80FB91FAA0FBB1FAC53B94E0D90C0
:104B5000BC91A02D2C91E80FF91FEE0FFF1FEC5315
:104B6000F94E81E090E0028002C0880F991F0A94FC
:104B7000E2F7822B8C930895CC24C394D12C6894B3
:104B8000BB24B2F8C4ECD6E110E08C81813081F016
:104B900018F1823061F5E881F9812081C6010A802F
:104BA00002C0880F991F0A94E2F7822780831FC0F2
:104BB0008D818F5F863010F48D8319C01D82E8814E
:104BC000F9812081C6010A8002C0880F991F0A94CA
:104BD000E2F7822780830BC00D81002329F0812F0B
:104BE0007FDF01500D8303C0BC82812F2DDF1F5F4B
:104BF0002696143051F66CE070E080E090E00E9460
:104C00006910C0CFEF92FF920F931F93CF93DF9362
:104C1000082F80E487B9C4ECD6E10F2EF8E2EF2E1E
:104C2000F12CF02DF982E88286E08A831B8214E061
:104C30001C8380E009DF80E887B9FF82EE8287E08D
:104C4000888719861A8781E0FFDE80E283BB84E3D0
:104C500090E09D878C8785E08E871F86188B82E089
:104C6000F3DE80E18093010182E091E09B8B8A8BEF
:104C70001C8B1D8A1E8B83E0E7DEE12CF12C20E0EB
:104C800030E040EC50E06CEE76E08CEB95E20E9478
:104C9000640DDF91CF911F910F91FF90EF900895D8
:104CA000CF93DF9390E0FC01EE0FFF1FDF01A80F11
:104CB000B91FAA0FBB1FAC53B94ECD91DC91119710
:104CC000488121E030E012960C90129702C0220F2A
:104CD000331F0A94E2F724272883FD0181E08483AF
:104CE000DF91CF910895CF93DF9390E0FC01EE0F19
:104CF000FF1FDF01A80FB91FAA0FBB1FAC53B94E8E
:104D0000CD91DC911197488121E030E012960C9012
:104D1000129702C0220F331F0A94E2F72427288338
:104D2000FD0182E08483DF91CF910895282F30E048
:104D3000F901EE0FFF1FE20FF31FEE0FFF1FEC5301
:104D4000F94E93E09483CCCE0895282F30E0F901FA
:104D5000EE0FFF1FE20FF31FEE0FFF1FEC53F94E94
:104D600094E0948371CE089590E0FC01EE0FFF1F54
:104D7000DF01A80FB91FAA0FBB1FAC53B94E26E025
:104D800015962C931597FD011482089590E0FC016F
:104D9000EE0FFF1FDF01A80FB91FAA0FBB1FAC53F7
:104DA000B94E15961C921597FD0114820895AF9285
:104DB000BF92CF92DF92EF92FF920F931F93CF9308
:104DC000DF93A82EB62E69017A0184E090E0DCD250
:104DD000EC01892B61F1A88281E0B81212C0C701F1
:104DE000B60120EA36E841E050E0A4D2DA01C90178
:104DF0004097A109B109B695A7959795879589839D
:104E000011C0C701B60120E83AE146E050E092D275
:104E1000DA01C9014097A109B109B695A7959795FF
:104E2000879589831B830A838C2F9D2F02C080E086
:104E300090E0DF91CF911F910F91FF90EF90DF9065
:104E4000CF90BF90AF9008951F920F920FB60F9220
:104E500011240BB60F922F933F934F935F936F9351
:104E60007F938F939F93AF93BF93EF93FF93E091C3
:104E7000B9008E2F90E0FC013897E135F10508F07C
:104E800075C08827E458FF4F8F4F76C21092DC160A
:104E9000E091DC168091DF16E81770F481E08E0F48
:104EA0008093DC16F0E0E052F94E80818093BB00E5
:104EB00085E88093BC0072C084E98093BC00809137
:104EC000DD169091DE16DC011296ED91FC911397A0
:104ED000309709F463C020E040E050E064E01995A9
:104EE0005DC0E091DC1681E08E0F8093DC1680912E
:104EF000BB00F0E0E052F94E80838091B90080342D
:104F000011F41092DC162091DC1630E08091DF164F
:104F100090E001972817390724F485EC8093BC00B2
:104F20003DC085E88093BC0039C08091BB00E09112
:104F3000DC16F0E0E052F94E808384E98093BC00F7
:104F40008091DD169091DE16DC011296ED91FC91B8
:104F50001397309719F12091DF1640EE56E165E086
:104F600019951CC085EA8093BC0018C08091B900D7
:104F70008093210284E08093BC008091DD169091A3
:104F8000DE16DC011296ED91FC911397309731F00B
:104F900020E040E050E0609121021995FF91EF91EF
:104FA000BF91AF919F918F917F916F915F914F9141
:104FB0003F912F910F900BBE0F900FBE0F901F903F
:104FC0001895FC01411101C000D3842F90E09C0191
:104FD0002150310982239323892B09F0F6D24138DD
:104FE00008F0F3D2128213824483440F4150458368
:104FF0007183608380E090E008955058BB27AA2712
:105000000ED021C112D130F017D120F031F49F3FE2
:1050100011F41EF407C10EF4E095E7FBFDC0E92F83
:105020000E946B1C78F3BA17620773078407950711
:1050300020F079F4A6F50C948D1C0EF4E0950B2E5F
:10504000BA2FA02D0B01B90190010C01CA01A001DA
:105050001124FF27591B99F0593F50F4503E68F135
:105060001A16F040A22F232F342F4427585FF3CF76
:10507000469537952795A795F0405395C9F77EF447
:105080001F16BA0B620B730B840BBAF09150A1F090
:10509000FF0FBB1F661F771F881FC2F70EC0BA0F16
:1050A000621F731F841F48F4879577956795B7959E
:1050B000F7959E3F08F0B1CF9395880F08F0992798
:1050C000EE0F9795879508950DD0BDC0B5D048F0E7
:1050D000ACD038F021F45F3F21F09EC051110C9408
:1050E0008E1CA0C00E946B1C88F39923B9F3552332
:1050F000A1F3951B550BBB27AA27621773078407DB
:1051000038F09F5F5F4F220F331F441FAA1FA9F380
:1051100034D00E2E3AF0E0E831D091505040E69570
:10512000001CCAF72AD0FE2F28D0660F771F881FD1
:10513000BB1F261737074807AB07B0E809F0BB0BC2
:10514000802DBF01FF2793585F4F32F09E3F5105DE
:1051500070F062C00C948E1C5F3FE4F3983ED4F371
:10516000869577956795B795F7959F5FC9F7880FEF
:10517000911D9695879597F90895E1E0660F771F41
:10518000881FBB1F621773078407BA0720F0621BD2
:10519000730B840BBA0BEE1F88F7E0950895E89423
:1051A00009C097FB3EF490958095709561957F4F6F
:1051B0008F4F9F4F9923A9F0F92F96E9BB2793951D
:1051C000F695879577956795B795F111F8CFFAF42D
:1051D000BB0F11F460FF1BC06F5F7F4F8F4F9F4F5E
:1051E00016C0882311F096E911C0772321F09EE8BC
:1051F000872F762F05C0662371F096E8862F70E022
:1052000060E02AF09A95660F771F881FDAF7880FFB
:105210009695879597F9089597F99F6780E870E0CC
:1052200060E008959FEF80EC089500240A9416161C
:10523000170618060906089500240A941216130684
:10524000140605060895092E0394000C11F4882312
:1052500052F0BB0F40F4BF2B11F460FF04C06F5F2E
:105260007F4F8F4F9F4F08950CD0EDCFDEDF28F09A
:10527000E3DF18F0952309F0CFCFD4CF11240C949D
:105280008E1C0E946B1C90F3959FC1F3950F50E00C
:10529000551F629FF001729FBB27F00DB11D639FE8
:1052A000AA27F00DB11DAA1F649F6627B00DA11D8E
:1052B000661F829F2227B00DA11D621F739FB00D34
:1052C000A11D621F839FA00D611D221F749F3327A4
:1052D000A00D611D231F849F600D211D822F762F3D
:1052E0006A2F11249F57504092F0E9F088234AF02A
:1052F000EE0FFF1FBB1F661F771F881F9150504086
:10530000A9F79E3F510578F087CF0C948E1C5F3F24
:10531000E4F3983ED4F3869577956795B795F7951E
:10532000E7959F5FC1F7FE2B880F911D9695879596
:1053300097F90895A1E21A2EAA1BBB1BFD010DC00F
:10534000AA1FBB1FEE1FFF1FA217B307E407F50735
:1053500020F0A21BB30BE40BF50B661F771F881F11
:10536000991F1A9469F760957095809590959B01A7
:10537000AC01BD01CF010895EE0FFF1F881F8BBF49
:105380000790F691E02D19940F931F93CF93DF931D
:105390008230910510F482E090E0E091F016F091F7
:1053A000F11620E030E0A0E0B0E0309719F1408144
:1053B00051810281138148175907C8F08417950756
:1053C00069F4109731F012960C93129713961C9370
:1053D00027C00093F0161093F11622C02115310555
:1053E00019F04217530718F49A01BD01EF01DF01CC
:1053F000F801DBCF21153105F9F0281B390B2430DA
:10540000310580F48A819B816115710521F0FB01D2
:105410009383828304C09093F1168093F016FE016B
:10542000329644C0FE01E20FF31F81939193225004
:105430003109398328833AC02091EE163091EF1656
:10544000232B41F420910202309103023093EF1696
:105450002093EE16209100023091010221153105B2
:1054600041F42DB73EB74091040250910502241B30
:10547000350BE091EE16F091EF16E217F307A0F46A
:105480002E1B3F0B2817390778F0AC014E5F5F4F9A
:105490002417350748F04E0F5F1F5093EF164093C7
:1054A000EE168193919302C0E0E0F0E0CF01DF912E
:1054B000CF911F910F910895CF93DF93009709F437
:1054C00081C0FC01329713821282A091F016B09134
:1054D000F116109781F420813181820F931F209162
:1054E000EE163091EF162817390751F5F093EF16A5
:1054F000E093EE1667C0ED0120E030E0CE17DF0745
:1055000040F44A815B819E0141155105F1F0EA01A9
:10551000F5CFD383C28340815181840F951FC81773
:10552000D90759F488819981840F951F0296918338
:1055300080838A819B81938382832115310529F49D
:10554000F093F116E093F0163DC0E901FB83EA8386
:1055500049915991C40FD51FEC17FD0761F4808163
:105560009181840F951F0296E90199838883828136
:1055700093819B838A83E0E0F0E012968D919C9169
:105580001397009719F0FD01DC01F7CF8D919C91E5
:1055900011979D012E5F3F4F820F931F2091EE16B2
:1055A0003091EF162817390769F4309729F41092D3
:1055B000F1161092F01602C013821282B093EF1609
:1055C000A093EE16DF91CF91089581E090E0F894DA
:1055D0007DC3FB01DC0102C001900D92415050409F
:1055E000D8F70895DC0101C06D9341505040E0F7B9
:1055F0000895FB0151915523B1F0BF01DC01052E47
:105600004D91442369F010D0D9F7CD0101900020CD
:1056100049F04D91411108D0C9F3FB014111EECF82
:1056200081E090E001970895402539F0403229F457
:1056300040294B57465E08F018940895FB01DC01A1
:105640000D900020E9F7119701900D920020E1F7ED
:105650000895FB01DC0101900D920020E1F708950F
:10566000FB01DC014150504088F08D9181341CF0E9
:105670008B350CF4805E619161341CF06B350CF459
:10568000605E861B611171F3990B0895881BFCCF36
:10569000CF93DF93CDB7DEB7AE014A5F5F4FFA011C
:1056A00061917191AF018091F4169091F51661D0DE
:1056B000DF91CF9108950F931F93CF93DF93E091E4
:1056C000F416F091F516238121FF1BC08C01D0E068
:1056D000C0E0F80181918F016091F4167091F51688
:1056E000DB011896ED91FC911997882331F01995FB
:1056F000892B79F3DFEFCFEFECCF8AE01995892B77
:1057000019F08FEF9FEF02C08D2F9C2FDF91CF916B
:105710001F910F9108950F931F93CF93DF93CDB7F0
:10572000DEB72E970FB6F894DEBF0FBECDBF0E8941
:105730001F8986E08C831A8309838FEF9FE79E83FE
:105740008D83AE01465E5F4F688D798DCE010196E7
:1057500010D0EF81F885E00FF11F10822E960FB662
:10576000F894DEBF0FBECDBFDF91CF911F910F9197
:1057700008952F923F924F925F926F927F928F92F5
:105780009F92AF92BF92CF92DF92EF92FF920F93D0
:105790001F93CF93DF93CDB7DEB72B970FB6F89457
:1057A000DEBF0FBECDBF6C017B018A01FC011782F9
:1057B0001682838181FFBFC1CE0101963C01F601B3
:1057C0009381F70193FD859193FF81917F01882358
:1057D00009F4ADC1853239F493FD859193FF819130
:1057E0007F01853221F4B60190E0D6D1E8CF912C2B
:1057F000212C312CFFE1F315D8F08B3279F038F4FD
:10580000803279F08332A1F4232D20611DC08D32C6
:1058100061F0803369F4232D216016C0832D8260EE
:10582000382EE32DE4603E2E2AC0F32DF8601DC013
:1058300037FC2DC020ED280F2A3040F08E32B9F40D
:1058400036FC75C1232D2064322E19C036FE06C0E9
:105850008AE0989E200D1124922E11C0EAE02E9E1F
:10586000200D1124222EF32DF0623F2E08C08C361D
:1058700021F4832D8068382E02C0883641F4F70168
:1058800093FD859193FF81917F018111B3CF982F73
:105890009F7D9554933028F40C5F1F4F9FE39983AD
:1058A0000DC0833631F0833771F0833509F055C070
:1058B00020C0F801808189830E5F1F4F8824839464
:1058C000912C530112C02801F2E04F0E511CF80137
:1058D000A080B18036FE03C0692D70E002C06FEF7A
:1058E0007FEFC5014ED14C018201F32DFF773F2E92
:1058F00015C0280122E0420E511CF801A080B180A1
:1059000036FE03C0692D70E002C06FEF7FEFC50166
:105910002DD14C01F32DF0683F2E820133FC19C0CC
:10592000822D90E088169906A0F4B60180E290E0FE
:1059300033D12A94F5CFF50137FC859137FE81915B
:105940005F01B60190E028D121102A9421E0821A4B
:1059500091088114910479F7E1C0843611F08936F9
:1059600039F5F80137FE07C060817181828193812A
:105970000C5F1F4F08C060817181072E000C880BDF
:10598000990B0E5F1F4FF32DFF763F2E97FF09C037
:1059900090958095709561957F4F8F4F9F4FF068E0
:1059A0003F2E2AE030E0A30133D1882E861844C070
:1059B000853731F4232D2F7EB22E2AE030E025C02A
:1059C000932D997FB92E8F36C1F018F4883579F070
:1059D000AEC0803719F0883721F0A9C0E92FE06107
:1059E000BE2EB4FE0DC0FB2DF460BF2E09C034FEE8
:1059F0000AC0292F2660B22E06C028E030E005C07C
:105A000020E130E002C020E132E0F801B7FE07C03B
:105A100060817181828193810C5F1F4F06C060811C
:105A2000718180E090E00E5F1F4FA301F1D0882EBE
:105A30008618FB2DFF773F2E36FE0DC0232D2E7FBF
:105A4000A22E891458F434FE0BC032FC09C0832DF9
:105A50008E7EA82E05C0B82CA32C03C0B82C01C084
:105A6000B92CA4FE0FC0FE01E80DF11D808180332A
:105A700021F49A2D997EA92E09C0A2FE06C0B394E6
:105A8000B39404C08A2D867809F0B394A3FC10C0A7
:105A9000A0FE06C0B21480F4280C922C9B180DC0F6
:105AA000B21458F4B60180E290E076D0B394F8CF07
:105AB000B21418F42B1802C0982C212CA4FE0FC08D
:105AC000B60180E390E068D0A2FE16C0A1FC03C03E
:105AD00088E790E002C088E590E0B6010CC08A2D0E
