S0120000342E53656D65737465722E7372656368
S1130000E5C0000004C1000002C1000000C10000FE
S1130010FEC00000FCC00000FAC00000F8C00000F0
S1130020F6C00000F4C00000F2C00000F0C0000000
S1130030EFC30000ECC00000EAC00000E8C000000C
S1130040E6C00000E4C00000E2C00000E0C0000020
S1130050DEC00000DCC00000DAC00000D8C0000030
S1130060D6C000000C9435200C948720D0C000002A
S1130070CEC00000CCC00000CAC00000C8C0000050
S1130080C6C00000C4C00000C2C00000C0C0000060
S11300900C94CB200C941D21BAC000000C9468254C
S11300A0B6C00000B4C00000B2C00000B0C0000080
S11300B0AEC00000ACC00000AAC00000A8C0000090
S11300C0A6C00000A4C00000A2C000000C946121DE
S11300D00C94B3219CC000000C94F7210C94492289
S11300E096C000000C170C170C1743174B1760171A
S11300F00C170C1743174B178A25FA25FA25FA25EE
S1130100FA25FA25FA25FA258A25FA25FA25FA2563
S1130110FA25FA25FA25FA258C25FA25FA25FA2551
S1130120FA25FA25FA25FA25FA25FA25FA25FA25D3
S1130130FA25FA25FA25FA258C25FA25FA25FA2531
S1130140FA25FA25FA25FA25FA25FA25FA25FA25B3
S1130150FA25FA25FA25FA25F625FA25FA25FA25A7
S1130160FA25FA25FA25FA25C125FA25FA25FA25CC
S1130170FA25FA25FA25FA25FA25FA25FA25FA2583
S1130180FA25FA25FA25FA25B525FA25FA25FA25B8
S1130190FA25FA25FA25FA25D9250E945C0B8091C7
S11301A0DB14823008F06ED20E948917F6CFCF9309
S11301B0DF931F92CDB7DEB7CE0101960E9489145A
S11301C049810E947E160E94D516F6CF11241FBEC7
S11301D0CFEFD1E2DEBFCDBF00E00CBF16E0A0E060
S11301E0B2E0E8E5F9E500E00BBF02C007900D922C
S11301F0AE3CB107D9F726E1AEECB6E001C01D92E2
S1130200A73CB207E1F70E946B180C94AA2CF8CE15
S1130210CF93DF938FE090E081D0EC01009739F029
S1130220FC011192119211921192CF015DD1CE0174
S1130230DF91CF910895EAEDF6E0AEEDB6E0B1833B
S1130240A08313821282E6E8F4E1F093D906E093E6
S1130250D806138212821182108288EA9DE01396D6
S11302609C938E931297ED93FC939093D506809371
S1130270D4069093D7068093D60680E090E89093B6
S1130280CF068093CE060895CF93DF93EC01AAEDB9
S1130290B6E001C0DF01ED91FC911197EC17FD0769
S11302A0C8F312968D919C9113979D01280F391FC5
S11302B0C217D30749F42A813B81820F931F1396F7
S11302C09C938E931297ED018A819B819E01280F46
S11302D0391FE217F307C1F42091D8063091D906EB
S11302E0E217F30771F022813381820F931F9B83FE
S11302F08A83ED91FC911197808191819983888300
S113030005C03983288302C0F983E883CA17DB0751
S113031011F0CD93DC93DF91CF910895EF92FF928A
S11303200F931F93CF93DF938C010E94A70C8091AE
S1130330D8069091D906892B09F47DDF8091CE06E9
S11303409091CF0680239123892B09F076C0011563
S1130350110549F0C80104960817190718F000E0C0
S113036010E001C08C010115110509F469C08091E8
S1130370D6069091D7068017910708F464C0C091FF
S1130380DA06D091DB06EAEDF6E002C0FE01EC01EC
S11303908A819B818017910720F488819981009735
S11303A0A9F78091D8069091D906C817D90709F4FE
S11303B04DC0E080F18084E0E80EF11C88819981D1
S11303C0918380832A813B81201B310B29303105A5
S11303D048F0CE01800F911FFC01338322831B83DD
S11303E00A8352DF2A813B818091D6069091D706F9
S11303F0821B930B9093D7068093D6064091D40624
S11304005091D5068417950720F49093D5068093D0
S1130410D4068091CE069091CF06282B392B3B83AE
S11304202A83198218828091D2069091D30601966C
S11304309093D3068093D2060BC0E12CF12C08C014
S1130440E12CF12C05C0E12CF12C02C0E12CF12CA3
S11304500E94E70DE114F10411F40E949517C701FD
S1130460DF91CF911F910F91FF90EF9008950F931B
S11304701F93CF93DF93009791F1EC0124974A8166
S11304805B812091CE063091CF06BA01622373239B
S1130490672B29F168817981672B09F520953095BF
S11304A0242335233B832A830E94A70C8A819B81C2
S11304B02091D6063091D706820F931F9093D706CA
S11304C08093D606CE01E0DE8091D0069091D106CD
S11304D001969093D1068093D0060E94E70DDF9198
S11304E0CF911F910F910895FC010396928381830C
S11304F04FEF5FEFBA01438354836583768390871C
S113050087839287818710820895FC01138612865F
S113051008950F931F93CF93DF93EB010881198103
S11305202A813B810F3F4FEF14072407340721F43E
S1130530FC01A185B28511C0DC01139601C0DF0165
S11305401496ED91FC9115974081518162817381DC
S1130550041715072607370790F71496ED91FC91B9
S11305601597FD83EC83D783C683BF83AE8315962B
S1130570DC93CE9314979B878A87FC0120812F5F9D
S11305802083DF91CF911F910F910895CF93DF9333
S1130590FC01A285B385C481D581868197819F831F
S11305A08E83C681D781848195819D838C831196A6
S11305B08D919C911297E817F90731F48681978100
S11305C012969C938E931197138612868C91815068
S11305D08C938C91DF91CF910895A89590EC88E14C
S11305E00FB6F894A895809360000FBE90936000B6
S11305F00895FC016083319770833197108231979D
S11306001082319720E8208331971082319710822D
S11306103197108277974083319750838697089556
S1130620DCDFA0914915B0914A15CD91CDBFDD9184
S1130630DEBFFF91EF91DF91CF91BF91AF919F9179
S11306408F917F916F915F914F913F912F911F9166
S11306500F91FF90EF90DF90CF90BF90AF909F905D
S11306608F907F906F905F904F903F902F901F904E
S11306700F900CBE0F900BBE0F900FBE0F900895FD
S113068081E008950F920FB6F8940F920BB60F9273
S11306900CB60F921F9211242F923F924F925F92A9
S11306A06F927F928F929F92AF92BF92CF92DF927E
S11306B0EF92FF920F931F932F933F934F935F9368
S11306C06F937F938F939F93AF93BF93CF93DF9356
S11306D0EF93FF93A0914915B0914A150DB60D9271
S11306E00EB60D920E94430FA0914915B0914A1580
S11306F0CD91CDBFDD91DEBFFF91EF91DF91CF9121
S1130700BF91AF919F918F917F916F915F914F9125
S11307103F912F911F910F91FF90EF90DF90CF9019
S1130720BF90AF909F908F907F906F905F904F900D
S11307303F902F901F900F900CBE0F900BBE0F9008
S11307400FBE0F9008950F920FB6F8940F920BB648
S11307500F920CB60F921F9211242F923F924F9238
S11307605F926F927F928F929F92AF92BF92CF923D
S1130770DF92EF92FF920F931F932F933F934F9328
S11307805F936F937F938F939F93AF93BF93CF9315
S1130790DF93EF93FF93A0914915B0914A150DB6DD
S11307A00D920EB60D9213BE0E94BB0C81110E94D5
S11307B0430FA0914915B0914A15CD91CDBFDD915C
S11307C0DEBFFF91EF91DF91CF91BF91AF919F91E8
S11307D08F917F916F915F914F913F912F911F91D5
S11307E00F91FF90EF90DF90CF90BF90AF909F90CC
S11307F08F907F906F905F904F903F902F901F90BD
S11308000F900CBE0F900BBE0F900FBE0F9008956B
S11308109ADF18950FB6F8940F92FC01868D81111A
S113082002C081E001C080E00F900FBE08950FB6B2
S1130830F8940F92FC01268D878D281302C081E065
S113084001C080E00F900FBE08950F931F93CF93C4
S1130850DF93EC01042F1E8D48A141110CC0888147
S11308609981892B09F042C08C819D810E94541189
S11308701D821C8242C0011117C050E08A819B81F5
S11308800E942D2928A18A819B81820F911D9B831F
S11308908A832C813D818217930750F18881998145
S11308A09B838A8380E029C050E08E819F810E94CF
S11308B02D2988A190E09195819591092E813F8100
S11308C0280F391F3F832E83488159812417350708
S11308D030F42C813D81820F931F9F838E830230DD
S11308E049F4112349F0115080E007C080E005C0AD
S11308F080E003C080E001C080E01F5F1E8FDF91B5
S1130900CF911F910F910895FC0140A14423A9F0B8
S113091050E026813781240F351F37832683848155
S113092095812817390720F08081918197838683E8
S1130930CB01668177810C942D2908951F93CF9361
S1130940DF93EC010FB6F8940F921AA10BC08B89B8
S1130950882351F0CE0143960E94011081110E9418
S11309603D11115011169CF38FEF8AA30F900FBE07
S11309700FB6F8940F9219A10BC08885882351F003
S1130980CE0108960E94011081110E943D11115060
S113099011169CF38FEF89A30F900FBEDF91CF91B7
S11309A01F910895CF93DF93EC010FB6F8940F9243
S11309B0E881F9818F8D28A190E030E0829FA00129
S11309C0839F500D929F500D11244E0F5F1F5D8326
S11309D04C831E8EFB83EA830197289FA001299FE5
S11309E0500D389F500D1124CF01840F951F9F8304
S11309F08E838FEF89A38AA361110BC08885882316
S1130A0071F0CE0108960E940110882341F03ADE6D
S1130A1006C0CE01089668DDCE01439665DD0F90D1
S1130A200FBE81E0DF91CF9108950F931F93F801DA
S1130A30611103C01183008302C051834083878FF7
S1130A4060A361E0CF01AEDF1F910F910895DF92A3
S1130A50EF92FF920F931F93CF93DF93F82EE62E1E
S1130A60D42E869FC0011124839658DCEC01009794
S1130A7041F08C012D2DAC014D5D5F4F6E2D8F2DFE
S1130A80D4DFCE01DF91CF911F910F91FF90EF90B2
S1130A90DF900895CF92DF92EF92FF920F931F930E
S1130AA0CF93DF93CDB7DEB729970FB6F894DEBFA7
S1130AB00FBECDBF7C016B012E833F8348875987CE
S1130AC010E00FB6F8940F92F701968D878D981762
S1130AD010F00230B1F4402FB601C701B6DEF701C1
S1130AE09389992341F0C70143960E9401108823FA
S1130AF021F0C8DD02C08111C5DD0F900FBE81E079
S1130B004CC08E819F81A885B985892B8A2B8B2B1C
S1130B1021F40F900FBE80E040C0111105C0CE013A
S1130B2001960E94C61011E00F900FBE10D70FB6A9
S1130B30F8940F92F70181A18F3F09F411A2F701F4
S1130B4082A18F3F09F412A20F900FBEBE016A5F0B
S1130B507F4FCE0101960E94D710811119C0C701A1
S1130B6066DE882381F04E815F8168857985C701BF
S1130B7008960E94A80FC701E1DE0E94E70D8111CB
S1130B80A0CF80DD9ECFC701D9DE0E94E70D99CFAB
S1130B90C701D4DE0E94E70D80E029960FB6F894D1
S1130BA0DEBF0FBECDBFDF91CF911F910F91FF909C
S1130BB0EF90DF90CF9008950F93009769F0FC01B8
S1130BC01582148211821082168200E020E030E047
S1130BD0A90160E070E05EDF0F910895CF93DF9389
S1130BE0482F60E081E033DFEC01E6DFCE01DF91E6
S1130BF0CF910895EF92FF920F931F93CF93DF93BA
S1130C008A01FC01568D378D531710F02230F9F408
S1130C10422F7801EC011AA18E8DCE0116DE1F3F02
S1130C2081F48B898823A9F0CE0143960E94011098
S1130C30882389F0E114F10481F081E0F7018083D5
S1130C400DC0FF24F394F10EFAA281E007C080E006
S1130C5005C081E003C081E001C081E0DF91CF9154
S1130C601F910F91FF90EF900895CF92DF92EF9232
S1130C70FF920F931F93CF93DF93CDB7DEB72997DE
S1130C800FB6F894DEBF0FBECDBF8C016B012E836F
S1130C903F8348875987E12C0FB6F8940F92F801E7
S1130CA0F68CFF2099F0B601C8012EDEFA94F80103
S1130CB0F68E8085882331F0C80108960E940110C1
S1130CC08111E0DC0F900FBE81E04FC08E819F81C7
S1130CD0A885B985892B8A2B8B2B21F40F900FBE05
S1130CE080E043C0E11006C0CE0101960E94C61008
S1130CF0EE24E3940F900FBE2AD60FB6F8940F9209
S1130D00F80181A18F3F09F411A2F80182A18F3F5C
S1130D1009F412A20F900FBEBE016A5F7F4FCE018D
S1130D2001960E94D710811117C0C80173DD882372
S1130D3079F04E815F8168857985C80143960E9468
S1130D40A80FC801FBDD43D78111A6CF9BDCA4CF3C
S1130D50C801F4DD3CD7A0CFC801F0DD38D7C80105
S1130D6059DD882309F498CF80E029960FB6F894CA
S1130D70DEBF0FBECDBFDF91CF911F910F91FF90CA
S1130D80EF90DF90CF900895CF93DF93EC010FB6EF
S1130D90F8940F9289A18F3F09F419A28AA18F3F79
S1130DA009F41AA20F900FBE8E8D811104C0CE01DA
S1130DB043960E94BF0FCE01C1DDDF91CF9108950C
S1130DC0FC014481558122813381240F351F8081A8
S1130DD09181B901681B790BCB016417750710F079
S1130DE0841B950B08950F93FC018FE0DF011D9286
S1130DF08A95E9F775876487558344833783268307
S1130E0006870F910895AF92BF92CF92DF92EF922F
S1130E10FF920F931F93CF93DF936C015B017A01D1
S1130E20FC01C281D381048115810C1B1D0B401769
S1130E30510708F48A01F60184859585A801B50156
S1130E408C0F9D1F0E942D290E151F0558F4A70114
S1130E50401B510BB501600F711FF6018485958508
S1130E600E942D29CE018E0D9F1DF601248135810E
S1130E708217930710F0821B930BF60193838283EE
S1130E80C701DF91CF911F910F91FF90EF90DF90F9
S1130E90CF90BF90AF900895CF92DF92EF92FF92E0
S1130EA00F931F93CF93DF931F921F92CDB7DEB79B
S1130EB07C016B015A83498321153105C1F0FC0182
S1130EC0868580FD08C04217530708F49A013A83C7
S1130ED0298381E00FC02017310758F042E050E029
S1130EE0BE016F5F7F4FC7018EDF81E003C080E0EA
S1130EF001C080E0882331F049815A81B601C701DD
S1130F0082DF02C080E090E00F900F90DF91CF91DC
S1130F101F910F91FF90EF90DF90CF900895AF92C3
S1130F20BF92CF92DF92EF92FF920F931F93CF93D2
S1130F30DF937C015B01E9014217530708F4EA01DE
S1130F40209781F1F7010081118184819581801BB3
S1130F50910B6E018C179D0708F46C01F7016485F1
S1130F607585600F711FA601C5010E942D29CC163D
S1130F70DD0658F4AE014C195D09F70164857585E9
S1130F80C5018C0D9D1D0E942D290C0F1D1FF701FD
S1130F90848195810817190710F0081B190BF701B4
S1130FA011830083CE01DF91CF911F910F91FF90A8
S1130FB0EF90DF90CF90BF90AF9008956F927F92A3
S1130FC08F929F92AF92BF92CF92DF92EF92FF9255
S1130FD00F931F93CF93DF931F921F92CDB7DEB76A
S1130FE06C014B015A01790101151105B1F0FC01A5
S1130FF060807180A801BE016F5F7F4F90DF89819F
S11310009A81E01AF10AA816B90630F4F601718241
S11310106082A12CB12C01C05C019701A501B4012F
S1131020C6017DDF0F900F90DF91CF911F910F913B
S1131030FF90EF90DF90CF90BF90AF909F908F90F4
S11310407F906F900895CF92DF92EF92FF920F936B
S1131050CF93DF93EC016B01413011F401E001C047
S113106000E0C114D10419F4CC24C394D12CCE01D2
S11310704096C817D90720F4219650D97C0102C0A4
S1131080E12CF12CE114F10439F09601AE01B70121
S1131090615F7F4FC701A7DEC701DF91CF910F9139
S11310A0FF90EF90DF90CF9008950F930FB6F894D0
S11310B00F92FC0120853185232B71F42285338521
S11310C0232B61F42681378144815581648575859C
S11310D0068589DE81E003C080E001C080E00F90D6
S11310E00FBE0F910895FC01248135818081918187
S11310F0820F931F42815381841B950B01978217A2
S1131100930710F0821B930B08952F923F924F92F6
S11311105F926F927F928F929F92AF92BF92CF9283
S1131120DF92EF92FF920F931F93CF93DF93CDB78C
S1131130DEB72B970FB6F894DEBF0FBECDBF4C01C0
S11311407B876A871A010E831F8328873987FC01EE
S1131150848195810197268520FF0CC02A01F2E045
S11311604F0E511C8415950558F41E821F82188653
S1131170198606C08417950710F02A0101C02C01B6
S11311808E819F81A885B985892B8A2B8B2B09F4A5
S113119036C0CE010196E4D70FB6F8940F92C4017D
S11311A0A2DF3C018415950538F560E080E090E00D
S11311B00E946F140E944111F401938782870F905B
S11311C00FBEAE80BF80C884D984E12CF12C00E02E
S11311D010E0980140E050E0BA0180E00E94AF11B5
S11311E0F40113861286BE016A5F7F4FCE01019619
S11311F0DED7882389F205C00F900FBE02C0612C90
S1131200712C6114710419F4C4016DDF3C01820175
S11312109301A1016A857B85C4013EDE6C01892BA3
S1131220E9F0C401CDDDF4012681378182179307EB
S1131230A8F08DD3F40180859185892B71F0808588
S11312409185E12CF12C00E020E030E0A90160E080
S11312500E945612F40111861086B9D4C6012B9649
S11312600FB6F894DEBF0FBECDBFDF91CF911F91B3
S11312700F91FF90EF90DF90CF90BF90AF909F9031
S11312808F907F906F905F904F903F902F90089534
S1131290AF92BF92CF92DF92EF92FF920F931F9380
S11312A0CF93DF93EC017B015A0169018E8580FFA6
S11312B004C08A010E5F1F4F01C08A01CE0113DFF3
S11312C09C01A501B701CE01E7DD5C01892BC1F0CA
S11312D0CE0176DD2E813F818217930788F08885C1
S11312E09985892B69F088859985E12CF12C00E09A
S11312F020E030E0A90160E00E944D1319861886B1
S1131300C501DF91CF911F910F91FF90EF90DF9076
S1131310CF90BF90AF9008954F925F926F927F925B
S11313208F929F92AF92BF92CF92DF92EF92FF92F1
S11313300F931F93CF93DF93EC012B013A015801D4
S113134069018E8580FF05C06894882481F8912CFA
S113135002C0812C912CA114B104C104D10431F137
S11313600FB6F8940F92CE012BDD7C0188169906F6
S113137040F060E080E090E00E946F1482D799878B
S113138088870F900FBE8E149F0498F0E12CF12CE7
S113139000E010E0980140E050E0BA0180E0DFD7BF
S11313A019861886CE010CDD7C0103C0CE0108DD50
S11313B07C018E149F04E8F484019701A301B20117
S11313C0CE01FCDD6C01892BB1F0C1D28A859B85ED
S11313D0892B69F08A859B85E12CF12C00E020E0C3
S11313E030E0A90160E00E9456121B861A86EFD3F2
S11313F002C0C12CD12CC601DF91CF911F910F9156
S1131400FF90EF90DF90CF90BF90AF909F908F9020
S11314107F906F905F904F900895E091C314F09186
S1131420C414808181110CC08FEF9FEFDC01809385
S11314308D1490938E14A0938F14B09390140895E8
S1131440E091C314F091C4140780F085E02D8081ED
S11314509181A281B38180938D1490938E14A09373
S11314608F14B09390140895CF93DF93EC018B8D78
S11314709C8D0E943702CE010E943702DF91CF91EA
S113148008954F925F926F927F928F929F92AF9244
S1131490BF92CF92DF92EF92FF920F93CF93DF939D
S11314A02C015B014A013901E60165EA70E08B8D8C
S11314B09C8D0E9436298B8D9C8D21E0821A910887
S11314C0880E991EA114B10489F415C0822F90E0EE
S11314D0F501E80FF91F3081DE01A80FB91F5D96F1
S11314E03C938081882329F02F5F01C020E02031C4
S11314F068F31CA601C01D8E0A3008F009E00A8FAB
S11315000DA71EA6CE01029600D8CE010E960E940B
S11315108502DB87CA878AE090E0A0E0B0E0801B08
S11315209109A109B1098E879F87A88BB98BDF8B9D
S1131530CE8B84E0FE01BF96DF011D928A95E9F708
S11315401BAAA301B201C40154D899838883E1146E
S1131550F10419F0F701D183C083DF91CF910F918A
S1131560FF90EF90DF90CF90BF90AF909F908F90BF
S11315707F906F905F904F900895CF93C0E009C023
S11315802BE0C29FC001112485529B4E0E9474021D
S1131590CF5FCA30A8F380ED94E10E94740285EC19
S11315A094E10E94740286EB94E10E9474028BEA37
S11315B094E10E9474028FE994E10E94740280ED28
S11315C094E19093C4148093C31485EC94E19093B4
S11315D0C2148093C114CF910895CF93DF93EC018B
S11315E00FB6F8940F9280919E148F5F80939E148F
S11315F08091491590914A15892B51F4D0934A153D
S1131600C093491580919E14813091F4B6DF10C0C7
S11316108091981481110CC0E0914915F0914A15FC
S1131620928D8A8D891720F0D0934A15C09349155D
S1131630809191148F5F80939114EA8D8091991415
S11316408E1710F4E09399148BE08E9FF00111240F
S1131650E552FB4E0180F281E02DFF83EE8326816B
S1131660378139872887A681B7819E012E5F3F4F36
S113167015963C932E93149737832683EA8D8E9F79
S1131680F0011124E552FB4EFD87EC8780818F5FCA
S113169080830F900FBE80919814882351F0E091BD
S11316A04915F0914A15928D8A8D981710F40E946D
S11316B04203DF91CF910895CF93DF931BC00FB600
S11316C0F8940F92E091B214F091B314C085D185CF
S11316D0CE0102960E94C60280919E14815080938E
S11316E09E148091AA1481508093AA140F900FBE67
S11316F0CE01BADE8091AA148111E1CFDF91CF919E
S113170008958F929F92AF92BF92CF92DF92EF9201
S1131710FF92CF93DF936B017C01C42F80909A14C6
S113172090909B14A0909C14B0909D1480914915A6
S113173090914A1502960E94C6028FEFC816D806E9
S1131740E806F806B1F5CC23A1F1EFE9F4E1A181B3
S1131750B281C0914915D0914A15BF83AE83C0911F
S11317604915D0914A1516968D919C911797998792
S113177088871696CD91DC911797809149159091A1
S11317804A1502969D838C838091491590914A1540
S1131790029617969C938E931697A0914915B09133
S11317A04A151D96FC93EE931C9780818F5F80836E
S11317B03FC0C80CD91CEA1CFB1CE0914915F091F0
S11317C04A15C282D382E482F582C814D904EA0499
S11317D0FB0468F46091491570914A158091C11415
S11317E09091C2146E5F7F4F0E94890221C0609164
S11317F0491570914A158091C3149091C4146E5F79
S11318007F4F0E94890280918D1490918E14A09133
S11318108F14B0919014C816D906EA06FB0640F45A
S1131820C0928D14D0928E14E0928F14F092901482
S1131830DF91CF91FF90EF90DF90CF90BF90AF906A
S11318409F908F9008952F923F924F925F926F9244
S11318507F928F929F92AF92BF92CF92DF92EF923C
S1131860FF920F93CF93DF933C011B014A0129019F
S1131870CA010E948E016C01892B71F084E390E00F
S11318800E948E01EC01892B19F0DC8ECB8E06C0F0
S1131890C6010E94370202C0C0E0D0E0209761F088
S11318A0A12CB12C6E019201A401B101C301E9DDA7
S11318B0CE0193DE81E001C08FEFDF91CF910F91D4
S11318C0FF90EF90DF90CF90BF90AF909F908F905C
S11318D07F906F905F904F903F902F900895EF927C
S11318E0FF920F930F2EFBE8EF2EF4E1FF2EF02D65
S11318F000E020E030E040EC50E062E472E08DEC87
S113190090E0A1DF813011F40E9413158130C9F4F5
S1131910F8948FEF9FEFDC0180938D1490938E14D5
S1131920A0938F14B093901481E080939814109234
S11319309A1410929B1410929C1410929D140E945D
S11319401003809106020F91FF90EF90089580910B
S11319508A148F5F80938A1408950FB6F8940F92B7
S113196060919A1470919B1480919C1490919D1491
S11319700F900FBE0895CF92DF92EF92FF92CF9314
S1131980DF9380918A14811105C1C0909A14D0907C
S11319909B14E0909C14F0909D148FEFC81AD80A01
S11319A0E80AF80AC0929A14D0929B14E0929C140C
S11319B0F0929D14C114D104E104F104B1F48091B6
S11319C0C3149091C4142091C1143091C214309363
S11319D0C4142093C3149093C2148093C1148091AF
S11319E092148F5F8093921418DD80918D149091DE
S11319F08E14A0918F14B0919014C816D906EA06DB
S1131A00FB0620F480E0B2C081E001C080E0E091F8
S1131A10C314F091C414908191110CC04FEF5FEF87
S1131A20BA0140938D1450938E1460938F14709365
S1131A3090149CC0E091C314F091C4140780F08505
S1131A40E02D0084F185E02D42815381648175810C
S1131A50C416D506E606F70648F440938D14509351
S1131A608E1460938F147093901480C0A485B585F0
S1131A70C681D781208531853F832E83C085D1855A
S1131A80268137813D832C8311964D915C91129769
S1131A909F012E5F3F4F4217530731F44085518514
S1131AA012965C934E931197158614869C919150CF
S1131AB09C93A08DB18D109709F1C289D389448973
S1131AC055895F834E83C489D589428953895D834F
S1131AD04C8311966D917C911297AF01425F5F4FD9
S1131AE06417750731F44489558912965C934E93B3
S1131AF01197118E108E9C9191509C93A28D909170
S1131B0099149A1710F4A09399149BE09A9FD0010A
S1131B101124A552BB4E11960D90BC91A02DB783F4
S1131B20A68316964D915C91179751874087169618
S1131B30CD91DC9117973D832C8317963C932E937C
S1131B401697A28D9A9FD0011124A552BB4EB5873A
S1131B50A4879C919F5F9C93228DE0914915F091FD
S1131B604A15928D291708F04FCF51CFE0914915AE
S1131B70F0914A15E28D9BE0E99FF0011124E552B2
S1131B80FB4E9081923008F081E090919314911172
S1131B9016C016C08091941490919514A091961437
S1131BA0B09197140196A11DB11D80939414909344
S1131BB09514A0939614B093971480E001C081E02B
S1131BC0DF91CF91FF90EF90DF90CF900895CF9267
S1131BD0DF92EF92FF92CF93DF930FB6F8940F92B8
S1131BE080918A14815080938A1480918A1481117F
S1131BF0BEC080919E14811188C0BCC0E091BD1408
S1131C00F091BE140084F185E02DA08DB18DC289C0
S1131C10D389848995899F838E83C489D589828950
S1131C2093899D838C8311962D913C911297CF01BA
S1131C300E962817390731F48489958912969C9356
S1131C408E931197118E108E8C9181508C93A48554
S1131C50B585C681D781808591859F838E83C08514
S1131C60D185868197819D838C8311968D919C91DA
S1131C7012979F012E5F3F4F8217930731F480859F
S1131C80918512969C938E931197158614868C9148
S1131C9081508C93A28D809199148A1710F4A0938B
S1131CA099148BE08A9FD0011124A552BB4E119642
S1131CB00D90BC91A02DB783A68316964D915C918F
S1131CC01797518740871696CD91DC9117973D83DE
S1131CD02C8317963C932E931697A28D8A9FD0013E
S1131CE01124A552BB4EB587A4878C918F5F8C932A
S1131CF0928DA0914915B0914A155A968C919817D6
S1131D0030F081E08093931402C0E0E0F0E0809131
S1131D10B614811173CFEF2B09F07FDBC0909414BC
S1131D20D0909514E0909614F0909714C114D104B7
S1131D30E104F104A1F01FDE882319F081E080930F
S1131D40931481E0C81AD108E108F108A1F71092B0
S1131D5094141092951410929614109297148091E2
S1131D609314882331F00E94420381E003C080E091
S1131D7001C080E00F900FBEDF91CF91FF90EF90F4
S1131D80DF90CF9008958F929F92AF92BF92CF929F
S1131D90DF92EF92FF921F93CF93DF93EC016A01DE
S1131DA07B01D5DD80909A1490909B14A0909C1494
S1131DB0B0909D1488819981AA81BB81AC01BD0139
S1131DC04C0D5D1D6E1D7F1D88169906AA06BB0667
S1131DD060F4481759076A077B0798F48416950638
S1131DE0A606B70680F010E013C0481759076A0723
S1131DF07B0758F084169506A606B70640F010E057
S1131E0007C010E005C011E003C011E001C011E0FB
S1131E10488359836A837B83112341F0CB01BA0140
S1131E20681979098A099B0940E06BDCD0DE8111CD
S1131E3002C00E944203812FDF91CF911F91FF9036
S1131E40EF90DF90CF90BF90AF909F908F900895C8
S1131E50CF92DF92EF92FF926B017C01672B682B8C
S1131E60692B39F074DD40E0C701B6014ADCAFDE0E
S1131E7001C080E0811102C00E944203FF90EF90F4
S1131E80DF90CF90089580918A14882321F081E017
S1131E9080939314089510929314E0914915F0914E
S1131EA04A1520813181E0914915F0914A15838DBD
S1131EB0948D8217930760F06091491570914A15CB
S1131EC0635E7F4F8091491590914A150E94A11736
S1131ED08091991401C08150282F30E09BE0929F9B
S1131EE0F001939FF00D1124E552FB4E908199234C
S1131EF091F39BE0929FA001939F500D1124DF0169
S1131F000180F281E02D0480F581E02D1296FC938E
S1131F10EE93119742525B4EE417F50729F444817E
S1131F205581FD01528341839BE0929FF001939F71
S1131F30F00D1124E552FB4E0180F281E02D208545
S1131F40318530934A152093491580939914089547
S1131F50CF92DF92EF92FF926A017B016091491563
S1131F6070914A15625F7F4F0E94890241E0C70168
S1131F70B601C7DBFF90EF90DF90CF900895CF9329
S1131F80DF93FC01CB01BA01A181B281C091491553
S1131F90D0914A15BB8BAA8BC0914915D0914A1593
S1131FA016964D915C9117975D8B4C8B1696CD913F
S1131FB0DC9117974091491550914A15425F5F4F44
S1131FC05D834C834091491550914A15425F5F4FA0
S1131FD017965C934E931697A0914915B0914A15A4
S1131FE05996FC93EE93589730813F5F30832223B8
S1131FF019F06FEF7FEFCB01422F83DBDF91CF919D
S11320000895CF93DF93DC011796ED91FC91189717
S11320100084F185E02DA08DB18DC289D389848996
S113202095899F838E83C489D589828993899D8369
S11320308C8311968D919C9112979F01225F3F4F43
S11320408217930731F48489958912969C938E9311
S11320501197118E108E8C9181508C9380918A14DB
S1132060811152C0A485B585C681D78180859185AB
S11320709F838E83C085D185868197819D838C8340
S113208011968D919C9112979F012E5F3F4F82175D
S1132090930731F48085918512969C938E931197C2
S11320A0158614868C9181508C93A28D80919914FD
S11320B08A1710F4A09399148BE08A9FD0011124FD
S11320C0A552BB4E11960D90BC91A02DB783A6834B
S11320D016964D915C911797518740871696CD912E
S11320E0DC9117973D832C8317963C932E93169778
S11320F0A28D8A9FD0011124A552BB4EB587A48717
S11321008C918F5F8C931CC046EB54E1DA011196DD
S1132110CD91DC911297D38BC28B8E819F81958B4D
S1132120848B8E819F81DC0115963C932E931497AA
S11321303F832E83518F408FDA018C918F5F8C9374
S1132140928DE0914915F0914A15828D891720F4FA
S113215081E08093931401C080E0DF91CF910895D2
S11321600FB6F8940F9220919214FC0120834091B1
S11321709A1450919B1460919C1470919D14418306
S11321805283638374830F900FBE08952091921439
S1132190FC01208340919A1450919B1460919C14EB
S11321A070919D14418352836383748308958F9245
S11321B09F92AF92BF92CF92DF92EF92FF920F93D2
S11321C01F93CF93DF93FB010FB6F8940F92C09047
S11321D09A14D0909B14E0909C14F0909D14DC0110
S11321E011960D911D912D913C9114974601570123
S11321F0801A910AA20AB30A4081518162817381D3
S11322004F3FBFEF5B076B077B0739F1EC01B881E8
S1132210A0919214BA1759F0C016D106E206F3063B
S113222030F0108211821282138281E017C084166A
S11322309506A606B70658F4481959096A097B0990
S11322404083518362837383A1DF80E007C01082DF
S113225011821282138281E001C080E00F900FBED0
S1132260DF91CF911F910F91FF90EF90DF90CF906E
S1132270BF90AF909F908F90089581E080939314C6
S113228008958091491590914A1508958091981464
S1132290882331F080918A14811104C082E008956A
S11322A081E0089580E008950F931F93CF93DF9307
S11322B0FC01892B09F449C086A5815086A7228D8B
S11322C095A5291709F443C0811143C0EF018F017B
S11322D00E5F1F4FC8010E94C602EDA5EA8F8AE077
S11322E090E0A0E0B0E08E1B9109A109B1098E87AE
S11322F09F87A88BB98B809199148E1710F4E09363
S113230099148BE08E9FF0011124E552FB4E01805D
S1132310F281E02DFF83EE83268137813987288778
S1132320A681B78115961C930E9314971783068381
S1132330EA8D8E9FF0011124E552FB4EFD87EC8758
S113234080818F5F808381E005C080E003C080E0EE
S113235001C080E0DF91CF911F910F9108954F92BA
S11323605F926F927F92AF92BF92CF92DF92EF9281
S1132370FF920F931F93CF93DF93280139010FB678
S1132380F8940F92E0914915F0914A15C82FD0E0C6
S1132390EC0FFD1F83A9823071F1E0914915F09192
S11323A04A15CE01880F991F880F991FE80FF91F4E
S11323B087A590A9A1A9B2A940955095609570955B
S11323C0482359236A237B2347A750AB61AB72ABE5
S11323D0E0914915F0914A15EC0FFD1F81E083ABA4
S11323E0A114B104C104D10431F041E0C601B50126
S11323F088D90E9442030F900FBE0FB6F8940F9233
S1132400E114F104A1F0E0914915F0914A15CE01CF
S1132410880F991F880F991FE80FF91F87A590A9A6
S1132420A1A9B2A9F70180839183A283B383E09128
S11324304915F0914A15EC0FFD1F83A98230E9F488
S1132440E0914915F0914A15CE01880F991F880F24
S1132450991FE80FF91F87A590A9A1A9B2A94094D3
S1132460509460947094482259226A227B2247A691
S113247050AA61AA72AA81E001C080E020914915A6
S113248030914A15C20FD31F1BAA0F900FBEDF91C4
S1132490CF911F910F91FF90EF90DF90CF90BF905D
S11324A0AF907F906F905F904F9008958F929F921E
S11324B0AF92BF92EF92FF920F93CF93DF93DC0121
S11324C00FB6F8940F92E114F10489F0E62FF0E0CE
S11324D0EE0FFF1FEE0FFF1FE80FF91F87A490A850
S11324E0A1A8B2A8F70180829182A282B38270E08F
S11324F0FD01E60FF71F83A992E093AB023001F1CF
S113250018F4013031F04DC0033079F10430D1F1C9
S113251048C0660F771F660F771FFD01E60FF71F90
S113252087A490A8A1A8B2A8BA01A9014829592949
S11325306A297B2947A750AB61AB72AB01E034C079
S1132540660F771F660F771FFD01E60FF71F47A57C
S113255050A961A972A94F5F5F4F6F4F7F4F47A783
S113256050AB61AB72AB01E01FC0660F771F660F03
S1132570771FFD01E60FF71F27A730AB41AB52AB26
S113258001E012C0823079F0660F771F660F771F63
S1132590FD01E60FF71F27A730AB41AB52AB01E0BB
S11325A003C001E001C000E0813009F069C01C965D
S11325B0ED91FC911D971696CD91DC911797189685
S11325C08D919C9119979F838E831896CD91DC9160
S11325D0199716968D919C9117979D838C83818171
S11325E092819D012E5F3F4F8217930731F4189615
S11325F08D919C911997928381831D961C921E92B2
S11326001C978081815080835A96EC915A978091CF
S113261099148E1710F4E09399148BE08E9FF001B7
S11326201124E552FB4E0180F281E02D1796FC93B4
S1132630EE9316974681578119965C934E9318979B
S1132640C681D7813D832C83378326835A96EC91A8
S11326505A978E9FF0011124E552FB4E1D96FC9370
S1132660EE931C9780818F5F80835A969C91E091B2
S11326704915F0914A15828D891710F40E9442037E
S11326800F900FBE802FDF91CF910F91FF90EF90AD
S1132690BF90AF909F908F9008958F929F92AF922A
S11326A0BF92CF92DF92EF92FF920F93CF93DF937B
S11326B0DC01E114F10489F0E62FF0E0EE0FFF1FD6
S11326C0EE0FFF1FE80FF91F87A490A8A1A8B2A8D6
S11326D0F70180829182A282B38270E0FD01E60F4D
S11326E0F71F93A982E083AB023001F118F40130A3
S11326F031F04DC0033079F10430D1F148C0660F98
S1132700771F660F771FFD01E60FF71F87A490A8B8
S1132710A1A8B2A8BA01A901482959296A297B2983
S113272047A750AB61AB72AB81E034C0660F771F33
S1132730660F771FFD01E60FF71F47A550A961A992
S113274072A94F5F5F4F6F4F7F4F47A750AB61AB8D
S113275072AB81E01FC0660F771F660F771FFD0104
S1132760E60FF71F27A730AB41AB52AB81E012C095
S1132770923079F0660F771F660F771FFD01E60F21
S1132780F71F27A730AB41AB52AB81E003C081E018
S113279001C080E0913009F096C090918A149111A3
S11327A05FC01C96ED91FC911D971696CD91DC911E
S11327B0179718962D913C9119973F832E8318965D
S11327C0CD91DC91199716962D913C9117973D83E5
S11327D02C83418152819D012E5F3F4F4217530745
S11327E031F418964D915C911997528341831D964B
S11327F01C921E921C979081915090835A96EC9152
S11328005A97909199149E1710F4E09399149BE0B1
S11328109E9FF0011124E552FB4E0180F281E02DD0
S11328201796FC93EE9316974681578119965C93FD
S11328304E931897C681D7813D832C833783268393
S11328405A96EC915A979E9FF0011124E552FB4E43
S11328501D96FC93EE931C9790819F5F908321C0FB
S113286066EB74E1FB01C181D2815396DC93CE9374
S113287052972E813F8155963C932E9354974E81C7
S11328805F819D01225F3F4FFA01358324833F839B
S11328902E8359967C936E935897FB0190819F5F8A
S11328A090835A962C91E0914915F0914A15928D96
S11328B0921748F4C114D10419F091E0F601908301
S11328C091E090939314DF91CF910F91FF90EF904B
S11328D0DF90CF90BF90AF909F908F900895009716
S11328E021F48091491590914A150FB6F8940F92EE
S11328F070E0FC01E60FF71F23A9223031F4FC013C
S1132900E60FF71F13AA81E001C080E00F900FBE0D
S11329100895DC01E0915515F0915615808191E000
S1132920811190E09C93911108C00780F085E02DFF
S11329306081718182819381089560E070E0CB01B0
S11329400895CF92DF92EF92FF920F931F93FC01B1
S1132950428353836483758393878287041715079F
S113296026073707C0F00C191D092E093F09868573
S11329709785A089B189081719072A073B0700F52D
S1132980BF016E5F7F4F80915315909154150E9443
S1132990890280E018C00C151D052E053F0528F49A
S11329A04C155D056E057F0568F4BF016E5F7F4FB2
S11329B080915515909156150E94890280E003C0BC
S11329C081E001C081E01F910F91FF90EF90DF90B3
S11329D0CF9008950FB6F8940F928091511590916D
S11329E05215892BE9F482E695E10E94740287E589
S11329F095E10E94740282E695E1909356158093C6
S1132A00551587E595E1909354158093531540E04F
S1132A1067E08AE00E942705909352158093511530
S1132A200F900FBE0895EF92FF920F93D3DF809122
S1132A30511590915215892B91F00F2EFFE4EF2E32
S1132A40F5E1FF2EF02D03E020E030E040EC50E013
S1132A5067E472E087ED90E00E94230C01C080E0FF
S1132A600F91FF90EF9008958F929F92AF92BF9233
S1132A70CF92DF92EF92FF920F931F93CF93DF9346
S1132A80CDB7DEB727970FB6F894DEBF0FBECDBF24
S1132A90E0915115F0915215309781F169832A83A1
S1132AA03B834C835D839F838E836630F4F4EEDB3B
S1132AB0823069F400E0A7019601BE016F5F7F4F89
S1132AC080915115909152150E944A0518C000E05A
S1132AD020E030E0A901BE016F5F7F4F8091511566
S1132AE0909152150E944A050AC020E0A801BE0137
S1132AF06F5F7F4FCF010E94FA0501C080E02796E7
S1132B000FB6F894DEBF0FBECDBFDF91CF911F91FA
S1132B100F91FF90EF90DF90CF90BF90AF909F9078
S1132B208F9008958F929F92AF92BF92CF92DF922F
S1132B30EF92FF920F931F93CF93DF933BC00780D5
S1132B40F085E02D80809180A280B380C085D185FE
S1132B508E010E5F1F4FC8010E94C602EC89FD89D9
S1132B60CE0119958E8982FF25C08E859F85A889FF
S1132B70B989880D991DAA1DBB1D88169906AA0638
S1132B80BB0670F48A839B83AC83BD83DB87CA87CF
S1132B90B80180915515909156150E9489020AC07A
S1132BA0C12CD12C760100E010E0A501940160E075
S1132BB0CE015ADFE0915515F091561580818111AF
S1132BC0BECF8091531590915415909356158093D0
S1132BD05515F0935415E0935315DF91CF911F9140
S1132BE00F91FF90EF90DF90CF90BF90AF909F90A8
S1132BF08F900895CF92DF92EF92FF92CF93DF935D
S1132C00EC010E94AD0C6B017C0180914B159091FD
S1132C104C15A0914D15B0914E15C816D906EA066B
S1132C20FB0620F47FDF81E0888301C01882C09214
S1132C304B15D0924C15E0924D15F0924E15C701EC
S1132C40B601DF91CF91FF90EF90DF90CF90089580
S1132C504F925F926F927F928F929F92AF92BF92A8
S1132C60CF92DF92EF92FF920F931F93CF93DF9354
S1132C704B015C0129013A01E0915515F09156157B
S1132C800780F085E02DC085D185CE0102960E9493
S1132C90C6028E8982FF1BC04E855F85688979894B
S1132CA0480D591D6A1D7B1D750164019301820144
S1132CB0CE0147DE882369F0C12CD12C760100E0D7
S1132CC010E0A501940160E0CE01CEDE02C08E7F4B
S1132CD08E8BEC89FD89CE011995DF91CF911F91DF
S1132CE00F91FF90EF90DF90CF90BF90AF909F90A7
S1132CF08F907F906F905F904F9008958F929F92E6
S1132D00AF92BF92CF92DF92EF92FF921F93CF9335
S1132D10DF931F92CDB7DEB76B017C01142F0E94A5
S1132D20A70CCE01019666DF4B015C0189818111FC
S1132D302DC011110DC08C149D04AE04BF0440F0CD
S1132D400E94E70DA5019401C701B60181DF20C0EF
S1132D50112341F0E0915315F0915415808111E055
S1132D60811110E0B701A601481959096A097B09C4
S1132D70212F80915115909152150E94C4060E94F2
S1132D80E70D811105C00E94420302C00E94E70DB5
S1132D900F90DF91CF911F91FF90EF90DF90CF9034
S1132DA0BF90AF909F908F900895AF92BF92CF92B3
S1132DB0DF92EF92FF920F931F93CF93DF93CDB7E0
S1132DC0DEB728970FB6F894DEBF0FBECDBF82C022
S1132DD0898188230CF47EC0AE80BF80D5011C9607
S1132DE08D919C911D97892B21F0C50102960E941B
S1132DF0C602CE010896FEDE8B019C01E9810E2EEF
S1132E00000CFF0BEA30F10508F064C08827EE5887
S1132E10FF4F8F4F0C940028F50186898160868BC3
S1132E20CA80DB80EC80FD80468557856089718986
S1132E304C0D5D1D6E1D7F1DC50183DD882309F4C6
S1132E4049C0D5015496ED91FC915597C50119954A
S1132E50F501868982FF3EC04A815B816C817D8158
S1132E6086859785A089B1899A01AB01280F391FFE
S1132E704A1F5B1FC12CD12C760100E010E060E0FA
S1132E80C501F2DD27C0D50156968C9156978E7FE9
S1132E9056968C931FC0F50186898160868B4A8182
S1132EA05B816C817D8146875787608B718B400F76
S1132EB0511F621F731F68017901C50142DD0AC0F9
S1132EC0F501868981FD04C0C5010E94370202C054
S1132ED08E7F868B20E030E0A901BE016F5F7F4FBB
S1132EE080915115909152150E943506811170CF31
S1132EF028960FB6F894DEBF0FBECDBFDF91CF91F9
S1132F001F910F91FF90EF90DF90CF90BF90AF9003
S1132F100895089584B1806884B985B1806885B9BD
S1132F20089583B1806883B90895F4DF2FEF80E7B3
S1132F3092E0215080409040E1F700C00000F1DFB2
S1132F40F5CFE8DF2FEF87EA91E6215080409040EB
S1132F50E1F700C00000E5DFF5CF84D28823C1F09B
S1132F6066E070E080E090E00E94280F84E692E042
S1132F709F938F930E948C290F900F9006C063E05B
S1132F8070E080E090E00E94280F6CD28823B9F3AF
S1132F907ED260E070E0CB010E94280F78D28823B3
S1132FA011F166E070E080E090E00E94280F06C016
S1132FB063E070E080E090E00E94280F68D28823EC
S1132FC0B9F376D260936D1570936E1580936F1577
S1132FD09093701582D260937115709372158093DB
S1132FE0731590937415089588E391E0A0E0B0E020
S1132FF08093B7169093B816A093B916B093BA16E7
S11330000E94AD0C6093B3167093B4168093B516FA
S11330109093B6160E9408019093781580937715C3
S11330200E940801909376158093751596DFFECF64
S1133030CF93DF93EC010E94AD0C0E94AD0CCE0146
S1133040D3DF8EE992E00E949F29DF91CF9108950A
S1133050EF92FF920F938091BB169091BC16892B2F
S113306089F481E00E94EE059093BC168093BB1610
S1133070009741F000E020E030E0A90160E070E05A
S11330800E944A05E12CF12C03E020E030E040EC02
S113309050E064EA72E088E198E10E94230C0F9109
S11330A0FF90EF90089581B1816881B980E00E941A
S11330B0AB22C0D1811105C08AEA92E00E949F2907
S11330C0C7DF85E00E94B22360E070E081E03FD377
S11330D083E01AC10895E7DF0E946F0C80E090E05E
S11330E008950F931F93CF93DF93CDB7DEB7649703
S11330F00FB6F894DEBF0FBECDBF81E00E9400245E
S113310074D3F0D59F938F9380EB92E09F938F932A
S11331100E948C29E8D4E6D59F938F9383EC92E0A8
S11331209F938F930E948C298E010F5F1F4FC801BC
S11331306ED3D8D51F930F939F938F938CED92E00A
S11331409F938F930E948C29C8017DD3CBD59F93E5
S11331508F931F930F9380EF92E09F938F930E941E
S11331608C29A80165E073E086E293E09AD5BAD58C
S11331709F938F931F930F9385E093E09F938F9377
S113318086E293E09F938F9387E393E09F938F93DB
S11331900E948C298BD3A6D59F938F938DE693E0C1
S11331A09F938F930E948C290FB6F894DEBF0FBEB5
S11331B0CDBF81E075D496D59F938F938CE793E030
S11331C09F938F930E948C2984EF91E074D48AD5C5
S11331D09F938F9381E08F9384EF8F938DE993E096
S11331E09F938F930E948C290FB6F894DEBF0FBE75
S11331F0CDBF1AE080E060D3082F74D59F938F93DE
S11332001F921F938DEB93E09F938F930E948C29C1
S11332100F900F900F900F900F900F90083059F06F
S113322080E00E94642466E371E080E090E00E9404
S1133230280F1150F9F6083021F481E00E94462449
S113324009C081E00E94552480E00E9423240E944A
S11332504203FDCF64960FB6F894DEBF0FBECDBF18
S1133260DF91CF911F910F910895CF93DF9300D0F9
S11332701F92CDB7DEB781E0AAD262E070E080E0B1
S113328090E00E94280F80E0A2D266E970E080E01E
S113329090E00E94280F54D224DFE9E7F5E186E0AC
S11332A0818382E080830E94AD0C69837A838B835F
S11332B09C8348EA58E460E070E0CE0101960E94E5
S11332C0C30EE9E7F5E180E3828389E3838382E047
S11332D0848383EA858384E086838AE1878383E029
S11332E00E94762469E775E180E00FD3FBD49F93B5
S11332F08F938DED93E09F938F930E948C290F9071
S11333000F900F900F90D5CFEF92FF920F93E12C77
S1133310F12C082F20E030E048E851E062EF73E040
S113332085E399E10E94230C0F91FF90EF9008959B
S113333033D088F09F5790F0B92F9927B751A0F058
S1133340D1F0660F771F881F991F1AF0BA95C9F735
S113335012C0B13081F03AD0B1E0089537C0672F80
S1133360782F8827B85F39F0B93FCCF386957795E5
S11333706795B395D9F73EF49095809570956195CE
S11333807F4F8F4F9F4F089557FD9058440F551FFF
S113339059F05F3F71F04795880F97FB991F61F0D3
S11333A09F3F79F087950895121613061406551F4A
S11333B0F2CF4695F1DF08C0161617061806991FB6
S11333C0F1CF86957105610508940895E894BB27AB
S11333D066277727CB0197F908956530F1F4FA0150
S11333E080818F7390E0982F88272181822B90937E
S11333F00A02809309028281F0E48F9FC0011124A4
S1133400FA01238126952695822B909308028093B6
S1133410070281E080938F150895643051F080E0B5
S113342090E4909308028093070290930A02809399
S1133430090208950F931F930DEE19E120E034E281
S113344044EF50E060E087E20E9498249093911545
S11334508093901521E0892B09F020E0822F1F91A1
S11334600F9108958091901590919115009759F0BE
S113347040E060E070E00E94E924843031F410926E
S11334808F1580E0089582E0089583E00895809187
S1133490901590919115009739F064E00E943525BC
S11334A0853021F083E0089582E0089580E0089556
S11334B06091090270910A0280E090E00E94132753
S11334C020E030E048EC52E40E94782720E038EF16
S11334D04FE756E40C94A826089560910702709172
S11334E0080280E090E00E94132720E030E045E2EB
S11334F053E40E94782720E038EF4FE756E40E9417
S1133500A82620E030E040E252E40C9441260895DD
S11335100F931F93CF93DF931F921F92CDB7DEB704
S11335208C0119822DC0E091C915EC3250F481E070
S11335308E0F8093C915F0E0E550FA4E8A8180839E
S113354002C01092C9158A818A30D1F44091C915FC
S113355050E0FA01E750FA4E1082415051099E01A1
S11335602F5F3F4F6BEF75E18091CC159091CD1596
S11335700E944809898181110E9442031092C91551
S1133580BE016E5F7F4FC80150D5882361F20F9052
S11335900F90DF91CF911F910F9108950F931F9377
S11335A0CF93DF938C01EB018091CC159091CD15D5
S11335B00E945508B80182E995E10E946D2920977F
S11335C079F0E2E9F5E101900020E9F7319780E232
S11335D090E091838083BE0182E995E10E94622993
S11335E0E2E9F5E1DF010D900020E9F711978DE0A4
S11335F09AE011969C938E9312961C92019000204F
S1133600E9F73197E259F541AE2F82E995E1AC0132
S11336106A2F8091CE159091CF15B2D4811111C02B
S113362008E215E020E030E04DE250E065E576E1A7
S11336308091CC159091CD150E948C0985E596E179
S113364002C080E090E0DF91CF911F910F91089527
S11336502F923F924F925F926F927F928F929F929E
S1133660AF92BF92CF92DF92EF92FF920F931F938C
S1133670CF93DF935C01FC0101900020E9F73197BF
S11336806F01C81AD90A5C2C0F2EF2E98F2EF6E0CE
S11336909F2EF02DE12CF12C4C2C3701F4010181EB
S11336A01281E80109900020E9F72197C01BD10B92
S11336B03C2EF9E0CF16D10458F0F4012080FEE04E
S11336C02F1206C0B801C5010E943D29892B09F5B6
S11336D0442D351408F44C2F50E0B801C5010E9464
S11336E07429892B49F4F301EE0FFF1FE60DF71D32
S11336F0EE56F94F20800DC08FEFE81AF80AE3E088
S11337008E0E911CF1E1EF16F10439F6689422242F
S113371024F8822DDF91CF911F910F91FF90EF90AC
S1133720DF90CF90BF90AF909F908F907F906F90DD
S11337305F904F903F902F90089530DF89CF089588
S11337408091CC159091CD150C94550808958F92C5
S11337509F92AF92CF92EF920F931F93CF93C82F64
S11337608B0141E060E070E088EC90E00E94230867
S11337709093CD158093CC151093CB150093CA1557
S11337800F2EF8E88F2EFAE19F2EF02D6894AA24CC
S1133790A6F86894CC24C6F8E12C00E023E040E0CD
S11337A051EE60E070E08C2F1ED39093CF15809380
S11337B0CE15E7E0F1E0808180618083CF911F9195
S11337C00F91EF90CF90AF909F908F9008958823A2
S11337D031F0E8E0F1E080818F7E80830895E8E0B5
S11337E0F1E0808180618083089560E070E088E189
S11337F094E0D4DEE5E5F6E101900020E9F73197A5
S1133800E555F64181E0759708F080E00895CF937F
S1133810DF93EC0160E070E089E294E0BFDEE5E56F
S1133820F6E101900020E9F7E656F64139F465E542
S113383076E1CE010E946D2980E002C0188281E009
S1133840DF91CF910895FC0101900020E9F79F01D9
S1133850215131092817390729F4BC0187E594E07F
S11338606CCF089589E00895FC0101900020E9F7E8
S11338709F01215131092817390729F4BC0186E633
S113388094E05BCF089589E00895FC010190002045
S1133890E9F79F01215231092817390729F4BC019E
S11338A085E794E04ACF089589E0089560E070E0E8
S11338B084EB94E042CF08950F931F93E82FF0E038
S11338C0EE0FFF1FE257F94F608171818DEB94E099
S11338D034DF811114C008E215E020E030E04DE24D
S11338E050E065E576E18091CC159091CD150E946C
S11338F08C09882321F085E596E1AADE03C085E5DD
S113390096E1A6DE1F910F9108950F931F93CF9315
S1133910DF931F92CDB7DEB7DB0111969C9111970F
S1133920953108F0B4C0992381F160E070E0272F4D
S113393030E0462F50E0FD01E40FF51F928192958F
S11339409F709A3010F0995C01C0905DF901EA51C2
S1133950FA4E90832F5F3F4FFD01E40FF51F9281D4
S11339609F70492F50E04A30510514F0995C01C012
S1133970905DF901EA51FA4E90837E5F6F5F119674
S11339809C911197691798F201C070E0E72FF0E05D
S1133990EA51FA4E10824C91811103C086EC94E0F6
S11339A002C088EC94E026EE35E13F932F931F92FA
S11339B04F939F938F938CEC94E09F938F9388E223
S11339C096E19F938F930E94CF2960E070E088E294
S11339D096E1B3DE0FB6F894DEBF0FBECDBF811102
S11339E059C008E215E020E030E04DE250E065E522
S11339F076E18091CC159091CD150E948C09882395
S1133A0009F447C085E596E123DE8E3009F042C013
S1133A1087E089838091CA159091CB15892BA9F1F0
S1133A20BE016F5F7F4F85E596E168D18093D01525
S1133A30E981F0E0EB5AF94EDF010D900020E9F73F
S1133A401197AE1BBF0BAA2391F0BB27CD010197A1
S1133A509C0112F42F5F3F4F359527952093D11584
S1133A60AF014F5F5F4F64E182ED95E173D101E0F7
S1133A7010E020E030E046E150E060ED75E1809137
S1133A80CA159091CB150E9485088EE003C084E18D
S1133A9001C080E00F90DF91CF911F910F910895A5
S1133AA0813019F06CED74E002C065EB75E080EED6
S1133AB094E043CE08959F938F9381E195E09F9383
S1133AC08F9388E296E19F938F930E94CF2960E0C1
S1133AD070E088E296E131DE0F900F900F900F9026
S1133AE00F900F9008952F923F924F925F926F9292
S1133AF07F928F929F92AF92BF92CF92DF92EF927A
S1133B00FF920F931F93CF93DF93CDB7DEB7A097A8
S1133B100FB6F894DEBF0FBECDBF6EE375E08AE446
S1133B2095E03CDD95DD8111A3C080E2E2E2F2E0A4
S1133B30DE01119601900D928A95E1F79E012F5FA7
S1133B403F4F6901E12CF12C0F2EF6E5AF2EF5E085
S1133B50BF2EF02D08E216E10F2EFFE64F2EF5E002
S1133B605F2EF02D0F2EF6E88F2EF5E09F2EF02D10
S1133B700F2EF0EA6F2EF5E07F2EF02D3E2C2F2C29
S1133B80FF92EF92BF92AF921F930F930E94CF299F
S1133B9060E070E0C80102DD5BDD0F900F900F90D4
S1133BA00F900F900F90811163C032E03E15E8F43E
S1133BB0F60183818F9382818F9381818F9380819A
S1133BC08F93FF92EF925F924F921F930F930E94F5
S1133BD0CF2960E070E0C801E1DC3ADD0FB6F8946B
S1133BE0DEBF0FBECDBF811143C02F923F929F9283
S1133BF08F921F930F930E94CF2960E070E0C80159
S1133C00CDDC26DD0F900F900F900F900F900F904A
S1133C1081112EC02F923F927F926F921F930F9328
S1133C200E94CF2960E070E0C801B8DC11DD0F907C
S1133C300F900F900F900F900F90811119C03FEFCC
S1133C40E31AF30A84E0C80ED11C98E0E916F104E3
S1133C5009F094CF60E070E088EB95E09FDCF8DC3D
S1133C60811106C060E070E089EC95E097DCF0DC3F
S1133C70A0960FB6F894DEBF0FBECDBFDF91CF91F3
S1133C801F910F91FF90EF90DF90CF90BF90AF9076
S1133C909F908F907F906F905F904F903F902F9068
S1133CA00895EF92FF920F931F93CF93DF93EC014C
S1133CB08B017A0181E0F4DE81110DC0CE01D4DDE7
S1133CC0811109C0C801E1DD811105C0C701BBDD57
S1133CD0811101C0EBDDDF91CF911F910F91FF9016
S1133CE0EF90089590E0FC01EE0FFF1F8E0F9F1FD1
S1133CF0FC01EE56F94F818192810895DC01009711
S1133D0029F1FB012081FC0101900020E9F73197A2
S1133D10E81BF90B822F90E0E817F907C8F080E060
S1133D2008C0880F382F330F330F830F8053890F48
S1133D302F5FFD01E20FF11D908130ED390F3A3014
S1133D4010F49111EECFFB012083089580E00895D3
S1133D5080E008950F931F93CF93DF93DC01EA0172
S1133D602097E1F1FA0101900020E9F73197E41B73
S1133D70F50B329710F532C08D01040F151F30E09A
S1133D80AE01420F531FFA019081913428F09753EA
S1133D90592F5295507F03C0592F5295507F2C0FA5
S1133DA03D1FF9019181913410F0975301C0905354
S1133DB0950FF80190838F5F01C080E0282F220FB8
S1133DC0482F50E0FE0101900020E9F73197EC1BE9
S1133DD0FD0B4E175F0710F48613CECFDF91CF9102
S1133DE01F910F9108952F923F924F925F926F927D
S1133DF07F928F929F92AF92CF92EF92FF920F9306
S1133E001F93CF93DF93CDB7DEB7F82E2A013B0182
S1133E1088E090E00E9408288C018F2D90E0FC013E
S1133E20EE0FFF1FEE57F94E1183008301151105A4
S1133E3009F469C0880F991FFC01E55FFD4F80817B
S1133E409181D8018D939C938C2D90E0880F991FBC
S1133E50880F991F0E9408281C0186E090E00E94A8
S1133E6008287C014C2DB101F0D6F801F582E482DA
S1133E708A2D90E0880F991F880F991F0E940828A7
S1133E801C0186E090E00E9408287C014A2DB101C3
S1133E90DCD6D8011396FC92EE92129717969C9258
S1133EA08E921697FFB6F894ED91FC911197369780
S1133EB08081826080838D909C90C301B201B3D7CE
S1133EC020E030E040E051E40E9478279B01AC01FF
S1133ED060E074E284E79BE43BD720E030E040E814
S1133EE05FE3CFD625DAF40132976083D801ED91F0
S1133EF0FC911197359788E98083ED91FC91349773
S1133F0086E08083FFBEC801DF91CF911F910F919E
S1133F10FF90EF90CF90AF909F908F907F906F9095
S1133F205F904F903F902F900895CF93DF93DC01E3
S1133F30892B01F11296ED91FC9113979381828163
S1133F402581981B922384819817B1F0838126954B
S1133F502823C081D181C20FD11D68838F5F9581D1
S1133F6089238383ED91FC913597808180628083DE
S1133F7080E003C081E001C082E0DF91CF91089529
S1133F80EF92FF920F931F93CF93DF937C010097DF
S1133F9009F441C0DC011296ED91FC9113979381D1
S1133FA08281981B858198238481891B8617A8F1B7
S1133FB0662341F1842F952FDC016150462F50E098
S1133FC04F5F5F4F480F591FE701EA81FB819381DF
S1133FD082812581981B92238481981779F08C9192
S1133FE0938126952923608171818B01020F111D14
S1133FF0E80188839F5F8581982393831196A41792
S1134000B50711F7D701ED91FC9135978081806256
S1134010808380E003C081E001C082E0DF91CF9122
S11340201F910F91FF90EF9008950097D1F0DC015C
S11340301496ED91FC91159793818281981799F0CC
S11340409281858186958923A081B181A80FB11DB4
S11340508C91DB018C939F5F85819823928380E010
S1134060089581E0089583E008951F920F920FB69A
S11340700F9211240BB60F922F933F934F935F939C
S11340806F937F938F939F93AF93BF93CF93DF935C
S1134090EF93FF93A0918216B0918316109711F1BC
S11340A06091C6001496ED91FC91159793818281DD
S11340B02581981B92238481981761F0838126952A
S11340C02823C081D181C20FD11D68838F5F958160
S11340D0892383831696ED91FC911797309711F0FD
S11340E0CD011995FF91EF91DF91CF91BF91AF91E0
S11340F09F918F917F916F915F914F913F912F91FC
S11341000F900BBE0F900FBE0F901F9018951F922B
S11341100F920FB60F9211240BB60F922F938F9319
S11341209F93AF93BF93EF93FF93E0918216F09127
S113413083163097B9F00280F381E02D9381828158
S11341409817B1F092818581282F26952923A08183
S1134150B181A20FB11D2C919F5F8923828320938B
S1134160C6000BC0E1ECF0E080818F7D808305C048
S1134170E1ECF0E080818F7D8083FF91EF91BF912E
S1134180AF919F918F912F910F900BBE0F900FBE07
S11341900F901F9018951F920F920FB60F92112433
S11341A00BB60F922F933F934F935F936F937F932D
S11341B08F939F93AF93BF93CF93DF93EF93FF932B
S11341C0A0918416B0918516109711F16091CE00DC
S11341D01496ED91FC911597938182812581981B0A
S11341E092238481981761F0838126952823C081C6
S11341F0D181C20FD11D68838F5F95818923838309
S11342001696ED91FC911797309711F0CD01199501
S1134210FF91EF91DF91CF91BF91AF919F918F91DA
S11342207F916F915F914F913F912F910F900BBEB2
S11342300F900FBE0F901F9018951F920F920FB6FC
S11342400F9211240BB60F922F938F939F93AF93DA
S1134250BF93EF93FF93E0918416F0918516309706
S1134260B9F00280F381E02D938182819817B1F037
S113427092818581282F26952923A081B181A20FBF
S1134280B11D2C919F5F892382832093CE000BC0A4
S1134290E9ECF0E080818F7D808305C0E9ECF0E0FB
S11342A080818F7D8083FF91EF91BF91AF919F912A
S11342B08F912F910F900BBE0F900FBE0F901F90F8
S11342C018951F920F920FB60F9211240BB60F92EE
S11342D02F933F934F935F936F937F938F939F930A
S11342E0AF93BF93CF93DF93EF93FF93A091861681
S11342F0B0918716109711F16091D6001496ED9144
S1134300FC911597938182812581981B9223848146
S1134310981761F0838126952823C081D181C20F2B
S1134320D11D68838F5F9581892383831696ED91D0
S1134330FC911797309711F0CD011995FF91EF91EA
S1134340DF91CF91BF91AF919F918F917F916F91A9
S11343505F914F913F912F910F900BBE0F900FBE25
S11343600F901F9018951F920F920FB60F92112461
S11343700BB60F922F938F939F93AF93BF93EF93AB
S1134380FF93E0918616F09187163097B9F002807A
S1134390F381E02D938182819817B1F09281858118
S11343A0282F26952923A081B181A20FB11D2C911C
S11343B09F5F892382832093D6000BC0E1EDF0E058
S11343C080818F7D808305C0E1EDF0E080818F7D69
S11343D08083FF91EF91BF91AF919F918F912F9126
S11343E00F900BBE0F900FBE0F901F9018951F9249
S11343F00F920FB60F9211240BB60F922F933F9387
S11344004F935F936F937F938F939F93AF93BF93D8
S1134410CF93DF93EF93FF93A0918816B091891601
S1134420109711F1609136011496ED91FC91159756
S1134430938182812581981B92238481981761F04E
S1134440838126952823C081D181C20FD11D688321
S11344508F5F9581892383831696ED91FC9117973D
S1134460309711F0CD011995FF91EF91DF91CF9124
S1134470BF91AF919F918F917F916F915F914F9178
S11344803F912F910F900BBE0F900FBE0F901F9076
S113449018951F920F920FB60F9211240BB60F921C
S11344A02F938F939F93AF93BF93EF93FF93E091D9
S11344B08816F09189163097B9F00280F381E02DC7
S11344C0938182819817B1F092818581282F269556
S11344D02923A081B181A20FB11D2C919F5F892353
S11344E08283209336010BC0E1E3F1E080818F7D6C
S11344F0808305C0E1E3F1E080818F7D8083FF91BB
S1134500EF91BF91AF919F918F912F910F900BBE1F
S11345100F900FBE0F901F901895CF93DF931F92AB
S1134520CDB7DEB7BE016F5F7F4F80918A16909141
S11345308B167BDD8111F6CF898190E00F90DF919E
S1134540CF910895682F80918A1690918B16EDDC97
S113455080E090E008958F929F92AF92CF92EF9275
S11345600F93812C912C6894AA24A7F86894CC24E6
S1134570C7F8E12C00E023E040E051EE60E070E099
S113458032DC90938B1680938A16E1ECF6E183E19A
S113459092E091838083938382830F91EF90CF90F5
S11345A0AF909F908F90089590E0FC01EE0FFF1F55
S11345B0E80FF91FEE0FFF1FE457F94E2381211175
S11345C01FC09C01220F331FF901E80FF91FEE0FE2
S11345D0FF1FE457F94EA081B1814C91F901E80F16
S11345E0F91FEE0FFF1FE457F94E81E090E00280BF
S11345F002C0880F991F0A94E2F7842B8C930895C4
S1134600FC01EE0FFF1FDF01A80FB91FAA0FBB1F8C
S1134610A457B94E0D90BC91A02D2C91E80FF91F11
S1134620EE0FFF1FE457F94E81E090E0028002C0D4
S1134630880F991F0A94E2F7809582238C9308953A
S113464090E0FC01EE0FFF1FE80FF91FEE0FFF1FB4
S1134650E457F94E2381211120C09C01220F331FFE
S1134660F901E80FF91FEE0FFF1FE457F94EA0817F
S1134670B1814C91F901E80FF91FEE0FFF1FE457C8
S1134680F94E81E090E0028002C0880F991F0A94DD
S1134690E2F7809584238C930895FC01EE0FFF1FAD
S11346A0DF01A80FB91FAA0FBB1FA457B94E0D9065
S11346B0BC91A02D2C91E80FF91FEE0FFF1FE457BA
S11346C0F94E81E090E0028002C0880F991F0A949D
S11346D0E2F7822B8C930895CC24C394D12C689454
S11346E0BB24B2F8CCE8D6E110E08C81813081F0B3
S11346F018F1823061F5E881F9812081C6010A80D0
S113470002C0880F991F0A94E2F7822780831FC092
S11347108D818F5F863010F48D8319C01D82E881EE
S1134720F9812081C6010A8002C0880F991F0A946A
S1134730E2F7822780830BC00D81002329F0812FAB
S11347407FDF01500D8303C0BC82812F2DDF1F5FEB
S11347502696143051F66CE070E080E090E00E9400
S1134760280FC0CFEF92FF920F931F93CF93DF9345
S1134770082F80E487B9CCE8D6E10F2EF8E2EF2EBB
S1134780F12CF02DF982E88286E08A831B8214E002
S11347901C8380E009DF80E887B9FF82EE8287E02E
S11347A0888719861A8781E0FFDE80E283BB84E371
S11347B090E09D878C8785E08E871F86188B82E02A
S11347C0F3DE80E18093010182E091E09B8B8A8B90
S11347D01C8B1D8A1E8B83E0E7DEE12CF12C20E08C
S11347E030E040EC50E065EC76E08CE693E20E9429
S11347F0230CDF91CF911F910F91FF90EF900895BB
S1134800CF93DF9390E0FC01EE0FFF1FDF01A80FB1
S1134810B91FAA0FBB1FA457B94ECD91DC911197B4
S1134820488121E030E012960C90129702C0220FCA
S1134830331F0A94E2F724272883FD0181E084834F
S1134840DF91CF910895CF93DF9390E0FC01EE0FB9
S1134850FF1FDF01A80FB91FAA0FBB1FA457B94E32
S1134860CD91DC911197488121E030E012960C90B3
S1134870129702C0220F331F0A94E2F724272883D9
S1134880FD0182E08483DF91CF910895282F30E0E9
S1134890F901EE0FFF1FE20FF31FEE0FFF1FE457A6
S11348A0F94E93E09483CCCE0895282F30E0F9019B
S11348B0EE0FFF1FE20FF31FEE0FFF1FE457F94E39
S11348C094E0948371CE089590E0FC01EE0FFF1FF5
S11348D0DF01A80FB91FAA0FBB1FA457B94E26E0CA
S11348E015962C931597FD011482089590E0FC0110
S11348F0EE0FFF1FDF01A80FB91FAA0FBB1FA4579C
S1134900B94E15961C921597FD0114820895809155
S1134910B21681110CC08CE08093B8008FEF8093A5
S1134920BB0084E08093BC0081E08093B2160895BC
S1134930AF92BF92CF92DF92EF92FF920F931F93A9
S1134940CF93DF93A82EB62E69017A0184E090E01C
S11349505FD3EC01892B61F1A88281E0B81212C007
S1134960C701B60120EA36E841E050E027D3DA0176
S1134970C9014097A109B109B695A795979587955F
S1134980898311C0C701B60120E83AE146E050E04E
S113499015D3DA01C9014097A109B109B695A795C4
S11349A09795879589831B830A838C2F9D2F02C03B
S11349B080E090E0DF91CF911F910F91FF90EF90F5
S11349C0DF90CF90BF90AF9008958091BC0081702C
S11349D00895FF920F931F93CF93DF930097D1F124
S11349E04A30D0F5F42E8B01EC01EFDF811136C093
S11349F08091A5169091A616C817D90741F087DFB4
S1134A0089818093B800D093A616C093A51681E03F
S1134A108F0D8093A7168881880F8093A816FF2096
S1134A2089F0F801A9EAB6E14FEF4F0D642F70E069
S1134A30CB010196B801680F791F81918D93E61718
S1134A40F707D9F788EF8093210285EA8093BC00A9
S1134A5084E005C086E003C087E001C082E0DF9106
S1134A60CF911F910F91FF9008951F93CF93DF93E0
S1134A70009729F16B3028F5162FEC01A6DF811180
S1134A8022C08091A5169091A616C817D90741F0A7
S1134A903EDF89818093B800D093A616C093A516F3
S1134AA01093A7168881880F81608093A81688EFD9
S1134AB08093210285EA8093BC0085E005C086E0EE
S1134AC003C087E001C082E0DF91CF911F91089578
S1134AD01F920F920FB60F9211240BB60F922F93C1
S1134AE03F934F935F936F937F938F939F93AF9372
S1134AF0BF93EF93FF93E091B9008E2F90E0FC01F8
S1134B003897E135F10508F075C08827E458FF4F60
S1134B108F4F76C21092A416E091A4168091A71626
S1134B20E81770F481E08E0F8093A416F0E0E85546
S1134B30F94E80818093BB0085E88093BC0072C0ED
S1134B4084E98093BC008091A5169091A616DC019F
S1134B501296ED91FC911397309709F463C020E00D
S1134B6040E050E064E019955DC0E091A41681E056
S1134B708E0F8093A4168091BB00F0E0E855F94EA7
S1134B8080838091B900803411F41092A41620918E
S1134B90A41630E08091A71690E0019728173907F2
S1134BA024F485EC8093BC003DC085E88093BC0070
S1134BB039C08091BB00E091A416F0E0E855F94EAD
S1134BC0808384E98093BC008091A5169091A616F9
S1134BD0DC011296ED91FC911397309719F1209115
S1134BE0A71648EA56E165E019951CC085EA80934A
S1134BF0BC0018C08091B9008093210284E08093A6
S1134C00BC008091A5169091A616DC011296ED9138
S1134C10FC911397309731F020E040E050E0609130
S1134C2021021995FF91EF91BF91AF919F918F91BF
S1134C307F916F915F914F913F912F910F900BBE98
S1134C400F900FBE0F901F901895FC01411101C0E9
S1134C5000D3842F90E09C012150310982239323B7
S1134C60892B09F0F6D2413808F0F3D2128213826C
S1134C704483440F415045837183608380E090E016
S1134C8008955058BB27AA270ED021C112D130F065
S1134C9017D120F031F49F3F11F41EF407C10EF434
S1134CA0E095E7FBFDC0E92F0E94C41978F3BA1719
S1134CB0620773078407950720F079F4A6F50C942E
S1134CC0E6190EF4E0950B2EBA2FA02D0B01B901B5
S1134CD090010C01CA01A0011124FF27591B99F06E
S1134CE0593F50F4503E68F11A16F040A22F232F7A
S1134CF0342F4427585FF3CF469537952795A795CA
S1134D00F0405395C9F77EF41F16BA0B620B730B70
S1134D10840BBAF09150A1F0FF0FBB1F661F771FE1
S1134D20881FC2F70EC0BA0F621F731F841F48F496
S1134D30879577956795B795F7959E3F08F0B1CF1E
S1134D409395880F08F09927EE0F97958795089506
S1134D500DD0BDC0B5D048F0ACD038F021F45F3FE1
S1134D6021F09EC051110C94E719A0C00E94C419EF
S1134D7088F39923B9F35523A1F3951B550BBB274E
S1134D80AA2762177307840738F09F5F5F4F220FCB
S1134D90331F441FAA1FA9F334D00E2E3AF0E0E8C3
S1134DA031D091505040E695001CCAF72AD0FE2F0E
S1134DB028D0660F771F881FBB1F261737074807A1
S1134DC0AB07B0E809F0BB0B802DBF01FF27935858
S1134DD05F4F32F09E3F510570F062C00C94E719AA
S1134DE05F3FE4F3983ED4F3869577956795B7953E
S1134DF0F7959F5FC9F7880F911D9695879597F949
S1134E000895E1E0660F771F881FBB1F62177307C1
S1134E108407BA0720F0621B730B840BBA0BEE1FD6
S1134E2088F7E0950895E89409C097FB3EF49095BF
S1134E308095709561957F4F8F4F9F4F9923A9F06F
S1134E40F92F96E9BB279395F695879577956795FE
S1134E50B795F111F8CFFAF4BB0F11F460FF1BC042
S1134E606F5F7F4F8F4F9F4F16C0882311F096E9D5
S1134E7011C0772321F09EE8872F762F05C0662383
S1134E8071F096E8862F70E060E02AF09A95660F3C
S1134E90771F881FDAF7880F9695879597F90895F5
S1134EA097F99F6780E870E060E008959FEF80ECD9
S1134EB0089500240A94161617061806090608957C
S1134EC000240A9412161306140605060895092EE2
S1134ED00394000C11F4882352F0BB0F40F4BF2B51
S1134EE011F460FF04C06F5F7F4F8F4F9F4F089591
S1134EF00CD0EDCFDEDF28F0E3DF18F0952309F0C6
S1134F00CFCFD4CF11240C94E7190E94C41990F385
S1134F10959FC1F3950F50E0551F629FF001729F5A
S1134F20BB27F00DB11D639FAA27F00DB11DAA1F69
S1134F30649F6627B00DA11D661F829F2227B00DB6
S1134F40A11D621F739FB00DA11D621F839FA00D41
S1134F50611D221F749F3327A00D611D231F849F91
S1134F60600D211D822F762F6A2F11249F575040E8
S1134F7092F0E9F088234AF0EE0FFF1FBB1F661F73
S1134F80771F881F91505040A9F79E3F510578F034
S1134F9087CF0C94E7195F3FE4F3983ED4F38695EA
S1134FA077956795B795F795E7959F5FC1F7FE2BC2
S1134FB0880F911D9695879597F90895A1E21A2E69
S1134FC0AA1BBB1BFD010DC0AA1FBB1FEE1FFF1FA9
S1134FD0A217B307E407F50720F0A21BB30BE40BF9
S1134FE0F50B661F771F881F991F1A9469F7609540
S1134FF07095809590959B01AC01BD01CF010895FA
S1135000EE0FFF1F881F8BBF0790F691E02D1994B8
S11350100F931F93CF93DF938230910510F482E0B6
S113502090E0E091BF16F091C01620E030E0A0E0DF
S1135030B0E0309719F14081518102811381481702
S11350405907C8F08417950769F4109731F0129640
S11350500C93129713961C9327C00093BF161093BA
S1135060C01622C02115310519F04217530718F450
S11350709A01BD01EF01DF01F801DBCF21153105F4
S1135080F9F0281B390B2430310580F48A819B8187
S11350906115710521F0FB019383828304C0909311
S11350A0C0168093BF16FE01329644C0FE01E20F83
S11350B0F31F8193919322503109398328833AC095
S11350C02091BD163091BE16232B41F4209102028B
S11350D0309103023093BE162093BD162091000236
S11350E0309101022115310541F42DB73EB74091AD
S11350F0040250910502241B350BE091BD16F0917A
S1135100BE16E217F307A0F42E1B3F0B281739072E
S113511078F0AC014E5F5F4F2417350748F04E0F0F
S11351205F1F5093BE164093BD168193919302C0A6
S1135130E0E0F0E0CF01DF91CF911F910F9108954E
S1135140CF93DF93009709F481C0FC013297138257
S11351501282A091BF16B091C016109781F42081DD
S11351603181820F931F2091BD163091BE162817EE
S1135170390751F5F093BE16E093BD1667C0ED01F3
S113518020E030E0CE17DF0740F44A815B819E01C6
S113519041155105F1F0EA01F5CFD383C283408173
S11351A05181840F951FC817D90759F488819981B3
S11351B0840F951F0296918380838A819B819383B8
S11351C082832115310529F4F093C016E093BF16AC
S11351D03DC0E901FB83EA8349915991C40FD51F6E
S11351E0EC17FD0761F480819181840F951F02966D
S11351F0E90199838883828193819B838A83E0E098
S1135200F0E012968D919C911397009719F0FD018F
S1135210DC01F7CF8D919C9111979D012E5F3F4F3B
S1135220820F931F2091BD163091BE16281739079F
S113523069F4309729F41092C0161092BF1602C078
S113524013821282B093BE16A093BD16DF91CF9144
S1135250089581E090E0F8947DC3FB01DC0102C075
S113526001900D9241505040D8F70895DC0101C0DF
S11352706D9341505040E0F70895FB01519155233F
S1135280B1F0BF01DC01052E4D91442369F010D02B
S1135290D9F7CD010190002049F04D91411108D07A
S11352A0C9F3FB014111EECF81E090E0019708952D
S11352B0402539F0403229F440294B57465E08F026
S11352C018940895FB01DC010D900020E9F7119773
S11352D001900D920020E1F70895FB01DC0101909B
S11352E00D920020E1F70895FB01DC01415050408C
S11352F088F08D9181341CF08B350CF4805E6191C3
S113530061341CF06B350CF4605E861B611171F323
S1135310990B0895881BFCCFCF93DF93CDB7DEB7ED
S1135320AE014A5F5F4FFA0161917191AF018091C3
S1135330C3169091C41661D0DF91CF9108950F9355
S11353401F93CF93DF93E091C316F091C41623818A
S113535021FF1BC08C01D0E0C0E0F80181918F01D6
S11353606091C3167091C416DB011896ED91FC91FF
S11353701997882331F01995892B79F3DFEFCFEF53
S1135380ECCF8AE01995892B19F08FEF9FEF02C0BB
S11353908D2F9C2FDF91CF911F910F9108950F9323
S11353A01F93CF93DF93CDB7DEB72E970FB6F89444
S11353B0DEBF0FBECDBF0E891F8986E08C831A83A2
S11353C009838FEF9FE79E838D83AE01465E5F4F17
S11353D0688D798DCE01019610D0EF81F885E00FAC
S11353E0F11F10822E960FB6F894DEBF0FBECDBF0C
S11353F0DF91CF911F910F9108952F923F924F9279
S11354005F926F927F928F929F92AF92BF92CF9250
S1135410DF92EF92FF920F931F93CF93DF93CDB759
S1135420DEB72B970FB6F894DEBF0FBECDBF6C016D
S11354307B018A01FC0117821682838181FFBFC12F
S1135440CE0101963C01F6019381F70193FD85910C
S113545093FF81917F01882309F4ADC1853239F42A
S113546093FD859193FF81917F01853221F4B601EB
S113547090E0D6D1E8CF912C212C312CFFE1F3150B
S1135480D8F08B3279F038F4803279F08332A1F499
S1135490232D20611DC08D3261F0803369F4232DEA
S11354A0216016C0832D8260382EE32DE4603E2EE9
S11354B02AC0F32DF8601DC037FC2DC020ED280F45
S11354C02A3040F08E32B9F436FC75C1232D2064A5
S11354D0322E19C036FE06C08AE0989E200D112493
S11354E0922E11C0EAE02E9E200D1124222EF32DBF
S11354F0F0623F2E08C08C3621F4832D8068382E4C
S113550002C0883641F4F70193FD859193FF8191A0
S11355107F018111B3CF982F9F7D9554933028F448
S11355200C5F1F4F9FE399830DC0833631F083379F
S113553071F0833509F055C020C0F801808189835A
S11355400E5F1F4F88248394912C530112C02801AD
S1135550F2E04F0E511CF801A080B18036FE03C06A
S1135560692D70E002C06FEF7FEFC5014ED14C0191
S11355708201F32DFF773F2E15C0280122E0420E51
S1135580511CF801A080B18036FE03C0692D70E083
S113559002C06FEF7FEFC5012DD14C01F32DF068F0
S11355A03F2E820133FC19C0822D90E088169906A3
S11355B0A0F4B60180E290E033D12A94F5CFF5014E
S11355C037FC859137FE81915F01B60190E028D1C7
S11355D021102A9421E0821A91088114910479F708
S11355E0E1C0843611F0893639F5F80137FE07C079
S11355F060817181828193810C5F1F4F08C060813B
S11356007181072E000C880B990B0E5F1F4FF32D31
S1135610FF763F2E97FF09C0909580957095619510
S11356207F4F8F4F9F4FF0683F2E2AE030E0A30159
S113563033D1882E861844C0853731F4232D2F7E2C
S1135640B22E2AE030E025C0932D997FB92E8F36F3
S1135650C1F018F4883579F0AEC0803719F0883776
S113566021F0A9C0E92FE061BE2EB4FE0DC0FB2DD0
S1135670F460BF2E09C034FE0AC0292F2660B22E62
S113568006C028E030E005C020E130E002C020E19F
S113569032E0F801B7FE07C0608171818281938195
S11356A00C5F1F4F06C06081718180E090E00E5F47
S11356B01F4FA301F1D0882E8618FB2DFF773F2EB4
S11356C036FE0DC0232D2E7FA22E891458F434FEED
S11356D00BC032FC09C0832D8E7EA82E05C0B82CC9
S11356E0A32C03C0B82C01C0B92CA4FE0FC0FE012A
S11356F0E80DF11D8081803321F49A2D997EA92E25
S113570009C0A2FE06C0B394B39404C08A2D86785F
S113571009F0B394A3FC10C0A0FE06C0B21480F438
S1135720280C922C9B180DC0B21458F4B60180E2D8
S113573090E076D0B394F8CFB21418F42B1802C0CA
S1135740982C212CA4FE0FC0B60180E390E068D011
S1135750A2FE16C0A1FC03C088E790E002C088E561
S113576090E0B6010CC08A2D867851F0A1FE02C0EB
S11357708BE201C080E2A7FC8DE2B60190E050D03C
S1135780891430F4B60180E390E04AD09A94F8CFBB
S11357908A94F301E80DF11D8081B60190E040D0B8
S11357A08110F6CF222009F44ECEB60180E290E0BB
S11357B037D02A94F7CFF6018681978102C08FEF04
S11357C09FEF2B960FB6F894DEBF0FBECDBFDF91CF
S11357D0CF911F910F91FF90EF90DF90CF90BF90EA
S11357E0AF909F908F907F906F905F904F903F907D
S11357F02F900895FC010590615070400110D8F776
S1135800809590958E0F9F1F0895FC016150704004
S113581001900110D8F7809590958E0F9F1F0895E1
S11358200F931F93CF93DF93FB01238121FD03C0CB
S11358308FEF9FEF2CC022FF16C046815781248131
S113584035814217530744F4A081B1819D012F5F34
S11358503F4F318320838C93268137812F5F3F4FC5
S11358603783268314C08B01EC01FB010084F1858E
S1135870E02D1995892BE1F6D80116968D919C910E
S11358801797019617969C938E931697CE01DF91E6
S1135890CF911F910F910895FA01AA27283051F151
S11358A0203181F1E8946F936E7F6E5F7F4F8F4F4D
S11358B09F4FAF4FB1E03ED0B4E03CD0670F781FAC
S11358C0891F9A1FA11D680F791F8A1F911DA11D91
S11358D06A0F711D811D911DA11D20D009F46894CA
S11358E03F912AE0269F11243019305D3193DEF672
S11358F0CF010895462F4770405D4193B3E00FD028
S1135900C9F7F6CF462F4F70405D4A3318F0495D12
S113591031FD4052419302D0A9F7EACFB4E0A695F5
S11359209795879577956795BA95C9F70097610517
S1135930710508959B01AC010A2E0694579547956D
S113594037952795BA95C9F7620F731F841F951F62
S10B5950A01D0895F894FFCF97
S11359580000C71620000900400040C600CE00D64B
S11359680036010000000300000000A2228D22007E
S113597800F8A027BE33E034C1332042C43360E5C5
S1135988AE33A0F2B133E0FFB433200DB833601A5C
S1135998BB3349444C4500546D722053766300442C
S11359A8726976657220646F65736E2774207374E8
S11359B8617274000A202D2D2D54656D702F687541
S11359C86D69646974792073656E736F7220636F8F
S11359D8756C646E27742077616B6520757020740C
S11359E87279696E6720616761696E2D2D00546153
S11359F8736B34005461736B33005461736B300000
S1135A08466163746F72795265736574203E2573B9
S1135A183C0A00436F6E66696775726520746F206F
S1135A284555383638203E25733C0A0047657420AE
S1135A384857455549203E25733C3A2025730A00AA
S1135A48536574204465764555493A202573203EAC
S1135A5825733C0A004530353937424638383546CF
S1135A683146313843463839364239314638453279
S1135A7831313831340034394233363045454531D3
S1135A8836413844344300536574204F544141200F
S1135A984964656E74697479206170704555493A32
S1135AA82573206170704B45593A257320646576D7
S1135AB84555493A2573203E25733C0A00536176BF
S1135AC865206D6163203E25733C0A00536574208C
S1135AD8416461707469766520446174612052611F
S1135AE874653A204F4E203E25733C0A0053657472
S1135AF82052656365697665722044656C61793AFC
S1135B08202564206D73203E25733C0A004A6F6982
S1135B186E204E6574776F726B2054726965734C8E
S1135B286566743A2564203E25733C0A0055706CFA
S1135B386F6164204D657373616765203E25733C0E
S1135B480A004C5248616E6400737973207265735D
S1135B586574006D6163207061757365006D6163C0
S1135B6820726573756D650073797320666163745B
S1135B786F7279524553455400737973206765747D
S1135B88206877657569006D6163206765742067AF
S1135B98776E62006D616320736574206C696E6B47
S1135BA863686B202564006D6163207365742064E9
S1135BB86576657569006D6163207365742061702D
S1135BC870657569006D6163207365742061707018
S1135BD86B6579006D616320736574206E776B73F0
S1135BE86B6579006D6163207365742061707073EF
S1135BF86B6579006D6163207365742064657661F3
S1135C08646472006D61632073617665006D61631D
S1135C18206A6F696E00756E636E66006D6163203D
S1135C287478202573202564202573006F66660028
S1135C386D61632073657420616472006D61632013
S1135C4867657420616472006D61632073657420F4
S1135C586472202564006D61632067657420647232
S1135C68006D61632073657420727864656C617972
S1135C7831202564006D616320736574206172208E
S1135C882573006D61632067657420617200332099
S1135C98383639353235303030006D6163207365FC
S1135CA87420727832006D616320736574206368B0
S1135CB820646379636C6520256420373939006D65
S1135CC8616320736574206368206672657120259A
S1135CD86420256C75006D616320736574206368A6
