S0120000342E53656D65737465722E7372656368
S1130000E5C0000004C1000002C1000000C10000FE
S1130010FEC00000FCC00000FAC00000F8C00000F0
S1130020F6C00000F4C00000F2C00000F0C0000000
S1130030B8C70000ECC00000EAC00000E8C000003F
S1130040E6C00000E4C00000E2C00000E0C0000020
S1130050DEC00000DCC00000DAC00000D8C0000030
S1130060D6C000000C941E290C947029D0C0000046
S1130070CEC00000CCC00000CAC00000C8C0000050
S1130080C6C00000C4C00000C2C00000C0C0000060
S11300900C94B4290C94062ABAC000000C94512E76
S11300A0B6C00000B4C00000B2C00000B0C0000080
S11300B0AEC00000ACC00000AAC00000A8C0000090
S11300C0A6C00000A4C00000A2C000000C944A2AEC
S11300D00C949C2A9CC000000C94E02A0C94322BB3
S11300E096C00000AB1DAB1DAB1DE21DEA1DFF1D3C
S11300F0AB1DAB1DE21DEA1D732EE32EE32EE32E92
S1130100E32EE32EE32EE32E732EE32EE32EE32ED3
S1130110E32EE32EE32EE32E752EE32EE32EE32EC1
S1130120E32EE32EE32EE32EE32EE32EE32EE32E43
S1130130E32EE32EE32EE32E752EE32EE32EE32EA1
S1130140E32EE32EE32EE32EE32EE32EE32EE32E23
S1130150E32EE32EE32EE32EDF2EE32EE32EE32E17
S1130160E32EE32EE32EE32EAA2EE32EE32EE32E3C
S1130170E32EE32EE32EE32EE32EE32EE32EE32EF3
S1130180E32EE32EE32EE32E9E2EE32EE32EE32E28
S1130190E32EE32EE32EE32EC22E0E94EC0F809179
S11301A06916823008F037D60E94281EF6CFCF9306
S11301B0DF931F92CDB7DEB7CE0101960E94281BB4
S11301C049810E941D1D0E94741DF6CF11241FBE7B
S11301D0CFEFD1E2DEBFCDBF00E00CBF18E0A0E05E
S11301E0B2E0EEEBFAE600E00BBF02C007900D921E
S11301F0A634B107D9F728E1A6E4B8E001C01D92FE
S1130200AF3AB207E1F70E9440210C945D35F8CE75
S1130210EF92FF920F93E12CF12C082F20E030E0B5
S113022040EC50E06FE672E088EC91E00E94B3107D
S11302300F91FF90EF9008954F925F926F927F928B
S1130240AF92BF92CF92DF92EF92FF920F931F93E0
S1130250CF93DF93CDB7DEB766970FB6F894DEBFC2
S11302600FBECDBF5C012A013B0143E050E060E0DA
S113027070E080915E1890915F1818D3CC24CA94D2
S1130280DC2C760101E021E043E050E060E070E026
S113029080917E1890917F1869D26093641870934E
S11302A065188093661890936718DC01CB018370FE
S11302B09927AA27BB270397A105B10509F053C0C5
S11302C00E94501F0E941D1F0E94501F9F938F93D6
S11302D08BE792E09F938F930E943F320E945B1FB3
S11302E00E94241F0E945B1F9F938F9385E992E0D5
S11302F09F938F930E943F3281D00E94161F7ED01D
S11303009F938F938DEA92E09F938F930E943F3245
S113031062E0CE0101960E942B1F86E1FE01319618
S1130320A8E6B8E101900D928A95E1F763E070E0E8
S113033080E090E00E94B8130FEF1FEF980146E1B0
S113034050E068E678E180915C1890915D180E9415
S11303500F0DB301A201C5010E9453130FB6F89407
S1130360DEBF0FBECDBF66960FB6F894DEBF0FBEDC
S1130370CDBFDF91CF911F910F91FF90EF90DF9050
S1130380CF90BF90AF907F906F905F904F90089503
S1130390CF93DF9300D01F92CDB7DEB70E943D11FB
S11303A069837A838B839C8348EA58E460E070E035
S11303B0CE01019641DFF8CF909382188093811883
S11303C041E050E060E070E080917E1890917F18E9
S11303D06DC20895EF92FF920F93E12CF12C082F38
S11303E020E030E040EC50E06FEB72E083E392E019
S11303F00E94B3100F91FF90EF900895809181189F
S1130400909182180895CF92DF92EF92FF920F930A
S1130410CC24CA94DC2C760101E021E042E050E0D7
S113042060E070E080915E1890915F189FD161FF49
S113043014C066E070E080E090E00E94B8130E946F
S11304407A2780938018882341F088EC92E09F9368
S11304508F930E943F320F900F900F91FF90EF9077
S1130460DF90CF9008958CED91E00E947527CBDF4B
S1130470FECF0F93CF93DF93EC014CE050E060E0AC
S113048070E080916218909163180E949D0A8130F7
S113049079F4D0938C18C0938B1800E020E030E0FE
S11304A0A90160E070E08091621890916318CBD646
S11304B0DF91CF910F9108950F93CF93DF93EC01C8
S11304C04FEF5FEFBA0180916218909163180E9418
S11304D09D0A813079F4D0939218C093911800E06A
S11304E020E030E0A90160E070E080916218909112
S11304F06318A9D6DF91CF910F9108950F93CF93ED
S1130500DF93EC014FEF5FEFBA0180916218909195
S113051063180E949D0A813079F4D0938E18C09399
S11305208D1800E020E030E0A90160E070E08091E7
S113053062189091631887D6DF91CF910F91089537
S11305400F93CF93DF93EC014FEF5FEFBA018091EC
S1130550621890916318F1D7813079F4D093901890
S1130560C0938F1800E020E030E0A90160E070E063
S1130570809162189091631866D6DF91CF910F91A4
S113058008958091911890919218089580918B18F4
S113059090918C18089580918F18909190180895D7
S11305A080918D1890918E180895EF92FF920F9379
S11305B02091601830916118E12CF12C082F48E843
S11305C051E06BED72E080E893E00E94B3100F916C
S11305D0FF90EF900895AF92BF92CF92DF92EF9287
S11305E0FF920F931F93CF93DF930FEF1FEF9801A9
S11305F046E150E066E478E08091601890916118DB
S11306000E94180E892B09F470C0C6E4D8E09981C1
S113061088811F929F931F928F938BEE92E09F93FA
S11306208F930E943F3289810F900F900F900F900B
S11306300F900F90883009F052C05E01EA80F12CCF
S1130640FE2CEE248B81E80EF11CFF92EF928DE1DB
S113065093E09F938F930E943F32CC80D12CDC2C6B
S1130660CC248D81C80ED11CDF92CF928FE293E00F
S11306709F938F930E943F32FE01CE81D0E0DC2F06
S1130680CC278781C80FD11DDF93CF9381E493E0FA
S11306909F938F930E943F32F501008510E0102F45
S11306A000278185080F111D1F930F9380E593E0A8
S11306B09F938F930E943F32C601DBDE802F912FE0
S11306C01DDFC701F9DE8C2F9D2F3ADF8DB79EB752
S11306D040960FB6F8949EBF0FBE8DBF06C064E56A
S11306E074E280E090E00E94B813DF91CF911F91F3
S11306F00F91FF90EF90DF90CF90BF90AF9008954F
S11307006ADFFECF0F9301110CC0DC01CB01822301
S11307109323A423B523892B8A2B8B2B79F480E094
S113072010C0DC01CB0182239323A423B523281713
S113073039074A075B0721F080E003C081E001C06C
S113074081E00F910895CF93DF938FE090E0AFD1D4
S1130750EC01009739F0FC0111921192119211925F
S1130760CF018BD2CE01DF91CF9108952F923F928A
S11307704F925F926F927F928F929F92AF92BF92AD
S1130780CF92DF92EF92FF920F931F93CF93DF9359
S1130790EC014A015B01622E702E0E943711288001
S11307A039804A805B80A5019401C201B101AADFAE
S11307B08823A1F0662089F1D501C4018095909524
S11307C0A095B09582219321A421B5218883998392
S11307D0AA83BB83C12CD12C760122C0C114D104BD
S11307E0E104F104E9F0611004C040E050E0BA0112
S11307F004C040E050E060E071E07110746048298A
S113080059296A297B2997018601CE0104960E9401
S11308104F14212C312C210103C0C12CD12C760181
S11308200E947712CD28CE28CF2859F1811101C01A
S1130830F2D20E9411186B017C0191FD1FC00FB60A
S1130840F8940F92C880D980EA80FB80072DA50117
S11308509401C701B60156DF882371F0662061F068
S113086080949094A094B0948C209D20AE20BF20BE
S113087088829982AA82BB820F900FBE160127013B
S11308805524C201B101DF91CF911F910F91FF90C7
S1130890EF90DF90CF90BF90AF909F908F907F901C
S11308A06F905F904F903F902F9008954F925F927A
S11308B06F927F92AF92BF92CF92DF92EF92FF92AC
S11308C00F931F93CF93DF93EC016A017B018C019B
S11308D0095F1F4F0E943711EB85FC858881998140
S11308E0AA81BB81C82AD92AEA2AFB2AC882D982CA
S11308F0EA82FB82C12CD12C76013DC0A480B58054
S113090080819181A281B381AC01BD017727B2FDC1
S11309100EC0488059806A807B804422552266221A
S1130920772245284628472889F420E012C04880C9
S113093059806A807B80442255226622772244159E
S113094055056605770521F020E003C021E001C0CC
S113095021E0222371F0B0FF04C0C42AD52AE62A7C
S1130960F72A488159816A817B817260CF010E9494
S11309708A15EA2DFB2DE017F10709F0BFCFC094CB
S1130980D094E094F09488819981AA81BB81C82293
S1130990D922EA22FB22C882D982EA82FB820E94FF
S11309A07712688179818A819B81DF91CF911F9130
S11309B00F91FF90EF90DF90CF90BF90AF907F901A
S11309C06F905F904F900895E8E6F8E0ACE6B8E0E9
S11309D0B183A08313821282E4E1F6E1F093670805
S11309E0E0936608138212821182108288EA9DE0E5
S11309F013969C938E931297ED93FC9390936308B4
S1130A0080936208909365088093640880E090E87E
S1130A1090935D0880935C080895CF93DF93EC0175
S1130A20A8E6B8E001C0DF01ED91FC911197EC1745
S1130A30FD07C8F312968D919C9113979D01280F81
S1130A40391FC217D30749F42A813B81820F931FB0
S1130A5013969C938E931297ED018A819B819E013C
S1130A60280F391FE217F307C1F42091660830916B
S1130A706708E217F30771F022813381820F931F15
S1130A809B838A83ED91FC91119780819181998355
S1130A90888305C03983288302C0F983E883CA1791
S1130AA0DB0711F0CD93DC93DF91CF910895EF92A2
S1130AB0FF920F931F93CF93DF938C010E94371102
S1130AC08091660890916708892B09F47DDF8091F5
S1130AD05C0890915D0880239123892B09F076C0EE
S1130AE00115110549F0C80104960817190718F0F3
S1130AF000E010E001C08C010115110509F469C082
S1130B0080916408909165088017910708F464C087
S1130B10C0916808D0916908E8E6F8E002C0FE01D7
S1130B20EC018A819B818017910720F48881998147
S1130B300097A9F78091660890916708C817D907AC
S1130B4009F44DC0E080F18084E0E80EF11C888156
S1130B509981918380832A813B81201B310B293029
S1130B60310548F0CE01800F911FFC0133832283AD
S1130B701B830A8352DF2A813B8180916408909110
S1130B806508821B930B90936508809364084091D9
S1130B906208509163088417950720F490936308C2
S1130BA08093620880915C0890915D08282B392B12
S1130BB03B832A831982188280916008909161088E
S1130BC0019690936108809360080BC0E12CF12C8E
S1130BD008C0E12CF12C05C0E12CF12C02C0E12C61
S1130BE0F12C0E947712E114F10411F40E94341ED6
S1130BF0C701DF91CF911F910F91FF90EF9008955E
S1130C000F931F93CF93DF93009791F1EC012497F7
S1130C104A815B8120915C0830915D08BA016223AE
S1130C207323672B29F168817981672B09F5209556
S1130C303095242335233B832A830E9437118A81EC
S1130C409B812091640830916508820F931F9093D3
S1130C50650880936408CE01E0DE80915E0890917F
S1130C605F08019690935F0880935E080E94771254
S1130C70DF91CF911F910F910895FC010396928308
S1130C8081834FEF5FEFBA01438354836583768397
S1130C90908787839287818710820895FC01138649
S1130CA0128608950F931F93CF93DF93EB0108816E
S1130CB019812A813B810F3F4FEF14072407340722
S1130CC021F4FC01A185B28511C0DC01139601C099
S1130CD0DF011496ED91FC91159740815181628159
S1130CE07381041715072607370790F71496ED91BB
S1130CF0FC911597FD83EC83D783C683BF83AE83B2
S1130D001596DC93CE9314979B878A87FC012081E8
S1130D102F5F2083DF91CF911F910F910895CF937F
S1130D20DF93FC01A285B385C481D5818681978137
S1130D309F838E83C681D781848195819D838C8393
S1130D4011968D919C911297E817F90731F48681D9
S1130D50978112969C938E931197138612868C9189
S1130D6081508C938C91DF91CF910895A89590EC4C
S1130D7088E10FB6F894A895809360000FBE909315
S1130D8060000895FC01608331977083319710826D
S1130D9031971082319720E8208331971082319760
S1130DA010823197108277974083319750838697CA
S1130DB00895DCDFA091D716B091D816CD91CDBFA0
S1130DC0DD91DEBFFF91EF91DF91CF91BF91AF91A4
S1130DD09F918F917F916F915F914F913F912F914F
S1130DE01F910F91FF90EF90DF90CF90BF90AF9045
S1130DF09F908F907F906F905F904F903F902F9037
S1130E001F900F900CBE0F900BBE0F900FBE0F9053
S1130E10089581E008950F920FB6F8940F920BB6DF
S1130E200F920CB60F921F9211242F923F924F9261
S1130E305F926F927F928F929F92AF92BF92CF9266
S1130E40DF92EF92FF920F931F932F933F934F9351
S1130E505F936F937F938F939F93AF93BF93CF933E
S1130E60DF93EF93FF93A091D716B091D8160DB6E8
S1130E700D920EB60D920E94D313A091D716B09185
S1130E80D816CD91CDBFDD91DEBFFF91EF91DF91FB
S1130E90CF91BF91AF919F918F917F916F915F910E
S1130EA04F913F912F911F910F91FF90EF90DF9001
S1130EB0CF90BF90AF909F908F907F906F905F90F6
S1130EC04F903F902F901F900F900CBE0F900BBE31
S1130ED00F900FBE0F9008950F920FB6F8940F92D3
S1130EE00BB60F920CB60F921F9211242F923F92C1
S1130EF04F925F926F927F928F929F92AF92BF9226
S1130F00CF92DF92EF92FF920F931F932F933F9311
S1130F104F935F936F937F938F939F93AF93BF93FD
S1130F20CF93DF93EF93FF93A091D716B091D81688
S1130F300DB60D920EB60D9213BE0E944B11811187
S1130F400E94D313A091D716B091D816CD91CDBFDE
S1130F50DD91DEBFFF91EF91DF91CF91BF91AF9112
S1130F609F918F917F916F915F914F913F912F91BD
S1130F701F910F91FF90EF90DF90CF90BF90AF90B3
S1130F809F908F907F906F905F904F903F902F90A5
S1130F901F900F900CBE0F900BBE0F900FBE0F90C2
S1130FA008959ADF1895DC0153962C9153972223C8
S1130FB041F05A96ED91FC915B9790818AE0891BF0
S1130FC0089580E008950FB6F8940F92FC01868D81
S1130FD0811102C081E001C080E00F900FBE08952E
S1130FE00FB6F8940F92FC01268D878D281302C04A
S1130FF081E001C080E00F900FBE08950F931F930E
S1131000CF93DF93EC01042F1E8D48A141110CC036
S113101088819981892B09F042C08C819D810E942D
S11310204F171D821C8242C0011117C050E08A81F3
S11310309B810E94E03128A18A819B81820F911DAE
S11310409B838A832C813D818217930750F1888189
S113105099819B838A8380E029C050E08E819F819F
S11310600E94E03188A190E09195819591092E81AB
S11310703F81280F391F3F832E83488159812417CC
S1131080350730F42C813D81820F931F9F838E831B
S1131090023049F4112349F0115080E007C080E088
S11310A005C080E003C080E001C080E01F5F1E8FA8
S11310B0DF91CF911F910F910895FC0140A144232A
S11310C0A9F050E026813781240F351F378326830A
S11310D0848195812817390720F080819181978335
S11310E08683CB01668177810C94E03108951F9348
S11310F0CF93DF93EC010FB6F8940F921AA10BC0B3
S11311008B89882351F0CE0143960E94DB14811110
S11311100E94B116115011169CF38FEF8AA30F9001
S11311200FBE0FB6F8940F9219A10BC088858823BF
S113113051F0CE0108960E94DB1481110E94B11671
S1131140115011169CF38FEF89A30F900FBEDF91FE
S1131150CF911F910895CF93DF93EC010FB6F894CC
S11311600F92E881F9818F8D28A190E030E0829F71
S1131170A001839F500D929F500D11244E0F5F1FAD
S11311805D834C831E8EFB83EA830197289FA00115
S1131190299F500D389F500D1124CF01840F951FA6
S11311A09F838E838FEF89A38AA361110BC08885E7
S11311B0882371F0CE0108960E94DB14882341F045
S11311C02ADE06C0CE01089658DDCE01439655DDD1
S11311D00F900FBE81E0DF91CF9108950F931F937D
S11311E0F801611103C01183008302C0518340835D
S11311F0878F60A361E0CF01AEDF1F910F91089547
S1131200DF92EF92FF920F931F93CF93DF93F82E09
S1131210E62ED42E869FC0011124839648DCEC016F
S1131220009741F08C012D2DAC014D5D5F4F6E2D6B
S11312308F2DD4DFCE01DF91CF911F910F91FF90BD
S1131240EF90DF900895CF92DF92EF92FF920F9389
S11312501F93CF93DF93CDB7DEB729970FB6F894DA
S1131260DEBF0FBECDBF7C016B012E833F83488759
S1131270598710E00FB6F8940F92F701968D878D79
S1131280981710F00230B1F4402FB601C701B6DE52
S1131290F7019389992341F0C70143960E94DB1417
S11312A0882321F0B8DD02C08111B5DD0F900FBE97
S11312B081E04CC08E819F81A885B985892B8A2BBA
S11312C08B2B21F40F900FBE80E040C0111105C09C
S11312D0CE0101960E943A1611E00F900FBEC7D7B7
S11312E00FB6F8940F92F70181A18F3F09F411A270
S11312F0F70182A18F3F09F412A20F900FBEBE0125
S11313006A5F7F4FCE0101960E944B16811119C06E
S1131310C70166DE882381F04E815F816885798507
S1131320C70108960E943814C701E1DE0E947712B3
S11313308111A0CF70DD9ECFC701D9DE0E94771244
S113134099CFC701D4DE0E94771280E029960FB6A8
S1131350F894DEBF0FBECDBFDF91CF911F910F91E7
S1131360FF90EF90DF90CF9008950F93009769F06E
S1131370FC011582148211821082168200E020E0A2
S113138030E0A90160E070E05EDF0F910895CF9333
S1131390DF93482F60E081E033DFEC01E6DFCE012C
S11313A0DF91CF910895EF92FF920F931F93CF9304
S11313B0DF938A01FC01568D378D531710F02230CC
S11313C0F9F4422F7801EC011AA18E8DCE0116DEBC
S11313D01F3F81F48B898823A9F0CE0143960E9494
S11313E0DB14882389F0E114F10481F081E0F70132
S11313F080830DC0FF24F394F10EFAA281E007C0AC
S113140080E005C081E003C081E001C081E0DF919C
S1131410CF911F910F91FF90EF900895CF92DF929B
S1131420EF92FF920F931F93CF93DF93CDB7DEB765
S113143029970FB6F894DEBF0FBECDBF8C016B01A8
S11314402E833F8348875987E12C0FB6F8940F9277
S1131450F801F68CFF2099F0B601C8012EDEFA944B
S1131460F801F68E8085882331F0C80108960E9421
S1131470DB148111D0DC0F900FBE81E04FC08E8150
S11314809F81A885B985892B8A2B8B2B21F40F90FA
S11314900FBE80E043C0E11006C0CE0101960E9459
S11314A03A16EE24E3940F900FBEE1D60FB6F894EB
S11314B00F92F80181A18F3F09F411A2F80182A1D2
S11314C08F3F09F412A20F900FBEBE016A5F7F4FD7
S11314D0CE0101960E944B16811117C0C80173DD1D
S11314E0882379F04E815F8168857985C8014396A8
S11314F00E943814C801FBDDFAD78111A6CF8BDC1A
S1131500A4CFC801F4DDF3D7A0CFC801F0DDEFD735
S1131510C80159DD882309F498CF80E029960FB6D5
S1131520F894DEBF0FBECDBFDF91CF911F910F9115
S1131530FF90EF90DF90CF900895EF92FF920F937A
S11315401F93CF93DF93CDB7DEB729970FB6F894E7
S1131550DEBF0FBECDBF8C014E835F836887798762
S1131560E12CF12C0FB6F8940F92F801868D8823A4
S1131570C9F08150868F80819181892B29F40E9442
S11315803B18F80195838483F8018085882331F022
S1131590C80108960E94DB1481113DDC0F900FBE38
S11315A081E06FC08E819F81A885B985892B8A2BA4
S11315B08B2B21F40F900FBE80E063C0F11006C0A6
S11315C0CE0101960E943A16FF24F3940F900FBEA9
S11315D04ED60FB6F8940F92F80181A18F3F09F40B
S11315E011A2F80182A18F3F09F412A20F900FBE3D
S11315F0BE016A5F7F4FCE0101960E944B16811196
S113160026C0C801E0DC8823F1F0F80180819181D3
S1131610892B51F40FB6F8940F92848195810E941E
S1131620C816E82E0F900FBE4E815F8168857985BC
S1131630C80143960E943814C80159DD58D7811156
S113164091CFE9DB8FCFC80152DD51D78BCFC801D1
S11316504EDD4DD7C801B7DC882309F483CFEE20D3
S113166079F00FB6F8940F92C8019DDC682FF80149
S1131670848195810E94AA170F900FBE80E001C05B
S113168080E029960FB6F894DEBF0FBECDBFDF9180
S1131690CF911F910F91FF90EF900895CF93DF9317
S11316A0EC010FB6F8940F9289A18F3F09F419A2A7
S11316B08AA18F3F09F41AA20F900FBE8E8D81115B
S11316C004C0CE0143960E949914CE0110DDDF912F
S11316D0CF910895FC014481558122813381240FE7
S11316E0351F80819181B901681B790BCB01641787
S11316F0750710F0841B950B08950F93FC018FE080
S1131700DF011D928A95E9F77587648755834483C1
S11317103783268306870F910895AF92BF92CF92A5
S1131720DF92EF92FF920F931F93CF93DF936C019D
S11317305B017A01FC01C281D381048115810C1BF8
S11317401D0B4017510708F48A01F601848595851D
S1131750A801B5018C0F9D1F0E94E0310E151F05D5
S113176058F4A701401B510BB501600F711FF6011E
S1131770848595850E94E031CE018E0D9F1DF60172
S1131780248135818217930710F0821B930BF60195
S113179093838283C701DF91CF911F910F91FF90B3
S11317A0EF90DF90CF90BF90AF900895CF92DF92EB
S11317B0EF92FF920F931F93CF93DF931F921F9289
S11317C0CDB7DEB77C016B015A83498321153105FE
S11317D0C1F0FC01868580FD08C04217530708F458
S11317E09A013A83298381E00FC02017310758F00A
S11317F042E050E0BE016F5F7F4FC7018EDF81E0A2
S113180003C080E001C080E0882331F049815A811F
S1131810B601C70182DF02C080E090E00F900F9014
S1131820DF91CF911F910F91FF90EF90DF90CF90B8
S11318300895AF92BF92CF92DF92EF92FF920F93EF
S11318401F93CF93DF937C015B01E9014217530798
S113185008F4EA01209781F1F70100811181848164
S11318609581801B910B6E018C179D0708F46C0108
S1131870F70164857585600F711FA601C5010E947B
S1131880E031CC16DD0658F4AE014C195D09F701C0
S113189064857585C5018C0D9D1D0E94E0310C0F7A
S11318A01D1FF701848195810817190710F0081B83
S11318B0190BF70111830083CE01DF91CF911F91A2
S11318C00F91FF90EF90DF90CF90BF90AF9008956D
S11318D06F927F928F929F92AF92BF92CF92DF923C
S11318E0EF92FF920F931F93CF93DF931F921F9258
S11318F0CDB7DEB76C014B015A0179010115110511
S1131900B1F0FC0160807180A801BE016F5F7F4F60
S113191090DF89819A81E01AF10AA816B90630F499
S1131920F60171826082A12CB12C01C05C01970187
S1131930A501B401C6017DDF0F900F90DF91CF9117
S11319401F910F91FF90EF90DF90CF90BF90AF90D9
S11319509F908F907F906F900895CF92DF92EF9237
S1131960FF920F93CF93DF93EC016B01413011F49D
S113197001E001C000E0C114D10419F4CC24C394E3
S1131980D12CCE014096C817D90720F421968FD8C0
S11319907C0102C0E12CF12CE114F10439F0960130
S11319A0AE01B701615F7F4FC701A7DEC701DF91B9
S11319B0CF910F91FF90EF90DF90CF9008950F9308
S11319C00FB6F8940F92FC0120853185232B71F416
S11319D022853385232B61F4268137814481558107
S11319E064857585068589DE81E003C080E001C0D9
S11319F080E00F900FBE0F910895FC012481358182
S1131A0080819181820F931F42815381841B950BA6
S1131A1001978217930710F0821B930B08952F925E
S1131A203F924F925F926F927F928F929F92AF926A
S1131A30BF92CF92DF92EF92FF920F931F93CF93B7
S1131A40DF93CDB7DEB72B970FB6F894DEBF0FBE8A
S1131A50CDBF4C017B876A871A010E831F832887B9
S1131A603987FC01848195810197268520FF0CC06C
S1131A702A01F2E04F0E511C8415950558F41E827C
S1131A801F821886198606C08417950710F02A014C
S1131A9001C02C018E819F81A885B985892B8A2B51
S1131AA08B2B09F438C0CE0101960E9424160FB680
S1131AB0F8940F92C401A1DF3C018415950540F50B
S1131AC060E080E090E00E940E1B0E94B516F401D5
S1131AD0938782870F900FBEAE80BF80C884D9845D
S1131AE0E12CF12C00E010E0980140E050E0BA0154
S1131AF080E00E944D18F40113861286BE016A5FCD
S1131B007F4FCE0101960E944B16882381F205C0B7
S1131B100F900FBE02C0612C712C6114710419F472
S1131B20C4016BDF3C0182019301A1016A857B85BD
S1131B30C4013CDE6C01892BE9F0C401CBDDF40166
S1131B402681378182179307A8F091D3F401808509
S1131B509185892B71F080859185E12CF12C00E031
S1131B6020E030E0A90160E00E94F518F40111863C
S1131B701086BDD4C6012B960FB6F894DEBF0FBEF7
S1131B80CDBFDF91CF911F910F91FF90EF90DF9028
S1131B90CF90BF90AF909F908F907F906F905F9009
S1131BA04F903F902F900895AF92BF92CF92DF92C3
S1131BB0EF92FF920F931F93CF93DF93EC017B017E
S1131BC05A0169018E8580FF04C08A010E5F1F4F90
S1131BD001C08A01CE0111DF9C01A501B701CE012C
S1131BE0E5DD5C01892BC1F0CE0174DD2E813F81DE
S1131BF08217930788F088859985892B69F08885F1
S1131C009985E12CF12C00E020E030E0A90160E0AE
S1131C100E94EC1919861886C501DF91CF911F9196
S1131C200F91FF90EF90DF90CF90BF90AF90089509
S1131C304F925F926F927F928F929F92AF92BF92D8
S1131C40CF92DF92EF92FF920F931F93CF93DF9384
S1131C50EC012B013A01580169018E8580FF05C012
S1131C606894882481F8912C02C0812C912CA114B1
S1131C70B104C104D10441F10FB6F8940F92CE011E
S1131C8029DD7C018816990648F060E080E090E048
S1131C900E940E1B0E94B516998788870F900FBE6D
S1131CA08E149F04A0F0E12CF12C00E010E09801C8
S1131CB040E050E0BA0180E00E944D181986188671
S1131CC0CE0108DD7C0103C0CE0104DD7C018E144D
S1131CD09F04E8F484019701A301B201CE01F8DD69
S1131CE06C01892BB1F0C3D28A859B85892B69F05D
S1131CF08A859B85E12CF12C00E020E030E0A901ED
S1131D0060E00E94F5181B861A86F1D302C0C12C2C
S1131D10D12CC601DF91CF911F910F91FF90EF90CD
S1131D20DF90CF90BF90AF909F908F907F906F90F7
S1131D305F904F900895E0915116F0915216808172
S1131D4081110CC08FEF9FEFDC0180931B169093E1
S1131D501C16A0931D16B0931E160895E0915116FB
S1131D60F09152160780F085E02D80819181A28147
S1131D70B38180931B1690931C16A0931D16B093E9
S1131D801E160895CF93DF93EC018B8D9C8D0E94DA
S1131D900006CE010E940006DF91CF9108954F9274
S1131DA05F926F927F928F929F92AF92BF92CF92E7
S1131DB0DF92EF92FF920F93CF93DF932C015B019D
S1131DC04A013901E60165EA70E08B8D9C8D0E9421
S1131DD0E9318B8D9C8D21E0821A9108880E991E21
S1131DE0A114B10489F415C0822F90E0F501E80F25
S1131DF0F91F3081DE01A80FB91F5D963C938081E5
S1131E00882329F02F5F01C020E0203168F31CA64D
S1131E1001C01D8E0A3008F009E00A8F0DA71EA626
S1131E20CE0102960E944E06CE010E960E944E06E8
S1131E30DB87CA878AE090E0A0E0B0E0801B9109CC
S1131E40A109B1098E879F87A88BB98BDF8BCE8BB5
S1131E5084E0FE01BF96DF011D928A95E9F71BAA73
S1131E60A301B201C4010E94C20699838883E114CC
S1131E70F10419F0F701D183C083DF91CF910F9161
S1131E80FF90EF90DF90CF90BF90AF909F908F9096
S1131E907F906F905F904F900895CF93C0E009C0FA
S1131EA02BE0C29FC00111248759994E0E943D0620
S1131EB0CF5FCA30A8F38EE596E10E943D0683E524
S1131EC096E10E943D0684E496E10E943D0689E382
S1131ED096E10E943D068DE296E10E943D068EE564
S1131EE096E1909352168093511683E596E1909370
S1131EF0501680934F16CF910895CF93DF93EC0142
S1131F000FB6F8940F9280912C168F5F80932C1645
S1131F108091D7169091D816892B51F4D093D81666
S1131F20C093D71680912C16813091F4B6DF10C07F
S1131F308091261681110CC0E091D716F091D81625
S1131F40928D8A8D891720F0D093D816C093D71616
S1131F5080911F168F5F80931F16EA8D809127163C
S1131F608E1710F4E09327168BE08E9FF001112456
S1131F70E759F94E0180F281E02DFF83EE8326813B
S1131F80378139872887A681B7819E012E5F3F4F0D
S1131F9015963C932E93149737832683EA8D8E9F50
S1131FA0F0011124E759F94EFD87EC8780818F5F9A
S1131FB080830F900FBE80912616882351F0E09104
S1131FC0D716F091D816928D8A8D981710F40E9426
S1131FD00B07DF91CF910895CF93DF931BC00FB60A
S1131FE0F8940F92E0914016F0914116C085D18586
S1131FF0CE0102960E948F0680912C168150809308
S11320002C16809138168150809338160F900FBE8D
S1132010CE01B8DE809138168111E1CFDF91CF91E6
S113202008958F929F92AF92BF92CF92DF92EF92D8
S1132030FF92CF93DF936B017C01C42F809028160D
S113204090902916A0902A16B0902B168091D7163E
S11320509091D81602960E948F068FEFC816D80664
S1132060E806F806B1F5CC23A1F1EDE2F6E1A18191
S1132070B281C091D716D091D816BF83AE83C091D8
S1132080D716D091D81616968D919C91179799874B
S113209088871696CD91DC9117978091D7169091E9
S11320A0D81602969D838C838091D7169091D8166A
S11320B0029617969C938E931697A091D716B0917B
S11320C0D8161D96FC93EE931C9780818F5F8083B6
S11320D03FC0C80CD91CEA1CFB1CE091D716F09138
S11320E0D816C282D382E482F582C814D904EA04E1
S11320F0FB0468F46091D7167091D81680914F163E
S1132100909150166E5F7F4F0E94520621C06091DD
S1132110D7167091D81680915116909152166E5F11
S11321207F4F0E94520680911B1690911C16A0911D
S11321301D16B0911E16C816D906EA06FB0640F411
S1132140C0921B16D0921C16E0921D16F0921E1619
S1132150DF91CF91FF90EF90DF90CF90BF90AF9041
S11321609F908F9008952F923F924F925F926F921B
S11321707F928F929F92AF92BF92CF92DF92EF9213
S1132180FF920F93CF93DF933C011B014A01290176
S1132190CA010E9457056C01892B71F084E390E019
S11321A00E945705EC01892B19F0DC8ECB8E06C0FA
S11321B0C6010E94000602C0C0E0D0E0209761F092
S11321C0A12CB12C6E019201A401B101C301E7DD80
S11321D0CE0193DE81E001C08FEFDF91CF910F91AB
S11321E0FF90EF90DF90CF90BF90AF909F908F9033
S11321F07F906F905F904F903F902F900895EF9253
S1132200FF920F930F2EF9E1EF2EF6E1FF2EF02D42
S113221000E020E030E040EC50E06FE573E08DEC4E
S113222090E0A1DF813011F40E94B21B8130C9F427
S1132230F8948FEF9FEFDC0180931B1690931C168C
S1132240A0931D16B0931E1681E08093261610925B
S113225028161092291610922A1610922B160E94F4
S1132260D906809106020F91FF90EF900895809116
S113227018168F5F8093181608950FB6F8940F926E
S1132280609128167091291680912A1690912B1628
S11322900F900FBE0895CF92DF92EF92FF92CF93EB
S11322A0DF9380911816811105C1C0902816D09033
S11322B02916E0902A16F0902B168FEFC81AD80A28
S11322C0E80AF80AC0922816D0922916E0922A1633
S11322D0F0922B16C114D104E104F104B1F48091FD
S11322E051169091521620914F16309150163093FA
S11322F05216209351169093501680934F16809146
S113230020168F5F8093201616DD80911B16909106
S11323101C16A0911D16B0911E16C816D906EA0601
S1132320FB0620F480E0B2C081E001C080E0E091CF
S11323305116F0915216908191110CC04FEF5FEF3E
S1132340BA0140931B1650931C1660931D1670938C
S11323501E169CC0E0915116F09152160780F0852C
S1132360E02D0084F185E02D4281538164817581E3
S1132370C416D506E606F70648F440931B16509398
S11323801C1660931D1670931E1680C0A485B58517
S1132390C681D781208531853F832E83C085D18531
S11323A0268137813D832C8311964D915C91129740
S11323B09F012E5F3F4F4217530731F440855185EB
S11323C012965C934E931197158614869C919150A6
S11323D09C93A08DB18D109709F1C289D38944894A
S11323E055895F834E83C489D589428953895D8326
S11323F04C8311966D917C911297AF01425F5F4FB0
S11324006417750731F44489558912965C934E9389
S11324101197118E108E9C9191509C93A28D909146
S113242027169A1710F4A09327169BE09A9FD001C1
S11324301124A759B94E11960D90BC91A02DB783C4
S1132440A68316964D915C911797518740871696EF
S1132450CD91DC9117973D832C8317963C932E9353
S11324601697A28D9A9FD0011124A759B94EB5870A
S1132470A4879C919F5F9C93228DE091D716F09145
S1132480D816928D291708F04FCF51CFE091D71667
S1132490F091D816E28D9BE0E99FF0011124E759F1
S11324A0F94E9081923008F081E0909121169111BB
S11324B016C016C08091221690912316A09124165E
S11324C0B09125160196A11DB11D809322169093FB
S11324D02316A0932416B093251680E001C081E052
S11324E0DF91CF91FF90EF90DF90CF900895CF923E
S11324F0DF92EF92FF92CF93DF930FB6F8940F928F
S113250080911816815080931816809118168111A5
S1132510BEC080912C16811188C0BCC0E0914B16BE
S1132520F0914C160084F185E02DA08DB18DC28907
S1132530D389848995899F838E83C489D589828927
S113254093899D838C8311962D913C911297CF0191
S11325500E962817390731F48489958912969C932D
S11325608E931197118E108E8C9181508C93A4852B
S1132570B585C681D781808591859F838E83C085EB
S1132580D185868197819D838C8311968D919C91B1
S113259012979F012E5F3F4F8217930731F4808576
S11325A0918512969C938E931197158614868C911F
S11325B081508C93A28D809127168A1710F4A093D2
S11325C027168BE08A9FD0011124A759B94E119682
S11325D00D90BC91A02DB783A68316964D915C9166
S11325E01797518740871696CD91DC9117973D83B5
S11325F02C8317963C932E931697A28D8A9FD00115
S11326001124A759B94EB587A4878C918F5F8C93F9
S1132610928DA091D716B091D8165A968C9198178E
S113262030F081E08093211602C0E0E0F0E0809178
S11326304416811173CFEF2B09F07DDBC090221675
S1132640D0902316E0902416F0902516C114D104DE
S1132650E104F104A1F01FDE882319F081E08093E6
S1132660211681E0C81AD108E108F108A1F71092F7
S11326702216109223161092241610922516809179
S11326802116882331F00E940B0781E003C080E00B
S113269001C080E00F900FBEDF91CF91FF90EF90CB
S11326A0DF90CF9008958F929F92AF92BF92CF9276
S11326B0DF92EF92FF921F93CF93DF93EC016A01B5
S11326C07B01D5DD8090281690902916A0902A16BB
S11326D0B0902B1688819981AA81BB81AC01BD0180
S11326E04C0D5D1D6E1D7F1D88169906AA06BB063E
S11326F060F4481759076A077B0798F4841695060F
S1132700A606B70680F010E013C0481759076A07F9
S11327107B0758F084169506A606B70640F010E02D
S113272007C010E005C011E003C011E001C011E0D2
S1132730488359836A837B83112341F0CB01BA0117
S1132740681979098A099B0940E06BDCD0DE8111A4
S113275002C00E940B07812FDF91CF911F91FF9040
S1132760EF90DF90CF90BF90AF909F908F9008959F
S1132770CF92DF92EF92FF926B017C01672B682B63
S1132780692B39F074DD40E0C701B6014ADCAFDEE5
S113279001C080E0811102C00E940B07FF90EF90FE
S11327A0DF90CF90089580911816882321F081E05E
S11327B080932116089510922116E091D716F09176
S11327C0D81620813181E091D716F091D816838DE7
S11327D0948D8217930760F06091D7167091D81684
S11327E0635E7F4F8091D7169091D8160E94401E49
S11327F08091271601C08150282F30E09BE0929FE2
S1132800F001939FF00D1124E759F94E908199231B
S113281091F39BE0929FA001939F500D1124DF013F
S11328200180F281E02D0480F581E02D1296FC9365
S1132830EE9311974459594EE417F50729F444814E
S11328405581FD01528341839BE0929FF001939F48
S1132850F00D1124E759F94E0180F281E02D208515
S113286031853093D8162093D71680932716089570
S1132870CF92DF92EF92FF926A017B016091D716AB
S11328807091D816625F7F4F0E94520641E0C701E3
S1132890B601C7DBFF90EF90DF90CF9008950F93C0
S11328A01F93CF93DF93FC01A091D716B091D81654
S11328B070681E964D935D936D937C935197A1819F
S11328C0B281C091D716D091D816BB8BAA8BC09178
S11328D0D716D091D81616968D919C9117979D8BEB
S11328E08C8B1696CD91DC9117978091D716909189
S11328F0D8160E969D838C838091D7169091D81606
S11329000E9617969C938E931697A091D716B09116
S1132910D8165996FC93EE93589780818F5F8083E5
S113292041E0C901B8017DDBDF91CF911F910F9187
S11329300895CF93DF93FC01CB01BA01A181B28149
S1132940C091D716D091D816BB8BAA8BC091D7163D
S1132950D091D81616964D915C9117975D8B4C8B40
S11329601696CD91DC9117974091D7165091D816B1
S1132970425F5F4F5D834C834091D7165091D816C8
S1132980425F5F4F17965C934E931697A091D716AC
S1132990B091D8165996FC93EE93589730813F5FC7
S11329A03083222319F06FEF7FEFCB01422F39DB05
S11329B0DF91CF910895CF93DF93DC011796ED91CA
S11329C0FC9118970084F185E02DA08DB18DC2890A
S11329D0D389848995899F838E83C489D589828983
S11329E093899D838C8311968D919C9112979F015D
S11329F0225F3F4F8217930731F484899589129699
S1132A009C938E931197118E108E8C9181508C9380
S1132A1080911816811152C0A485B585C681D781CD
S1132A20808591859F838E83C085D185868197819A
S1132A309D838C8311968D919C9112979F012E5F9B
S1132A403F4F8217930731F48085918512969C93AA
S1132A508E931197158614868C9181508C93A28D38
S1132A60809127168A1710F4A09327168BE08A9F6B
S1132A70D0011124A759B94E11960D90BC91A02DE7
S1132A80B783A68316964D915C911797518740871B
S1132A901696CD91DC9117973D832C8317963C9322
S1132AA02E931697A28D8A9FD0011124A759B94E4F
S1132AB0B587A4878C918F5F8C931CC044E456E146
S1132AC0DA011196CD91DC911297D38BC28B8E8152
S1132AD09F81958B848B8E819F81DC0115963C931D
S1132AE02E9314973F832E83518F408FDA018C915C
S1132AF08F5F8C93928DE091D716F091D816828DCA
S1132B00891720F481E08093211601C080E0DF91D1
S1132B10CF910895CF93DF93DC0170684D935D935B
S1132B206D937C9313971896ED91FC9119971A96CF
S1132B304D915C911B9714968D919C9115971696C7
S1132B402D913C911797EC013F832E8316968D911E
S1132B509C91179714962D913C911597EC013D8308
S1132B602C83EA0189819A81A817B90731F4169652
S1132B708D919C9117979A8389831B961C921E9220
S1132B801A97DA018C9181508C93A485B585C681FE
S1132B90D781808591859F838E83C085D1858681E9
S1132BA097819D838C8311968D919C9112979F019F
S1132BB02E5F3F4F8217930731F4808591851296DB
S1132BC09C938E931197158614868C9181508C93C7
S1132BD0A28D809127168A1710F4A09327168BE0F4
S1132BE08A9FD0011124A759B94E11960D90BC911A
S1132BF0A02DB783A68316964D915C9117975187A4
S1132C0040871696CD91DC9117973D832C831796B8
S1132C103C932E931697A28D8A9FD0011124A75915
S1132C20B94EB587A4878C918F5F8C93928DE09178
S1132C30D716F091D816828D891718F481E0809305
S1132C402116DF91CF9108950FB6F8940F92209139
S1132C502016FC012083409128165091291660917A
S1132C602A1670912B1641835283638374830F90C9
S1132C700FBE089520912016FC0120834091281650
S1132C805091291660912A1670912B164183528314
S1132C906383748308958F929F92AF92BF92CF9271
S1132CA0DF92EF92FF920F931F93CF93DF93FB0179
S1132CB00FB6F8940F92C0902816D0902916E09081
S1132CC02A16F0902B16DC0111960D911D912D9171
S1132CD03C91149746015701801A910AA20AB30A3B
S1132CE040815181628173814F3FBFEF5B076B0766
S1132CF07B0739F1EC01B881A0912016BA1759F07D
S1132D00C016D106E206F30630F010821182128258
S1132D10138281E017C084169506A606B70658F4F8
S1132D20481959096A097B09408351836283738373
S1132D30A1DF80E007C0108211821282138281E039
S1132D4001C080E00F900FBEDF91CF911F910F91D2
S1132D50FF90EF90DF90CF90BF90AF909F908F90B7
S1132D60089581E08093211608958091D71690915B
S1132D70D816089580912616882331F0809118166C
S1132D80811104C082E0089581E0089580E00895EF
S1132D900F931F93CF93DF93FC01892B09F477C022
S1132DA0828DA091D716B091D8165A969C91891706
S1132DB008F063C04685578560897189772394F04C
S1132DC0A091D716B091D8165A969C914AE050E03B
S1132DD060E070E0491B5109610971094687578712
S1132DE0608B718B248535854BE0849FC001112451
S1132DF08759994E28173907B9F5EF018F010E5FEE
S1132E001F4FC8010E948F06E091D716F091D81683
S1132E10E28DEA8F809127168E1710F4E09327161F
S1132E208BE08E9FF0011124E759F94E0180F28165
S1132E30E02DFF83EE832681378139872887A68199
S1132E40B78115961C930E93149717830683EA8D06
S1132E508E9FF0011124E759F94EFD87EC8780819C
S1132E608F5F808381E016C0A091D716B091D816E9
S1132E705A968C91828F81E00DC095A5E091D7166A
S1132E80F091D816828D981720F080E003C080E07E
S1132E9001C081E0DF91CF911F910F9108950F93AD
S1132EA01F93CF93DF93FC01892B09F449C086A5B6
S1132EB0815086A7228D95A5291709F443C0811155
S1132EC043C0EF018F010E5F1F4FC8010E948F06A0
S1132ED0EDA5EA8F8AE090E0A0E0B0E08E1B9109B6
S1132EE0A109B1098E879F87A88BB98B809127167A
S1132EF08E1710F4E09327168BE08E9FF0011124B7
S1132F00E759F94E0180F281E02DFF83EE8326819B
S1132F10378139872887A681B78115961C930E932C
S1132F20149717830683EA8D8E9FF0011124E759C5
S1132F30F94EFD87EC8780818F5F808381E005C037
S1132F4080E003C080E001C080E0DF91CF911F9159
S1132F500F9108950F931F93CF93DF93FC01892B57
S1132F6009F45AC085A5861708F4862F928D89170F
S1132F7009F452C026A5213009F04EC0828F46853F
S1132F80578560897189772364F04AE050E060E0F6
S1132F9070E0481B51096109710946875787608BA6
S1132FA0718B248535854BE0949FC001112487598A
S1132FB0994E2817390781F5EF018F010E5F1F4FD6
S1132FC0C8010E948F06EA8D809127168E1710F48F
S1132FD0E09327168BE08E9FF0011124E759F94EF8
S1132FE00180F281E02DFF83EE83268137813987CA
S1132FF02887A681B78115961C930E93149717837F
S11330000683EA8D8E9FF0011124E759F94EFD875E
S1133010EC8780818F5F8083DF91CF911F910F9127
S11330200895CF92DF92EF92FF92E091D716F0913C
S1133030D8166685778580899189E091D716F091B5
S1133040D816A091D716B091D8165A962C910F2E57
S1133050FAE0CF2ED12CE12CF12CF02DC21AD1089C
S1133060E108F108C686D786E08AF18AFF90EF90DE
S1133070DF90CF9008958091D7169091D816892B20
S113308039F0E091D716F091D81686A58F5F86A700
S11330908091D7169091D81608954F925F926F92AF
S11330A07F92AF92BF92CF92DF92EF92FF920F93F3
S11330B01F93CF93DF93280139010FB6F8940F9231
S11330C0E091D716F091D816C82FD0E0EC0FFD1F71
S11330D083A9823079F1E091D716F091D816CE0108
S11330E0880F991F880F991FE80FF91F87A590A9CA
S11330F0A1A9B2A94095509560957095482359238C
S11331006A237B2347A750AB61AB72ABE091D71620
S1133110F091D816EC0FFD1F81E083ABA114B1042C
S1133120C104D10439F041E0C601B5010E94111077
S11331300E940B070F900FBE0FB6F8940F92E11484
S1133140F104A1F0E091D716F091D816CE01880FC2
S1133150991F880F991FE80FF91F87A590A9A1A9A6
S1133160B2A9F70180839183A283B383E091D71638
S1133170F091D816EC0FFD1F83A98230E9F4E09199
S1133180D716F091D816CE01880F991F880F991F72
S1133190E80FF91F87A590A9A1A9B2A9409450945A
S11331A060947094482259226A227B2247A650AA2E
S11331B061AA72AA81E001C080E02091D716309103
S11331C0D816C20FD31F1BAA0F900FBEDF91CF9149
S11331D01F910F91FF90EF90DF90CF90BF90AF9031
S11331E07F906F905F904F9008958F929F92AF92CF
S11331F0BF92EF92FF920F93CF93DF93DC010FB650
S1133200F8940F92E114F10489F0E62FF0E0EE0F48
S1133210FF1FEE0FFF1FE80FF91F87A490A8A1A8B6
S1133220B2A8F70180829182A282B38270E0FD018C
S1133230E60FF71F83A992E093AB023001F118F473
S1133240013031F04DC0033079F10430D1F148C080
S1133250660F771F660F771FFD01E60FF71F87A420
S113326090A8A1A8B2A8BA01A901482959296A2994
S11332707B2947A750AB61AB72AB01E034C0660F4A
S1133280771F660F771FFD01E60FF71F47A550A9AB
S113329061A972A94F5F5F4F6F4F7F4F47A750AB34
S11332A061AB72AB01E01FC0660F771F660F771F1B
S11332B0FD01E60FF71F27A730AB41AB52AB01E08E
S11332C012C0823079F0660F771F660F771FFD01F9
S11332D0E60FF71F27A730AB41AB52AB01E003C0A9
S11332E001E001C000E0813009F069C01C96ED9155
S11332F0FC911D971696CD91DC91179718968D9198
S11333009C9119979F838E831896CD91DC91199780
S113331016968D919C9117979D838C8381819281C0
S11333209D012E5F3F4F8217930731F418968D91BC
S11333309C911997928381831D961C921E921C97CF
S11333408081815080835A96EC915A9780912716F8
S11333508E1710F4E09327168BE08E9FF001112452
S1133360E759F94E0180F281E02D1796FC93EE9314
S113337016974681578119965C934E931897C68188
S1133380D7813D832C83378326835A96EC915A97B1
S11333908E9FF0011124E759F94E1D96FC93EE938C
S11333A01C9780818F5F80835A969C91E091D716F9
S11333B0F091D816828D891710F40E940B070F9094
S11333C00FBE802FDF91CF910F91FF90EF90BF90B0
S11333D0AF909F908F9008958F929F92AF92BF92DB
S11333E0CF92DF92EF92FF920F93CF93DF93DC01A2
S11333F0E114F10489F0E62FF0E0EE0FFF1FEE0F69
S1133400FF1FE80FF91F87A490A8A1A8B2A8F7018D
S113341080829182A282B38270E0FD01E60FF71FE1
S113342093A982E083AB023001F118F4013031F04A
S11334304DC0033079F10430D1F148C0660F771FD5
S1133440660F771FFD01E60FF71F87A490A8A1A8B8
S1133450B2A8BA01A901482959296A297B2947A791
S113346050AB61AB72AB81E034C0660F771F660F5F
S1133470771FFD01E60FF71F47A550A961A972A99F
S11334804F5F5F4F6F4F7F4F47A750AB61AB72AB3E
S113349081E01FC0660F771F660F771FFD01E60FDF
S11334A0F71F27A730AB41AB52AB81E012C092307B
S11334B079F0660F771F660F771FFD01E60FF71F80
S11334C027A730AB41AB52AB81E003C081E001C020
S11334D080E0913009F096C09091181691115FC068
S11334E01C96ED91FC911D971696CD91DC91179742
S11334F018962D913C9119973F832E831896CD9160
S1133500DC91199716962D913C9117973D832C8346
S1133510418152819D012E5F3F4F4217530731F481
S113352018964D915C911997528341831D961C9274
S11335301E921C979081915090835A96EC915A97C1
S1133540909127169E1710F4E09327169BE09E9FF8
S1133550F0011124E759F94E0180F281E02D17960C
S1133560FC93EE9316974681578119965C934E937C
S11335701897C681D7813D832C83378326835A9637
S1133580EC915A979E9FF0011124E759F94E1D962C
S1133590FC93EE931C9790819F5F908321C064E419
S11335A076E1FB01C181D2815396DC93CE9352978D
S11335B02E813F8155963C932E9354974E815F8183
S11335C09D01225F3F4FFA01358324833F832E837D
S11335D059967C936E935897FB0190819F5F9083DB
S11335E05A962C91E091D716F091D816928D921795
S11335F048F4C114D10419F091E0F601908391E0EC
S113360090932116DF91CF910F91FF90EF90DF906F
S1133610CF90BF90AF909F908F900895009721F422
S11336208091D7169091D8160FB6F8940F9270E047
S1133630FC01E60FF71F23A9223031F4FC01E60F49
S1133640F71F13AA81E001C080E00F900FBE089518
S1133650DC01E091E316F091E416808191E08111A0
S113366090E09C93911108C00780F085E02D608163
S1133670718182819381089560E070E0CB010895A7
S1133680CF92DF92EF92FF920F931F93FC0142833C
S113369053836483758393878287041715072607EA
S11336A03707C0F00C191D092E093F098685978537
S11336B0A089B189081719072A073B0700F5BF013C
S11336C06E5F7F4F8091E1169091E2160E94520640
S11336D080E018C00C151D052E053F0528F44C1577
S11336E05D056E057F0568F4BF016E5F7F4F8091B5
S11336F0E3169091E4160E94520680E003C081E034
S113370001C081E01F910F91FF90EF90DF90CF9067
S113371008950FB6F8940F928091DF169091E016F9
S1133720892BE9F480EF96E10E943D0685EE96E14F
S11337300E943D0680EF96E19093E4168093E31691
S113374085EE96E19093E2168093E11640E067E0FF
S11337508AE00E9400099093E0168093DF160F9090
S11337600FBE0895EF92FF920F93D3DF8091DF167F
S11337709091E016892B91F00F2EFDEDEF2EF6E1DE
S1133780FF2EF02D03E020E030E040EC50E064E652
S113379073E087ED90E00E94B31001C080E00F91C8
S11337A0FF90EF9008958F929F92AF92BF92CF9225
S11337B0DF92EF92FF920F931F93CF93DF93CDB7D6
S11337C0DEB727970FB6F894DEBF0FBECDBFE091EA
S11337D0DF16F091E016309781F169832A833B83E9
S11337E04C835D839F838E836630F4F4C3DA823026
S11337F069F400E0A7019601BE016F5F7F4F8091DD
S1133800DF169091E0160E94230918C000E020E022
S113381030E0A901BE016F5F7F4F8091DF16909168
S1133820E0160E9423090AC020E0A801BE016F5FD0
S11338307F4FCF010E94D30901C080E027960FB6C5
S1133840F894DEBF0FBECDBFDF91CF911F910F91D2
S1133850FF90EF90DF90CF90BF90AF909F908F90AC
S113386008958F929F92AF92BF92CF92DF92EF9280
S1133870FF920F931F93CF93DF933BC00780F08594
S1133880E02D80809180A280B380C085D1858E0197
S11338900E5F1F4FC8010E948F06EC89FD89CE017F
S11338A019958E8982FF25C08E859F85A889B9893F
S11338B0880D991DAA1DBB1D88169906AA06BB066C
S11338C070F48A839B83AC83BD83DB87CA87B8018A
S11338D08091E3169091E4160E9452060AC0C12C0E
S11338E0D12C760100E010E0A501940160E0CE0146
S11338F05ADFE091E316F091E41680818111BECF86
S11339008091E1169091E2169093E4168093E31669
S1133910F093E216E093E116DF91CF911F910F919E
S1133920FF90EF90DF90CF90BF90AF909F908F90DB
S11339300895CF92DF92EF92FF92CF93DF93EC0141
S11339400E943D116B017C018091D9169091DA1689
S1133950A091DB16B091DC16C816D906EA06FB0660
S113396020F47FDF81E0888301C01882C092D916D9
S1133970D092DA16E092DB16F092DC16C701B6019B
S1133980DF91CF91FF90EF90DF90CF9008954F9209
S11339905F926F927F928F929F92AF92BF92CF92DB
S11339A0DF92EF92FF920F931F93CF93DF934B011C
S11339B05C0129013A01E091E316F091E4160780D5
S11339C0F085E02DC085D185CE0102960E948F0638
S11339D08E8982FF1BC04E855F8568897989480D71
S11339E0591D6A1D7B1D7501640193018201CE017D
S11339F047DE882369F0C12CD12C760100E010E069
S1133A00A501940160E0CE01CEDE02C08E7F8E8BD4
S1133A10EC89FD89CE011995DF91CF911F910F910A
S1133A20FF90EF90DF90CF90BF90AF909F908F90DA
S1133A307F906F905F904F9008958F929F92AF9276
S1133A40BF92CF92DF92EF92FF921F93CF93DF93B7
S1133A501F92CDB7DEB76B017C01142F0E94371182
S1133A60CE01019666DF4B015C01898181112DC075
S1133A7011110DC08C149D04AE04BF0440F00E94CB
S1133A807712A5019401C701B60181DF20C011237B
S1133A9041F0E091E116F091E216808111E081118C
S1133AA010E0B701A601481959096A097B09212FB9
S1133AB08091DF169091E0160E944E0B0E947712BF
S1133AC0811105C00E940B0702C00E9477120F905B
S1133AD0DF91CF911F91FF90EF90DF90CF90BF9037
S1133AE0AF909F908F900895AF92BF92CF92DF9244
S1133AF0EF92FF920F931F93CF93DF93CDB7DEB76F
S1133B0028970FB6F894DEBF0FBECDBF82C089815F
S1133B1088230CF47EC0AE80BF80D5011C968D91A5
S1133B209C911D97892B21F0C50102960E948F0656
S1133B30CE010896FEDE8B019C01E9810E2E000C5D
S1133B40FF0BEA30F10508F064C08827EE58FF4FF8
S1133B508F4F0C94B330F50186898160868BCA80BF
S1133B60DB80EC80FD8046855785608971894C0D2A
S1133B705D1D6E1D7F1DC50183DD882309F449C0C9
S1133B80D5015496ED91FC915597C5011995F50110
S1133B90868982FF3EC04A815B816C817D818685F6
S1133BA09785A089B1899A01AB01280F391F4A1F53
S1133BB05B1FC12CD12C760100E010E060E0C50150
S1133BC0F2DD27C0D50156968C9156978E7F569676
S1133BD08C931FC0F50186898160868B4A815B8145
S1133BE06C817D8146875787608B718B400F511F95
S1133BF0621F731F68017901C50142DD0AC0F50126
S1133C00868981FD04C0C5010E94000602C08E7F22
S1133C10868B20E030E0A901BE016F5F7F4F809169
S1133C20DF169091E0160E940E0A811170CF28963B
S1133C300FB6F894DEBF0FBECDBFDF91CF911F91B9
S1133C400F91FF90EF90DF90CF90BF90AF900895C9
S1133C50089584B1806884B985B1806885B9089570
S1133C6083B1806883B90895F4DF2FEF80E792E091
S1133C70215080409040E1F700C00000F1DFF5CF13
S1133C80E8DF2FEF87EA91E6215080409040E1F78A
S1133C9000C00000E5DFF5CFEF92FF920F93E12C17
S1133CA0F12C082F20E030E048E851E06CE673E0A6
S1133CB08BED9EE10E94B3100F91FF90EF90089559
S1133CC060E777E180E090E00E94B813F4D090932D
S1133CD0961880939518E4D090939A188093991825
S1133CE00E94D00290939C1880939B180E94CB0250
S1133CF090939418809393180E94C60290939818F6
S1133D00809397180E94C10290939E1880939D18E7
S1133D1060919B1870919C1840919318509194183D
S1133D209B01240F351FE0919718F09198182E0FDE
S1133D303F1F280F391F21153105D9F0A09195187F
S1133D40B0919618A617B70738F06091991870913A
S1133D509A186E177F0768F482E893E09F938F9315
S1133D600E943F3264E680E00E94A9270F900F90E2
S1133D700895232BD9F02091951830919618421765
S1133D80530738F02091991830919A1882179307A5
S1133D9068F482E893E09F938F930E943F326CE92A
S1133DA080E00E94A9270F900F90089560E080E0C2
S1133DB00C94A927089584DFFECF41E060E070E011
S1133DC084E690E00E94AD0C90935D1880935C189B
S1133DD041E060E070E08CE290E00E94AD0C9093D2
S1133DE0611880936018089581E00E94C709909338
S1133DF063188093621808950E94A30390935F1838
S1133E0080935E180E94A30390937F1880937E187A
S1133E10089586E090E00E9457059093A01880933F
S1133E209F18009711F480E090E00895E0919F18A6
S1133E30F091A018918380830895E0919F18F091E8
S1133E40A018938382830895E0919F18F091A0189D
S1133E50958384830895EBEFF6E126E02183608364
S1133E60A0919F18B091A0182C9111963C91119794
S1133E703283238312962C91129713963C911397B5
S1133E803483258314962C91149715963C9136838C
S1133E90278326E1DC0101900D922A95E1F708952C
S1133EA0609113177091141780911517909116173C
S1133EB0F1D1CB01089580911117909112170895B3
S1133EC0EF92FF920F93E12CF12C082F20E030E0C9
S1133ED040EC50E063E973E087EE9FE10E94B31089
S1133EE00F91FF90EF900895CF92DF92EF92FF929F
S1133EF00F93CC24CA94DC2C760101E021E041E04C
S1133F0050E060E070E080915E1890915F180E942C
S1133F10B6036093A1187093A2188093A31890938A
S1133F20A41860FF4EC066E070E080E090E00E945C
S1133F30B81387D28823C1F066E070E080E090E097
S1133F400E94B81388EA93E09F938F930E943F32B4
S1133F500F900F9006C063E070E080E090E00E9454
S1133F60B8136FD28823B9F381D263E070E080E0A4
S1133F7090E00E94B8137AD2811123C066E070E009
S1133F8080E090E00E94B81396D290931217809329
S1133F901117B5D2BC01990F880B990BA9D1609365
S1133FA0131770931417809315179093161742E004
S1133FB050E060E070E080917E1890917F180E943C
S1133FC056040F91FF90EF90DF90CF9008958CDF0F
S1133FD0FECF0F931F93CF93DF93CDB7DEB76497D4
S1133FE00FB6F894DEBF0FBECDBF81E00E94E92C6E
S1133FF0FED37AD69F938F9382EE93E09F938F9311
S11340000E943F3272D570D69F938F9385EF93E0D1
S11340109F938F930E943F328EE094E00E9452322D
S11340208E010F5F1F4FC801F4D35ED61F930F9309
S11340309F938F938BE194E09F938F930E943F32E1
S1134040C80103D451D69F938F931F930F938FE28C
S113405094E09F938F930E943F3284E494E00E9403
S11340605232A80161E574E082E794E01CD63CD6A4
S11340709F938F931F930F9381E594E09F938F9366
S113408082E794E09F938F9383E894E09F938F93C8
S11340900E943F320DD428D69F938F9389EB94E0EE
S11340A09F938F930E943F320FB6F894DEBF0FBEEA
S11340B0CDBF81E0F7D418D69F938F9388EC94E01A
S11340C09F938F930E943F3289EE94E00E94523274
S11340D084EF91E0F2D408D69F938F9381E08F937D
S11340E084EF8F9386EF94E09F938F930E943F32E7
S11340F00FB6F894DEBF0FBECDBF1AE080E0DED36A
S1134100082FF2D59F938F931F921F9386E195E01A
S11341109F938F930E943F320F900F900F900F90B8
S11341200F900F90083059F080E00E944D2D66E307
S113413071E080E090E00E94B8131150F9F6083065
S113414021F481E00E942F2D0DC086E395E00E94AA
S1134150523281E00E943E2D80E00E940C2D0E948C
S11341600B07FDCF64960FB6F894DEBF0FBECDBF2C
S1134170DF91CF911F910F910895EF92FF920F93CA
S113418020915C1830915D18E12CF12C082F48E83F
S113419051E061E475E081E191E20E94B3100F9176
S11341A0FF90EF9008950F931F930FEF1FEF980167
S11341B046E150E067E177E180915C1890915D18E9
S11341C00E94180E892BA1F083E00E945F2D67E105
S11341D077E180E09CD388D59F938F938CE495E01E
S11341E09F938F930E943F320F900F900F900F90E8
S11341F01F910F91089581E0ECD262E070E080E0BD
S113420090E00E94B81380E0E4D266E970E080E0B8
S113421090E00E94B81396D2DCDE80E090E0C3DF29
S1134220FCCFE9DF83E090E00E94080181E00E9476
S1134230EA0181E045DEEDDD84E02ECD0895E9D08C
S113424083E02ED69EC60895D7DDB7DDCDCD089583
S113425081B1816881B980E00E94942BF0DFE2DFB4
S113426085E00E949B2CF0DF6091601870916118CA
S113427081E06FD284E081DF85E00C94D50208955B
S1134280E7DF81E695E00E9452320E94FF1080E051
S113429090E0089570D088F09F5790F0B92F992737
S11342A0B751A0F0D1F0660F771F881F991F1AF03D
S11342B0BA95C9F712C0B13081F077D0B1E0089552
S11342C074C0672F782F8827B85F39F0B93FCCF3D3
S11342D0869577956795B395D9F73EF49095809533
S11342E0709561957F4F8F4F9F4F0895E89409C053
S11342F097FB3EF490958095709561957F4F8F4F15
S11343009F4F9923A9F0F92F96E9BB279395F6952A
S1134310879577956795B795F111F8CFFAF4BB0FA8
S113432011F460FF1BC06F5F7F4F8F4F9F4F16C00C
S1134330882311F096E911C0772321F09EE8872F96
S1134340762F05C0662371F096E8862F70E060E052
S11343502AF09A95660F771F881FDAF7880F9695CB
S1134360879597F9089557FD9058440F551F59F0B4
S11343705F3F71F04795880F97FB991F61F09F3F4E
S113438079F087950895121613061406551FF2CF77
S11343904695F1DF08C0161617061806991FF1CFC7
S11343A086957105610508940895E894BB276627EE
S11343B07727CB0197F908956530F1F4FA018081EC
S11343C08F7390E0982F88272181822B90930A0283
S11343D0809309028281F0E48F9FC0011124FA01C5
S11343E0238126952695822B9093080280930702B9
S11343F081E080932D170895643051F080E090E4BB
S1134400909308028093070290930A028093090212
S113441008950F931F930CED11E220E034E244EF72
S113442050E060E087E20E94812D90932F178093E3
S11344302E1721E0892B09F020E0822F1F910F9184
S1134440089580912E1790912F17009759F040E00E
S113445060E070E00E94D22D843031F410922D1768
S113446080E0089582E0089583E0089580912E17F6
S113447090912F17009739F064E00E941E2E85302A
S113448021F083E0089582E0089580E0089560912A
S1134490090270910A0280E090E028DF20E030E019
S11344A048EC52E40E942B3020E038EF4FE756E40A
S11344B00C94912F0895EBDF20E030E040E251E4CA
S11344C00E942B30E7DECB010895609107027091C2
S11344D0080280E090E00ADF20E030E045E253E4A7
S11344E00E942B3020E038EF4FE756E40E94912FD2
S11344F020E030E040E252E40C942A2F0895E5DFF6
S113450020E030E040E251E40E942B300E94FC2F76
S1134510CB0108950F931F93CF93DF931F921F92A4
S1134520CDB7DEB78C0119822DC0E0916717EC324C
S113453050F481E08E0F80936717F0E0E756F84E51
S11345408A81808302C0109267178A818A30D1F4ED
S11345504091671750E0FA01E956F84E1082415035
S113456051099E012F5F3F4F69E977E180916A17F6
S113457090916B170E94D40D898181110E940B07C1
S113458010926717BE016E5F7F4FC80137D688232C
S113459061F20F900F90DF91CF911F910F910895C9
S11345A00F931F93CF93DF938C01EB0180916A17D4
S11345B090916B170E94DF0CB80180E397E10E9491
S11345C02032209779F0E0E3F7E101900020E9F749
S11345D0319780E290E091838083BE0180E397E18C
S11345E00E941532E0E3F7E1DF010D900020E9F7C6
S11345F011978DE09AE011969C938E9312961C92DB
S113460001900020E9F73197E053F741AE2F80E3A2
S113461097E1AC016A2F80916C1790916D1799D531
S1134620811111C008E215E020E030E04DE250E0D5
S113463063EF77E180916A1790916B170E94180ECF
S113464083EF97E102C080E090E0DF91CF911F916A
S11346500F9108952F923F924F925F926F927F92A3
S11346608F929F92AF92BF92CF92DF92EF92FF927E
S11346700F931F93CF93DF935C01FC010190002003
S1134680E9F731976F01C81AD90A5C2C0F2EFBE0A9
S11346908F2EF8E09F2EF02DE12CF12C4C2C3701BD
S11346A0F40101811281E80109900020E9F72197C2
S11346B0C01BD10B3C2EF9E0CF16D10458F0F40105
S11346C02080FEE02F1206C0B801C5010E94F0311F
S11346D0892B09F5442D351408F44C2F50E0B8010A
S11346E0C5010E942732892B49F4F301EE0FFF1F05
S11346F0E60DF71DE55FF74F20800DC08FEFE81A38
S1134700F80AE3E08E0E911CF1E1EF16F10439F69C
S11347106894222424F8822DDF91CF911F910F9168
S1134720FF90EF90DF90CF90BF90AF909F908F90CD
S11347307F906F905F904F903F902F90089530DF5F
S113474089CF089580916A1790916B170C94DF0CB0
S113475008958F929F92AF92CF92EF920F931F93EF
S1134760CF93C82F8B0141E060E070E088EC90E0CB
S11347700E94AD0C90936B1780936A17109369177E
S1134780009368170F2EFAE88F2EF2E29F2EF02D79
S11347906894AA24A6F86894CC24C6F8E12C00E016
S11347A023E040E051EE60E070E08C2F06D490935B
S11347B06D1780936C17E7E0F1E08081806180835E
S11347C0CF911F910F91EF90CF90AF909F908F90CA
S11347D00895882331F0E8E0F1E080818F7E8083C2
S11347E00895E8E0F1E0808180618083089560E0CD
S11347F070E081E995E0D4DEE3EFF7E10190002079
S1134800E9F73197E35FF74181E0759708F080E0BD
S11348100895CF93DF93EC0160E070E082EA95E0C5
S1134820BFDEE3EFF7E101900020E9F7E450F8413F
S113483039F463EF77E1CE010E94203280E002C0B8
S1134840188281E0DF91CF910895FC01019000204E
S1134850E9F79F01215131092817390729F4BC01CF
S113486080ED95E06CCF089589E00895FC010190F6
S11348700020E9F79F01215131092817390729F44C
S1134880BC018FED95E05BCF089589E00895FC01AC
S113489001900020E9F79F012152310928173907B7
S11348A029F4BC018EEE95E04ACF089589E008957D
S11348B060E070E08DE296E042CF08950F931F937D
S11348C0E82FF0E0EE0FFF1FE95FF74F6081718181
S11348D086E396E034DF811114C008E215E020E09D
S11348E030E04DE250E063EF77E180916A179091F8
S11348F06B170E94180E882321F083EF97E1AADE3C
S113490003C083EF97E1A6DE1F910F9108950F93E3
S11349101F93CF93DF931F92CDB7DEB7DB011196C0
S11349209C911197953108F0B4C0992381F160E00E
S113493070E0272F30E0462F50E0FD01E40FF51F13
S1134940928192959F709A3010F0995C01C0905DAD
S1134950F901EC57F84E90832F5F3F4FFD01E40FB0
S1134960F51F92819F70492F50E04A30510514F091
S1134970995C01C0905DF901EC57F84E90837E5F1D
S11349806F5F11969C911197691798F201C070E0BE
S1134990E72FF0E0EC57F84E10824C91811103C0E0
S11349A08FE396E002C081E496E024E837E13F9388
S11349B02F931F924F939F938F9385E496E09F9339
S11349C08F9386EC97E19F938F930E94823260E0ED
S11349D070E086EC97E1B3DE0FB6F894DEBF0FBE4D
S11349E0CDBF811159C008E215E020E030E04DE26E
S11349F050E063EF77E180916A1790916B170E9402
S1134A00180E882309F447C083EF97E123DE8E3024
S1134A1009F042C087E089838091681790916917F3
S1134A20892BA9F1BE016F5F7F4F83EF97E168D1B6
S1134A3080936E17E981F0E0ED50F84EDF010D90A0
S1134A400020E9F71197AE1BBF0BAA2391F0BB27F7
S1134A50CD0101979C0112F42F5F3F4F35952795A7
S1134A6020936F17AF014F5F5F4F64E180E797E1D9
S1134A7073D101E010E020E030E046E150E06EE662
S1134A8077E180916817909169170E940F0D8EE06D
S1134A9003C084E101C080E00F90DF91CF911F91AA
S1134AA00F910895813019F065E576E002C06EE259
S1134AB077E089E596E043CE08959F938F938AE843
S1134AC096E09F938F9386EC97E19F938F930E9438
S1134AD0823260E070E086EC97E131DE0F900F9057
S1134AE00F900F900F900F9008952F923F924F9236
S1134AF05F926F927F928F929F92AF92BF92CF926A
S1134B00DF92EF92FF920F931F93CF93DF93CDB772
S1134B10DEB7A0970FB6F894DEBF0FBECDBF67EB2C
S1134B2076E083EC96E03CDD95DD8111A3C080E264
S1134B30E2E2F2E0DE01119601900D928A95E1F72E
S1134B409E012F5F3F4F6901E12CF12C0F2EFFECEA
S1134B50AF2EF6E0BF2EF02D06EC17E10F2EF8EE87
S1134B604F2EF6E05F2EF02D0F2EFFEF8F2EF6E086
S1134B709F2EF02D0F2EF9E16F2EF7E07F2EF02DF2
S1134B803E2C2F2CFF92EF92BF92AF921F930F9364
S1134B900E94823260E070E0C80102DD5BDD0F90AC
S1134BA00F900F900F900F900F90811163C032E01F
S1134BB03E15E8F4F60183818F9382818F9381817E
S1134BC08F9380818F93FF92EF925F924F921F9306
S1134BD00F930E94823260E070E0C801E1DC3ADDAC
S1134BE00FB6F894DEBF0FBECDBF811143C02F9224
S1134BF03F929F928F921F930F930E94823260E0A4
S1134C0070E0C801CDDC26DD0F900F900F900F905F
S1134C100F900F9081112EC02F923F927F926F922E
S1134C201F930F930E94823260E070E0C801B8DCE9
S1134C3011DD0F900F900F900F900F900F90811136
S1134C4019C03FEFE31AF30A84E0C80ED11C98E0C0
S1134C50E916F10409F094CF60E070E081E397E095
S1134C609FDCF8DC811106C060E070E082E497E02C
S1134C7097DCF0DCA0960FB6F894DEBF0FBECDBF74
S1134C80DF91CF911F910F91FF90EF90DF90CF9024
S1134C90BF90AF909F908F907F906F905F904F9058
S1134CA03F902F900895EF92FF920F931F93CF930D
S1134CB0DF93EC018B017A0181E0F4DE81110DC0F8
S1134CC0CE01D4DD811109C0C801E1DD811105C027
S1134CD0C701BBDD811101C0EBDDDF91CF911F91D5
S1134CE00F91FF90EF90089590E0FC01EE0FFF1FED
S1134CF08E0F9F1FFC01E55FF74F8181928108951C
S1134D00DC01009729F1FB012081FC0101900020C6
S1134D10E9F73197E81BF90B822F90E0E817F907C0
S1134D20C8F080E008C0880F382F330F330F830F8B
S1134D308053890F2F5FFD01E20FF11D908130ED4B
S1134D40390F3A3010F49111EECFFB01208308950E
S1134D5080E0089580E008950F931F93CF93DF932D
S1134D60DC01EA012097E1F1FA0101900020E9F762
S1134D703197E41BF50B329710F532C08D01040F07
S1134D80151F30E0AE01420F531FFA019081913498
S1134D9028F09753592F5295507F03C0592F52959D
S1134DA0507F2C0F3D1FF9019181913410F09753DE
S1134DB001C09053950FF80190838F5F01C080E08C
S1134DC0282F220F482F50E0FE0101900020E9F720
S1134DD03197EC1BFD0B4E175F0710F48613CECFF3
S1134DE0DF91CF911F910F91089580912318860F21
S1134DF08093231890912618913079F028F09230FE
S1134E00A9F0933019F108956F3F09F048C010924A
S1134E10231881E0809326180895663809F03FC06E
S1134E201092221882E0809326180895E0912218A7
S1134E3081E08E0F80932218F0E0E05EF74E6083ED
S1134E40823069F583E080932618089590912218A2
S1134E5021E0290F20932218963009F581110EC004
S1134E60E0E2F8E1808190E0982F88272181820F89
S1134E70911D909328188093271804C01092281825
S1134E801092271810922618E0912418F0912518F2
S1134E90309729F080912718909128181995089532
S1134EA08F929F92AF92CF92EF920F930F2EF5EFC6
S1134EB08F2EF6E29F2EF02D6894AA24A4F868940D
S1134EC0CC24C4F8E12C00E023E040E855E260E0A3
S1134ED070E073D090932A18809329180F91EF9063
S1134EE0CF90AF909F908F900895909325188093C2
S1134EF024180895CF93DF93CDB7DEB729970FB663
S1134F00F894DEBF0FBECDBF89E0E2E4F2E09E017B
S1134F102F5F3F4FD90101900D928A95E1F71092CE
S1134F202818109227188091291890912A18009710
S1134F3031F0422F532F69E00CD180E001C082E0B0
S1134F4029960FB6F894DEBF0FBECDBFDF91CF9187
S1134F50089565360CF064E66C390CF46CE996EF50
S1134F606902B00111246854744F811105C0709313
S1134F70290160932801089570932B0160932A01FD
S1134F800895EAE0F1E08081886180838FE39CE901
S1134F90909327018093260160E080E0DADF60E0EF
S1134FA081E0D7DFE0E2F1E08081826A8083E1E2A0
S1134FB0F1E080818A61808308952F923F924F921D
S1134FC05F926F927F928F929F92AF92CF92EF9265
S1134FD0FF920F931F93CF93DF93CDB7DEB7F82ED5
S1134FE02A013B0188E090E00E94BB308C018F2DA8
S1134FF090E0FC01EE0FFF1FE55DF74E1183008387
S11350000115110509F468C0880F991FFC01E55FBB
S1135010FD4F80819181D8018D939C938C2D90E0DC
S1135020880F991F880F991F0E94BB301C0186E0CE
S113503090E00E94BB307C014C2DB101EFD6F80109
S1135040F582E4828A2D90E0880F991F880F991FBA
S11350500E94BB301C0186E090E00E94BB307C01C2
S11350604A2DB101DBD6D8011396FC92EE92129729
S113507017969C928E921697FFB6F894ED91FC9138
S1135080119736978081826080838D909C90C301B4
S1135090B2012CD920E030E040E051E4DCD79B01A0
S11350A0AC0160E074E284E79BE43BD720E030E0AD
S11350B040E85FE3CFD6EED8F40132976083D8019D
S11350C0ED91FC911197359788E98083ED91FC91DE
S11350D0349786E08083FFBEC801DF91CF911F9192
S11350E00F91FF90EF90CF90AF909F908F907F9013
S11350F06F905F904F903F902F900895CF93DF93E0
S1135100DC01892B01F11296ED91FC9113979381A7
S113511082812581981B922384819817B1F0838121
S113512026952823C081D181C20FD11D68838F5F4A
S1135130958189238383ED91FC91359780818062E9
S1135140808380E003C081E001C082E0DF91CF91E1
S11351500895EF92FF920F931F93CF93DF937C01F7
S1135160009709F441C0DC011296ED91FC9113976C
S113517093818281981B858198238481891B86175A
S1135180A8F1662341F1842F952FDC016150462F4D
S113519050E04F5F5F4F480F591FE701EA81FB81E1
S11351A0938182812581981B92238481981779F0B9
S11351B08C91938126952923608171818B01020F43
S11351C0111DE80188839F5F85819823938311963D
S11351D0A417B50711F7D701ED91FC91359780819C
S11351E08062808380E003C081E001C082E0DF91BF
S11351F0CF911F910F91FF90EF9008950097D1F0F8
S1135200DC011496ED91FC91159793818281981796
S113521099F09281858186958923A081B181A80F17
S1135220B11D8C91DB018C939F5F858198239283C0
S113523080E0089581E0089583E008951F920F921D
S11352400FB60F9211240BB60F922F933F934F93E7
S11352505F936F937F938F939F93AF93BF93CF93FA
S1135260DF93EF93FF93A0912B18B0912C18109714
S113527011F16091C6001496ED91FC9115979381FC
S113528082812581981B92238481981761F0838100
S113529026952823C081D181C20FD11D68838F5FD9
S11352A09581892383831696ED91FC911797309706
S11352B011F0CD011995FF91EF91DF91CF91BF913D
S11352C0AF919F918F917F916F915F914F913F919A
S11352D02F910F900BBE0F900FBE0F901F9018953B
S11352E01F920F920FB60F9211240BB60F922F93A9
S11352F08F939F93AF93BF93EF93FF93E0912B18FA
S1135300F0912C183097B9F00280F381E02D93814D
S113531082819817B1F092818581282F26952923BF
S1135320A081B181A20FB11D2C919F5F892382833B
S11353302093C6000BC0E1ECF0E080818F7D808378
S113534005C0E1ECF0E080818F7D8083FF91EF91D7
S1135350BF91AF919F918F912F910F900BBE0F90A2
S11353600FBE0F901F9018951F920F920FB60F92B9
S113537011240BB60F922F933F934F935F936F9328
S11353807F938F939F93AF93BF93CF93DF93EF93C9
S1135390FF93A0912D18B0912E18109711F16091E0
S11353A0CE001496ED91FC9115979381828125810D
S11353B0981B92238481981761F083812695282372
S11353C0C081D181C20FD11D68838F5F95818923EC
S11353D083831696ED91FC911797309711F0CD01C8
S11353E01995FF91EF91DF91CF91BF91AF919F916B
S11353F08F917F916F915F914F913F912F910F907A
S11354000BBE0F900FBE0F901F9018951F920F9216
S11354100FB60F9211240BB60F922F938F939F9375
S1135420AF93BF93EF93FF93E0912D18F0912E1853
S11354303097B9F00280F381E02D9381828198172F
S1135440B1F092818581282F26952923A081B181ED
S1135450A20FB11D2C919F5F892382832093CE00DC
S11354600BC0E9ECF0E080818F7D808305C0E9EC1E
S1135470F0E080818F7D8083FF91EF91BF91AF91A8
S11354809F918F912F910F900BBE0F900FBE0F9095
S11354901F9018951F920F920FB60F9211240BB6FE
S11354A00F922F933F934F935F936F937F938F93B9
S11354B09F93AF93BF93CF93DF93EF93FF93A09109
S11354C02F18B0913018109711F16091D6001496EE
S11354D0ED91FC911597938182812581981B9223EC
S11354E08481981761F0838126952823C081D18116
S11354F0C20FD11D68838F5F95818923838316969C
S1135500ED91FC911797309711F0CD011995FF910A
S1135510EF91DF91CF91BF91AF919F918F917F9147
S11355206F915F914F913F912F910F900BBE0F9010
S11355300FBE0F901F9018951F920F920FB60F92E7
S113554011240BB60F922F938F939F93AF93BF9316
S1135550EF93FF93E0912F18F09130183097B9F042
S11355600280F381E02D938182819817B1F09281BA
S11355708581282F26952923A081B181A20FB11DF1
S11355802C919F5F892382832093D6000BC0E1ED89
S1135590F0E080818F7D808305C0E1EDF0E08081C3
S11355A08F7D8083FF91EF91BF91AF919F918F91F8
S11355B02F910F900BBE0F900FBE0F901F90189558
S11355C01F920F920FB60F9211240BB60F922F93C6
S11355D03F934F935F936F937F938F939F93AF9377
S11355E0BF93CF93DF93EF93FF93A0913118B091C2
S11355F03218109711F1609136011496ED91FC91D7
S11356001597938182812581981B92238481981711
S113561061F0838126952823C081D181C20FD11DD9
S113562068838F5F9581892383831696ED91FC911E
S11356301797309711F0CD011995FF91EF91DF91F4
S1135640CF91BF91AF919F918F917F916F915F9116
S11356504F913F912F910F900BBE0F900FBE0F9063
S11356601F9018951F920F920FB60F9211240BB62C
S11356700F922F938F939F93AF93BF93EF93FF93C7
S1135680E0913118F09132183097B9F00280F3812B
S1135690E02D938182819817B1F092818581282F22
S11356A026952923A081B181A20FB11D2C919F5F62
S11356B089238283209336010BC0E1E3F1E08081EA
S11356C08F7D808305C0E1E3F1E080818F7D80835D
S11356D0FF91EF91BF91AF919F918F912F910F9077
S11356E00BBE0F900FBE0F901F901895CF93DF93B2
S11356F01F92CDB7DEB7BE016F5F7F4F8091331825
S1135700909134187BDD8111F6CF898190E00F9060
S1135710DF91CF910895682F8091331890913418B8
S1135720EDDC80E090E008958F929F92AF92CF924B
S1135730EF920F93812C912C6894AA24A7F8689473
S1135740CC24C7F8E12C00E023E040E051EE60E017
S113575070E033DC9093341880933318E9EAF8E16D
S113576083E192E091838083938382830F91EF900E
S1135770CF90AF909F908F90089590E0FC01EE0F32
S1135780FF1FE80FF91FEE0FFF1FEB5CF74E23819D
S113579021111FC09C01220F331FF901E80FF91FCB
S11357A0EE0FFF1FEB5CF74EA081B1814C91F90124
S11357B0E80FF91FEE0FFF1FEB5CF74E81E090E05E
S11357C0028002C0880F991F0A94E2F7842B8C93FD
S11357D00895FC01EE0FFF1FDF01A80FB91FAA0FE8
S11357E0BB1FAB5CB74E0D90BC91A02D2C91E80F64
S11357F0F91FEE0FFF1FEB5CF74E81E090E0028093
S113580002C0880F991F0A94E2F7809582238C9333
S1135810089590E0FC01EE0FFF1FE80FF91FEE0F53
S1135820FF1FEB5CF74E2381211120C09C01220F46
S1135830331FF901E80FF91FEE0FFF1FEB5CF74E62
S1135840A081B1814C91F901E80FF91FEE0FFF1F00
S1135850EB5CF74E81E090E0028002C0880F991F54
S11358600A94E2F7809584238C930895FC01EE0F4B
S1135870FF1FDF01A80FB91FAA0FBB1FAB5CB74EF8
S11358800D90BC91A02D2C91E80FF91FEE0FFF1F76
S1135890EB5CF74E81E090E0028002C0880F991F14
S11358A00A94E2F7822B8C930895CC24C394D12CD0
S11358B06894BB24B2F8C5E3D8E110E08C81813050
S11358C081F018F1823061F5E881F9812081C60107
S11358D00A8002C0880F991F0A94E2F78227808306
S11358E01FC08D818F5F863010F48D8319C01D8297
S11358F0E881F9812081C6010A8002C0880F991FBE
S11359000A94E2F7822780830BC00D81002329F0DB
S1135910812F7FDF01500D8303C0BC82812F2DDFD7
S11359201F5F2696143051F66CE070E080E090E042
S11359300E94B813C0CFEF92FF920F931F93CF939F
S1135940DF93082F80E487B9C5E3D8E10F2EF8E28E
S1135950EF2EF12CF02DF982E88286E08A831B82F7
S113596014E01C8380E009DF80E887B9FF82EE82BF
S113597087E0888719861A8781E0FFDE80E283BB8F
S113598084E390E09D878C8785E08E871F86188B43
S113599082E0F3DE80E18093010182E091E09B8B61
S11359A08A8B1C8B1D8A1E8B83E0E7DEE12CF12C95
S11359B020E030E040EC50E06EE378E085E59CE2E6
S11359C00E94B310DF91CF911F910F91FF90EF9040
S11359D00895CF93DF9390E0FC01EE0FFF1FDF01EA
S11359E0A80FB91FAA0FBB1FAB5CB74ECD91DC91BA
S11359F01197488121E030E012960C90129702C072
S1135A00220F331F0A94E2F724272883FD0181E043
S1135A108483DF91CF910895CF93DF9390E0FC01CD
S1135A20EE0FFF1FDF01A80FB91FAA0FBB1FAB5C4E
S1135A30B74ECD91DC911197488121E030E0129668
S1135A400C90129702C0220F331F0A94E2F7242706
S1135A502883FD0182E08483DF91CF910895282F6C
S1135A6030E0F901EE0FFF1FE20FF31FEE0FFF1FEF
S1135A70EB5CF74E93E09483CCCE0895282F30E06E
S1135A80F901EE0FFF1FE20FF31FEE0FFF1FEB5C98
S1135A90F74E94E0948371CE089590E0FC01EE0FEC
S1135AA0FF1FDF01A80FB91FAA0FBB1FAB5CB74EC6
S1135AB026E015962C931597FD011482089590E025
S1135AC0FC01EE0FFF1FDF01A80FB91FAA0FBB1FB8
S1135AD0AB5CB74E15961C921597FD011482089580
S1135AE080915B1881110CC08CE08093B8008FEF1B
S1135AF08093BB0084E08093BC0081E080935B18BA
S1135B000895AF92BF92CF92DF92EF92FF920F93DC
S1135B101F93CF93DF93A82EB62E69017A0184E0F8
S1135B2090E029D3EC01892B61F1A88281E0B812BD
S1135B3012C0C701B60120EA36E841E050E0F1D2D4
S1135B40DA01C9014097A109B109B695A7959795BE
S1135B508795898311C0C701B60120E83AE146E080
S1135B6050E0DFD2DA01C9014097A109B109B69525
S1135B70A7959795879589831B830A838C2F9D2FDF
S1135B8002C080E090E0DF91CF911F910F91FF90D0
S1135B90EF90DF90CF90BF90AF9008958091BC00BC
S1135BA081700895FF920F931F93CF93DF93009713
S1135BB0D1F14A30D0F5F42E8B01EC01EFDF8111E5
S1135BC036C080914E1890914F18C817D90741F0EC
S1135BD087DF89818093B800D0934F18C0934E1803
S1135BE081E08F0D809350188881880F809351181D
S1135BF0FF2089F0F801A2E5B8E14FEF4F0D642FC3
S1135C0070E0CB010196B801680F791F81918D93E3
S1135C10E617F707D9F788EF8093210285EA809386
S1135C20BC0084E005C086E003C087E001C082E0D8
S1135C30DF91CF911F910F91FF9008951F93CF9300
S1135C40DF93009729F16B3028F5162FEC01A6DFBE
S1135C50811122C080914E1890914F18C817D9070E
S1135C6041F03EDF89818093B800D0934F18C093F0
S1135C704E18109350188881880F816080935118B2
S1135C8088EF8093210285EA8093BC0085E005C0FB
S1135C9086E003C087E001C082E0DF91CF911F91CD
S1135CA008951F920F920FB60F9211240BB60F9204
S1135CB02F933F934F935F936F937F938F939F9310
S1135CC0AF93BF93EF93FF93E091B9008E2F90E0D1
S1135CD0FC013897E135F10508F075C08827E458D0
S1135CE0FF4F8F4F40C210924D18E0914D18809194
