:10000000E5C0000004C1000002C1000000C1000002
:10001000FEC00000FCC00000FAC00000F8C00000F4
:10002000F6C00000F4C00000F2C00000F0C0000004
:100030001CC70000ECC00000EAC00000E8C00000DF
:10004000E6C00000E4C00000E2C00000E0C0000024
:10005000DEC00000DCC00000DAC00000D8C0000034
:10006000D6C000000C9493280C94E528D0C0000062
:10007000CEC00000CCC00000CAC00000C8C0000054
:10008000C6C00000C4C00000C2C00000C0C0000064
:100090000C9429290C947B29BAC000000C94C62D1D
:1000A000B6C00000B4C00000B2C00000B0C0000084
:1000B000AEC00000ACC00000AAC00000A8C0000094
:1000C000A6C00000A4C00000A2C000000C94BF297C
:1000D0000C94112A9CC000000C94552A0C94A72A59
:1000E00096C000000F1D0F1D0F1D461D4E1D631DE8
:1000F0000F1D0F1D461D4E1DE82D582E582E582E33
:10010000582E582E582E582EE82D582E582E582E30
:10011000582E582E582E582EEA2D582E582E582E1E
:10012000582E582E582E582E582E582E582E582E9F
:10013000582E582E582E582EEA2D582E582E582EFE
:10014000582E582E582E582E582E582E582E582E7F
:10015000582E582E582E582E542E582E582E582E73
:10016000582E582E582E582E1F2E582E582E582E98
:10017000582E582E582E582E582E582E582E582E4F
:10018000582E582E582E582E132E582E582E582E84
:10019000582E582E582E582E372E0E94500F8091D0
:1001A0006116823008F09BD50E948C1DF6CFCF934C
:1001B000DF931F92CDB7DEB7CE0101960E948C1A55
:1001C00049810E94811C0E94D81CF6CF11241FBEB9
:1001D000CFEFD1E2DEBFCDBF00E00CBF18E0A0E062
:1001E000B2E0E4E1FAE600E00BBF02C007900D9236
:1001F000AE33B107D9F728E1AEE3B8E001C01D92F4
:10020000AB38B207E1F70E9408210C940835F8CE0C
:1002100090935A188093591841E050E060E070E0E4
:100220008091751890917618A5C208950F931F9329
:10023000CF93DF938C01EB0182E090E09CD3009799
:1002400079F02091591830915A18FC01318320839C
:100250001093601800935F18D0937618C0937518A8
:10026000DF91CF911F910F9108958091591890912E
:100270005A180895CF92DF92EF92FF920F93CC24F9
:10028000CA94DC2C760101E021E042E050E060E01D
:1002900070E080915F1890916018CCD161FF1CC014
:1002A00066E070E080E090E00E941C130E94EE2661
:1002B00080935818882341F08FE692E09F938F93A4
:1002C0000E94EA310F900F908EE792E09F938F93F8
:1002D0000E94EA310F900F900F91FF90EF90DF9006
:1002E000CF9008958FE892E00E94FD318BEB90E073
:1002F000A0E0B0E08093611890936218A093631817
:10030000B09364180E94A11060935B1870935C18FE
:1003100080935D1890935E1888E091E00E94E92632
:10032000A9DFFECF0F93CF93DF93EC014FEF5FEF89
:10033000BA0180916718909168180E94010AE091B3
:100340006518F0916618D183C08300E020E030E0AA
:10035000A90160E070E08091671890916818D7D685
:1003600080E0DF91CF910F9108950F93CF93DF93AA
:10037000EC014FEF5FEFBA01809167189091681818
:100380000E94010AE0916518F0916618D583C48334
:1003900000E020E030E0A90160E070E080916718A3
:1003A00090916818B4D680E0DF91CF910F910895B5
:1003B0000F93CF93DF93EC014FEF5FEFBA01809182
:1003C0006718909168180E94010AE0916518F091F1
:1003D0006618D383C28300E020E030E0A90160E02A
:1003E00070E0809167189091681891D680E0DF9155
:1003F000CF910F9108950F93CF93DF93EC014FEFBF
:100400005FEFBA018091671890916818FAD7E09170
:100410006518F0916618D783C68300E020E030E0CD
:10042000A90160E070E080916718909168186FD61C
:1004300080E0DF91CF910F910895EF92FF920F939B
:100440009B01E12CF12C082F48E851E06DE972E0A6
:1004500082EE92E00E9417100F91FF90EF900895A6
:10046000CF92DF92EF92FF920F931F93CF93DF9380
:10047000EC018CEA92E00E94FD310FEF1FEF980132
:1004800046E150E06EE378E0CE010E947C0D82EB05
:1004900092E00E94FD3180913F08883009F083C0CE
:1004A0008091400890E0982F8827009739F4209198
:1004B0004108222329F081E090E002C081E090E031
:1004C000082F192F9F938F938BEB92E09F938F931D
:1004D0000E94EA318091420890E0982F88270F907F
:1004E0000F900F900F90009739F42091430822232A
:1004F00029F081E090E002C081E090E0E82EF92E42
:100500009F938F938AEC92E09F938F930E94EA319E
:100510008091440890E0982F88270F900F900F90BB
:100520000F90009739F420914508222329F081E0AB
:1005300090E002C081E090E0C82ED92E9F938F9367
:100540008CED92E09F938F930E94EA31C091460810
:10055000D0E0DC2FCC270F900F900F900F902097BA
:1005600039F480914708882329F0C1E0D0E002C027
:10057000C1E0D0E0DF93CF938BEE92E09F938F9317
:100580000E94EA318E2D9F2DCDDE802F912FEDDE42
:100590008C2F9D2F0DDF8C2D9D2D2DDF0F900F901B
:1005A0000F900F9006C064E574E280E090E00E9436
:1005B0001C13DF91CF911F910F91FF90EF90DF906F
:1005C000CF900895EC01CE014BDFFDCF0F930111C9
:1005D0000CC0DC01CB0182239323A423B523892BF8
:1005E0008A2B8B2B79F480E010C0DC01CB018223B5
:1005F0009323A423B523281739074A075B0721F063
:1006000080E003C081E001C081E00F910895CF93A5
:10061000DF938FE090E0AFD1EC01009739F0FC015F
:100620001192119211921192CF018BD2CE01DF91D2
:10063000CF9108952F923F924F925F926F927F9247
:100640008F929F92AF92BF92CF92DF92EF92FF92E2
:100650000F931F93CF93DF93EC014A015B01622E4E
:10066000702E0E949B10288039804A805B80A501F3
:100670009401C201B101AADF8823A1F0662089F1AB
:10068000D501C40180959095A095B09582219321C4
:10069000A421B52188839983AA83BB83C12CD12C43
:1006A000760122C0C114D104E104F104E9F0611023
:1006B00004C040E050E0BA0104C040E050E060E017
:1006C00071E071107460482959296A297B299701C2
:1006D0008601CE0104960E94B313212C312C2101F6
:1006E00003C0C12CD12C76010E94DB11CD28CE286D
:1006F000CF2859F1811101C0F2D20E9475176B0108
:100700007C0191FD1FC00FB6F8940F92C880D9806C
:10071000EA80FB80072DA5019401C701B60156DFD1
:10072000882371F0662061F080949094A094B09436
:100730008C209D20AE20BF2088829982AA82BB8215
:100740000F900FBE160127015524C201B101DF91A0
:10075000CF911F910F91FF90EF90DF90CF90BF90BE
:10076000AF909F908F907F906F905F904F903F9051
:100770002F9008954F925F926F927F92AF92BF92A7
:10078000CF92DF92EF92FF920F931F93CF93DF935D
:10079000EC016A017B018C01095F1F4F0E949B10D5
:1007A000EB85FC8588819981AA81BB81C82AD92AD9
:1007B000EA2AFB2AC882D982EA82FB82C12CD12C88
:1007C00076013DC0A480B58080819181A281B381F2
:1007D000AC01BD017727B2FD0EC0488059806A8008
:1007E0007B804422552266227722452846284728C6
:1007F00089F420E012C0488059806A807B804422BE
:10080000552266227722441555056605770521F0A5
:1008100020E003C021E001C021E0222371F0B0FFFD
:1008200004C0C42AD52AE62AF72A488159816A8158
:100830007B817260CF010E94EE14EA2DFB2DE01740
:10084000F10709F0BFCFC094D094E094F094888170
:100850009981AA81BB81C822D922EA22FB22C882BF
:10086000D982EA82FB820E94DB11688179818A81C8
:100870009B81DF91CF911F910F91FF90EF90DF90BF
:10088000CF90BF90AF907F906F905F904F90089502
:10089000E0E6F8E0A4E6B8E0B183A0831382128218
:1008A000ECE0F6E1F0935F08E0935E0813821282B9
:1008B0001182108288EA9DE013969C938E93129782
:1008C000ED93FC9390935B0880935A0890935D0896
:1008D00080935C0880E090E89093550880935408DA
:1008E0000895CF93DF93EC01A0E6B8E001C0DF01EB
:1008F000ED91FC911197EC17FD07C8F312968D91BD
:100900009C9113979D01280F391FC217D30749F4F3
:100910002A813B81820F931F13969C938E9312978B
:10092000ED018A819B819E01280F391FE217F30791
:10093000C1F420915E0830915F08E217F30771F06F
:1009400022813381820F931F9B838A83ED91FC91D7
:100950001197808191819983888305C03983288389
:1009600002C0F983E883CA17DB0711F0CD93DC934B
:10097000DF91CF910895EF92FF920F931F93CF9342
:10098000DF938C010E949B1080915E0890915F081C
:10099000892B09F47DDF80915408909155088023BC
:1009A0009123892B09F076C00115110549F0C80182
:1009B00004960817190718F000E010E001C08C0138
:1009C0000115110509F469C080915C0890915D08DA
:1009D0008017910708F464C0C0916008D091610845
:1009E000E0E6F8E002C0FE01EC018A819B818017FD
:1009F000910720F4888199810097A9F780915E087A
:100A000090915F08C817D90709F44DC0E080F180C4
:100A100084E0E80EF11C88819981918380832A818A
:100A20003B81201B310B2930310548F0CE01800F6E
:100A3000911FFC01338322831B830A8352DF2A81A7
:100A40003B8180915C0890915D08821B930B909391
:100A50005D0880935C0840915A0850915B088417A8
:100A6000950720F490935B0880935A08809154086E
:100A700090915508282B392B3B832A8319821882A1
:100A80008091580890915908019690935908809345
:100A900058080BC0E12CF12C08C0E12CF12C05C04A
:100AA000E12CF12C02C0E12CF12C0E94DB11E114AD
:100AB000F10411F40E94981DC701DF91CF911F919D
:100AC0000F91FF90EF9008950F931F93CF93DF93B3
:100AD000009791F1EC0124974A815B8120915408A1
:100AE00030915508BA0162237323672B29F168817D
:100AF0007981672B09F520953095242335233B8395
:100B00002A830E949B108A819B8120915C083091EE
:100B10005D08820F931F90935D0880935C08CE015F
:100B2000E0DE8091560890915708019690935708FF
:100B3000809356080E94DB11DF91CF911F910F9196
:100B40000895FC010396928381834FEF5FEFBA0112
:100B500043835483658376839087878392878187D5
:100B600010820895FC011386128608950F931F9337
:100B7000CF93DF93EB01088119812A813B810F3FDD
:100B80004FEF14072407340721F4FC01A185B28537
:100B900011C0DC01139601C0DF011496ED91FC91A8
:100BA00015974081518162817381041715072607CB
:100BB000370790F71496ED91FC911597FD83EC8320
:100BC000D783C683BF83AE831596DC93CE931497E9
:100BD0009B878A87FC0120812F5F2083DF91CF9143
:100BE0001F910F910895CF93DF93FC01A285B385E8
:100BF000C481D581868197819F838E83C681D78169
:100C0000848195819D838C8311968D919C911297FF
:100C1000E817F90731F48681978112969C938E9399
:100C20001197138612868C9181508C938C91DF9151
:100C3000CF910895A89590EC88E10FB6F894A89507
:100C4000809360000FBE909360000895FC01608364
:100C5000319770833197108231971082319720E855
:100C600020833197108231971082319710827797C5
:100C700040833197508386970895DCDFA091CF168B
:100C8000B091D016CD91CDBFDD91DEBFFF91EF9138
:100C9000DF91CF91BF91AF919F918F917F916F9194
:100CA0005F914F913F912F911F910F91FF90EF9086
:100CB000DF90CF90BF90AF909F908F907F906F907C
:100CC0005F904F903F902F901F900F900CBE0F9011
:100CD0000BBE0F900FBE0F90089581E008950F9204
:100CE0000FB6F8940F920BB60F920CB60F921F929C
:100CF00011242F923F924F925F926F927F928F9228
:100D00009F92AF92BF92CF92DF92EF92FF920F939A
:100D10001F932F933F934F935F936F937F938F9383
:100D20009F93AF93BF93CF93DF93EF93FF93A091E4
:100D3000CF16B091D0160DB60D920EB60D920E9440
:100D40003713A091CF16B091D016CD91CDBFDD91C4
:100D5000DEBFFF91EF91DF91CF91BF91AF919F9156
:100D60008F917F916F915F914F913F912F911F9143
:100D70000F91FF90EF90DF90CF90BF90AF909F903A
:100D80008F907F906F905F904F903F902F901F902B
:100D90000F900CBE0F900BBE0F900FBE0F900895DA
:100DA0000F920FB6F8940F920BB60F920CB60F92EB
:100DB0001F9211242F923F924F925F926F927F92D7
:100DC0008F929F92AF92BF92CF92DF92EF92FF925B
:100DD0000F931F932F933F934F935F936F937F9343
:100DE0008F939F93AF93BF93CF93DF93EF93FF9333
:100DF000A091CF16B091D0160DB60D920EB60D92F1
:100E000013BE0E94AF1081110E943713A091CF161C
:100E1000B091D016CD91CDBFDD91DEBFFF91EF91A6
:100E2000DF91CF91BF91AF919F918F917F916F9102
:100E30005F914F913F912F911F910F91FF90EF90F4
:100E4000DF90CF90BF90AF909F908F907F906F90EA
:100E50005F904F903F902F901F900F900CBE0F907F
:100E60000BBE0F900FBE0F9008959ADF1895DC010E
:100E700053962C915397222341F05A96ED91FC9171
:100E80005B9790818AE0891B089580E008950FB6F2
:100E9000F8940F92FC01868D811102C081E001C09F
:100EA00080E00F900FBE08950FB6F8940F92FC01EA
:100EB000268D878D281302C081E001C080E00F904D
:100EC0000FBE08950F931F93CF93DF93EC01042F70
:100ED0001E8D48A141110CC088819981892B09F090
:100EE00042C08C819D810E94B3161D821C8242C02B
:100EF000011117C050E08A819B810E948B3128A18B
:100F00008A819B81820F911D9B838A832C813D81E5
:100F10008217930750F1888199819B838A8380E0AF
:100F200029C050E08E819F810E948B3188A190E082
:100F30009195819591092E813F81280F391F3F831B
:100F40002E83488159812417350730F42C813D8147
:100F5000820F931F9F838E83023049F4112349F03F
:100F6000115080E007C080E005C080E003C080E051
:100F700001C080E01F5F1E8FDF91CF911F910F9105
:100F80000895FC0140A14423A9F050E02681378157
:100F9000240F351F378326838481958128173907CD
:100FA00020F08081918197838683CB016681778150
:100FB0000C948B3108951F93CF93DF93EC010FB600
:100FC000F8940F921AA10BC08B89882351F0CE019F
:100FD00043960E943F1481110E941516115011165C
:100FE0009CF38FEF8AA30F900FBE0FB6F8940F9269
:100FF00019A10BC08885882351F0CE0108960E9464
:101000003F1481110E941516115011169CF38FEF99
:1010100089A30F900FBEDF91CF911F910895CF93B9
:10102000DF93EC010FB6F8940F92E881F9818F8D70
:1010300028A190E030E0829FA001839F500D929FF5
:10104000500D11244E0F5F1F5D834C831E8EFB835A
:10105000EA830197289FA001299F500D389F500DCA
:101060001124CF01840F951F9F838E838FEF89A357
:101070008AA361110BC08885882371F0CE01089680
:101080000E943F14882341F02ADE06C0CE01089654
:1010900058DDCE01439655DD0F900FBE81E0DF9104
:1010A000CF9108950F931F93F801611103C011832D
:1010B000008302C051834083878F60A361E0CF012A
:1010C000AEDF1F910F910895DF92EF92FF920F9381
:1010D0001F93CF93DF93F82EE62ED42E869FC00168
:1010E0001124839648DCEC01009741F08C012D2DF2
:1010F000AC014D5D5F4F6E2D8F2DD4DFCE01DF91A2
:10110000CF911F910F91FF90EF90DF900895CF92B4
:10111000DF92EF92FF920F931F93CF93DF93CDB7A0
:10112000DEB729970FB6F894DEBF0FBECDBF7C01A6
:101130006B012E833F834887598710E00FB6F894E0
:101140000F92F701968D878D981710F00230B1F449
:10115000402FB601C701B6DEF7019389992341F00C
:10116000C70143960E943F14882321F0B8DD02C0D6
:101170008111B5DD0F900FBE81E04CC08E819F8143
:10118000A885B985892B8A2B8B2B21F40F900FBE54
:1011900080E040C0111105C0CE0101960E949E154D
:1011A00011E00F900FBEC7D70FB6F8940F92F7015A
:1011B00081A18F3F09F411A2F70182A18F3F09F4A9
:1011C00012A20F900FBEBE016A5F7F4FCE01019643
:1011D0000E94AF15811119C0C70166DE882381F016
:1011E0004E815F8168857985C70108960E949C13AE
:1011F000C701E1DE0E94DB118111A0CF70DD9ECF1F
:10120000C701D9DE0E94DB1199CFC701D4DE0E944D
:10121000DB1180E029960FB6F894DEBF0FBECDBF7C
:10122000DF91CF911F910F91FF90EF90DF90CF90C2
:1012300008950F93009769F0FC01158214821182C2
:101240001082168200E020E030E0A90160E070E04A
:101250005EDF0F910895CF93DF93482F60E081E028
:1012600033DFEC01E6DFCE01DF91CF910895EF92FD
:10127000FF920F931F93CF93DF938A01FC01568D4A
:10128000378D531710F02230F9F4422F7801EC011A
:101290001AA18E8DCE0116DE1F3F81F48B89882323
:1012A000A9F0CE0143960E943F14882389F0E114EF
:1012B000F10481F081E0F70180830DC0FF24F394F5
:1012C000F10EFAA281E007C080E005C081E003C012
:1012D00081E001C081E0DF91CF911F910F91FF90DC
:1012E000EF900895CF92DF92EF92FF920F931F93AA
:1012F000CF93DF93CDB7DEB729970FB6F894DEBF53
:101300000FBECDBF8C016B012E833F834887598769
:10131000E12C0FB6F8940F92F801F68CFF2099F0AB
:10132000B601C8012EDEFA94F801F68E8085882376
:1013300031F0C80108960E943F148111D0DC0F9053
:101340000FBE81E04FC08E819F81A885B985892B12
:101350008A2B8B2B21F40F900FBE80E043C0E1104D
:1013600006C0CE0101960E949E15EE24E3940F90D4
:101370000FBEE1D60FB6F8940F92F80181A18F3F0E
:1013800009F411A2F80182A18F3F09F412A20F9073
:101390000FBEBE016A5F7F4FCE0101960E94AF155E
:1013A000811117C0C80173DD882379F04E815F81F8
:1013B00068857985C80143960E949C13C801FBDDAE
:1013C000FAD78111A6CF8BDCA4CFC801F4DDF3D707
:1013D000A0CFC801F0DDEFD7C80159DD882309F49B
:1013E00098CF80E029960FB6F894DEBF0FBECDBF30
:1013F000DF91CF911F910F91FF90EF90DF90CF90F1
:101400000895EF92FF920F931F93CF93DF93CDB781
:10141000DEB729970FB6F894DEBF0FBECDBF8C01A3
:101420004E835F8368877987E12CF12C0FB6F8949F
:101430000F92F801868D8823C9F08150868F8081B4
:101440009181892B29F40E949F17F8019583848349
:10145000F8018085882331F0C80108960E943F1466
:1014600081113DDC0F900FBE81E06FC08E819F81A6
:10147000A885B985892B8A2B8B2B21F40F900FBE61
:1014800080E063C0F11006C0CE0101960E949E1557
:10149000FF24F3940F900FBE4ED60FB6F8940F9220
:1014A000F80181A18F3F09F411A2F80182A18F3FB9
:1014B00009F412A20F900FBEBE016A5F7F4FCE01EA
:1014C00001960E94AF15811126C0C801E0DC882377
:1014D000F1F0F80180819181892B51F40FB6F894D5
:1014E0000F92848195810E942C16E82E0F900FBEDA
:1014F0004E815F8168857985C80143960E949C135F
:10150000C80159DD58D7811191CFE9DB8FCFC801D0
:1015100052DD51D78BCFC8014EDD4DD7C801B7DCA6
:10152000882309F483CFEE2079F00FB6F8940F9258
:10153000C8019DDC682FF801848195810E940E17F7
:101540000F900FBE80E001C080E029960FB6F8949E
:10155000DEBF0FBECDBFDF91CF911F910F91FF90E6
:10156000EF900895CF93DF93EC010FB6F8940F92AC
:1015700089A18F3F09F419A28AA18F3F09F41AA209
:101580000F900FBE8E8D811104C0CE0143960E9434
:10159000FD13CE0110DDDF91CF910895FC01448150
:1015A000558122813381240F351F80819181B901BA
:1015B000681B790BCB016417750710F0841B950B22
:1015C00008950F93FC018FE0DF011D928A95E9F7E2
:1015D00075876487558344833783268306870F91F5
:1015E0000895AF92BF92CF92DF92EF92FF920F9346
:1015F0001F93CF93DF936C015B017A01FC01C281E1
:10160000D381048115810C1B1D0B4017510708F471
:101610008A01F60184859585A801B5018C0F9D1F6F
:101620000E948B310E151F0558F4A701401B510B6A
:10163000B501600F711FF601848595850E948B317D
:10164000CE018E0D9F1DF6012481358182179307EF
:1016500010F0821B930BF60193838283C701DF9105
:10166000CF911F910F91FF90EF90DF90CF90BF909F
:10167000AF900895CF92DF92EF92FF920F931F9356
:10168000CF93DF931F921F92CDB7DEB77C016B0122
:101690005A83498321153105C1F0FC01868580FDFF
:1016A00008C04217530708F49A013A83298381E05E
:1016B0000FC02017310758F042E050E0BE016F5FC5
:1016C0007F4FC7018EDF81E003C080E001C080E072
:1016D000882331F049815A81B601C70182DF02C0F7
:1016E00080E090E00F900F90DF91CF911F910F91CC
:1016F000FF90EF90DF90CF900895AF92BF92CF927E
:10170000DF92EF92FF920F931F93CF93DF937C01B1
:101710005B01E9014217530708F4EA01209781F1C0
:10172000F7010081118184819581801B910B6E01ED
:101730008C179D0708F46C01F70164857585600FAF
:10174000711FA601C5010E948B31CC16DD0658F42D
:10175000AE014C195D09F70164857585C5018C0DD5
:101760009D1D0E948B310C0F1D1FF70184819581F7
:101770000817190710F0081B190BF70111830083D4
:10178000CE01DF91CF911F910F91FF90EF90DF90ED
:10179000CF90BF90AF9008956F927F928F929F925B
:1017A000AF92BF92CF92DF92EF92FF920F931F936F
:1017B000CF93DF931F921F92CDB7DEB76C014B0121
:1017C0005A01790101151105B1F0FC0160807180A9
:1017D000A801BE016F5F7F4F90DF89819A81E01A77
:1017E000F10AA816B90630F4F60171826082A12CC4
:1017F000B12C01C05C019701A501B401C6017DDFD8
:101800000F900F90DF91CF911F910F91FF90EF906C
:10181000DF90CF90BF90AF909F908F907F906F9010
:101820000895CF92DF92EF92FF920F93CF93DF93C1
:10183000EC016B01413011F401E001C000E0C11482
:10184000D10419F4CC24C394D12CCE014096C817EE
:10185000D90720F421968FD87C0102C0E12CF12C0D
:10186000E114F10439F09601AE01B701615F7F4FD9
:10187000C701A7DEC701DF91CF910F91FF90EF90D5
:10188000DF90CF9008950F930FB6F8940F92FC015C
:1018900020853185232B71F422853385232B61F438
:1018A000268137814481558164857585068589DE69
:1018B00081E003C080E001C080E00F900FBE0F9177
:1018C0000895FC012481358180819181820F931FCD
:1018D00042815381841B950B01978217930710F067
:1018E000821B930B08952F923F924F925F926F92BB
:1018F0007F928F929F92AF92BF92CF92DF92EF92A0
:10190000FF920F931F93CF93DF93CDB7DEB72B9743
:101910000FB6F894DEBF0FBECDBF4C017B876A8740
:101920001A010E831F8328873987FC0184819581E2
:101930000197268520FF0CC02A01F2E04F0E511CB2
:101940008415950558F41E821F821886198606C0D4
:101950008417950710F02A0101C02C018E819F8108
:10196000A885B985892B8A2B8B2B09F438C0CE0129
:1019700001960E9488150FB6F8940F92C401A1DF5A
:101980003C018415950540F560E080E090E00E9400
:10199000721A0E941916F401938782870F900FBE66
:1019A000AE80BF80C884D984E12CF12C00E010E027
:1019B000980140E050E0BA0180E00E94B117F401C4
:1019C00013861286BE016A5F7F4FCE0101960E9488
:1019D000AF15882381F205C00F900FBE02C0612CA5
:1019E000712C6114710419F4C4016BDF3C01820194
:1019F0009301A1016A857B85C4013CDE6C01892BC2
:101A0000E9F0C401CBDDF401268137818217930709
:101A1000A8F091D3F40180859185892B71F08085A0
:101A20009185E12CF12C00E020E030E0A90160E09C
:101A30000E945918F40111861086BDD4C6012B9658
:101A40000FB6F894DEBF0FBECDBFDF91CF911F91CF
:101A50000F91FF90EF90DF90CF90BF90AF909F904D
:101A60008F907F906F905F904F903F902F90089550
:101A7000AF92BF92CF92DF92EF92FF920F931F939C
:101A8000CF93DF93EC017B015A0169018E8580FFC2
:101A900004C08A010E5F1F4F01C08A01CE0111DF11
:101AA0009C01A501B701CE01E5DD5C01892BC1F0E8
:101AB000CE0174DD2E813F818217930788F08885DF
:101AC0009985892B69F088859985E12CF12C00E0B6
:101AD00020E030E0A90160E00E94501919861886C4
:101AE000C501DF91CF911F910F91FF90EF90DF9093
:101AF000CF90BF90AF9008954F925F926F927F9278
:101B00008F929F92AF92BF92CF92DF92EF92FF920D
:101B10000F931F93CF93DF93EC012B013A015801F0
:101B200069018E8580FF05C06894882481F8912C16
:101B300002C0812C912CA114B104C104D10441F143
:101B40000FB6F8940F92CE0129DD7C018816990614
:101B500048F060E080E090E00E94721A0E9419163E
:101B6000998788870F900FBE8E149F04A0F0E12CF8
:101B7000F12C00E010E0980140E050E0BA0180E074
:101B80000E94B11719861886CE0108DD7C0103C0BA
:101B9000CE0104DD7C018E149F04E8F484019701DA
:101BA000A301B201CE01F8DD6C01892BB1F0C3D2E3
:101BB0008A859B85892B69F08A859B85E12CF12C90
:101BC00000E020E030E0A90160E00E9459181B8687
:101BD0001A86F1D302C0C12CD12CC601DF91CF915E
:101BE0001F910F91FF90EF90DF90CF90BF90AF903B
:101BF0009F908F907F906F905F904F900895E091AD
:101C00004916F0914A16808181110CC08FEF9FEF29
:101C1000DC018093131690931416A0931516B093BD
:101C200016160895E0914916F0914A160780F0853E
:101C3000E02D80819181A281B381809313169093CE
:101C40001416A0931516B09316160895CF93DF932C
:101C5000EC018B8D9C8D0E946405CE010E94640571
:101C6000DF91CF9108954F925F926F927F928F9202
:101C70009F92AF92BF92CF92DF92EF92FF920F931B
:101C8000CF93DF932C015B014A013901E60165EA3C
:101C900070E08B8D9C8D0E9494318B8D9C8D21E00A
:101CA000821A9108880E991EA114B10489F415C0F6
:101CB000822F90E0F501E80FF91F3081DE01A80FB7
:101CC000B91F5D963C938081882329F02F5F01C066
:101CD00020E0203168F31CA601C01D8E0A3008F0F8
:101CE00009E00A8F0DA71EA6CE0102960E94B2053A
:101CF000CE010E960E94B205DB87CA878AE090E08B
:101D0000A0E0B0E0801B9109A109B1098E879F87EF
:101D1000A88BB98BDF8BCE8B84E0FE01BF96DF01F1
:101D20001D928A95E9F71BAAA301B201C4010E9482
:101D3000260699838883E114F10419F0F701D18311
:101D4000C083DF91CF910F91FF90EF90DF90CF9004
:101D5000BF90AF909F908F907F906F905F904F90CB
:101D60000895CF93C0E009C02BE0C29FC0011124A9
:101D70008F59994E0E94A105CF5FCA30A8F386E51E
:101D800096E10E94A1058BE496E10E94A1058CE3F7
:101D900096E10E94A10581E396E10E94A10585E2FA
:101DA00096E10E94A10586E596E190934A168093FC
:101DB00049168BE496E19093481680934716CF918D
:101DC0000895CF93DF93EC010FB6F8940F928091B2
:101DD00024168F5F809324168091CF169091D01691
:101DE000892B51F4D093D016C093CF16809124162E
:101DF000813091F4B6DF10C080911E1681110CC0A5
:101E0000E091CF16F091D016928D8A8D891720F02F
:101E1000D093D016C093CF16809117168F5F809302
:101E20001716EA8D80911F168E1710F4E0931F1677
:101E30008BE08E9FF0011124EF59F94E0180F28161
:101E4000E02DFF83EE832681378139872887A6819D
:101E5000B7819E012E5F3F4F15963C932E931497AA
:101E600037832683EA8D8E9FF0011124EF59F94EB6
:101E7000FD87EC8780818F5F80830F900FBE8091FC
:101E80001E16882351F0E091CF16F091D016928D56
:101E90008A8D981710F40E946F06DF91CF910895F4
:101EA000CF93DF931BC00FB6F8940F92E0913816D2
:101EB000F0913916C085D185CE0102960E94F305B6
:101EC0008091241681508093241680913016815081
:101ED000809330160F900FBECE01B8DE8091301681
:101EE0008111E1CFDF91CF9108958F929F92AF92B0
:101EF000BF92CF92DF92EF92FF92CF93DF936B016D
:101F00007C01C42F8090201690902116A09022165C
:101F1000B09023168091CF169091D01602960E9411
:101F2000F3058FEFC816D806E806F806B1F5CC23FE
:101F3000A1F1E5E2F6E1A181B281C091CF16D09185
:101F4000D016BF83AE83C091CF16D091D01616960F
:101F50008D919C911797998788871696CD91DC91E2
:101F600017978091CF169091D01602969D838C83FF
:101F70008091CF169091D016029617969C938E93CF
:101F80001697A091CF16B091D0161D96FC93EE93A4
:101F90001C9780818F5F80833FC0C80CD91CEA1CCE
:101FA000FB1CE091CF16F091D016C282D382E4825E
:101FB000F582C814D904EA04FB0468F46091CF16D2
:101FC0007091D01680914716909148166E5F7F4FA2
:101FD0000E94B60521C06091CF167091D0168091F5
:101FE000491690914A166E5F7F4F0E94B605809108
:101FF000131690911416A0911516B0911616C816C6
:10200000D906EA06FB0640F4C0921316D0921416C5
:10201000E0921516F0921616DF91CF91FF90EF9097
:10202000DF90CF90BF90AF909F908F9008952F92A8
:102030003F924F925F926F927F928F929F92AF9258
:10204000BF92CF92DF92EF92FF920F93CF93DF93E5
:102050003C011B014A012901CA010E94BB046C0119
:10206000892B71F084E390E00E94BB04EC01892B82
:1020700019F0DC8ECB8E06C0C6010E94640502C03A
:10208000C0E0D0E0209761F0A12CB12C6E0192014C
:10209000A401B101C301E7DDCE0193DE81E001C0FF
:1020A0008FEFDF91CF910F91FF90EF90DF90CF9066
:1020B000BF90AF909F908F907F906F905F904F9068
:1020C0003F902F900895EF92FF920F930F2EF1E122
:1020D000EF2EF6E1FF2EF02D00E020E030E040ECA6
:1020E00050E06DEF72E08DEC90E0A1DF813011F4F3
:1020F0000E94161B8130C9F4F8948FEF9FEFDC012A
:102100008093131690931416A0931516B093161679
:1021100081E080931E1610922016109221161092C4
:102120002216109223160E943D06809106020F91FE
:10213000FF90EF900895809110168F5F8093101696
:1021400008950FB6F8940F926091201670912116A1
:1021500080912216909123160F900FBE0895CF9272
:10216000DF92EF92FF92CF93DF938091101681114F
:1021700005C1C0902016D0902116E0902216F09054
:1021800023168FEFC81AD80AE80AF80AC092201658
:10219000D0922116E0922216F0922316C114D10497
:1021A000E104F104B1F48091491690914A1620910E
:1021B00047163091481630934A162093491690934B
:1021C000481680934716809118168F5F80931816D3
:1021D00016DD8091131690911416A0911516B091EA
:1021E0001616C816D906EA06FB0620F480E0B2C02F
:1021F00081E001C080E0E0914916F0914A1690819B
:1022000091110CC04FEF5FEFBA014093131650933A
:10221000141660931516709316169CC0E09149161B
:10222000F0914A160780F085E02D0084F185E02DBD
:102230004281538164817581C416D506E606F7068E
:1022400048F4409313165093141660931516709328
:10225000161680C0A485B585C681D78120853185B5
:102260003F832E83C085D185268137813D832C8392
:1022700011964D915C9112979F012E5F3F4F42172F
:10228000530731F44085518512965C934E93119714
:10229000158614869C9191509C93A08DB18D1097BA
:1022A00009F1C289D389448955895F834E83C489E2
:1022B000D589428953895D834C8311966D917C91B8
:1022C0001297AF01425F5F4F6417750731F444897D
:1022D000558912965C934E931197118E108E9C9196
:1022E00091509C93A28D90911F169A1710F4A09371
:1022F0001F169BE09A9FD0011124AF59B94E119639
:102300000D90BC91A02DB783A68316964D915C913C
:102310001797518740871696CD91DC9117973D838B
:102320002C8317963C932E931697A28D9A9FD001DB
:102330001124AF59B94EB587A4879C919F5F9C9398
:10234000228DE091CF16F091D016928D291708F0CA
:102350004FCF51CFE091CF16F091D016E28D9BE098
:10236000E99FF0011124EF59F94E9081923008F065
:1023700081E090911916911116C016C080911A161D
:1023800090911B16A0911C16B0911D160196A11DCF
:10239000B11D80931A1690931B16A0931C16B09330
:1023A0001D1680E001C081E0DF91CF91FF90EF909A
:1023B000DF90CF900895CF92DF92EF92FF92CF936C
:1023C000DF930FB6F8940F9280911016815080938E
:1023D0001016809110168111BEC0809124168111B3
:1023E00088C0BCC0E0914316F09144160084F1858A
:1023F000E02DA08DB18DC289D389848995899F8371
:102400008E83C489D589828993899D838C83119613
:102410002D913C911297CF010E962817390731F470
:102420008489958912969C938E931197118E108EA4
:102430008C9181508C93A485B585C681D781808588
:1024400091859F838E83C085D185868197819D8369
:102450008C8311968D919C9112979F012E5F3F4F17
:102460008217930731F48085918512969C938E9301
:102470001197158614868C9181508C93A28D809132
:102480001F168A1710F4A0931F168BE08A9FD001A5
:102490001124AF59B94E11960D90BC91A02DB78360
:1024A000A68316964D915C91179751874087169693
:1024B000CD91DC9117973D832C8317963C932E93F7
:1024C0001697A28D8A9FD0011124AF59B94EB587B6
:1024D000A4878C918F5F8C93928DA091CF16B09131
:1024E000D0165A968C91981730F081E08093191687
:1024F00002C0E0E0F0E080913C16811173CFEF2B39
:1025000009F07DDBC0901A16D0901B16E0901C16C7
:10251000F0901D16C114D104E104F104A1F01FDEF6
:10252000882319F081E08093191681E0C81AD10838
:10253000E108F108A1F710921A1610921B161092DA
:102540001C1610921D1680911916882331F00E94D6
:102550006F0681E003C080E001C080E00F900FBEF5
:10256000DF91CF91FF90EF90DF90CF9008958F9201
:102570009F92AF92BF92CF92DF92EF92FF921F9302
:10258000CF93DF93EC016A017B01D5DD80902016AB
:1025900090902116A0902216B090231688819981E0
:1025A000AA81BB81AC01BD014C0D5D1D6E1D7F1D5F
:1025B00088169906AA06BB0660F4481759076A07E9
:1025C0007B0798F484169506A606B70680F010E0FF
:1025D00013C0481759076A077B0758F084169506F9
:1025E000A606B70640F010E007C010E005C011E0F5
:1025F00003C011E001C011E0488359836A837B83E3
:10260000112341F0CB01BA01681979098A099B09A4
:1026100040E06BDCD0DE811102C00E946F06812F8A
:10262000DF91CF911F91FF90EF90DF90CF90BF90FF
:10263000AF909F908F900895CF92DF92EF92FF928C
:102640006B017C01672B682B692B39F074DD40E04E
:10265000C701B6014ADCAFDE01C080E0811102C0D3
:102660000E946F06FF90EF90DF90CF9008958091C9
:102670001016882321F081E0809319160895109296
:102680001916E091CF16F091D01620813181E0919A
:10269000CF16F091D016838D948D8217930760F03A
:1026A0006091CF167091D016635E7F4F8091CF16E8
:1026B0009091D0160E94A41D80911F1601C08150D8
:1026C000282F30E09BE0929FF001939FF00D1124A2
:1026D000EF59F94E9081992391F39BE0929FA001CD
:1026E000939F500D1124DF010180F281E02D0480C1
:1026F000F581E02D1296FC93EE9311974C59594EAB
:10270000E417F50729F444815581FD015283418383
:102710009BE0929FF001939FF00D1124EF59F94E29
:102720000180F281E02D208531853093D0162093F1
:10273000CF1680931F160895CF92DF92EF92FF92EB
:102740006A017B016091CF167091D016625F7F4F56
:102750000E94B60541E0C701B601C7DBFF90EF90CC
:10276000DF90CF9008950F931F93CF93DF93FC01D9
:10277000A091CF16B091D01670681E964D935D93C0
:102780006D937C935197A181B281C091CF16D09166
:10279000D016BB8BAA8BC091CF16D091D0161696AF
:1027A0008D919C9117979D8B8C8B1696CD91DC917A
:1027B00017978091CF169091D0160E969D838C839B
:1027C0008091CF169091D0160E9617969C938E936B
:1027D0001697A091CF16B091D0165996FC93EE9310
:1027E000589780818F5F808341E0C901B8017DDB0C
:1027F000DF91CF911F910F910895CF93DF93FC014B
:10280000CB01BA01A181B281C091CF16D091D0166F
:10281000BB8BAA8BC091CF16D091D01616964D9136
:102820005C9117975D8B4C8B1696CD91DC91179729
:102830004091CF165091D016425F5F4F5D834C831D
:102840004091CF165091D016425F5F4F17965C9320
:102850004E931697A091CF16B091D0165996FC932F
:10286000EE93589730813F5F3083222319F06FEF4A
:102870007FEFCB01422F39DBDF91CF910895CF93CA
:10288000DF93DC011796ED91FC9118970084F18598
:10289000E02DA08DB18DC289D389848995899F83CC
:1028A0008E83C489D589828993899D838C8311966F
:1028B0008D919C9112979F01225F3F4F8217930742
:1028C00031F48489958912969C938E931197118E79
:1028D000108E8C9181508C9380911016811152C072
:1028E000A485B585C681D781808591859F838E8398
:1028F000C085D185868197819D838C8311968D912A
:102900009C9112979F012E5F3F4F8217930731F4DE
:102910008085918512969C938E93119715861486C7
:102920008C9181508C93A28D80911F168A1710F480
:10293000A0931F168BE08A9FD0011124AF59B94E86
:1029400011960D90BC91A02DB783A68316964D913C
:102950005C911797518740871696CD91DC91179718
:102960003D832C8317963C932E931697A28D8A9FB6
:10297000D0011124AF59B94EB587A4878C918F5FD0
:102980008C931CC04CE356E1DA011196CD91DC9199
:102990001297D38BC28B8E819F81958B848B8E8176
:1029A0009F81DC0115963C932E9314973F832E83D1
:1029B000518F408FDA018C918F5F8C93928DE091D3
:1029C000CF16F091D016828D891720F481E0809384
:1029D000191601C080E0DF91CF910895CF93DF9366
:1029E000DC0170684D935D936D937C9313971896FB
:1029F000ED91FC9119971A964D915C911B97149645
:102A00008D919C91159716962D913C911797EC01FD
:102A10003F832E8316968D919C91179714962D9136
:102A20003C911597EC013D832C83EA0189819A81C1
:102A3000A817B90731F416968D919C9117979A8330
:102A400089831B961C921E921A97DA018C918150F1
:102A50008C93A485B585C681D781808591859F8318
:102A60008E83C085D185868197819D838C831196C5
:102A70008D919C9112979F012E5F3F4F8217930774
:102A800031F48085918512969C938E9311971586CB
:102A900014868C9181508C93A28D80911F168A1779
:102AA00010F4A0931F168BE08A9FD0011124AF5918
:102AB000B94E11960D90BC91A02DB783A6831696A2
:102AC0004D915C911797518740871696CD91DC9177
:102AD00017973D832C8317963C932E931697A28DC0
:102AE0008A9FD0011124AF59B94EB587A4878C9124
:102AF0008F5F8C93928DE091CF16F091D016828DDE
:102B0000891718F481E080931916DF91CF91089509
:102B10000FB6F8940F9220911816FC012083409173
:102B20002016509121166091221670912316418330
:102B30005283638374830F900FBE089520911816FB
:102B4000FC0120834091201650912116609122169D
:102B500070912316418352836383748308958F9207
:102B60009F92AF92BF92CF92DF92EF92FF920F931C
:102B70001F93CF93DF93FB010FB6F8940F92C09091
:102B80002016D0902116E0902216F0902316DC013A
:102B900011960D911D912D913C911497460157016D
:102BA000801A910AA20AB30A40815181628173811D
:102BB0004F3FBFEF5B076B077B0739F1EC01B88133
:102BC000A0911816BA1759F0C016D106E206F306FE
:102BD00030F0108211821282138281E017C08416B5
:102BE0009506A606B70658F4481959096A097B09DB
:102BF0004083518362837383A1DF80E007C010822A
:102C000011821282138281E001C080E00F900FBE1A
:102C1000DF91CF911F910F91FF90EF90DF90CF90B8
:102C2000BF90AF909F908F90089581E08093191688
:102C300008958091CF169091D016089580911E1618
:102C4000882331F080911016811104C082E008952C
:102C500081E0089580E008950F931F93CF93DF9351
:102C6000FC01892B09F477C0828DA091CF16B09119
:102C7000D0165A969C91891708F063C046855785EF
:102C800060897189772394F0A091CF16B091D01606
:102C90005A969C914AE050E060E070E0491B51096F
:102CA0006109710946875787608B718B248535854B
:102CB0004BE0849FC00111248F59994E2817390782
:102CC000B9F5EF018F010E5F1F4FC8010E94F30598
:102CD000E091CF16F091D016E28DEA8F80911F1609
:102CE0008E1710F4E0931F168BE08E9FF0011124D5
:102CF000EF59F94E0180F281E02DFF83EE832681AA
:102D0000378139872887A681B78115961C930E9342
:102D1000149717830683EA8D8E9FF0011124EF59D3
:102D2000F94EFD87EC8780818F5F808381E016C03C
:102D3000A091CF16B091D0165A968C91828F81E0D7
:102D40000DC095A5E091CF16F091D016828D981701
:102D500020F080E003C080E001C081E0DF91CF91EE
:102D60001F910F9108950F931F93CF93DF93FC0151
:102D7000892B09F449C086A5815086A7228D95A587
:102D8000291709F443C0811143C0EF018F010E5F81
:102D90001F4FC8010E94F305EDA5EA8F8AE090E07D
:102DA000A0E0B0E08E1B9109A109B1098E879F8731
:102DB000A88BB98B80911F168E1710F4E0931F1605
:102DC0008BE08E9FF0011124EF59F94E0180F281C2
:102DD000E02DFF83EE832681378139872887A681FE
:102DE000B78115961C930E93149717830683EA8D6B
:102DF0008E9FF0011124EF59F94EFD87EC878081F9
:102E00008F5F808381E005C080E003C080E001C067
:102E100080E0DF91CF911F910F9108950F931F9341
:102E2000CF93DF93FC01892B09F45AC085A586173F
:102E300008F4862F928D891709F452C026A52130F7
:102E400009F04EC0828F4685578560897189772346
:102E500064F04AE050E060E070E0481B510961090D
:102E6000710946875787608B718B248535854BE0C8
:102E7000949FC00111248F59994E2817390781F565
:102E8000EF018F010E5F1F4FC8010E94F305EA8D0D
:102E900080911F168E1710F4E0931F168BE08E9F03
:102EA000F0011124EF59F94E0180F281E02DFF83EA
:102EB000EE832681378139872887A681B7811596C9
:102EC0001C930E93149717830683EA8D8E9FF0014F
:102ED0001124EF59F94EFD87EC8780818F5F808345
:102EE000DF91CF911F910F910895CF92DF92EF92D2
:102EF000FF92E091CF16F091D01666857785808994
:102F00009189E091CF16F091D016A091CF16B09193
:102F1000D0165A962C910F2EFAE0CF2ED12CE12C00
:102F2000F12CF02DC21AD108E108F108C686D78627
:102F3000E08AF18AFF90EF90DF90CF900895809122
:102F4000CF169091D016892B39F0E091CF16F091E1
:102F5000D01686A58F5F86A78091CF169091D01648
:102F600008954F925F926F927F92AF92BF92CF92ED
:102F7000DF92EF92FF920F931F93CF93DF9328017D
:102F800039010FB6F8940F92E091CF16F091D01658
:102F9000C82FD0E0EC0FFD1F83A9823079F1E091BA
:102FA000CF16F091D016CE01880F991F880F991F68
:102FB000E80FF91F87A590A9A1A9B2A9409550953E
:102FC00060957095482359236A237B2347A750AB0C
:102FD00061AB72ABE091CF16F091D016EC0FFD1FF4
:102FE00081E083ABA114B104C104D10439F041E004
:102FF000C601B5010E94750F0E946F060F900FBEAB
:103000000FB6F8940F92E114F104A1F0E091CF16FD
:10301000F091D016CE01880F991F880F991FE80FE5
:10302000F91F87A590A9A1A9B2A9F701808391836F
:10303000A283B383E091CF16F091D016EC0FFD1F61
:1030400083A98230E9F4E091CF16F091D016CE0139
:10305000880F991F880F991FE80FF91F87A590A95E
:10306000A1A9B2A940945094609470944822592226
:103070006A227B2247A650AA61AA72AA81E001C0F7
:1030800080E02091CF163091D016C20FD31F1BAA1B
:103090000F900FBEDF91CF911F910F91FF90EF9096
:1030A000DF90CF90BF90AF907F906F905F904F90E8
:1030B00008958F929F92AF92BF92EF92FF920F93DB
:1030C000CF93DF93DC010FB6F8940F92E114F10473
:1030D00089F0E62FF0E0EE0FFF1FEE0FFF1FE80F65
:1030E000F91F87A490A8A1A8B2A8F70180829182B5
:1030F000A282B38270E0FD01E60FF71F83A992E080
:1031000093AB023001F118F4013031F04DC00330BF
:1031100079F10430D1F148C0660F771F660F771F31
:10312000FD01E60FF71F87A490A8A1A8B2A8BA01D5
:10313000A901482959296A297B2947A750AB61ABC6
:1031400072AB01E034C0660F771F660F771FFD0179
:10315000E60FF71F47A550A961A972A94F5F5F4FFE
:103160006F4F7F4F47A750AB61AB72AB01E01FC001
:10317000660F771F660F771FFD01E60FF71F27A762
:1031800030AB41AB52AB01E012C0823079F0660F38
:10319000771F660F771FFD01E60FF71F27A730ABDC
:1031A00041AB52AB01E003C001E001C000E081305F
:1031B00009F069C01C96ED91FC911D971696CD9172
:1031C000DC91179718968D919C9119979F838E8308
:1031D0001896CD91DC91199716968D919C91179721
:1031E0009D838C83818192819D012E5F3F4F821749
:1031F000930731F418968D919C911997928381834E
:103200001D961C921E921C978081815080835A9635
:10321000EC915A9780911F168E1710F4E0931F16A9
:103220008BE08E9FF0011124EF59F94E0180F2815D
:10323000E02D1796FC93EE931697468157811996C9
:103240005C934E931897C681D7813D832C83378337
:1032500026835A96EC915A978E9FF0011124EF59CC
:10326000F94E1D96FC93EE931C9780818F5F8083AF
:103270005A969C91E091CF16F091D016828D8917C5
:1032800010F40E946F060F900FBE802FDF91CF9138
:103290000F91FF90EF90BF90AF909F908F90089507
:1032A0008F929F92AF92BF92CF92DF92EF92FF9256
:1032B0000F93CF93DF93DC01E114F10489F0E62F43
:1032C000F0E0EE0FFF1FEE0FFF1FE80FF91F87A4BE
:1032D00090A8A1A8B2A8F70180829182A282B382AD
:1032E00070E0FD01E60FF71F93A982E083AB023087
:1032F00001F118F4013031F04DC0033079F10430A0
:10330000D1F148C0660F771F660F771FFD01E60FEA
:10331000F71F87A490A8A1A8B2A8BA01A9014829BB
:1033200059296A297B2947A750AB61AB72AB81E071
:1033300034C0660F771F660F771FFD01E60FF71F7A
:1033400047A550A961A972A94F5F5F4F6F4F7F4F8B
:1033500047A750AB61AB72AB81E01FC0660F771F10
:10336000660F771FFD01E60FF71F27A730AB41ABB4
:1033700052AB81E012C0923079F0660F771F660F72
:10338000771FFD01E60FF71F27A730AB41AB52AB0C
:1033900081E003C081E001C080E0913009F096C077
:1033A0009091101691115FC01C96ED91FC911D97A4
:1033B0001696CD91DC91179718962D913C911997FF
:1033C0003F832E831896CD91DC91199716962D91F7
:1033D0003C9117973D832C83418152819D012E5F43
:1033E0003F4F4217530731F418964D915C9119974E
:1033F000528341831D961C921E921C97908191507E
:1034000090835A96EC915A9790911F169E1710F43C
:10341000E0931F169BE09E9FF0011124EF59F94E97
:103420000180F281E02D1796FC93EE93169746816A
:10343000578119965C934E931897C681D7813D8327
:103440002C83378326835A96EC915A979E9FF001DE
:103450001124EF59F94E1D96FC93EE931C97908121
:103460009F5F908321C06CE376E1FB01C181D28133
:103470005396DC93CE9352972E813F8155963C9381
:103480002E9354974E815F819D01225F3F4FFA0139
:10349000358324833F832E8359967C936E9358976C
:1034A000FB0190819F5F90835A962C91E091CF16FB
:1034B000F091D016928D921748F4C114D10419F0EE
:1034C00091E0F601908391E090931916DF91CF91EE
:1034D0000F91FF90EF90DF90CF90BF90AF909F90B3
:1034E0008F900895009721F48091CF169091D01677
:1034F0000FB6F8940F9270E0FC01E60FF71F23A9B6
:10350000223031F4FC01E60FF71F13AA81E001C05D
:1035100080E00F900FBE0895DC01E091DB16F09182
:10352000DC16808191E0811190E09C93911108C09C
:103530000780F085E02D60817181828193810895FB
:1035400060E070E0CB010895CF92DF92EF92FF929E
:103550000F931F93FC014283538364837583938786
:1035600082870417150726073707C0F00C191D09B5
:103570002E093F0986859785A089B1890817190703
:103580002A073B0700F5BF016E5F7F4F8091D91678
:103590009091DA160E94B60580E018C00C151D0542
:1035A0002E053F0528F44C155D056E057F0568F472
:1035B000BF016E5F7F4F8091DB169091DC160E94F9
:1035C000B60580E003C081E001C081E01F910F914A
:1035D000FF90EF90DF90CF9008950FB6F8940F9280
:1035E0008091D7169091D816892BE9F488EE96E150
:1035F0000E94A1058DED96E10E94A10588EE96E15D
:103600009093DC168093DB168DED96E19093DA169D
:103610008093D91640E067E08AE00E9464089093A6
:10362000D8168093D7160F900FBE0895EF92FF9291
:103630000F93D3DF8091D7169091D816892B91F0F4
:103640000F2EF5EDEF2EF6E1FF2EF02D03E020E03A
:1036500030E040EC50E062E073E087ED90E00E94E3
:10366000171001C080E00F91FF90EF9008958F92A6
:103670009F92AF92BF92CF92DF92EF92FF920F9301
:103680001F93CF93DF93CDB7DEB727970FB6F8948C
:10369000DEBF0FBECDBFE091D716F091D8163097A0
:1036A00081F169832A833B834C835D839F838E836F
:1036B0006630F4F4C3DA823069F400E0A7019601C1
:1036C000BE016F5F7F4F8091D7169091D8160E94F0
:1036D000870818C000E020E030E0A901BE016F5F5C
:1036E0007F4F8091D7169091D8160E9487080AC004
:1036F00020E0A801BE016F5F7F4FCF010E94370914
:1037000001C080E027960FB6F894DEBF0FBECDBF94
:10371000DF91CF911F910F91FF90EF90DF90CF90AD
:10372000BF90AF909F908F9008958F929F92AF928D
:10373000BF92CF92DF92EF92FF920F931F93CF939E
:10374000DF933BC00780F085E02D80809180A280D0
:10375000B380C085D1858E010E5F1F4FC8010E94C6
:10376000F305EC89FD89CE0119958E8982FF25C06C
:103770008E859F85A889B989880D991DAA1DBB1DB5
:1037800088169906AA06BB0670F48A839B83AC83CD
:10379000BD83DB87CA87B8018091DB169091DC1668
:1037A0000E94B6050AC0C12CD12C760100E010E0C1
:1037B000A501940160E0CE015ADFE091DB16F091A3
:1037C000DC1680818111BECF8091D9169091DA16D6
:1037D0009093DC168093DB16F093DA16E093D916FB
:1037E000DF91CF911F910F91FF90EF90DF90CF90DD
:1037F000BF90AF909F908F900895CF92DF92EF92FD
:10380000FF92CF93DF93EC010E94A1106B017C012A
:103810008091D1169091D216A091D316B091D41662
:10382000C816D906EA06FB0620F47FDF81E088830C
:1038300001C01882C092D116D092D216E092D3164F
:10384000F092D416C701B601DF91CF91FF90EF90AF
:10385000DF90CF9008954F925F926F927F928F92F8
:103860009F92AF92BF92CF92DF92EF92FF920F930F
:103870001F93CF93DF934B015C0129013A01E09143
:10388000DB16F091DC160780F085E02DC085D18530
:10389000CE0102960E94F3058E8982FF1BC04E85E1
:1038A0005F8568897989480D591D6A1D7B1D7501E1
:1038B000640193018201CE0147DE882369F0C12CA7
:1038C000D12C760100E010E0A501940160E0CE016A
:1038D000CEDE02C08E7F8E8BEC89FD89CE011995DC
:1038E000DF91CF911F910F91FF90EF90DF90CF90DC
:1038F000BF90AF909F908F907F906F905F904F9010
:1039000008958F929F92AF92BF92CF92DF92EF92E3
:10391000FF921F93CF93DF931F92CDB7DEB76B015A
:103920007C01142F0E949B10CE01019666DF4B0193
:103930005C01898181112DC011110DC08C149D0471
:10394000AE04BF0440F00E94DB11A5019401C70141
:10395000B60181DF20C0112341F0E091D916F0912A
:10396000DA16808111E0811110E0B701A601481933
:1039700059096A097B09212F8091D7169091D81691
:103980000E94B20A0E94DB11811105C00E946F06DD
:1039900002C00E94DB110F90DF91CF911F91FF9029
:1039A000EF90DF90CF90BF90AF909F908F90089551
:1039B000AF92BF92CF92DF92EF92FF920F931F933D
:1039C000CF93DF93CDB7DEB728970FB6F894DEBF5D
:1039D0000FBECDBF82C0898188230CF47EC0AE802B
:1039E000BF80D5011C968D919C911D97892B21F04C
:1039F000C50102960E94F305CE010896FEDE8B01FA
:103A00009C01E9810E2E000CFF0BEA30F10508F055
:103A100064C08827EE58FF4F8F4F0C945E30F5013D
:103A200086898160868BCA80DB80EC80FD8046853C
:103A30005785608971894C0D5D1D6E1D7F1DC50107
:103A400083DD882309F449C0D5015496ED91FC919A
:103A50005597C5011995F501868982FF3EC04A81B7
:103A60005B816C817D8186859785A089B1899A016A
:103A7000AB01280F391F4A1F5B1FC12CD12C7601C7
:103A800000E010E060E0C501F2DD27C0D5015696E8
:103A90008C9156978E7F56968C931FC0F501868920
:103AA0008160868B4A815B816C817D8146875787E7
:103AB000608B718B400F511F621F731F680179016A
:103AC000C50142DD0AC0F501868981FD04C0C5013A
:103AD0000E94640502C08E7F868B20E030E0A90141
:103AE000BE016F5F7F4F8091D7169091D8160E94CC
:103AF0007209811170CF28960FB6F894DEBF0FBE01
:103B0000CDBFDF91CF911F910F91FF90EF90DF908C
:103B1000CF90BF90AF900895089584B1806884B924
:103B200085B1806885B9089583B1806883B90895A7
:103B3000F4DF2FEF80E792E0215080409040E1F7E2
:103B400000C00000F1DFF5CFE8DF2FEF87EA91E654
:103B5000215080409040E1F700C00000E5DFF5CF44
:103B600086E090E00E94BB0490936A1880936918E5
:103B7000009711F480E090E00895E0916918F091C9
:103B80006A18918380830895E0916918F0916A180A
:103B9000938382830895E0916918F0916A18958360
:103BA00084830895E3EFF6E126E021836083A0910A
:103BB0006918B0916A182C9111963C911197328333
:103BC000238312962C91129713963C91139734836A
:103BD000258314962C91149715963C913683278350
:103BE00026E1DC0101900D922A95E1F708950F93EB
:103BF0001F93CF93DF938C01EB0188E090E00E944C
:103C0000BB04009709F110936C1800936B18D093C4
:103C10006E18C0936D184091091750910A17609162
:103C20000B1770910C17FC014483558366837783CF
:103C300040910D1750910E1760910F17709110174A
:103C40004083518362837383DF91CF911F910F91E2
:103C5000089560910D1770910E1780910F17909134
:103C60001017DCD2CB0108956091091770910A17E3
:103C700080910B1790910C17D1D2CB01089550D39E
:103C8000882341F08AE093E09F938F930E94EA316A
:103C90000F900F900895CC24CA94DC2C760101E09B
:103CA00021E041E050E060E070E080916B1890917D
:103CB0006C180E941A0360FFEECF66E070E080E0AF
:103CC00090E00E941C1344D38823C1F066E070E0AA
:103CD00080E090E00E941C138FE193E09F938F930C
:103CE0000E94EA310F900F9006C063E070E080E020
:103CF00090E00E941C132CD38823B9F33ED363E0D9
:103D000070E080E090E00E941C1337D38111C3CF94
:103D100066E070E080E090E00E941C133FD3609367
:103D2000091770930A1780930B1790930C174BD3B6
:103D300060930D1770930E1780930F1790931017C1
:103D400089E593E09F938F930E94EA3142E050E02F
:103D500060E070E080916D1890916E180E94BA0337
:103D60000F900F9098CF0F931F93CF93DF93CDB702
:103D7000DEB764970FB6F894DEBF0FBECDBF81E00B
:103D80000E945E2CA8D424D79F938F938BE793E057
:103D90009F938F930E94EA311CD61AD79F938F93DB
:103DA0008EE893E09F938F930E94EA3187EA93E035
:103DB0000E94FD318E010F5F1F4FC8019ED408D7AE
:103DC0001F930F939F938F9384EB93E09F938F9315
:103DD0000E94EA31C801ADD4FBD69F938F931F9305
:103DE0000F9388EC93E09F938F930E94EA318DEDBF
:103DF00093E00E94FD31A8016AEE73E08BE094E04D
:103E0000C6D6E6D69F938F931F930F938AEE93E0C7
:103E10009F938F938BE094E09F938F938CE194E03A
:103E20009F938F930E94EA31B7D4D2D69F938F93FA
:103E300082E594E09F938F930E94EA310FB6F89445
:103E4000DEBF0FBECDBF81E0A1D5C2D69F938F93B9
:103E500081E694E09F938F930E94EA3182E894E098
:103E60000E94FD3184EF91E09CD5B2D69F938F9351
:103E700081E08F9384EF8F938FE894E09F938F93EB
:103E80000E94EA310FB6F894DEBF0FBECDBF1AE034
:103E900080E088D4082F9CD69F938F931F921F9306
:103EA0008FEA94E09F938F930E94EA310F900F90D6
:103EB0000F900F900F900F90083059F080E00E9403
:103EC000C22C66E371E080E090E00E941C13115068
:103ED000F9F6083021F481E00E94A42C0DC08FEC8B
:103EE00094E00E94FD3181E00E94B32C80E00E94AA
:103EF000812C0E946F06FDCF64960FB6F894DEBF4A
:103F00000FBECDBFDF91CF911F910F910895EF921A
:103F1000FF920F939B017093121760931117E12C7E
:103F2000F12C082F48E851E06AED74E084ED9FE140
:103F30000E9417100F91FF90EF90089581E0BDD37C
:103F400062E070E080E090E00E941C1380E0B5D356
:103F500066E970E080E090E00E941C1367D303DF05
:103F60000FEF1FEF980146E150E063E177E18091A8
:103F70001117909112170E947C0D892B89F383E011
:103F80000E94D42C63E177E180E035D421D69F9361
:103F90008F9385EE94E09F938F930E94EA310F9068
:103FA0000F900F900F90DCCFC9DF75CE08950C9461
:103FB00072010895CF93DF93CDB7DEB7E0970FB6C8
:103FC000F894DEBF0FBECDBF0E94A1106F8B788F1B
:103FD000898F9A8F43E050E060E070E0809179181B
:103FE00090917A180E94BA03CC24CA94DC2C7601F2
:103FF00001E021E043E050E060E070E0809175185E
:10400000909176180E941A03DC01CB0183709927E6
:10401000AA27BB270397A105B105E1F61ADEB4DD97
:1040200018DE9F938F938AEF94E09F938F930E9463
:10403000EA311ADEB0DD18DE9F938F9384E195E0BC
:104040009F938F930E94EA310E94350196DD0E9472
:1040500035019F938F938DE295E09F938F930E94FC
:10406000EA3162E0CE014B969DDD86E1FE017B9652
:10407000DE01119601900D928A95E1F763E070E000
:1040800080E090E00E941C130FEF1FEF980146E1C3
:1040900050E0BE016F5F7F4F80916F189091701854
:1040A0000E94730C48EA58E460E070E0CE01479645
:1040B0000E94B7120FB6F894DEBF0FBECDBF8ACFF5
:1040C000EF92FF920F93CF93DF9341E060E070E0B7
:1040D00084E690E00E94110C9093701880936F1802
:1040E00041E060E070E08CE290E00E94110C90935F
:1040F00074188093731834DD0E940703092E000C96
:10410000AA0BBB0B8093791890937A18A0937B1815
:10411000B0937C180E940703AC01092E000C660BBB
:10412000770B4093751850937618609377187093B7
:104130007818C9E7D8E1BC018881998158DD609180
:10414000751870917618888199810E941601809166
:10415000711890917218892B89F481E00E942B09C3
:104160009093721880937118009741F000E020E05E
:1041700030E0A90160E070E00E948708E12CF12C9A
:1041800003E020E030E040EC50E06FE375E08AEDC2
:104190009FE10E94171001E020E030E040EC50E089
:1041A0006BE475E085ED9FE10E94171020E030E0A0
:1041B00040EC50E060E675E087ED9FE10E9417104B
:1041C000DF91CF910F91FF90EF90089581B18168B9
:1041D00081B980E00E94092B52DD83E0D5D545D618
:1041E0006FDF85E00E94102C609173187091741835
:1041F00081E023D2609173187091741885E00E9459
:104200001D0260916F187091701884E080CE08953F
:10421000DDDF0E94631080E090E0089533D088F0E5
:104220009F5790F0B92F9927B751A0F0D1F0660FA2
:10423000771F881F991F1AF0BA95C9F712C0B130BD
:1042400081F03AD0B1E0089537C0672F782F8827E2
:10425000B85F39F0B93FCCF3869577956795B395FC
:10426000D9F73EF490958095709561957F4F8F4F6B
:104270009F4F089557FD9058440F551F59F05F3FC9
:1042800071F04795880F97FB991F61F09F3F79F078
:1042900087950895121613061406551FF2CF4695FA
:1042A000F1DF08C0161617061806991FF1CF86957C
:1042B0007105610508940895E894BB276627772760
:1042C000CB0197F908956530F1F4FA0180818F737D
:1042D00090E0982F88272181822B90930A02809367
:1042E00009028281F0E48F9FC0011124FA01238129
:1042F00026952695822B909308028093070281E0F1
:10430000809329170895643051F080E090E49093F1
:1043100008028093070290930A028093090208958D
:104320000F931F9303E611E220E034E244EF50E0E4
:1043300060E087E20E94F62C90932B1780932A1757
:1043400021E0892B09F020E0822F1F910F91089521
:1043500080912A1790912B17009759F040E060E068
:1043600070E00E94472D843031F41092291780E0CC
:10437000089582E0089583E0089580912A1790912E
:104380002B17009739F064E00E94932D853021F0BF
:1043900083E0089582E0089580E008956091090225
:1043A00070910A0280E090E00E94712F20E030E0DE
:1043B00048EC52E40E94D62F20E038EF4FE756E455
:1043C0000C94062F0895609107027091080280E016
:1043D00090E00E94712F20E030E045E253E40E941B
:1043E000D62F20E038EF4FE756E40E94062F20E05A
:1043F00030E040E252E40C949F2E08950F931F93F7
:10440000CF93DF931F921F92CDB7DEB78C01198235
:104410002DC0E0916317EC3250F481E08E0F809351
:104420006317F0E0EB56F84E8A81808302C0109249
:1044300063178A818A30D1F44091631750E0FA0102
:10444000ED56F84E1082415051099E012F5F3F4FAB
:1044500065E977E180916617909167170E94380DA2
:10446000898181110E946F0610926317BE016E5FF1
:104470007F4FC80138D6882361F20F900F90DF91EB
:10448000CF911F910F9108950F931F93CF93DF93B7
:104490008C01EB0180916617909167170E94430C85
:1044A000B8018CE297E10E94CB31209779F0ECE2E1
:1044B000F7E101900020E9F7319780E290E09183E5
:1044C0008083BE018CE297E10E94C031ECE2F7E10B
:1044D000DF010D900020E9F711978DE09AE0119629
:1044E0009C938E9312961C9201900020E9F73197CD
:1044F000EC52F741AE2F8CE297E1AC016A2F80912C
:104500006817909169179AD5811111C008E215E0DA
:1045100020E030E04DE250E06FEE77E180916617E9
:10452000909167170E947C0D8FEE97E102C080E0AA
:1045300090E0DF91CF911F910F9108952F923F92BC
:104540004F925F926F927F928F929F92AF92BF92A3
:10455000CF92DF92EF92FF920F931F93CF93DF934F
:104560005C01FC0101900020E9F731976F01C81A46
:10457000D90A5C2C0F2EF2E08F2EF8E09F2EF02D42
:10458000E12CF12C4C2C3701F40101811281E8015E
:1045900009900020E9F72197C01BD10B3C2EF9E0D0
:1045A000CF16D10458F0F4012080FEE02F1206C08F
:1045B000B801C5010E949B31892B09F5442D3514A2
:1045C00008F44C2F50E0B801C5010E94D231892B6C
:1045D00049F4F301EE0FFF1FE60DF71DEE5FF74FF5
:1045E00020800DC08FEFE81AF80AE3E08E0E911CD0
:1045F000F1E1EF16F10439F66894222424F8822DB3
:10460000DF91CF911F910F91FF90EF90DF90CF90AE
:10461000BF90AF909F908F907F906F905F904F90E2
:104620003F902F90089530DF89CF089580916617CD
:10463000909167170C94430C08958F929F92AF92BC
:10464000CF92EF920F931F93CF93C82F8B0141E02E
:1046500060E070E088EC90E00E94110C9093671786
:104660008093661710936517009364170F2EFEEF63
:104670008F2EF1E29F2EF02D6894AA24A6F868945C
:10468000CC24C6F8E12C00E023E040E051EE60E0ED
:1046900070E08C2F06D49093691780936817E7E039
:1046A000F1E0808180618083CF911F910F91EF9025
:1046B000CF90AF909F908F900895882331F0E8E0DD
:1046C000F1E080818F7E80830895E8E0F1E08081D1
:1046D00080618083089560E070E088E895E0D4DE32
:1046E000EFEEF7E101900020E9F73197EF5EF74137
:1046F00081E0759708F080E00895CF93DF93EC0197
:1047000060E070E089E995E0BFDEEFEEF7E101904F
:104710000020E9F7E050F84139F46FEE77E1CE017F
:104720000E94CB3180E002C0188281E0DF91CF91FE
:104730000895FC0101900020E9F79F012151310902
:104740002817390729F4BC0187EC95E06CCF089550
:1047500089E00895FC0101900020E9F79F012151B3
:1047600031092817390729F4BC0186ED95E05BCFA4
:10477000089589E00895FC0101900020E9F79F0168
:10478000215231092817390729F4BC0185EE95E03B
:104790004ACF089589E0089560E070E084E296E0F1
:1047A00042CF08950F931F93E82FF0E0EE0FFF1F05
:1047B000E250F84F608171818DE296E034DF811123
:1047C00014C008E215E020E030E04DE250E06FEE6A
:1047D00077E180916617909167170E947C0D88237E
:1047E00021F08FEE97E1AADE03C08FEE97E1A6DEFF
:1047F0001F910F9108950F931F93CF93DF931F92F3
:10480000CDB7DEB7DB0111969C911197953108F079
:10481000B4C0992381F160E070E0272F30E0462F8B
:1048200050E0FD01E40FF51F928192959F709A3040
:1048300010F0995C01C0905DF901E058F84E90834A
:104840002F5F3F4FFD01E40FF51F92819F70492FAD
:1048500050E04A30510514F0995C01C0905DF901B7
:10486000E058F84E90837E5F6F5F11969C91119790
:10487000691798F201C070E0E72FF0E0E058F84EB9
:1048800010824C91811103C086E396E002C088E358
:1048900096E020E837E13F932F931F924F939F9329
:1048A0008F938CE396E09F938F9382EC97E19F9395
:1048B0008F930E942D3260E070E082EC97E1B3DECE
:1048C0000FB6F894DEBF0FBECDBF811159C008E20C
:1048D00015E020E030E04DE250E06FEE77E18091AE
:1048E0006617909167170E947C0D882309F447C0D2
:1048F0008FEE97E123DE8E3009F042C087E0898396
:104900008091641790916517892BA9F1BE016F5FA3
:104910007F4F8FEE97E168D180936A17E981F0E0CD
:10492000E151F84EDF010D900020E9F71197AE1B21
:10493000BF0BAA2391F0BB27CD0101979C0112F474
:104940002F5F3F4F3595279520936B17AF014F5F32
:104950005F4F64E18CE697E173D101E010E020E065
:1049600030E046E150E06AE677E18091641790918B
:1049700065170E94730C8EE003C084E101C080E0E3
:104980000F90DF91CF911F910F910895813019F011
:104990006CE476E002C065E277E080E596E043CE25
:1049A00008959F938F9381E896E09F938F9382EC75
:1049B00097E19F938F930E942D3260E070E082EC2C
:1049C00097E131DE0F900F900F900F900F900F90A6
:1049D00008952F923F924F925F926F927F928F92A3
:1049E0009F92AF92BF92CF92DF92EF92FF920F937E
:1049F0001F93CF93DF93CDB7DEB7A0970FB6F89490
:104A0000DEBF0FBECDBF6EEA76E08AEB96E03CDDFE
:104A100095DD8111A3C080E2E2E2F2E0DE011196B1
:104A200001900D928A95E1F79E012F5F3F4F69013A
:104A3000E12CF12C0F2EF6ECAF2EF6E0BF2EF02D70
:104A400002EC17E10F2EFFED4F2EF6E05F2EF02D5A
:104A50000F2EF6EF8F2EF6E09F2EF02D0F2EF0E1A9
:104A60006F2EF7E07F2EF02D3E2C2F2CFF92EF9231
:104A7000BF92AF921F930F930E942D3260E070E0BF
:104A8000C80102DD5BDD0F900F900F900F900F902B
:104A90000F90811163C032E03E15E8F4F601838186
:104AA0008F9382818F9381818F9380818F93FF92E7
:104AB000EF925F924F921F930F930E942D3260E00E
:104AC00070E0C801E1DC3ADD0FB6F894DEBF0FBE3E
:104AD000CDBF811143C02F923F929F928F921F931F
:104AE0000F930E942D3260E070E0C801CDDC26DD1E
:104AF0000F900F900F900F900F900F9081112EC07C
:104B00002F923F927F926F921F930F930E942D32AC
:104B100060E070E0C801B8DC11DD0F900F900F90DD
:104B20000F900F900F90811119C03FEFE31AF30A15
:104B300084E0C80ED11C98E0E916F10409F094CF86
:104B400060E070E088E297E09FDCF8DC811106C04D
:104B500060E070E089E397E097DCF0DCA0960FB6A8
:104B6000F894DEBF0FBECDBFDF91CF911F910F91A3
:104B7000FF90EF90DF90CF90BF90AF909F908F907D
:104B80007F906F905F904F903F902F900895EF929D
:104B9000FF920F931F93CF93DF93EC018B017A0168
:104BA00081E0F4DE81110DC0CE01D4DD811109C098
:104BB000C801E1DD811105C0C701BBDD811101C064
:104BC000EBDDDF91CF911F910F91FF90EF90089552
:104BD00090E0FC01EE0FFF1F8E0F9F1FFC01EE5FA8
:104BE000F74F818192810895DC01009729F1FB0143
:104BF0002081FC0101900020E9F73197E81BF90BB7
:104C0000822F90E0E817F907C8F080E008C0880F0D
:104C1000382F330F330F830F8053890F2F5FFD0120
:104C2000E20FF11D908130ED390F3A3010F49111FF
:104C3000EECFFB012083089580E0089580E0089581
:104C40000F931F93CF93DF93DC01EA012097E1F1EB
:104C5000FA0101900020E9F73197E41BF50B329738
:104C600010F532C08D01040F151F30E0AE01420F68
:104C7000531FFA019081913428F09753592F529580
:104C8000507F03C0592F5295507F2C0F3D1FF901C3
:104C90009181913410F0975301C09053950FF80112
:104CA00090838F5F01C080E0282F220F482F50E0B3
:104CB000FE0101900020E9F73197EC1BFD0B4E1728
:104CC0005F0710F48613CECFDF91CF911F910F9124
:104CD000089580911F18860F80931F1890912218B5
:104CE000913079F028F09230A9F0933019F10895BD
:104CF0006F3F09F048C010921F1881E0809322187E
:104D00000895663809F03FC010921E1882E0809323
:104D100022180895E0911E1881E08E0F80931E18CE
:104D2000F0E0E45EF74E6083823069F583E08093C3
:104D30002218089590911E1821E0290F20931E1823
:104D4000963009F581110EC0ECE1F8E1808190E028
:104D5000982F88272181820F911D9093241880938A
:104D6000231804C0109224181092231810922218AD
:104D7000E0912018F0912118309729F080912318A4
:104D800090912418199508958F929F92AF92CF9287
:104D9000EF920F930F2EF9E68F2EF6E29F2EF02D55
:104DA0006894AA24A4F86894CC24C4F8E12C00E008
:104DB00023E040E855E260E070E073D0909326185D
:104DC000809325180F91EF90CF90AF909F908F9088
:104DD000089590932118809320180895CF93DF931E
:104DE000CDB7DEB729970FB6F894DEBF0FBECDBFA3
:104DF00089E0E2E4F2E09E012F5F3F4FD90101908C
:104E00000D928A95E1F71092241810922318809140
:104E1000251890912618009731F0422F532F69E002
:104E20000DD180E001C082E029960FB6F894DEBF74
:104E30000FBECDBFDF91CF91089565360CF064E6CB
:104E40006C390CF46CE996EF6902B00111246854D6
:104E5000744F811105C07093290160932801089552
:104E600070932B0160932A010895EAE0F1E08081BC
:104E7000886180838FE39CE99093270180932601CA
:104E800060E080E0DADF60E081E0D7DFE0E2F1E0DF
:104E90008081826A8083E1E2F1E080818A6180839F
:104EA00008952F923F924F925F926F927F928F92CE
:104EB0009F92AF92CF92EF92FF920F931F93CF9357
:104EC000DF93CDB7DEB7F82E2A013B0188E090E0F2
:104ED0000E9466308C018F2D90E0FC01EE0FFF1FC9
:104EE000E95DF74E118300830115110509F469C0CE
:104EF000880F991FFC01E55FFD4F80819181D801EA
:104F00008D939C938C2D90E0880F991F880F991F8B
:104F10000E9466301C0186E090E00E9466307C01B1
:104F20004C2DB101F0D6F801F582E4828A2D90E093
:104F3000880F991F880F991F0E9466301C0186E018
:104F400090E00E9466307C014A2DB101DCD6D80188
:104F50001396FC92EE92129717969C928E92169749
:104F6000FFB6F894ED91FC9111973697808182609D
:104F700080838D909C90C301B201B3D720E030E0D4
:104F800040E051E40E94D62F9B01AC0160E074E246
:104F900084E79BE43BD720E030E040E85FE3CFD6F6
:104FA0003DD9F40132976083D801ED91FC911197BE
:104FB000359788E98083ED91FC91349786E0808372
:104FC000FFBEC801DF91CF911F910F91FF90EF902D
:104FD000CF90AF909F908F907F906F905F904F9009
:104FE0003F902F900895CF93DF93DC01892B01F13F
:104FF0001296ED91FC911397938182812581981BE4
:10500000922384819817B1F0838126952823C0814B
:10501000D181C20FD11D68838F5F958189238383DE
:10502000ED91FC91359780818062808380E003C0A0
:1050300081E001C082E0DF91CF910895EF92FF926D
:105040000F931F93CF93DF937C01009709F441C026
:10505000DC011296ED91FC91139793818281981B4C
:10506000858198238481891B8617A8F1662341F1E5
:10507000842F952FDC016150462F50E04F5F5F4F2A
:10508000480F591FE701EA81FB81938182812581C5
:10509000981B92238481981779F08C91938126959F
:1050A0002923608171818B01020F111DE801888322
:1050B0009F5F8581982393831196A417B50711F7F5
:1050C000D701ED91FC91359780818062808380E0EB
:1050D00003C081E001C082E0DF91CF911F910F9169
:1050E000FF90EF9008950097D1F0DC011496ED91B8
:1050F000FC91159793818281981799F0928185810F
:1051000086958923A081B181A80FB11D8C91DB0107
:105110008C939F5F85819823928380E0089581E03E
:10512000089583E008951F920F920FB60F921124F5
:105130000BB60F922F933F934F935F936F937F9391
:105140008F939F93AF93BF93CF93DF93EF93FF938F
:10515000A0912718B0912818109711F16091C600FE
:105160001496ED91FC911597938182812581981B6E
:1051700092238481981761F0838126952823C0812A
:10518000D181C20FD11D68838F5F9581892383836D
:105190001696ED91FC911797309711F0CD01199566
:1051A000FF91EF91DF91CF91BF91AF919F918F913F
:1051B0007F916F915F914F913F912F910F900BBE17
:1051C0000F900FBE0F901F9018951F920F920FB661
:1051D0000F9211240BB60F922F938F939F93AF933F
:1051E000BF93EF93FF93E0912718F0912818309721
:1051F000B9F00280F381E02D938182819817B1F09C
:1052000092818581282F26952923A081B181A20F23
:10521000B11D2C919F5F892382832093C6000BC010
:10522000E1ECF0E080818F7D808305C0E1ECF0E06F
:1052300080818F7D8083FF91EF91BF91AF919F918E
:105240008F912F910F900BBE0F900FBE0F901F905C
:1052500018951F920F920FB60F9211240BB60F9252
:105260002F933F934F935F936F937F938F939F936E
:10527000AF93BF93CF93DF93EF93FF93A091291840
:10528000B0912A18109711F16091CE001496ED910B
:10529000FC911597938182812581981B92238481AB
:1052A000981761F0838126952823C081D181C20F90
:1052B000D11D68838F5F9581892383831696ED9135
:1052C000FC911797309711F0CD011995FF91EF914F
:1052D000DF91CF91BF91AF919F918F917F916F910E
:1052E0005F914F913F912F910F900BBE0F900FBE8A
:1052F0000F901F9018951F920F920FB60F921124C6
:105300000BB60F922F938F939F93AF93BF93EF930F
:10531000FF93E0912918F0912A183097B9F0028094
:10532000F381E02D938182819817B1F0928185817C
:10533000282F26952923A081B181A20FB11D2C9180
:105340009F5F892382832093CE000BC0E9ECF0E0BD
:1053500080818F7D808305C0E9ECF0E080818F7DC6
:105360008083FF91EF91BF91AF919F918F912F918A
:105370000F900BBE0F900FBE0F901F9018951F92AD
:105380000F920FB60F9211240BB60F922F933F93EB
:105390004F935F936F937F938F939F93AF93BF933D
:1053A000CF93DF93EF93FF93A0912B18B0912C181C
:1053B000109711F16091D6001496ED91FC9115971C
:1053C000938182812581981B92238481981761F0B3
:1053D000838126952823C081D181C20FD11D688386
:1053E0008F5F9581892383831696ED91FC911797A2
:1053F000309711F0CD011995FF91EF91DF91CF9189
:10540000BF91AF919F918F917F916F915F914F91DC
:105410003F912F910F900BBE0F900FBE0F901F90DA
:1054200018951F920F920FB60F9211240BB60F9280
:105430002F938F939F93AF93BF93EF93FF93E0913D
:105440002B18F0912C183097B9F00280F381E02DE1
:10545000938182819817B1F092818581282F2695BA
:105460002923A081B181A20FB11D2C919F5F8923B7
:1054700082832093D6000BC0E1EDF0E080818F7D28
:10548000808305C0E1EDF0E080818F7D8083FF9116
:10549000EF91BF91AF919F918F912F910F900BBE84
:1054A0000F900FBE0F901F9018951F920F920FB67E
:1054B0000F9211240BB60F922F933F934F935F934C
:1054C0006F937F938F939F93AF93BF93CF93DF930C
:1054D000EF93FF93A0912D18B0912E18109711F112
:1054E000609136011496ED91FC911597938182811C
:1054F0002581981B92238481981761F083812695DA
:105500002823C081D181C20FD11D68838F5F95810F
:10551000892383831696ED91FC911797309711F0AC
:10552000CD011995FF91EF91DF91CF91BF91AF918F
:105530009F918F917F916F915F914F913F912F91AB
:105540000F900BBE0F900FBE0F901F9018951F92DB
:105550000F920FB60F9211240BB60F922F938F93C9
:105560009F93AF93BF93EF93FF93E0912D18F0912A
:105570002E183097B9F00280F381E02D938182815B
:105580009817B1F092818581282F26952923A08133
:10559000B181A20FB11D2C919F5F8923828320933B
:1055A00036010BC0E1E3F1E080818F7D808305C08F
:1055B000E1E3F1E080818F7D8083FF91EF91BF91E6
:1055C000AF919F918F912F910F900BBE0F900FBEB7
:1055D0000F901F901895CF93DF931F92CDB7DEB732
:1055E000BE016F5F7F4F80912F18909130187BDD47
:1055F0008111F6CF898190E00F90DF91CF910895CE
:10560000682F80912F1890913018EDDC80E090E0A9
:1056100008958F929F92AF92CF92EF920F93812C29
:10562000912C6894AA24A7F86894CC24C7F8E12C9C
:1056300000E023E040E051EE60E070E032DC909367
:10564000301880932F18E5E8F8E183E192E0918328
:105650008083938382830F91EF90CF90AF909F9040
:105660008F90089590E0FC01EE0FFF1FE80FF91FE7
:10567000EE0FFF1FEF5CF74E238121111FC09C012D
:10568000220F331FF901E80FF91FEE0FFF1FEF5C28
:10569000F74EA081B1814C91F901E80FF91FEE0F8F
:1056A000FF1FEF5CF74E81E090E0028002C0880FA0
:1056B000991F0A94E2F7842B8C930895FC01EE0F56
:1056C000FF1FDF01A80FB91FAA0FBB1FAF5CB74EAA
:1056D0000D90BC91A02D2C91E80FF91FEE0FFF1F2C
:1056E000EF5CF74E81E090E0028002C0880F991FC6
:1056F0000A94E2F7809582238C93089590E0FC0150
:10570000EE0FFF1FE80FF91FEE0FFF1FEF5CF74EC4
:105710002381211120C09C01220F331FF901E80FC2
:10572000F91FEE0FFF1FEF5CF74EA081B1814C9186
:10573000F901E80FF91FEE0FFF1FEF5CF74E81E054
:1057400090E0028002C0880F991F0A94E2F78095CA
:1057500084238C930895FC01EE0FFF1FDF01A80F37
:10576000B91FAA0FBB1FAF5CB74E0D90BC91A02D07
:105770002C91E80FF91FEE0FFF1FEF5CF74E81E051
:1057800090E0028002C0880F991F0A94E2F7822BF2
:105790008C930895CC24C394D12C6894BB24B2F884
:1057A000C1E3D8E110E08C81813081F018F18230C2
:1057B00061F5E881F9812081C6010A8002C0880F65
:1057C000991F0A94E2F7822780831FC08D818F5F23
:1057D000863010F48D8319C01D82E881F981208103
:1057E000C6010A8002C0880F991F0A94E2F7822737
:1057F00080830BC00D81002329F0812F7FDF0150B2
:105800000D8303C0BC82812F2DDF1F5F26961430CD
:1058100051F66CE070E080E090E00E941C13C0CF75
:10582000EF92FF920F931F93CF93DF93082F80E4A3
:1058300087B9C1E3D8E10F2EF8E2EF2EF12CF02D5D
:10584000F982E88286E08A831B8214E01C8380E070
:1058500009DF80E887B9FF82EE8287E088871986B2
:105860001A8781E0FFDE80E283BB84E390E09D87BE
:105870008C8785E08E871F86188B82E0F3DE80E1BF
:105880008093010182E091E09B8B8A8B1C8B1D8AA7
:105890001E8B83E0E7DEE12CF12C20E030E040ECD1
:1058A00050E065E378E08AEC9BE20E941710DF91FC
:1058B000CF911F910F91FF90EF900895CF93DF93B9
:1058C00090E0FC01EE0FFF1FDF01A80FB91FAA0F28
:1058D000BB1FAF5CB74ECD91DC911197488121E0A1
:1058E00030E012960C90129702C0220F331F0A94D8
:1058F000E2F724272883FD0181E08483DF91CF91A3
:105900000895CF93DF9390E0FC01EE0FFF1FDF01BE
:10591000A80FB91FAA0FBB1FAF5CB74ECD91DC918A
:105920001197488121E030E012960C90129702C046
:10593000220F331F0A94E2F724272883FD0182E017
:105940008483DF91CF910895282F30E0F901EE0F85
:10595000FF1FE20FF31FEE0FFF1FEF5CF74E93E008
:105960009483CCCE0895282F30E0F901EE0FFF1F6D
:10597000E20FF31FEE0FFF1FEF5CF74E94E09483EE
:1059800071CE089590E0FC01EE0FFF1FDF01A80F1C
:10599000B91FAA0FBB1FAF5CB74E26E015962C931C
:1059A0001597FD011482089590E0FC01EE0FFF1F92
:1059B000DF01A80FB91FAA0FBB1FAF5CB74E15962A
:1059C0001C921597FD01148208958091571881113A
:1059D0000CC08CE08093B8008FEF8093BB0084E014
:1059E0008093BC0081E0809357180895AF92BF92D6
:1059F000CF92DF92EF92FF920F931F93CF93DF939B
:105A0000A82EB62E69017A0184E090E05FD3EC0104
:105A1000892B61F1A88281E0B81212C0C701B601DA
:105A200020EA36E841E050E027D3DA01C901409787
:105A3000A109B109B695A79597958795898311C056
:105A4000C701B60120E83AE146E050E015D3DA019B
:105A5000C9014097A109B109B695A7959795879572
:105A600089831B830A838C2F9D2F02C080E090E0E6
:105A7000DF91CF911F910F91FF90EF90DF90CF902A
:105A8000BF90AF9008958091BC0081700895FF92FF
:105A90000F931F93CF93DF930097D1F14A30D0F546
:105AA000F42E8B01EC01EFDF811136C080914A1892
:105AB00090914B18C817D90741F087DF89818093EF
:105AC000B800D0934B18C0934A1881E08F0D809393
:105AD0004C188881880F80934D18FF2089F0F801B9
