:10000000E5C0000004C1000002C1000000C1000002
:10001000FEC00000FCC00000FAC00000F8C00000F4
:10002000F6C00000F4C00000F2C00000F0C0000004
:10003000C8C50000ECC00000EAC00000E8C0000035
:10004000E6C00000E4C00000E2C00000E0C0000024
:10005000DEC00000DCC00000DAC00000D8C0000034
:10006000D6C000000C9468250C94BA25D0C00000BE
:10007000CEC00000CCC00000CAC00000C8C0000054
:10008000C6C00000C4C00000C2C00000C0C0000064
:100090000C94FE250C945026BAC000000C949B2AA8
:1000A000B6C00000B4C00000B2C00000B0C0000084
:1000B000AEC00000ACC00000AAC00000A8C0000094
:1000C000A6C00000A4C00000A2C000000C949426AA
:1000D0000C94E6269CC000000C942A270C947C27E4
:1000E00096C00000F819F819F8192F1A371A4C1A87
:1000F000F819F8192F1A371ABD2A2D2B2D2B2D2B55
:100100002D2B2D2B2D2B2D2BBD2A2D2B2D2B2D2BA0
:100110002D2B2D2B2D2B2D2BBF2A2D2B2D2B2D2B8E
:100120002D2B2D2B2D2B2D2B2D2B2D2B2D2B2D2B0F
:100130002D2B2D2B2D2B2D2BBF2A2D2B2D2B2D2B6E
:100140002D2B2D2B2D2B2D2B2D2B2D2B2D2B2D2BEF
:100150002D2B2D2B2D2B2D2B292B2D2B2D2B2D2BE3
:100160002D2B2D2B2D2B2D2BF42A2D2B2D2B2D2B09
:100170002D2B2D2B2D2B2D2B2D2B2D2B2D2B2D2BBF
:100180002D2B2D2B2D2B2D2BE82A2D2B2D2B2D2BF5
:100190002D2B2D2B2D2B2D2B0C2B0E943A0D8091CE
:1001A000EB15823008F047D40E94751AF6CFCF9332
:1001B000DF931F92CDB7DEB7CE0101960E9475176F
:1001C00049810E946A190E94C119F6CF11241FBEED
:1001D000CFEFD1E2DEBFCDBF00E00CBF17E0A0E063
:1001E000B2E0EEEBF3E600E00BBF02C007900D9229
:1001F000AE3DB107D9F728E1AEEDB7E001C01D92E1
:10020000AF30B207E1F70E94DD1D0C94DD31F8CE6E
:100210009093E4178093E31741E050E060E070E0D2
:100220008091F9179091FA1751C108950F931F9378
:10023000CF93DF938C01EB0182E090E048D20097EE
:1002400079F02091E3173091E417FC01318320838A
:100250001093EA170093E917D093FA17C093F91790
:10026000DF91CF911F910F9108958091E3179091A5
:10027000E4170895CF92DF92EF92FF920F93CC2470
:10028000CA94DC2C760101E021E042E050E060E01D
:1002900070E08091E9179091EA1778D061FF1CC057
:1002A00066E070E080E090E00E9406110E94C323A7
:1002B0008093E217882341F08FE692E09F938F931B
:1002C0000E94BF2E0F900F908EE792E09F938F9326
:1002D0000E94BF2E0F900F900F91FF90EF90DF9034
:1002E000CF9008958FE892E00E94D22E8BEB90E0A1
:1002F000A0E0B0E08093EB179093EC17A093ED177C
:10030000B093EE170E948B0E6093E5177093E6177B
:100310008093E7179093E81788E091E00E94BE234E
:10032000A9DFFECF0F9301110CC0DC01CB018223AA
:100330009323A423B523892B8A2B8B2B79F480E07C
:1003400010C0DC01CB0182239323A423B5232817FB
:1003500039074A075B0721F080E003C081E001C054
:1003600081E00F910895CF93DF938FE090E0AFD1BC
:10037000EC01009739F0FC01119211921192119247
:10038000CF018BD2CE01DF91CF9108952F923F9272
:100390004F925F926F927F928F929F92AF92BF9295
:1003A000CF92DF92EF92FF920F931F93CF93DF9341
:1003B000EC014A015B01622E702E0E94850E28809E
:1003C00039804A805B80A5019401C201B101AADF96
:1003D0008823A1F0662089F1D501C401809590950C
:1003E000A095B09582219321A421B521888399837A
:1003F000AA83BB83C12CD12C760122C0C114D104A5
:10040000E104F104E9F0611004C040E050E0BA01F9
:1004100004C040E050E060E071E071107460482971
:1004200059296A297B2997018601CE0104960E94E9
:100430009D11212C312C210103C0C12CD12C76011E
:100440000E94C50FCD28CE28CF2859F1811101C0B7
:10045000F2D20E9471146B017C0191FD1FC00FB696
:10046000F8940F92C880D980EA80FB80072DA501FF
:100470009401C701B60156DF882371F0662061F050
:1004800080949094A094B0948C209D20AE20BF20A6
:1004900088829982AA82BB820F900FBE1601270123
:1004A0005524C201B101DF91CF911F910F91FF90AF
:1004B000EF90DF90CF90BF90AF909F908F907F9004
:1004C0006F905F904F903F902F9008954F925F9262
:1004D0006F927F92AF92BF92CF92DF92EF92FF9294
:1004E0000F931F93CF93DF93EC016A017B018C0183
:1004F000095F1F4F0E94850EEB85FC8588819981DD
:10050000AA81BB81C82AD92AEA2AFB2AC882D982B1
:10051000EA82FB82C12CD12C76013DC0A480B5803B
:1005200080819181A281B381AC01BD017727B2FDA9
:100530000EC0488059806A807B8044225522662202
:10054000772245284628472889F420E012C04880B1
:1005500059806A807B804422552266227722441586
:1005600055056605770521F020E003C021E001C0B4
:1005700021E0222371F0B0FF04C0C42AD52AE62A64
:10058000F72A488159816A817B817260CF010E947C
:10059000D812EA2DFB2DE017F10709F0BFCFC09468
:1005A000D094E094F09488819981AA81BB81C8227B
:1005B000D922EA22FB22C882D982EA82FB820E94E7
:1005C000C50F688179818A819B81DF91CF911F91CD
:1005D0000F91FF90EF90DF90CF90BF90AF907F9002
:1005E0006F905F904F900895EAEEF7E0AEEEB7E0BF
:1005F000B183A08313821282E6E9F5E1F093E90763
:10060000E093E807138212821182108288EA9DE04B
:1006100013969C938E931297ED93FC939093E5071A
:100620008093E4079093E7078093E60780E090E8E3
:100630009093DF078093DE070895CF93DF93EC015B
:10064000AAEEB7E001C0DF01ED91FC911197EC1724
:10065000FD07C8F312968D919C9113979D01280F69
:10066000391FC217D30749F42A813B81820F931F98
:1006700013969C938E931297ED018A819B819E0124
:10068000280F391FE217F307C1F42091E8073091D2
:10069000E907E217F30771F022813381820F931F7C
:1006A0009B838A83ED91FC9111978081918199833D
:1006B000888305C03983288302C0F983E883CA1779
:1006C000DB0711F0CD93DC93DF91CF910895EF928A
:1006D000FF920F931F93CF93DF938C010E94850E9F
:1006E0008091E8079091E907892B09F47DDF8091DB
:1006F000DE079091DF0780239123892B09F076C0D4
:100700000115110549F0C80104960817190718F0DA
:1007100000E010E001C08C010115110509F469C069
:100720008091E6079091E7078017910708F464C06D
:10073000C091EA07D091EB07EAEEF7E002C0FE01B4
:10074000EC018A819B818017910720F4888199812F
:100750000097A9F78091E8079091E907C817D90792
:1007600009F44DC0E080F18084E0E80EF11C88813E
:100770009981918380832A813B81201B310B293011
:10078000310548F0CE01800F911FFC013383228395
:100790001B830A8352DF2A813B818091E607909177
:1007A000E707821B930B9093E7078093E60740913E
:1007B000E4075091E5078417950720F49093E50727
:1007C0008093E4078091DE079091DF07282B392B77
:1007D0003B832A83198218828091E2079091E30774
:1007E00001969093E3078093E2070BC0E12CF12C74
:1007F00008C0E12CF12C05C0E12CF12C02C0E12C49
:10080000F12C0E94C50FE114F10411F40E94811A29
:10081000C701DF91CF911F910F91FF90EF90089545
:100820000F931F93CF93DF93009791F1EC012497DF
:100830004A815B812091DE073091DF07BA01622394
:100840007323672B29F168817981672B09F520953E
:100850003095242335233B832A830E94850E8A8189
:100860009B812091E6073091E707820F931F9093B9
:10087000E7078093E607CE01E0DE8091E0079091E4
:10088000E10701969093E1078093E0070E94C50F6E
:10089000DF91CF911F910F910895FC0103969283F0
:1008A00081834FEF5FEFBA0143835483658376837F
:1008B000908787839287818710820895FC01138631
:1008C000128608950F931F93CF93DF93EB01088156
:1008D00019812A813B810F3F4FEF1407240734070A
:1008E00021F4FC01A185B28511C0DC01139601C081
:1008F000DF011496ED91FC91159740815181628141
:100900007381041715072607370790F71496ED91A2
:10091000FC911597FD83EC83D783C683BF83AE8399
:100920001596DC93CE9314979B878A87FC012081D0
:100930002F5F2083DF91CF911F910F910895CF9367
:10094000DF93FC01A285B385C481D581868197811F
:100950009F838E83C681D781848195819D838C837B
:1009600011968D919C911297E817F90731F48681C1
:10097000978112969C938E931197138612868C9171
:1009800081508C938C91DF91CF910895A89590EC34
:1009900088E10FB6F894A895809360000FBE9093FD
:1009A00060000895FC016083319770833197108255
:1009B00031971082319720E8208331971082319748
:1009C00010823197108277974083319750838697B2
:1009D0000895DCDFA0915916B0915A16CD91CDBF84
:1009E000DD91DEBFFF91EF91DF91CF91BF91AF918C
:1009F0009F918F917F916F915F914F913F912F9137
:100A00001F910F91FF90EF90DF90CF90BF90AF902C
:100A10009F908F907F906F905F904F903F902F901E
:100A20001F900F900CBE0F900BBE0F900FBE0F903B
:100A3000089581E008950F920FB6F8940F920BB6C7
:100A40000F920CB60F921F9211242F923F924F9249
:100A50005F926F927F928F929F92AF92BF92CF924E
:100A6000DF92EF92FF920F931F932F933F934F9339
:100A70005F936F937F938F939F93AF93BF93CF9326
:100A8000DF93EF93FF93A0915916B0915A160DB6CC
:100A90000D920EB60D920E942111A0915916B0919F
:100AA0005A16CD91CDBFDD91DEBFFF91EF91DF9161
:100AB000CF91BF91AF919F918F917F916F915F91F6
:100AC0004F913F912F911F910F91FF90EF90DF90E9
:100AD000CF90BF90AF909F908F907F906F905F90DE
:100AE0004F903F902F901F900F900CBE0F900BBE19
:100AF0000F900FBE0F9008950F920FB6F8940F92BB
:100B00000BB60F920CB60F921F9211242F923F92A8
:100B10004F925F926F927F928F929F92AF92BF920D
:100B2000CF92DF92EF92FF920F931F932F933F93F9
:100B30004F935F936F937F938F939F93AF93BF93E5
:100B4000CF93DF93EF93FF93A0915916B0915A166C
:100B50000DB60D920EB60D9213BE0E94990E811124
:100B60000E942111A0915916B0915A16CD91CDBF76
:100B7000DD91DEBFFF91EF91DF91CF91BF91AF91FA
:100B80009F918F917F916F915F914F913F912F91A5
:100B90001F910F91FF90EF90DF90CF90BF90AF909B
:100BA0009F908F907F906F905F904F903F902F908D
:100BB0001F900F900CBE0F900BBE0F900FBE0F90AA
:100BC00008959ADF18950FB6F8940F92FC01868D60
:100BD000811102C081E001C080E00F900FBE089536
:100BE0000FB6F8940F92FC01268D878D281302C052
:100BF00081E001C080E00F900FBE08950F931F9316
:100C0000CF93DF93EC01042F1E8D48A141110CC03E
:100C100088819981892B09F042C08C819D810E9435
:100C200016141D821C8242C0011117C050E08A8137
:100C30009B810E94602E28A18A819B81820F911D39
:100C40009B838A832C813D818217930750F1888191
:100C500099819B838A8380E029C050E08E819F81A7
:100C60000E94602E88A190E09195819591092E8136
:100C70003F81280F391F3F832E83488159812417D4
:100C8000350730F42C813D81820F931F9F838E8323
:100C9000023049F4112349F0115080E007C080E090
:100CA00005C080E003C080E001C080E01F5F1E8FB0
:100CB000DF91CF911F910F910895FC0140A1442332
:100CC000A9F050E026813781240F351F3783268312
:100CD000848195812817390720F08081918197833D
:100CE0008683CB01668177810C94602E08951F93D3
:100CF000CF93DF93EC010FB6F8940F921AA10BC0BB
:100D00008B89882351F0CE0143960E9429128111CC
:100D10000E94FF13115011169CF38FEF8AA30F90BE
:100D20000FBE0FB6F8940F9219A10BC088858823C7
:100D300051F0CE0108960E94291281110E94FF13E2
:100D4000115011169CF38FEF89A30F900FBEDF9106
:100D5000CF911F910895CF93DF93EC010FB6F894D4
:100D60000F92E881F9818F8D28A190E030E0829F79
:100D7000A001839F500D929F500D11244E0F5F1FB5
:100D80005D834C831E8EFB83EA830197289FA0011D
:100D9000299F500D389F500D1124CF01840F951FAE
:100DA0009F838E838FEF89A38AA361110BC08885EF
:100DB000882371F0CE0108960E942912882341F001
:100DC0003ADE06C0CE01089668DDCE01439665DDA9
:100DD0000F900FBE81E0DF91CF9108950F931F9385
:100DE000F801611103C01183008302C05183408365
:100DF000878F60A361E0CF01AEDF1F910F9108954F
:100E0000DF92EF92FF920F931F93CF93DF93F82E11
:100E1000E62ED42E869FC0011124839658DCEC0167
:100E2000009741F08C012D2DAC014D5D5F4F6E2D73
:100E30008F2DD4DFCE01DF91CF911F910F91FF90C5
:100E4000EF90DF900895CF92DF92EF92FF920F9391
:100E50001F93CF93DF93CDB7DEB729970FB6F894E2
:100E6000DEBF0FBECDBF7C016B012E833F83488761
:100E7000598710E00FB6F8940F92F701968D878D81
:100E8000981710F00230B1F4402FB601C701B6DE5A
:100E9000F7019389992341F0C70143960E942912D3
:100EA000882321F0C8DD02C08111C5DD0F900FBE7F
:100EB00081E04CC08E819F81A885B985892B8A2BC2
:100EC0008B2B21F40F900FBE80E040C0111105C0A4
:100ED000CE0101960E94881311E00F900FBE15D726
:100EE0000FB6F8940F92F70181A18F3F09F411A278
:100EF000F70182A18F3F09F412A20F900FBEBE012D
:100F00006A5F7F4FCE0101960E949913811119C02B
:100F1000C70166DE882381F04E815F81688579850F
:100F2000C70108960E948611C701E1DE0E94C50F25
:100F30008111A0CF80DD9ECFC701D9DE0E94C50FF1
:100F400099CFC701D4DE0E94C50F80E029960FB665
:100F5000F894DEBF0FBECDBFDF91CF911F910F91EF
:100F6000FF90EF90DF90CF9008950F93009769F076
:100F7000FC011582148211821082168200E020E0AA
:100F800030E0A90160E070E05EDF0F910895CF933B
:100F9000DF93482F60E081E033DFEC01E6DFCE0134
:100FA000DF91CF910895EF92FF920F931F93CF930C
:100FB000DF938A01FC01568D378D531710F02230D4
:100FC000F9F4422F7801EC011AA18E8DCE0116DEC4
:100FD0001F3F81F48B898823A9F0CE0143960E949C
:100FE0002912882389F0E114F10481F081E0F701EE
:100FF00080830DC0FF24F394F10EFAA281E007C0B4
:1010000080E005C081E003C081E001C081E0DF91A4
:10101000CF911F910F91FF90EF900895CF92DF92A3
:10102000EF92FF920F931F93CF93DF93CDB7DEB76D
:1010300029970FB6F894DEBF0FBECDBF8C016B01B0
:101040002E833F8348875987E12C0FB6F8940F927F
:10105000F801F68CFF2099F0B601C8012EDEFA9453
:10106000F801F68E8085882331F0C80108960E9429
:1010700029128111E0DC0F900FBE81E04FC08E81FC
:101080009F81A885B985892B8A2B8B2B21F40F9002
:101090000FBE80E043C0E11006C0CE0101960E9461
:1010A0008813EE24E3940F900FBE2FD60FB6F8945A
:1010B0000F92F80181A18F3F09F411A2F80182A1DA
:1010C0008F3F09F412A20F900FBEBE016A5F7F4FDF
:1010D000CE0101960E949913811117C0C80173DDDA
:1010E000882379F04E815F8168857985C8014396B0
:1010F0000E948611C801FBDD48D78111A6CF9BDC79
:10110000A4CFC801F4DD41D7A0CFC801F0DD3DD7A1
:10111000C80159DD882309F498CF80E029960FB6DD
:10112000F894DEBF0FBECDBFDF91CF911F910F911D
:10113000FF90EF90DF90CF900895CF93DF93EC0175
:101140000FB6F8940F9289A18F3F09F419A28AA1D2
:101150008F3F09F41AA20F900FBE8E8D811104C02B
:10116000CE0143960E94E711CE01C1DDDF91CF9100
:101170000895FC014481558122813381240F351F5C
:1011800080819181B901681B790BCB0164177507C8
:1011900010F0841B950B08950F93FC018FE0DF0185
:1011A0001D928A95E9F77587648755834483378351
:1011B000268306870F910895AF92BF92CF92DF9258
:1011C000EF92FF920F931F93CF93DF936C015B011C
:1011D0007A01FC01C281D381048115810C1B1D0B96
:1011E0004017510708F48A01F60184859585A80106
:1011F000B5018C0F9D1F0E94602E0E151F0558F41F
:10120000A701401B510BB501600F711FF6018485CA
:1012100095850E94602ECE018E0D9F1DF6012481C2
:1012200035818217930710F0821B930BF60193838D
:101230008283C701DF91CF911F910F91FF90EF90B3
:10124000DF90CF90BF90AF900895CF92DF92EF9252
:10125000FF920F931F93CF93DF931F921F92CDB7EF
:10126000DEB77C016B015A83498321153105C1F03A
:10127000FC01868580FD08C04217530708F49A01D7
:101280003A83298381E00FC02017310758F042E0EC
:1012900050E0BE016F5F7F4FC7018EDF81E003C06A
:1012A00080E001C080E0882331F049815A81B60195
:1012B000C70182DF02C080E090E00F900F90DF91C5
:1012C000CF911F910F91FF90EF90DF90CF900895F5
:1012D000AF92BF92CF92DF92EF92FF920F931F9344
:1012E000CF93DF937C015B01E9014217530708F4B8
:1012F000EA01209781F1F7010081118184819581B4
:10130000801B910B6E018C179D0708F46C01F7018F
:1013100064857585600F711FA601C5010E94602E4E
:10132000CC16DD0658F4AE014C195D09F701648551
:101330007585C5018C0D9D1D0E94602E0C0F1D1F13
:10134000F701848195810817190710F0081B190B04
:10135000F70111830083CE01DF91CF911F910F918F
:10136000FF90EF90DF90CF90BF90AF9008956F9275
:101370007F928F929F92AF92BF92CF92DF92EF9225
:10138000FF920F931F93CF93DF931F921F92CDB7BE
:10139000DEB76C014B015A01790101151105B1F05D
:1013A000FC0160807180A801BE016F5F7F4F90DFFC
:1013B00089819A81E01AF10AA816B90630F4F6017B
:1013C00071826082A12CB12C01C05C019701A50142
:1013D000B401C6017DDF0F900F90DF91CF911F9177
:1013E0000F91FF90EF90DF90CF90BF90AF909F90C4
:1013F0008F907F906F900895CF92DF92EF92FF923F
:101400000F93CF93DF93EC016B01413011F401E0B6
:1014100001C000E0C114D10419F4CC24C394D12C30
:10142000CE014096C817D90720F4219650D97C01E7
:1014300002C0E12CF12CE114F10439F09601AE0167
:10144000B701615F7F4FC701A7DEC701DF91CF9171
:101450000F91FF90EF90DF90CF9008950F930FB60C
:10146000F8940F92FC0120853185232B71F422859D
:101470003385232B61F4268137814481558164852E
:101480007585068589DE81E003C080E001C080E0CB
:101490000F900FBE0F910895FC012481358180814A
:1014A0009181820F931F42815381841B950B019779
:1014B0008217930710F0821B930B08952F923F928F
:1014C0004F925F926F927F928F929F92AF92BF9254
:1014D000CF92DF92EF92FF920F931F93CF93DF9300
:1014E000CDB7DEB72B970FB6F894DEBF0FBECDBFDA
:1014F0004C017B876A871A010E831F8328873987EF
:10150000FC01848195810197268520FF0CC02A016A
:10151000F2E04F0E511C8415950558F41E821F826F
:101520001886198606C08417950710F02A0101C095
:101530002C018E819F81A885B985892B8A2B8B2BC5
:1015400009F438C0CE0101960E9472130FB6F894C8
:101550000F92C401A1DF3C018415950540F560E0C0
:1015600080E090E00E945B170E940314F4019387CF
:1015700082870F900FBEAE80BF80C884D984E12CD3
:10158000F12C00E010E0980140E050E0BA0180E06A
:101590000E949B14F40113861286BE016A5F7F4F7E
:1015A000CE0101960E949913882381F205C00F9005
:1015B0000FBE02C0612C712C6114710419F4C401B6
:1015C0006BDF3C0182019301A1016A857B85C40127
:1015D0003CDE6C01892BE9F0C401CBDDF4012681EE
:1015E000378182179307A8F090D3F4018085918505
:1015F000892B71F080859185E12CF12C00E020E0B1
:1016000030E0A90160E00E944215F40111861086C5
:10161000BCD4C6012B960FB6F894DEBF0FBECDBF6B
:10162000DF91CF911F910F91FF90EF90DF90CF90BE
:10163000BF90AF909F908F907F906F905F904F90F2
:101640003F902F900895AF92BF92CF92DF92EF928A
:10165000FF920F931F93CF93DF93EC017B015A010D
:1016600069018E8580FF04C08A010E5F1F4F01C093
:101670008A01CE0111DF9C01A501B701CE01E5DD94
:101680005C01892BC1F0CE0174DD2E813F81821770
:10169000930788F088859985892B69F088859985D5
:1016A000E12CF12C00E020E030E0A90160E00E9494
:1016B000391619861886C501DF91CF911F910F91B8
:1016C000FF90EF90DF90CF90BF90AF9008954F9232
:1016D0005F926F927F928F929F92AF92BF92CF92C2
:1016E000DF92EF92FF920F931F93CF93DF93EC0162
:1016F0002B013A01580169018E8580FF05C068946D
:10170000882481F8912C02C0812C912CA114B10461
:10171000C104D10441F10FB6F8940F92CE0129DD36
:101720007C018816990648F060E080E090E00E9415
:101730005B170E940314998788870F900FBE8E1441
:101740009F04A0F0E12CF12C00E010E0980140E0B3
:1017500050E0BA0180E00E949B1419861886CE01E1
:1017600008DD7C0103C0CE0104DD7C018E149F04E2
:10177000E8F484019701A301B201CE01F8DD6C0108
:10178000892BB1F0C2D28A859B85892B69F08A8525
:101790009B85E12CF12C00E020E030E0A90160E025
:1017A0000E9442151B861A86F0D302C0C12CD12C90
:1017B000C601DF91CF911F910F91FF90EF90DF90C5
:1017C000CF90BF90AF909F908F907F906F905F90E1
:1017D0004F900895E091D315F091D4158081811137
:1017E0000CC08FEF9FEFDC0180939D1590939E15A9
:1017F000A0939F15B093A0150895E091D315F09193
:10180000D4150780F085E02D80819181A281B3817C
:1018100080939D1590939E15A0939F15B093A0154E
:101820000895CF93DF93EC018B8D9C8D0E94100463
:10183000CE010E941004DF91CF9108954F925F92E4
:101840006F927F928F929F92AF92BF92CF92DF92D0
:10185000EF92FF920F93CF93DF932C015B014A012C
:101860003901E60165EA70E08B8D9C8D0E94692E3E
:101870008B8D9C8D21E0821A9108880E991EA114EF
:10188000B10489F415C0822F90E0F501E80FF91F2B
:101890003081DE01A80FB91F5D963C9380818823BB
:1018A00029F02F5F01C020E0203168F31CA601C0A1
:1018B0001D8E0A3008F009E00A8F0DA71EA6CE0182
:1018C00002960E945E04CE010E960E945E04DB87A3
:1018D000CA878AE090E0A0E0B0E0801B9109A109EE
:1018E000B1098E879F87A88BB98BDF8BCE8B84E065
:1018F000FE01BF96DF011D928A95E9F71BAAA3019D
:10190000B201C4014FD899838883E114F10419F01E
:10191000F701D183C083DF91CF910F91FF90EF90BA
:10192000DF90CF90BF90AF909F908F907F906F90FF
:101930005F904F900895CF93C0E009C02BE0C29F05
:10194000C001112485519A4E0E944D04CF5FCA30C8
:10195000A8F380EE95E10E944D0485ED95E10E948B
:101960004D0486EC95E10E944D048BEB95E10E94BD
:101970004D048FEA95E10E944D0480EE95E190932D
:10198000D4158093D31585ED95E19093D21580936E
:10199000D115CF910895CF93DF93EC010FB6F89452
:1019A0000F928091AE158F5F8093AE15809159167E
:1019B00090915A16892B51F4D0935A16C093591608
:1019C0008091AE15813091F4B6DF10C08091A815DA
:1019D00081110CC0E0915916F0915A16928D8A8DA2
:1019E000891720F0D0935A16C09359168091A115EB
:1019F0008F5F8093A115EA8D8091A9158E1710F441
:101A0000E093A9158BE08E9FF0011124E551FA4E69
:101A10000180F281E02DFF83EE83268137813987B3
:101A20002887A681B7819E012E5F3F4F15963C9374
:101A30002E93149737832683EA8D8E9FF00111240D
:101A4000E551FA4EFD87EC8780818F5F80830F9090
:101A50000FBE8091A815882351F0E0915916F0919E
:101A60005A16928D8A8D981710F40E941B05DF91EB
:101A7000CF910895CF93DF931BC00FB6F8940F92C8
:101A8000E091C215F091C315C085D185CE010296B3
:101A90000E949F048091AE1581508093AE15809175
:101AA000BA1581508093BA150F900FBECE01B9DEE2
:101AB0008091BA158111E1CFDF91CF9108958F9276
:101AC0009F92AF92BF92CF92DF92EF92FF92CF930D
:101AD000DF936B017C01C42F8090AA159090AB1509
:101AE000A090AC15B090AD158091591690915A16F2
:101AF00002960E949F048FEFC816D806E806F806E3
:101B0000B1F5CC23A1F1EFEAF5E1A181B281C09159
:101B10005916D0915A16BF83AE83C0915916D091F1
:101B20005A1616968D919C911797998788871696C5
:101B3000CD91DC9117978091591690915A16029683
:101B40009D838C838091591690915A160296179610
:101B50009C938E931697A0915916B0915A161D9684
:101B6000FC93EE931C9780818F5F80833FC0C80CED
:101B7000D91CEA1CFB1CE0915916F0915A16C2823E
:101B8000D382E482F582C814D904EA04FB0468F421
:101B90006091591670915A168091D1159091D21575
:101BA0006E5F7F4F0E94620421C060915916709150
:101BB0005A168091D3159091D4156E5F7F4F0E9475
:101BC000620480919D1590919E15A0919F15B091F2
:101BD000A015C816D906EA06FB0640F4C0929D156A
:101BE000D0929E15E0929F15F092A015DF91CF91B3
:101BF000FF90EF90DF90CF90BF90AF909F908F902D
:101C000008952F923F924F925F926F927F928F92A0
:101C10009F92AF92BF92CF92DF92EF92FF920F937B
:101C2000CF93DF933C011B014A012901CA010E94A5
:101C300067036C01892B71F084E390E00E946703D5
:101C4000EC01892B19F0DC8ECB8E06C0C6010E94F8
:101C5000100402C0C0E0D0E0209761F0A12CB12CAC
:101C60006E019201A401B101C301E8DDCE0193DE52
:101C700081E001C08FEFDF91CF910F91FF90EF9046
:101C8000DF90CF90BF90AF909F908F907F906F909C
:101C90005F904F903F902F900895EF92FF920F9397
:101CA0000F2EFBE9EF2EF5E1FF2EF02D00E020E0F6
:101CB00030E040EC50E06DE972E08DEC90E0A1DFA7
:101CC000813011F40E94FF178130C9F4F8948FEF2E
:101CD0009FEFDC0180939D1590939E15A0939F1517
:101CE000B093A01581E08093A8151092AA151092C8
:101CF000AB151092AC151092AD150E94E9048091BD
:101D000006020F91FF90EF90089580919A158F5FD2
:101D100080939A1508950FB6F8940F926091AA15C2
:101D20007091AB158091AC159091AD150F900FBED1
:101D30000895CF92DF92EF92FF92CF93DF9380913D
:101D40009A15811105C1C090AA15D090AB15E090ED
:101D5000AC15F090AD158FEFC81AD80AE80AF80A4A
:101D6000C092AA15D092AB15E092AC15F092AD15C9
:101D7000C114D104E104F104B1F48091D315909120
:101D8000D4152091D1153091D2153093D4152093CC
:101D9000D3159093D2158093D1158091A2158F5FA2
:101DA0008093A21517DD80919D1590919E15A091AD
:101DB0009F15B091A015C816D906EA06FB0620F4B7
:101DC00080E0B2C081E001C080E0E091D315F091E5
:101DD000D415908191110CC04FEF5FEFBA01409381
:101DE0009D1550939E1560939F157093A0159CC0F0
:101DF000E091D315F091D4150780F085E02D008493
:101E0000F185E02D4281538164817581C416D50628
:101E1000E606F70648F440939D1550939E1560938F
:101E20009F157093A01580C0A485B585C681D78104
:101E3000208531853F832E83C085D18526813781DA
:101E40003D832C8311964D915C9112979F012E5FDB
:101E50003F4F4217530731F44085518512965C93EA
:101E60004E931197158614869C9191509C93A08D4A
:101E7000B18D109709F1C289D389448955895F834F
:101E80004E83C489D589428953895D834C831196D9
:101E90006D917C911297AF01425F5F4F6417750798
:101EA00031F44489558912965C934E931197118EA3
:101EB000108E9C9191509C93A28D9091A9159A1788
:101EC00010F4A093A9159BE09A9FD0011124A5516D
:101ED000BA4E11960D90BC91A02DB783A68316968D
:101EE0004D915C911797518740871696CD91DC9163
:101EF00017973D832C8317963C932E931697A28DAC
:101F00009A9FD0011124A551BA4EB587A4879C9100
:101F10009F5F9C93228DE0915916F0915A16928DF5
:101F2000291708F04FCF51CFE0915916F0915A166A
:101F3000E28D9BE0E99FF0011124E551FA4E90817A
:101F4000923008F081E09091A315911116C016C04F
:101F50008091A4159091A515A091A615B091A715F3
:101F60000196A11DB11D8093A4159093A515A09372
:101F7000A615B093A71580E001C081E0DF91CF9155
:101F8000FF90EF90DF90CF900895CF92DF92EF9285
:101F9000FF92CF93DF930FB6F8940F9280919A152A
:101FA000815080939A1580919A158111BEC08091BD
:101FB000AE15811188C0BCC0E091CD15F091CE1551
:101FC0000084F185E02DA08DB18DC289D3898489EB
:101FD00095899F838E83C489D589828993899D83BE
:101FE0008C8311962D913C911297CF010E96281754
:101FF000390731F48489958912969C938E931197B1
:10200000118E108E8C9181508C93A485B585C681DC
:10201000D781808591859F838E83C085D185868178
:1020200097819D838C8311968D919C9112979F012E
:102030002E5F3F4F8217930731F48085918512966A
:102040009C938E931197158614868C9181508C9356
:10205000A28D8091A9158A1710F4A093A9158BE081
:102060008A9FD0011124A551BA4E11960D90BC91B2
:10207000A02DB783A68316964D915C911797518733
:1020800040871696CD91DC9117973D832C83179648
:102090003C932E931697A28D8A9FD0011124A551AF
:1020A000BA4EB587A4878C918F5F8C93928DA09147
:1020B0005916B0915A165A968C91981730F081E0C3
:1020C0008093A31502C0E0E0F0E08091C615811175
:1020D00073CFEF2B09F07EDBC090A415D090A5152F
:1020E000E090A615F090A715C114D104E104F10405
:1020F000A1F01FDE882319F081E08093A31581E011
:10210000C81AD108E108F108A1F71092A41510929D
:10211000A5151092A6151092A7158091A3158823D6
:1021200031F00E941B0581E003C080E001C080E027
:102130000F900FBEDF91CF91FF90EF90DF90CF9087
:1021400008958F929F92AF92BF92CF92DF92EF92BB
:10215000FF921F93CF93DF93EC016A017B01D5DDE2
:102160008090AA159090AB15A090AC15B090AD15CD
:1021700088819981AA81BB81AC01BD014C0D5D1D97
:102180006E1D7F1D88169906AA06BB0660F44817C7
:1021900059076A077B0798F484169506A606B706C2
:1021A00080F010E013C0481759076A077B0758F002
:1021B00084169506A606B70640F010E007C010E0AA
:1021C00005C011E003C011E001C011E0488359834C
:1021D0006A837B83112341F0CB01BA016819790925
:1021E0008A099B0940E06BDCD0DE811102C00E94AD
:1021F0001B05812FDF91CF911F91FF90EF90DF9012
:10220000CF90BF90AF909F908F900895CF92DF9224
:10221000EF92FF926B017C01672B682B692B39F0E1
:1022200074DD40E0C701B6014ADCAFDE01C080E0EA
:10223000811102C00E941B05FF90EF90DF90CF90AC
:10224000089580919A15882321F081E08093A31549
:1022500008951092A315E0915916F0915A16208115
:102260003181E0915916F0915A16838D948D821721
:10227000930760F06091591670915A16635E7F4F14
:102280008091591690915A160E948D1A8091A91525
:1022900001C08150282F30E09BE0929FF001939F76
:1022A000F00D1124E551FA4E9081992391F39BE0B2
:1022B000929FA001939F500D1124DF010180F281B4
:1022C000E02D0480F581E02D1296FC93EE9311979A
:1022D00042515A4EE417F50729F444815581FD0116
:1022E000528341839BE0929FF001939FF00D112454
:1022F000E551FA4E0180F281E02D20853185309341
:102300005A16209359168093A9150895CF92DF92FB
:10231000EF92FF926A017B016091591670915A16F3
:10232000625F7F4F0E94620441E0C701B601C7DBD4
:10233000FF90EF90DF90CF9008950F931F93CF936E
:10234000DF93FC01A0915916B0915A1670681E9641
:102350004D935D936D937C935197A181B281C09110
:102360005916D0915A16BB8BAA8BC0915916D09191
:102370005A1616968D919C9117979D8B8C8B16965D
:10238000CD91DC9117978091591690915A160E961F
:102390009D838C838091591690915A160E961796AC
:1023A0009C938E931697A0915916B0915A165996F0
:1023B000FC93EE93589780818F5F808341E0C90141
:1023C000B8017DDBDF91CF911F910F910895CF93DD
:1023D000DF93FC01CB01BA01A181B281C0915916F2
:1023E000D0915A16BB8BAA8BC0915916D0915A1610
:1023F00016964D915C9117975D8B4C8B1696CD91EF
:10240000DC9117974091591650915A16425F5F4FD1
:102410005D834C834091591650915A16425F5F4F2D
:1024200017965C934E931697A0915916B0915A1631
:102430005996FC93EE93589730813F5F3083222367
:1024400019F06FEF7FEFCB01422F39DBDF91CF9196
:102450000895CF93DF93DC011796ED91FC911897C7
:102460000084F185E02DA08DB18DC289D389848946
:1024700095899F838E83C489D589828993899D8319
:102480008C8311968D919C9112979F01225F3F4FF3
:102490008217930731F48489958912969C938E93C1
:1024A0001197118E108E8C9181508C9380919A157A
:1024B000811152C0A485B585C681D781808591855B
:1024C0009F838E83C085D185868197819D838C83F0
:1024D00011968D919C9112979F012E5F3F4F82170D
:1024E000930731F48085918512969C938E93119772
:1024F000158614868C9181508C93A28D8091A9159C
:102500008A1710F4A093A9158BE08A9FD00111249B
:10251000A551BA4E11960D90BC91A02DB783A683FC
:1025200016964D915C911797518740871696CD91DD
:10253000DC9117973D832C8317963C932E93169727
:10254000A28D8A9FD0011124A551BA4EB587A487C8
:102550008C918F5F8C931CC046EC55E1DA0111968B
:10256000CD91DC911297D38BC28B8E819F81958BFD
:10257000848B8E819F81DC0115963C932E9314975A
:102580003F832E83518F408FDA018C918F5F8C9324
:10259000928DE0915916F0915A16828D891720F488
:1025A00081E08093A31501C080E0DF91CF91089571
:1025B000CF93DF93DC0170684D935D936D937C93B3
:1025C00013971896ED91FC9119971A964D915C917D
:1025D0001B9714968D919C91159716962D913C9171
:1025E0001797EC013F832E8316968D919C91179738
:1025F00014962D913C911597EC013D832C83EA01B3
:1026000089819A81A817B90731F416968D919C910A
:1026100017979A8389831B961C921E921A97DA0148
:102620008C9181508C93A485B585C681D781808596
:1026300091859F838E83C085D185868197819D8377
:102640008C8311968D919C9112979F012E5F3F4F25
:102650008217930731F48085918512969C938E930F
:102660001197158614868C9181508C93A28D809140
:10267000A9158A1710F4A093A9158BE08A9FD001A1
:102680001124A551BA4E11960D90BC91A02DB7837F
:10269000A68316964D915C911797518740871696A1
:1026A000CD91DC9117973D832C8317963C932E9305
:1026B0001697A28D8A9FD0011124A551BA4EB587D5
:1026C000A4878C918F5F8C93928DE0915916F09135
:1026D0005A16828D891718F481E08093A315DF9133
:1026E000CF9108950FB6F8940F922091A215FC0196
:1026F00020834091AA155091AB156091AC15709153
:10270000AD1541835283638374830F900FBE089588
:102710002091A215FC0120834091AA155091AB1580
:102720006091AC157091AD154183528363837483BE
:1027300008958F929F92AF92BF92CF92DF92EF92C5
:10274000FF920F931F93CF93DF93FB010FB6F89483
:102750000F92C090AA15D090AB15E090AC15F090F8
:10276000AD15DC0111960D911D912D913C911497A1
:1027700046015701801A910AA20AB30A4081518189
:10278000628173814F3FBFEF5B076B077B0739F1B6
:10279000EC01B881A091A215BA1759F0C016D10664
:1027A000E206F30630F0108211821282138281E079
:1027B00017C084169506A606B70658F44819590995
:1027C0006A097B094083518362837383A1DF80E0C0
:1027D00007C0108211821282138281E001C080E062
:1027E0000F900FBEDF91CF911F910F91FF90EF904F
:1027F000DF90CF90BF90AF909F908F90089581E031
:102800008093A31508958091591690915A160895B2
:102810008091A815882331F080919A15811104C008
:1028200082E0089581E0089580E008950F931F935A
:10283000CF93DF93FC01892B09F449C086A5815011
:1028400086A7228D95A5291709F443C0811143C09D
:10285000EF018F010E5F1F4FC8010E949F04EDA57D
:10286000EA8F8AE090E0A0E0B0E08E1B9109A10918
:10287000B1098E879F87A88BB98B8091A9158E1778
:1028800010F4E093A9158BE08E9FF0011124E5511F
:10289000FA4E0180F281E02DFF83EE83268137819D
:1028A00039872887A681B78115961C930E931497B4
:1028B00017830683EA8D8E9FF0011124E551FA4EAD
:1028C000FD87EC8780818F5F808381E005C080E099
:1028D00003C080E001C080E0DF91CF911F910F9194
:1028E0000895CF92DF92EF92FF92E0915916F09106
:1028F0005A166685778580899189E0915916F091FD
:102900005A16A0915916B0915A165A962C910F2E1C
:10291000FAE0CF2ED12CE12CF12CF02DC21AD108E7
:10292000E108F108C686D786E08AF18AFF90EF9029
:10293000DF90CF9008954F925F926F927F92AF9207
:10294000BF92CF92DF92EF92FF920F931F93CF939C
:10295000DF93280139010FB6F8940F92E0915916D0
:10296000F0915A16C82FD0E0EC0FFD1F83A98230DA
:1029700071F1E0915916F0915A16CE01880F991F06
:10298000880F991FE80FF91F87A590A9A1A9B2A9DF
:102990004095509560957095482359236A237B2371
:1029A00047A750AB61AB72ABE0915916F0915A1644
:1029B000EC0FFD1F81E083ABA114B104C104D1046D
:1029C00031F041E0C601B5017AD80E941B050F9095
:1029D0000FBE0FB6F8940F92E114F104A1F0E0914C
:1029E0005916F0915A16CE01880F991F880F991F1A
:1029F000E80FF91F87A590A9A1A9B2A9F7018083C3
:102A00009183A283B383E0915916F0915A16EC0F8B
:102A1000FD1F83A98230E9F4E0915916F0915A160E
:102A2000CE01880F991F880F991FE80FF91F87A5FE
:102A300090A9A1A9B2A9409450946094709448229E
:102A400059226A227B2247A650AA61AA72AA81E073
:102A500001C080E02091591630915A16C20FD31F41
:102A60001BAA0F900FBEDF91CF911F910F91FF9086
:102A7000EF90DF90CF90BF90AF907F906F905F907E
:102A80004F9008958F929F92AF92BF92EF92FF92D4
:102A90000F93CF93DF93DC010FB6F8940F92E114FC
:102AA000F10489F0E62FF0E0EE0FFF1FEE0FFF1F9D
:102AB000E80FF91F87A490A8A1A8B2A8F701808207
:102AC0009182A282B38270E0FD01E60FF71F83A915
:102AD00092E093AB023001F118F4013031F04DC0B7
:102AE000033079F10430D1F148C0660F771F660FCB
:102AF000771FFD01E60FF71F87A490A8A1A8B2A831
:102B0000BA01A901482959296A297B2947A750AB4D
:102B100061AB72AB01E034C0660F771F660F771FA1
:102B2000FD01E60FF71F47A550A961A972A94F5FE4
:102B30005F4F6F4F7F4F47A750AB61AB72AB01E068
:102B40001FC0660F771F660F771FFD01E60FF71F87
:102B500027A730AB41AB52AB01E012C0823079F015
:102B6000660F771F660F771FFD01E60FF71F27A778
:102B700030AB41AB52AB01E003C001E001C000E06B
:102B8000813009F069C01C96ED91FC911D97169655
:102B9000CD91DC91179718968D919C9119979F83F1
:102BA0008E831896CD91DC91199716968D919C91F4
:102BB00017979D838C83818192819D012E5F3F4F6A
:102BC0008217930731F418968D919C9119979283EF
:102BD00081831D961C921E921C9780818150808358
:102BE0005A96EC915A978091A9158E1710F4E0939C
:102BF000A9158BE08E9FF0011124E551FA4E01805A
:102C0000F281E02D1796FC93EE931697468157813B
:102C100019965C934E931897C681D7813D832C8378
:102C2000378326835A96EC915A978E9FF001112490
:102C3000E551FA4E1D96FC93EE931C9780818F5FB1
:102C400080835A969C91E0915916F0915A16828D84
:102C5000891710F40E941B050F900FBE802FDF9183
:102C6000CF910F91FF90EF90BF90AF909F908F907A
:102C700008958F929F92AF92BF92CF92DF92EF9280
:102C8000FF920F93CF93DF93DC01E114F10489F0FD
:102C9000E62FF0E0EE0FFF1FEE0FFF1FE80FF91F0A
:102CA00087A490A8A1A8B2A8F70180829182A282ED
:102CB000B38270E0FD01E60FF71F93A982E083ABBA
:102CC000023001F118F4013031F04DC0033079F1D8
:102CD0000430D1F148C0660F771F660F771FFD01E2
:102CE000E60FF71F87A490A8A1A8B2A8BA01A9016E
:102CF000482959296A297B2947A750AB61AB72AB98
:102D000081E034C0660F771F660F771FFD01E60F65
:102D1000F71F47A550A961A972A94F5F5F4F6F4F79
:102D20007F4F47A750AB61AB72AB81E01FC0660F0E
:102D3000771F660F771FFD01E60FF71F27A730AB40
:102D400041AB52AB81E012C0923079F0660F771F31
:102D5000660F771FFD01E60FF71F27A730AB41ABCA
:102D600052AB81E003C081E001C080E0913009F006
:102D700096C090919A1591115FC01C96ED91FC91AF
:102D80001D971696CD91DC91179718962D913C9131
:102D900019973F832E831896CD91DC91199716963B
:102DA0002D913C9117973D832C83418152819D0148
:102DB0002E5F3F4F4217530731F418964D915C91A7
:102DC0001997528341831D961C921E921C979081E5
:102DD000915090835A96EC915A979091A9159E170D
:102DE00010F4E093A9159BE09E9FF0011124E5519A
:102DF000FA4E0180F281E02D1796FC93EE93169720
:102E00004681578119965C934E931897C681D78156
:102E10003D832C83378326835A96EC915A979E9F45
:102E2000F0011124E551FA4E1D96FC93EE931C9788
:102E300090819F5F908321C066EC75E1FB01C181A9
:102E4000D2815396DC93CE9352972E813F81559633
:102E50003C932E9354974E815F819D01225F3F4F9B
:102E6000FA01358324833F832E8359967C936E9396
:102E70005897FB0190819F5F90835A962C91E09127
:102E80005916F0915A16928D921748F4C114D10434
:102E900019F091E0F601908391E09093A315DF91F2
:102EA000CF910F91FF90EF90DF90CF90BF90AF90B8
:102EB0009F908F900895009721F4809159169091DA
:102EC0005A160FB6F8940F9270E0FC01E60FF71F48
:102ED00023A9223031F4FC01E60FF71F13AA81E089
:102EE00001C080E00F900FBE0895DC01E0916516EF
:102EF000F0916616808191E0811190E09C93911190
:102F000008C00780F085E02D608171818281938106
:102F1000089560E070E0CB010895CF92DF92EF92C8
:102F2000FF920F931F93FC01428353836483758345
:102F3000938782870417150726073707C0F00C19F7
:102F40001D092E093F0986859785A089B189081733
:102F500019072A073B0700F5BF016E5F7F4F80917D
:102F60006316909164160E94620480E018C00C15EC
:102F70001D052E053F0528F44C155D056E057F05E2
:102F800068F4BF016E5F7F4F809165169091661661
:102F90000E94620480E003C081E001C081E01F91D3
:102FA0000F91FF90EF90DF90CF9008950FB6F894B7
:102FB0000F928091611690916216892BE9F482E755
:102FC00096E10E944D0487E696E10E944D0482E757
:102FD00096E1909366168093651687E696E1909346
:102FE00064168093631640E067E08AE00E94000761
:102FF00090936216809361160F900FBE0895EF9222
:10300000FF920F93D3DF8091611690916216892B06
:1030100091F00F2EFFE5EF2EF6E1FF2EF02D03E0ED
:1030200020E030E040EC50E062EA72E087ED90E0B2
:103030000E94010E01C080E00F91FF90EF90089573
:103040008F929F92AF92BF92CF92DF92EF92FF92B8
:103050000F931F93CF93DF93CDB7DEB727970FB6AC
:10306000F894DEBF0FBECDBFE0916116F0916216FD
:10307000309781F169832A833B834C835D839F83EF
:103080008E836630F4F4C4DB823069F400E0A7017B
:103090009601BE016F5F7F4F80916116909162161D
:1030A0000E94230718C000E020E030E0A901BE0123
:1030B0006F5F7F4F80916116909162160E94230787
:1030C0000AC020E0A801BE016F5F7F4FCF010E94C0
:1030D000D30701C080E027960FB6F894DEBF0FBE7D
:1030E000CDBFDF91CF911F910F91FF90EF90DF90B7
:1030F000CF90BF90AF909F908F9008958F929F92A6
:10310000AF92BF92CF92DF92EF92FF920F931F93F5
:10311000CF93DF933BC00780F085E02D80809180C6
:10312000A280B380C085D1858E010E5F1F4FC8017C
:103130000E949F04EC89FD89CE0119958E8982FF3A
:1031400025C08E859F85A889B989880D991DAA1DDE
:10315000BB1D88169906AA06BB0670F48A839B835A
:10316000AC83BD83DB87CA87B801809165169091D7
:1031700066160E9462040AC0C12CD12C760100E0C0
:1031800010E0A501940160E0CE015ADFE0916516E0
:10319000F091661680818111BECF80916316909167
:1031A00064169093661680936516F0936416E09308
:1031B0006316DF91CF911F910F91FF90EF90DF90F9
:1031C000CF90BF90AF909F908F900895CF92DF9255
:1031D000EF92FF92CF93DF93EC010E948B0E6B0175
:1031E0007C0180915B1690915C16A0915D16B09168
:1031F0005E16C816D906EA06FB0620F47FDF81E0DA
:10320000888301C01882C0925B16D0925C16E0924F
:103210005D16F0925E16C701B601DF91CF91FF9067
:10322000EF90DF90CF9008954F925F926F927F92D0
:103230008F929F92AF92BF92CF92DF92EF92FF92C6
:103240000F931F93CF93DF934B015C0129013A0148
:10325000E0916516F09166160780F085E02DC08537
:10326000D185CE0102960E949F048E8982FF1BC0E9
:103270004E855F8568897989480D591D6A1D7B1DBA
:103280007501640193018201CE0147DE882369F054
:10329000C12CD12C760100E010E0A501940160E082
:1032A000CE01CEDE02C08E7F8E8BEC89FD89CE01F1
:1032B0001995DF91CF911F910F91FF90EF90DF90C3
:1032C000CF90BF90AF909F908F907F906F905F90C6
:1032D0004F9008958F929F92AF92BF92CF92DF92BC
:1032E000EF92FF921F93CF93DF931F92CDB7DEB77C
:1032F0006B017C01142F0E94850ECE01019666DFC2
:103300004B015C01898181112DC011110DC08C14FC
:103310009D04AE04BF0440F00E94C50FA5019401B6
:10332000C701B60181DF20C0112341F0E09163168F
:10333000F0916416808111E0811110E0B701A601BF
:10334000481959096A097B09212F809161169091CA
:1033500062160E949D080E94C50F811105C00E943F
:103360001B0502C00E94C50F0F90DF91CF911F91E6
:10337000FF90EF90DF90CF90BF90AF909F908F9095
:103380000895AF92BF92CF92DF92EF92FF920F9388
:103390001F93CF93DF93CDB7DEB728970FB6F8947E
:1033A000DEBF0FBECDBF82C0898188230CF47EC0F2
:1033B000AE80BF80D5011C968D919C911D97892B65
:1033C00021F0C50102960E949F04CE010896FEDE00
:1033D0008B019C01E9810E2E000CFF0BEA30F105F8
:1033E00008F064C08827EE58FF4F8F4F0C94332DA0
:1033F000F50186898160868BCA80DB80EC80FD8048
:1034000046855785608971894C0D5D1D6E1D7F1D38
:10341000C50183DD882309F449C0D5015496ED9197
:10342000FC915597C5011995F501868982FF3EC02B
:103430004A815B816C817D8186859785A089B18970
:103440009A01AB01280F391F4A1F5B1FC12CD12CD9
:10345000760100E010E060E0C501F2DD27C0D50193
:1034600056968C9156978E7F56968C931FC0F50179
:1034700086898160868B4A815B816C817D814687EC
:103480005787608B718B400F511F621F731F68013C
:103490007901C50142DD0AC0F501868981FD04C0BC
:1034A000C5010E94100402C08E7F868B20E030E0B0
:1034B000A901BE016F5F7F4F8091611690916216E6
:1034C0000E940E08811170CF28960FB6F894DEBFC7
:1034D0000FBECDBFDF91CF911F910F91FF90EF9065
:1034E000DF90CF90BF90AF900895089584B1806829
:1034F00084B985B1806885B9089583B1806883B93E
:103500000895F4DF2FEF80E792E021508040904053
:10351000E1F700C00000F1DFF5CFE8DF2FEF87EA29
:1035200091E6215080409040E1F700C00000E5DFC7
:10353000F5CF86E090E00E9467039093F0178093A8
:10354000EF17009711F480E090E00895E091EF17F5
:10355000F091F017918380830895E091EF17F09137
:10356000F017938382830895E091EF17F091F0179D
:10357000958384830895EDE7F6E126E02183608357
:10358000A091EF17B091F0172C9111963C911197E3
:103590003283238312962C91129713963C911397A2
:1035A0003483258314962C91149715963C91368379
:1035B000278326E1DC0101900D922A95E1F7089519
:1035C0000F931F93CF93DF938C01EB0188E090E082
:1035D0000E946703009709F11093F2170093F11707
:1035E000D093F417C093F31740919316509194160B
:1035F0006091951670919616FC01448355836683FD
:103600007783409197165091981660919916709112
:103610009A164083518362837383DF91CF911F9108
:103620000F91089560919716709198168091991650
:1036300090919A16C8D2CB0108956091931670911B
:1036400094168091951690919616BDD2CB0108954F
:103650003CD3882341F08AEA92E09F938F930E94A3
:10366000BF2E0F900F900895CC24CA94DC2C7601C5
:1036700001E021E041E050E060E070E08091F1176E
:103680009091F2170E94C60160FFEECF66E070E0F5
:1036900080E090E00E94061130D38823C1F066E0FC
:1036A00070E080E090E00E9406118FEB92E09F9323
:1036B0008F930E94BF2E0F900F9006C063E070E0C2
:1036C00080E090E00E94061118D38823B9F32AD332
:1036D00063E070E080E090E00E94061123D3811146
:1036E000C3CF66E070E080E090E00E9406112BD32B
:1036F00060939316709394168093951690939616F4
:1037000037D3609397167093981680939916909379
:103710009A1689EF92E09F938F930E94BF2E42E00A
:1037200050E060E070E08091F3179091F4170E94F0
:1037300066020F900F9098CF0F931F93CF93DF9354
:10374000CDB7DEB764970FB6F894DEBF0FBECDBF1E
:1037500081E00E94332994D410D79F938F938BE1FB
:1037600093E09F938F930E94BF2E08D606D79F9316
:103770008F938EE293E09F938F930E94BF2E87E4F6
:1037800093E00E94D22E8E010F5F1F4FC8018AD492
:10379000F4D61F930F939F938F9384E593E09F93A9
:1037A0008F930E94BF2EC80199D4E7D69F938F9321
:1037B0001F930F9388E693E09F938F930E94BF2EF1
:1037C0008DE793E00E94D22EA8016AE873E08BEAAD
:1037D00093E0B2D6D2D69F938F931F930F938AE82C
:1037E00093E09F938F938BEA93E09F938F938CEB5F
:1037F00093E09F938F930E94BF2EA3D4BED69F9336
:103800008F9382EF93E09F938F930E94BF2E0FB60A
:10381000F894DEBF0FBECDBF81E08DD5AED69F93AD
:103820008F9381E094E09F938F930E94BF2E82E25A
:1038300094E00E94D22E84EF91E088D59ED69F938B
:103840008F9381E08F9384EF8F938FE294E09F9327
:103850008F930E94BF2E0FB6F894DEBF0FBECDBF70
:103860001AE080E074D4082F88D69F938F931F921C
:103870001F938FE494E09F938F930E94BF2E0F902D
:103880000F900F900F900F900F90083059F080E03C
:103890000E94972966E371E080E090E00E940611A3
:1038A0001150F9F6083021F481E00E9479290DC009
:1038B0008FE694E00E94D22E81E00E94882980E069
:1038C0000E9456290E941B05FDCF64960FB6F894FE
:1038D000DEBF0FBECDBFDF91CF911F910F91089535
:1038E000EF92FF920F939B0170939C1660939B162F
:1038F000E12CF12C082F48E851E06AE774E08DEBE9
:103900009CE10E94010E0F91FF90EF90089581E0DD
:10391000A9D362E070E080E090E00E94061180E0B0
:10392000A1D366E970E080E090E00E94061153D3D5
:1039300003DF0FEF1FEF980146E150E06DE976E1FC
:1039400080919B1690919C160E94670B892B89F39E
:1039500083E00E94A9296DE976E180E021D40DD6AB
:103960009F938F9385E894E09F938F930E94BF2E3F
:103970000F900F900F900F90DCCFC9DF75CE089598
:103980000C9472010895CF93DF93CDB7DEB7E09723
:103990000FB6F894DEBF0FBECDBF0E948B0E6F8BAB
:1039A000788F898F9A8F43E050E060E070E08091DB
:1039B000FD179091FE170E946602CC24CA94DC2C5D
:1039C000760101E021E043E050E060E070E08091AA
:1039D000F9179091FA170E94C601DC01CB018370A0
:1039E0009927AA27BB270397A105B105E1F61ADE9F
:1039F000B4DD18DE9F938F938AE994E09F938F93B1
:103A00000E94BF2E1ADEB0DD18DE9F938F9384EBE9
:103A100094E09F938F930E94BF2E0E94350196DD04
:103A20000E9435019F938F938DEC94E09F938F9329
:103A30000E94BF2E62E0CE014B969DDD86E1FE0125
:103A40007B96DE01119601900D928A95E1F763E075
:103A500070E080E090E00E9406110FEF1FEF9801E8
:103A600046E150E0BE016F5F7F4F8091F517909166
:103A7000F6170E945E0A48EA58E460E070E0CE0162
:103A800047960E94A1100FB6F894DEBF0FBECDBFBF
:103A90008ACFEF92FF920F93CF93DF9341E060E0E4
:103AA00070E084E690E00E94FC099093F617809302
:103AB000F5173FDD0E94B301092E000CAA0BBB0BCA
:103AC0008093FD179093FE17A093FF17B0930018F3
:103AD0000E94B301AC01092E000C660B770B4093DA
:103AE000F9175093FA176093FB177093FC17CDEFFB
:103AF000D7E1BC018881998163DD6091F9177091EC
:103B0000FA17888199810E9416018091F717909188
:103B1000F817892B89F481E00E94C7079093F81762
:103B20008093F717009741F000E020E030E0A90112
:103B300060E070E00E942307E12CF12C03E020E01C
:103B400030E040EC50E06FED74E083EC9CE10E94CB
:103B5000010E01E020E030E040EC50E06BEE74E05C
:103B60008EEB9CE10E94010E20E030E040EC50E042
:103B700060E075E080EC9CE10E94010EDF91CF9146
:103B80000F91FF90EF90089581B1816881B980E035
:103B90000E94DE275DDD83E0CCD53CD67ADF85E070
:103BA0000E94E52860E070E081E01CD26091F5178A
:103BB0007091F61784E094CE0895E6DF0E944D0ED2
:103BC00080E090E0089533D088F09F5790F0B92FAF
:103BD0009927B751A0F0D1F0660F771F881F991F62
:103BE0001AF0BA95C9F712C0B13081F03AD0B1E0FD
:103BF000089537C0672F782F8827B85F39F0B93F0D
:103C0000CCF3869577956795B395D9F73EF4909563
:103C10008095709561957F4F8F4F9F4F089557FD09
:103C20009058440F551F59F05F3F71F04795880F2A
:103C300097FB991F61F09F3F79F0879508951216C1
:103C400013061406551FF2CF4695F1DF08C016166D
:103C500017061806991FF1CF86957105610508941E
:103C60000895E894BB2766277727CB0197F9089535
:103C70006530F1F4FA0180818F7390E0982F8827E6
:103C80002181822B90930A02809309028281F0E4C1
:103C90008F9FC0011124FA01238126952695822B3E
:103CA000909308028093070281E08093B3160895F1
:103CB000643051F080E090E4909308028093070212
:103CC00090930A028093090208950F931F9308E3CB
:103CD0001EE120E034E244EF50E060E087E20E9421
:103CE000CB299093B5168093B41621E0892B09F067
:103CF00020E0822F1F910F9108958091B41690912A
:103D0000B516009759F040E060E070E00E941C2A70
:103D1000843031F41092B31680E0089582E0089563
:103D200083E008958091B4169091B516009739F00C
:103D300064E00E94682A853021F083E0089582E0E3
:103D4000089580E008956091090270910A0280E070
:103D500090E00E94462C20E030E048EC52E40E94C3
:103D6000AB2C20E038EF4FE756E40C94DB2B0895A2
:103D7000609107027091080280E090E00E94462C5A
:103D800020E030E045E253E40E94AB2C20E038EF25
:103D90004FE756E40E94DB2B20E030E040E252E4A3
:103DA0000C94742B08950F931F93CF93DF931F925E
:103DB0001F92CDB7DEB78C0119822DC0E091ED16B0
:103DC000EC3250F481E08E0F8093ED16F0E0E15E6E
:103DD000F84E8A81808302C01092ED168A818A3063
:103DE000D1F44091ED1650E0FA01E35EF84E1082F6
:103DF000415051099E012F5F3F4F6FE177E1809164
:103E0000F0169091F1160E94230B898181110E9476
:103E10001B051092ED16BE016E5F7F4FC80138D6AC
:103E2000882361F20F900F90DF91CF911F910F9136
:103E300008950F931F93CF93DF938C01EB01809133
:103E4000F0169091F1160E942E0AB80186EB96E1C9
:103E50000E94A02E209779F0E6EBF6E10190002079
:103E6000E9F7319780E290E091838083BE0186EB91
:103E700096E10E94952EE6EBF6E1DF010D90002021
:103E8000E9F711978DE09AE011969C938E93129624
:103E90001C9201900020E9F73197E65BF641AE2FC6
:103EA00086EB96E1AC016A2F8091F2169091F316A1
:103EB0009AD5811111C008E215E020E030E04DE212
:103EC00050E069E777E18091F0169091F1160E9439
:103ED000670B89E797E102C080E090E0DF91CF9126
:103EE0001F910F9108952F923F924F925F926F9280
:103EF0007F928F929F92AF92BF92CF92DF92EF927A
:103F0000FF920F931F93CF93DF935C01FC0101900D
:103F10000020E9F731976F01C81AD90A5C2C0F2EDF
:103F2000F2EA8F2EF7E09F2EF02DE12CF12C4C2C95
:103F30003701F40101811281E80109900020E9F7BD
:103F40002197C01BD10B3C2EF9E0CF16D10458F0BD
:103F5000F4012080FEE02F1206C0B801C5010E94C6
:103F6000702E892B09F5442D351408F44C2F50E0A0
:103F7000B801C5010E94A72E892B49F4F301EE0F69
:103F8000FF1FE60DF71DEE55F84F20800DC08FEF97
:103F9000E81AF80AE3E08E0E911CF1E1EF16F10445
:103FA00039F66894222424F8822DDF91CF911F9155
:103FB0000F91FF90EF90DF90CF90BF90AF909F90C8
:103FC0008F907F906F905F904F903F902F900895CB
:103FD00030DF89CF08958091F0169091F1160C94FE
:103FE0002E0A08958F929F92AF92CF92EF920F93E5
:103FF0001F93CF93C82F8B0141E060E070E088EC05
:1040000090E00E94FC099093F1168093F0161093B3
:10401000EF160093EE160F2EF3ED8F2EFEE19F2E7E
:10402000F02D6894AA24A6F86894CC24C6F8E12C54
:1040300000E023E040E051EE60E070E08C2F06D419
:104040009093F3168093F216E7E0F1E080818061AF
:104050008083CF911F910F91EF90CF90AF909F9061
:104060008F900895882331F0E8E0F1E080818F7E21
:1040700080830895E8E0F1E0808180618083089585
:1040800060E070E088E295E0D4DEE9E7F7E10190D6
:104090000020E9F73197E957F74181E0759708F07B
:1040A00080E00895CF93DF93EC0160E070E089E356
:1040B00095E0BFDEE9E7F7E101900020E9F7EA5873
:1040C000F74139F469E777E1CE010E94A02E80E044
:1040D00002C0188281E0DF91CF910895FC01019028
:1040E0000020E9F79F01215131092817390729F4E8
:1040F000BC0187E695E06CCF089589E00895FC0146
:1041000001900020E9F79F01215131092817390753
:1041100029F4BC0186E795E05BCF089589E0089516
:10412000FC0101900020E9F79F0121523109281775
:10413000390729F4BC0185E895E04ACF089589E064
:10414000089560E070E084EC95E042CF08950F930D
:104150001F93E82FF0E0EE0FFF1FE256F84F60814B
:1041600071818DEC95E034DF811114C008E215E017
:1041700020E030E04DE250E069E777E18091F01611
:104180009091F1160E94670B882321F089E797E14F
:10419000AADE03C089E797E1A6DE1F910F9108957B
:1041A0000F931F93CF93DF931F92CDB7DEB7DB0141
:1041B00011969C911197953108F0B4C0992381F123
:1041C00060E070E0272F30E0462F50E0FD01E40F63
:1041D000F51F928192959F709A3010F0995C01C002
:1041E000905DF901E65FF84E90832F5F3F4FFD0130
:1041F000E40FF51F92819F70492F50E04A3051051E
:1042000014F0995C01C0905DF901E65FF84E90836F
:104210007E5F6F5F11969C911197691798F201C0AC
:1042200070E0E72FF0E0E65FF84E10824C918111CC
:1042300003C086ED95E002C088ED95E02AE037E105
:104240003F932F931F924F939F938F938CED95E005
:104250009F938F938CE497E19F938F930E94022FFB
:1042600060E070E08CE497E1B3DE0FB6F894DEBF57
:104270000FBECDBF811159C008E215E020E030E04B
:104280004DE250E069E777E18091F0169091F116E8
:104290000E94670B882309F447C089E797E123DE72
:1042A0008E3009F042C087E089838091EE169091AC
:1042B000EF16892BA9F1BE016F5F7F4F89E797E168
:1042C00068D18093F416E981F0E0E758F84EDF01F9
:1042D0000D900020E9F71197AE1BBF0BAA2391F0B8
:1042E000BB27CD0101979C0112F42F5F3F4F3595FD
:1042F00027952093F516AF014F5F5F4F64E186EF7E
:1043000096E173D101E010E020E030E046E150E0BA
:1043100064EF76E18091EE169091EF160E945E0AAE
:104320008EE003C084E101C080E00F90DF91CF9167
:104330001F910F910895813019F06CEE75E002C065
:1043400065EC76E080EF95E043CE08959F938F93E0
:1043500081E296E09F938F938CE497E19F938F93F4
:104360000E94022F60E070E08CE497E131DE0F9054
:104370000F900F900F900F900F9008952F923F92F3
:104380004F925F926F927F928F929F92AF92BF9265
:10439000CF92DF92EF92FF920F931F93CF93DF9311
:1043A000CDB7DEB7A0970FB6F894DEBF0FBECDBF76
:1043B0006EE476E08AE596E03CDD95DD8111A3C0F0
:1043C00080E2E2E2F2E0DE01119601900D928A9520
:1043D000E1F79E012F5F3F4F6901E12CF12C0F2E79
:1043E000F6E6AF2EF6E0BF2EF02D0CE417E10F2E0F
:1043F000FFE74F2EF6E05F2EF02D0F2EF6E98F2E01
:10440000F6E09F2EF02D0F2EF0EB6F2EF6E07F2EB4
:10441000F02D3E2C2F2CFF92EF92BF92AF921F9364
:104420000F930E94022F60E070E0C80102DD5BDDA7
:104430000F900F900F900F900F900F90811163C00D
:1044400032E03E15E8F4F60183818F9382818F93E9
:1044500081818F9380818F93FF92EF925F924F9231
:104460001F930F930E94022F60E070E0C801E1DC0F
:104470003ADD0FB6F894DEBF0FBECDBF811143C049
:104480002F923F929F928F921F930F930E94022F21
:1044900060E070E0C801CDDC26DD0F900F900F903A
:1044A0000F900F900F9081112EC02F923F927F920C
:1044B0006F921F930F930E94022F60E070E0C8017B
:1044C000B8DC11DD0F900F900F900F900F900F90B0
:1044D000811119C03FEFE31AF30A84E0C80ED11C22
:1044E00098E0E916F10409F094CF60E070E088EC00
:1044F00096E09FDCF8DC811106C060E070E089ED99
:1045000096E097DCF0DCA0960FB6F894DEBF0FBE05
:10451000CDBFDF91CF911F910F91FF90EF90DF9072
:10452000CF90BF90AF909F908F907F906F905F9053
:104530004F903F902F900895EF92FF920F931F930B
:10454000CF93DF93EC018B017A0181E0F4DE8111DE
:104550000DC0CE01D4DD811109C0C801E1DD81119A
:1045600005C0C701BBDD811101C0EBDDDF91CF913B
:104570001F910F91FF90EF90089590E0FC01EE0FD6
:10458000FF1F8E0F9F1FFC01EE55F84F8181928116
:104590000895DC01009729F1FB012081FC010190C5
:1045A0000020E9F73197E81BF90B822F90E0E8171C
:1045B000F907C8F080E008C0880F382F330F330F99
:1045C000830F8053890F2F5FFD01E20FF11D908152
:1045D00030ED390F3A3010F49111EECFFB0120830A
:1045E000089580E0089580E008950F931F93CF937E
:1045F000DF93DC01EA012097E1F1FA01019000204C
:10460000E9F73197E41BF50B329710F532C08D01B5
:10461000040F151F30E0AE01420F531FFA019081C5
:10462000913428F09753592F5295507F03C0592F3A
:104630005295507F2C0F3D1FF9019181913410F05C
:10464000975301C09053950FF80190838F5F01C07D
:1046500080E0282F220F482F50E0FE01019000201B
:10466000E9F73197EC1BFD0B4E175F0710F486132B
:10467000CECFDF91CF911F910F9108958091A9170F
:10468000860F8093A9179091AC17913079F028F09C
:104690009230A9F0933019F108956F3F09F048C0A6
:1046A0001092A91781E08093AC170895663809F03D
:1046B0003FC01092A81782E08093AC170895E09154
:1046C000A81781E08E0F8093A817F0E0EA55F84E06
:1046D0006083823069F583E08093AC1708959091F0
:1046E000A81721E0290F2093A817963009F581110A
:1046F0000EC0E6EAF7E1808190E0982F88272181BB
:10470000820F911D9093AE178093AD1704C0109245
:10471000AE171092AD171092AC17E091AA17F09156
:10472000AB17309729F08091AD179091AE1719957E
:1047300008958F929F92AF92CF92EF920F930F2E88
:10474000FEE38F2EF3E29F2EF02D6894AA24A4F8A6
:104750006894CC24C4F8E12C00E023E040E855E262
:1047600060E070E073D09093B0178093AF170F9113
:10477000EF90CF90AF909F908F9008959093AB174C
:104780008093AA170895CF93DF93CDB7DEB729970B
:104790000FB6F894DEBF0FBECDBF89E0E2E4F2E0D1
:1047A0009E012F5F3F4FD90101900D928A95E1F74D
:1047B0001092AE171092AD178091AF179091B0176D
:1047C000009731F0422F532F69E00DD180E001C0F6
:1047D00082E029960FB6F894DEBF0FBECDBFDF9101
:1047E000CF91089565360CF064E66C390CF46CE9F1
:1047F00096EF6902B00111246854744F811105C00D
:104800007093290160932801089570932B016093A0
:104810002A010895EAE0F1E08081886180838FE3D6
:104820009CE9909327018093260160E080E0DADF25
:1048300060E081E0D7DFE0E2F1E08081826A80839E
:10484000E1E2F1E080818A61808308952F923F92B6
:104850004F925F926F927F928F929F92AF92CF9280
:10486000EF92FF920F931F93CF93DF93CDB7DEB7F5
:10487000F82E2A013B0188E090E00E943B2D8C013C
:104880008F2D90E0FC01EE0FFF1FEF54F84E1183C7
:1048900000830115110509F469C0880F991FFC01F7
:1048A000E55FFD4F80819181D8018D939C938C2D84
:1048B00090E0880F991F880F991F0E943B2D1C01C3
:1048C00086E090E00E943B2D7C014C2DB101F0D69A
:1048D000F801F582E4828A2D90E0880F991F880FF5
:1048E000991F0E943B2D1C0186E090E00E943B2D09
:1048F0007C014A2DB101DCD6D8011396FC92EE92D0
:10490000129717969C928E921697FFB6F894ED9197
:10491000FC91119736978081826080838D909C9066
:10492000C301B201B3D720E030E040E051E40E947F
:10493000AB2C9B01AC0160E074E284E79BE43BD7C5
:1049400020E030E040E85FE3CFD63DD9F401329774
:104950006083D801ED91FC911197359788E98083A8
:10496000ED91FC91349786E08083FFBEC801DF9112
:10497000CF911F910F91FF90EF90CF90AF909F90AC
:104980008F907F906F905F904F903F902F90089501
:10499000CF93DF93DC01892B01F11296ED91FC910D
:1049A0001397938182812581981B92238481981784
:1049B000B1F0838126952823C081D181C20FD11DFA
:1049C00068838F5F958189238383ED91FC9135976F
:1049D00080818062808380E003C081E001C082E04A
:1049E000DF91CF910895EF92FF920F931F93CF9392
:1049F000DF937C01009709F441C0DC011296ED9130
:104A0000FC91139793818281981B858198238481DF
:104A1000891B8617A8F1662341F1842F952FDC01AD
:104A20006150462F50E04F5F5F4F480F591FE7011D
:104A3000EA81FB81938182812581981B9223848165
:104A4000981779F08C919381269529236081718143
:104A50008B01020F111DE80188839F5F85819823D8
:104A600093831196A417B50711F7D701ED91FC9127
:104A7000359780818062808380E003C081E001C03F
:104A800082E0DF91CF911F910F91FF90EF900895F9
:104A90000097D1F0DC011496ED91FC91159793816C
:104AA0008281981799F09281858186958923A081CA
:104AB000B181A80FB11D8C91DB018C939F5F858123
:104AC0009823928380E0089581E0089583E008951B
:104AD0001F920F920FB60F9211240BB60F922F93C5
:104AE0003F934F935F936F937F938F939F93AF9376
:104AF000BF93CF93DF93EF93FF93A091B117B09142
:104B0000B217109711F16091C6001496ED91FC91C7
:104B10001597938182812581981B92238481981710
:104B200061F0838126952823C081D181C20FD11DD8
:104B300068838F5F9581892383831696ED91FC911D
:104B40001797309711F0CD011995FF91EF91DF91F3
:104B5000CF91BF91AF919F918F917F916F915F9115
:104B60004F913F912F910F900BBE0F900FBE0F9062
:104B70001F9018951F920F920FB60F9211240BB62B
:104B80000F922F938F939F93AF93BF93EF93FF93C6
:104B9000E091B117F091B2173097B9F00280F3812C
:104BA000E02D938182819817B1F092818581282F21
:104BB00026952923A081B181A20FB11D2C919F5F61
:104BC000892382832093C6000BC0E1ECF0E0808152
:104BD0008F7D808305C0E1ECF0E080818F7D808354
:104BE000FF91EF91BF91AF919F918F912F910F9076
:104BF0000BBE0F900FBE0F901F9018951F920F9233
:104C00000FB60F9211240BB60F922F933F934F9331
:104C10005F936F937F938F939F93AF93BF93CF9344
:104C2000DF93EF93FF93A091B317B091B417109750
:104C300011F16091CE001496ED91FC91159793813E
:104C400082812581981B92238481981761F083814A
:104C500026952823C081D181C20FD11D68838F5F23
:104C60009581892383831696ED91FC911797309750
:104C700011F0CD011995FF91EF91DF91CF91BF9187
:104C8000AF919F918F917F916F915F914F913F91E4
:104C90002F910F900BBE0F900FBE0F901F90189585
:104CA0001F920F920FB60F9211240BB60F922F93F3
:104CB0008F939F93AF93BF93EF93FF93E091B317BD
:104CC000F091B4173097B9F00280F381E02D938111
:104CD00082819817B1F092818581282F269529230A
:104CE000A081B181A20FB11D2C919F5F8923828386
:104CF0002093CE000BC0E9ECF0E080818F7D8083B3
:104D000005C0E9ECF0E080818F7D8083FF91EF9119
:104D1000BF91AF919F918F912F910F900BBE0F90EC
:104D20000FBE0F901F9018951F920F920FB60F9203
:104D300011240BB60F922F933F934F935F936F9372
:104D40007F938F939F93AF93BF93CF93DF93EF9313
:104D5000FF93A091B517B091B617109711F160911C
:104D6000D6001496ED91FC9115979381828125814F
:104D7000981B92238481981761F0838126952823BC
:104D8000C081D181C20FD11D68838F5F9581892336
:104D900083831696ED91FC911797309711F0CD0112
:104DA0001995FF91EF91DF91CF91BF91AF919F91B5
:104DB0008F917F916F915F914F913F912F910F90C4
:104DC0000BBE0F900FBE0F901F9018951F920F9261
:104DD0000FB60F9211240BB60F922F938F939F93C0
:104DE000AF93BF93EF93FF93E091B517F091B61790
:104DF0003097B9F00280F381E02D9381828198177A
:104E0000B1F092818581282F26952923A081B18137
:104E1000A20FB11D2C919F5F892382832093D6001E
:104E20000BC0E1EDF0E080818F7D808305C0E1ED76
:104E3000F0E080818F7D8083FF91EF91BF91AF91F2
:104E40009F918F912F910F900BBE0F900FBE0F90DF
:104E50001F9018951F920F920FB60F9211240BB648
:104E60000F922F933F934F935F936F937F938F9303
:104E70009F93AF93BF93CF93DF93EF93FF93A09153
:104E8000B717B091B817109711F1609136011496C9
:104E9000ED91FC911597938182812581981B922336
:104EA0008481981761F0838126952823C081D18160
:104EB000C20FD11D68838F5F9581892383831696E6
:104EC000ED91FC911797309711F0CD011995FF9155
:104ED000EF91DF91CF91BF91AF919F918F917F9192
:104EE0006F915F914F913F912F910F900BBE0F905B
:104EF0000FBE0F901F9018951F920F920FB60F9232
:104F000011240BB60F922F938F939F93AF93BF9360
:104F1000EF93FF93E091B717F091B8173097B9F07E
:104F20000280F381E02D938182819817B1F0928104
:104F30008581282F26952923A081B181A20FB11D3B
:104F40002C919F5F89238283209336010BC0E1E37C
:104F5000F1E080818F7D808305C0E1E3F1E0808115
:104F60008F7D8083FF91EF91BF91AF919F918F9142
:104F70002F910F900BBE0F900FBE0F901F901895A2
:104F8000CF93DF931F92CDB7DEB7BE016F5F7F4F28
:104F90008091B9179091BA177BDD8111F6CF898185
:104FA00090E00F90DF91CF910895682F8091B9170D
:104FB0009091BA17EDDC80E090E008958F929F9277
:104FC000AF92CF92EF920F93812C912C6894AA24E8
:104FD000A7F86894CC24C7F8E12C00E023E040E077
:104FE00051EE60E070E032DC9093BA178093B9170D
:104FF000E9E0F8E183E192E0918380839383828307
:105000000F91EF90CF90AF909F908F90089590E088
:10501000FC01EE0FFF1FE80FF91FEE0FFF1FE55415
:10502000F84E238121111FC09C01220F331FF9016B
:10503000E80FF91FEE0FFF1FE554F84EA081B18174
:105040004C91F901E80FF91FEE0FFF1FE554F84EE0
:1050500081E090E0028002C0880F991F0A94E2F775
:10506000842B8C930895FC01EE0FFF1FDF01A80F26
:10507000B91FAA0FBB1FA554B84E0D90BC91A02D0F
:105080002C91E80FF91FEE0FFF1FE554F84E81E059
:1050900090E0028002C0880F991F0A94E2F7809581
:1050A00082238C93089590E0FC01EE0FFF1FE80F20
:1050B000F91FEE0FFF1FE554F84E2381211120C088
:1050C0009C01220F331FF901E80FF91FEE0FFF1F9C
:1050D000E554F84EA081B1814C91F901E80FF91F18
:1050E000EE0FFF1FE554F84E81E090E0028002C011
:1050F000880F991F0A94E2F7809584238C93089572
:10510000FC01EE0FFF1FDF01A80FB91FAA0FBB1F85
:10511000A554B84E0D90BC91A02D2C91E80FF91F0D
:10512000EE0FFF1FE554F84E81E090E0028002C0D0
:10513000880F991F0A94E2F7822B8C930895CC2450
:10514000C394D12C6894BB24B2F8CBEBD7E110E028
:105150008C81813081F018F1823061F5E881F9812C
:105160002081C6010A8002C0880F991F0A94E2F7C5
:10517000822780831FC08D818F5F863010F48D83DE
:1051800019C01D82E881F9812081C6010A8002C010
:10519000880F991F0A94E2F7822780830BC00D8144
:1051A000002329F0812F7FDF01500D8303C0BC82D3
:1051B000812F2DDF1F5F2696143051F66CE070E0D2
:1051C00080E090E00E940611C0CFEF92FF920F9313
:1051D0001F93CF93DF93082F80E487B9CBEBD7E100
:1051E0000F2EF8E2EF2EF12CF02DF982E88286E006
:1051F0008A831B8214E01C8380E009DF80E887B982
:10520000FF82EE8287E0888719861A8781E0FFDEB9
:1052100080E283BB84E390E09D878C8785E08E8766
:105220001F86188B82E0F3DE80E18093010182E02B
:1052300091E09B8B8A8B1C8B1D8A1E8B83E0E7DEA3
:10524000E12CF12C20E030E040EC50E065ED77E01F
:105250008FE998E20E94010EDF91CF911F910F918B
:10526000FF90EF900895CF93DF9390E0FC01EE0F55
:10527000FF1FDF01A80FB91FAA0FBB1FA554B84E0F
:10528000CD91DC911197488121E030E012960C908D
:10529000129702C0220F331F0A94E2F724272883B3
:1052A000FD0181E08483DF91CF910895CF93DF9357
:1052B00090E0FC01EE0FFF1FDF01A80FB91FAA0F3E
:1052C000BB1FA554B84ECD91DC911197488121E0C8
:1052D00030E012960C90129702C0220F331F0A94EE
:1052E000E2F724272883FD0182E08483DF91CF91B8
:1052F0000895282F30E0F901EE0FFF1FE20FF31F92
:10530000EE0FFF1FE554F84E93E09483CCCE089542
:10531000282F30E0F901EE0FFF1FE20FF31FEE0F11
:10532000FF1FE554F84E94E0948371CE089590E009
:10533000FC01EE0FFF1FDF01A80FB91FAA0FBB1F53
:10534000A554B84E26E015962C931597FD011482AE
:10535000089590E0FC01EE0FFF1FDF01A80FB91FB9
:10536000AA0FBB1FA554B84E15961C921597FD01A8
:10537000148208958091E11781110CC08CE0809314
:10538000B8008FEF8093BB0084E08093BC0081E085
:105390008093E1170895AF92BF92CF92DF92EF9280
:1053A000FF920F931F93CF93DF93A82EB62E690120
:1053B0007A0184E090E05FD3EC01892B61F1A8824F
:1053C00081E0B81212C0C701B60120EA36E841E018
:1053D00050E027D3DA01C9014097A109B109B69578
:1053E000A79597958795898311C0C701B60120E8D5
:1053F0003AE146E050E015D3DA01C9014097A1092E
:10540000B109B695A7959795879589831B830A83DC
:105410008C2F9D2F02C080E090E0DF91CF911F91F3
:105420000F91FF90EF90DF90CF90BF90AF900895D5
:105430008091BC0081700895FF920F931F93CF93CA
:10544000DF930097D1F14A30D0F5F42E8B01EC01B7
:10545000EFDF811136C08091D4179091D517C8170E
:10546000D90741F087DF89818093B800D093D517A1
:10547000C093D41781E08F0D8093D6178881880F51
:105480008093D717FF2089F0F801A8EDB7E14FEF1F
:105490004F0D642F70E0CB010196B801680F791FA2
:1054A00081918D93E617F707D9F788EF8093210252
:1054B00085EA8093BC0084E005C086E003C087E0F5
:1054C00001C082E0DF91CF911F910F91FF9008956D
:1054D0001F93CF93DF93009729F16B3028F5162F98
:1054E000EC01A6DF811122C08091D4179091D517CD
:1054F000C817D90741F03EDF89818093B800D09367
:10550000D517C093D4171093D6178881880F816060
:105510008093D71788EF8093210285EA8093BC009F
:1055200085E005C086E003C087E001C082E0DF912E
:10553000CF911F9108951F920F920FB60F921124D1
:105540000BB60F922F933F934F935F936F937F937D
:105550008F939F93AF93BF93EF93FF93E091B90025
:105560008E2F90E0FC013897E135F10508F075C009
:105570008827E458FF4F8F4F76C21092D317E091DF
:10558000D3178091D617E81770F481E08E0F8093BF
:10559000D317F0E0E952F84E80818093BB0085E894
:1055A0008093BC0072C084E98093BC008091D417C2
:1055B0009091D517DC011296ED91FC9113973097DD
:1055C00009F463C020E040E050E064E019955DC05C
:1055D000E091D31781E08E0F8093D3178091BB00A9
:1055E000F0E0E952F84E80838091B900803411F4E4
:1055F0001092D3172091D31730E08091D61790E006
:1056000001972817390724F485EC8093BC003DC02E
:1056100085E88093BC0039C08091BB00E091D3172E
:10562000F0E0E952F84E808384E98093BC008091D9
:10563000D4179091D517DC011296ED91FC91139738
:10564000309719F12091D61747ED57E165E019958C
:105650001CC085EA8093BC0018C08091B90080937B
:10566000210284E08093BC008091D4179091D517DB
:10567000DC011296ED91FC911397309731F020E008
:1056800040E050E0609121021995FF91EF91BF91A8
:10569000AF919F918F917F916F915F914F913F91CA
:1056A0002F910F900BBE0F900FBE0F901F9018956B
:1056B000FC01411101C000D3842F90E09C012150D6
:1056C000310982239323892B09F0F6D2413808F05F
:1056D000F3D2128213824483440F41504583718375
:1056E000608380E090E008955058BB27AA270ED031
:1056F00021C112D130F017D120F031F49F3F11F4C5
:105700001EF407C10EF4E095E7FBFDC0E92F0E94EF
:105710000F1E78F3BA17620773078407950720F006
:1057200079F4A6F50C94311E0EF4E0950B2EBA2FE9
:10573000A02D0B01B90190010C01CA01A001112497
:10574000FF27591B99F0593F50F4503E68F11A1643
:10575000F040A22F232F342F4427585FF3CF4695D4
:1057600037952795A795F0405395C9F77EF41F16F6
:10577000BA0B620B730B840BBAF09150A1F0FF0FC0
:10578000BB1F661F771F881FC2F70EC0BA0F621FAC
:10579000731F841F48F4879577956795B795F7959C
:1057A0009E3F08F0B1CF9395880F08F09927EE0F30
:1057B0009795879508950DD0BDC0B5D048F0ACD071
:1057C00038F021F45F3F21F09EC051110C94321E3D
:1057D000A0C00E940F1E88F39923B9F35523A1F3AB
:1057E000951B550BBB27AA2762177307840738F050
:1057F0009F5F5F4F220F331F441FAA1FA9F334D0AE
:105800000E2E3AF0E0E831D091505040E695001C61
:10581000CAF72AD0FE2F28D0660F771F881FBB1F1C
:10582000261737074807AB07B0E809F0BB0B802DF8
:10583000BF01FF2793585F4F32F09E3F510570F034
:1058400062C00C94321E5F3FE4F3983ED4F3869519
:1058500077956795B795F7959F5FC9F7880F911D65
:105860009695879597F90895E1E0660F771F881F51
:10587000BB1F621773078407BA0720F0621B730B04
:10588000840BBA0BEE1F88F7E0950895E89409C0E1
:1058900097FB3EF490958095709561957F4F8F4F63
:1058A0009F4F9923A9F0F92F96E9BB279395F69579
:1058B000879577956795B795F111F8CFFAF4BB0FF7
:1058C00011F460FF1BC06F5F7F4F8F4F9F4F16C05B
:1058D000882311F096E911C0772321F09EE8872FE5
:1058E000762F05C0662371F096E8862F70E060E0A1
:1058F0002AF09A95660F771F881FDAF7880F96951A
:10590000879597F9089597F99F6780E870E060E0C0
:1059100008959FEF80EC089500240A941616170648
:1059200018060906089500240A9412161306140690
:1059300005060895092E0394000C11F4882352F0F3
:10594000BB0F40F4BF2B11F460FF04C06F5F7F4FAB
:105950008F4F9F4F08950CD0EDCFDEDF28F0E3DFAF
:1059600018F0952309F0CFCFD4CF11240C94321E18
:105970000E940F1E90F3959FC1F3950F50E0551FA5
:10598000629FF001729FBB27F00DB11D639FAA2794
:10599000F00DB11DAA1F649F6627B00DA11D661FE3
:1059A000829F2227B00DA11D621F739FB00DA11D04
:1059B000621F839FA00D611D221F749F3327A00DBE
:1059C000611D231F849F600D211D822F762F6A2F5A
:1059D00011249F57504092F0E9F088234AF0EE0FCF
:1059E000FF1FBB1F661F771F881F91505040A9F7EC
:1059F0009E3F510578F087CF0C94321E5F3FE4F351
:105A0000983ED4F3869577956795B795F795E79582
:105A10009F5FC1F7FE2B880F911D9695879597F98B
:105A20000895A1E21A2EAA1BBB1BFD010DC0AA1FDF
:105A3000BB1FEE1FFF1FA217B307E407F50720F0F7
:105A4000A21BB30BE40BF50B661F771F881F991F72
:105A50001A9469F760957095809590959B01AC01BB
:105A6000BD01CF010895EE0FFF1F881F8BBF079068
:105A7000F691E02D19940F931F93CF93DF9382300B
:105A8000910510F482E090E0E0910718F091081879
:105A900020E030E0A0E0B0E0309719F14081518182
:105AA0000281138148175907C8F08417950769F4D4
:105AB000109731F012960C93129713961C9327C0EF
:105AC000009307181093081822C02115310519F00A
:105AD0004217530718F49A01BD01EF01DF01F801E5
