S0120000342E53656D65737465722E7372656368
S1130000E5C0000004C1000002C1000000C10000FE
S1130010FEC00000FCC00000FAC00000F8C00000F0
S1130020F6C00000F4C00000F2C00000F0C0000000
S113003086C70000ECC00000EAC00000E8C0000071
S1130040E6C00000E4C00000E2C00000E0C0000020
S1130050DEC00000DCC00000DAC00000D8C0000030
S1130060D6C000000C94F0270C944228D0C00000A5
S1130070CEC00000CCC00000CAC00000C8C0000050
S1130080C6C00000C4C00000C2C00000C0C0000060
S11300900C9486280C94D828BAC000000C94232D04
S11300A0B6C00000B4C00000B2C00000B0C0000080
S11300B0AEC00000ACC00000AAC00000A8C0000090
S11300C0A6C00000A4C00000A2C000000C941C291B
S11300D00C946E299CC000000C94B2290C94042A40
S11300E096C000005B1D5B1D5B1D921D9A1DAF1D1C
S11300F05B1D5B1D921D9A1D452DB52DB52DB52D8E
S1130100B52DB52DB52DB52D452DB52DB52DB52D4B
S1130110B52DB52DB52DB52D472DB52DB52DB52D39
S1130120B52DB52DB52DB52DB52DB52DB52DB52DBB
S1130130B52DB52DB52DB52D472DB52DB52DB52D19
S1130140B52DB52DB52DB52DB52DB52DB52DB52D9B
S1130150B52DB52DB52DB52DB12DB52DB52DB52D8F
S1130160B52DB52DB52DB52D7C2DB52DB52DB52DB4
S1130170B52DB52DB52DB52DB52DB52DB52DB52D6B
S1130180B52DB52DB52DB52D702DB52DB52DB52DA0
S1130190B52DB52DB52DB52D942D0E949C0F8091B4
S11301A03916823008F005D60E94D81DF6CFCF93B9
S11301B0DF931F92CDB7DEB7CE0101960E94D81A05
S11301C049810E94CD1C0E94241DF6CF11241FBE1C
S11301D0CFEFD1E2DEBFCDBF00E00CBF18E0A0E05E
S11301E0B2E0EEECF8E600E00BBF02C007900D921F
S11301F0A631B107D9F728E1A6E1B8E001C01D9204
S1130200A737B207E1F70E9461200C946534F8CE59
S1130210EF92FF920F93E12CF12C082F20E030E0B5
S113022040EC50E06FE672E088EC91E00E946310CD
S11302300F91FF90EF9008958F929F92AF92BF928B
S1130240CF92DF92EF92FF920F931F93CF93DF939E
S1130250CDB7DEB76A970FB6F894DEBF0FBECDBF39
S113026069837A838B839C8349015A0143E050E07C
S113027060E070E08091301890913118E5D2CC2480
S1130280CA94DC2C760101E021E043E050E060E018
S113029070E080914E1890914F1836D260933418C4
S11302A0709335188093361890933718DC01CB017E
S11302B083709927AA27BB270397A105B10509F0E5
S11302C054C00E94671E0E94341E0E94671E9F93A2
S11302D08F938BE792E09F938F930E9447310E9404
S11302E0721E0E943B1E0E94721E9F938F9385E98B
S11302F092E09F938F930E94473178D00E942D1EE5
S113030075D09F938F938DEA92E09F938F930E9471
S1130310473162E0CE0105960E94421E86E1FE014D
S11303203596A8E3B8E101900D928A95E1F763E070
S113033070E080E090E00E9468130FEF1FEF9801D7
S113034046E150E068E378E180912E1890912F18EF
S11303500E94BF0CB501A401CE0101960E940313B3
S11303600FB6F894DEBF0FBECDBF6A960FB6F894F1
S1130370DEBF0FBECDBFDF91CF911F910F91FF90D4
S1130380EF90DF90CF90BF90AF909F908F900895A3
S11303900E94ED106B017C0128EA38E440E050E053
S11303A0C701B60149DFF8CF9093521880935118D2
S11303B041E050E060E070E080914E1890914F1859
S11303C043C20895EF92FF920F93E12CF12C082F72
S11303D020E030E040EC50E06FEB72E083E392E029
S11303E00E9463100F91FF90EF900895809151182F
S11303F0909152180895CF92DF92EF92FF920F934B
S1130400CC24CA94DC2C760101E021E042E050E0E7
S113041060E070E0809130189091311875D161FFDF
S11304201CC066E070E080E090E00E9468130E94C7
S11304304B2680935018882341F088EC92E09F93D8
S11304408F930E9447310F900F9087ED92E09F9316
S11304508F930E9447310F900F900F91FF90EF9070
S1130460DF90CF90089584ED91E00E944626C3DF8B
S1130470FECF0F93CF93DF93EC014FEF5FEFBA0101
S113048080915D1890915E180E944D0A813031F47C
S1130490E0915B18F0915C18D183C08300E020E008
S11304A030E0A90160E070E080915D1890915E18E1
S11304B098D6DF91CF910F9108950F93CF93DF9347
S11304C0EC014FEF5FEFBA0180915D1890915E18D7
S11304D0E4D7E0915B18F0915C18D383C28300E009
S11304E020E030E0A90160E070E080915D18909117
S11304F05E1877D6DF91CF910F9108950F93CF9324
S1130500DF93EC014FEF5FEFBA0180915D1890919A
S11305105E18C3D7E0915B18F0915C18D583C4834F
S113052000E020E030E0A90160E070E080915D1817
S113053090915E1856D6DF91CF910F9108950F9345
S1130540CF93DF93EC014FEF5FEFBA0180915D1819
S113055090915E18A2D7E0915B18F0915C18D78354
S1130560C68300E020E030E0A90160E070E0809103
S11305705D1890915E1835D6DF91CF910F91089553
S1130580EF92FF920F932091321830913318E12C9F
S1130590F12C082F48E851E068EE72E08EE493E015
S11305A00E9463100F91FF90EF9008950F931F9393
S11305B0CF93DF930FEF1FEF980146E150E066E120
S11305C078E080913218909133180E94C80D892BDD
S11305D009F45FC0C6E1D8E0998188811F929F9396
S11305E01F928F9388EF92E09F938F930E944731DD
S11305F089810F900F900F900F900F900F9088307B
S113060009F03DC08A8190E0982F88272B81820FC2
S1130610911D90936618809365188C8190E0982FB3
S113062088272D81820F911D909362188093611801
S11306302E8130E0322F22274F81240F311D309339
S1130640641820936318288530E0322F22274985C7
S1130650240F311D3093601820935F180ADF8091B6
S11306606518909166184ADF80915F189091601820
S113067024DF809163189091641861DF06C064E5FB
S113068074E280E090E00E9468138AE293E00E94A2
S11306905A31DF91CF911F910F91089587DFFECFDB
S11306A00F9301110CC0DC01CB0182239323A423FB
S11306B0B523892B8A2B8B2B79F480E010C0DC01C5
S11306C0CB0182239323A423B523281739074A0790
S11306D05B0721F080E003C081E001C081E00F915D
S11306E00895CF93DF938FE090E0AFD1EC010097B2
S11306F039F0FC011192119211921192CF018BD217
S1130700CE01DF91CF9108952F923F924F925F9245
S11307106F927F928F929F92AF92BF92CF92DF920D
S1130720EF92FF920F931F93CF93DF93EC014A0153
S11307305B01622E702E0E94E710288039804A8067
S11307405B80A5019401C201B101AADF8823A1F055
S1130750662089F1D501C40180959095A095B09546
S113076082219321A421B52188839983AA83BB8301
S1130770C12CD12C760122C0C114D104E104F104AE
S1130780E9F0611004C040E050E0BA0104C040E068
S113079050E060E071E071107460482959296A29B9
S11307A07B2997018601CE0104960E94FF13212C18
S11307B0312C210103C0C12CD12C76010E942712B7
S11307C0CD28CE28CF2859F1811101C0F2D20E9440
S11307D0C1176B017C0191FD1FC00FB6F8940F92F5
S11307E0C880D980EA80FB80072DA5019401C70148
S11307F0B60156DF882371F0662061F080949094EE
S1130800A094B0948C209D20AE20BF208882998231
S1130810AA82BB820F900FBE160127015524C20184
S1130820B101DF91CF911F910F91FF90EF90DF9075
S1130830CF90BF90AF909F908F907F906F905F907C
S11308404F903F902F9008954F925F926F927F92B6
S1130850AF92BF92CF92DF92EF92FF920F931F93CA
S1130860CF93DF93EC016A017B018C01095F1F4F79
S11308700E94E710EB85FC8588819981AA81BB8160
S1130880C82AD92AEA2AFB2AC882D982EA82FB82A8
S1130890C12CD12C76013DC0A480B580808191818A
S11308A0A281B381AC01BD017727B2FD0EC048809F
S11308B059806A807B80442255226622772245280B
S11308C04628472889F420E012C0488059806A806D
S11308D07B804422552266227722441555056605FD
S11308E0770521F020E003C021E001C021E02223AC
S11308F071F0B0FF04C0C42AD52AE62AF72A488139
S113090059816A817B817260CF010E943A15EA2D78
S1130910FB2DE017F10709F0BFCFC094D094E09409
S1130920F09488819981AA81BB81C822D922EA22C4
S1130930FB22C882D982EA82FB820E942712688144
S113094079818A819B81DF91CF911F910F91FF90D3
S1130950EF90DF90CF90BF90AF907F906F905F90BB
S11309604F900895E8E3F8E0ACE3B8E0B183A083E6
S113097013821282E4EEF5E1F0933708E09336082F
S1130980138212821182108288EA9DE013969C934E
S11309908E931297ED93FC939093330880933208CF
S11309A0909335088093340880E090E890932D0864
S11309B080932C080895CF93DF93EC01A8E3B8E06B
S11309C001C0DF01ED91FC911197EC17FD07C8F30D
S11309D012968D919C9113979D01280F391FC21770
S11309E0D30749F42A813B81820F931F13969C936A
S11309F08E931297ED018A819B819E01280F391FE6
S1130A00E217F307C1F42091360830913708E21752
S1130A10F30771F022813381820F931F9B838A83B2
S1130A20ED91FC911197808191819983888305C010
S1130A303983288302C0F983E883CA17DB0711F0DE
S1130A40CD93DC93DF91CF910895EF92FF920F93B2
S1130A501F93CF93DF938C010E94E7108091360897
S1130A6090913708892B09F47DDF80912C089091AF
S1130A702D0880239123892B09F076C001151105D7
S1130A8049F0C80104960817190718F000E010E0AF
S1130A9001C08C010115110509F469C08091340865
S1130AA0909135088017910708F464C0C091380804
S1130AB0D0913908E8E3F8E002C0FE01EC018A8134
S1130AC09B818017910720F4888199810097A9F769
S1130AD08091360890913708C817D90709F44DC09A
S1130AE0E080F18084E0E80EF11C88819981918393
S1130AF080832A813B81201B310B2930310548F04A
S1130B00CE01800F911FFC01338322831B830A8350
S1130B1052DF2A813B818091340890913508821BF1
S1130B20930B909335088093340840913208509188
S1130B3033088417950720F4909333088093320880
S1130B4080912C0890912D08282B392B3B832A83E4
S1130B5019821882809130089091310801969093FF
S1130B603108809330080BC0E12CF12C08C0E12C33
S1130B70F12C05C0E12CF12C02C0E12CF12C0E94D7
S1130B802712E114F10411F40E94E41DC701DF915E
S1130B90CF911F910F91FF90EF9008950F931F93A2
S1130BA0CF93DF93009791F1EC0124974A815B8105
S1130BB020912C0830912D08BA0162237323672BEE
S1130BC029F168817981672B09F5209530952423D3
S1130BD035233B832A830E94E7108A819B812091DD
S1130BE0340830913508820F931F90933508809311
S1130BF03408CE01E0DE80912E0890912F080196F2
S1130C0090932F0880932E080E942712DF91CF9192
S1130C101F910F910895FC010396928381834FEFF6
S1130C205FEFBA0143835483658376839087878318
S1130C309287818710820895FC0113861286089595
S1130C400F931F93CF93DF93EB01088119812A81BE
S1130C503B810F3F4FEF14072407340721F4FC01B5
S1130C60A185B28511C0DC01139601C0DF01149681
S1130C70ED91FC9115974081518162817381041734
S1130C8015072607370790F71496ED91FC911597F1
S1130C90FD83EC83D783C683BF83AE831596DC9331
S1130CA0CE9314979B878A87FC0120812F5F208332
S1130CB0DF91CF911F910F910895CF93DF93FC01A2
S1130CC0A285B385C481D581868197819F838E83D4
S1130CD0C681D781848195819D838C8311968D9162
S1130CE09C911297E817F90731F48681978112963F
S1130CF09C938E931197138612868C9181508C93BA
S1130D008C91DF91CF910895A89590EC88E10FB66E
S1130D10F894A895809360000FBE909360000895A6
S1130D20FC01608331977083319710823197108270
S1130D30319720E8208331971082319710823197C0
S1130D401082779740833197508386970895DCDF2C
S1130D50A091A716B091A816CD91CDBFDD91DEBFAD
S1130D60FF91EF91DF91CF91BF91AF919F918F91BF
S1130D707F916F915F914F913F912F911F910F91AF
S1130D80FF90EF90DF90CF90BF90AF909F908F90A7
S1130D907F906F905F904F903F902F901F900F9097
S1130DA00CBE0F900BBE0F900FBE0F90089581E004
S1130DB008950F920FB6F8940F920BB60F920CB6DB
S1130DC00F921F9211242F923F924F925F926F9233
S1130DD07F928F929F92AF92BF92CF92DF92EF92C7
S1130DE0FF920F931F932F933F934F935F936F93B0
S1130DF07F938F939F93AF93BF93CF93DF93EF939F
S1130E00FF93A091A716B091A8160DB60D920EB639
S1130E100D920E948313A091A716B091A816CD91AC
S1130E20CDBFDD91DEBFFF91EF91DF91CF91BF91F7
S1130E30AF919F918F917F916F915F914F913F916E
S1130E402F911F910F91FF90EF90DF90CF90BF9063
S1130E50AF909F908F907F906F905F904F903F9056
S1130E602F901F900F900CBE0F900BBE0F900FBED3
S1130E700F9008950F920FB6F8940F920BB60F923D
S1130E800CB60F921F9211242F923F924F925F92B1
S1130E906F927F928F929F92AF92BF92CF92DF9286
S1130EA0EF92FF920F931F932F933F934F935F9370
S1130EB06F937F938F939F93AF93BF93CF93DF935E
S1130EC0EF93FF93A091A716B091A8160DB60D92BB
S1130ED00EB60D9213BE0E94FB1081110E94831363
S1130EE0A091A716B091A816CD91CDBFDD91DEBF1C
S1130EF0FF91EF91DF91CF91BF91AF919F918F912E
S1130F007F916F915F914F913F912F911F910F911D
S1130F10FF90EF90DF90CF90BF90AF909F908F9015
S1130F207F906F905F904F903F902F901F900F9005
S1130F300CBE0F900BBE0F900FBE0F9008959ADF5A
S1130F401895DC0153962C915397222341F05A961D
S1130F50ED91FC915B9790818AE0891B089580E074
S1130F6008950FB6F8940F92FC01868D811102C08A
S1130F7081E001C080E00F900FBE08950FB6F89491
S1130F800F92FC01268D878D281302C081E001C0D9
S1130F9080E00F900FBE08950F931F93CF93DF93BC
S1130FA0EC01042F1E8D48A141110CC08881998148
S1130FB0892B09F042C08C819D810E94FF161D82FD
S1130FC01C8242C0011117C050E08A819B810E949B
S1130FD0E83028A18A819B81820F911D9B838A839B
S1130FE02C813D818217930750F1888199819B83DD
S1130FF08A8380E029C050E08E819F810E94E8307E
S113100088A190E09195819591092E813F81280FC7
S1131010391F3F832E83488159812417350730F4C3
S11310202C813D81820F931F9F838E83023049F46C
S1131030112349F0115080E007C080E005C080E032
S113104003C080E001C080E01F5F1E8FDF91CF915D
S11310501F910F910895FC0140A14423A9F050E091
S113106026813781240F351F378326838481958118
S11310702817390720F08081918197838683CB01DB
S1131080668177810C94E83008951F93CF93DF93A2
S1131090EC010FB6F8940F921AA10BC08B89882328
S11310A051F0CE0143960E948B1481110E94611667
S11310B0115011169CF38FEF8AA30F900FBE0FB639
S11310C0F8940F9219A10BC08885882351F0CE01A2
S11310D008960E948B1481110E94611611501116FA
S11310E09CF38FEF89A30F900FBEDF91CF911F91D7
S11310F00895CF93DF93EC010FB6F8940F92E88133
S1131100F9818F8D28A190E030E0829FA001839F18
S1131110500D929F500D11244E0F5F1F5D834C8321
S11311201E8EFB83EA830197289FA001299F500DFF
S1131130389F500D1124CF01840F951F9F838E83F8
S11311408FEF89A38AA361110BC08885882371F06E
S1131150CE0108960E948B14882341F02ADE06C033
S1131160CE01089658DDCE01439655DD0F900FBE93
S113117081E0DF91CF9108950F931F93F8016111DE
S113118003C01183008302C051834083878F60A30F
S113119061E0CF01AEDF1F910F910895DF92EF92CE
S11311A0FF920F931F93CF93DF93F82EE62ED42E46
S11311B0869FC0011124839648DCEC01009741F01E
S11311C08C012D2DAC014D5D5F4F6E2D8F2DD4DF25
S11311D0CE01DF91CF911F910F91FF90EF90DF909F
S11311E00895CF92DF92EF92FF920F931F93CF93C4
S11311F0DF93CDB7DEB729970FB6F894DEBF0FBEE5
S1131200CDBF7C016B012E833F834887598710E053
S11312100FB6F8940F92F701968D878D981710F0FA
S11312200230B1F4402FB601C701B6DEF70193894D
S1131230992341F0C70143960E948B14882321F01F
S1131240B8DD02C08111B5DD0F900FBE81E04CC046
S11312508E819F81A885B985892B8A2B8B2B21F4BC
S11312600F900FBE80E040C0111105C0CE01019661
S11312700E94EA1511E00F900FBEA9D70FB6F8949B
S11312800F92F70181A18F3F09F411A2F70182A106
S11312908F3F09F412A20F900FBEBE016A5F7F4F09
S11312A0CE0101960E94FB15811119C0C70166DEAB
S11312B0882381F04E815F8168857985C70108960E
S11312C00E94E813C701E1DE0E9427128111A0CF1A
S11312D070DD9ECFC701D9DE0E94271299CFC701C6
S11312E0D4DE0E94271280E029960FB6F894DEBF60
S11312F00FBECDBFDF91CF911F910F91FF90EF9063
S1131300DF90CF900895EF92FF920F931F93CF93A6
S1131310DF938A01FC01568D378D531710F022306C
S1131320F9F4422F7801EC011AA18E8DCE0134DE3E
S11313301F3F81F48B898823A9F0CE0143960E9434
S11313408B14882389F0E114F10481F081E0F70122
S113135080830DC0FF24F394F10EFAA281E007C04C
S113136080E005C081E003C081E001C081E0DF913D
S1131370CF911F910F91FF90EF900895CF92DF923C
S1131380EF92FF920F931F93CF93DF93CDB7DEB706
S113139029970FB6F894DEBF0FBECDBF8C016B0149
S11313A02E833F8348875987E12C0FB6F8940F9218
S11313B0F801F68CFF2099F0B601C8014CDEFA94CE
S11313C0F801F68E8085882331F0C80108960E94C2
S11313D08B148111EEDC0F900FBE81E04FC08E8123
S11313E09F81A885B985892B8A2B8B2B21F40F909B
S11313F00FBE80E043C0E11006C0CE0101960E94FA
S1131400EA15EE24E3940F900FBEE1D60FB6F894DC
S11314100F92F80181A18F3F09F411A2F80182A172
S11314208F3F09F412A20F900FBEBE016A5F7F4F77
S1131430CE0101960E94FB15811117C0C80191DDF0
S1131440882379F04E815F8168857985C801439648
S11314500E94E813C80119DEFAD78111A6CFA9DCCE
S1131460A4CFC80112DEF3D7A0CFC8010EDEEFD798
S1131470C80177DD882309F498CF80E029960FB658
S1131480F894DEBF0FBECDBFDF91CF911F910F91B6
S1131490FF90EF90DF90CF900895EF92FF920F931B
S11314A01F93CF93DF93CDB7DEB729970FB6F89488
S11314B0DEBF0FBECDBF8C014E835F836887798703
S11314C0E12CF12C0FB6F8940F92F801868D882345
S11314D0C9F08150868F80819181892B29F40E94E3
S11314E0EB17F80195838483F8018085882331F014
S11314F0C80108960E948B1481115BDC0F900FBE0B
S113150081E06FC08E819F81A885B985892B8A2B44
S11315108B2B21F40F900FBE80E063C0F11006C046
S1131520CE0101960E94EA15FF24F3940F900FBE9A
S11315304ED60FB6F8940F92F80181A18F3F09F4AB
S113154011A2F80182A18F3F09F412A20F900FBEDD
S1131550BE016A5F7F4FCE0101960E94FB15811187
S113156026C0C801FEDC8823F1F0F8018081918156
S1131570892B51F40FB6F8940F92848195810E94BF
S11315807816E82E0F900FBE4E815F8168857985AD
S1131590C80143960E94E813C80177DD58D781112A
S11315A091CF07DC8FCFC80170DD51D78BCFC80135
S11315B06CDD4DD7C801D5DC882309F483CFEE2038
S11315C079F00FB6F8940F92C801BBDC682FF801CC
S11315D0848195810E945A170F900FBE80E001C04C
S11315E080E029960FB6F894DEBF0FBECDBFDF9121
S11315F0CF911F910F91FF90EF900895CF93DF93B8
S1131600EC010FB6F8940F9289A18F3F09F419A247
S11316108AA18F3F09F41AA20F900FBE8E8D8111FB
S113162004C0CE0143960E944914CE012EDDDF9101
S1131630CF910895FC014481558122813381240F87
S1131640351F80819181B901681B790BCB01641727
S1131650750710F0841B950B08950F93FC018FE020
S1131660DF011D928A95E9F7758764875583448362
S11316703783268306870F910895AF92BF92CF9246
S1131680DF92EF92FF920F931F93CF93DF936C013E
S11316905B017A01FC01C281D381048115810C1B99
S11316A01D0B4017510708F48A01F60184859585BE
S11316B0A801B5018C0F9D1F0E94E8300E151F056F
S11316C058F4A701401B510BB501600F711FF601BF
S11316D0848595850E94E830CE018E0D9F1DF6010C
S11316E0248135818217930710F0821B930BF60136
S11316F093838283C701DF91CF911F910F91FF9054
S1131700EF90DF90CF90BF90AF900895CF92DF928B
S1131710EF92FF920F931F93CF93DF931F921F9229
S1131720CDB7DEB77C016B015A834983211531059E
S1131730C1F0FC01868580FD08C04217530708F4F8
S11317409A013A83298381E00FC02017310758F0AA
S113175042E050E0BE016F5F7F4FC7018EDF81E042
S113176003C080E001C080E0882331F049815A81C0
S1131770B601C70182DF02C080E090E00F900F90B5
S1131780DF91CF911F910F91FF90EF90DF90CF9059
S11317900895AF92BF92CF92DF92EF92FF920F9390
S11317A01F93CF93DF937C015B01E9014217530739
S11317B008F4EA01209781F1F70100811181848105
S11317C09581801B910B6E018C179D0708F46C01A9
S11317D0F70164857585600F711FA601C5010E941C
S11317E0E830CC16DD0658F4AE014C195D09F7015A
S11317F064857585C5018C0D9D1D0E94E8300C0F14
S11318001D1FF701848195810817190710F0081B23
S1131810190BF70111830083CE01DF91CF911F9142
S11318200F91FF90EF90DF90CF90BF90AF9008950D
S11318306F927F928F929F92AF92BF92CF92DF92DC
S1131840EF92FF920F931F93CF93DF931F921F92F8
S1131850CDB7DEB76C014B015A01790101151105B1
S1131860B1F0FC0160807180A801BE016F5F7F4F01
S113187090DF89819A81E01AF10AA816B90630F43A
S1131880F60171826082A12CB12C01C05C01970128
S1131890A501B401C6017DDF0F900F90DF91CF91B8
S11318A01F910F91FF90EF90DF90CF90BF90AF907A
S11318B09F908F907F906F900895CF92DF92EF92D8
S11318C0FF920F93CF93DF93EC016B01413011F43E
S11318D001E001C000E0C114D10419F4CC24C39484
S11318E0D12CCE014096C817D90720F42196ADD843
S11318F07C0102C0E12CF12CE114F10439F09601D1
S1131900AE01B701615F7F4FC701A7DEC701DF9159
S1131910CF910F91FF90EF90DF90CF9008950F93A8
S11319200FB6F8940F92FC0120853185232B71F4B6
S113193022853385232B61F42681378144815581A7
S113194064857585068589DE81E003C080E001C079
S113195080E00F900FBE0F910895FC012481358122
S113196080819181820F931F42815381841B950B47
S113197001978217930710F0821B930B08952F92FF
S11319803F924F925F926F927F928F929F92AF920B
S1131990BF92CF92DF92EF92FF920F931F93CF9358
S11319A0DF93CDB7DEB72B970FB6F894DEBF0FBE2B
S11319B0CDBF4C017B876A871A010E831F8328875A
S11319C03987FC01848195810197268520FF0CC00D
S11319D02A01F2E04F0E511C8415950558F41E821D
S11319E01F821886198606C08417950710F02A01ED
S11319F001C02C018E819F81A885B985892B8A2BF2
S1131A008B2B09F438C0CE0101960E94D4150FB671
S1131A10F8940F92C401A1DF3C018415950540F5AB
S1131A2060E080E090E00E94BE1A0E946516F40116
S1131A30938782870F900FBEAE80BF80C884D984FD
S1131A40E12CF12C00E010E0980140E050E0BA01F4
S1131A5080E00E94FD17F40113861286BE016A5FBE
S1131A607F4FCE0101960E94FB15882381F205C0A9
S1131A700F900FBE02C0612C712C6114710419F413
S1131A80C4016BDF3C0182019301A1016A857B855E
S1131A90C4013CDE6C01892BE9F0C401CBDDF40107
S1131AA02681378182179307A8F091D3F4018085AA
S1131AB09185892B71F080859185E12CF12C00E0D2
S1131AC020E030E0A90160E00E94A518F40111862D
S1131AD01086BDD4C6012B960FB6F894DEBF0FBE98
S1131AE0CDBFDF91CF911F910F91FF90EF90DF90C9
S1131AF0CF90BF90AF909F908F907F906F905F90AA
S1131B004F903F902F900895AF92BF92CF92DF9263
S1131B10EF92FF920F931F93CF93DF93EC017B011E
S1131B205A0169018E8580FF04C08A010E5F1F4F30
S1131B3001C08A01CE0111DF9C01A501B701CE01CC
S1131B40E5DD5C01892BC1F0CE0174DD2E813F817E
S1131B508217930788F088859985892B69F0888591
S1131B609985E12CF12C00E020E030E0A90160E04F
S1131B700E949C1919861886C501DF91CF911F9187
S1131B800F91FF90EF90DF90CF90BF90AF900895AA
S1131B904F925F926F927F928F929F92AF92BF9279
S1131BA0CF92DF92EF92FF920F931F93CF93DF9325
S1131BB0EC012B013A01580169018E8580FF05C0B3
S1131BC06894882481F8912C02C0812C912CA11452
S1131BD0B104C104D10441F10FB6F8940F92CE01BF
S1131BE029DD7C018816990648F060E080E090E0E9
S1131BF00E94BE1A0E946516998788870F900FBEAF
S1131C008E149F04A0F0E12CF12C00E010E0980168
S1131C1040E050E0BA0180E00E94FD171986188662
S1131C20CE0108DD7C0103C0CE0104DD7C018E14ED
S1131C309F04E8F484019701A301B201CE01F8DD09
S1131C406C01892BB1F0C3D28A859B85892B69F0FD
S1131C508A859B85E12CF12C00E020E030E0A9018D
S1131C6060E00E94A5181B861A86F1D302C0C12C1D
S1131C70D12CC601DF91CF911F910F91FF90EF906E
S1131C80DF90CF90BF90AF909F908F907F906F9098
S1131C905F904F900895E0912116F0912216808173
S1131CA081110CC08FEF9FEFDC018093EB159093B3
S1131CB0EC15A093ED15B093EE150895E09121165F
S1131CC0F09122160780F085E02D80819181A28118
S1131CD0B3818093EB159093EC15A093ED15B0931D
S1131CE0EE150895CF93DF93EC018B8D9C8D0E94AC
S1131CF0CE05CE010E94CE05DF91CF9108954F927B
S1131D005F926F927F928F929F92AF92BF92CF9287
S1131D10DF92EF92FF920F93CF93DF932C015B013D
S1131D204A013901E60165EA70E08B8D9C8D0E94C1
S1131D30F1308B8D9C8D21E0821A9108880E991EBA
S1131D40A114B10489F415C0822F90E0F501E80FC5
S1131D50F91F3081DE01A80FB91F5D963C93808185
S1131D60882329F02F5F01C020E0203168F31CA6EE
S1131D7001C01D8E0A3008F009E00A8F0DA71EA6C7
S1131D80CE0102960E941C06CE010E960E941C06ED
S1131D90DB87CA878AE090E0A0E0B0E0801B91096D
S1131DA0A109B1098E879F87A88BB98BDF8BCE8B56
S1131DB084E0FE01BF96DF011D928A95E9F71BAA14
S1131DC0A301B201C4010E94900699838883E1149F
S1131DD0F10419F0F701D183C083DF91CF910F9102
S1131DE0FF90EF90DF90CF90BF90AF909F908F9037
S1131DF07F906F905F904F900895CF93C0E009C09B
S1131E002BE0C29FC0011124875C994E0E940B06EF
S1131E10CF5FCA30A8F38EE296E10E940B0683E2FC
S1131E2096E10E940B0684E196E10E940B0689E08C
S1131E3096E10E940B068DEF95E10E940B068EE25F
S1131E4096E1909322168093211683E296E1909373
S1131E50201680931F16CF910895CF93DF93EC0142
S1131E600FB6F8940F928091FC158F5F8093FC1548
S1131E708091A7169091A816892B51F4D093A81697
S1131E80C093A7168091FC15813091F4B6DF10C081
S1131E908091F61581110CC0E091A716F091A81657
S1131EA0928D8A8D891720F0D093A816C093A71617
S1131EB08091EF158F5F8093EF15EA8D8091F71570
S1131EC08E1710F4E093F7158BE08E9FF001112428
S1131ED0E75CF94E0180F281E02DFF83EE832681D9
S1131EE0378139872887A681B7819E012E5F3F4FAE
S1131EF015963C932E93149737832683EA8D8E9FF1
S1131F00F0011124E75CF94EFD87EC8780818F5F37
S1131F1080830F900FBE8091F615882351F0E091D5
S1131F20A716F091A816928D8A8D981710F40E9426
S1131F30D906DF91CF910895CF93DF931BC00FB6DD
S1131F40F8940F92E0911016F0911116C085D18586
S1131F50CE0102960E945D068091FC15815080930B
S1131F60FC15809108168150809308160F900FBEBF
S1131F70CE01B8DE809108168111E1CFDF91CF91B7
S1131F8008958F929F92AF92BF92CF92DF92EF9279
S1131F90FF92CF93DF936B017C01C42F8090F815DF
S1131FA09090F915A090FA15B090FB158091A716A2
S1131FB09091A81602960E945D068FEFC816D80667
S1131FC0E806F806B1F5CC23A1F1EDEFF5E1A18126
S1131FD0B281C091A716D091A816BF83AE83C091D9
S1131FE0A716D091A81616968D919C91179799874C
S1131FF088871696CD91DC9117978091A7169091BA
S1132000A81602969D838C838091A7169091A8169A
S1132010029617969C938E931697A091A716B0914B
S1132020A8161D96FC93EE931C9780818F5F808386
S11320303FC0C80CD91CEA1CFB1CE091A716F09108
S1132040A816C282D382E482F582C814D904EA04B1
S1132050FB0468F46091A7167091A81680911F166E
S1132060909120166E5F7F4F0E94200621C06091E0
S1132070A7167091A81680912116909122166E5F72
S11320807F4F0E9420068091EB159091EC15A09152
S1132090ED15B091EE15C816D906EA06FB0640F414
S11320A0C092EB15D092EC15E092ED15F092EE157E
S11320B0DF91CF91FF90EF90DF90CF90BF90AF90E2
S11320C09F908F9008952F923F924F925F926F92BC
S11320D07F928F929F92AF92BF92CF92DF92EF92B4
S11320E0FF920F93CF93DF933C011B014A01290117
S11320F0CA010E9425056C01892B71F084E390E0EC
S11321000E942505EC01892B19F0DC8ECB8E06C0CC
S1132110C6010E94CE0502C0C0E0D0E0209761F065
S1132120A12CB12C6E019201A401B101C301E7DD20
S1132130CE0193DE81E001C08FEFDF91CF910F914B
S1132140FF90EF90DF90CF90BF90AF909F908F90D3
S11321507F906F905F904F903F902F900895EF92F3
S1132160FF920F930F2EF9EEEF2EF5E1FF2EF02DD7
S113217000E020E030E040EC50E063E373E08DECFD
S113218090E0A1DF813011F40E94621B8130C9F418
S1132190F8948FEF9FEFDC018093EB159093EC158F
S11321A0A093ED15B093EE1581E08093F61510928F
S11321B0F8151092F9151092FA151092FB150E9459
S11321C0A706809106020F91FF90EF9008958091E9
S11321D0E8158F5F8093E81508950FB6F8940F9271
S11321E06091F8157091F9158091FA159091FB158D
S11321F00F900FBE0895CF92DF92EF92FF92CF938C
S1132200DF938091E815811105C1C090F815D09035
S1132210F915E090FA15F090FB158FEFC81AD80A5B
S1132220E80AF80AC092F815D092F915E092FA1566
S1132230F092FB15C114D104E104F104B1F48091CE
S113224021169091221620911F163091201630935A
S11322502216209321169093201680931F168091A6
S1132260F0158F5F8093F01516DD8091EB1590913A
S1132270EC15A091ED15B091EE15C816D906EA0635
S1132280FB0620F480E0B2C081E001C080E0E09170
S11322902116F0912216908191110CC04FEF5FEF3F
S11322A0BA014093EB155093EC156093ED157093C0
S11322B0EE159CC0E0912116F09122160780F0855E
S11322C0E02D0084F185E02D428153816481758184
S11322D0C416D506E606F70648F44093EB1550936A
S11322E0EC156093ED157093EE1580C0A485B5854B
S11322F0C681D781208531853F832E83C085D185D2
S1132300268137813D832C8311964D915C911297E0
S11323109F012E5F3F4F4217530731F4408551858B
S113232012965C934E931197158614869C91915046
S11323309C93A08DB18D109709F1C289D3894489EA
S113234055895F834E83C489D589428953895D83C6
S11323504C8311966D917C911297AF01425F5F4F50
S11323606417750731F44489558912965C934E932A
S11323701197118E108E9C9191509C93A28D9091E7
S1132380F7159A1710F4A093F7159BE09A9FD001C4
S11323901124A75CB94E11960D90BC91A02DB78362
S11323A0A68316964D915C91179751874087169690
S11323B0CD91DC9117973D832C8317963C932E93F4
S11323C01697A28D9A9FD0011124A75CB94EB587A8
S11323D0A4879C919F5F9C93228DE091A716F09116
S11323E0A816928D291708F04FCF51CFE091A71668
S11323F0F091A816E28D9BE0E99FF0011124E75CBF
S1132400F94E9081923008F081E09091F11591118C
S113241016C016C08091F2159091F315A091F41591
S1132420B091F5150196A11DB11D8093F2159093FD
S1132430F315A093F415B093F51580E001C081E085
S1132440DF91CF91FF90EF90DF90CF900895CF92DE
S1132450DF92EF92FF92CF93DF930FB6F8940F922F
S11324608091E81581508093E8158091E8158111D9
S1132470BEC08091FC15811188C0BCC0E0911B16C0
S1132480F0911C160084F185E02DA08DB18DC289D8
S1132490D389848995899F838E83C489D5898289C8
S11324A093899D838C8311962D913C911297CF0132
S11324B00E962817390731F48489958912969C93CE
S11324C08E931197118E108E8C9181508C93A485CC
S11324D0B585C681D781808591859F838E83C0858C
S11324E0D185868197819D838C8311968D919C9152
S11324F012979F012E5F3F4F8217930731F4808517
S1132500918512969C938E931197158614868C91BF
S113251081508C93A28D8091F7158A1710F4A093A3
S1132520F7158BE08A9FD0011124A75CB94E119650
S11325300D90BC91A02DB783A68316964D915C9106
S11325401797518740871696CD91DC9117973D8355
S11325502C8317963C932E931697A28D8A9FD001B5
S11325601124A75CB94EB587A4878C918F5F8C9397
S1132570928DA091A716B091A8165A968C9198178F
S113258030F081E08093F11502C0E0E0F0E080914A
S11325901416811173CFEF2B09F07DDBC090F21577
S11325A0D090F315E090F415F090F515C114D10412
S11325B0E104F104A1F01FDE882319F081E0809387
S11325C0F11581E0C81AD108E108F108A1F71092C9
S11325D0F2151092F3151092F4151092F5158091DE
S11325E0F115882331F00E94D90681E003C080E010
S11325F001C080E00F900FBEDF91CF91FF90EF906C
S1132600DF90CF9008958F929F92AF92BF92CF9216
S1132610DF92EF92FF921F93CF93DF93EC016A0155
S11326207B01D5DD8090F8159090F915A090FA15EE
S1132630B090FB1588819981AA81BB81AC01BD0151
S11326404C0D5D1D6E1D7F1D88169906AA06BB06DE
S113265060F4481759076A077B0798F484169506AF
S1132660A606B70680F010E013C0481759076A079A
S11326707B0758F084169506A606B70640F010E0CE
S113268007C010E005C011E003C011E001C011E073
S1132690488359836A837B83112341F0CB01BA01B8
S11326A0681979098A099B0940E06BDCD0DE811145
S11326B002C00E94D906812FDF91CF911F91FF9014
S11326C0EF90DF90CF90BF90AF909F908F90089540
S11326D0CF92DF92EF92FF926B017C01672B682B04
S11326E0692B39F074DD40E0C701B6014ADCAFDE86
S11326F001C080E0811102C00E94D906FF90EF90D2
S1132700DF90CF9008958091E815882321F081E02F
S11327108093F11508951092F115E091A716F091A8
S1132720A81620813181E091A716F091A816838D17
S1132730948D8217930760F06091A7167091A81684
S1132740635E7F4F8091A7169091A8160E94F01D9A
S11327508091F71501C08150282F30E09BE0929FB3
S1132760F001939FF00D1124E75CF94E90819923B9
S113277091F39BE0929FA001939F500D1124DF01E0
S11327800180F281E02D0480F581E02D1296FC9306
S1132790EE931197445C594EE417F50729F44481EC
S11327A05581FD01528341839BE0929FF001939FE9
S11327B0F00D1124E75CF94E0180F281E02D2085B3
S11327C031853093A8162093A7168093F7150895A2
S11327D0CF92DF92EF92FF926A017B016091A7167C
S11327E07091A816625F7F4F0E94200641E0C701E6
S11327F0B601C7DBFF90EF90DF90CF9008950F9361
S11328001F93CF93DF93FC01A091A716B091A81654
S113281070681E964D935D936D937C935197A1813F
S1132820B281C091A716D091A816BB8BAA8BC09178
S1132830A716D091A81616968D919C9117979D8BEB
S11328408C8B1696CD91DC9117978091A716909159
S1132850A8160E969D838C838091A7169091A81636
S11328600E9617969C938E931697A091A716B091E7
S1132870A8165996FC93EE93589780818F5F8083B6
S113288041E0C901B8017DDBDF91CF911F910F9128
S11328900895CF93DF93FC01CB01BA01A181B281EA
S11328A0C091A716D091A816BB8BAA8BC091A7166E
S11328B0D091A81616964D915C9117975D8B4C8B11
S11328C01696CD91DC9117974091A7165091A816B2
S11328D0425F5F4F5D834C834091A7165091A816C9
S11328E0425F5F4F17965C934E931697A091A7167D
S11328F0B091A8165996FC93EE93589730813F5F98
S11329003083222319F06FEF7FEFCB01422F39DBA5
S1132910DF91CF910895CF93DF93DC011796ED916A
S1132920FC9118970084F185E02DA08DB18DC289AA
S1132930D389848995899F838E83C489D589828923
S113294093899D838C8311968D919C9112979F01FD
S1132950225F3F4F8217930731F484899589129639
S11329609C938E931197118E108E8C9181508C9321
S11329708091E815811152C0A485B585C681D7819F
S1132980808591859F838E83C085D185868197813B
S11329909D838C8311968D919C9112979F012E5F3C
S11329A03F4F8217930731F48085918512969C934B
S11329B08E931197158614868C9181508C93A28DD9
S11329C08091F7158A1710F4A093F7158BE08A9F6E
S11329D0D0011124A75CB94E11960D90BC91A02D85
S11329E0B783A68316964D915C91179751874087BC
S11329F01696CD91DC9117973D832C8317963C93C3
S1132A002E931697A28D8A9FD0011124A75CB94EEC
S1132A10B587A4878C918F5F8C931CC044E156E1E9
S1132A20DA011196CD91DC911297D38BC28B8E81F2
S1132A309F81958B848B8E819F81DC0115963C93BD
S1132A402E9314973F832E83518F408FDA018C91FC
S1132A508F5F8C93928DE091A716F091A816828DCA
S1132A60891720F481E08093F11501C080E0DF91A3
S1132A70CF910895CF93DF93DC0170684D935D93FC
S1132A806D937C9313971896ED91FC9119971A9670
S1132A904D915C911B9714968D919C911597169668
S1132AA02D913C911797EC013F832E8316968D91BF
S1132AB09C91179714962D913C911597EC013D83A9
S1132AC02C83EA0189819A81A817B90731F41696F3
S1132AD08D919C9117979A8389831B961C921E92C1
S1132AE01A97DA018C9181508C93A485B585C6819F
S1132AF0D781808591859F838E83C085D18586818A
S1132B0097819D838C8311968D919C9112979F013F
S1132B102E5F3F4F8217930731F48085918512967B
S1132B209C938E931197158614868C9181508C9367
S1132B30A28D8091F7158A1710F4A093F7158BE0F6
S1132B408A9FD0011124A75CB94E11960D90BC91B7
S1132B50A02DB783A68316964D915C911797518744
S1132B6040871696CD91DC9117973D832C83179659
S1132B703C932E931697A28D8A9FD0011124A75CB3
S1132B80B94EB587A4878C918F5F8C93928DE09119
S1132B90A716F091A816828D891718F481E0809306
S1132BA0F115DF91CF9108950FB6F8940F9220910B
S1132BB0F015FC0120834091F8155091F9156091AE
S1132BC0FA157091FB1541835283638374830F90CC
S1132BD00FBE08952091F015FC0120834091F81553
S1132BE05091F9156091FA157091FB154183528348
S1132BF06383748308958F929F92AF92BF92CF9212
S1132C00DF92EF92FF920F931F93CF93DF93FB0119
S1132C100FB6F8940F92C090F815D090F915E09083
S1132C20FA15F090FB15DC0111960D911D912D9173
S1132C303C91149746015701801A910AA20AB30ADB
S1132C4040815181628173814F3FBFEF5B076B0706
S1132C507B0739F1EC01B881A091F015BA1759F04E
S1132C60C016D106E206F30630F0108211821282F9
S1132C70138281E017C084169506A606B70658F499
S1132C80481959096A097B09408351836283738314
S1132C90A1DF80E007C0108211821282138281E0DA
S1132CA001C080E00F900FBEDF91CF911F910F9173
S1132CB0FF90EF90DF90CF90BF90AF909F908F9058
S1132CC0089581E08093F11508958091A71690915D
S1132CD0A81608958091F615882331F08091E8159F
S1132CE0811104C082E0089581E0089580E0089590
S1132CF00F931F93CF93DF93FC01892B09F477C0C3
S1132D00828DA091A716B091A8165A969C91891706
S1132D1008F063C04685578560897189772394F0EC
S1132D20A091A716B091A8165A969C914AE050E03B
S1132D3060E070E0491B51096109710946875787B2
S1132D40608B718B248535854BE0849FC0011124F1
S1132D50875C994E28173907B9F5EF018F010E5F8B
S1132D601F4FC8010E945D06E091A716F091A816B6
S1132D70E28DEA8F8091F7158E1710F4E093F71522
S1132D808BE08E9FF0011124E75CF94E0180F28103
S1132D90E02DFF83EE832681378139872887A6813A
S1132DA0B78115961C930E93149717830683EA8DA7
S1132DB08E9FF0011124E75CF94EFD87EC8780813A
S1132DC08F5F808381E016C0A091A716B091A816EA
S1132DD05A968C91828F81E00DC095A5E091A7163B
S1132DE0F091A816828D981720F080E003C080E04F
S1132DF001C081E0DF91CF911F910F9108950F934E
S1132E001F93CF93DF93FC01892B09F449C086A556
S1132E10815086A7228D95A5291709F443C08111F5
S1132E2043C0EF018F010E5F1F4FC8010E945D0672
S1132E30EDA5EA8F8AE090E0A0E0B0E08E1B910956
S1132E40A109B1098E879F87A88BB98B8091F7154B
S1132E508E1710F4E093F7158BE08E9FF001112488
S1132E60E75CF94E0180F281E02DFF83EE83268139
S1132E70378139872887A681B78115961C930E93CD
S1132E80149717830683EA8D8E9FF0011124E75C63
S1132E90F94EFD87EC8780818F5F808381E005C0D8
S1132EA080E003C080E001C080E0DF91CF911F91FA
S1132EB00F9108950F931F93CF93DF93FC01892BF8
S1132EC009F45AC085A5861708F4862F928D8917B0
S1132ED009F452C026A5213009F04EC0828F4685E0
S1132EE0578560897189772364F04AE050E060E097
S1132EF070E0481B51096109710946875787608B47
S1132F00718B248535854BE0949FC0011124875C27
S1132F10994E2817390781F5EF018F010E5F1F4F76
S1132F20C8010E945D06EA8D8091F7158E1710F492
S1132F30E093F7158BE08E9FF0011124E75CF94EC6
S1132F400180F281E02DFF83EE832681378139876A
S1132F502887A681B78115961C930E93149717831F
S1132F600683EA8D8E9FF0011124E75CF94EFD87FC
S1132F70EC8780818F5F8083DF91CF911F910F91C8
S1132F800895CF92DF92EF92FF92E091A716F0910D
S1132F90A8166685778580899189E091A716F091B6
S1132FA0A816A091A716B091A8165A962C910F2E88
S1132FB0FAE0CF2ED12CE12CF12CF02DC21AD1083D
S1132FC0E108F108C686D786E08AF18AFF90EF907F
S1132FD0DF90CF9008958091A7169091A816892B21
S1132FE039F0E091A716F091A81686A58F5F86A701
S1132FF08091A7169091A81608954F925F926F92B0
S11330007F92AF92BF92CF92DF92EF92FF920F9393
S11330101F93CF93DF93280139010FB6F8940F92D1
S1133020E091A716F091A816C82FD0E0EC0FFD1F71
S113303083A9823079F1E091A716F091A816CE0108
S1133040880F991F880F991FE80FF91F87A590A96A
S1133050A1A9B2A94095509560957095482359232C
S11330606A237B2347A750AB61AB72ABE091A716F1
S1133070F091A816EC0FFD1F81E083ABA114B104FD
S1133080C104D10439F041E0C601B5010E94C10F69
S11330900E94D9060F900FBE0FB6F8940F92E11458
S11330A0F104A1F0E091A716F091A816CE01880FC3
S11330B0991F880F991FE80FF91F87A590A9A1A947
S11330C0B2A9F70180839183A283B383E091A71609
S11330D0F091A816EC0FFD1F83A98230E9F4E0916A
S11330E0A716F091A816CE01880F991F880F991F73
S11330F0E80FF91F87A590A9A1A9B2A940945094FB
S113310060947094482259226A227B2247A650AACE
S113311061AA72AA81E001C080E02091A7163091D3
S1133120A816C20FD31F1BAA0F900FBEDF91CF9119
S11331301F910F91FF90EF90DF90CF90BF90AF90D1
S11331407F906F905F904F9008958F929F92AF926F
S1133150BF92EF92FF920F93CF93DF93DC010FB6F0
S1133160F8940F92E114F10489F0E62FF0E0EE0FE9
S1133170FF1FEE0FFF1FE80FF91F87A490A8A1A857
S1133180B2A8F70180829182A282B38270E0FD012D
S1133190E60FF71F83A992E093AB023001F118F414
S11331A0013031F04DC0033079F10430D1F148C021
S11331B0660F771F660F771FFD01E60FF71F87A4C1
S11331C090A8A1A8B2A8BA01A901482959296A2935
S11331D07B2947A750AB61AB72AB01E034C0660FEB
S11331E0771F660F771FFD01E60FF71F47A550A94C
S11331F061A972A94F5F5F4F6F4F7F4F47A750ABD5
S113320061AB72AB01E01FC0660F771F660F771FBB
S1133210FD01E60FF71F27A730AB41AB52AB01E02E
S113322012C0823079F0660F771F660F771FFD0199
S1133230E60FF71F27A730AB41AB52AB01E003C049
S113324001E001C000E0813009F069C01C96ED91F5
S1133250FC911D971696CD91DC91179718968D9138
S11332609C9119979F838E831896CD91DC91199721
S113327016968D919C9117979D838C838181928161
S11332809D012E5F3F4F8217930731F418968D915D
S11332909C911997928381831D961C921E921C9770
S11332A08081815080835A96EC915A978091F715CA
S11332B08E1710F4E093F7158BE08E9FF001112424
S11332C0E75CF94E0180F281E02D1796FC93EE93B2
S11332D016974681578119965C934E931897C68129
S11332E0D7813D832C83378326835A96EC915A9752
S11332F08E9FF0011124E75CF94E1D96FC93EE932A
S11333001C9780818F5F80835A969C91E091A716C9
S1133310F091A816828D891710F40E94D9060F9097
S11333200FBE802FDF91CF910F91FF90EF90BF9050
S1133330AF909F908F9008958F929F92AF92BF927B
S1133340CF92DF92EF92FF920F93CF93DF93DC0142
S1133350E114F10489F0E62FF0E0EE0FFF1FEE0F09
S1133360FF1FE80FF91F87A490A8A1A8B2A8F7012E
S113337080829182A282B38270E0FD01E60FF71F82
S113338093A982E083AB023001F118F4013031F0EB
S11333904DC0033079F10430D1F148C0660F771F76
S11333A0660F771FFD01E60FF71F87A490A8A1A859
S11333B0B2A8BA01A901482959296A297B2947A732
S11333C050AB61AB72AB81E034C0660F771F660F00
S11333D0771FFD01E60FF71F47A550A961A972A940
S11333E04F5F5F4F6F4F7F4F47A750AB61AB72ABDF
S11333F081E01FC0660F771F660F771FFD01E60F80
S1133400F71F27A730AB41AB52AB81E012C092301B
S113341079F0660F771F660F771FFD01E60FF71F20
S113342027A730AB41AB52AB81E003C081E001C0C0
S113343080E0913009F096C09091E81591115FC039
S11334401C96ED91FC911D971696CD91DC911797E2
S113345018962D913C9119973F832E831896CD9100
S1133460DC91199716962D913C9117973D832C83E7
S1133470418152819D012E5F3F4F4217530731F422
S113348018964D915C911997528341831D961C9215
S11334901E921C979081915090835A96EC915A9762
S11334A09091F7159E1710F4E093F7159BE09E9FFB
S11334B0F0011124E75CF94E0180F281E02D1796AA
S11334C0FC93EE9316974681578119965C934E931D
S11334D01897C681D7813D832C83378326835A96D8
S11334E0EC915A979E9FF0011124E75CF94E1D96CA
S11334F0FC93EE931C9790819F5F908321C064E1BD
S113350076E1FB01C181D2815396DC93CE9352972D
S11335102E813F8155963C932E9354974E815F8123
S11335209D01225F3F4FFA01358324833F832E831D
S113353059967C936E935897FB0190819F5F90837B
S11335405A962C91E091A716F091A816928D921795
S113355048F4C114D10419F091E0F601908391E08C
S11335609093F115DF91CF910F91FF90EF90DF9041
S1133570CF90BF90AF909F908F900895009721F4C3
S11335808091A7169091A8160FB6F8940F9270E048
S1133590FC01E60FF71F23A9223031F4FC01E60FEA
S11335A0F71F13AA81E001C080E00F900FBE0895B9
S11335B0DC01E091B316F091B416808191E08111A1
S11335C090E09C93911108C00780F085E02D608104
S11335D0718182819381089560E070E0CB01089548
S11335E0CF92DF92EF92FF920F931F93FC014283DD
S11335F0538364837583938782870417150726078B
S11336003707C0F00C191D092E093F0986859785D7
S1133610A089B189081719072A073B0700F5BF01DC
S11336206E5F7F4F8091B1169091B2160E94200672
S113363080E018C00C151D052E053F0528F44C1517
S11336405D056E057F0568F4BF016E5F7F4F809155
S1133650B3169091B4160E94200680E003C081E066
S113366001C081E01F910F91FF90EF90DF90CF9008
S113367008950FB6F8940F928091AF169091B016FA
S1133680892BE9F480EC96E10E940B0685EB96E128
S11336900E940B0680EC96E19093B4168093B316C7
S11336A085EB96E19093B2168093B11640E067E003
S11336B08AE00E94CE089093B0168093AF160F90C4
S11336C00FBE0895EF92FF920F93D3DF8091AF1650
S11336D09091B016892B91F00F2EFDEAEF2EF6E1B2
S11336E0FF2EF02D03E020E030E040EC50E068E3F2
S11336F073E087ED90E00E94631001C080E00F91B9
S1133700FF90EF9008958F929F92AF92BF92CF92C5
S1133710DF92EF92FF920F931F93CF93DF93CDB776
S1133720DEB727970FB6F894DEBF0FBECDBFE0918A
S1133730AF16F091B016309781F169832A833B83E9
S11337404C835D839F838E836630F4F4C3DA8230C6
S113375069F400E0A7019601BE016F5F7F4F80917D
S1133760AF169091B0160E94F10818C000E020E056
S113377030E0A901BE016F5F7F4F8091AF16909139
S1133780B0160E94F1080AC020E0A801BE016F5FD4
S11337907F4FCF010E94830901C080E027960FB6B6
S11337A0F894DEBF0FBECDBFDF91CF911F910F9173
S11337B0FF90EF90DF90CF90BF90AF909F908F904D
S11337C008958F929F92AF92BF92CF92DF92EF9221
S11337D0FF920F931F93CF93DF933BC00780F08535
S11337E0E02D80809180A280B380C085D1858E0138
S11337F00E5F1F4FC8010E945D06EC89FD89CE0152
S113380019958E8982FF25C08E859F85A889B989DF
S1133810880D991DAA1DBB1D88169906AA06BB060C
S113382070F48A839B83AC83BD83DB87CA87B8012A
S11338308091B3169091B4160E9420060AC0C12C40
S1133840D12C760100E010E0A501940160E0CE01E6
S11338505ADFE091B316F091B41680818111BECF86
S11338608091B1169091B2169093B4168093B316CA
S1133870F093B216E093B116DF91CF911F910F919F
S1133880FF90EF90DF90CF90BF90AF909F908F907C
S11338900895CF92DF92EF92FF92CF93DF93EC01E2
S11338A00E94ED106B017C018091A9169091AA16DB
S11338B0A091AB16B091AC16C816D906EA06FB0661
S11338C020F47FDF81E0888301C01882C092A916AA
S11338D0D092AA16E092AB16F092AC16C701B601CC
S11338E0DF91CF91FF90EF90DF90CF9008954F92AA
S11338F05F926F927F928F929F92AF92BF92CF927C
S1133900DF92EF92FF920F931F93CF93DF934B01BC
S11339105C0129013A01E091B316F091B4160780D5
S1133920F085E02DC085D185CE0102960E945D060A
S11339308E8982FF1BC04E855F8568897989480D11
S1133940591D6A1D7B1D7501640193018201CE011D
S113395047DE882369F0C12CD12C760100E010E009
S1133960A501940160E0CE01CEDE02C08E7F8E8B75
S1133970EC89FD89CE011995DF91CF911F910F91AB
S1133980FF90EF90DF90CF90BF90AF909F908F907B
S11339907F906F905F904F9008958F929F92AF9217
S11339A0BF92CF92DF92EF92FF921F93CF93DF9358
S11339B01F92CDB7DEB76B017C01142F0E94E71074
S11339C0CE01019666DF4B015C01898181112DC016
S11339D011110DC08C149D04AE04BF0440F00E946C
S11339E02712A5019401C701B60181DF20C011236C
S11339F041F0E091B116F091B216808111E081118D
S1133A0010E0B701A601481959096A097B09212F59
S1133A108091AF169091B0160E94FE0A0E94271260
S1133A20811105C00E94D90602C00E9427120F907E
S1133A30DF91CF911F91FF90EF90DF90CF90BF90D7
S1133A40AF909F908F900895AF92BF92CF92DF92E4
S1133A50EF92FF920F931F93CF93DF93CDB7DEB70F
S1133A6028970FB6F894DEBF0FBECDBF82C0898100
S1133A7088230CF47EC0AE80BF80D5011C968D9146
S1133A809C911D97892B21F0C50102960E945D0629
S1133A90CE010896FEDE8B019C01E9810E2E000CFE
S1133AA0FF0BEA30F10508F064C08827EE58FF4F99
S1133AB08F4F0C94BB2FF50186898160868BCA8059
S1133AC0DB80EC80FD8046855785608971894C0DCB
S1133AD05D1D6E1D7F1DC50183DD882309F449C06A
S1133AE0D5015496ED91FC915597C5011995F501B1
S1133AF0868982FF3EC04A815B816C817D81868597
S1133B009785A089B1899A01AB01280F391F4A1FF3
S1133B105B1FC12CD12C760100E010E060E0C501F0
S1133B20F2DD27C0D50156968C9156978E7F569616
S1133B308C931FC0F50186898160868B4A815B81E5
S1133B406C817D8146875787608B718B400F511F35
S1133B50621F731F68017901C50142DD0AC0F501C6
S1133B60868981FD04C0C5010E94CE0502C08E7FF6
S1133B70868B20E030E0A901BE016F5F7F4F80910A
S1133B80AF169091B0160E94BE09811170CF28968D
S1133B900FB6F894DEBF0FBECDBFDF91CF911F915A
S1133BA00F91FF90EF90DF90CF90BF90AF9008956A
S1133BB0089584B1806884B985B1806885B9089511
S1133BC083B1806883B90895F4DF2FEF80E792E032
S1133BD0215080409040E1F700C00000F1DFF5CFB4
S1133BE0E8DF2FEF87EA91E6215080409040E1F72B
S1133BF000C00000E5DFF5CF41E060E070E084E65E
S1133C0090E00E945D0C90932F1880932E1841E051
S1133C1060E070E08CE290E00E945D0C90933318B9
S1133C208093321808950E94710390933118809301
S1133C3030180E94710390934F1880934E18089582
S1133C4086E090E00E942505909368188093671899
S1133C50009711F480E090E00895E0916718F091E6
S1133C606818918380830895E0916718F09168182B
S1133C70938382830895E0916718F091681895837F
S1133C8084830895EBECF6E126E021836083A09120
S1133C906718B09168182C9111963C911197328352
S1133CA0238312962C91129713963C911397348385
S1133CB0258314962C91149715963C91368327836B
S1133CC026E1DC0101900D922A95E1F708956091B7
S1133CD0E5167091E6168091E7169091E816FBD1EF
S1133CE0CB0108956091E1167091E2168091E3167C
S1133CF09091E416F0D1CB010895EF92FF920F93C7
S1133D00E12CF12C082F20E030E040EC50E060E49E
S1133D1073E08BE09FE10E9463100F91FF90EF909E
S1133D200895CF92DF92EF92FF920F93CC24CA941E
S1133D30DC2C760101E021E041E050E060E070E03D
S1133D4080913018909131180E948403609369180F
S1133D5070936A1880936B1890936C1860FF55C029
S1133D6066E070E080E090E00E9468134ED2882301
S1133D70C1F066E070E080E090E00E94681385E5A1
S1133D8093E09F938F930E9447310F900F9006C04A
S1133D9063E070E080E090E00E94681336D28823EC
S1133DA0B9F348D263E070E080E090E00E946813C9
S1133DB041D281112AC066E070E080E090E00E9468
S1133DC0681349D26093E1167093E2168093E31668
S1133DD09093E41655D26093E5167093E61680939B
S1133DE0E7169093E8168FE893E09F938F930E94D1
S1133DF0473142E050E060E070E080914E189091CD
S1133E004F180E9424040F900F900F91FF90EF9091
S1133E10DF90CF90089585DFFECF0F931F93CF934C
S1133E20DF93CDB7DEB764970FB6F894DEBF0FBE4D
S1133E30CDBF81E00E94BB2BABD327D69F938F933A
S1133E4081EB93E09F938F930E9447311FD51DD63A
S1133E509F938F9384EC93E09F938F930E944731B9
S1133E608DED93E00E945A318E010F5F1F4FC80100
S1133E70A1D30BD61F930F939F938F938AEE93E056
S1133E809F938F930E944731C801B0D3FED59F936F
S1133E908F931F930F938EEF93E09F938F930E94C2
S1133EA0473183E194E00E945A31A80160E274E052
S1133EB081E494E0C9D5E9D59F938F931F930F9321
S1133EC080E294E09F938F9381E494E09F938F9397
S1133ED082E594E09F938F930E944731BAD3D5D55E
S1133EE09F938F9388E894E09F938F930E94473128
S1133EF00FB6F894DEBF0FBECDBF81E0A4D4C5D504
S1133F009F938F9387E994E09F938F930E94473107
S1133F1088EB94E00E945A3184EF91E09FD4B5D5A8
S1133F209F938F9381E08F9384EF8F9385EC94E03C
S1133F309F938F930E9447310FB6F894DEBF0FBE54
S1133F40CDBF1AE080E08BD3082F9FD59F938F932A
S1133F501F921F9385EE94E09F938F930E944731A5
S1133F600F900F900F900F900F900F90083059F012
S1133F7080E00E941F2C66E371E080E090E00E94E4
S1133F8068131150F9F6083021F481E00E94012CE5
S1133F900DC085E095E00E945A3181E00E94102C0A
S1133FA080E00E94DE2B0E94D906FDCF64960FB6F6
S1133FB0F894DEBF0FBECDBFDF91CF911F910F915B
S1133FC00895EF92FF920F9320912E1830912F189D
S1133FD0E12CF12C082F48E851E060E175E085E31D
S1133FE090E20E9463100F91FF90EF9008950F9359
S1133FF01F930FEF1FEF980146E150E069EE76E161
S113400080912E1890912F180E94C80D892BA1F031
S113401083E00E94312C69EE76E180E049D335D506
S11340209F938F938BE195E09F938F930E944731E9
S11340300F900F900F900F901F910F91089581E0B2
S113404099D262E070E080E090E00E94681380E022
S113405091D266E970E080E090E00E94681343D258
S1134060DCDE80E090E0C3DFFCCFE9DF81E00E948A
S1134070E20181E042DE83E090E00E940801E0DD9D
S113408084E09FDF85E00C94C0020895A6D083E00D
S1134090D8D548C60895C7DDAFCD089581B18168EC
S11340A081B980E00E94662AF1DFF5DFDFDF85E079
S11340B00E946D2B609132187091331881E01AC2FE
S11340C00895ECDF80E395E00E945A310E94AF101E
S11340D080E090E0089533D088F09F5790F0B92F96
S11340E09927B751A0F0D1F0660F771F881F991F49
S11340F01AF0BA95C9F712C0B13081F03AD0B1E0E4
S1134100089537C0672F782F8827B85F39F0B93FF3
S1134110CCF3869577956795B395D9F73EF490954A
S11341208095709561957F4F8F4F9F4F089557FDF0
S11341309058440F551F59F05F3F71F04795880F11
S113414097FB991F61F09F3F79F0879508951216A8
S113415013061406551FF2CF4695F1DF08C0161654
S113416017061806991FF1CF869571056105089405
S11341700895E894BB2766277727CB0197F908951C
S11341806530F1F4FA0180818F7390E0982F8827CD
S11341902181822B90930A02809309028281F0E4A8
S11341A08F9FC0011124FA01238126952695822B25
S11341B0909308028093070281E08093FF1608958C
S11341C0643051F080E090E49093080280930702F9
S11341D090930A028093090208950F931F9300ECB1
S11341E010E220E034E244EF50E060E087E20E9415
S11341F0532C909301178093001721E0892B09F029
S113420020E0822F1F910F910895809100179091C3
S11342100117009759F040E060E070E00E94A42C80
S1134220843031F41092FF1680E0089582E00895FE
S113423083E008958091001790910117009739F059
S113424064E00E94F02C853021F083E0089582E040
S1134250089580E008956091090270910A0280E057
S113426090E00E94CE2E20E030E048EC52E40E9420
S1134270332F20E038EF4FE756E40C94632E089573
S1134280609107027091080280E090E00E94CE2EB7
S113429020E030E045E253E40E94332F20E038EF81
S11342A04FE756E40E94632E20E030E040E252E4FF
S11342B00C94FC2D08950F931F93CF93DF931F92BB
S11342C01F92CDB7DEB78C0119822DC0E09139174A
S11342D0EC3250F481E08E0F80933917F0E0E55909
S11342E0F84E8A81808302C0109239178A818A30FD
S11342F0D1F44091391750E0FA01E759F84E108291
S1134300415051099E012F5F3F4F6BE677E1809149
S11343103C1790913D170E94840D898181110E9460
S1134320D90610923917BE016E5F7F4FC80138D687
S1134330882361F20F900F90DF91CF911F910F911D
S113434008950F931F93CF93DF938C01EB0180911A
S11343503C1790913D170E948F0CB80182E097E1C1
S11343600E942831209779F0E2E0F7E101900020E3
S1134370E9F7319780E290E091838083BE0182E087
S113438097E10E941D31E2E0F7E1DF010D9000208A
S1134390E9F711978DE09AE011969C938E9312960B
S11343A01C9201900020E9F73197E250F741AE2FBB
S11343B082E097E1AC016A2F80913E1790913F17FC
S11343C09AD5811111C008E215E020E030E04DE2F9
S11343D050E065EC77E180913C1790913D170E9485
S11343E0C80D85EC97E102C080E090E0DF91CF91A9
S11343F01F910F9108952F923F924F925F926F9267
S11344007F928F929F92AF92BF92CF92DF92EF9260
S1134410FF920F931F93CF93DF935C01FC010190F4
S11344200020E9F731976F01C81AD90A5C2C0F2EC6
S1134430FAED8F2EF7E09F2EF02DE12CF12C4C2C71
S11344403701F40101811281E80109900020E9F7A4
S11344502197C01BD10B3C2EF9E0CF16D10458F0A4
S1134460F4012080FEE02F1206C0B801C5010E94AD
S1134470F830892B09F5442D351408F44C2F50E0FD
S1134480B801C5010E942F31892B49F4F301EE0FC5
S1134490FF1FE60DF71DE652F84F20800DC08FEF89
S11344A0E81AF80AE3E08E0E911CF1E1EF16F1042C
S11344B039F66894222424F8822DDF91CF911F913C
S11344C00F91FF90EF90DF90CF90BF90AF909F90AF
S11344D08F907F906F905F904F903F902F900895B2
S11344E030DF89CF089580913C1790913D170C944B
S11344F08F0C08958F929F92AF92CF92EF920F9369
S11345001F93CF93C82F8B0141E060E070E088ECEB
S113451090E00E945D0C90933D1780933C1710939C
S11345203B1700933A170F2EFBE58F2EF1E29F2ED7
S1134530F02D6894AA24A6F86894CC24C6F8E12C3B
S113454000E023E040E051EE60E070E08C2F06D400
S113455090933F1780933E17E7E0F1E080818061FC
S11345608083CF911F910F91EF90CF90AF909F9048
S11345708F900895882331F0E8E0F1E080818F7E08
S113458080830895E8E0F1E080818061808308956C
S113459060E070E080E695E0D4DEE5ECF7E10190C0
S11345A00020E9F73197E55CF74181E0759708F061
S11345B080E00895CF93DF93EC0160E070E081E741
S11345C095E0BFDEE5ECF7E101900020E9F7E65D58
S11345D0F74139F465EC77E1CE010E94283180E09F
S11345E002C0188281E0DF91CF910895FC0101900F
S11345F00020E9F79F01215131092817390729F4CF
S1134600BC018FE995E06CCF089589E00895FC0121
S113461001900020E9F79F0121513109281739073A
S113462029F4BC018EEA95E05BCF089589E00895F2
S1134630FC0101900020E9F79F012152310928175C
S1134640390729F4BC018DEB95E04ACF089589E040
S1134650089560E070E08CEF95E042CF08950F93E9
S11346601F93E82FF0E0EE0FFF1FEA52F84F60812E
S1134670718185E096E034DF811114C008E215E011
S113468020E030E04DE250E065EC77E180913C17AA
S113469090913D170E94C80D882321F085EC97E185
S11346A0AADE03C085EC97E1A6DE1F910F91089561
S11346B00F931F93CF93DF931F92CDB7DEB7DB0128
S11346C011969C911197953108F0B4C0992381F10A
S11346D060E070E0272F30E0462F50E0FD01E40F4A
S11346E0F51F928192959F709A3010F0995C01C0E9
S11346F0905DF901EA5AF84E90832F5F3F4FFD0118
S1134700E40FF51F92819F70492F50E04A30510504
S113471014F0995C01C0905DF901EA5AF84E908357
S11347207E5F6F5F11969C911197691798F201C093
S113473070E0E72FF0E0EA5AF84E10824C918111B4
S113474003C08EE096E002C080E196E026E537E102
S11347503F932F931F924F939F938F9384E196E0FF
S11347609F938F9388E997E19F938F930E948A3157
S113477060E070E088E997E1B3DE0FB6F894DEBF3D
S11347800FBECDBF811159C008E215E020E030E032
S11347904DE250E065EC77E180913C1790913D1734
S11347A00E94C80D882309F447C085EC97E123DEF5
S11347B08E3009F042C087E0898380913A17909146
S11347C03B17892BA9F1BE016F5F7F4F85EC97E101
S11347D068D180934017E981F0E0EB53F84EDF0194
S11347E00D900020E9F71197AE1BBF0BAA2391F09F
S11347F0BB27CD0101979C0112F42F5F3F4F3595E4
S1134800279520934117AF014F5F5F4F64E182E426
S113481097E173D101E010E020E030E046E150E0A0
S113482060E477E180913A1790913B170E94BF0CA6
S11348308EE003C084E101C080E00F90DF91CF914E
S11348401F910F910895813019F064E276E002C05F
S11348506DEF76E088E296E043CE08959F938F93C0
S113486089E596E09F938F9388E997E19F938F93CF
S11348700E948A3160E070E088E997E131DE0F90B0
S11348800F900F900F900F900F9008952F923F92DA
S11348904F925F926F927F928F929F92AF92BF924C
S11348A0CF92DF92EF92FF920F931F93CF93DF93F8
S11348B0CDB7DEB7A0970FB6F894DEBF0FBECDBF5D
S11348C066E876E082E996E03CDD95DD8111A3C0DF
S11348D080E2E2E2F2E0DE01119601900D928A9507
S11348E0E1F79E012F5F3F4F6901E12CF12C0F2E60
S11348F0FEE9AF2EF6E0BF2EF02D08E917E10F2EEA
S1134900F7EB4F2EF6E05F2EF02D0F2EFEEC8F2EE0
S1134910F6E09F2EF02D0F2EF8EE6F2EF6E07F2E90
S1134920F02D3E2C2F2CFF92EF92BF92AF921F934B
S11349300F930E948A3160E070E0C80102DD5BDD04
S11349400F900F900F900F900F900F90811163C0F4
S113495032E03E15E8F4F60183818F9382818F93D0
S113496081818F9380818F93FF92EF925F924F9218
S11349701F930F930E948A3160E070E0C801E1DC6C
S11349803ADD0FB6F894DEBF0FBECDBF811143C030
S11349902F923F929F928F921F930F930E948A317E
S11349A060E070E0C801CDDC26DD0F900F900F9021
S11349B00F900F900F9081112EC02F923F927F92F3
S11349C06F921F930F930E948A3160E070E0C801D8
S11349D0B8DC11DD0F900F900F900F900F900F9097
S11349E0811119C03FEFE31AF30A84E0C80ED11C09
S11349F098E0E916F10409F094CF60E070E080E0FB
S1134A0097E09FDCF8DC811106C060E070E081E192
S1134A1097E097DCF0DCA0960FB6F894DEBF0FBEEB
S1134A20CDBFDF91CF911F910F91FF90EF90DF9059
S1134A30CF90BF90AF909F908F907F906F905F903A
S1134A404F903F902F900895EF92FF920F931F93F2
S1134A50CF93DF93EC018B017A0181E0F4DE8111C5
S1134A600DC0CE01D4DD811109C0C801E1DD811181
S1134A7005C0C701BBDD811101C0EBDDDF91CF9122
S1134A801F910F91FF90EF90089590E0FC01EE0FBD
S1134A90FF1F8E0F9F1FFC01E652F84F8181928108
S1134AA00895DC01009729F1FB012081FC010190AC
S1134AB00020E9F73197E81BF90B822F90E0E81703
S1134AC0F907C8F080E008C0880F382F330F330F80
S1134AD0830F8053890F2F5FFD01E20FF11D908139
S1134AE030ED390F3A3010F49111EECFFB012083F1
S1134AF0089580E0089580E008950F931F93CF9365
S1134B00DF93DC01EA012097E1F1FA010190002032
S1134B10E9F73197E41BF50B329710F532C08D019C
S1134B20040F151F30E0AE01420F531FFA019081AC
S1134B30913428F09753592F5295507F03C0592F21
S1134B405295507F2C0F3D1FF9019181913410F043
S1134B50975301C09053950FF80190838F5F01C064
S1134B6080E0282F220F482F50E0FE010190002002
S1134B70E9F73197EC1BFD0B4E175F0710F4861312
S1134B80CECFDF91CF911F910F9108958091F517AA
S1134B90860F8093F5179091F817913079F028F0EB
S1134BA09230A9F0933019F108956F3F09F048C08D
S1134BB01092F51781E08093F8170895663809F08C
S1134BC03FC01092F41782E08093F8170895E091A3
S1134BD0F41781E08E0F8093F417F0E0EE50F84E56
S1134BE06083823069F583E08093F817089590918B
S1134BF0F41721E0290F2093F417963009F5811159
S1134C000EC0E2EFF7E1808190E0982F88272181A0
S1134C10820F911D9093FA178093F91704C0109294
S1134C20FA171092F9171092F817E091F617F0910D
S1134C30F717309729F08091F9179091FA17199581
S1134C4008958F929F92AF92CF92EF920F930F2E6F
S1134C50F6EC8F2EF5E29F2EF02D6894AA24A4F88A
S1134C606894CC24C4F8E12C00E023E040E855E249
S1134C7060E070E073D09093FC178093FB170F9162
S1134C80EF90CF90AF909F908F9008959093F717E7
S1134C908093F6170895CF93DF93CDB7DEB72997A6
S1134CA00FB6F894DEBF0FBECDBF89E0E2E4F2E0B8
S1134CB09E012F5F3F4FD90101900D928A95E1F734
S1134CC01092FA171092F9178091FB179091FC1724
S1134CD0009731F0422F532F69E00DD180E001C0DD
S1134CE082E029960FB6F894DEBF0FBECDBFDF91E8
S1134CF0CF91089565360CF064E66C390CF46CE9D8
S1134D0096EF6902B00111246854744F811105C0F3
S1134D107093290160932801089570932B01609387
S1134D202A010895EAE0F1E08081886180838FE3BD
S1134D309CE9909327018093260160E080E0DADF0C
S1134D4060E081E0D7DFE0E2F1E08081826A808385
S1134D50E1E2F1E080818A61808308952F923F929D
S1134D604F925F926F927F928F929F92AF92CF9267
S1134D70EF92FF920F931F93CF93DF93CDB7DEB7DC
S1134D80F82E2A013B0188E090E00E94C32F8C0199
S1134D908F2D90E0FC01EE0FFF1FE350F84E1183BE
S1134DA000830115110509F469C0880F991FFC01DE
S1134DB0E55FFD4F80819181D8018D939C938C2D6B
S1134DC090E0880F991F880F991F0E94C32F1C0120
S1134DD086E090E00E94C32F7C014C2DB101F0D6F7
S1134DE0F801F582E4828A2D90E0880F991F880FDC
S1134DF0991F0E94C32F1C0186E090E00E94C32FDC
S1134E007C014A2DB101DCD6D8011396FC92EE92B6
S1134E10129717969C928E921697FFB6F894ED917E
S1134E20FC91119736978081826080838D909C904D
S1134E30C301B201B3D720E030E040E051E40E9466
S1134E40332F9B01AC0160E074E284E79BE43BD721
S1134E5020E030E040E85FE3CFD63DD9F40132975B
S1134E606083D801ED91FC911197359788E980838F
S1134E70ED91FC91349786E08083FFBEC801DF91F9
S1134E80CF911F910F91FF90EF90CF90AF909F9093
S1134E908F907F906F905F904F903F902F900895E8
S1134EA0CF93DF93DC01892B01F11296ED91FC91F4
S1134EB01397938182812581981B9223848198176B
S1134EC0B1F0838126952823C081D181C20FD11DE1
S1134ED068838F5F958189238383ED91FC91359756
S1134EE080818062808380E003C081E001C082E031
S1134EF0DF91CF910895EF92FF920F931F93CF9379
S1134F00DF937C01009709F441C0DC011296ED9116
S1134F10FC91139793818281981B858198238481C6
S1134F20891B8617A8F1662341F1842F952FDC0194
S1134F306150462F50E04F5F5F4F480F591FE70104
S1134F40EA81FB81938182812581981B922384814C
S1134F50981779F08C91938126952923608171812A
S1134F608B01020F111DE80188839F5F85819823BF
S1134F7093831196A417B50711F7D701ED91FC910E
S1134F80359780818062808380E003C081E001C026
S1134F9082E0DF91CF911F910F91FF90EF900895E0
S1134FA00097D1F0DC011496ED91FC911597938153
S1134FB08281981799F09281858186958923A081B1
S1134FC0B181A80FB11D8C91DB018C939F5F85810A
S1134FD09823928380E0089581E0089583E0089502
S1134FE01F920F920FB60F9211240BB60F922F93AC
S1134FF03F934F935F936F937F938F939F93AF935D
S1135000BF93CF93DF93EF93FF93A091FD17B091DC
S1135010FE17109711F16091C6001496ED91FC9162
S11350201597938182812581981B922384819817F7
S113503061F0838126952823C081D181C20FD11DBF
S113504068838F5F9581892383831696ED91FC9104
S11350501797309711F0CD011995FF91EF91DF91DA
S1135060CF91BF91AF919F918F917F916F915F91FC
S11350704F913F912F910F900BBE0F900FBE0F9049
S11350801F9018951F920F920FB60F9211240BB612
S11350900F922F938F939F93AF93BF93EF93FF93AD
S11350A0E091FD17F091FE173097B9F00280F3817B
S11350B0E02D938182819817B1F092818581282F08
S11350C026952923A081B181A20FB11D2C919F5F48
S11350D0892382832093C6000BC0E1ECF0E0808139
S11350E08F7D808305C0E1ECF0E080818F7D80833B
S11350F0FF91EF91BF91AF919F918F912F910F905D
S11351000BBE0F900FBE0F901F9018951F920F9219
S11351100FB60F9211240BB60F922F933F934F9318
S11351205F936F937F938F939F93AF93BF93CF932B
S1135130DF93EF93FF93A091FF17B091001810979E
S113514011F16091CE001496ED91FC911597938125
S113515082812581981B92238481981761F0838131
S113516026952823C081D181C20FD11D68838F5F0A
S11351709581892383831696ED91FC911797309737
S113518011F0CD011995FF91EF91DF91CF91BF916E
S1135190AF919F918F917F916F915F914F913F91CB
S11351A02F910F900BBE0F900FBE0F901F9018956C
S11351B01F920F920FB60F9211240BB60F922F93DA
S11351C08F939F93AF93BF93EF93FF93E091FF1758
S11351D0F09100183097B9F00280F381E02D9381AB
S11351E082819817B1F092818581282F26952923F1
S11351F0A081B181A20FB11D2C919F5F892382836D
S11352002093CE000BC0E9ECF0E080818F7D808399
S113521005C0E9ECF0E080818F7D8083FF91EF9100
S1135220BF91AF919F918F912F910F900BBE0F90D3
S11352300FBE0F901F9018951F920F920FB60F92EA
S113524011240BB60F922F933F934F935F936F9359
S11352507F938F939F93AF93BF93CF93DF93EF93FA
S1135260FF93A0910118B0910218109711F1609169
S1135270D6001496ED91FC91159793818281258136
S1135280981B92238481981761F0838126952823A3
S1135290C081D181C20FD11D68838F5F958189231D
S11352A083831696ED91FC911797309711F0CD01F9
S11352B01995FF91EF91DF91CF91BF91AF919F919C
S11352C08F917F916F915F914F913F912F910F90AB
S11352D00BBE0F900FBE0F901F9018951F920F9248
S11352E00FB60F9211240BB60F922F938F939F93A7
S11352F0AF93BF93EF93FF93E0910118F0910218DD
S11353003097B9F00280F381E02D93818281981760
S1135310B1F092818581282F26952923A081B1811E
S1135320A20FB11D2C919F5F892382832093D60005
S11353300BC0E1EDF0E080818F7D808305C0E1ED5D
S1135340F0E080818F7D8083FF91EF91BF91AF91D9
S11353509F918F912F910F900BBE0F900FBE0F90C6
S11353601F9018951F920F920FB60F9211240BB62F
S11353700F922F933F934F935F936F937F938F93EA
S11353809F93AF93BF93CF93DF93EF93FF93A0913A
S11353900318B0910418109711F160913601149616
S11353A0ED91FC911597938182812581981B92231D
S11353B08481981761F0838126952823C081D18147
S11353C0C20FD11D68838F5F9581892383831696CD
S11353D0ED91FC911797309711F0CD011995FF913C
S11353E0EF91DF91CF91BF91AF919F918F917F9179
S11353F06F915F914F913F912F910F900BBE0F9042
S11354000FBE0F901F9018951F920F920FB60F9218
S113541011240BB60F922F938F939F93AF93BF9347
S1135420EF93FF93E0910318F09104183097B9F0CB
S11354300280F381E02D938182819817B1F09281EB
S11354408581282F26952923A081B181A20FB11D22
S11354502C919F5F89238283209336010BC0E1E363
S1135460F1E080818F7D808305C0E1E3F1E08081FC
S11354708F7D8083FF91EF91BF91AF919F918F9129
S11354802F910F900BBE0F900FBE0F901F90189589
S1135490CF93DF931F92CDB7DEB7BE016F5F7F4F0F
S11354A080910518909106187BDD8111F6CF8981D2
S11354B090E00F90DF91CF910895682F80910518A7
S11354C090910618EDDC80E090E008958F929F9211
S11354D0AF92CF92EF920F93812C912C6894AA24CF
S11354E0A7F86894CC24C7F8E12C00E023E040E05E
S11354F051EE60E070E032DC90930618809305185A
S1135500E1E7F8E183E192E09183808393838283EE
S11355100F91EF90CF90AF909F908F90089590E06F
S1135520FC01EE0FFF1FE80FF91FEE0FFF1FE95FED
S1135530F74E238121111FC09C01220F331FF90153
S1135540E80FF91FEE0FFF1FE95FF74EA081B1814D
S11355504C91F901E80FF91FEE0FFF1FE95FF74EB9
S113556081E090E0028002C0880F991F0A94E2F75C
S1135570842B8C930895FC01EE0FFF1FDF01A80F0D
S1135580B91FAA0FBB1FA95FB74E0D90BC91A02DE8
S11355902C91E80FF91FEE0FFF1FE95FF74E81E032
S11355A090E0028002C0880F991F0A94E2F7809568
S11355B082238C93089590E0FC01EE0FFF1FE80F07
S11355C0F91FEE0FFF1FE95FF74E2381211120C061
S11355D09C01220F331FF901E80FF91FEE0FFF1F83
S11355E0E95FF74EA081B1814C91F901E80FF91FF1
S11355F0EE0FFF1FE95FF74E81E090E0028002C0EA
S1135600880F991F0A94E2F7809584238C93089558
S1135610FC01EE0FFF1FDF01A80FB91FAA0FBB1F6C
S1135620A95FB74E0D90BC91A02D2C91E80FF91FE6
S1135630EE0FFF1FE95FF74E81E090E0028002C0A9
S1135640880F991F0A94E2F7822B8C930895CC2437
S1135650C394D12C6894BB24B2F8C7E0D8E110E01D
S11356608C81813081F018F1823061F5E881F98113
S11356702081C6010A8002C0880F991F0A94E2F7AC
S1135680822780831FC08D818F5F863010F48D83C5
S113569019C01D82E881F9812081C6010A8002C0F7
S11356A0880F991F0A94E2F7822780830BC00D812B
S11356B0002329F0812F7FDF01500D8303C0BC82BA
S11356C0812F2DDF1F5F2696143051F66CE070E0B9
S11356D080E090E00E946813C0CFEF92FF920F9396
S11356E01F93CF93DF93082F80E487B9C7E0D8E1F5
S11356F00F2EF8E2EF2EF12CF02DF982E88286E0ED
S11357008A831B8214E01C8380E009DF80E887B968
S1135710FF82EE8287E0888719861A8781E0FFDEA0
S113572080E283BB84E390E09D878C8785E08E874D
S11357301F86188B82E0F3DE80E18093010182E012
S113574091E09B8B8A8B1C8B1D8A1E8B83E0E7DE8A
S1135750E12CF12C20E030E040EC50E06DE078E00A
S113576087E29BE20E946310DF91CF911F910F911A
S1135770FF90EF900895CF93DF9390E0FC01EE0F3C
S1135780FF1FDF01A80FB91FAA0FBB1FA95FB74EE8
S1135790CD91DC911197488121E030E012960C9074
S11357A0129702C0220F331F0A94E2F7242728839A
S11357B0FD0181E08483DF91CF910895CF93DF933E
S11357C090E0FC01EE0FFF1FDF01A80FB91FAA0F25
S11357D0BB1FA95FB74ECD91DC911197488121E0A1
S11357E030E012960C90129702C0220F331F0A94D5
S11357F0E2F724272883FD0182E08483DF91CF919F
S11358000895282F30E0F901EE0FFF1FE20FF31F78
S1135810EE0FFF1FE95FF74E93E09483CCCE08951B
S1135820282F30E0F901EE0FFF1FE20FF31FEE0FF8
S1135830FF1FE95FF74E94E0948371CE089590E0E2
S1135840FC01EE0FFF1FDF01A80FB91FAA0FBB1F3A
S1135850A95FB74E26E015962C931597FD01148287
S1135860089590E0FC01EE0FFF1FDF01A80FB91FA0
S1135870AA0FBB1FA95FB74E15961C921597FD0181
S11358801482089580912D1881110CC08CE08093AE
S1135890B8008FEF8093BB0084E08093BC0081E06C
S11358A080932D180895AF92BF92CF92DF92EF921A
S11358B0FF920F931F93CF93DF93A82EB62E690107
S11358C07A0184E090E05FD3EC01892B61F1A88236
S11358D081E0B81212C0C701B60120EA36E841E0FF
S11358E050E027D3DA01C9014097A109B109B6955F
S11358F0A79597958795898311C0C701B60120E8BC
S11359003AE146E050E015D3DA01C9014097A10914
S1135910B109B695A7959795879589831B830A83C3
S11359208C2F9D2F02C080E090E0DF91CF911F91DA
S11359300F91FF90EF90DF90CF90BF90AF900895BC
S11359408091BC0081700895FF920F931F93CF93B1
S1135950DF930097D1F14A30D0F5F42E8B01EC019E
S1135960EFDF811136C08091201890912118C8175B
S1135970D90741F087DF89818093B800D09321183B
S1135980C093201881E08F0D809322188881880F9E
S113599080932318FF2089F0F801A4E2B8E14FEFC7
S11359A04F0D642F70E0CB010196B801680F791F89
S11359B081918D93E617F707D9F788EF8093210239
S11359C085EA8093BC0084E005C086E003C087E0DC
S11359D001C082E0DF91CF911F910F91FF90089554
S11359E01F93CF93DF93009729F16B3028F5162F7F
S11359F0EC01A6DF811122C080912018909121181A
S1135A00C817D90741F03EDF89818093B800D0934D
S1135A102118C0932018109322188881880F816060
S1135A208093231888EF8093210285EA8093BC0039
S1135A3085E005C086E003C087E001C082E0DF9115
S1135A40CF911F9108951F920F920FB60F921124B8
S1135A500BB60F922F933F934F935F936F937F9364
S1135A608F939F93AF93BF93EF93FF93E091B9000C
S1135A708E2F90E0FC013897E135F10508F075C0F0
S1135A808827E458FF4F8F4F76C210921F18E09179
S1135A901F1880912218E81770F481E08E0F80930C
S1135AA01F18F0E0ED5DF74E80818093BB0085E820
S1135AB08093BC0072C084E98093BC00809120185C
S1135AC090912118DC011296ED91FC911397309777
S1135AD009F463C020E040E050E064E019955DC043
S1135AE0E0911F1881E08E0F80931F188091BB00F6
S1135AF0F0E0ED5DF74E80838091B900803411F4BD
S1135B0010921F1820911F1830E08091221890E005
S1135B1001972817390724F485EC8093BC003DC015
S1135B2085E88093BC0039C08091BB00E0911F18C8
S1135B30F0E0ED5DF74E808384E98093BC008091B2
S1135B40201890912118DC011296ED91FC91139785
S1135B50309719F12091221843E258E165E0199534
S1135B601CC085EA8093BC0018C08091B900809362
S1135B70210284E08093BC00809120189091211828
S1135B80DC011296ED91FC911397309731F020E0EF
S1135B9040E050E0609121021995FF91EF91BF918F
S1135BA0AF919F918F917F916F915F914F913F91B1
S1135BB02F910F900BBE0F900FBE0F901F90189552
S1135BC0FC01411101C000D3842F90E09C012150BD
S1135BD0310982239323892B09F0F6D2413808F046
S1135BE0F3D2128213824483440F4150458371835C
S1135BF0608380E090E008955058BB27AA270ED018
S1135C0021C112D130F017D120F031F49F3F11F4AB
S1135C101EF407C10EF4E095E7FBFDC0E92F0E94D6
S1135C20972078F3BA17620773078407950720F063
S1135C3079F4A6F50C94B9200EF4E0950B2EBA2F46
S1135C40A02D0B01B90190010C01CA01A00111247E
S1135C50FF27591B99F0593F50F4503E68F11A162A
S1135C60F040A22F232F342F4427585FF3CF4695BB
S1135C7037952795A795F0405395C9F77EF41F16DD
S1135C80BA0B620B730B840BBAF09150A1F0FF0FA7
S1135C90BB1F661F771F881FC2F70EC0BA0F621F93
S1135CA0731F841F48F4879577956795B795F79583
S1135CB09E3F08F0B1CF9395880F08F09927EE0F17
S1135CC09795879508950DD0BDC0B5D048F0ACD058
S1135CD038F021F45F3F21F09EC051110C94BA209A
S1135CE0A0C00E94972088F39923B9F35523A1F308
