:10000000E5C0000004C1000002C1000000C1000002
:10001000FEC00000FCC00000FAC00000F8C00000F4
:10002000F6C00000F4C00000F2C00000F0C0000004
:10003000ACC70000ECC00000EAC00000E8C000004F
:10004000E6C00000E4C00000E2C00000E0C0000024
:10005000DEC00000DCC00000DAC00000D8C0000034
:10006000D6C000000C9412290C946429D0C0000062
:10007000CEC00000CCC00000CAC00000C8C0000054
:10008000C6C00000C4C00000C2C00000C0C0000064
:100090000C94A8290C94FA29BAC000000C94452E9F
:1000A000B6C00000B4C00000B2C00000B0C0000084
:1000B000AEC00000ACC00000AAC00000A8C0000094
:1000C000A6C00000A4C00000A2C000000C943E2AFC
:1000D0000C94902A9CC000000C94D42A0C94262BDB
:1000E00096C000009F1D9F1D9F1DD61DDE1DF31D88
:1000F0009F1D9F1DD61DDE1D672ED72ED72ED72EF6
:10010000D72ED72ED72ED72E672ED72ED72ED72E37
:10011000D72ED72ED72ED72E692ED72ED72ED72E25
:10012000D72ED72ED72ED72ED72ED72ED72ED72EA7
:10013000D72ED72ED72ED72E692ED72ED72ED72E05
:10014000D72ED72ED72ED72ED72ED72ED72ED72E87
:10015000D72ED72ED72ED72ED32ED72ED72ED72E7B
:10016000D72ED72ED72ED72E9E2ED72ED72ED72EA0
:10017000D72ED72ED72ED72ED72ED72ED72ED72E57
:10018000D72ED72ED72ED72E922ED72ED72ED72E8C
:10019000D72ED72ED72ED72EB62E0E94E00F8091C5
:1001A0005B16823008F02BD60E941C1EF6CFCF9330
:1001B000DF931F92CDB7DEB7CE0101960E941C1BC4
:1001C00049810E94111D0E94681DF6CF11241FBE97
:1001D000CFEFD1E2DEBFCDBF00E00CBF18E0A0E062
:1001E000B2E0E6EAFAE600E00BBF02C007900D922B
:1001F000A833B107D9F728E1A8E3B8E001C01D9200
:10020000A13AB207E1F70E9434210C945135F8CE9F
:10021000EF92FF920F93E12CF12C082F20E030E0B9
:1002200040EC50E06FE672E088EC91E00E94A7108D
:100230000F91FF90EF9008954F925F926F927F928F
:10024000AF92BF92CF92DF92EF92FF920F931F93E4
:10025000CF93DF93CDB7DEB766970FB6F894DEBFC6
:100260000FBECDBF5C012A013B0143E050E060E0DE
:1002700070E080915018909151180CD3CC24CA94FE
:10028000DC2C760101E021E043E050E060E070E02A
:1002900080917018909171185DD260935618709388
:1002A00057188093581890935918DC01CB0183702C
:1002B0009927AA27BB270397A105B10509F053C0C9
:1002C0000E94441F0E94111F0E94441F9F938F93FE
:1002D0008BE792E09F938F930E9433320E944F1FCF
:1002E0000E94181F0E944F1F9F938F9385E992E0F1
:1002F0009F938F930E94333281D00E940A1F7ED039
:100300009F938F938DEA92E09F938F930E94333255
:1003100062E0CE0101960E941F1F86E1FE01319628
:10032000AAE5B8E101900D928A95E1F763E070E0EB
:1003300080E090E00E94AC130FEF1FEF980146E1C0
:1003400050E06AE578E180914E1890914F180E9434
:10035000030DB301A201C5010E9447130FB6F89423
:10036000DEBF0FBECDBF66960FB6F894DEBF0FBEE0
:10037000CDBFDF91CF911F910F91FF90EF90DF9054
:10038000CF90BF90AF907F906F905F904F90089507
:10039000CF93DF9300D01F92CDB7DEB70E9431110B
:1003A00069837A838B839C8348EA58E460E070E039
:1003B000CE01019641DFF8CF9093741880937318A3
:1003C00041E050E060E070E0809170189091711809
:1003D00061C20895EF92FF920F93E12CF12C082F48
:1003E00020E030E040EC50E06FEB72E083E392E01D
:1003F0000E94A7100F91FF90EF90089580917318BD
:10040000909174180895CF92DF92EF92FF920F931C
:10041000CC24CA94DC2C760101E021E042E050E0DB
:1004200060E070E0809150189091511893D161FF75
:1004300014C066E070E080E090E00E94AC130E947F
:100440006E2780937218882341F088EC92E09F9386
:100450008F930E9433320F900F900F91FF90EF9087
:10046000DF90CF9008958CED91E00E946927CBDF5B
:10047000FECF0F93CF93DF93EC014CE050E060E0B0
:1004800070E080915418909155180E94910A813023
:1004900079F4D0937E18C0937D1800E020E030E01E
:1004A000A90160E070E08091541890915518BFD672
:1004B000DF91CF910F9108950F93CF93DF93EC01CC
:1004C0004FEF5FEFBA0180915418909155180E9438
:1004D000910A813079F4D0938418C093831800E096
:1004E00020E030E0A90160E070E080915418909124
:1004F00055189DD6DF91CF910F9108950F93CF930B
:10050000DF93EC014FEF5FEFBA01809154189091A7
:1005100055180E94910A813079F4D0938018C093C5
:100520007F1800E020E030E0A90160E070E08091F9
:100530005418909155187BD6DF91CF910F91089563
:100540000F93CF93DF93EC014FEF5FEFBA018091F0
:10055000541890915518E5D7813079F4D0938218CA
:10056000C093811800E020E030E0A90160E070E075
:1005700080915418909155185AD6DF91CF910F91D0
:1005800008958091831890918418089580917D1822
:1005900090917E1808958091811890918218089505
:1005A00080917F18909180180895EF92FF920F9399
:1005B0002091521830915318E12CF12C082F48E863
:1005C00051E06BED72E084E793E00E94A7100F9179
:1005D000FF90EF900895CF92DF92EF92FF920F93EA
:1005E0001F93CF93DF930FEF1FEF980146E150E089
:1005F00068E378E080915218909153180E940C0E95
:10060000892B09F468C0C8E3D8E0998188811F92DA
:100610009F931F928F938BEE92E09F938F930E94F4
:10062000333289810F900F900F900F900F900F90A1
:10063000883009F04AC06E010A8110E0102F0027AF
:100640008B81080F111D1F930F938DE193E09F93F2
:100650008F930E943332EC80F12CFE2CEE248D819E
:10066000E80EF11CFF92EF928FE293E09F938F933D
:100670000E943332FE01CE81D0E0DC2FCC2787816F
:10068000C80FD11DDF93CF9381E493E09F938F93A5
:100690000E943332F601808590E0982F88272185CB
:1006A0006C01C20ED11CC701E4DEC60127DFC80100
:1006B00003DF8C2F9D2F44DF8DB79EB70C960FB6AE
:1006C000F8949EBF0FBE8DBF06C064E574E280E063
:1006D00090E00E94AC13DF91CF911F910F91FF909A
:1006E000EF90DF90CF90089576DFFECF0F9301114A
:1006F0000CC0DC01CB0182239323A423B523892BD7
:100700008A2B8B2B79F480E010C0DC01CB01822393
:100710009323A423B523281739074A075B0721F041
:1007200080E003C081E001C081E00F910895CF9384
:10073000DF938FE090E0AFD1EC01009739F0FC013E
:100740001192119211921192CF018BD2CE01DF91B1
:10075000CF9108952F923F924F925F926F927F9226
:100760008F929F92AF92BF92CF92DF92EF92FF92C1
:100770000F931F93CF93DF93EC014A015B01622E2D
:10078000702E0E942B11288039804A805B80A50141
:100790009401C201B101AADF8823A1F0662089F18A
:1007A000D501C40180959095A095B09582219321A3
:1007B000A421B52188839983AA83BB83C12CD12C22
:1007C000760122C0C114D104E104F104E9F0611002
:1007D00004C040E050E0BA0104C040E050E060E0F6
:1007E00071E071107460482959296A297B299701A1
:1007F0008601CE0104960E944314212C312C210144
:1008000003C0C12CD12C76010E946B12CD28CE28BA
:10081000CF2859F1811101C0F2D20E9405186B0155
:100820007C0191FD1FC00FB6F8940F92C880D9804B
:10083000EA80FB80072DA5019401C701B60156DFB0
:10084000882371F0662061F080949094A094B09415
:100850008C209D20AE20BF2088829982AA82BB82F4
:100860000F900FBE160127015524C201B101DF917F
:10087000CF911F910F91FF90EF90DF90CF90BF909D
:10088000AF909F908F907F906F905F904F903F9030
:100890002F9008954F925F926F927F92AF92BF9286
:1008A000CF92DF92EF92FF920F931F93CF93DF933C
:1008B000EC016A017B018C01095F1F4F0E942B1123
:1008C000EB85FC8588819981AA81BB81C82AD92AB8
:1008D000EA2AFB2AC882D982EA82FB82C12CD12C67
:1008E00076013DC0A480B58080819181A281B381D1
:1008F000AC01BD017727B2FD0EC0488059806A80E7
:100900007B804422552266227722452846284728A4
:1009100089F420E012C0488059806A807B8044229C
:10092000552266227722441555056605770521F084
:1009300020E003C021E001C021E0222371F0B0FFDC
:1009400004C0C42AD52AE62AF72A488159816A8137
:100950007B817260CF010E947E15EA2DFB2DE0178E
:10096000F10709F0BFCFC094D094E094F09488814F
:100970009981AA81BB81C822D922EA22FB22C8829E
:10098000D982EA82FB820E946B12688179818A8116
:100990009B81DF91CF911F910F91FF90EF90DF909E
:1009A000CF90BF90AF907F906F905F904F900895E1
:1009B000EAE5F8E0AEE5B8E0B183A08313821282E5
:1009C000E6E0F6E1F0935908E093580813821282AA
:1009D0001182108288EA9DE013969C938E93129761
:1009E000ED93FC9390935508809354089093570887
:1009F0008093560880E090E890934F0880934E08CB
:100A00000895CF93DF93EC01AAE5B8E001C0DF01C0
:100A1000ED91FC911197EC17FD07C8F312968D919B
:100A20009C9113979D01280F391FC217D30749F4D2
:100A30002A813B81820F931F13969C938E9312976A
:100A4000ED018A819B819E01280F391FE217F30770
:100A5000C1F42091580830915908E217F30771F05A
:100A600022813381820F931F9B838A83ED91FC91B6
:100A70001197808191819983888305C03983288368
:100A800002C0F983E883CA17DB0711F0CD93DC932A
:100A9000DF91CF910895EF92FF920F931F93CF9321
:100AA000DF938C010E942B11809158089091590876
:100AB000892B09F47DDF80914E0890914F088023A7
:100AC0009123892B09F076C00115110549F0C80161
:100AD00004960817190718F000E010E001C08C0117
:100AE0000115110509F469C08091560890915708C5
:100AF0008017910708F464C0C0915A08D0915B0830
:100B0000EAE5F8E002C0FE01EC018A819B818017D2
:100B1000910720F4888199810097A9F7809158085E
:100B200090915908C817D90709F44DC0E080F180A9
:100B300084E0E80EF11C88819981918380832A8169
:100B40003B81201B310B2930310548F0CE01800F4D
:100B5000911FFC01338322831B830A8352DF2A8186
:100B60003B818091560890915708821B930B90937C
:100B7000570880935608409154085091550884179F
:100B8000950720F4909355088093540880914E085F
:100B900090914F08282B392B3B832A831982188286
:100BA0008091520890915308019690935308809336
:100BB00052080BC0E12CF12C08C0E12CF12C05C02F
:100BC000E12CF12C02C0E12CF12C0E946B12E114FB
:100BD000F10411F40E94281EC701DF91CF911F91EB
:100BE0000F91FF90EF9008950F931F93CF93DF9392
:100BF000009791F1EC0124974A815B8120914E0886
:100C000030914F08BA0162237323672B29F1688161
:100C10007981672B09F520953095242335233B8373
:100C20002A830E942B118A819B8120915608309142
:100C30005708820F931F9093570880935608CE0150
:100C4000E0DE8091500890915108019690935108F0
:100C5000809350080E946B12DF91CF911F910F91EA
:100C60000895FC010396928381834FEF5FEFBA01F1
:100C700043835483658376839087878392878187B4
:100C800010820895FC011386128608950F931F9316
:100C9000CF93DF93EB01088119812A813B810F3FBC
:100CA0004FEF14072407340721F4FC01A185B28516
:100CB00011C0DC01139601C0DF011496ED91FC9187
:100CC00015974081518162817381041715072607AA
:100CD000370790F71496ED91FC911597FD83EC83FF
:100CE000D783C683BF83AE831596DC93CE931497C8
:100CF0009B878A87FC0120812F5F2083DF91CF9122
:100D00001F910F910895CF93DF93FC01A285B385C6
:100D1000C481D581868197819F838E83C681D78147
:100D2000848195819D838C8311968D919C911297DE
:100D3000E817F90731F48681978112969C938E9378
:100D40001197138612868C9181508C938C91DF9130
:100D5000CF910895A89590EC88E10FB6F894A895E6
:100D6000809360000FBE909360000895FC01608343
:100D7000319770833197108231971082319720E834
:100D800020833197108231971082319710827797A4
:100D900040833197508386970895DCDFA091C91670
:100DA000B091CA16CD91CDBFDD91DEBFFF91EF911D
:100DB000DF91CF91BF91AF919F918F917F916F9173
:100DC0005F914F913F912F911F910F91FF90EF9065
:100DD000DF90CF90BF90AF909F908F907F906F905B
:100DE0005F904F903F902F901F900F900CBE0F90F0
:100DF0000BBE0F900FBE0F90089581E008950F92E3
:100E00000FB6F8940F920BB60F920CB60F921F927A
:100E100011242F923F924F925F926F927F928F9206
:100E20009F92AF92BF92CF92DF92EF92FF920F9379
:100E30001F932F933F934F935F936F937F938F9362
:100E40009F93AF93BF93CF93DF93EF93FF93A091C3
:100E5000C916B091CA160DB60D920EB60D920E942B
:100E6000C713A091C916B091CA16CD91CDBFDD911F
:100E7000DEBFFF91EF91DF91CF91BF91AF919F9135
:100E80008F917F916F915F914F913F912F911F9122
:100E90000F91FF90EF90DF90CF90BF90AF909F9019
:100EA0008F907F906F905F904F903F902F901F900A
:100EB0000F900CBE0F900BBE0F900FBE0F900895B9
:100EC0000F920FB6F8940F920BB60F920CB60F92CA
:100ED0001F9211242F923F924F925F926F927F92B6
:100EE0008F929F92AF92BF92CF92DF92EF92FF923A
:100EF0000F931F932F933F934F935F936F937F9322
:100F00008F939F93AF93BF93CF93DF93EF93FF9311
:100F1000A091C916B091CA160DB60D920EB60D92DB
:100F200013BE0E943F1181110E94C713A091C916E0
:100F3000B091CA16CD91CDBFDD91DEBFFF91EF918B
:100F4000DF91CF91BF91AF919F918F917F916F91E1
:100F50005F914F913F912F911F910F91FF90EF90D3
:100F6000DF90CF90BF90AF909F908F907F906F90C9
:100F70005F904F903F902F901F900F900CBE0F905E
:100F80000BBE0F900FBE0F9008959ADF1895DC01ED
:100F900053962C915397222341F05A96ED91FC9150
:100FA0005B9790818AE0891B089580E008950FB6D1
:100FB000F8940F92FC01868D811102C081E001C07E
:100FC00080E00F900FBE08950FB6F8940F92FC01C9
:100FD000268D878D281302C081E001C080E00F902C
:100FE0000FBE08950F931F93CF93DF93EC01042F4F
:100FF0001E8D48A141110CC088819981892B09F06F
:1010000042C08C819D810E9443171D821C8242C078
:10101000011117C050E08A819B810E94D43128A120
:101020008A819B81820F911D9B838A832C813D81C4
:101030008217930750F1888199819B838A8380E08E
:1010400029C050E08E819F810E94D43188A190E018
:101050009195819591092E813F81280F391F3F83FA
:101060002E83488159812417350730F42C813D8126
:10107000820F931F9F838E83023049F4112349F01E
:10108000115080E007C080E005C080E003C080E030
:1010900001C080E01F5F1E8FDF91CF911F910F91E4
:1010A0000895FC0140A14423A9F050E02681378136
:1010B000240F351F378326838481958128173907AC
:1010C00020F08081918197838683CB01668177812F
:1010D0000C94D43108951F93CF93DF93EC010FB696
:1010E000F8940F921AA10BC08B89882351F0CE017E
:1010F00043960E94CF1481110E94A516115011161B
:101100009CF38FEF8AA30F900FBE0FB6F8940F9247
:1011100019A10BC08885882351F0CE0108960E9442
:10112000CF1481110E94A516115011169CF38FEF58
:1011300089A30F900FBEDF91CF911F910895CF9398
:10114000DF93EC010FB6F8940F92E881F9818F8D4F
:1011500028A190E030E0829FA001839F500D929FD4
:10116000500D11244E0F5F1F5D834C831E8EFB8339
:10117000EA830197289FA001299F500D389F500DA9
:101180001124CF01840F951F9F838E838FEF89A336
:101190008AA361110BC08885882371F0CE0108965F
:1011A0000E94CF14882341F02ADE06C0CE010896A3
:1011B00058DDCE01439655DD0F900FBE81E0DF91E3
:1011C000CF9108950F931F93F801611103C011830C
:1011D000008302C051834083878F60A361E0CF0109
:1011E000AEDF1F910F910895DF92EF92FF920F9360
:1011F0001F93CF93DF93F82EE62ED42E869FC00147
:101200001124839648DCEC01009741F08C012D2DD0
:10121000AC014D5D5F4F6E2D8F2DD4DFCE01DF9180
:10122000CF911F910F91FF90EF90DF900895CF9293
:10123000DF92EF92FF920F931F93CF93DF93CDB77F
:10124000DEB729970FB6F894DEBF0FBECDBF7C0185
:101250006B012E833F834887598710E00FB6F894BF
:101260000F92F701968D878D981710F00230B1F428
:10127000402FB601C701B6DEF7019389992341F0EB
:10128000C70143960E94CF14882321F0B8DD02C025
:101290008111B5DD0F900FBE81E04CC08E819F8122
:1012A000A885B985892B8A2B8B2B21F40F900FBE33
:1012B00080E040C0111105C0CE0101960E942E169B
:1012C00011E00F900FBEC7D70FB6F8940F92F70139
:1012D00081A18F3F09F411A2F70182A18F3F09F488
:1012E00012A20F900FBEBE016A5F7F4FCE01019622
:1012F0000E943F16811119C0C70166DE882381F064
:101300004E815F8168857985C70108960E942C14FB
:10131000C701E1DE0E946B128111A0CF70DD9ECF6C
:10132000C701D9DE0E946B1299CFC701D4DE0E949B
:101330006B1280E029960FB6F894DEBF0FBECDBFCA
:10134000DF91CF911F910F91FF90EF90DF90CF90A1
:1013500008950F93009769F0FC01158214821182A1
:101360001082168200E020E030E0A90160E070E029
:101370005EDF0F910895CF93DF93482F60E081E007
:1013800033DFEC01E6DFCE01DF91CF910895EF92DC
:10139000FF920F931F93CF93DF938A01FC01568D29
:1013A000378D531710F02230F9F4422F7801EC01F9
:1013B0001AA18E8DCE0116DE1F3F81F48B89882302
:1013C000A9F0CE0143960E94CF14882389F0E1143E
:1013D000F10481F081E0F70180830DC0FF24F394D4
:1013E000F10EFAA281E007C080E005C081E003C0F1
:1013F00081E001C081E0DF91CF911F910F91FF90BB
:10140000EF900895CF92DF92EF92FF920F931F9388
:10141000CF93DF93CDB7DEB729970FB6F894DEBF31
:101420000FBECDBF8C016B012E833F834887598748
:10143000E12C0FB6F8940F92F801F68CFF2099F08A
:10144000B601C8012EDEFA94F801F68E8085882355
:1014500031F0C80108960E94CF148111D0DC0F90A2
:101460000FBE81E04FC08E819F81A885B985892BF1
:101470008A2B8B2B21F40F900FBE80E043C0E1102C
:1014800006C0CE0101960E942E16EE24E3940F9022
:101490000FBEE1D60FB6F8940F92F80181A18F3FED
:1014A00009F411A2F80182A18F3F09F412A20F9052
:1014B0000FBEBE016A5F7F4FCE0101960E943F16AC
:1014C000811117C0C80173DD882379F04E815F81D7
:1014D00068857985C80143960E942C14C801FBDDFC
:1014E000FAD78111A6CF8BDCA4CFC801F4DDF3D7E6
:1014F000A0CFC801F0DDEFD7C80159DD882309F47A
:1015000098CF80E029960FB6F894DEBF0FBECDBF0E
:10151000DF91CF911F910F91FF90EF90DF90CF90CF
:101520000895EF92FF920F931F93CF93DF93CDB760
:10153000DEB729970FB6F894DEBF0FBECDBF8C0182
:101540004E835F8368877987E12CF12C0FB6F8947E
:101550000F92F801868D8823C9F08150868F808193
:101560009181892B29F40E942F18F8019583848397
:10157000F8018085882331F0C80108960E94CF14B5
:1015800081113DDC0F900FBE81E06FC08E819F8185
:10159000A885B985892B8A2B8B2B21F40F900FBE40
:1015A00080E063C0F11006C0CE0101960E942E16A5
:1015B000FF24F3940F900FBE4ED60FB6F8940F92FF
:1015C000F80181A18F3F09F411A2F80182A18F3F98
:1015D00009F412A20F900FBEBE016A5F7F4FCE01C9
:1015E00001960E943F16811126C0C801E0DC8823C5
:1015F000F1F0F80180819181892B51F40FB6F894B4
:101600000F92848195810E94BC16E82E0F900FBE28
:101610004E815F8168857985C80143960E942C14AC
:10162000C80159DD58D7811191CFE9DB8FCFC801AF
:1016300052DD51D78BCFC8014EDD4DD7C801B7DC85
:10164000882309F483CFEE2079F00FB6F8940F9237
:10165000C8019DDC682FF801848195810E949E1746
:101660000F900FBE80E001C080E029960FB6F8947D
:10167000DEBF0FBECDBFDF91CF911F910F91FF90C5
:10168000EF900895CF93DF93EC010FB6F8940F928B
:1016900089A18F3F09F419A28AA18F3F09F41AA2E8
:1016A0000F900FBE8E8D811104C0CE0143960E9413
:1016B0008D14CE0110DDDF91CF910895FC0144819E
:1016C000558122813381240F351F80819181B90199
:1016D000681B790BCB016417750710F0841B950B01
:1016E00008950F93FC018FE0DF011D928A95E9F7C1
:1016F00075876487558344833783268306870F91D4
:101700000895AF92BF92CF92DF92EF92FF920F9324
:101710001F93CF93DF936C015B017A01FC01C281BF
:10172000D381048115810C1B1D0B4017510708F450
:101730008A01F60184859585A801B5018C0F9D1F4E
:101740000E94D4310E151F0558F4A701401B510B00
:10175000B501600F711FF601848595850E94D43113
:10176000CE018E0D9F1DF6012481358182179307CE
:1017700010F0821B930BF60193838283C701DF91E4
:10178000CF911F910F91FF90EF90DF90CF90BF907E
:10179000AF900895CF92DF92EF92FF920F931F9335
:1017A000CF93DF931F921F92CDB7DEB77C016B0101
:1017B0005A83498321153105C1F0FC01868580FDDE
:1017C00008C04217530708F49A013A83298381E03D
:1017D0000FC02017310758F042E050E0BE016F5FA4
:1017E0007F4FC7018EDF81E003C080E001C080E051
:1017F000882331F049815A81B601C70182DF02C0D6
:1018000080E090E00F900F90DF91CF911F910F91AA
:10181000FF90EF90DF90CF900895AF92BF92CF925C
:10182000DF92EF92FF920F931F93CF93DF937C0190
:101830005B01E9014217530708F4EA01209781F19F
:10184000F7010081118184819581801B910B6E01CC
:101850008C179D0708F46C01F70164857585600F8E
:10186000711FA601C5010E94D431CC16DD0658F4C3
:10187000AE014C195D09F70164857585C5018C0DB4
:101880009D1D0E94D4310C0F1D1FF701848195818D
:101890000817190710F0081B190BF70111830083B3
:1018A000CE01DF91CF911F910F91FF90EF90DF90CC
:1018B000CF90BF90AF9008956F927F928F929F923A
:1018C000AF92BF92CF92DF92EF92FF920F931F934E
:1018D000CF93DF931F921F92CDB7DEB76C014B0100
:1018E0005A01790101151105B1F0FC016080718088
:1018F000A801BE016F5F7F4F90DF89819A81E01A56
:10190000F10AA816B90630F4F60171826082A12CA2
:10191000B12C01C05C019701A501B401C6017DDFB6
:101920000F900F90DF91CF911F910F91FF90EF904B
:10193000DF90CF90BF90AF909F908F907F906F90EF
:101940000895CF92DF92EF92FF920F93CF93DF93A0
:10195000EC016B01413011F401E001C000E0C11461
:10196000D10419F4CC24C394D12CCE014096C817CD
:10197000D90720F421968FD87C0102C0E12CF12CEC
:10198000E114F10439F09601AE01B701615F7F4FB8
:10199000C701A7DEC701DF91CF910F91FF90EF90B4
:1019A000DF90CF9008950F930FB6F8940F92FC013B
:1019B00020853185232B71F422853385232B61F417
:1019C000268137814481558164857585068589DE48
:1019D00081E003C080E001C080E00F900FBE0F9156
:1019E0000895FC012481358180819181820F931FAC
:1019F00042815381841B950B01978217930710F046
:101A0000821B930B08952F923F924F925F926F9299
:101A10007F928F929F92AF92BF92CF92DF92EF927E
:101A2000FF920F931F93CF93DF93CDB7DEB72B9722
:101A30000FB6F894DEBF0FBECDBF4C017B876A871F
:101A40001A010E831F8328873987FC0184819581C1
:101A50000197268520FF0CC02A01F2E04F0E511C91
:101A60008415950558F41E821F821886198606C0B3
:101A70008417950710F02A0101C02C018E819F81E7
:101A8000A885B985892B8A2B8B2B09F438C0CE0108
:101A900001960E9418160FB6F8940F92C401A1DFA8
:101AA0003C018415950540F560E080E090E00E94DF
:101AB000021B0E94A916F401938782870F900FBE24
:101AC000AE80BF80C884D984E12CF12C00E010E006
:101AD000980140E050E0BA0180E00E944118F40112
:101AE00013861286BE016A5F7F4FCE0101960E9467
:101AF0003F16882381F205C00F900FBE02C0612CF3
:101B0000712C6114710419F4C4016BDF3C01820172
:101B10009301A1016A857B85C4013CDE6C01892BA0
:101B2000E9F0C401CBDDF4012681378182179307E8
:101B3000A8F091D3F40180859185892B71F080857F
:101B40009185E12CF12C00E020E030E0A90160E07B
:101B50000E94E918F40111861086BDD4C6012B96A7
:101B60000FB6F894DEBF0FBECDBFDF91CF911F91AE
:101B70000F91FF90EF90DF90CF90BF90AF909F902C
:101B80008F907F906F905F904F903F902F9008952F
:101B9000AF92BF92CF92DF92EF92FF920F931F937B
:101BA000CF93DF93EC017B015A0169018E8580FFA1
:101BB00004C08A010E5F1F4F01C08A01CE0111DFF0
:101BC0009C01A501B701CE01E5DD5C01892BC1F0C7
:101BD000CE0174DD2E813F818217930788F08885BE
:101BE0009985892B69F088859985E12CF12C00E095
:101BF00020E030E0A90160E00E94E0191986188613
:101C0000C501DF91CF911F910F91FF90EF90DF9071
:101C1000CF90BF90AF9008954F925F926F927F9256
:101C20008F929F92AF92BF92CF92DF92EF92FF92EC
:101C30000F931F93CF93DF93EC012B013A015801CF
:101C400069018E8580FF05C06894882481F8912CF5
:101C500002C0812C912CA114B104C104D10441F122
:101C60000FB6F8940F92CE0129DD7C0188169906F3
:101C700048F060E080E090E00E94021B0E94A916FC
:101C8000998788870F900FBE8E149F04A0F0E12CD7
:101C9000F12C00E010E0980140E050E0BA0180E053
:101CA0000E94411819861886CE0108DD7C0103C008
:101CB000CE0104DD7C018E149F04E8F484019701B9
:101CC000A301B201CE01F8DD6C01892BB1F0C3D2C2
:101CD0008A859B85892B69F08A859B85E12CF12C6F
:101CE00000E020E030E0A90160E00E94E9181B86D6
:101CF0001A86F1D302C0C12CD12CC601DF91CF913D
:101D00001F910F91FF90EF90DF90CF90BF90AF9019
:101D10009F908F907F906F905F904F900895E0918B
:101D20004316F0914416808181110CC08FEF9FEF14
:101D3000DC0180930D1690930E16A0930F16B093AE
:101D400010160895E0914316F09144160780F0852F
:101D5000E02D80819181A281B38180930D169093B3
:101D60000E16A0930F16B09310160895CF93DF931D
:101D7000EC018B8D9C8D0E94F405CE010E94F40530
:101D8000DF91CF9108954F925F926F927F928F92E1
:101D90009F92AF92BF92CF92DF92EF92FF920F93FA
:101DA000CF93DF932C015B014A013901E60165EA1B
:101DB00070E08B8D9C8D0E94DD318B8D9C8D21E0A0
:101DC000821A9108880E991EA114B10489F415C0D5
:101DD000822F90E0F501E80FF91F3081DE01A80F96
:101DE000B91F5D963C938081882329F02F5F01C045
:101DF00020E0203168F31CA601C01D8E0A3008F0D7
:101E000009E00A8F0DA71EA6CE0102960E94420687
:101E1000CE010E960E944206DB87CA878AE090E0D8
:101E2000A0E0B0E0801B9109A109B1098E879F87CE
:101E3000A88BB98BDF8BCE8B84E0FE01BF96DF01D0
:101E40001D928A95E9F71BAAA301B201C4010E9461
:101E5000B60699838883E114F10419F0F701D18360
:101E6000C083DF91CF910F91FF90EF90DF90CF90E3
:101E7000BF90AF909F908F907F906F905F904F90AA
:101E80000895CF93C0E009C02BE0C29FC001112488
:101E9000855A994E0E943106CF5FCA30A8F380E57B
:101EA00096E10E94310685E496E10E94310686E3C0
:101EB00096E10E9431068BE296E10E9431068FE1A5
:101EC00096E10E94310680E596E190934416809356
:101ED000431685E496E19093421680934116CF9184
:101EE0000895CF93DF93EC010FB6F8940F92809191
:101EF0001E168F5F80931E168091C9169091CA1688
:101F0000892B51F4D093CA16C093C91680911E161E
:101F1000813091F4B6DF10C08091181681110CC089
:101F2000E091C916F091CA16928D8A8D891720F01A
:101F3000D093CA16C093C916809111168F5F8093F3
:101F40001116EA8D809119168E1710F4E093191668
:101F50008BE08E9FF0011124E55AF94E0180F28149
:101F6000E02DFF83EE832681378139872887A6817C
:101F7000B7819E012E5F3F4F15963C932E93149789
:101F800037832683EA8D8E9FF0011124E55AF94E9E
:101F9000FD87EC8780818F5F80830F900FBE8091DB
:101FA0001816882351F0E091C916F091CA16928D47
:101FB0008A8D981710F40E94FF06DF91CF91089543
:101FC000CF93DF931BC00FB6F8940F92E0913216B7
:101FD000F0913316C085D185CE0102960E9483060A
:101FE00080911E16815080931E1680912A16815072
:101FF00080932A160F900FBECE01B8DE80912A166C
:102000008111E1CFDF91CF9108958F929F92AF928E
:10201000BF92CF92DF92EF92FF92CF93DF936B014B
:102020007C01C42F80901A1690901B16A0901C164D
:10203000B0901D168091C9169091CA1602960E9402
:1020400083068FEFC816D806E806F806B1F5CC234C
:10205000A1F1EFE1F6E1A181B281C091C916D09161
:10206000CA16BF83AE83C091C916D091CA16169600
:102070008D919C911797998788871696CD91DC91C1
:1020800017978091C9169091CA1602969D838C83EA
:102090008091C9169091CA16029617969C938E93BA
:1020A0001697A091C916B091CA161D96FC93EE938F
:1020B0001C9780818F5F80833FC0C80CD91CEA1CAD
:1020C000FB1CE091C916F091CA16C282D382E48249
:1020D000F582C814D904EA04FB0468F46091C916B7
:1020E0007091CA1680914116909142166E5F7F4F93
:1020F0000E94460621C06091C9167091CA1680914F
:102100004316909144166E5F7F4F0E944606809161
:102110000D1690910E16A0910F16B0911016C816BC
:10212000D906EA06FB0640F4C0920D16D0920E16B0
:10213000E0920F16F0921016DF91CF91FF90EF9082
:10214000DF90CF90BF90AF909F908F9008952F9287
:102150003F924F925F926F927F928F929F92AF9237
:10216000BF92CF92DF92EF92FF920F93CF93DF93C4
:102170003C011B014A012901CA010E944B056C0167
:10218000892B71F084E390E00E944B05EC01892BD0
:1021900019F0DC8ECB8E06C0C6010E94F40502C089
:1021A000C0E0D0E0209761F0A12CB12C6E0192012B
:1021B000A401B101C301E7DDCE0193DE81E001C0DE
:1021C0008FEFDF91CF910F91FF90EF90DF90CF9045
:1021D000BF90AF909F908F907F906F905F904F9047
:1021E0003F902F900895EF92FF920F930F2EFBE0F8
:1021F000EF2EF6E1FF2EF02D00E020E030E040EC85
:1022000050E060E573E08DEC90E0A1DF813011F4E7
:102210000E94A61B8130C9F4F8948FEF9FEFDC0178
:1022200080930D1690930E16A0930F16B093101670
:1022300081E08093181610921A1610921B161092B5
:102240001C1610921D160E94CD06809106020F9159
:10225000FF90EF90089580910A168F5F80930A1681
:1022600008950FB6F8940F9260911A1670911B168C
:1022700080911C1690911D160F900FBE0895CF925D
:10228000DF92EF92FF92CF93DF9380910A16811134
:1022900005C1C0901A16D0901B16E0901C16F09045
:1022A0001D168FEFC81AD80AE80AF80AC0921A1643
:1022B000D0921B16E0921C16F0921D16C114D10488
:1022C000E104F104B1F480914316909144162091F9
:1022D0004116309142163093441620934316909342
:1022E000421680934116809112168F5F80931216CA
:1022F00016DD80910D1690910E16A0910F16B091DB
:102300001016C816D906EA06FB0620F480E0B2C013
:1023100081E001C080E0E0914316F0914416908185
:1023200091110CC04FEF5FEFBA0140930D1650931F
:102330000E1660930F16709310169CC0E091431612
:10234000F09144160780F085E02D0084F185E02DA2
:102350004281538164817581C416D506E606F7066D
:1023600048F440930D1650930E1660930F16709319
:10237000101680C0A485B585C681D781208531859A
:102380003F832E83C085D185268137813D832C8371
:1023900011964D915C9112979F012E5F3F4F42170E
:1023A000530731F44085518512965C934E931197F3
:1023B000158614869C9191509C93A08DB18D109799
:1023C00009F1C289D389448955895F834E83C489C1
:1023D000D589428953895D834C8311966D917C9197
:1023E0001297AF01425F5F4F6417750731F444895C
:1023F000558912965C934E931197118E108E9C9175
:1024000091509C93A28D909119169A1710F4A09355
:1024100019169BE09A9FD0011124A55AB94E119626
:102420000D90BC91A02DB783A68316964D915C911B
:102430001797518740871696CD91DC9117973D836A
:102440002C8317963C932E931697A28D9A9FD001BA
:102450001124A55AB94EB587A4879C919F5F9C9380
:10246000228DE091C916F091CA16928D291708F0B5
:102470004FCF51CFE091C916F091CA16E28D9BE083
:10248000E99FF0011124E55AF94E9081923008F04D
:1024900081E090911316911116C016C08091141608
:1024A00090911516A0911616B09117160196A11DC0
:1024B000B11D8093141690931516A0931616B09321
:1024C000171680E001C081E0DF91CF91FF90EF907F
:1024D000DF90CF900895CF92DF92EF92FF92CF934B
:1024E000DF930FB6F8940F9280910A168150809373
:1024F0000A1680910A168111BEC080911E168111A4
:1025000088C0BCC0E0913D16F0913E160084F18574
:10251000E02DA08DB18DC289D389848995899F834F
:102520008E83C489D589828993899D838C831196F2
:102530002D913C911297CF010E962817390731F44F
:102540008489958912969C938E931197118E108E83
:102550008C9181508C93A485B585C681D781808567
:1025600091859F838E83C085D185868197819D8348
:102570008C8311968D919C9112979F012E5F3F4FF6
:102580008217930731F48085918512969C938E93E0
:102590001197158614868C9181508C93A28D809111
:1025A00019168A1710F4A09319168BE08A9FD00190
:1025B0001124A55AB94E11960D90BC91A02DB78348
:1025C000A68316964D915C91179751874087169672
:1025D000CD91DC9117973D832C8317963C932E93D6
:1025E0001697A28D8A9FD0011124A55AB94EB5879E
:1025F000A4878C918F5F8C93928DA091C916B09116
:10260000CA165A968C91981730F081E08093131671
:1026100002C0E0E0F0E080913616811173CFEF2B1D
:1026200009F07DDBC0901416D0901516E0901616B8
:10263000F0901716C114D104E104F104A1F01FDEDB
:10264000882319F081E08093131681E0C81AD1081D
:10265000E108F108A1F710921416109215161092C5
:1026600016161092171680911316882331F00E94C7
:10267000FF0681E003C080E001C080E00F900FBE44
:10268000DF91CF91FF90EF90DF90CF9008958F92E0
:102690009F92AF92BF92CF92DF92EF92FF921F93E1
:1026A000CF93DF93EC016A017B01D5DD80901A1690
:1026B00090901B16A0901C16B0901D1688819981D1
:1026C000AA81BB81AC01BD014C0D5D1D6E1D7F1D3E
:1026D00088169906AA06BB0660F4481759076A07C8
:1026E0007B0798F484169506A606B70680F010E0DE
:1026F00013C0481759076A077B0758F084169506D8
:10270000A606B70640F010E007C010E005C011E0D3
:1027100003C011E001C011E0488359836A837B83C1
:10272000112341F0CB01BA01681979098A099B0983
:1027300040E06BDCD0DE811102C00E94FF06812FD9
:10274000DF91CF911F91FF90EF90DF90CF90BF90DE
:10275000AF909F908F900895CF92DF92EF92FF926B
:102760006B017C01672B682B692B39F074DD40E02D
:10277000C701B6014ADCAFDE01C080E0811102C0B2
:102780000E94FF06FF90EF90DF90CF900895809118
:102790000A16882321F081E0809313160895109281
:1027A0001316E091C916F091CA1620813181E0918B
:1027B000C916F091CA16838D948D8217930760F025
:1027C0006091C9167091CA16635E7F4F8091C916D9
:1027D0009091CA160E94341E8091191601C0815032
:1027E000282F30E09BE0929FF001939FF00D112481
:1027F000E55AF94E9081992391F39BE0929FA001B5
:10280000939F500D1124DF010180F281E02D04809F
:10281000F581E02D1296FC93EE931197425A594E92
:10282000E417F50729F444815581FD015283418362
:102830009BE0929FF001939FF00D1124E55AF94E11
:102840000180F281E02D208531853093CA162093D6
:10285000C916809319160895CF92DF92EF92FF92D6
:102860006A017B016091C9167091CA16625F7F4F41
:102870000E94460641E0C701B601C7DBFF90EF901A
:10288000DF90CF9008950F931F93CF93DF93FC01B8
:10289000A091C916B091CA1670681E964D935D93AB
:1028A0006D937C935197A181B281C091C916D0914B
:1028B000CA16BB8BAA8BC091C916D091CA161696A0
:1028C0008D919C9117979D8B8C8B1696CD91DC9159
:1028D00017978091C9169091CA160E969D838C8386
:1028E0008091C9169091CA160E9617969C938E9356
:1028F0001697A091C916B091CA165996FC93EE93FB
:10290000589780818F5F808341E0C901B8017DDBEA
:10291000DF91CF911F910F910895CF93DF93FC0129
:10292000CB01BA01A181B281C091C916D091CA165A
:10293000BB8BAA8BC091C916D091CA1616964D9121
:102940005C9117975D8B4C8B1696CD91DC91179708
:102950004091C9165091CA16425F5F4F5D834C8308
:102960004091C9165091CA16425F5F4F17965C930B
:102970004E931697A091C916B091CA165996FC931A
:10298000EE93589730813F5F3083222319F06FEF29
:102990007FEFCB01422F39DBDF91CF910895CF93A9
:1029A000DF93DC011796ED91FC9118970084F18577
:1029B000E02DA08DB18DC289D389848995899F83AB
:1029C0008E83C489D589828993899D838C8311964E
:1029D0008D919C9112979F01225F3F4F8217930721
:1029E00031F48489958912969C938E931197118E58
:1029F000108E8C9181508C9380910A16811152C057
:102A0000A485B585C681D781808591859F838E8376
:102A1000C085D185868197819D838C8311968D9108
:102A20009C9112979F012E5F3F4F8217930731F4BD
:102A30008085918512969C938E93119715861486A6
:102A40008C9181508C93A28D809119168A1710F465
:102A5000A09319168BE08A9FD0011124A55AB94E74
:102A600011960D90BC91A02DB783A68316964D911B
:102A70005C911797518740871696CD91DC911797F7
:102A80003D832C8317963C932E931697A28D8A9F95
:102A9000D0011124A55AB94EB587A4878C918F5FB8
:102AA0008C931CC046E356E1DA011196CD91DC917E
:102AB0001297D38BC28B8E819F81958B848B8E8155
:102AC0009F81DC0115963C932E9314973F832E83B0
:102AD000518F408FDA018C918F5F8C93928DE091B2
:102AE000C916F091CA16828D891720F481E080936F
:102AF000131601C080E0DF91CF910895CF93DF934B
:102B0000DC0170684D935D936D937C9313971896D9
:102B1000ED91FC9119971A964D915C911B97149623
:102B20008D919C91159716962D913C911797EC01DC
:102B30003F832E8316968D919C91179714962D9115
:102B40003C911597EC013D832C83EA0189819A81A0
:102B5000A817B90731F416968D919C9117979A830F
:102B600089831B961C921E921A97DA018C918150D0
:102B70008C93A485B585C681D781808591859F83F7
:102B80008E83C085D185868197819D838C831196A4
:102B90008D919C9112979F012E5F3F4F8217930753
:102BA00031F48085918512969C938E9311971586AA
:102BB00014868C9181508C93A28D809119168A175E
:102BC00010F4A09319168BE08A9FD0011124A55A06
:102BD000B94E11960D90BC91A02DB783A683169681
:102BE0004D915C911797518740871696CD91DC9156
:102BF00017973D832C8317963C932E931697A28D9F
:102C00008A9FD0011124A55AB94EB587A4878C910B
:102C10008F5F8C93928DE091C916F091CA16828DC8
:102C2000891718F481E080931316DF91CF910895EE
:102C30000FB6F8940F9220911216FC012083409158
:102C40001A1650911B1660911C1670911D16418327
:102C50005283638374830F900FBE089520911216E0
:102C6000FC01208340911A1650911B1660911C168E
:102C700070911D16418352836383748308958F92EC
:102C80009F92AF92BF92CF92DF92EF92FF920F93FB
:102C90001F93CF93DF93FB010FB6F8940F92C09070
:102CA0001A16D0901B16E0901C16F0901D16DC0131
:102CB00011960D911D912D913C911497460157014C
:102CC000801A910AA20AB30A4081518162817381FC
:102CD0004F3FBFEF5B076B077B0739F1EC01B88112
:102CE000A0911216BA1759F0C016D106E206F306E3
:102CF00030F0108211821282138281E017C0841694
:102D00009506A606B70658F4481959096A097B09B9
:102D10004083518362837383A1DF80E007C0108208
:102D200011821282138281E001C080E00F900FBEF9
:102D3000DF91CF911F910F91FF90EF90DF90CF9097
:102D4000BF90AF909F908F90089581E0809313166D
:102D500008958091C9169091CA1608958091181609
:102D6000882331F080910A16811104C082E0089511
:102D700081E0089580E008950F931F93CF93DF9330
:102D8000FC01892B09F477C0828DA091C916B091FE
:102D9000CA165A969C91891708F063C046855785D4
:102DA00060897189772394F0A091C916B091CA16F1
:102DB0005A969C914AE050E060E070E0491B51094E
:102DC0006109710946875787608B718B248535852A
:102DD0004BE0849FC0011124855A994E281739076A
:102DE000B9F5EF018F010E5F1F4FC8010E948306E6
:102DF000E091C916F091CA16E28DEA8F80911916FA
:102E00008E1710F4E09319168BE08E9FF0011124B9
:102E1000E55AF94E0180F281E02DFF83EE83268191
:102E2000378139872887A681B78115961C930E9321
:102E3000149717830683EA8D8E9FF0011124E55ABB
:102E4000F94EFD87EC8780818F5F808381E016C01B
:102E5000A091C916B091CA165A968C91828F81E0C2
:102E60000DC095A5E091C916F091CA16828D9817EC
:102E700020F080E003C080E001C081E0DF91CF91CD
:102E80001F910F9108950F931F93CF93DF93FC0130
:102E9000892B09F449C086A5815086A7228D95A566
:102EA000291709F443C0811143C0EF018F010E5F60
:102EB0001F4FC8010E948306EDA5EA8F8AE090E0CB
:102EC000A0E0B0E08E1B9109A109B1098E879F8710
:102ED000A88BB98B809119168E1710F4E0931916F0
:102EE0008BE08E9FF0011124E55AF94E0180F281AA
:102EF000E02DFF83EE832681378139872887A681DD
:102F0000B78115961C930E93149717830683EA8D49
:102F10008E9FF0011124E55AF94EFD87EC878081E0
:102F20008F5F808381E005C080E003C080E001C046
:102F300080E0DF91CF911F910F9108950F931F9320
:102F4000CF93DF93FC01892B09F45AC085A586171E
:102F500008F4862F928D891709F452C026A52130D6
:102F600009F04EC0828F4685578560897189772325
:102F700064F04AE050E060E070E0481B51096109EC
:102F8000710946875787608B718B248535854BE0A7
:102F9000949FC0011124855A994E2817390781F54D
:102FA000EF018F010E5F1F4FC8010E948306EA8D5B
:102FB000809119168E1710F4E09319168BE08E9FEE
:102FC000F0011124E55AF94E0180F281E02DFF83D2
:102FD000EE832681378139872887A681B7811596A8
:102FE0001C930E93149717830683EA8D8E9FF0012E
:102FF0001124E55AF94EFD87EC8780818F5F80832D
:10300000DF91CF911F910F910895CF92DF92EF92B0
:10301000FF92E091C916F091CA166685778580897E
:103020009189E091C916F091CA16A091C916B09184
:10303000CA165A962C910F2EFAE0CF2ED12CE12CE5
:10304000F12CF02DC21AD108E108F108C686D78606
:10305000E08AF18AFF90EF90DF90CF900895809101
:10306000C9169091CA16892B39F0E091C916F091D2
:10307000CA1686A58F5F86A78091C9169091CA1639
:1030800008954F925F926F927F92AF92BF92CF92CC
:10309000DF92EF92FF920F931F93CF93DF9328015C
:1030A00039010FB6F8940F92E091C916F091CA1643
:1030B000C82FD0E0EC0FFD1F83A9823079F1E09199
:1030C000C916F091CA16CE01880F991F880F991F53
:1030D000E80FF91F87A590A9A1A9B2A9409550951D
:1030E00060957095482359236A237B2347A750ABEB
:1030F00061AB72ABE091C916F091CA16EC0FFD1FDF
:1031000081E083ABA114B104C104D10439F041E0E2
:10311000C601B5010E9405100E94FF060F900FBE68
:103120000FB6F8940F92E114F104A1F0E091C916E2
:10313000F091CA16CE01880F991F880F991FE80FCA
:10314000F91F87A590A9A1A9B2A9F701808391834E
:10315000A283B383E091C916F091CA16EC0FFD1F4C
:1031600083A98230E9F4E091C916F091CA16CE0124
:10317000880F991F880F991FE80FF91F87A590A93D
:10318000A1A9B2A940945094609470944822592205
:103190006A227B2247A650AA61AA72AA81E001C0D6
:1031A00080E02091C9163091CA16C20FD31F1BAA06
:1031B0000F900FBEDF91CF911F910F91FF90EF9075
:1031C000DF90CF90BF90AF907F906F905F904F90C7
:1031D00008958F929F92AF92BF92EF92FF920F93BA
:1031E000CF93DF93DC010FB6F8940F92E114F10452
:1031F00089F0E62FF0E0EE0FFF1FEE0FFF1FE80F44
:10320000F91F87A490A8A1A8B2A8F7018082918293
:10321000A282B38270E0FD01E60FF71F83A992E05E
:1032200093AB023001F118F4013031F04DC003309E
:1032300079F10430D1F148C0660F771F660F771F10
:10324000FD01E60FF71F87A490A8A1A8B2A8BA01B4
:10325000A901482959296A297B2947A750AB61ABA5
:1032600072AB01E034C0660F771F660F771FFD0158
:10327000E60FF71F47A550A961A972A94F5F5F4FDD
:103280006F4F7F4F47A750AB61AB72AB01E01FC0E0
:10329000660F771F660F771FFD01E60FF71F27A741
:1032A00030AB41AB52AB01E012C0823079F0660F17
:1032B000771F660F771FFD01E60FF71F27A730ABBB
:1032C00041AB52AB01E003C001E001C000E081303E
:1032D00009F069C01C96ED91FC911D971696CD9151
:1032E000DC91179718968D919C9119979F838E83E7
:1032F0001896CD91DC91199716968D919C91179700
:103300009D838C83818192819D012E5F3F4F821727
:10331000930731F418968D919C911997928381832C
:103320001D961C921E921C978081815080835A9614
:10333000EC915A97809119168E1710F4E093191694
:103340008BE08E9FF0011124E55AF94E0180F28145
:10335000E02D1796FC93EE931697468157811996A8
:103360005C934E931897C681D7813D832C83378316
:1033700026835A96EC915A978E9FF0011124E55AB4
:10338000F94E1D96FC93EE931C9780818F5F80838E
:103390005A969C91E091C916F091CA16828D8917B0
:1033A00010F40E94FF060F900FBE802FDF91CF9187
:1033B0000F91FF90EF90BF90AF909F908F900895E6
:1033C0008F929F92AF92BF92CF92DF92EF92FF9235
:1033D0000F93CF93DF93DC01E114F10489F0E62F22
:1033E000F0E0EE0FFF1FEE0FFF1FE80FF91F87A49D
:1033F00090A8A1A8B2A8F70180829182A282B3828C
:1034000070E0FD01E60FF71F93A982E083AB023065
:1034100001F118F4013031F04DC0033079F104307E
:10342000D1F148C0660F771F660F771FFD01E60FC9
:10343000F71F87A490A8A1A8B2A8BA01A90148299A
:1034400059296A297B2947A750AB61AB72AB81E050
:1034500034C0660F771F660F771FFD01E60FF71F59
:1034600047A550A961A972A94F5F5F4F6F4F7F4F6A
:1034700047A750AB61AB72AB81E01FC0660F771FEF
:10348000660F771FFD01E60FF71F27A730AB41AB93
:1034900052AB81E012C0923079F0660F771F660F51
:1034A000771FFD01E60FF71F27A730AB41AB52ABEB
:1034B00081E003C081E001C080E0913009F096C056
:1034C00090910A1691115FC01C96ED91FC911D9789
:1034D0001696CD91DC91179718962D913C911997DE
:1034E0003F832E831896CD91DC91199716962D91D6
:1034F0003C9117973D832C83418152819D012E5F22
:103500003F4F4217530731F418964D915C9119972C
:10351000528341831D961C921E921C97908191505C
:1035200090835A96EC915A97909119169E1710F421
:10353000E09319169BE09E9FF0011124E55AF94E85
:103540000180F281E02D1796FC93EE931697468149
:10355000578119965C934E931897C681D7813D8306
:103560002C83378326835A96EC915A979E9FF001BD
:103570001124E55AF94E1D96FC93EE931C97908109
:103580009F5F908321C066E376E1FB01C181D28118
:103590005396DC93CE9352972E813F8155963C9360
:1035A0002E9354974E815F819D01225F3F4FFA0118
:1035B000358324833F832E8359967C936E9358974B
:1035C000FB0190819F5F90835A962C91E091C916E0
:1035D000F091CA16928D921748F4C114D10419F0D3
:1035E00091E0F601908391E090931316DF91CF91D3
:1035F0000F91FF90EF90DF90CF90BF90AF909F9092
:103600008F900895009721F48091C9169091CA1661
:103610000FB6F8940F9270E0FC01E60FF71F23A994
:10362000223031F4FC01E60FF71F13AA81E001C03C
:1036300080E00F900FBE0895DC01E091D516F09167
:10364000D616808191E0811190E09C93911108C081
:103650000780F085E02D60817181828193810895DA
:1036600060E070E0CB010895CF92DF92EF92FF927D
:103670000F931F93FC014283538364837583938765
:1036800082870417150726073707C0F00C191D0994
:103690002E093F0986859785A089B18908171907E2
:1036A0002A073B0700F5BF016E5F7F4F8091D3165D
:1036B0009091D4160E94460680E018C00C151D0596
:1036C0002E053F0528F44C155D056E057F0568F451
:1036D000BF016E5F7F4F8091D5169091D6160E94E4
:1036E000460680E003C081E001C081E01F910F9198
:1036F000FF90EF90DF90CF9008950FB6F8940F925F
:103700008091D1169091D216892BE9F482EE96E140
:103710000E94310687ED96E10E94310682EE96E125
:103720009093D6168093D51687ED96E19093D41694
:103730008093D31640E067E08AE00E94F4089093FB
:10374000D2168093D1160F900FBE0895EF92FF927C
:103750000F93D3DF8091D1169091D216892B91F0DF
:103760000F2EFFECEF2EF6E1FF2EF02D03E020E010
:1037700030E040EC50E065E573E087ED90E00E94BA
:10378000A71001C080E00F91FF90EF9008958F92F5
:103790009F92AF92BF92CF92DF92EF92FF920F93E0
:1037A0001F93CF93DF93CDB7DEB727970FB6F8946B
:1037B000DEBF0FBECDBFE091D116F091D21630978B
:1037C00081F169832A833B834C835D839F838E834E
:1037D0006630F4F4C3DA823069F400E0A7019601A0
:1037E000BE016F5F7F4F8091D1169091D2160E94DB
:1037F000170918C000E020E030E0A901BE016F5FAA
:103800007F4F8091D1169091D2160E9417090AC05D
:1038100020E0A801BE016F5F7F4FCF010E94C70962
:1038200001C080E027960FB6F894DEBF0FBECDBF73
:10383000DF91CF911F910F91FF90EF90DF90CF908C
:10384000BF90AF909F908F9008958F929F92AF926C
:10385000BF92CF92DF92EF92FF920F931F93CF937D
:10386000DF933BC00780F085E02D80809180A280AF
:10387000B380C085D1858E010E5F1F4FC8010E94A5
:103880008306EC89FD89CE0119958E8982FF25C0BA
:103890008E859F85A889B989880D991DAA1DBB1D94
:1038A00088169906AA06BB0670F48A839B83AC83AC
:1038B000BD83DB87CA87B8018091D5169091D61653
:1038C0000E9446060AC0C12CD12C760100E010E00F
:1038D000A501940160E0CE015ADFE091D516F09188
:1038E000D61680818111BECF8091D3169091D416C7
:1038F0009093D6168093D516F093D416E093D316F2
:10390000DF91CF911F910F91FF90EF90DF90CF90BB
:10391000BF90AF909F908F900895CF92DF92EF92DB
:10392000FF92CF93DF93EC010E9431116B017C0178
:103930008091CB169091CC16A091CD16B091CE1659
:10394000C816D906EA06FB0620F47FDF81E08883EB
:1039500001C01882C092CB16D092CC16E092CD1640
:10396000F092CE16C701B601DF91CF91FF90EF9094
:10397000DF90CF9008954F925F926F927F928F92D7
:103980009F92AF92BF92CF92DF92EF92FF920F93EE
:103990001F93CF93DF934B015C0129013A01E09122
:1039A000D516F091D6160780F085E02DC085D1851B
:1039B000CE0102960E9483068E8982FF1BC04E852F
:1039C0005F8568897989480D591D6A1D7B1D7501C0
:1039D000640193018201CE0147DE882369F0C12C86
:1039E000D12C760100E010E0A501940160E0CE0149
:1039F000CEDE02C08E7F8E8BEC89FD89CE011995BB
:103A0000DF91CF911F910F91FF90EF90DF90CF90BA
:103A1000BF90AF909F908F907F906F905F904F90EE
:103A200008958F929F92AF92BF92CF92DF92EF92C2
:103A3000FF921F93CF93DF931F92CDB7DEB76B0139
:103A40007C01142F0E942B11CE01019666DF4B01E1
:103A50005C01898181112DC011110DC08C149D0450
:103A6000AE04BF0440F00E946B12A5019401C7018F
:103A7000B60181DF20C0112341F0E091D316F0910F
:103A8000D416808111E0811110E0B701A601481918
:103A900059096A097B09212F8091D1169091D2167C
:103AA0000E94420B0E946B12811105C00E94FF060A
:103AB00002C00E946B120F90DF91CF911F91FF9077
:103AC000EF90DF90CF90BF90AF909F908F90089530
:103AD000AF92BF92CF92DF92EF92FF920F931F931C
:103AE000CF93DF93CDB7DEB728970FB6F894DEBF3C
:103AF0000FBECDBF82C0898188230CF47EC0AE800A
:103B0000BF80D5011C968D919C911D97892B21F02A
:103B1000C50102960E948306CE010896FEDE8B0147
:103B20009C01E9810E2E000CFF0BEA30F10508F034
:103B300064C08827EE58FF4F8F4F0C94A730F501D3
:103B400086898160868BCA80DB80EC80FD8046851B
:103B50005785608971894C0D5D1D6E1D7F1DC501E6
:103B600083DD882309F449C0D5015496ED91FC9179
:103B70005597C5011995F501868982FF3EC04A8196
:103B80005B816C817D8186859785A089B1899A0149
:103B9000AB01280F391F4A1F5B1FC12CD12C7601A6
:103BA00000E010E060E0C501F2DD27C0D5015696C7
:103BB0008C9156978E7F56968C931FC0F5018689FF
:103BC0008160868B4A815B816C817D8146875787C6
:103BD000608B718B400F511F621F731F6801790149
:103BE000C50142DD0AC0F501868981FD04C0C50119
:103BF0000E94F40502C08E7F868B20E030E0A90190
:103C0000BE016F5F7F4F8091D1169091D2160E94B6
:103C1000020A811170CF28960FB6F894DEBF0FBE4E
:103C2000CDBFDF91CF911F910F91FF90EF90DF906B
:103C3000CF90BF90AF900895089584B1806884B903
:103C400085B1806885B9089583B1806883B9089586
:103C5000F4DF2FEF80E792E0215080409040E1F7C1
:103C600000C00000F1DFF5CFE8DF2FEF87EA91E633
:103C7000215080409040E1F700C00000E5DFF5CF23
:103C8000EF92FF920F93E12CF12C082F20E030E00F
:103C900048E851E06DE573E08FEC9EE10E94A710CB
:103CA0000F91FF90EF90089560E777E180E090E05A
:103CB0000E94AC13F4D09093881880938718E4D0B6
:103CC00090938C1880938B180E94D00290938E183A
:103CD00080938D180E94CB0290938618809385184C
:103CE0000E94C60290938A18809389180E94C1028C
:103CF0009093901880938F1860918D1870918E1802
:103D000040918518509186189B01240F351FE09132
:103D10008918F0918A182E0F3F1F280F391F21157F
:103D20003105D9F0A0918718B0918818A617B70768
:103D300038F060918B1870918C186E177F0768F4BB
:103D400083E793E09F938F930E94333264E680E091
:103D50000E949D270F900F900895232BD9F020915A
:103D60008718309188184217530738F020918B1824
:103D700030918C188217930768F483E793E09F9340
:103D80008F930E9433326CE980E00E949D270F9050
:103D90000F90089560E080E00C949D27089584DFE3
:103DA000FECF41E060E070E084E690E00E94A10C6C
:103DB00090934F1880934E1841E060E070E08CE2E1
:103DC00090E00E94A10C909353188093521808958C
:103DD00081E00E94BB099093551880935418089570
:103DE0000E94970390935118809350180E94970354
:103DF0009093711880937018089586E090E00E9467
:103E00004B059093921880939118009711F480E0DD
:103E100090E00895E0919118F09192189183808339
:103E20000895E0919118F0919218938382830895F8
:103E3000E0919118F0919218958384830895EDEEA6
:103E4000F6E126E021836083A0919118B091921849
:103E50002C9111963C9111973283238312962C91C9
:103E6000129713963C9113973483258314962C91C3
:103E7000149715963C913683278326E1DC01019047
:103E80000D922A95E1F70895609105177091061734
:103E90008091071790910817F1D1CB010895809177
:103EA0000317909104170895EF92FF920F93E12C5E
:103EB000F12C082F20E030E040EC50E064E873E0A3
:103EC0008BED9FE10E94A7100F91FF90EF90089556
:103ED000CF92DF92EF92FF920F93CC24CA94DC2C06
:103EE000760101E021E041E050E060E070E0809187
:103EF0005018909151180E94AA03609393187093E0
:103F00009418809395189093961860FF4EC066E0C1
:103F100070E080E090E00E94AC1387D28823C1F06B
:103F200066E070E080E090E00E94AC1389E993E0E5
:103F30009F938F930E9433320F900F9006C063E0DF
:103F400070E080E090E00E94AC136FD28823B9F358
:103F500081D263E070E080E090E00E94AC137AD2FE
:103F6000811123C066E070E080E090E00E94AC1315
:103F700096D29093041780930317B5D2BC01990F82
:103F8000880B990BA9D1609305177093061780933E
:103F900007179093081742E050E060E070E08091CE
:103FA0007018909171180E944A040F91FF90EF9041
:103FB000DF90CF9008958CDFFECF0F931F93CF93A8
:103FC000DF93CDB7DEB764970FB6F894DEBF0FBEB0
:103FD000CDBF81E00E94DD2CFED37AD69F938F93D4
:103FE00083ED93E09F938F930E94333272D570D606
:103FF0009F938F9386EE93E09F938F930E9433322B
:104000008FEF93E00E9446328E010F5F1F4FC80171
:10401000F4D35ED61F930F939F938F938CE094E01D
:104020009F938F930E943332C80103D451D69F933C
:104030008F931F930F9380E294E09F938F930E943E
:10404000333285E394E00E944632A80162E474E0D2
:1040500083E694E01CD63CD69F938F931F930F93D7
:1040600082E494E09F938F9383E694E09F938F93F1
:1040700084E794E09F938F930E9433320DD428D627
:104080009F938F938AEA94E09F938F930E94333299
:104090000FB6F894DEBF0FBECDBF81E0F7D418D6BF
:1040A0009F938F9389EB94E09F938F930E94333279
:1040B0008AED94E00E94463284EF91E0F2D408D673
:1040C0009F938F9381E08F9384EF8F9387EE94E09B
:1040D0009F938F930E9433320FB6F894DEBF0FBECA
:1040E000CDBF1AE080E0DED3082FF2D59F938F93E7
:1040F0001F921F9387E095E09F938F930E94333226
:104100000F900F900F900F900F900F90083059F074
:1041100080E00E94412D66E371E080E090E00E9423
:10412000AC131150F9F6083021F481E00E94232DE0
:104130000DC087E295E00E94463281E00E94322D58
:1041400080E00E94002D0E94FF06FDCF64960FB60E
:10415000F894DEBF0FBECDBFDF91CF911F910F91BD
:104160000895EF92FF920F9320914E1830914F18BF
:10417000E12CF12C082F48E851E062E375E085E07E
:1041800091E20E94A7100F91FF90EF9008950F9376
:104190001F930FEF1FEF980146E150E069E077E1D0
:1041A00080914E1890914F180E940C0E892BA1F00F
:1041B00083E00E94532D69E077E180E09CD388D5AD
:1041C0009F938F938DE395E09F938F930E9433325B
:1041D0000F900F900F900F901F910F91089581E015
:1041E000ECD262E070E080E090E00E94AC1380E0EE
:1041F000E4D266E970E080E090E00E94AC1396D2D1
:10420000DCDE80E090E0C3DFFCCFE9DF83E090E01C
:104210000E94080181E00E94EA0181E045DEEDDDB7
:1042200084E02ECD0895E9D083E02ED69EC6089571
:10423000D7DDB7DDCDCD089581B1816881B980E04A
:104240000E94882BF0DFE2DF85E00E948F2CF0DFF8
:10425000609152187091531881E06FD284E081DF31
:1042600085E00C94D5020895E7DF82E595E00E9491
:1042700046320E94F31080E090E0089570D088F0FC
:104280009F5790F0B92F9927B751A0F0D1F0660F42
:10429000771F881F991F1AF0BA95C9F712C0B1305D
:1042A00081F077D0B1E0089574C0672F782F882708
:1042B000B85F39F0B93FCCF3869577956795B3959C
:1042C000D9F73EF490958095709561957F4F8F4F0B
:1042D0009F4F0895E89409C097FB3EF49095809510
:1042E000709561957F4F8F4F9F4F9923A9F0F92FBC
:1042F00096E9BB279395F695879577956795B7953A
:10430000F111F8CFFAF4BB0F11F460FF1BC06F5F1F
:104310007F4F8F4F9F4F16C0882311F096E911C031
:10432000772321F09EE8872F762F05C0662371F052
:1043300096E8862F70E060E02AF09A95660F771F66
:10434000881FDAF7880F9695879597F9089557FD96
:104350009058440F551F59F05F3F71F04795880FF3
:1043600097FB991F61F09F3F79F08795089512168A
:1043700013061406551FF2CF4695F1DF08C0161636
:1043800017061806991FF1CF8695710561050894E7
:104390000895E894BB2766277727CB0197F90895FE
:1043A0006530F1F4FA0180818F7390E0982F8827AF
:1043B0002181822B90930A02809309028281F0E48A
:1043C0008F9FC0011124FA01238126952695822B07
:1043D000909308028093070281E080931F1708954D
:1043E000643051F080E090E49093080280930702DB
:1043F00090930A028093090208950F931F9300ED92
:1044000011E220E034E244EF50E060E087E20E94F5
:10441000752D909321178093201721E0892B09F0A7
:1044200020E0822F1F910F91089580912017909185
:104430002117009759F040E060E070E00E94C62D1F
:10444000843031F410921F1780E0089582E00895BF
:1044500083E008958091201790912117009739F0FB
:1044600064E00E94122E853021F083E0089582E0FE
:10447000089580E008956091090270910A0280E039
:1044800090E028DF20E030E048EC52E40E941F304A
:1044900020E038EF4FE756E40C94852F0895EBDFCA
:1044A00020E030E040E251E40E941F30E7DECB0123
:1044B0000895609107027091080280E090E00ADFA1
:1044C00020E030E045E253E40E941F3020E038EF66
:1044D0004FE756E40E94852F20E030E040E252E4AE
:1044E0000C941E2F0895E5DF20E030E040E251E417
:1044F0000E941F300E94F02FCB0108950F931F934D
:10450000CF93DF931F921F92CDB7DEB78C01198234
:104510002DC0E0915917EC3250F481E08E0F80935A
:104520005917F0E0E557F84E8A81808302C0109257
:1045300059178A818A30D1F44091591750E0FA0115
:10454000E757F84E1082415051099E012F5F3F4FAF
:104550006BE877E180915C1790915D170E94C80D20
:10456000898181110E94FF0610925917BE016E5F6A
:104570007F4FC80137D6882361F20F900F90DF91EB
:10458000CF911F910F9108950F931F93CF93DF93B6
:104590008C01EB0180915C1790915D170E94D30C08
:1045A000B80182E297E10E941432209779F0E2E2AA
:1045B000F7E101900020E9F7319780E290E09183E4
:1045C0008083BE0182E297E10E940932E2E2F7E1D4
:1045D000DF010D900020E9F711978DE09AE0119628
:1045E0009C938E9312961C9201900020E9F73197CC
:1045F000E252F741AE2F82E297E1AC016A2F80913F
:104600005E1790915F1799D5811111C008E215E0EE
:1046100020E030E04DE250E065EE77E180915C17FC
:1046200090915D170E940C0E85EE97E102C080E02C
:1046300090E0DF91CF911F910F9108952F923F92BB
:104640004F925F926F927F928F929F92AF92BF92A2
:10465000CF92DF92EF92FF920F931F93CF93DF934E
:104660005C01FC0101900020E9F731976F01C81A45
:10467000D90A5C2C0F2EFCEF8F2EF7E09F2EF02D29
:10468000E12CF12C4C2C3701F40101811281E8015D
:1046900009900020E9F72197C01BD10B3C2EF9E0CF
:1046A000CF16D10458F0F4012080FEE02F1206C08E
:1046B000B801C5010E94E431892B09F5442D351458
:1046C00008F44C2F50E0B801C5010E941B32892B21
:1046D00049F4F301EE0FFF1FE60DF71DE450F84F0C
:1046E00020800DC08FEFE81AF80AE3E08E0E911CCF
:1046F000F1E1EF16F10439F66894222424F8822DB2
:10470000DF91CF911F910F91FF90EF90DF90CF90AD
:10471000BF90AF909F908F907F906F905F904F90E1
:104720003F902F90089530DF89CF089580915C17D6
:1047300090915D170C94D30C08958F929F92AF9235
:10474000CF92EF920F931F93CF93C82F8B0141E02D
:1047500060E070E088EC90E00E94A10C90935D17FF
:1047600080935C1710935B1700935A170F2EFEE788
:104770008F2EF2E29F2EF02D6894AA24A6F868945A
:10478000CC24C6F8E12C00E023E040E051EE60E0EC
:1047900070E08C2F06D490935F1780935E17E7E04C
:1047A000F1E0808180618083CF911F910F91EF9024
:1047B000CF90AF909F908F900895882331F0E8E0DC
:1047C000F1E080818F7E80830895E8E0F1E08081D0
:1047D00080618083089560E070E082E895E0D4DE37
:1047E000E5EEF7E101900020E9F73197E55EF7414A
:1047F00081E0759708F080E00895CF93DF93EC0196
:1048000060E070E083E995E0BFDEE5EEF7E101905E
:104810000020E9F7E65FF74139F465EE77E1CE0174
:104820000E94143280E002C0188281E0DF91CF91B3
:104830000895FC0101900020E9F79F012151310901
:104840002817390729F4BC0181EC95E06CCF089555
:1048500089E00895FC0101900020E9F79F012151B2
:1048600031092817390729F4BC0180ED95E05BCFA9
:10487000089589E00895FC0101900020E9F79F0167
:10488000215231092817390729F4BC018FED95E031
:104890004ACF089589E0089560E070E08EE196E0E7
:1048A00042CF08950F931F93E82FF0E0EE0FFF1F04
:1048B000E850F84F6081718187E296E034DF811122
:1048C00014C008E215E020E030E04DE250E065EE73
:1048D00077E180915C1790915D170E940C0E882300
:1048E00021F085EE97E1AADE03C085EE97E1A6DE12
:1048F0001F910F9108950F931F93CF93DF931F92F2
:10490000CDB7DEB7DB0111969C911197953108F078
:10491000B4C0992381F160E070E0272F30E0462F8A
:1049200050E0FD01E40FF51F928192959F709A303F
:1049300010F0995C01C0905DF901EA58F84E90833F
:104940002F5F3F4FFD01E40FF51F92819F70492FAC
:1049500050E04A30510514F0995C01C0905DF901B6
:10496000EA58F84E90837E5F6F5F11969C91119785
:10497000691798F201C070E0E72FF0E0EA58F84EAE
:1049800010824C91811103C080E396E002C082E363
:1049900096E026E737E13F932F931F924F939F9323
:1049A0008F9386E396E09F938F9388EB97E19F9395
:1049B0008F930E94763260E070E088EB97E1B3DE7F
:1049C0000FB6F894DEBF0FBECDBF811159C008E20B
:1049D00015E020E030E04DE250E065EE77E18091B7
:1049E0005C1790915D170E940C0E882309F447C054
:1049F00085EE97E123DE8E3009F042C087E089839F
:104A000080915A1790915B17892BA9F1BE016F5FB6
:104A10007F4F85EE97E168D180936017E981F0E0E0
:104A2000EB51F84EDF010D900020E9F71197AE1B16
:104A3000BF0BAA2391F0BB27CD0101979C0112F473
:104A40002F5F3F4F3595279520936117AF014F5F3B
:104A50005F4F64E182E697E173D101E010E020E06E
:104A600030E046E150E060E677E180915A1790919E
:104A70005B170E94030D8EE003C084E101C080E05B
:104A80000F90DF91CF911F910F910895813019F010
:104A900066E476E002C06FE177E08AE496E043CE18
:104AA00008959F938F938BE796E09F938F9388EB66
:104AB00097E19F938F930E94763260E070E088EBDD
:104AC00097E131DE0F900F900F900F900F900F90A5
:104AD00008952F923F924F925F926F927F928F92A2
:104AE0009F92AF92BF92CF92DF92EF92FF920F937D
:104AF0001F93CF93DF93CDB7DEB7A0970FB6F8948F
:104B0000DEBF0FBECDBF68EA76E084EB96E03CDD09
:104B100095DD8111A3C080E2E2E2F2E0DE011196B0
:104B200001900D928A95E1F79E012F5F3F4F690139
:104B3000E12CF12C0F2EF0ECAF2EF6E0BF2EF02D75
:104B400008EB17E10F2EF9ED4F2EF6E05F2EF02D5A
:104B50000F2EF0EF8F2EF6E09F2EF02D0F2EFAE0A5
:104B60006F2EF7E07F2EF02D3E2C2F2CFF92EF9230
:104B7000BF92AF921F930F930E94763260E070E075
:104B8000C80102DD5BDD0F900F900F900F900F902A
:104B90000F90811163C032E03E15E8F4F601838185
:104BA0008F9382818F9381818F9380818F93FF92E6
:104BB000EF925F924F921F930F930E94763260E0C4
:104BC00070E0C801E1DC3ADD0FB6F894DEBF0FBE3D
:104BD000CDBF811143C02F923F929F928F921F931E
:104BE0000F930E94763260E070E0C801CDDC26DDD4
:104BF0000F900F900F900F900F900F9081112EC07B
:104C00002F923F927F926F921F930F930E94763262
:104C100060E070E0C801B8DC11DD0F900F900F90DC
:104C20000F900F900F90811119C03FEFE31AF30A14
:104C300084E0C80ED11C98E0E916F10409F094CF85
:104C400060E070E082E297E09FDCF8DC811106C052
:104C500060E070E083E397E097DCF0DCA0960FB6AD
:104C6000F894DEBF0FBECDBFDF91CF911F910F91A2
:104C7000FF90EF90DF90CF90BF90AF909F908F907C
:104C80007F906F905F904F903F902F900895EF929C
:104C9000FF920F931F93CF93DF93EC018B017A0167
:104CA00081E0F4DE81110DC0CE01D4DD811109C097
:104CB000C801E1DD811105C0C701BBDD811101C063
:104CC000EBDDDF91CF911F910F91FF90EF90089551
:104CD00090E0FC01EE0FFF1F8E0F9F1FFC01E450C0
:104CE000F84F818192810895DC01009729F1FB0141
:104CF0002081FC0101900020E9F73197E81BF90BB6
:104D0000822F90E0E817F907C8F080E008C0880F0C
:104D1000382F330F330F830F8053890F2F5FFD011F
:104D2000E20FF11D908130ED390F3A3010F49111FE
:104D3000EECFFB012083089580E0089580E0089580
:104D40000F931F93CF93DF93DC01EA012097E1F1EA
:104D5000FA0101900020E9F73197E41BF50B329737
:104D600010F532C08D01040F151F30E0AE01420F67
:104D7000531FFA019081913428F09753592F52957F
:104D8000507F03C0592F5295507F2C0F3D1FF901C2
:104D90009181913410F0975301C09053950FF80111
:104DA00090838F5F01C080E0282F220F482F50E0B2
:104DB000FE0101900020E9F73197EC1BFD0B4E1727
:104DC0005F0710F48613CECFDF91CF911F910F9123
:104DD000089580911518860F8093151890911818D2
:104DE000913079F028F09230A9F0933019F10895BC
:104DF0006F3F09F048C01092151881E08093181891
:104E00000895663809F03FC01092141882E080932C
:104E100018180895E091141881E08E0F80931418EB
:104E2000F0E0EE5EF74E6083823069F583E08093B8
:104E3000181808959091141821E0290F2093141840
:104E4000963009F581110EC0E2E1F8E1808190E031
:104E5000982F88272181820F911D90931A18809393
:104E6000191804C010921A181092191810921818D4
:104E7000E0911618F0911718309729F080911918C1
:104E800090911A18199508958F929F92AF92CF9290
:104E9000EF920F930F2EF9EE8F2EF6E29F2EF02D4C
:104EA0006894AA24A4F86894CC24C4F8E12C00E007
:104EB00023E040E855E260E070E073D090931C1866
:104EC00080931B180F91EF90CF90AF909F908F9091
:104ED000089590931718809316180895CF93DF9331
:104EE000CDB7DEB729970FB6F894DEBF0FBECDBFA2
:104EF00089E0E2E4F2E09E012F5F3F4FD90101908B
:104F00000D928A95E1F710921A1810921918809153
:104F10001B1890911C18009731F0422F532F69E015
:104F20000CD180E001C082E029960FB6F894DEBF74
:104F30000FBECDBFDF91CF91089565360CF064E6CA
:104F40006C390CF46CE996EF6902B00111246854D5
:104F5000744F811105C07093290160932801089551
:104F600070932B0160932A010895EAE0F1E08081BB
:104F7000886180838FE39CE99093270180932601C9
:104F800060E080E0DADF60E081E0D7DFE0E2F1E0DE
:104F90008081826A8083E1E2F1E080818A6180839E
:104FA00008952F923F924F925F926F927F928F92CD
:104FB0009F92AF92CF92EF92FF920F931F93CF9356
:104FC000DF93CDB7DEB7F82E2A013B0188E090E0F1
:104FD0000E94AF308C018F2D90E0FC01EE0FFF1F7F
:104FE000E35EF74E118300830115110509F468C0D3
:104FF000880F991FFC01E55FFD4F80819181D801E9
:105000008D939C938C2D90E0880F991F880F991F8A
:105010000E94AF301C0186E090E00E94AF307C011E
:105020004C2DB101EFD6F801F582E4828A2D90E093
:10503000880F991F880F991F0E94AF301C0186E0CE
:1050400090E00E94AF307C014A2DB101DBD6D8013F
:105050001396FC92EE92129717969C928E92169748
:10506000FFB6F894ED91FC9111973697808182609C
:1050700080838D909C90C301B2012CD920E030E058
:1050800040E051E4DCD79B01AC0160E074E284E7CE
:105090009BE43BD720E030E040E85FE3CFD6EED89A
:1050A000F40132976083D801ED91FC911197359707
:1050B00088E98083ED91FC91349786E08083FFBE80
:1050C000C801DF91CF911F910F91FF90EF90CF908A
:1050D000AF909F908F907F906F905F904F903F9098
:1050E0002F900895CF93DF93DC01892B01F1129665
:1050F000ED91FC911397938182812581981B9223D6
:1051000084819817B1F0838126952823C081D181AD
:10511000C20FD11D68838F5F958189238383ED91B1
:10512000FC91359780818062808380E003C081E0BC
:1051300001C082E0DF91CF910895EF92FF920F932B
:105140001F93CF93DF937C01009709F441C0DC01EA
:105150001296ED91FC91139793818281981B858122
:1051600098238481891B8617A8F1662341F1842F37
:10517000952FDC016150462F50E04F5F5F4F480F85
:10518000591FE701EA81FB81938182812581981B68
:1051900092238481981779F08C9193812695292305
:1051A000608171818B01020F111DE80188839F5F6F
:1051B0008581982393831196A417B50711F7D7011A
:1051C000ED91FC91359780818062808380E003C0FF
:1051D00081E001C082E0DF91CF911F910F91FF909C
:1051E000EF9008950097D1F0DC011496ED91FC91B9
:1051F000159793818281981799F092818581869580
:105200008923A081B181A80FB11D8C91DB018C9302
:105210009F5F85819823928380E0089581E00895BF
:1052200083E008951F920F920FB60F9211240BB6D0
:105230000F922F933F934F935F936F937F938F932F
:105240009F93AF93BF93CF93DF93EF93FF93A0917F
:105250001D18B0911E18109711F16091C600149698
:10526000ED91FC911597938182812581981B922362
:105270008481981761F0838126952823C081D1818C
:10528000C20FD11D68838F5F958189238383169612
:10529000ED91FC911797309711F0CD011995FF9181
:1052A000EF91DF91CF91BF91AF919F918F917F91BE
:1052B0006F915F914F913F912F910F900BBE0F9087
:1052C0000FBE0F901F9018951F920F920FB60F925E
:1052D00011240BB60F922F938F939F93AF93BF938D
:1052E000EF93FF93E0911D18F0911E183097B9F0DD
:1052F0000280F381E02D938182819817B1F0928131
:105300008581282F26952923A081B181A20FB11D67
:105310002C919F5F892382832093C6000BC0E1EC10
:10532000F0E080818F7D808305C0E1ECF0E080813A
:105330008F7D8083FF91EF91BF91AF919F918F916E
:105340002F910F900BBE0F900FBE0F901F901895CE
:105350001F920F920FB60F9211240BB60F922F933C
:105360003F934F935F936F937F938F939F93AF93ED
:10537000BF93CF93DF93EF93FF93A0911F18B0914A
:105380002018109711F16091CE001496ED91FC91C8
:105390001597938182812581981B92238481981788
:1053A00061F0838126952823C081D181C20FD11D50
:1053B00068838F5F9581892383831696ED91FC9195
:1053C0001797309711F0CD011995FF91EF91DF916B
:1053D000CF91BF91AF919F918F917F916F915F918D
:1053E0004F913F912F910F900BBE0F900FBE0F90DA
:1053F0001F9018951F920F920FB60F9211240BB6A3
:105400000F922F938F939F93AF93BF93EF93FF933D
:10541000E0911F18F09120183097B9F00280F381C5
:10542000E02D938182819817B1F092818581282F98
:1054300026952923A081B181A20FB11D2C919F5FD8
:10544000892382832093CE000BC0E9ECF0E08081B9
:105450008F7D808305C0E9ECF0E080818F7D8083C3
:10546000FF91EF91BF91AF919F918F912F910F90ED
:105470000BBE0F900FBE0F901F9018951F920F92AA
:105480000FB60F9211240BB60F922F933F934F93A9
:105490005F936F937F938F939F93AF93BF93CF93BC
:1054A000DF93EF93FF93A0912118B09122181097EA
:1054B00011F16091D6001496ED91FC9115979381AE
:1054C00082812581981B92238481981761F08381C2
:1054D00026952823C081D181C20FD11D68838F5F9B
:1054E0009581892383831696ED91FC9117973097C8
:1054F00011F0CD011995FF91EF91DF91CF91BF91FF
:10550000AF919F918F917F916F915F914F913F915B
:105510002F910F900BBE0F900FBE0F901F901895FC
:105520001F920F920FB60F9211240BB60F922F936A
:105530008F939F93AF93BF93EF93FF93E0912118C5
:10554000F09122183097B9F00280F381E02D938119
:1055500082819817B1F092818581282F2695292381
:10556000A081B181A20FB11D2C919F5F89238283FD
:105570002093D6000BC0E1EDF0E080818F7D808329
:1055800005C0E1EDF0E080818F7D8083FF91EF9198
:10559000BF91AF919F918F912F910F900BBE0F9064
:1055A0000FBE0F901F9018951F920F920FB60F927B
:1055B00011240BB60F922F933F934F935F936F93EA
:1055C0007F938F939F93AF93BF93CF93DF93EF938B
:1055D000FF93A0912318B0912418109711F16091B6
:1055E00036011496ED91FC91159793818281258166
:1055F000981B92238481981761F083812695282334
:10560000C081D181C20FD11D68838F5F95818923AD
:1056100083831696ED91FC911797309711F0CD0189
:105620001995FF91EF91DF91CF91BF91AF919F912C
:105630008F917F916F915F914F913F912F910F903B
:105640000BBE0F900FBE0F901F9018951F920F92D8
:105650000FB60F9211240BB60F922F938F939F9337
:10566000AF93BF93EF93FF93E0912318F091241829
:105670003097B9F00280F381E02D938182819817F1
:10568000B1F092818581282F26952923A081B181AF
:10569000A20FB11D2C919F5F892382832093360135
:1056A0000BC0E1E3F1E080818F7D808305C0E1E301
:1056B000F1E080818F7D8083FF91EF91BF91AF9169
:1056C0009F918F912F910F900BBE0F900FBE0F9057
:1056D0001F901895CF93DF931F92CDB7DEB7BE0111
:1056E0006F5F7F4F80912518909126187BDD811187
:1056F000F6CF898190E00F90DF91CF910895682FC8
:105700008091251890912618EDDC80E090E00895B6
:105710008F929F92AF92CF92EF920F93812C912C08
:105720006894AA24A7F86894CC24C7F8E12C00E078
:1057300023E040E051EE60E070E033DC9093261807
:1057400080932518EBE9F8E183E192E0918380836F
:10575000938382830F91EF90CF90AF909F908F9023
:10576000089590E0FC01EE0FFF1FE80FF91FEE0F08
:10577000FF1FE95DF74E238121111FC09C01220FFD
:10578000331FF901E80FF91FEE0FFF1FE95DF74E18
:10579000A081B1814C91F901E80FF91FEE0FFF1FB5
:1057A000E95DF74E81E090E0028002C0880F991F0A
:1057B0000A94E2F7842B8C930895FC01EE0FFF1FEF
:1057C000DF01A80FB91FAA0FBB1FA95DB74E0D902F
:1057D000BC91A02D2C91E80FF91FEE0FFF1FE95D82
:1057E000F74E81E090E0028002C0880F991F0A9472
:1057F000E2F7809582238C93089590E0FC01EE0FF0
:10580000FF1FE80FF91FEE0FFF1FE95DF74E238121
:10581000211120C09C01220F331FF901E80FF91F4D
:10582000EE0FFF1FE95DF74EA081B1814C91F901A8
:10583000E80FF91FEE0FFF1FE95DF74E81E090E0E2
:10584000028002C0880F991F0A94E2F78095842392
:105850008C930895FC01EE0FFF1FDF01A80FB91F05
:10586000AA0FBB1FA95DB74E0D90BC91A02D2C9126
:10587000E80FF91FEE0FFF1FE95DF74E81E090E0A2
:10588000028002C0880F991F0A94E2F7822B8C9342
:105890000895CC24C394D12C6894BB24B2F8C7E2F9
:1058A000D8E110E08C81813081F018F1823061F50F
:1058B000E881F9812081C6010A8002C0880F991F02
:1058C0000A94E2F7822780831FC08D818F5F863024
:1058D00010F48D8319C01D82E881F9812081C601F1
:1058E0000A8002C0880F991F0A94E2F782278083FA
:1058F0000BC00D81002329F0812F7FDF01500D8324
:1059000003C0BC82812F2DDF1F5F2696143051F615
:105910006CE070E080E090E00E94AC13C0CFEF92AA
:10592000FF920F931F93CF93DF93082F80E487B9E3
:10593000C7E2D8E10F2EF8E2EF2EF12CF02DF9821C
:10594000E88286E08A831B8214E01C8380E009DF02
:1059500080E887B9FF82EE8287E0888719861A87F8
:1059600081E0FFDE80E283BB84E390E09D878C874B
:1059700085E08E871F86188B82E0F3DE80E18093BE
:10598000010182E091E09B8B8A8B1C8B1D8A1E8B10
:1059900083E0E7DEE12CF12C20E030E040EC50E049
:1059A0006FE278E089E49CE20E94A710DF91CF913A
:1059B0001F910F91FF90EF900895CF93DF9390E0A8
:1059C000FC01EE0FFF1FDF01A80FB91FAA0FBB1FBD
:1059D000A95DB74ECD91DC911197488121E030E06F
:1059E00012960C90129702C0220F331F0A94E2F70E
:1059F00024272883FD0181E08483DF91CF910895DE
:105A0000CF93DF9390E0FC01EE0FFF1FDF01A80FA3
:105A1000B91FAA0FBB1FA95DB74ECD91DC9111979D
:105A2000488121E030E012960C90129702C0220FBC
:105A3000331F0A94E2F724272883FD0182E0848340
:105A4000DF91CF910895282F30E0F901EE0FFF1F6D
:105A5000E20FF31FEE0FFF1FE95DF74E93E0948313
:105A6000CCCE0895282F30E0F901EE0FFF1FE20F92
:105A7000F31FEE0FFF1FE95DF74E94E0948371CEA4
:105A8000089590E0FC01EE0FFF1FDF01A80FB91F82
:105A9000AA0FBB1FA95DB74E26E015962C9315974C
:105AA000FD011482089590E0FC01EE0FFF1FDF015D
:105AB000A80FB91FAA0FBB1FA95DB74E15961C9260
:105AC0001597FD011482089580914D1881110CC025
:105AD0008CE08093B8008FEF8093BB0084E08093CC
