S0120000342E53656D65737465722E7372656368
S1130000E5C0000004C1000002C1000000C10000FE
S1130010FEC00000FCC00000FAC00000F8C00000F0
S1130020F6C00000F4C00000F2C00000F0C0000000
S1130030C4C70000ECC00000EAC00000E8C0000033
S1130040E6C00000E4C00000E2C00000E0C0000020
S1130050DEC00000DCC00000DAC00000D8C0000030
S1130060D6C000000C943F290C949129D0C0000004
S1130070CEC00000CCC00000CAC00000C8C0000050
S1130080C6C00000C4C00000C2C00000C0C0000060
S11300900C94D5290C94272ABAC000000C94722E13
S11300A0B6C00000B4C00000B2C00000B0C0000080
S11300B0AEC00000ACC00000AAC00000A8C0000090
S11300C0A6C00000A4C00000A2C000000C946B2ACB
S11300D00C94BD2A9CC000000C94012B0C94532B4F
S11300E096C00000B71DB71DB71DEE1DF61D0B1EF3
S11300F0B71DB71DEE1DF61D942E042F042F042FDB
S1130100042F042F042F042F942E042F042F042FC4
S1130110042F042F042F042F962E042F042F042FB2
S1130120042F042F042F042F042F042F042F042F33
S1130130042F042F042F042F962E042F042F042F92
S1130140042F042F042F042F042F042F042F042F13
S1130150042F042F042F042F002F042F042F042F07
S1130160042F042F042F042FCB2E042F042F042F2D
S1130170042F042F042F042F042F042F042F042FE3
S1130180042F042F042F042FBF2E042F042F042F19
S1130190042F042F042F042FE32E0E94F80F8091C4
S11301A07716823008F043D60E94341EF6CFCF93E0
S11301B0DF931F92CDB7DEB7CE0101960E94341BA8
S11301C049810E94291D0E94801DF6CF11241FBE63
S11301D0CFEFD1E2DEBFCDBF00E00CBF18E0A0E05E
S11301E0B2E0E0E0FBE600E00BBF02C007900D9236
S11301F0A435B107D9F728E1A4E5B8E001C01D9200
S1130200AF3BB207E1F70E9461210C947E35F8CE32
S1130210EF92FF920F93E12CF12C082F20E030E0B5
S113022040EC50E06FE672E088EC91E00E94BF1071
S11302300F91FF90EF9008954F925F926F927F928B
S1130240AF92BF92CF92DF92EF92FF920F931F93E0
S1130250CF93DF93CDB7DEB766970FB6F894DEBFC2
S11302600FBECDBF5C012A013B0143E050E060E0DA
S113027070E080916C1890916D1824D3CC24CA94AA
S1130280DC2C760101E021E043E050E060E070E026
S113029080918C1890918D1875D260937218709318
S11302A073188093741890937518DC01CB018370D4
S11302B09927AA27BB270397A105B10509F053C0C5
S11302C00E94711F0E943E1F0E94711F9F938F9373
S11302D08BE792E09F938F930E9460320E947C1F71
S11302E00E94451F0E947C1F9F938F9385E992E093
S11302F09F938F930E94603281D00E94371F7ED0DB
S11303009F938F938DEA92E09F938F930E94603224
S113031062E0CE0101960E944C1F86E1FE013196F7
S1130320A6E7B8E101900D928A95E1F763E070E0E9
S113033080E090E00E94C4130FEF1FEF980146E1A4
S113034050E066E778E180916A1890916B180E94FA
S11303501B0DB301A201C5010E945F130FB6F894EF
S1130360DEBF0FBECDBF66960FB6F894DEBF0FBEDC
S1130370CDBFDF91CF911F910F91FF90EF90DF9050
S1130380CF90BF90AF907F906F905F904F90089503
S1130390CF93DF9300D01F92CDB7DEB70E944911EF
S11303A069837A838B839C8348EA58E460E070E035
S11303B0CE01019641DFF8CF9093901880938F1867
S11303C041E050E060E070E080918C1890918D18CD
S11303D079C20895EF92FF920F93E12CF12C082F2C
S11303E020E030E040EC50E06FEB72E083E392E019
S11303F00E94BF100F91FF90EF90089580918F1885
S1130400909190180895CF92DF92EF92FF920F93FC
S1130410CC24CA94DC2C760101E021E042E050E0D7
S113042060E070E080916C1890916D18ABD161FF21
S113043014C066E070E080E090E00E94C4130E9463
S11304409B2780938E18882341F088EC92E09F9339
S11304508F930E9460320F900F900F91FF90EF9056
S1130460DF90CF9008958CED91E00E949627CBDF2A
S1130470FECF0F93CF93DF93EC014CE050E060E0AC
S113048070E080917018909171180E94A90A8130CF
S113049079F4D0939A18C093991800E020E030E0E2
S11304A0A90160E070E08091701890917118D7D61E
S11304B0DF91CF910F9108950F93CF93DF93EC01C8
S11304C04FEF5FEFBA0180917018909171180E94FC
S11304D0A90A813079F4D093A018C0939F1800E042
S11304E020E030E0A90160E070E080917018909104
S11304F07118B5D6DF91CF910F9108950F93CF93D3
S1130500DF93EC014FEF5FEFBA0180917018909187
S113051071180E94A90A813079F4D0939C18C09371
S11305209B1800E020E030E0A90160E070E08091D9
S113053070189091711893D6DF91CF910F9108950F
S11305400F93CF93DF93EC014FEF5FEFBA018091EC
S1130550701890917118FDD7813079F4D0939E185A
S1130560C0939D1800E020E030E0A90160E070E055
S1130570809170189091711872D6DF91CF910F917C
S1130580089580919F189091A018089580919918CA
S113059090919A18089580919D1890919E180895AD
S11305A080919B1890919C180895EF92FF920F935D
S11305B020916E1830916F18E12CF12C082F48E827
S11305C051E06BED72E08CE893E00E94BF100F9154
S11305D0FF90EF900895AF92BF92CF92DF92EF9287
S11305E0FF920F931F93CF93DF930FEF1FEF9801A9
S11305F046E150E064E578E080916E1890916F18C0
S11306000E94240E892B09F47CC0C4E5D8E09981AA
S113061088811F929F931F928F938BEE92E09F93FA
S11306208F930E94603289810F900F900F900F90EA
S11306300F900F90883009F05EC05E01EA80F12CC3
S1130640FE2CEE248B81E80EF11CFF92EF928DE1DB
S113065093E09F938F930E946032CC80D12CDC2C4A
S1130660CC248D81C80ED11CDF92CF928FE293E00F
S11306709F938F930E946032FE01CE81D0E0DC2FE5
S1130680CC278781C80FD11DDF93CF9381E493E0FA
S11306909F938F930E946032F501008510E0102F24
S11306A000278185080F111D1F930F9380E593E0A8
S11306B09F938F930E9460328FE593E09F938F9373
S11306C00E946032C601D5DE802F912F17DFC7014B
S11306D0F3DE8C2F9D2F34DF8FE693E09F938F936F
S11306E00E9460328DB79EB744960FB6F8949EBFB1
S11306F00FBE8DBF06C064E574E280E090E00E9406
S1130700C413DF91CF911F910F91FF90EF90DF9071
S1130710CF90BF90AF9008955EDFFECF0F9301118D
S11307200CC0DC01CB0182239323A423B523892BA2
S11307308A2B8B2B79F480E010C0DC01CB0182235F
S11307409323A423B523281739074A075B0721F00D
S113075080E003C081E001C081E00F910895CF9350
S1130760DF938FE090E0AFD1EC01009739F0FC010A
S11307701192119211921192CF018BD2CE01DF917D
S1130780CF9108952F923F924F925F926F927F92F2
S11307908F929F92AF92BF92CF92DF92EF92FF928D
S11307A00F931F93CF93DF93EC014A015B01622EF9
S11307B0702E0E944311288039804A805B80A501F5
S11307C09401C201B101AADF8823A1F0662089F156
S11307D0D501C40180959095A095B095822193216F
S11307E0A421B52188839983AA83BB83C12CD12CEE
S11307F0760122C0C114D104E104F104E9F06110CE
S113080004C040E050E0BA0104C040E050E060E0C1
S113081071E071107460482959296A297B2997016C
S11308208601CE0104960E945B14212C312C2101F7
S113083003C0C12CD12C76010E948312CD28CE286E
S1130840CF2859F1811101C0F2D20E941D186B0109
S11308507C0191FD1FC00FB6F8940F92C880D98017
S1130860EA80FB80072DA5019401C701B60156DF7C
S1130870882371F0662061F080949094A094B094E1
S11308808C209D20AE20BF2088829982AA82BB82C0
S11308900F900FBE160127015524C201B101DF914B
S11308A0CF911F910F91FF90EF90DF90CF90BF9069
S11308B0AF909F908F907F906F905F904F903F90FC
S11308C02F9008954F925F926F927F92AF92BF9252
S11308D0CF92DF92EF92FF920F931F93CF93DF9308
S11308E0EC016A017B018C01095F1F4F0E944311D7
S11308F0EB85FC8588819981AA81BB81C82AD92A84
S1130900EA2AFB2AC882D982EA82FB82C12CD12C32
S113091076013DC0A480B58080819181A281B3819C
S1130920AC01BD017727B2FD0EC0488059806A80B2
S11309307B80442255226622772245284628472870
S113094089F420E012C0488059806A807B80442268
S1130950552266227722441555056605770521F050
S113096020E003C021E001C021E0222371F0B0FFA8
S113097004C0C42AD52AE62AF72A488159816A8103
S11309807B817260CF010E949615EA2DFB2DE01742
S1130990F10709F0BFCFC094D094E094F09488811B
S11309A09981AA81BB81C822D922EA22FB22C8826A
S11309B0D982EA82FB820E948312688179818A81CA
S11309C09B81DF91CF911F910F91FF90EF90DF906A
S11309D0CF90BF90AF907F906F905F904F900895AD
S11309E0E6E7F8E0AAE7B8E0B183A08313821282B5
S11309F0E2E2F6E1F0937508E09374081382128240
S1130A001182108288EA9DE013969C938E9312972C
S1130A10ED93FC93909371088093700890937308FE
S1130A208093720880E090E890936B0880936A0842
S1130A300895CF93DF93EC01A6E7B8E001C0DF018E
S1130A40ED91FC911197EC17FD07C8F312968D9167
S1130A509C9113979D01280F391FC217D30749F49E
S1130A602A813B81820F931F13969C938E93129736
S1130A70ED018A819B819E01280F391FE217F3073C
S1130A80C1F42091740830917508E217F30771F0EE
S1130A9022813381820F931F9B838A83ED91FC9182
S1130AA01197808191819983888305C03983288334
S1130AB002C0F983E883CA17DB0711F0CD93DC93F6
S1130AC0DF91CF910895EF92FF920F931F93CF93ED
S1130AD0DF938C010E9443118091740890917508F2
S1130AE0892B09F47DDF80916A0890916B0880233B
S1130AF09123892B09F076C00115110549F0C8012D
S1130B0004960817190718F000E010E001C08C01E2
S1130B100115110509F469C0809172089091730858
S1130B208017910708F464C0C0917608D0917708C3
S1130B30E6E7F8E002C0FE01EC018A819B818017A0
S1130B40910720F4888199810097A9F7809174080E
S1130B5090917508C817D90709F44DC0E080F18059
S1130B6084E0E80EF11C88819981918380832A8135
S1130B703B81201B310B2930310548F0CE01800F19
S1130B80911FFC01338322831B830A8352DF2A8152
S1130B903B818091720890917308821B930B909310
S1130BA073088093720840917008509171088417FB
S1130BB0950720F4909371088093700880916A08D7
S1130BC090916B08282B392B3B832A831982188236
S1130BD080916E0890916F08019690936F088093AE
S1130BE06E080BC0E12CF12C08C0E12CF12C05C0DF
S1130BF0E12CF12C02C0E12CF12C0E948312E114AF
S1130C00F10411F40E94401EC701DF91CF911F919E
S1130C100F91FF90EF9008950F931F93CF93DF935D
S1130C20009791F1EC0124974A815B8120916A0835
S1130C3030916B08BA0162237323672B29F1688111
S1130C407981672B09F520953095242335233B833F
S1130C502A830E9443118A819B81209172083091DA
S1130C607308820F931F9093730880937208CE01C8
S1130C70E0DE80916C0890916D08019690936D0868
S1130C8080936C080E948312DF91CF911F910F9182
S1130C900895FC010396928381834FEF5FEFBA01BD
S1130CA04383548365837683908787839287818780
S1130CB010820895FC011386128608950F931F93E2
S1130CC0CF93DF93EB01088119812A813B810F3F88
S1130CD04FEF14072407340721F4FC01A185B285E2
S1130CE011C0DC01139601C0DF011496ED91FC9153
S1130CF01597408151816281738104171507260776
S1130D00370790F71496ED91FC911597FD83EC83CA
S1130D10D783C683BF83AE831596DC93CE93149793
S1130D209B878A87FC0120812F5F2083DF91CF91ED
S1130D301F910F910895CF93DF93FC01A285B38592
S1130D40C481D581868197819F838E83C681D78113
S1130D50848195819D838C8311968D919C911297AA
S1130D60E817F90731F48681978112969C938E9344
S1130D701197138612868C9181508C938C91DF91FC
S1130D80CF910895A89590EC88E10FB6F894A895B2
S1130D90809360000FBE909360000895FC0160830F
S1130DA0319770833197108231971082319720E800
S1130DB02083319710823197108231971082779770
S1130DC040833197508386970895DCDFA091E51620
S1130DD0B091E616CD91CDBFDD91DEBFFF91EF91CD
S1130DE0DF91CF91BF91AF919F918F917F916F913F
S1130DF05F914F913F912F911F910F91FF90EF9031
S1130E00DF90CF90BF90AF909F908F907F906F9026
S1130E105F904F903F902F901F900F900CBE0F90BB
S1130E200BBE0F900FBE0F90089581E008950F92AE
S1130E300FB6F8940F920BB60F920CB60F921F9246
S1130E4011242F923F924F925F926F927F928F92D2
S1130E509F92AF92BF92CF92DF92EF92FF920F9345
S1130E601F932F933F934F935F936F937F938F932E
S1130E709F93AF93BF93CF93DF93EF93FF93A0918F
S1130E80E516B091E6160DB60D920EB60D920E94BF
S1130E90DF13A091E516B091E616CD91CDBFDD919B
S1130EA0DEBFFF91EF91DF91CF91BF91AF919F9101
S1130EB08F917F916F915F914F913F912F911F91EE
S1130EC00F91FF90EF90DF90CF90BF90AF909F90E5
S1130ED08F907F906F905F904F903F902F901F90D6
S1130EE00F900CBE0F900BBE0F900FBE0F90089585
S1130EF00F920FB6F8940F920BB60F920CB60F9296
S1130F001F9211242F923F924F925F926F927F9281
S1130F108F929F92AF92BF92CF92DF92EF92FF9205
S1130F200F931F932F933F934F935F936F937F93ED
S1130F308F939F93AF93BF93CF93DF93EF93FF93DD
S1130F40A091E516B091E6160DB60D920EB60D926F
S1130F5013BE0E94571181110E94DF13A091E51660
S1130F60B091E616CD91CDBFDD91DEBFFF91EF913B
S1130F70DF91CF91BF91AF919F918F917F916F91AD
S1130F805F914F913F912F911F910F91FF90EF909F
S1130F90DF90CF90BF90AF909F908F907F906F9095
S1130FA05F904F903F902F901F900F900CBE0F902A
S1130FB00BBE0F900FBE0F9008959ADF1895DC01B9
S1130FC053962C915397222341F05A96ED91FC911C
S1130FD05B9790818AE0891B089580E008950FB69D
S1130FE0F8940F92FC01868D811102C081E001C04A
S1130FF080E00F900FBE08950FB6F8940F92FC0195
S1131000268D878D281302C081E001C080E00F90F7
S11310100FBE08950F931F93CF93DF93EC01042F1A
S11310201E8D48A141110CC088819981892B09F03A
S113103042C08C819D810E945B171D821C8242C02C
S1131040011117C050E08A819B810E94013228A1BE
S11310508A819B81820F911D9B838A832C813D8190
S11310608217930750F1888199819B838A8380E05A
S113107029C050E08E819F810E94013288A190E0B6
S11310809195819591092E813F81280F391F3F83C6
S11310902E83488159812417350730F42C813D81F2
S11310A0820F931F9F838E83023049F4112349F0EA
S11310B0115080E007C080E005C080E003C080E0FC
S11310C001C080E01F5F1E8FDF91CF911F910F91B0
S11310D00895FC0140A14423A9F050E02681378102
S11310E0240F351F37832683848195812817390778
S11310F020F08081918197838683CB0166817781FB
S11311000C94013208951F93CF93DF93EC010FB633
S1131110F8940F921AA10BC08B89882351F0CE0149
S113112043960E94E71481110E94BD1611501116B6
S11311309CF38FEF8AA30F900FBE0FB6F8940F9213
S113114019A10BC08885882351F0CE0108960E940E
S1131150E71481110E94BD16115011169CF38FEFF4
S113116089A30F900FBEDF91CF911F910895CF9364
S1131170DF93EC010FB6F8940F92E881F9818F8D1B
S113118028A190E030E0829FA001839F500D929FA0
S1131190500D11244E0F5F1F5D834C831E8EFB8305
S11311A0EA830197289FA001299F500D389F500D75
S11311B01124CF01840F951F9F838E838FEF89A302
S11311C08AA361110BC08885882371F0CE0108962B
S11311D00E94E714882341F02ADE06C0CE01089657
S11311E058DDCE01439655DD0F900FBE81E0DF91AF
S11311F0CF9108950F931F93F801611103C01183D8
S1131200008302C051834083878F60A361E0CF01D4
S1131210AEDF1F910F910895DF92EF92FF920F932B
S11312201F93CF93DF93F82EE62ED42E869FC00112
S11312301124839648DCEC01009741F08C012D2D9C
S1131240AC014D5D5F4F6E2D8F2DD4DFCE01DF914C
S1131250CF911F910F91FF90EF90DF900895CF925F
S1131260DF92EF92FF920F931F93CF93DF93CDB74B
S1131270DEB729970FB6F894DEBF0FBECDBF7C0151
S11312806B012E833F834887598710E00FB6F8948B
S11312900F92F701968D878D981710F00230B1F4F4
S11312A0402FB601C701B6DEF7019389992341F0B7
S11312B0C70143960E94E714882321F0B8DD02C0D9
S11312C08111B5DD0F900FBE81E04CC08E819F81EE
S11312D0A885B985892B8A2B8B2B21F40F900FBEFF
S11312E080E040C0111105C0CE0101960E9446164F
S11312F011E00F900FBEC7D70FB6F8940F92F70105
S113130081A18F3F09F411A2F70182A18F3F09F453
S113131012A20F900FBEBE016A5F7F4FCE010196ED
S11313200E945716811119C0C70166DE882381F017
S11313304E815F8168857985C70108960E944414AF
S1131340C701E1DE0E9483128111A0CF70DD9ECF20
S1131350C701D9DE0E94831299CFC701D4DE0E944F
S1131360831280E029960FB6F894DEBF0FBECDBF7E
S1131370DF91CF911F910F91FF90EF90DF90CF906D
S113138008950F93009769F0FC011582148211826D
S11313901082168200E020E030E0A90160E070E0F5
S11313A05EDF0F910895CF93DF93482F60E081E0D3
S11313B033DFEC01E6DFCE01DF91CF910895EF92A8
S11313C0FF920F931F93CF93DF938A01FC01568DF5
S11313D0378D531710F02230F9F4422F7801EC01C5
S11313E01AA18E8DCE0116DE1F3F81F48B898823CE
S11313F0A9F0CE0143960E94E714882389F0E114F2
S1131400F10481F081E0F70180830DC0FF24F3949F
S1131410F10EFAA281E007C080E005C081E003C0BC
S113142081E001C081E0DF91CF911F910F91FF9086
S1131430EF900895CF92DF92EF92FF920F931F9354
S1131440CF93DF93CDB7DEB729970FB6F894DEBFFD
S11314500FBECDBF8C016B012E833F834887598714
S1131460E12C0FB6F8940F92F801F68CFF2099F056
S1131470B601C8012EDEFA94F801F68E8085882321
S113148031F0C80108960E94E7148111D0DC0F9056
S11314900FBE81E04FC08E819F81A885B985892BBD
S11314A08A2B8B2B21F40F900FBE80E043C0E110F8
S11314B006C0CE0101960E944616EE24E3940F90D6
S11314C00FBEE1D60FB6F8940F92F80181A18F3FB9
S11314D009F411A2F80182A18F3F09F412A20F901E
S11314E00FBEBE016A5F7F4FCE0101960E94571660
S11314F0811117C0C80173DD882379F04E815F81A3
S113150068857985C80143960E944414C801FBDDAF
S1131510FAD78111A6CF8BDCA4CFC801F4DDF3D7B1
S1131520A0CFC801F0DDEFD7C80159DD882309F445
S113153098CF80E029960FB6F894DEBF0FBECDBFDA
S1131540DF91CF911F910F91FF90EF90DF90CF909B
S11315500895EF92FF920F931F93CF93DF93CDB72C
S1131560DEB729970FB6F894DEBF0FBECDBF8C014E
S11315704E835F8368877987E12CF12C0FB6F8944A
S11315800F92F801868D8823C9F08150868F80815F
S11315909181892B29F40E944718F801958384834B
S11315A0F8018085882331F0C80108960E94E71469
S11315B081113DDC0F900FBE81E06FC08E819F8151
S11315C0A885B985892B8A2B8B2B21F40F900FBE0C
S11315D080E063C0F11006C0CE0101960E94461659
S11315E0FF24F3940F900FBE4ED60FB6F8940F92CB
S11315F0F80181A18F3F09F411A2F80182A18F3F64
S113160009F412A20F900FBEBE016A5F7F4FCE0194
S113161001960E945716811126C0C801E0DC882378
S1131620F1F0F80180819181892B51F40FB6F8947F
S11316300F92848195810E94D416E82E0F900FBEDC
S11316404E815F8168857985C80143960E94441460
S1131650C80159DD58D7811191CFE9DB8FCFC8017B
S113166052DD51D78BCFC8014EDD4DD7C801B7DC51
S1131670882309F483CFEE2079F00FB6F8940F9203
S1131680C8019DDC682FF801848195810E94B617FA
S11316900F900FBE80E001C080E029960FB6F89449
S11316A0DEBF0FBECDBFDF91CF911F910F91FF9091
S11316B0EF900895CF93DF93EC010FB6F8940F9257
S11316C089A18F3F09F419A28AA18F3F09F41AA2B4
S11316D00F900FBE8E8D811104C0CE0143960E94DF
S11316E0A514CE0110DDDF91CF910895FC01448152
S11316F0558122813381240F351F80819181B90165
S1131700681B790BCB016417750710F0841B950BCC
S113171008950F93FC018FE0DF011D928A95E9F78C
S113172075876487558344833783268306870F919F
S11317300895AF92BF92CF92DF92EF92FF920F93F0
S11317401F93CF93DF936C015B017A01FC01C2818B
S1131750D381048115810C1B1D0B4017510708F41C
S11317608A01F60184859585A801B5018C0F9D1F1A
S11317700E9401320E151F0558F4A701401B510B9E
S1131780B501600F711FF601848595850E940132B1
S1131790CE018E0D9F1DF60124813581821793079A
S11317A010F0821B930BF60193838283C701DF91B0
S11317B0CF911F910F91FF90EF90DF90CF90BF904A
S11317C0AF900895CF92DF92EF92FF920F931F9301
S11317D0CF93DF931F921F92CDB7DEB77C016B01CD
S11317E05A83498321153105C1F0FC01868580FDAA
S11317F008C04217530708F49A013A83298381E009
S11318000FC02017310758F042E050E0BE016F5F6F
S11318107F4FC7018EDF81E003C080E001C080E01C
S1131820882331F049815A81B601C70182DF02C0A1
S113183080E090E00F900F90DF91CF911F910F9176
S1131840FF90EF90DF90CF900895AF92BF92CF9228
S1131850DF92EF92FF920F931F93CF93DF937C015C
S11318605B01E9014217530708F4EA01209781F16B
S1131870F7010081118184819581801B910B6E0198
S11318808C179D0708F46C01F70164857585600F5A
S1131890711FA601C5010E940132CC16DD0658F461
S11318A0AE014C195D09F70164857585C5018C0D80
S11318B09D1D0E9401320C0F1D1FF701848195812B
S11318C00817190710F0081B190BF701118300837F
S11318D0CE01DF91CF911F910F91FF90EF90DF9098
S11318E0CF90BF90AF9008956F927F928F929F9206
S11318F0AF92BF92CF92DF92EF92FF920F931F931A
S1131900CF93DF931F921F92CDB7DEB76C014B01CB
S11319105A01790101151105B1F0FC016080718053
S1131920A801BE016F5F7F4F90DF89819A81E01A21
S1131930F10AA816B90630F4F60171826082A12C6E
S1131940B12C01C05C019701A501B401C6017DDF82
S11319500F900F90DF91CF911F910F91FF90EF9017
S1131960DF90CF90BF90AF909F908F907F906F90BB
S11319700895CF92DF92EF92FF920F93CF93DF936C
S1131980EC016B01413011F401E001C000E0C1142D
S1131990D10419F4CC24C394D12CCE014096C81799
S11319A0D90720F421968FD87C0102C0E12CF12CB8
S11319B0E114F10439F09601AE01B701615F7F4F84
S11319C0C701A7DEC701DF91CF910F91FF90EF9080
S11319D0DF90CF9008950F930FB6F8940F92FC0107
S11319E020853185232B71F422853385232B61F4E3
S11319F0268137814481558164857585068589DE14
S1131A0081E003C080E001C080E00F900FBE0F9121
S1131A100895FC012481358180819181820F931F77
S1131A2042815381841B950B01978217930710F011
S1131A30821B930B08952F923F924F925F926F9265
S1131A407F928F929F92AF92BF92CF92DF92EF924A
S1131A50FF920F931F93CF93DF93CDB7DEB72B97EE
S1131A600FB6F894DEBF0FBECDBF4C017B876A87EB
S1131A701A010E831F8328873987FC01848195818D
S1131A800197268520FF0CC02A01F2E04F0E511C5D
S1131A908415950558F41E821F821886198606C07F
S1131AA08417950710F02A0101C02C018E819F81B3
S1131AB0A885B985892B8A2B8B2B09F438C0CE01D4
S1131AC001960E9430160FB6F8940F92C401A1DF5C
S1131AD03C018415950540F560E080E090E00E94AB
S1131AE01A1B0E94C116F401938782870F900FBEC0
S1131AF0AE80BF80C884D984E12CF12C00E010E0D2
S1131B00980140E050E0BA0180E00E945918F401C5
S1131B1013861286BE016A5F7F4FCE0101960E9432
S1131B205716882381F205C00F900FBE02C0612CA6
S1131B30712C6114710419F4C4016BDF3C0182013E
S1131B409301A1016A857B85C4013CDE6C01892B6C
S1131B50E9F0C401CBDDF4012681378182179307B4
S1131B60A8F091D3F40180859185892B71F080854B
S1131B709185E12CF12C00E020E030E0A90160E047
S1131B800E940119F40111861086BDD4C6012B965A
S1131B900FB6F894DEBF0FBECDBFDF91CF911F917A
S1131BA00F91FF90EF90DF90CF90BF90AF909F90F8
S1131BB08F907F906F905F904F903F902F900895FB
S1131BC0AF92BF92CF92DF92EF92FF920F931F9347
S1131BD0CF93DF93EC017B015A0169018E8580FF6D
S1131BE004C08A010E5F1F4F01C08A01CE0111DFBC
S1131BF09C01A501B701CE01E5DD5C01892BC1F093
S1131C00CE0174DD2E813F818217930788F0888589
S1131C109985892B69F088859985E12CF12C00E060
S1131C2020E030E0A90160E00E94F81919861886C6
S1131C30C501DF91CF911F910F91FF90EF90DF903D
S1131C40CF90BF90AF9008954F925F926F927F9222
S1131C508F929F92AF92BF92CF92DF92EF92FF92B8
S1131C600F931F93CF93DF93EC012B013A0158019B
S1131C7069018E8580FF05C06894882481F8912CC1
S1131C8002C0812C912CA114B104C104D10441F1EE
S1131C900FB6F8940F92CE0129DD7C0188169906BF
S1131CA048F060E080E090E00E941A1B0E94C11698
S1131CB0998788870F900FBE8E149F04A0F0E12CA3
S1131CC0F12C00E010E0980140E050E0BA0180E01F
S1131CD00E94591819861886CE0108DD7C0103C0BC
S1131CE0CE0104DD7C018E149F04E8F48401970185
S1131CF0A301B201CE01F8DD6C01892BB1F0C3D28E
S1131D008A859B85892B69F08A859B85E12CF12C3A
S1131D1000E020E030E0A90160E00E9401191B8688
S1131D201A86F1D302C0C12CD12CC601DF91CF9108
S1131D301F910F91FF90EF90DF90CF90BF90AF90E5
S1131D409F908F907F906F905F904F900895E09157
S1131D505F16F0916016808181110CC08FEF9FEFA8
S1131D60DC018093291690932A16A0932B16B09326
S1131D702C160895E0915F16F09160160780F085A7
S1131D80E02D80819181A281B38180932916909363
S1131D902A16A0932B16B0932C160895CF93DF9395
S1131DA0EC018B8D9C8D0E940C06CE010E940C06CA
S1131DB0DF91CF9108954F925F926F927F928F92AD
S1131DC09F92AF92BF92CF92DF92EF92FF920F93C6
S1131DD0CF93DF932C015B014A013901E60165EAE7
S1131DE070E08B8D9C8D0E940A328B8D9C8D21E03E
S1131DF0821A9108880E991EA114B10489F415C0A1
S1131E00822F90E0F501E80FF91F3081DE01A80F61
S1131E10B91F5D963C938081882329F02F5F01C010
S1131E2020E0203168F31CA601C01D8E0A3008F0A2
S1131E3009E00A8F0DA71EA6CE0102960E945A063B
S1131E40CE010E960E945A06DB87CA878AE090E08C
S1131E50A0E0B0E0801B9109A109B1098E879F879A
S1131E60A88BB98BDF8BCE8B84E0FE01BF96DF019C
S1131E701D928A95E9F71BAAA301B201C4010E942D
S1131E80CE0699838883E114F10419F0F701D18314
S1131E90C083DF91CF910F91FF90EF90DF90CF90AF
S1131EA0BF90AF909F908F907F906F905F904F9076
S1131EB00895CF93C0E009C02BE0C29FC001112454
S1131EC08958994E0E944906CF5FCA30A8F38CE620
S1131ED096E10E94490681E696E10E94490682E560
S1131EE096E10E94490687E496E10E9449068BE345
S1131EF096E10E9449068CE696E1909360168093E1
S1131F005F1681E696E190935E1680935D16CF91FD
S1131F100895CF93DF93EC010FB6F8940F9280915C
S1131F203A168F5F80933A168091E5169091E616E3
S1131F30892B51F4D093E616C093E51680913A1696
S1131F40813091F4B6DF10C08091341681110CC039
S1131F50E091E516F091E616928D8A8D891720F0AE
S1131F60D093E616C093E51680912D168F5F80936B
S1131F702D16EA8D809135168E1710F4E0933516E0
S1131F808BE08E9FF0011124E958F94E0180F28113
S1131F90E02DFF83EE832681378139872887A68148
S1131FA0B7819E012E5F3F4F15963C932E93149755
S1131FB037832683EA8D8E9FF0011124E958F94E68
S1131FC0FD87EC8780818F5F80830F900FBE8091A7
S1131FD03416882351F0E091E516F091E616928DBF
S1131FE08A8D981710F40E941707DF91CF910895F6
S1131FF0CF93DF931BC00FB6F8940F92E0914E1667
S1132000F0914F16C085D185CE0102960E949B06A1
S113201080913A16815080933A16809146168150E9
S1132020809346160F900FBECE01B8DE80914616FF
S11320308111E1CFDF91CF9108958F929F92AF925A
S1132040BF92CF92DF92EF92FF92CF93DF936B0117
S11320507C01C42F8090361690903716A0903816C5
S1132060B09039168091E5169091E61602960E947A
S11320709B068FEFC816D806E806F806B1F5CC2300
S1132080A1F1EBE3F6E1A181B281C091E516D09113
S1132090E616BF83AE83C091E516D091E616169678
S11320A08D919C911797998788871696CD91DC918D
S11320B017978091E5169091E61602969D838C837E
S11320C08091E5169091E616029617969C938E934E
S11320D01697A091E516B091E6161D96FC93EE9323
S11320E01C9780818F5F80833FC0C80CD91CEA1C79
S11320F0FB1CE091E516F091E616C282D382E482DD
S1132100F582C814D904EA04FB0468F46091E51666
S11321107091E61680915D1690915E166E5F7F4F0A
S11321200E945E0621C06091E5167091E6168091CA
S11321305F16909160166E5F7F4F0E945E068091DD
S1132140291690912A16A0912B16B0912C16C81618
S1132150D906EA06FB0640F4C0922916D0922A1644
S1132160E0922B16F0922C16DF91CF91FF90EF9016
S1132170DF90CF90BF90AF909F908F9008952F9253
S11321803F924F925F926F927F928F929F92AF9203
S1132190BF92CF92DF92EF92FF920F93CF93DF9390
S11321A03C011B014A012901CA010E9463056C011B
S11321B0892B71F084E390E00E946305EC01892B84
S11321C019F0DC8ECB8E06C0C6010E940C0602C03C
S11321D0C0E0D0E0209761F0A12CB12C6E019201F7
S11321E0A401B101C301E7DDCE0193DE81E001C0AA
S11321F08FEFDF91CF910F91FF90EF90DF90CF9011
S1132200BF90AF909F908F907F906F905F904F9012
S11322103F902F900895EF92FF920F930F2EF7E2C5
S1132220EF2EF6E1FF2EF02D00E020E030E040EC50
S113223050E066E773E08DEC90E0A1DF813011F4AB
S11322400E94BE1B8130C9F4F8948FEF9FEFDC012C
S11322508093291690932A16A0932B16B0932C16CC
S113226081E080933416109236161092371610922D
S11322703816109239160E94E506809106020F91D5
S1132280FF90EF900895809126168F5F8093261615
S113229008950FB6F8940F92609136167091371620
S11322A080913816909139160F900FBE0895CF92F1
S11322B0DF92EF92FF92CF93DF93809126168111E4
S11322C005C1C0903616D0903716E0903816F090BD
S11322D039168FEFC81AD80AE80AF80AC0923616D7
S11322E0D0923716E0923816F0923916C114D10400
S11322F0E104F104B1F480915F169091601620918D
S11323005D1630915E163093601620935F1690939D
S11323105E1680935D1680912E168F5F80932E1625
S113232016DD8091291690912A16A0912B16B09152
S11323302C16C816D906EA06FB0620F480E0B2C0C3
S113234081E001C080E0E0915F16F0916016908119
S113235091110CC04FEF5FEFBA01409329165093CF
S11323602A1660932B1670932C169CC0E0915F166E
S1132370F09160160780F085E02D0084F185E02D52
S11323804281538164817581C416D506E606F70639
S113239048F44093291650932A1660932B16709391
S11323A02C1680C0A485B585C681D781208531854A
S11323B03F832E83C085D185268137813D832C833D
S11323C011964D915C9112979F012E5F3F4F4217DA
S11323D0530731F44085518512965C934E931197BF
S11323E0158614869C9191509C93A08DB18D109765
S11323F009F1C289D389448955895F834E83C4898D
S1132400D589428953895D834C8311966D917C9162
S11324101297AF01425F5F4F6417750731F4448927
S1132420558912965C934E931197118E108E9C9140
S113243091509C93A28D909135169A1710F4A09305
S113244035169BE09A9FD0011124A958B94E1196D4
S11324500D90BC91A02DB783A68316964D915C91E7
S11324601797518740871696CD91DC9117973D8336
S11324702C8317963C932E931697A28D9A9FD00186
S11324801124A958B94EB587A4879C919F5F9C934A
S1132490228DE091E516F091E616928D291708F049
S11324A04FCF51CFE091E516F091E616E28D9BE017
S11324B0E99FF0011124E958F94E9081923008F017
S11324C081E090912F16911116C016C0809130169C
S11324D090913116A0913216B09133160196A11D38
S11324E0B11D8093301690933116A0933216B09399
S11324F0331680E001C081E0DF91CF91FF90EF902F
S1132500DF90CF900895CF92DF92EF92FF92CF9316
S1132510DF930FB6F8940F92809126168150809322
S11325202616809126168111BEC080913A1681111B
S113253088C0BCC0E0915916F0915A160084F18508
S1132540E02DA08DB18DC289D389848995899F831B
S11325508E83C489D589828993899D838C831196BE
S11325602D913C911297CF010E962817390731F41B
S11325708489958912969C938E931197118E108E4F
S11325808C9181508C93A485B585C681D781808533
S113259091859F838E83C085D185868197819D8314
S11325A08C8311968D919C9112979F012E5F3F4FC2
S11325B08217930731F48085918512969C938E93AC
S11325C01197158614868C9181508C93A28D8091DD
S11325D035168A1710F4A09335168BE08A9FD00124
S11325E01124A958B94E11960D90BC91A02DB78312
S11325F0A68316964D915C9117975187408716963E
S1132600CD91DC9117973D832C8317963C932E93A1
S11326101697A28D8A9FD0011124A958B94EB58767
S1132620A4878C918F5F8C93928DA091E516B091C5
S1132630E6165A968C91981730F081E080932F1605
S113264002C0E0E0F0E080915216811173CFEF2BCD
S113265009F07DDBC0903016D0903116E090321630
S1132660F0903316C114D104E104F104A1F01FDE8B
S1132670882319F081E080932F1681E0C81AD108CD
S1132680E108F108A1F71092301610923116109259
S113269032161092331680912F16882331F00E943F
S11326A0170781E003C080E001C080E00F900FBEF7
S11326B0DF91CF91FF90EF90DF90CF9008958F92AC
S11326C09F92AF92BF92CF92DF92EF92FF921F93AD
S11326D0CF93DF93EC016A017B01D5DD8090361640
S11326E090903716A0903816B09039168881998149
S11326F0AA81BB81AC01BD014C0D5D1D6E1D7F1D0A
S113270088169906AA06BB0660F4481759076A0793
S11327107B0798F484169506A606B70680F010E0A9
S113272013C0481759076A077B0758F084169506A3
S1132730A606B70640F010E007C010E005C011E09F
S113274003C011E001C011E0488359836A837B838D
S1132750112341F0CB01BA01681979098A099B094F
S113276040E06BDCD0DE811102C00E941707812F8C
S1132770DF91CF911F91FF90EF90DF90CF90BF90AA
S1132780AF909F908F900895CF92DF92EF92FF9237
S11327906B017C01672B682B692B39F074DD40E0F9
S11327A0C701B6014ADCAFDE01C080E0811102C07E
S11327B00E941707FF90EF90DF90CF9008958091CB
S11327C02616882321F081E080932F160895109215
S11327D02F16E091E516F091E61620813181E09103
S11327E0E516F091E616838D948D8217930760F0B9
S11327F06091E5167091E616635E7F4F8091E51651
S11328009091E6160E944C1E8091351601C08150AD
S1132810282F30E09BE0929FF001939FF00D11244C
S1132820E958F94E9081992391F39BE0929FA0017E
S1132830939F500D1124DF010180F281E02D04806B
S1132840F581E02D1296FC93EE9311974658594E5C
S1132850E417F50729F444815581FD01528341832E
S11328609BE0929FF001939FF00D1124E958F94EDB
S11328700180F281E02D208531853093E616209386
S1132880E516809335160895CF92DF92EF92FF926A
S11328906A017B016091E5167091E616625F7F4FD5
S11328A00E945E0641E0C701B601C7DBFF90EF90CE
S11328B0DF90CF9008950F931F93CF93DF93FC0184
S11328C0A091E516B091E61670681E964D935D933F
S11328D06D937C935197A181B281C091E516D091FB
S11328E0E616BB8BAA8BC091E516D091E616169618
S11328F08D919C9117979D8B8C8B1696CD91DC9125
S113290017978091E5169091E6160E969D838C8319
S11329108091E5169091E6160E9617969C938E93E9
S11329201697A091E516B091E6165996FC93EE938E
S1132930589780818F5F808341E0C901B8017DDBB6
S1132940DF91CF911F910F910895CF93DF93FC01F5
S1132950CB01BA01A181B281C091E516D091E616EE
S1132960BB8BAA8BC091E516D091E61616964D91B5
S11329705C9117975D8B4C8B1696CD91DC911797D4
S11329804091E5165091E616425F5F4F5D834C839C
S11329904091E5165091E616425F5F4F17965C939F
S11329A04E931697A091E516B091E6165996FC93AE
S11329B0EE93589730813F5F3083222319F06FEFF5
S11329C07FEFCB01422F39DBDF91CF910895CF9375
S11329D0DF93DC011796ED91FC9118970084F18543
S11329E0E02DA08DB18DC289D389848995899F8377
S11329F08E83C489D589828993899D838C8311961A
S1132A008D919C9112979F01225F3F4F82179307EC
S1132A1031F48489958912969C938E931197118E23
S1132A20108E8C9181508C9380912616811152C006
S1132A30A485B585C681D781808591859F838E8342
S1132A40C085D185868197819D838C8311968D91D4
S1132A509C9112979F012E5F3F4F8217930731F489
S1132A608085918512969C938E9311971586148672
S1132A708C9181508C93A28D809135168A1710F415
S1132A80A09335168BE08A9FD0011124A958B94E22
S1132A9011960D90BC91A02DB783A68316964D91E7
S1132AA05C911797518740871696CD91DC911797C3
S1132AB03D832C8317963C932E931697A28D8A9F61
S1132AC0D0011124A958B94EB587A4878C918F5F82
S1132AD08C931CC042E556E1DA011196CD91DC914C
S1132AE01297D38BC28B8E819F81958B848B8E8121
S1132AF09F81DC0115963C932E9314973F832E837C
S1132B00518F408FDA018C918F5F8C93928DE0917D
S1132B10E516F091E616828D891720F481E0809302
S1132B202F1601C080E0DF91CF910895CF93DF93FA
S1132B30DC0170684D935D936D937C9313971896A5
S1132B40ED91FC9119971A964D915C911B971496EF
S1132B508D919C91159716962D913C911797EC01A8
S1132B603F832E8316968D919C91179714962D91E1
S1132B703C911597EC013D832C83EA0189819A816C
S1132B80A817B90731F416968D919C9117979A83DB
S1132B9089831B961C921E921A97DA018C9181509C
S1132BA08C93A485B585C681D781808591859F83C3
S1132BB08E83C085D185868197819D838C83119670
S1132BC08D919C9112979F012E5F3F4F821793071F
S1132BD031F48085918512969C938E931197158676
S1132BE014868C9181508C93A28D809135168A170E
S1132BF010F4A09335168BE08A9FD0011124A958B4
S1132C00B94E11960D90BC91A02DB783A68316964C
S1132C104D915C911797518740871696CD91DC9121
S1132C2017973D832C8317963C932E931697A28D6A
S1132C308A9FD0011124A958B94EB587A4878C91D5
S1132C408F5F8C93928DE091E516F091E616828D5C
S1132C50891718F481E080932F16DF91CF9108959E
S1132C600FB6F8940F9220912E16FC012083409108
S1132C703616509137166091381670913916418383
S1132C805283638374830F900FBE089520912E1690
S1132C90FC01208340913616509137166091381606
S1132CA070913916418352836383748308958F929C
S1132CB09F92AF92BF92CF92DF92EF92FF920F93C7
S1132CC01F93CF93DF93FB010FB6F8940F92C0903C
S1132CD03616D0903716E0903816F0903916DC018D
S1132CE011960D911D912D913C9114974601570118
S1132CF0801A910AA20AB30A4081518162817381C8
S1132D004F3FBFEF5B076B077B0739F1EC01B881DD
S1132D10A0912E16BA1759F0C016D106E206F30692
S1132D2030F0108211821282138281E017C084165F
S1132D309506A606B70658F4481959096A097B0985
S1132D404083518362837383A1DF80E007C01082D4
S1132D5011821282138281E001C080E00F900FBEC5
S1132D60DF91CF911F910F91FF90EF90DF90CF9063
S1132D70BF90AF909F908F90089581E080932F161D
S1132D8008958091E5169091E61608958091341681
S1132D90882331F080912616811104C082E00895C1
S1132DA081E0089580E008950F931F93CF93DF93FC
S1132DB0FC01892B09F477C0828DA091E516B091AE
S1132DC0E6165A969C91891708F063C04685578584
S1132DD060897189772394F0A091E516B091E61685
S1132DE05A969C914AE050E060E070E0491B51091A
S1132DF06109710946875787608B718B24853585F6
S1132E004BE0849FC00111248958994E2817390733
S1132E10B9F5EF018F010E5F1F4FC8010E949B0699
S1132E20E091E516F091E616E28DEA8F8091351671
S1132E308E1710F4E09335168BE08E9FF001112469
S1132E40E958F94E0180F281E02DFF83EE8326815B
S1132E50378139872887A681B78115961C930E93ED
S1132E60149717830683EA8D8E9FF0011124E95885
S1132E70F94EFD87EC8780818F5F808381E016C0E7
S1132E80A091E516B091E6165A968C91828F81E056
S1132E900DC095A5E091E516F091E616828D981780
S1132EA020F080E003C080E001C081E0DF91CF9199
S1132EB01F910F9108950F931F93CF93DF93FC01FC
S1132EC0892B09F449C086A5815086A7228D95A532
S1132ED0291709F443C0811143C0EF018F010E5F2C
S1132EE01F4FC8010E949B06EDA5EA8F8AE090E07F
S1132EF0A0E0B0E08E1B9109A109B1098E879F87DC
S1132F00A88BB98B809135168E1710F4E093351683
S1132F108BE08E9FF0011124E958F94E0180F28173
S1132F20E02DFF83EE832681378139872887A681A8
S1132F30B78115961C930E93149717830683EA8D15
S1132F408E9FF0011124E958F94EFD87EC878081AA
S1132F508F5F808381E005C080E003C080E001C012
S1132F6080E0DF91CF911F910F9108950F931F93EC
S1132F70CF93DF93FC01892B09F45AC085A58617EA
S1132F8008F4862F928D891709F452C026A52130A2
S1132F9009F04EC0828F46855785608971897723F1
S1132FA064F04AE050E060E070E0481B51096109B8
S1132FB0710946875787608B718B248535854BE073
S1132FC0949FC00111248958994E2817390781F517
S1132FD0EF018F010E5F1F4FC8010E949B06EA8D0F
S1132FE0809135168E1710F4E09335168BE08E9F82
S1132FF0F0011124E958F94E0180F281E02DFF839C
S1133000EE832681378139872887A681B781159673
S11330101C930E93149717830683EA8D8E9FF001F9
S11330201124E958F94EFD87EC8780818F5F8083F6
S1133030DF91CF911F910F910895CF92DF92EF927C
S1133040FF92E091E516F091E61666857785808912
S11330509189E091E516F091E616A091E516B091FC
S1133060E6165A962C910F2EFAE0CF2ED12CE12C95
S1133070F12CF02DC21AD108E108F108C686D786D2
S1133080E08AF18AFF90EF90DF90CF9008958091CD
S1133090E5169091E616892B39F0E091E516F0914A
S11330A0E61686A58F5F86A78091E5169091E616B1
S11330B008954F925F926F927F92AF92BF92CF9298
S11330C0DF92EF92FF920F931F93CF93DF93280128
S11330D039010FB6F8940F92E091E516F091E616D7
S11330E0C82FD0E0EC0FFD1F83A9823079F1E09165
S11330F0E516F091E616CE01880F991F880F991FE7
S1133100E80FF91F87A590A9A1A9B2A940955095E8
S113311060957095482359236A237B2347A750ABB6
S113312061AB72ABE091E516F091E616EC0FFD1F72
S113313081E083ABA114B104C104D10439F041E0AE
S1133140C601B5010E941D100E9417070F900FBE03
S11331500FB6F8940F92E114F104A1F0E091E51692
S1133160F091E616CE01880F991F880F991FE80F7A
S1133170F91F87A590A9A1A9B2A9F701808391831A
S1133180A283B383E091E516F091E616EC0FFD1FE0
S113319083A98230E9F4E091E516F091E616CE01B8
S11331A0880F991F880F991FE80FF91F87A590A909
S11331B0A1A9B2A9409450946094709448225922D1
S11331C06A227B2247A650AA61AA72AA81E001C0A2
S11331D080E02091E5163091E616C20FD31F1BAA9A
S11331E00F900FBEDF91CF911F910F91FF90EF9041
S11331F0DF90CF90BF90AF907F906F905F904F9093
S113320008958F929F92AF92BF92EF92FF920F9385
S1133210CF93DF93DC010FB6F8940F92E114F1041D
S113322089F0E62FF0E0EE0FFF1FEE0FFF1FE80F0F
S1133230F91F87A490A8A1A8B2A8F701808291825F
S1133240A282B38270E0FD01E60FF71F83A992E02A
S113325093AB023001F118F4013031F04DC003306A
S113326079F10430D1F148C0660F771F660F771FDC
S1133270FD01E60FF71F87A490A8A1A8B2A8BA0180
S1133280A901482959296A297B2947A750AB61AB71
S113329072AB01E034C0660F771F660F771FFD0124
S11332A0E60FF71F47A550A961A972A94F5F5F4FA9
S11332B06F4F7F4F47A750AB61AB72AB01E01FC0AC
S11332C0660F771F660F771FFD01E60FF71F27A70D
S11332D030AB41AB52AB01E012C0823079F0660FE3
S11332E0771F660F771FFD01E60FF71F27A730AB87
S11332F041AB52AB01E003C001E001C000E081300A
S113330009F069C01C96ED91FC911D971696CD911C
S1133310DC91179718968D919C9119979F838E83B2
S11333201896CD91DC91199716968D919C911797CB
S11333309D838C83818192819D012E5F3F4F8217F3
S1133340930731F418968D919C91199792838183F8
S11333501D961C921E921C978081815080835A96E0
S1133360EC915A97809135168E1710F4E093351628
S11333708BE08E9FF0011124E958F94E0180F2810F
S1133380E02D1796FC93EE93169746815781199674
S11333905C934E931897C681D7813D832C833783E2
S11333A026835A96EC915A978E9FF0011124E9587E
S11333B0F94E1D96FC93EE931C9780818F5F80835A
S11333C05A969C91E091E516F091E616828D891744
S11333D010F40E9417070F900FBE802FDF91CF913A
S11333E00F91FF90EF90BF90AF909F908F900895B2
S11333F08F929F92AF92BF92CF92DF92EF92FF9201
S11334000F93CF93DF93DC01E114F10489F0E62FED
S1133410F0E0EE0FFF1FEE0FFF1FE80FF91F87A468
S113342090A8A1A8B2A8F70180829182A282B38257
S113343070E0FD01E60FF71F93A982E083AB023031
S113344001F118F4013031F04DC0033079F104304A
S1133450D1F148C0660F771F660F771FFD01E60F95
S1133460F71F87A490A8A1A8B2A8BA01A901482966
S113347059296A297B2947A750AB61AB72AB81E01C
S113348034C0660F771F660F771FFD01E60FF71F25
S113349047A550A961A972A94F5F5F4F6F4F7F4F36
S11334A047A750AB61AB72AB81E01FC0660F771FBB
S11334B0660F771FFD01E60FF71F27A730AB41AB5F
S11334C052AB81E012C0923079F0660F771F660F1D
S11334D0771FFD01E60FF71F27A730AB41AB52ABB7
S11334E081E003C081E001C080E0913009F096C022
S11334F09091261691115FC01C96ED91FC911D9739
S11335001696CD91DC91179718962D913C911997A9
S11335103F832E831896CD91DC91199716962D91A1
S11335203C9117973D832C83418152819D012E5FED
S11335303F4F4217530731F418964D915C911997F8
S1133540528341831D961C921E921C979081915028
S113355090835A96EC915A97909135169E1710F4D1
S1133560E09335169BE09E9FF0011124E958F94E33
S11335700180F281E02D1796FC93EE931697468115
S1133580578119965C934E931897C681D7813D83D2
S11335902C83378326835A96EC915A979E9FF00189
S11335A01124E958F94E1D96FC93EE931C979081D3
S11335B09F5F908321C062E576E1FB01C181D281E6
S11335C05396DC93CE9352972E813F8155963C932C
S11335D02E9354974E815F819D01225F3F4FFA01E4
S11335E0358324833F832E8359967C936E93589717
S11335F0FB0190819F5F90835A962C91E091E51690
S1133600F091E616928D921748F4C114D10419F082
S113361091E0F601908391E090932F16DF91CF9182
S11336200F91FF90EF90DF90CF90BF90AF909F905D
S11336308F900895009721F48091E5169091E616F5
S11336400FB6F8940F9270E0FC01E60FF71F23A960
S1133650223031F4FC01E60FF71F13AA81E001C008
S113366080E00F900FBE0895DC01E091F116F09117
S1133670F216808191E0811190E09C93911108C031
S11336800780F085E02D60817181828193810895A6
S113369060E070E0CB010895CF92DF92EF92FF9249
S11336A00F931F93FC014283538364837583938731
S11336B082870417150726073707C0F00C191D0960
S11336C02E093F0986859785A089B18908171907AE
S11336D02A073B0700F5BF016E5F7F4F8091EF160D
S11336E09091F0160E945E0680E018C00C151D052E
S11336F02E053F0528F44C155D056E057F0568F41D
S1133700BF016E5F7F4F8091F1169091F2160E9477
S11337105E0680E003C081E001C081E01F910F914B
S1133720FF90EF90DF90CF9008950FB6F8940F922A
S11337308091ED169091EE16892BE9F48EEF96E1C7
S11337400E94490683EF96E10E9449068EEF96E1B6
S11337509093F2168093F11683EF96E19093F0160E
S11337608093EF1640E067E08AE00E940C09909392
S1133770EE168093ED160F900FBE0895EF92FF9210
S11337800F93D3DF8091ED169091EE16892B91F073
S11337900F2EFBEEEF2EF6E1FF2EF02D03E020E0DE
S11337A030E040EC50E06BE773E087ED90E00E947E
S11337B0BF1001C080E00F91FF90EF9008958F92A9
S11337C09F92AF92BF92CF92DF92EF92FF920F93AC
S11337D01F93CF93DF93CDB7DEB727970FB6F89437
S11337E0DEBF0FBECDBFE091ED16F091EE1630971F
S11337F081F169832A833B834C835D839F838E831A
S11338006630F4F4C3DA823069F400E0A70196016B
S1133810BE016F5F7F4F8091ED169091EE160E946E
S11338202F0918C000E020E030E0A901BE016F5F5D
S11338307F4F8091ED169091EE160E942F090AC0D9
S113384020E0A801BE016F5F7F4FCF010E94DF0916
S113385001C080E027960FB6F894DEBF0FBECDBF3F
S1133860DF91CF911F910F91FF90EF90DF90CF9058
S1133870BF90AF909F908F9008958F929F92AF9238
S1133880BF92CF92DF92EF92FF920F931F93CF9349
S1133890DF933BC00780F085E02D80809180A2807B
S11338A0B380C085D1858E010E5F1F4FC8010E9471
S11338B09B06EC89FD89CE0119958E8982FF25C06E
S11338C08E859F85A889B989880D991DAA1DBB1D60
S11338D088169906AA06BB0670F48A839B83AC8378
S11338E0BD83DB87CA87B8018091F1169091F216E7
S11338F00E945E060AC0C12CD12C760100E010E0C3
S1133900A501940160E0CE015ADFE091F116F09137
S1133910F21680818111BECF8091EF169091F0163E
S11339209093F2168093F116F093F016E093EF164D
S1133930DF91CF911F910F91FF90EF90DF90CF9087
S1133940BF90AF909F908F900895CF92DF92EF92A7
S1133950FF92CF93DF93EC010E9449116B017C012C
S11339608091E7169091E816A091E916B091EA16B5
S1133970C816D906EA06FB0620F47FDF81E08883B7
S113398001C01882C092E716D092E816E092E916B8
S1133990F092EA16C701B601DF91CF91FF90EF9044
S11339A0DF90CF9008954F925F926F927F928F92A3
S11339B09F92AF92BF92CF92DF92EF92FF920F93BA
S11339C01F93CF93DF934B015C0129013A01E091EE
S11339D0F116F091F2160780F085E02DC085D185AF
S11339E0CE0102960E949B068E8982FF1BC04E85E3
S11339F05F8568897989480D591D6A1D7B1D75018C
S1133A00640193018201CE0147DE882369F0C12C51
S1133A10D12C760100E010E0A501940160E0CE0114
S1133A20CEDE02C08E7F8E8BEC89FD89CE01199586
S1133A30DF91CF911F910F91FF90EF90DF90CF9086
S1133A40BF90AF909F908F907F906F905F904F90BA
S1133A5008958F929F92AF92BF92CF92DF92EF928E
S1133A60FF921F93CF93DF931F92CDB7DEB76B0105
S1133A707C01142F0E944311CE01019666DF4B0195
S1133A805C01898181112DC011110DC08C149D041C
S1133A90AE04BF0440F00E948312A5019401C70143
S1133AA0B60181DF20C0112341F0E091EF16F091BF
S1133AB0F016808111E0811110E0B701A6014819C8
S1133AC059096A097B09212F8091ED169091EE1610
S1133AD00E945A0B0E948312811105C00E9417078D
S1133AE002C00E9483120F90DF91CF911F91FF902B
S1133AF0EF90DF90CF90BF90AF909F908F900895FC
S1133B00AF92BF92CF92DF92EF92FF920F931F93E7
S1133B10CF93DF93CDB7DEB728970FB6F894DEBF07
S1133B200FBECDBF82C0898188230CF47EC0AE80D5
S1133B30BF80D5011C968D919C911D97892B21F0F6
S1133B40C50102960E949B06CE010896FEDE8B01FB
S1133B509C01E9810E2E000CFF0BEA30F10508F000
S1133B6064C08827EE58FF4F8F4F0C94D430F50172
S1133B7086898160868BCA80DB80EC80FD804685E7
S1133B805785608971894C0D5D1D6E1D7F1DC501B2
S1133B9083DD882309F449C0D5015496ED91FC9145
S1133BA05597C5011995F501868982FF3EC04A8162
S1133BB05B816C817D8186859785A089B1899A0115
S1133BC0AB01280F391F4A1F5B1FC12CD12C760172
S1133BD000E010E060E0C501F2DD27C0D501569693
S1133BE08C9156978E7F56968C931FC0F5018689CB
S1133BF08160868B4A815B816C817D814687578792
S1133C00608B718B400F511F621F731F6801790114
S1133C10C50142DD0AC0F501868981FD04C0C501E4
S1133C200E940C0602C08E7F868B20E030E0A90142
S1133C30BE016F5F7F4F8091ED169091EE160E944A
S1133C401A0A811170CF28960FB6F894DEBF0FBE02
S1133C50CDBFDF91CF911F910F91FF90EF90DF9037
S1133C60CF90BF90AF900895089584B1806884B9CF
S1133C7085B1806885B9089583B1806883B9089552
S1133C80F4DF2FEF80E792E0215080409040E1F78D
S1133C9000C00000F1DFF5CFE8DF2FEF87EA91E6FF
S1133CA0215080409040E1F700C00000E5DFF5CFEF
S1133CB0EF92FF920F931092AC181092AB18E12C74
S1133CC0F12C082F20E030E048E851E063E873E08D
S1133CD08CEF9EE10E94BF100F91FF90EF9008952A
S1133CE060E777E180E090E00E94C41305D19093EF
S1133CF0A4188093A318F5D09093A8188093A718BC
S1133D000E94D0029093AA188093A9180E94CB0213
S1133D109093A2188093A1180E94C6029093A618AB
S1133D208093A5180E94C1029093AE188093AD1899
S1133D304091A9185091AA186091A1187091A218E5
S1133D409A01260F371FE091A518F091A6182E0F9F
S1133D503F1F280F391F2115310531F1A091A318F8
S1133D60B091A418A417B50738F04091A718509142
S1133D70A8184E175F07C0F48091AB189091AC1847
S1133D808C599F4F9093AC188093AB1889E993E0BA
S1133D909F938F930E9460326091AB1880E00E94E1
S1133DA0CA270F900F900895232B29F12091A3186F
S1133DB03091A4186217730738F02091A718309136
S1133DC0A81882179307B8F48091AB189091AC1897
S1133DD0845691099093AC188093AB1889E993E0C9
S1133DE09F938F930E9460326091AB1880E00E9491
S1133DF0CA270F900F90089573DFFECF41E060E073
S1133E0070E084E690E00E94B90C90936B18809364
S1133E106A1841E060E070E08CE290E00E94B90C26
S1133E2090936F1880936E18089581E00E94D309CF
S1133E30909371188093701808950E94AF03909323
S1133E406D1880936C180E94AF0390938D18809323
S1133E508C18089586E090E00E9463059093B01852
S1133E608093AF18009711F480E090E00895E091FA
S1133E70AF18F091B018918380830895E091AF1842
S1133E80F091B018938382830895E091AF18F09174
S1133E90B018958384830895E9E0F7E126E021834F
S1133EA06083A091AF18B091B0182C9111963C91F9
S1133EB011973283238312962C91129713963C9177
S1133EC013973483258314962C91149715963C915B
S1133ED03683278326E1DC0101900D922A95E1F7D0
S1133EE00895609121177091221780912317909162
S1133EF02417F1D1CB01089580911F1790912017B9
S1133F000895EF92FF920F93E12CF12C082F20E0FB
S1133F1030E040EC50E060EA73E088E090E20E9418
S1133F20BF100F91FF90EF900895CF92DF92EF9220
S1133F30FF920F93CC24CA94DC2C760101E021E09B
S1133F4041E050E060E070E080916C1890916D1851
S1133F500E94C2036093B1187093B2188093B3188F
S1133F609093B41860FF4EC066E070E080E090E08B
S1133F700E94C41387D28823C1F066E070E080E019
S1133F8090E00E94C41385EB93E09F938F930E946B
S1133F9060320F900F9006C063E070E080E090E024
S1133FA00E94C4136FD28823B9F381D263E070E016
S1133FB080E090E00E94C4137AD2811123C066E0AD
S1133FC070E080E090E00E94C41396D29093201792
S1133FD080931F17B5D2BC01990F880B990BA9D1F7
S1133FE060932117709322178093231790932417BB
S1133FF042E050E060E070E080918C1890918D1860
S11340000E9462040F91FF90EF90DF90CF9008958B
S11340108CDFFECF0F931F93CF93DF93CDB7DEB723
S113402064970FB6F894DEBF0FBECDBF81E00E9447
S11340300A2DFED37AD69F938F938FEE93E09F93AE
S11340408F930E94603272D570D69F938F9382E0D3
S113405094E09F938F930E9460328BE194E00E94DE
S113406073328E010F5F1F4FC801F4D35ED61F93C6
S11340700F939F938F9388E294E09F938F930E9472
S11340806032C80103D451D69F938F931F930F932B
S11340908CE394E09F938F930E94603281E594E0D7
S11340A00E947332A8016EE574E08FE794E01CD699
S11340B03CD69F938F931F930F938EE594E09F9329
S11340C08F938FE794E09F938F9380E994E09F937D
S11340D08F930E9460320DD428D69F938F9386ECE1
S11340E094E09F938F930E9460320FB6F894DEBFE2
S11340F00FBECDBF81E0F7D418D69F938F9385ED83
S113410094E09F938F930E94603286EF94E00E9424
S1134110733284EF91E0F2D408D69F938F9381E0B9
S11341208F9384EF8F9383E095E09F938F930E9406
S113413060320FB6F894DEBF0FBECDBF1AE080E048
S1134140DED3082FF2D59F938F931F921F9383E2A0
S113415095E09F938F930E9460320F900F900F9081
S11341600F900F900F90083059F080E00E946E2D50
S113417066E371E080E090E00E94C4131150F9F608
S1134180083021F481E00E94502D0DC083E495E0B5
S11341900E94733281E00E945F2D80E00E942D2DE9
S11341A00E941707FDCF64960FB6F894DEBF0FBECA
S11341B0CDBFDF91CF911F910F910895EF92FF92A0
S11341C00F9320916A1830916B18E12CF12C082F71
S11341D048E851E06EE475E082E391E20E94BF108A
S11341E00F91FF90EF9008950F931F930FEF1FEF20
S11341F0980146E150E065E277E180916A18909178
S11342006B180E94240E892BA1F083E00E94802D5C
S113421065E277E180E09CD388D59F938F9389E50D
S113422095E09F938F930E9460320F900F900F90B0
S11342300F901F910F91089581E0ECD262E070E03D
S113424080E090E00E94C41380E0E4D266E970E06C
S113425080E090E00E94C41396D2DCDE80E090E01F
S1134260C3DFFCCFE9DF83E090E00E94080181E036
S11342700E94EA0181E045DEEDDD84E019CD089578
S1134280E9D083E02ED69EC60895D7DDB7DDCDCD27
S1134290089581B1816881B980E00E94B52BF0DF77
S11342A0E2DF85E00E94BC2CF0DF60916E18709113
S11342B06F1881E06FD284E081DF85E00C94D50231
S11342C00895E7DF8EE695E00E9473320E940B1199
S11342D080E090E0089570D088F09F5790F0B92F57
S11342E09927B751A0F0D1F0660F771F881F991F47
S11342F01AF0BA95C9F712C0B13081F077D0B1E0A5
S1134300089574C0672F782F8827B85F39F0B93FB4
S1134310CCF3869577956795B395D9F73EF4909548
S11343208095709561957F4F8F4F9F4F0895E894C6
S113433009C097FB3EF490958095709561957F4FE9
S11343408F4F9F4F9923A9F0F92F96E9BB27939597
S1134350F695879577956795B795F111F8CFFAF4A7
S1134360BB0F11F460FF1BC06F5F7F4F8F4F9F4FD8
S113437016C0882311F096E911C0772321F09EE836
S1134380872F762F05C0662371F096E8862F70E09C
S113439060E02AF09A95660F771F881FDAF7880F76
S11343A09695879597F9089557FD9058440F551F92
S11343B059F05F3F71F04795880F97FB991F61F0A3
S11343C09F3F79F087950895121613061406551F1A
S11343D0F2CF4695F1DF08C0161617061806991F86
S11343E0F1CF86957105610508940895E894BB277B
S11343F066277727CB0197F908956530F1F4FA0120
S113440080818F7390E0982F88272181822B90934D
S11344100A02809309028281F0E48F9FC001112473
S1134420FA01238126952695822B90930802809386
S1134430070281E080933B170895643051F080E0D7
S113444090E4909308028093070290930A02809369
S1134450090208950F931F930DEF11E220E034E257
S113446044EF50E060E087E20E94A22D90933D1754
S113447080933C1721E0892B09F020E0822F1F91C3
S11344800F91089580913C1790913D17009759F032
S113449040E060E070E00E94F32D843031F410922B
S11344A03B1780E0089582E0089583E008958091A9
S11344B03C1790913D17009739F064E00E943F2E1D
S11344C0853021F083E0089582E0089580E0089526
S11344D06091090270910A0280E090E028DF20E0F8
S11344E030E048EC52E40E944C3020E038EF4FE7D3
S11344F056E40C94B22F0895EBDF20E030E040E264
S113450051E40E944C30E7DECB010895609107022C
S11345107091080280E090E00ADF20E030E045E29C
S113452053E40E944C3020E038EF4FE756E40E94F9
S1134530B22F20E030E040E252E40C944B2F089577
S1134540E5DF20E030E040E251E40E944C300E947C
S11345501D30CB0108950F931F93CF93DF931F92C8
S11345601F92CDB7DEB78C0119822DC0E09175176B
S1134570EC3250F481E08E0F80937517F0E0E9552A
S1134580F84E8A81808302C0109275178A818A301E
S1134590D1F44091751750E0FA01EB55F84E1082B2
S11345A0415051099E012F5F3F4F67EA77E18091A7
S11345B07817909179170E94E00D898181110E94EA
S11345C0170710927517BE016E5F7F4FC80137D66B
S11345D0882361F20F900F90DF91CF911F910F917B
S11345E008950F931F93CF93DF938C01EB01809178
S11345F07817909179170E94EB0CB8018EE397E13C
S11346000E944132209779F0EEE3F7E10190002017
S1134610E9F7319780E290E091838083BE018EE3D5
S113462097E10E943632EEE3F7E1DF010D900020BE
S1134630E9F711978DE09AE011969C938E93129668
S11346401C9201900020E9F73197EE53F741AE2F09
S11346508EE397E1AC016A2F80917A1790917B17D2
S113466099D5811111C008E215E020E030E04DE257
S113467050E061E078E180917817909179170E9479
S1134680240E81E098E102C080E090E0DF91CF91B8
S11346901F910F9108952F923F924F925F926F92C4
S11346A07F928F929F92AF92BF92CF92DF92EF92BE
S11346B0FF920F931F93CF93DF935C01FC01019052
S11346C00020E9F731976F01C81AD90A5C2C0F2E24
S11346D0F8E18F2EF8E09F2EF02DE12CF12C4C2CDC
S11346E03701F40101811281E80109900020E9F702
S11346F02197C01BD10B3C2EF9E0CF16D10458F002
S1134700F4012080FEE02F1206C0B801C5010E940A
S11347101132892B09F5442D351408F44C2F50E03F
S1134720B801C5010E944832892B49F4F301EE0F08
S1134730FF1FE60DF71DE85EF74F20800DC08FEFD9
S1134740E81AF80AE3E08E0E911CF1E1EF16F10489
S113475039F66894222424F8822DDF91CF911F9199
S11347600F91FF90EF90DF90CF90BF90AF909F900C
S11347708F907F906F905F904F903F902F9008950F
S113478030DF89CF089580917817909179170C9430
S1134790EB0C08958F929F92AF92CF92EF920F936A
S11347A01F93CF93C82F8B0141E060E070E088EC49
S11347B090E00E94B90C9093791780937817109326
S11347C07717009376170F2EFBEA8F2EF2E29F2EB7
S11347D0F02D6894AA24A6F86894CC24C6F8E12C99
S11347E000E023E040E051EE60E070E08C2F06D45E
S11347F090937B1780937A17E7E0F1E080818061E2
S11348008083CF911F910F91EF90CF90AF909F90A5
S11348108F900895882331F0E8E0F1E080818F7E65
S113482080830895E8E0F1E08081806180830895C9
S113483060E070E08EE995E0D4DEE1E0F8E101901B
S11348400020E9F73197E150F84181E0759708F0CD
S113485080E00895CF93DF93EC0160E070E08FEA8D
S113486095E0BFDEE1E0F8E101900020E9F7E251D4
S1134870F84139F461E078E1CE010E94413280E0F0
S113488002C0188281E0DF91CF910895FC0101906C
S11348900020E9F79F01215131092817390729F42C
S11348A0BC018DED95E06CCF089589E00895FC017D
S11348B001900020E9F79F01215131092817390798
S11348C029F4BC018CEE95E05BCF089589E008954E
S11348D0FC0101900020E9F79F01215231092817BA
S11348E0390729F4BC018BEF95E04ACF089589E09C
S11348F0089560E070E08AE396E042CF08950F9354
S11349001F93E82FF0E0EE0FFF1FEC5EF74F60817E
S1134910718183E496E034DF811114C008E215E06C
S113492020E030E04DE250E061E078E180917817DA
S1134930909179170E94240E882321F081E098E158
S1134940AADE03C081E098E1A6DE1F910F910895CD
S11349500F931F93CF93DF931F92CDB7DEB7DB0185
S113496011969C911197953108F0B4C0992381F167
S113497060E070E0272F30E0462F50E0FD01E40FA7
S1134980F51F928192959F709A3010F0995C01C046
S1134990905DF901EE56F84E90832F5F3F4FFD0175
S11349A0E40FF51F92819F70492F50E04A30510562
S11349B014F0995C01C0905DF901EE56F84E9083B5
S11349C07E5F6F5F11969C911197691798F201C0F1
S11349D070E0E72FF0E0EE56F84E10824C91811112
S11349E003C08CE496E002C08EE496E022E937E14D
S11349F03F932F931F924F939F938F9382E596E05B
S1134A009F938F9384ED97E19F938F930E94A3329A
S1134A1060E070E084ED97E1B3DE0FB6F894DEBF9A
S1134A200FBECDBF811159C008E215E020E030E08F
S1134A304DE250E061E078E1809178179091791728
S1134A400E94240E882309F447C081E098E123DE04
S1134A508E3009F042C087E0898380917617909167
S1134A607717892BA9F1BE016F5F7F4F81E098E131
S1134A7068D180937C17E981F0E0EF5FF74EDF01A6
S1134A800D900020E9F71197AE1BBF0BAA2391F0FC
S1134A90BB27CD0101979C0112F42F5F3F4F359541
S1134AA0279520937D17AF014F5F5F4F64E18EE739
S1134AB097E173D101E010E020E030E046E150E0FE
S1134AC06CE777E180917617909177170E941B0D20
S1134AD08EE003C084E101C080E00F90DF91CF91AC
S1134AE01F910F910895813019F062E676E002C0BB
S1134AF06BE377E086E696E043CE08959F938F9329
S1134B0087E996E09F938F9384ED97E19F938F932A
S1134B100E94A33260E070E084ED97E131DE0F90F3
S1134B200F900F900F900F900F9008952F923F9237
S1134B304F925F926F927F928F929F92AF92BF92A9
S1134B40CF92DF92EF92FF920F931F93CF93DF9355
S1134B50CDB7DEB7A0970FB6F894DEBF0FBECDBFBA
S1134B6064EC76E080ED96E03CDD95DD8111A3C038
S1134B7080E2E2E2F2E0DE01119601900D928A9564
S1134B80E1F79E012F5F3F4F6901E12CF12C0F2EBD
S1134B90FCEDAF2EF6E0BF2EF02D04ED17E10F2E45
S1134BA0F5EF4F2EF6E05F2EF02D0F2EFCE08F2E4A
S1134BB0F7E09F2EF02D0F2EF6E26F2EF7E07F2EFA
S1134BC0F02D3E2C2F2CFF92EF92BF92AF921F93A9
S1134BD00F930E94A33260E070E0C80102DD5BDD48
S1134BE00F900F900F900F900F900F90811163C052
S1134BF032E03E15E8F4F60183818F9382818F932E
S1134C0081818F9380818F93FF92EF925F924F9275
S1134C101F930F930E94A33260E070E0C801E1DCAF
S1134C203ADD0FB6F894DEBF0FBECDBF811143C08D
S1134C302F923F929F928F921F930F930E94A332C1
S1134C4060E070E0C801CDDC26DD0F900F900F907E
S1134C500F900F900F9081112EC02F923F927F9250
S1134C606F921F930F930E94A33260E070E0C8011B
S1134C70B8DC11DD0F900F900F900F900F900F90F4
S1134C80811119C03FEFE31AF30A84E0C80ED11C66
S1134C9098E0E916F10409F094CF60E070E08EE347
S1134CA097E09FDCF8DC811106C060E070E08FE4DF
S1134CB097E097DCF0DCA0960FB6F894DEBF0FBE49
S1134CC0CDBFDF91CF911F910F91FF90EF90DF90B7
S1134CD0CF90BF90AF909F908F907F906F905F9098
S1134CE04F903F902F900895EF92FF920F931F9350
S1134CF0CF93DF93EC018B017A0181E0F4DE811123
S1134D000DC0CE01D4DD811109C0C801E1DD8111DE
S1134D1005C0C701BBDD811101C0EBDDDF91CF917F
S1134D201F910F91FF90EF90089590E0FC01EE0F1A
S1134D30FF1F8E0F9F1FFC01E85EF74F8181928158
S1134D400895DC01009729F1FB012081FC01019009
S1134D500020E9F73197E81BF90B822F90E0E81760
S1134D60F907C8F080E008C0880F382F330F330FDD
S1134D70830F8053890F2F5FFD01E20FF11D908196
S1134D8030ED390F3A3010F49111EECFFB0120834E
S1134D90089580E0089580E008950F931F93CF93C2
S1134DA0DF93DC01EA012097E1F1FA010190002090
S1134DB0E9F73197E41BF50B329710F532C08D01FA
S1134DC0040F151F30E0AE01420F531FFA0190810A
S1134DD0913428F09753592F5295507F03C0592F7F
S1134DE05295507F2C0F3D1FF9019181913410F0A1
S1134DF0975301C09053950FF80190838F5F01C0C2
S1134E0080E0282F220F482F50E0FE01019000205F
S1134E10E9F73197EC1BFD0B4E175F0710F486136F
S1134E20CECFDF91CF911F910F91089580913118CA
S1134E30860F8093311890913418913079F028F0CE
S1134E409230A9F0933019F108956F3F09F048C0EA
S1134E501092311881E0809334180895663809F06F
S1134E603FC01092301882E0809334180895E09186
S1134E70301881E08E0F80933018F0E0E25DF74E39
S1134E806083823069F583E08093341808959091AB
S1134E90301821E0290F20933018963009F581113C
S1134EA00EC0EEE2F8E1808190E0982F88272181FE
S1134EB0820F911D909336188093351804C0109278
S1134EC036181092351810923418E0913218F09177
S1134ED03318309729F08091351890913618199528
S1134EE008958F929F92AF92CF92EF920F930F2ECD
S1134EF0F6E18F2EF7E29F2EF02D6894AA24A4F8F1
S1134F006894CC24C4F8E12C00E023E040E855E2A6
S1134F1060E070E073D090933818809337180F9145
S1134F20EF90CF90AF909F908F9008959093331807
S1134F30809332180895CF93DF93CDB7DEB72997C6
S1134F400FB6F894DEBF0FBECDBF89E0E2E4F2E015
S1134F509E012F5F3F4FD90101900D928A95E1F791
S1134F60109236181092351880913718909138188D
S1134F70009731F0422F532F69E00CD180E001C03B
S1134F8082E029960FB6F894DEBF0FBECDBFDF9145
S1134F90CF91089565360CF064E66C390CF46CE935
S1134FA096EF6902B00111246854744F811105C051
S1134FB07093290160932801089570932B016093E5
S1134FC02A010895EAE0F1E08081886180838FE31B
S1134FD09CE9909327018093260160E080E0DADF6A
S1134FE060E081E0D7DFE0E2F1E08081826A8083E3
S1134FF0E1E2F1E080818A61808308952F923F92FB
S11350004F925F926F927F928F929F92AF92CF92C4
S1135010EF92FF920F931F93CF93DF93CDB7DEB739
S1135020F82E2A013B0188E090E00E94DC308C01DC
S11350308F2D90E0FC01EE0FFF1FE75CF74E11830C
S113504000830115110509F468C0880F991FFC013C
S1135050E55FFD4F80819181D8018D939C938C2DC8
S113506090E0880F991F880F991F0E94DC301C0163
S113507086E090E00E94DC307C014C2DB101EFD63B
S1135080F801F582E4828A2D90E0880F991F880F39
S1135090991F0E94DC301C0186E090E00E94DC3005
S11350A07C014A2DB101DBD6D8011396FC92EE9215
S11350B0129717969C928E921697FFB6F894ED91DC
S11350C0FC91119736978081826080838D909C90AB
S11350D0C301B2012CD920E030E040E051E4DCD738
S11350E09B01AC0160E074E284E79BE43BD720E0E1
S11350F030E040E85FE3CFD6EED8F4013297608326
S1135100D801ED91FC911197359788E98083ED9151
S1135110FC91349786E08083FFBEC801DF91CF9174
S11351201F910F91FF90EF90CF90AF909F908F9031
S11351307F906F905F904F903F902F900895CF9302
S1135140DF93DC01892B01F11296ED91FC91139709
S1135150938182812581981B922384819817B1F0D1
S1135160838126952823C081D181C20FD11D6883F4
S11351708F5F958189238383ED91FC91359780819D
S11351808062808380E003C081E001C082E0DF911F
S1135190CF910895EF92FF920F931F93CF93DF93D4
S11351A07C01009709F441C0DC011296ED91FC9159
S11351B0139793818281981B858198238481891B0D
S11351C08617A8F1662341F1842F952FDC016150E5
S11351D0462F50E04F5F5F4F480F591FE701EA81A8
S11351E0FB81938182812581981B92238481981766
S11351F079F08C91938126952923608171818B01AB
S1135200020F111DE80188839F5F85819823938392
S11352101196A417B50711F7D701ED91FC913597B5
S113522080818062808380E003C081E001C082E0ED
S1135230DF91CF911F910F91FF90EF900895009708
S1135240D1F0DC011496ED91FC9115979381828144
S1135250981799F09281858186958923A081B181DF
S1135260A80FB11D8C91DB018C939F5F85819823DE
S1135270928380E0089581E0089583E008951F9269
S11352800F920FB60F9211240BB60F922F933F93E8
S11352904F935F936F937F938F939F93AF93BF933A
S11352A0CF93DF93EF93FF93A0913918B0913A18FD
S11352B0109711F16091C6001496ED91FC91159729
S11352C0938182812581981B92238481981761F0B0
S11352D0838126952823C081D181C20FD11D688383
S11352E08F5F9581892383831696ED91FC9117979F
S11352F0309711F0CD011995FF91EF91DF91CF9186
S1135300BF91AF919F918F917F916F915F914F91D9
S11353103F912F910F900BBE0F900FBE0F901F90D7
S113532018951F920F920FB60F9211240BB60F927D
S11353302F938F939F93AF93BF93EF93FF93E0913A
S11353403918F0913A183097B9F00280F381E02DC2
S1135350938182819817B1F092818581282F2695B7
S11353602923A081B181A20FB11D2C919F5F8923B4
S113537082832093C6000BC0E1ECF0E080818F7D36
S1135380808305C0E1ECF0E080818F7D8083FF9114
S1135390EF91BF91AF919F918F912F910F900BBE81
S11353A00F900FBE0F901F9018951F920F920FB67B
S11353B00F9211240BB60F922F933F934F935F9349
S11353C06F937F938F939F93AF93BF93CF93DF9309
S11353D0EF93FF93A0913B18B0913C18109711F1F3
S11353E06091CE001496ED91FC9115979381828182
S11353F02581981B92238481981761F083812695D7
S11354002823C081D181C20FD11D68838F5F95810C
S1135410892383831696ED91FC911797309711F0A9
S1135420CD011995FF91EF91DF91CF91BF91AF918C
S11354309F918F917F916F915F914F913F912F91A8
S11354400F900BBE0F900FBE0F901F9018951F92D8
S11354500F920FB60F9211240BB60F922F938F93C6
S11354609F93AF93BF93EF93FF93E0913B18F09119
S11354703C183097B9F00280F381E02D938182814A
S11354809817B1F092818581282F26952923A08130
S1135490B181A20FB11D2C919F5F89238283209338
S11354A0CE000BC0E9ECF0E080818F7D808305C0E5
S11354B0E9ECF0E080818F7D8083FF91EF91BF91D3
S11354C0AF919F918F912F910F900BBE0F900FBEB4
S11354D00F901F9018951F920F920FB60F921124E0
S11354E00BB60F922F933F934F935F936F937F93DA
S11354F08F939F93AF93BF93CF93DF93EF93FF93D8
S1135500A0913D18B0913E18109711F16091D6000A
S11355101496ED91FC911597938182812581981BB6
S113552092238481981761F0838126952823C08172
S1135530D181C20FD11D68838F5F958189238383B5
S11355401696ED91FC911797309711F0CD011995AE
S1135550FF91EF91DF91CF91BF91AF919F918F9187
S11355607F916F915F914F913F912F910F900BBE5F
S11355700F900FBE0F901F9018951F920F920FB6A9
S11355800F9211240BB60F922F938F939F93AF9387
S1135590BF93EF93FF93E0913D18F0913E1830973D
S11355A0B9F00280F381E02D938182819817B1F0E4
S11355B092818581282F26952923A081B181A20F6C
S11355C0B11D2C919F5F892382832093D6000BC049
S11355D0E1EDF0E080818F7D808305C0E1EDF0E0B6
S11355E080818F7D8083FF91EF91BF91AF919F91D7
S11355F08F912F910F900BBE0F900FBE0F901F90A5
S113560018951F920F920FB60F9211240BB60F929A
S11356102F933F934F935F936F937F938F939F93B6
S1135620AF93BF93CF93DF93EF93FF93A0913F1872
S1135630B0914018109711F1609136011496ED91D4
S1135640FC911597938182812581981B92238481F3
S1135650981761F0838126952823C081D181C20FD8
S1135660D11D68838F5F9581892383831696ED917D
S1135670FC911797309711F0CD011995FF91EF9197
S1135680DF91CF91BF91AF919F918F917F916F9156
S11356905F914F913F912F910F900BBE0F900FBED2
S11356A00F901F9018951F920F920FB60F9211240E
S11356B00BB60F922F938F939F93AF93BF93EF9358
S11356C0FF93E0913F18F09140183097B9F00280B1
S11356D0F381E02D938182819817B1F092818581C5
S11356E0282F26952923A081B181A20FB11D2C91C9
S11356F09F5F89238283209336010BC0E1E3F1E0AD
S113570080818F7D808305C0E1E3F1E080818F7D1E
S11357108083FF91EF91BF91AF919F918F912F91D2
S11357200F900BBE0F900FBE0F901F901895CF9344
S1135730DF931F92CDB7DEB7BE016F5F7F4F8091BD
S11357404118909142187BDD8111F6CF898190E058
S11357500F90DF91CF910895682F80914118909117
S11357604218EDDC80E090E008958F929F92AF9212
S1135770CF92EF920F93812C912C6894AA24A7F8CE
S11357806894CC24C7F8E12C00E023E040E051EE1B
S113579060E070E033DC9093421880934118E9EBA9
S11357A0F8E183E192E091838083938382830F9174
S11357B0EF90CF90AF909F908F90089590E0FC0170
S11357C0EE0FFF1FE80FF91FEE0FFF1FED5BF74E03
S11357D0238121111FC09C01220F331FF901E80FFF
S11357E0F91FEE0FFF1FED5BF74EA081B1814C91C5
S11357F0F901E80FF91FEE0FFF1FED5BF74E81E093
S113580090E0028002C0880F991F0A94E2F7842B6B
S11358108C930895FC01EE0FFF1FDF01A80FB91F41
S1135820AA0FBB1FAD5BB74E0D90BC91A02D2C9160
S1135830E80FF91FEE0FFF1FED5BF74E81E090E0DC
S1135840028002C0880F991F0A94E2F78095822390
S11358508C93089590E0FC01EE0FFF1FE80FF91FF1
S1135860EE0FFF1FED5BF74E2381211120C09C0139
S1135870220F331FF901E80FF91FEE0FFF1FED5B35
S1135880F74EA081B1814C91F901E80FF91FEE0F99
S1135890FF1FED5BF74E81E090E0028002C0880FAD
S11358A0991F0A94E2F7809584238C930895FC0150
S11358B0EE0FFF1FDF01A80FB91FAA0FBB1FAD5BBF
S11358C0B74E0D90BC91A02D2C91E80FF91FEE0F4F
S11358D0FF1FED5BF74E81E090E0028002C0880F6D
S11358E0991F0A94E2F7822B8C930895CC24C394D5
S11358F0D12C6894BB24B2F8C3E4D8E110E08C81C5
S1135900813081F018F1823061F5E881F9812081DC
S1135910C6010A8002C0880F991F0A94E2F7822701
S113592080831FC08D818F5F863010F48D8319C0F2
S11359301D82E881F9812081C6010A8002C0880F96
S1135940991F0A94E2F7822780830BC00D810023FC
S113595029F0812F7FDF01500D8303C0BC82812F8A
S11359602DDF1F5F2696143051F66CE070E080E066
S113597090E00E94C413C0CFEF92FF920F931F9345
S1135980CF93DF93082F80E487B9C3E4D8E10F2EC7
S1135990F8E2EF2EF12CF02DF982E88286E08A837A
S11359A01B8214E01C8380E009DF80E887B9FF8252
S11359B0EE8287E0888719861A8781E0FFDE80E21D
S11359C083BB84E390E09D878C8785E08E871F8668
S11359D0188B82E0F3DE80E18093010182E091E0A4
S11359E09B8B8A8B1C8B1D8A1E8B83E0E7DEE12C4C
S11359F0F12C20E030E040EC50E06BE478E086E706
S1135A009CE20E94BF10DF91CF911F910F91FF90F4
S1135A10EF900895CF93DF9390E0FC01EE0FFF1F0A
S1135A20DF01A80FB91FAA0FBB1FAD5BB74ECD9105
S1135A30DC911197488121E030E012960C90129786
S1135A4002C0220F331F0A94E2F724272883FD01A2
S1135A5081E08483DF91CF910895CF93DF9390E029
S1135A60FC01EE0FFF1FDF01A80FB91FAA0FBB1F18
S1135A70AD5BB74ECD91DC911197488121E030E0C8
S1135A8012960C90129702C0220F331F0A94E2F769
S1135A9024272883FD0182E08483DF91CF91089538
S1135AA0282F30E0F901EE0FFF1FE20FF31FEE0F76
S1135AB0FF1FED5BF74E93E09483CCCE0895282F1F
S1135AC030E0F901EE0FFF1FE20FF31FEE0FFF1F8F
S1135AD0ED5BF74E94E0948371CE089590E0FC0161
S1135AE0EE0FFF1FDF01A80FB91FAA0FBB1FAD5B8D
S1135AF0B74E26E015962C931597FD011482089550
S1135B0090E0FC01EE0FFF1FDF01A80FB91FAA0FE1
S1135B10BB1FAD5BB74E15961C921597FD01148201
S1135B2008958091691881110CC08CE08093B800AD
S1135B308FEF8093BB0084E08093BC0081E080936E
S1135B4069180895AF92BF92CF92DF92EF92FF92BD
S1135B500F931F93CF93DF93A82EB62E69017A017A
S1135B6084E090E029D3EC01892B61F1A88281E0E3
S1135B70B81212C0C701B60120EA36E841E050E08D
S1135B80F1D2DA01C9014097A109B109B695A795E7
S1135B9097958795898311C0C701B60120E83AE13A
S1135BA046E050E0DFD2DA01C9014097A109B1090A
S1135BB0B695A7959795879589831B830A838C2F20
S1135BC09D2F02C080E090E0DF91CF911F910F9153
S1135BD0FF90EF90DF90CF90BF90AF9008958091A9
S1135BE0BC0081700895FF920F931F93CF93DF93AE
S1135BF00097D1F14A30D0F5F42E8B01EC01EFDFA0
S1135C00811136C080915C1890915D18C817D9072E
S1135C1041F087DF89818093B800D0935D18C093E9
S1135C205C1881E08F0D80935E188881880F8093C3
S1135C305F18FF2089F0F801A0E6B8E14FEF4F0D9F
S1135C40642F70E0CB010196B801680F791F819130
S1135C508D93E617F707D9F788EF8093210285EA39
S1135C608093BC0084E005C086E003C087E001C0E7
S1135C7082E0DF91CF911F910F91FF9008951F93C0
S1135C80CF93DF93009729F16B3028F5162FEC01A1
S1135C90A6DF811122C080915C1890915D18C8170D
S1135CA0D90741F03EDF89818093B800D0935D1815
S1135CB0C0935C1810935E188881880F816080936C
S1135CC05F1888EF8093210285EA8093BC0085E009
S1135CD005C086E003C087E001C082E0DF91CF9178
S1135CE01F9108951F920F920FB60F9211240BB6B5
