:10000000E5C0000004C1000002C1000000C1000002
:10001000FEC00000FCC00000FAC00000F8C00000F4
:10002000F6C00000F4C00000F2C00000F0C0000004
:10003000CDC50000ECC00000EAC00000E8C0000030
:10004000E6C00000E4C00000E2C00000E0C0000024
:10005000DEC00000DCC00000DAC00000D8C0000034
:10006000D6C000000C94D1240C942325D0C00000ED
:10007000CEC00000CCC00000CAC00000C8C0000054
:10008000C6C00000C4C00000C2C00000C0C0000064
:100090000C9467250C94B925BAC000000C94042A6E
:1000A000B6C00000B4C00000B2C00000B0C0000084
:1000B000AEC00000ACC00000AAC00000A8C0000094
:1000C000A6C00000A4C00000A2C000000C94FD2542
:1000D0000C944F269CC000000C9493260C94E526AB
:1000E00096C00000FD19FD19FD19341A3C1A511A69
:1000F000FD19FD19341A3C1A262A962A962A962AA0
:10010000962A962A962A962A262A962A962A962A5F
:10011000962A962A962A962A282A962A962A962A4D
:10012000962A962A962A962A962A962A962A962ACF
:10013000962A962A962A962A282A962A962A962A2D
:10014000962A962A962A962A962A962A962A962AAF
:10015000962A962A962A962A922A962A962A962AA3
:10016000962A962A962A962A5D2A962A962A962AC8
:10017000962A962A962A962A962A962A962A962A7F
:10018000962A962A962A962A512A962A962A962AB4
:10019000962A962A962A962A752A0E943F0D8091C1
:1001A000BD15823008F04CD40E947A1AF6CFCF9356
:1001B000DF931F92CDB7DEB7CE0101960E947A176A
:1001C00049810E946F190E94C619F6CF11241FBEE3
:1001D000CFEFD1E2DEBFCDBF00E00CBF17E0A0E063
:1001E000B2E0E0E9F2E600E00BBF02C007900D923A
:1001F000A03BB107D9F727E1A0EBB7E001C01D9202
:10020000A23DB207E1F70E94EE1D0C944631F8CEF4
:100210009093AF178093AE1708958091AF178F9387
:100220008091AE178F9383E792E09F938F930E9404
:10023000282E0F900F900F900F908091AE179091F5
:10024000AF170895CF92DF92EF92FF920F930E9423
:10025000520ECC24CA94DC2C760100E021E042E06E
:1002600050E060E070E0809106029091070293D028
:100270004091B6175091B7176091B8177091B917A0
:1002800080EB97E10E94A6100E944F238093AD1748
:10029000882341F080E892E09F938F930E94282E5C
:1002A0000F900F906FE170E080E090E00E940B11E2
:1002B0008091B4179091B5170E947E238093AD175B
:1002C000882341F08FE892E09F938F930E94282E1D
:1002D0000F900F908091B4179091B51799DF9DDF23
:1002E0000F91FF90EF90DF90CF90089541E050E0A4
:1002F00060E070E08091080290910902ECD088E300
:1003000091E0A0E0B0E08093B6179093B717A09368
:10031000B817B093B9170E94900E6093B0177093FE
:10032000B1178093B2179093B3178CDFFECF0F9362
:1003300001110CC0DC01CB0182239323A423B5233C
:10034000892B8A2B8B2B79F480E010C0DC01CB0148
:1003500082239323A423B523281739074A075B0771
:1003600021F080E003C081E001C081E00F91089599
:10037000CF93DF938FE090E0AFD1EC01009739F09D
:10038000FC011192119211921192CF018BD2CE01E8
:10039000DF91CF9108952F923F924F925F926F928B
:1003A0007F928F929F92AF92BF92CF92DF92EF9205
:1003B000FF920F931F93CF93DF93EC014A015B01F0
:1003C000622E702E0E948A0E288039804A805B80BF
:1003D000A5019401C201B101AADF8823A1F0662022
:1003E00089F1D501C40180959095A095B0958221A1
:1003F0009321A421B52188839983AA83BB83C12C2F
:10040000D12C760122C0C114D104E104F104E9F039
:10041000611004C040E050E0BA0104C040E050E088
:1004200060E071E071107460482959296A297B29BC
:1004300097018601CE0104960E94A211212C312C35
:10044000210103C0C12CD12C76010E94CA0FCD28F6
:10045000CE28CF2859F1811101C0F2D20E94761422
:100460006B017C0191FD1FC00FB6F8940F92C880FC
:10047000D980EA80FB80072DA5019401C701B60150
:1004800056DF882371F0662061F080949094A094E8
:10049000B0948C209D20AE20BF2088829982AA82B1
:1004A000BB820F900FBE160127015524C201B10176
:1004B000DF91CF911F910F91FF90EF90DF90CF9040
:1004C000BF90AF909F908F907F906F905F904F9074
:1004D0003F902F9008954F925F926F927F92AF92CC
:1004E000BF92CF92DF92EF92FF920F931F93CF9321
:1004F000DF93EC016A017B018C01095F1F4F0E94B1
:100500008A0EEB85FC8588819981AA81BB81C82AE6
:10051000D92AEA2AFB2AC882D982EA82FB82C12C24
:10052000D12C76013DC0A480B58080819181A281CB
:10053000B381AC01BD017727B2FD0EC04880598060
:100540006A807B80442255226622772245284628ED
:10055000472889F420E012C0488059806A807B8057
:1005600044225522662277224415550566057705F3
:1005700021F020E003C021E001C021E0222371F03E
:10058000B0FF04C0C42AD52AE62AF72A4881598137
:100590006A817B817260CF010E94DD12EA2DFB2D02
:1005A000E017F10709F0BFCFC094D094E094F09425
:1005B00088819981AA81BB81C822D922EA22FB22A3
:1005C000C882D982EA82FB820E94CA0F688179813F
:1005D0008A819B81DF91CF911F910F91FF90EF90C6
:1005E000DF90CF90BF90AF907F906F905F904F90D3
:1005F0000895ECEBF7E0A0ECB7E0B183A0831382A1
:100600001282E8E6F5E1F093BB07E093BA071382A4
:1006100012821182108288EA9DE013969C938E9339
:100620001297ED93FC939093B7078093B60790933E
:10063000B9078093B80780E090E89093B107809362
:10064000B0070895CF93DF93EC01ACEBB7E001C0A6
:10065000DF01ED91FC911197EC17FD07C8F312969D
:100660008D919C9113979D01280F391FC217D307B5
:1006700049F42A813B81820F931F13969C938E939A
:100680001297ED018A819B819E01280F391FE21785
:10069000F307C1F42091BA073091BB07E217F307C3
:1006A00071F022813381820F931F9B838A83ED91A6
:1006B000FC911197808191819983888305C039834A
:1006C000288302C0F983E883CA17DB0711F0CD93B2
:1006D000DC93DF91CF910895EF92FF920F931F93D8
:1006E000CF93DF938C010E948A0E8091BA0790917C
:1006F000BB07892B09F47DDF8091B0079091B1078A
:1007000080239123892B09F076C00115110549F04A
:10071000C80104960817190718F000E010E001C09E
:100720008C010115110509F469C08091B8079091F9
:10073000B9078017910708F464C0C091BC07D09135
:10074000BD07ECEBF7E002C0FE01EC018A819B8162
:100750008017910720F4888199810097A9F78091EB
:10076000BA079091BB07C817D90709F44DC0E080BC
:10077000F18084E0E80EF11C888199819183808367
:100780002A813B81201B310B2930310548F0CE01F5
:10079000800F911FFC01338322831B830A8352DF66
:1007A0002A813B818091B8079091B907821B930BF6
:1007B0009093B9078093B8074091B6075091B70757
:1007C0008417950720F49093B7078093B60780911C
:1007D000B0079091B107282B392B3B832A831982CC
:1007E00018828091B4079091B50701969093B50750
:1007F0008093B4070BC0E12CF12C08C0E12CF12C44
:1008000005C0E12CF12C02C0E12CF12C0E94CA0F92
:10081000E114F10411F40E94861AC701DF91CF910F
:100820001F910F91FF90EF9008950F931F93CF9317
:10083000DF93009791F1EC0124974A815B8120912D
:10084000B0073091B107BA0162237323672B29F1F6
:1008500068817981672B09F520953095242335230C
:100860003B832A830E948A0E8A819B812091B8074C
:100870003091B907820F931F9093B9078093B807FF
:10088000CE01E0DE8091B2079091B307019690937C
:10089000B3078093B2070E94CA0FDF91CF911F91D7
:1008A0000F910895FC010396928381834FEF5FEFD0
:1008B000BA014383548365837683908787839287C5
:1008C000818710820895FC011386128608950F9384
:1008D0001F93CF93DF93EB01088119812A813B811C
:1008E0000F3F4FEF14072407340721F4FC01A185C3
:1008F000B28511C0DC01139601C0DF011496ED91A1
:10090000FC9115974081518162817381041715070D
:100910002607370790F71496ED91FC911597FD8304
:10092000EC83D783C683BF83AE831596DC93CE93C7
:1009300014979B878A87FC0120812F5F2083DF919A
:10094000CF911F910F910895CF93DF93FC01A28562
:10095000B385C481D581868197819F838E83C6812B
:10096000D781848195819D838C8311968D919C91F3
:100970001297E817F90731F48681978112969C93B4
:100980008E931197138612868C9181508C938C9143
:10099000DF91CF910895A89590EC88E10FB6F89477
:1009A000A895809360000FBE909360000895FC01AD
:1009B000608331977083319710823197108231971D
:1009C00020E820833197108231971082319710826E
:1009D000779740833197508386970895DCDFA09105
:1009E0002B16B0912C16CD91CDBFDD91DEBFFF91BE
:1009F000EF91DF91CF91BF91AF919F918F917F91B7
:100A00006F915F914F913F912F911F910F91FF90A7
:100A1000EF90DF90CF90BF90AF909F908F907F909E
:100A20006F905F904F903F902F901F900F900CBE53
:100A30000F900BBE0F900FBE0F90089581E00895A8
:100A40000F920FB6F8940F920BB60F920CB60F924E
:100A50001F9211242F923F924F925F926F927F923A
:100A60008F929F92AF92BF92CF92DF92EF92FF92BE
:100A70000F931F932F933F934F935F936F937F93A6
:100A80008F939F93AF93BF93CF93DF93EF93FF9396
:100A9000A0912B16B0912C160DB60D920EB60D929C
:100AA0000E942611A0912B16B0912C16CD91CDBF8E
:100AB000DD91DEBFFF91EF91DF91CF91BF91AF91BB
:100AC0009F918F917F916F915F914F913F912F9166
:100AD0001F910F91FF90EF90DF90CF90BF90AF905C
:100AE0009F908F907F906F905F904F903F902F904E
:100AF0001F900F900CBE0F900BBE0F900FBE0F906B
:100B000008950F920FB6F8940F920BB60F920CB691
:100B10000F921F9211242F923F924F925F926F92E9
:100B20007F928F929F92AF92BF92CF92DF92EF927D
:100B3000FF920F931F932F933F934F935F936F9366
:100B40007F938F939F93AF93BF93CF93DF93EF9355
:100B5000FF93A0912B16B0912C160DB60D920EB6E8
:100B60000D9213BE0E949E0E81110E942611A0912B
:100B70002B16B0912C16CD91CDBFDD91DEBFFF912C
:100B8000EF91DF91CF91BF91AF919F918F917F9125
:100B90006F915F914F913F912F911F910F91FF9016
:100BA000EF90DF90CF90BF90AF909F908F907F900D
:100BB0006F905F904F903F902F901F900F900CBEC2
:100BC0000F900BBE0F900FBE0F9008959ADF1895EF
:100BD0000FB6F8940F92FC01868D811102C081E05E
:100BE00001C080E00F900FBE08950FB6F8940F92E9
:100BF000FC01268D878D281302C081E001C080E0B2
:100C00000F900FBE08950F931F93CF93DF93EC01C6
:100C1000042F1E8D48A141110CC088819981892B18
:100C200009F042C08C819D810E941B141D821C8290
:100C300042C0011117C050E08A819B810E94C92DDA
:100C400028A18A819B81820F911D9B838A832C819D
:100C50003D818217930750F1888199819B838A8314
:100C600080E029C050E08E819F810E94C92D88A11B
:100C700090E09195819591092E813F81280F391F30
:100C80003F832E83488159812417350730F42C8106
:100C90003D81820F931F9F838E83023049F411237D
:100CA00049F0115080E007C080E005C080E003C03B
:100CB00080E001C080E01F5F1E8FDF91CF911F9108
:100CC0000F910895FC0140A14423A9F050E0268132
:100CD0003781240F351F3783268384819581281718
:100CE000390720F08081918197838683CB016681CB
:100CF00077810C94C92D08951F93CF93DF93EC0156
:100D00000FB6F8940F921AA10BC08B89882351F06B
:100D1000CE0143960E942E1281110E94041411509C
:100D200011169CF38FEF8AA30F900FBE0FB6F894A5
:100D30000F9219A10BC08885882351F0CE01089627
:100D40000E942E1281110E940414115011169CF35E
:100D50008FEF89A30F900FBEDF91CF911F91089560
:100D6000CF93DF93EC010FB6F8940F92E881F981ED
:100D70008F8D28A190E030E0829FA001839F500DCD
:100D8000929F500D11244E0F5F1F5D834C831E8E6A
:100D9000FB83EA830197289FA001299F500D389F6C
:100DA000500D1124CF01840F951F9F838E838FEFE9
:100DB00089A38AA361110BC08885882371F0CE01B5
:100DC00008960E942E12882341F03ADE06C0CE011A
:100DD000089668DDCE01439665DD0F900FBE81E079
:100DE000DF91CF9108950F931F93F801611103C014
:100DF0001183008302C051834083878F60A361E029
:100E0000CF01AEDF1F910F910895DF92EF92FF9215
:100E10000F931F93CF93DF93F82EE62ED42E869F49
:100E2000C0011124839658DCEC01009741F08C013D
:100E30002D2DAC014D5D5F4F6E2D8F2DD4DFCE017A
:100E4000DF91CF911F910F91FF90EF90DF90089568
:100E5000CF92DF92EF92FF920F931F93CF93DF9386
:100E6000CDB7DEB729970FB6F894DEBF0FBECDBF62
:100E70007C016B012E833F834887598710E00FB6B2
:100E8000F8940F92F701968D878D981710F0023025
:100E9000B1F4402FB601C701B6DEF701938999235B
:100EA00041F0C70143960E942E12882321F0C8DD2D
:100EB00002C08111C5DD0F900FBE81E04CC08E8154
:100EC0009F81A885B985892B8A2B8B2B21F40F90C4
:100ED0000FBE80E040C0111105C0CE0101960E94F6
:100EE0008D1311E00F900FBE15D70FB6F8940F9227
:100EF000F70181A18F3F09F411A2F70182A18F3F71
:100F000009F412A20F900FBEBE016A5F7F4FCE019F
:100F100001960E949E13811119C0C70166DE8823C5
:100F200081F04E815F8168857985C70108960E94AE
:100F30008B11C701E1DE0E94CA0F8111A0CF80DDB5
:100F40009ECFC701D9DE0E94CA0F99CFC701D4DE58
:100F50000E94CA0F80E029960FB6F894DEBF0FBE3C
:100F6000CDBFDF91CF911F910F91FF90EF90DF9058
:100F7000CF9008950F93009769F0FC0115821482B9
:100F800011821082168200E020E030E0A90160E0CA
:100F900070E05EDF0F910895CF93DF93482F60E0FC
:100FA00081E033DFEC01E6DFCE01DF91CF910895E0
:100FB000EF92FF920F931F93CF93DF938A01FC016F
:100FC000568D378D531710F02230F9F4422F7801E7
:100FD000EC011AA18E8DCE0116DE1F3F81F48B89A4
:100FE0008823A9F0CE0143960E942E12882389F00F
:100FF000E114F10481F081E0F70180830DC0FF244A
:10100000F394F10EFAA281E007C080E005C081E010
:1010100003C081E001C081E0DF91CF911F910F916A
:10102000FF90EF900895CF92DF92EF92FF920F938F
:101030001F93CF93DF93CDB7DEB729970FB6F89400
:10104000DEBF0FBECDBF8C016B012E833F8348876F
:101050005987E12C0FB6F8940F92F801F68CFF2017
:1010600099F0B601C8012EDEFA94F801F68E80855B
:10107000882331F0C80108960E942E128111E0DC0D
:101080000F900FBE81E04FC08E819F81A885B985EA
:10109000892B8A2B8B2B21F40F900FBE80E043C04D
:1010A000E11006C0CE0101960E948D13EE24E39458
:1010B0000F900FBE2FD60FB6F8940F92F80181A1B2
:1010C0008F3F09F411A2F80182A18F3F09F412A207
:1010D0000F900FBEBE016A5F7F4FCE0101960E9446
:1010E0009E13811117C0C80173DD882379F04E81EA
:1010F0005F8168857985C80143960E948B11C8017C
:10110000FBDD48D78111A6CF9BDCA4CFC801F4DD5D
:1011100041D7A0CFC801F0DD3DD7C80159DD8823F4
:1011200009F498CF80E029960FB6F894DEBF0FBE81
:10113000CDBFDF91CF911F910F91FF90EF90DF9086
:10114000CF900895CF93DF93EC010FB6F8940F92F0
:1011500089A18F3F09F419A28AA18F3F09F41AA22D
:101160000F900FBE8E8D811104C0CE0143960E9458
:10117000EC11CE01C1DDDF91CF910895FC014481D6
:10118000558122813381240F351F80819181B901DE
:10119000681B790BCB016417750710F0841B950B46
:1011A00008950F93FC018FE0DF011D928A95E9F706
:1011B00075876487558344833783268306870F9119
:1011C0000895AF92BF92CF92DF92EF92FF920F936A
:1011D0001F93CF93DF936C015B017A01FC01C28105
:1011E000D381048115810C1B1D0B4017510708F496
:1011F0008A01F60184859585A801B5018C0F9D1F94
:101200000E94C92D0E151F0558F4A701401B510B54
:10121000B501600F711FF601848595850E94C92D67
:10122000CE018E0D9F1DF601248135818217930713
:1012300010F0821B930BF60193838283C701DF9129
:10124000CF911F910F91FF90EF90DF90CF90BF90C3
:10125000AF900895CF92DF92EF92FF920F931F937A
:10126000CF93DF931F921F92CDB7DEB77C016B0146
:101270005A83498321153105C1F0FC01868580FD23
:1012800008C04217530708F49A013A83298381E082
:101290000FC02017310758F042E050E0BE016F5FE9
:1012A0007F4FC7018EDF81E003C080E001C080E096
:1012B000882331F049815A81B601C70182DF02C01B
:1012C00080E090E00F900F90DF91CF911F910F91F0
:1012D000FF90EF90DF90CF900895AF92BF92CF92A2
:1012E000DF92EF92FF920F931F93CF93DF937C01D6
:1012F0005B01E9014217530708F4EA01209781F1E5
:10130000F7010081118184819581801B910B6E0111
:101310008C179D0708F46C01F70164857585600FD3
:10132000711FA601C5010E94C92DCC16DD0658F417
:10133000AE014C195D09F70164857585C5018C0DF9
:101340009D1D0E94C92D0C0F1D1FF70184819581E1
:101350000817190710F0081B190BF70111830083F8
:10136000CE01DF91CF911F910F91FF90EF90DF9011
:10137000CF90BF90AF9008956F927F928F929F927F
:10138000AF92BF92CF92DF92EF92FF920F931F9393
:10139000CF93DF931F921F92CDB7DEB76C014B0145
:1013A0005A01790101151105B1F0FC0160807180CD
:1013B000A801BE016F5F7F4F90DF89819A81E01A9B
:1013C000F10AA816B90630F4F60171826082A12CE8
:1013D000B12C01C05C019701A501B401C6017DDFFC
:1013E0000F900F90DF91CF911F910F91FF90EF9091
:1013F000DF90CF90BF90AF909F908F907F906F9035
:101400000895CF92DF92EF92FF920F93CF93DF93E5
:10141000EC016B01413011F401E001C000E0C114A6
:10142000D10419F4CC24C394D12CCE014096C81712
:10143000D90720F4219650D97C0102C0E12CF12C6F
:10144000E114F10439F09601AE01B701615F7F4FFD
:10145000C701A7DEC701DF91CF910F91FF90EF90F9
:10146000DF90CF9008950F930FB6F8940F92FC0180
:1014700020853185232B71F422853385232B61F45C
:10148000268137814481558164857585068589DE8D
:1014900081E003C080E001C080E00F900FBE0F919B
:1014A0000895FC012481358180819181820F931FF1
:1014B00042815381841B950B01978217930710F08B
:1014C000821B930B08952F923F924F925F926F92DF
:1014D0007F928F929F92AF92BF92CF92DF92EF92C4
:1014E000FF920F931F93CF93DF93CDB7DEB72B9768
:1014F0000FB6F894DEBF0FBECDBF4C017B876A8765
:101500001A010E831F8328873987FC018481958106
:101510000197268520FF0CC02A01F2E04F0E511CD6
:101520008415950558F41E821F821886198606C0F8
:101530008417950710F02A0101C02C018E819F812C
:10154000A885B985892B8A2B8B2B09F438C0CE014D
:1015500001960E9477130FB6F8940F92C401A1DF91
:101560003C018415950540F560E080E090E00E9424
:1015700060170E940814F401938782870F900FBEB2
:10158000AE80BF80C884D984E12CF12C00E010E04B
:10159000980140E050E0BA0180E00E94A014F401FC
:1015A00013861286BE016A5F7F4FCE0101960E94AC
:1015B0009E13882381F205C00F900FBE02C0612CDC
:1015C000712C6114710419F4C4016BDF3C018201B8
:1015D0009301A1016A857B85C4013CDE6C01892BE6
:1015E000E9F0C401CBDDF40126813781821793072E
:1015F000A8F090D3F40180859185892B71F08085C6
:101600009185E12CF12C00E020E030E0A90160E0C0
:101610000E944715F40111861086BCD4C6012B9692
:101620000FB6F894DEBF0FBECDBFDF91CF911F91F3
:101630000F91FF90EF90DF90CF90BF90AF909F9071
:101640008F907F906F905F904F903F902F90089574
:10165000AF92BF92CF92DF92EF92FF920F931F93C0
:10166000CF93DF93EC017B015A0169018E8580FFE6
:1016700004C08A010E5F1F4F01C08A01CE0111DF35
:101680009C01A501B701CE01E5DD5C01892BC1F00C
:10169000CE0174DD2E813F818217930788F0888503
:1016A0009985892B69F088859985E12CF12C00E0DA
:1016B00020E030E0A90160E00E943E1619861886FD
:1016C000C501DF91CF911F910F91FF90EF90DF90B7
:1016D000CF90BF90AF9008954F925F926F927F929C
:1016E0008F929F92AF92BF92CF92DF92EF92FF9232
:1016F0000F931F93CF93DF93EC012B013A01580115
:1017000069018E8580FF05C06894882481F8912C3A
:1017100002C0812C912CA114B104C104D10441F167
:101720000FB6F8940F92CE0129DD7C018816990638
:1017300048F060E080E090E00E9460170E9408148A
:10174000998788870F900FBE8E149F04A0F0E12C1C
:10175000F12C00E010E0980140E050E0BA0180E098
:101760000E94A01419861886CE0108DD7C0103C0F2
:10177000CE0104DD7C018E149F04E8F484019701FE
:10178000A301B201CE01F8DD6C01892BB1F0C2D208
:101790008A859B85892B69F08A859B85E12CF12CB4
:1017A00000E020E030E0A90160E00E9447151B86C0
:1017B0001A86F0D302C0C12CD12CC601DF91CF9183
:1017C0001F910F91FF90EF90DF90CF90BF90AF905F
:1017D0009F908F907F906F905F904F900895E091D1
:1017E000A515F091A615808181110CC08FEF9FEF98
:1017F000DC0180936F1590937015A0937115B093D1
:1018000072150895E091A515F091A6150780F08551
:10181000E02D80819181A281B38180936F15909397
:101820007015A0937115B09372150895CF93DF933F
:10183000EC018B8D9C8D0E941504CE010E94150435
:10184000DF91CF9108954F925F926F927F928F9226
:101850009F92AF92BF92CF92DF92EF92FF920F933F
:10186000CF93DF932C015B014A013901E60165EA60
:1018700070E08B8D9C8D0E94D22D8B8D9C8D21E0F4
:10188000821A9108880E991EA114B10489F415C01A
:10189000822F90E0F501E80FF91F3081DE01A80FDB
:1018A000B91F5D963C938081882329F02F5F01C08A
:1018B00020E0203168F31CA601C01D8E0A3008F01C
:1018C00009E00A8F0DA71EA6CE0102960E946304AE
:1018D000CE010E960E946304DB87CA878AE090E0FF
:1018E000A0E0B0E0801B9109A109B1098E879F8714
:1018F000A88BB98BDF8BCE8B84E0FE01BF96DF0116
:101900001D928A95E9F71BAAA301B201C4014FD821
:1019100099838883E114F10419F0F701D183C0831E
:10192000DF91CF910F91FF90EF90DF90CF90BF901C
:10193000AF909F908F907F906F905F904F900895A1
:10194000CF93C0E009C02BE0C29FC0011124835493
:101950009A4E0E945204CF5FCA30A8F382EB95E101
:101960000E94520487EA95E10E94520488E995E1B9
:101970000E9452048DE895E10E94520481E895E1AD
:101980000E94520482EB95E19093A6158093A515D1
:1019900087EA95E19093A4158093A315CF910895BC
:1019A000CF93DF93EC010FB6F8940F9280918015DE
:1019B0008F5F8093801580912B1690912C16892B28
:1019C00051F4D0932C16C0932B1680918015813042
:1019D00091F4B6DF10C080917A1581110CC0E091AE
:1019E0002B16F0912C16928D8A8D891720F0D093AA
:1019F0002C16C0932B16809173158F5F80937315EF
:101A0000EA8D80917B158E1710F4E0937B158BE0A7
:101A10008E9FF0011124E354FA4E0180F281E02DF3
:101A2000FF83EE832681378139872887A681B78196
:101A30009E012E5F3F4F15963C932E93149737834C
:101A40002683EA8D8E9FF0011124E354FA4EFD8720
:101A5000EC8780818F5F80830F900FBE80917A1515
:101A6000882351F0E0912B16F0912C16928D8A8DDF
:101A7000981710F40E942005DF91CF910895CF931D
:101A8000DF931BC00FB6F8940F92E0919415F0917C
:101A90009515C085D185CE0102960E94A40480913F
:101AA000801581508093801580918C158150809392
:101AB0008C150F900FBECE01B9DE80918C1581116F
:101AC000E1CFDF91CF9108958F929F92AF92BF9215
:101AD000CF92DF92EF92FF92CF93DF936B017C0165
:101AE000C42F80907C1590907D15A0907E15B090AD
:101AF0007F1580912B1690912C1602960E94A404BB
:101B00008FEFC816D806E806F806B1F5CC23A1F188
:101B1000E1E8F5E1A181B281C0912B16D0912C169C
:101B2000BF83AE83C0912B16D0912C1616968D9143
:101B30009C911797998788871696CD91DC91179776
:101B400080912B1690912C1602969D838C83809108
:101B50002B1690912C16029617969C938E9316979F
:101B6000A0912B16B0912C161D96FC93EE931C970A
:101B700080818F5F80833FC0C80CD91CEA1CFB1C8E
:101B8000E0912B16F0912C16C282D382E482F5826A
:101B9000C814D904EA04FB0468F460912B16709110
:101BA0002C168091A3159091A4156E5F7F4F0E9413
:101BB000670421C060912B1670912C168091A51599
:101BC0009091A6156E5F7F4F0E94670480916F15FC
:101BD00090917015A0917115B0917215C816D90623
:101BE000EA06FB0640F4C0926F15D0927015E092A1
:101BF0007115F0927215DF91CF91FF90EF90DF9009
:101C0000CF90BF90AF909F908F9008952F923F926A
:101C10004F925F926F927F928F929F92AF92BF92FC
:101C2000CF92DF92EF92FF920F93CF93DF933C011D
:101C30001B014A012901CA010E946C036C01892B16
:101C400071F084E390E00E946C03EC01892B19F0A1
:101C5000DC8ECB8E06C0C6010E94150402C0C0E017
:101C6000D0E0209761F0A12CB12C6E019201A4016B
:101C7000B101C301E8DDCE0193DE81E001C08FEF49
:101C8000DF91CF910F91FF90EF90DF90CF90BF90B9
:101C9000AF909F908F907F906F905F904F903F900C
:101CA0002F900895EF92FF920F930F2EFDE6EF2EE7
:101CB000F5E1FF2EF02D00E020E030E040EC50E0B8
:101CC00061EA72E08DEC90E0A1DF813011F40E94B6
:101CD00004188130C9F4F8948FEF9FEFDC018093F2
:101CE0006F1590937015A0937115B093721581E0E4
:101CF00080937A1510927C1510927D1510927E15A6
:101D000010927F150E94EE0480910A020F91FF90BD
:101D1000EF90089580916C158F5F80936C150895F6
:101D20000FB6F8940F9260917C1570917D1580919B
:101D30007E1590917F150F900FBE0895CF92DF9280
:101D4000EF92FF92CF93DF9380916C15811105C1C3
:101D5000C0907C15D0907D15E0907E15F0907F1599
:101D60008FEFC81AD80AE80AF80AC0927C15D092F8
:101D70007D15E0927E15F0927F15C114D104E10427
:101D8000F104B1F48091A5159091A6152091A315A9
:101D90003091A4153093A6152093A5159093A41502
:101DA0008093A315809174158F5F8093741517DD50
:101DB00080916F1590917015A0917115B091721569
:101DC000C816D906EA06FB0620F480E0B2C081E01E
:101DD00001C080E0E091A515F091A61590819111C8
:101DE0000CC04FEF5FEFBA0140936F155093701521
:101DF00060937115709372159CC0E091A515F091D8
:101E0000A6150780F085E02D0084F185E02D428144
:101E1000538164817581C416D506E606F70648F439
:101E200040936F15509370156093711570937215F0
:101E300080C0A485B585C681D781208531853F8343
:101E40002E83C085D185268137813D832C831196D1
:101E50004D915C9112979F012E5F3F4F42175307A0
:101E600031F44085518512965C934E9311971586F7
:101E700014869C9191509C93A08DB18D109709F17F
:101E8000C289D389448955895F834E83C489D589A2
:101E9000428953895D834C8311966D917C91129791
:101EA000AF01425F5F4F6417750731F4448955896C
:101EB00012965C934E931197118E108E9C919150B7
:101EC0009C93A28D90917B159A1710F4A0937B158B
:101ED0009BE09A9FD0011124A354BA4E11960D9005
:101EE000BC91A02DB783A68316964D915C91179750
:101EF000518740871696CD91DC9117973D832C83AF
:101F000017963C932E931697A28D9A9FD001112479
:101F1000A354BA4EB587A4879C919F5F9C93228D52
:101F2000E0912B16F0912C16928D291708F04FCFC7
:101F300051CFE0912B16F0912C16E28D9BE0E99F9A
:101F4000F0011124E354FA4E9081923008F081E0C0
:101F500090917515911116C016C0809176159091CB
:101F60007715A0917815B09179150196A11DB11D35
:101F70008093761590937715A0937815B093791583
:101F800080E001C081E0DF91CF91FF90EF90DF9082
:101F9000CF900895CF92DF92EF92FF92CF93DF938D
:101FA0000FB6F8940F9280916C15815080936C1548
:101FB00080916C158111BEC080918015811188C0FF
:101FC000BCC0E0919F15F091A0150084F185E02D33
:101FD000A08DB18DC289D389848995899F838E8391
:101FE000C489D589828993899D838C8311962D918B
:101FF0003C911297CF010E962817390731F4848946
:10200000958912969C938E931197118E108E8C91B8
:1020100081508C93A485B585C681D78180859185B3
:102020009F838E83C085D185868197819D838C8394
:1020300011968D919C9112979F012E5F3F4F8217B1
:10204000930731F48085918512969C938E93119716
:10205000158614868C9181508C93A28D80917B156E
:102060008A1710F4A0937B158BE08A9FD00111246E
:10207000A354BA4E11960D90BC91A02DB783A683A0
:1020800016964D915C911797518740871696CD9182
:10209000DC9117973D832C8317963C932E931697CC
:1020A000A28D8A9FD0011124A354BA4EB587A4876C
:1020B0008C918F5F8C93928DA0912B16B0912C16E2
:1020C0005A968C91981730F081E08093751502C074
:1020D000E0E0F0E080919815811173CFEF2B09F0CB
:1020E0007EDBC0907615D0907715E0907815F09053
:1020F0007915C114D104E104F104A1F01FDE882395
:1021000019F081E08093751581E0C81AD108E108C3
:10211000F108A1F7109276151092771510927815A4
:102120001092791580917515882331F00E94200551
:1021300081E003C080E001C080E00F900FBEDF911E
:10214000CF91FF90EF90DF90CF9008958F929F9264
:10215000AF92BF92CF92DF92EF92FF921F93CF93F5
:10216000DF93EC016A017B01D5DD80907C159090B6
:102170007D15A0907E15B0907F1588819981AA81E8
:10218000BB81AC01BD014C0D5D1D6E1D7F1D881610
:102190009906AA06BB0660F4481759076A077B0729
:1021A00098F484169506A606B70680F010E013C0D2
:1021B000481759076A077B0758F084169506A60644
:1021C000B70640F010E007C010E005C011E003C002
:1021D00011E001C011E0488359836A837B83112396
:1021E00041F0CB01BA01681979098A099B0940E0DD
:1021F0006BDCD0DE811102C00E942005812FDF91AF
:10220000CF911F91FF90EF90DF90CF90BF90AF9054
:102210009F908F900895CF92DF92EF92FF926B0183
:102220007C01672B682B692B39F074DD40E0C70116
:10223000B6014ADCAFDE01C080E0811102C00E941D
:102240002005FF90EF90DF90CF90089580916C155E
:10225000882321F081E080937515089510927515FB
:10226000E0912B16F0912C1620813181E0912B16F4
:10227000F0912C16838D948D8217930760F06091F6
:102280002B1670912C16635E7F4F80912B169091C8
:102290002C160E94921A80917B1501C08150282F24
:1022A00030E09BE0929FF001939FF00D1124E354E6
:1022B000FA4E9081992391F39BE0929FA001939F06
:1022C000500D1124DF010180F281E02D0480F581A1
:1022D000E02D1296FC93EE93119740545A4EE4175A
:1022E000F50729F444815581FD01528341839BE028
:1022F000929FF001939FF00D1124E354FA4E018058
:10230000F281E02D2085318530932C1620932B16F9
:1023100080937B150895CF92DF92EF92FF926A012E
:102320007B0160912B1670912C16625F7F4F0E948B
:10233000670441E0C701B601C7DBFF90EF90DF9073
:10234000CF9008950F931F93CF93DF93FC01A0913B
:102350002B16B0912C1670681E964D935D936D935D
:102360007C935197A181B281C0912B16D0912C16EC
:10237000BB8BAA8BC0912B16D0912C1616968D91E3
:102380009C9117979D8B8C8B1696CD91DC9117970E
:1023900080912B1690912C160E969D838C838091A4
:1023A0002B1690912C160E9617969C938E9316973B
:1023B000A0912B16B0912C165996FC93EE9358973A
:1023C00080818F5F808341E0C901B8017DDBDF91AF
:1023D000CF911F910F910895CF93DF93FC01CB0113
:1023E000BA01A181B281C0912B16D0912C16BB8B62
:1023F000AA8BC0912B16D0912C1616964D915C91FC
:1024000017975D8B4C8B1696CD91DC911797409169
:102410002B1650912C16425F5F4F5D834C83409189
:102420002B1650912C16425F5F4F17965C934E937C
:102430001697A0912B16B0912C165996FC93EE93FB
:10244000589730813F5F3083222319F06FEF7FEF81
:10245000CB01422F39DBDF91CF910895CF93DF93EA
:10246000DC011796ED91FC9118970084F185E02D21
:10247000A08DB18DC289D389848995899F838E83EC
:10248000C489D589828993899D838C8311968D9186
:102490009C9112979F01225F3F4F8217930731F45F
:1024A0008489958912969C938E931197118E108E24
:1024B0008C9181508C9380916C15811152C0A485B0
:1024C000B585C681D781808591859F838E83C085A0
:1024D000D185868197819D838C8311968D919C9166
:1024E00012979F012E5F3F4F8217930731F480852B
:1024F000918512969C938E931197158614868C91D4
:1025000081508C93A28D80917B158A1710F4A09333
:102510007B158BE08A9FD0011124A354BA4E1196EB
:102520000D90BC91A02DB783A68316964D915C911A
:102530001797518740871696CD91DC9117973D8369
:102540002C8317963C932E931697A28D8A9FD001C9
:102550001124A354BA4EB587A4878C918F5F8C93B6
:102560001CC048E955E1DA011196CD91DC91129732
:10257000D38BC28B8E819F81958B848B8E819F8123
:10258000DC0115963C932E9314973F832E83518F35
:10259000408FDA018C918F5F8C93928DE0912B1696
:1025A000F0912C16828D891720F481E080937515A7
:1025B00001C080E0DF91CF910895CF93DF93DC01DC
:1025C00070684D935D936D937C9313971896ED917E
:1025D000FC9119971A964D915C911B9714968D91C9
:1025E0009C91159716962D913C911797EC013F837E
:1025F0002E8316968D919C91179714962D913C9150
:102600001597EC013D832C83EA0189819A81A817F3
:10261000B90731F416968D919C9117979A83898307
:102620001B961C921E921A97DA018C9181508C9302
:10263000A485B585C681D781808591859F838E834A
:10264000C085D185868197819D838C8311968D91DC
:102650009C9112979F012E5F3F4F8217930731F491
:102660008085918512969C938E931197158614867A
:102670008C9181508C93A28D80917B158A1710F4D8
:10268000A0937B158BE08A9FD0011124A354BA4EEE
:1026900011960D90BC91A02DB783A68316964D91EF
:1026A0005C911797518740871696CD91DC911797CB
:1026B0003D832C8317963C932E931697A28D8A9F69
:1026C000D0011124A354BA4EB587A4878C918F5F93
:1026D0008C93928DE0912B16F0912C16828D891798
:1026E00018F481E080937515DF91CF9108950FB6AE
:1026F000F8940F9220917415FC01208340917C1571
:1027000050917D1560917E1570917F1541835283A4
:10271000638374830F900FBE089520917415FC019C
:10272000208340917C1550917D1560917E157091AC
:102730007F15418352836383748308958F929F92A0
:10274000AF92BF92CF92DF92EF92FF920F931F93BF
:10275000CF93DF93FB010FB6F8940F92C0907C15D6
:10276000D0907D15E0907E15F0907F15DC011196DC
:102770000D911D912D913C91149746015701801A9E
:10278000910AA20AB30A40815181628173814F3F4D
:10279000BFEF5B076B077B0739F1EC01B881A091B4
:1027A0007415BA1759F0C016D106E206F30630F0D8
:1027B000108211821282138281E017C0841695065E
:1027C000A606B70658F4481959096A097B094083D7
:1027D000518362837383A1DF80E007C0108211827E
:1027E0001282138281E001C080E00F900FBEDF9162
:1027F000CF911F910F91FF90EF90DF90CF90BF90FE
:10280000AF909F908F90089581E080937515089503
:1028100080912B1690912C16089580917A1588231B
:1028200031F080916C15811104C082E0089581E03F
:10283000089580E008950F931F93CF93DF93FC01D9
:10284000892B09F449C086A5815086A7228D95A5BC
:10285000291709F443C0811143C0EF018F010E5FB6
:102860001F4FC8010E94A404EDA5EA8F8AE090E002
:10287000A0E0B0E08E1B9109A109B1098E879F8766
:10288000A88BB98B80917B158E1710F4E0937B1584
:102890008BE08E9FF0011124E354FA4E0180F28107
:1028A000E02DFF83EE832681378139872887A68133
:1028B000B78115961C930E93149717830683EA8DA0
:1028C0008E9FF0011124E354FA4EFD87EC8780813E
:1028D0008F5F808381E005C080E003C080E001C09D
:1028E00080E0DF91CF911F910F910895CF92DF92F9
:1028F000EF92FF92E0912B16F0912C16668577856A
:1029000080899189E0912B16F0912C16A0912B16BD
:10291000B0912C165A962C910F2EFAE0CF2ED12C76
:10292000E12CF12CF02DC21AD108E108F108C6867D
:10293000D786E08AF18AFF90EF90DF90CF900895DC
:102940004F925F926F927F92AF92BF92CF92DF923F
:10295000EF92FF920F931F93CF93DF9328013901DA
:102960000FB6F8940F92E0912B16F0912C16C82F09
:10297000D0E0EC0FFD1F83A9823071F1E0912B169E
:10298000F0912C16CE01880F991F880F991FE80F20
:10299000F91F87A590A9A1A9B2A940955095609566
:1029A0007095482359236A237B2347A750AB61AB1B
:1029B00072ABE0912B16F0912C16EC0FFD1F81E00D
:1029C00083ABA114B104C104D10431F041E0C601CC
:1029D000B5017AD80E9420050F900FBE0FB6F8946B
:1029E0000F92E114F104A1F0E0912B16F0912C1656
:1029F000CE01880F991F880F991FE80FF91F87A52F
:102A000090A9A1A9B2A9F70180839183A283B3837E
:102A1000E0912B16F0912C16EC0FFD1F83A982304C
:102A2000E9F4E0912B16F0912C16CE01880F991F36
:102A3000880F991FE80FF91F87A590A9A1A9B2A92E
:102A40004094509460947094482259226A227B22C8
:102A500047A650AA61AA72AA81E001C080E0209135
:102A60002B1630912C16C20FD31F1BAA0F900FBE2E
:102A7000DF91CF911F910F91FF90EF90DF90CF905A
:102A8000BF90AF907F906F905F904F9008958F921E
:102A90009F92AF92BF92EF92FF920F93CF93DF93EB
:102AA000DC010FB6F8940F92E114F10489F0E62FDF
:102AB000F0E0EE0FFF1FEE0FFF1FE80FF91F87A4D6
:102AC00090A8A1A8B2A8F70180829182A282B382C5
:102AD00070E0FD01E60FF71F83A992E093AB02308F
:102AE00001F118F4013031F04DC0033079F10430B8
:102AF000D1F148C0660F771F660F771FFD01E60F03
:102B0000F71F87A490A8A1A8B2A8BA01A9014829D3
:102B100059296A297B2947A750AB61AB72AB01E009
:102B200034C0660F771F660F771FFD01E60FF71F92
:102B300047A550A961A972A94F5F5F4F6F4F7F4FA3
:102B400047A750AB61AB72AB01E01FC0660F771FA8
:102B5000660F771FFD01E60FF71F27A730AB41ABCC
:102B600052AB01E012C0823079F0660F771F660F1A
:102B7000771FFD01E60FF71F27A730AB41AB52AB24
:102B800001E003C001E001C000E0813009F069C04C
:102B90001C96ED91FC911D971696CD91DC9117979F
:102BA00018968D919C9119979F838E831896CD913D
:102BB000DC91199716968D919C9117979D838C8324
:102BC000818192819D012E5F3F4F8217930731F4DF
:102BD00018968D919C911997928381831D961C92D2
:102BE0001E921C978081815080835A96EC915A974F
:102BF00080917B158E1710F4E0937B158BE08E9FF0
:102C0000F0011124E354FA4E0180F281E02D179671
:102C1000FC93EE9316974681578119965C934E93D9
:102C20001897C681D7813D832C83378326835A9694
:102C3000EC915A978E9FF0011124E354FA4E1D96A1
:102C4000FC93EE931C9780818F5F80835A969C91B2
:102C5000E0912B16F0912C16828D891710F40E94AA
:102C600020050F900FBE802FDF91CF910F91FF9025
:102C7000EF90BF90AF909F908F9008958F929F920A
:102C8000AF92BF92CF92DF92EF92FF920F93CF93CA
:102C9000DF93DC01E114F10489F0E62FF0E0EE0FA0
:102CA000FF1FEE0FFF1FE80FF91F87A490A8A1A830
:102CB000B2A8F70180829182A282B38270E0FD0106
:102CC000E60FF71F93A982E083AB023001F118F4FD
:102CD000013031F04DC0033079F10430D1F148C0FA
:102CE000660F771F660F771FFD01E60FF71F87A49A
:102CF00090A8A1A8B2A8BA01A901482959296A290E
:102D00007B2947A750AB61AB72AB81E034C0660F43
:102D1000771F660F771FFD01E60FF71F47A550A924
:102D200061A972A94F5F5F4F6F4F7F4F47A750ABAD
:102D300061AB72AB81E01FC0660F771F660F771F14
:102D4000FD01E60FF71F27A730AB41AB52AB81E087
:102D500012C0923079F0660F771F660F771FFD0162
:102D6000E60FF71F27A730AB41AB52AB81E003C0A2
:102D700081E001C080E0913009F096C090916C151F
:102D800091115FC01C96ED91FC911D971696CD9107
:102D9000DC91179718962D913C9119973F832E83BC
:102DA0001896CD91DC91199716962D913C91179715
:102DB0003D832C83418152819D012E5F3F4F4217FD
:102DC000530731F418964D915C91199752834183C2
:102DD0001D961C921E921C979081915090835A963A
:102DE000EC915A9790917B159E1710F4E0937B1508
:102DF0009BE09E9FF0011124E354FA4E0180F28182
:102E0000E02D1796FC93EE931697468157811996FD
:102E10005C934E931897C681D7813D832C8337836B
:102E200026835A96EC915A979E9FF0011124E35401
:102E3000FA4E1D96FC93EE931C9790819F5F9083B2
:102E400021C068E975E1FB01C181D2815396DC9311
:102E5000CE9352972E813F8155963C932E93549753
:102E60004E815F819D01225F3F4FFA0135832483AC
:102E70003F832E8359967C936E935897FB019081E4
:102E80009F5F90835A962C91E0912B16F0912C160F
:102E9000928D921748F4C114D10419F091E0F60113
:102EA000908391E090937515DF91CF910F91FF90F2
:102EB000EF90DF90CF90BF90AF909F908F9008954C
:102EC000009721F480912B1690912C160FB6F89450
:102ED0000F9270E0FC01E60FF71F23A9223031F4B6
:102EE000FC01E60FF71F13AA81E001C080E00F90FC
:102EF0000FBE0895DC01E0913716F09138168081FD
:102F000091E0811190E09C93911108C00780F085B9
:102F1000E02D6081718182819381089560E070E08D
:102F2000CB010895CF92DF92EF92FF920F931F9300
:102F3000FC014283538364837583938782870417DC
:102F4000150726073707C0F00C191D092E093F0980
:102F500086859785A089B189081719072A073B0735
:102F600000F5BF016E5F7F4F809135169091361648
:102F70000E94670480E018C00C151D052E053F0552
:102F800028F44C155D056E057F0568F4BF016E5F82
:102F90007F4F80913716909138160E94670480E029
:102FA00003C081E001C081E01F910F91FF90EF907D
:102FB000DF90CF9008950FB6F8940F92809133165A
:102FC00090913416892BE9F484E496E10E9452042E
:102FD00089E396E10E94520484E496E190933816C6
:102FE0008093371689E396E19093361680933516D1
:102FF00040E067E08AE00E940507909334168093D2
:1030000033160F900FBE0895EF92FF920F93D3DF08
:103010008091331690913416892B91F00F2EF1E3A5
:10302000EF2EF6E1FF2EF02D03E020E030E040EC43
:1030300050E066EA72E087ED90E00E94060E01C063
:1030400080E00F91FF90EF9008958F929F92AF9242
:10305000BF92CF92DF92EF92FF920F931F93CF9385
:10306000DF93CDB7DEB727970FB6F894DEBF0FBE5C
:10307000CDBFE0913316F0913416309781F169831A
:103080002A833B834C835D839F838E836630F4F475
:10309000C4DB823069F400E0A7019601BE016F5FD6
:1030A0007F4F80913316909134160E94280718C0E4
:1030B00000E020E030E0A901BE016F5F7F4F80910A
:1030C0003316909134160E9428070AC020E0A80108
:1030D000BE016F5F7F4FCF010E94D80701C080E023
:1030E00027960FB6F894DEBF0FBECDBFDF91CF910C
:1030F0001F910F91FF90EF90DF90CF90BF90AF9016
:103100009F908F9008958F929F92AF92BF92CF928F
:10311000DF92EF92FF920F931F93CF93DF933BC009
:103120000780F085E02D80809180A280B380C085EB
:10313000D1858E010E5F1F4FC8010E94A404EC8947
:10314000FD89CE0119958E8982FF25C08E859F85C8
:10315000A889B989880D991DAA1DBB1D88169906D5
:10316000AA06BB0670F48A839B83AC83BD83DB878E
:10317000CA87B80180913716909138160E9467046B
:103180000AC0C12CD12C760100E010E0A501940109
:1031900060E0CE015ADFE0913716F0913816808159
:1031A0008111BECF809135169091361690933816C6
:1031B00080933716F0933616E0933516DF91CF9152
:1031C0001F910F91FF90EF90DF90CF90BF90AF9045
:1031D0009F908F900895CF92DF92EF92FF92CF93BE
:1031E000DF93EC010E94900E6B017C0180912D1603
:1031F00090912E16A0912F16B0913016C816D906B0
:10320000EA06FB0620F47FDF81E0888301C0188294
:10321000C0922D16D0922E16E0922F16F0923016F4
:10322000C701B601DF91CF91FF90EF90DF90CF9073
:1032300008954F925F926F927F928F929F92AF927A
:10324000BF92CF92DF92EF92FF920F931F93CF9393
:10325000DF934B015C0129013A01E0913716F091AF
:1032600038160780F085E02DC085D185CE01029605
:103270000E94A4048E8982FF1BC04E855F856889E9
:103280007989480D591D6A1D7B1D750164019301E3
:103290008201CE0147DE882369F0C12CD12C760152
:1032A00000E010E0A501940160E0CE01CEDE02C096
:1032B0008E7F8E8BEC89FD89CE011995DF91CF91A0
:1032C0001F910F91FF90EF90DF90CF90BF90AF9044
:1032D0009F908F907F906F905F904F9008958F9206
:1032E0009F92AF92BF92CF92DF92EF92FF921F9385
:1032F000CF93DF931F92CDB7DEB76B017C01142F04
:103300000E948A0ECE01019666DF4B015C01898125
:1033100081112DC011110DC08C149D04AE04BF0489
:1033200040F00E94CA0FA5019401C701B60181DFD8
:1033300020C0112341F0E0913516F09136168081BE
:1033400011E0811110E0B701A601481959096A0975
:103350007B09212F80913316909134160E94A20888
:103360000E94CA0F811105C00E94200502C00E9460
:10337000CA0F0F90DF91CF911F91FF90EF90DF90D8
:10338000CF90BF90AF909F908F900895AF92BF92D3
:10339000CF92DF92EF92FF920F931F93CF93DF9321
:1033A000CDB7DEB728970FB6F894DEBF0FBECDBFFE
:1033B00082C0898188230CF47EC0AE80BF80D50195
:1033C0001C968D919C911D97892B21F0C501029629
:1033D0000E94A404CE010896FEDE8B019C01E981C7
:1033E0000E2E000CFF0BEA30F10508F064C08827B0
:1033F000EE58FF4F8F4F0C949C2CF501868981600D
:10340000868BCA80DB80EC80FD804685578560898D
:1034100071894C0D5D1D6E1D7F1DC50183DD8823E7
:1034200009F449C0D5015496ED91FC915597C50119
:103430001995F501868982FF3EC04A815B816C81C6
:103440007D8186859785A089B1899A01AB01280F76
:10345000391F4A1F5B1FC12CD12C760100E010E000
:1034600060E0C501F2DD27C0D50156968C915697D4
:103470008E7F56968C931FC0F50186898160868B5E
:103480004A815B816C817D8146875787608B718B18
:10349000400F511F621F731F68017901C50142DD92
:1034A0000AC0F501868981FD04C0C5010E9415048A
:1034B00002C08E7F868B20E030E0A901BE016F5FE5
:1034C0007F4F80913316909134160E94130881111A
:1034D00070CF28960FB6F894DEBF0FBECDBFDF9138
:1034E000CF911F910F91FF90EF90DF90CF90BF9001
:1034F000AF900895089584B1806884B985B18068DB
:1035000085B9089583B1806883B90895F4DF2FEFFA
:1035100080E792E0215080409040E1F700C0000039
:10352000F1DFF5CFE8DF2FEF87EA91E62150804009
:103530009040E1F700C00000E5DFF5CF86E090E0C5
:103540000E946C039093BB178093BA17009769F0A1
:10355000FC01118210828091BA179091BB17FC0177
:103560001582148213821282089580E090E00895FB
:10357000E091BA17F091BB17918380830895E09191
:10358000BA17F091BB17938382830895E091BA171D
:10359000F091BB17958384830895EFE4F6E126E06C
:1035A00021836083A091BA17B091BB172C9111961B
:1035B0003C9111973283238312962C911297139684
:1035C0003C9113973483258314962C911497159668
:1035D0003C913683278326E1DC0101900D922A95E8
:1035E000E1F708950F931F93CF93DF938C01EB01C5
:1035F00088E090E00E946C03009709F11093BD17DA
:103600000093BC17D093BF17C093BE1740916516A7
:10361000509166166091671670916816FC0144839C
:103620005583668377834091691650916A1660913D
:103630006B1670916C164083518362837383DF91A4
:10364000CF911F910F9108956091691670916A163C
:1036500080916B1690916C16C7D2CB010895609142
:103660006516709166168091671690916816BCD2A7
:10367000CB0108953BD3882341F08EEA92E09F93DB
:103680008F930E94282E0F900F900895CC24CA94F7
:10369000DC2C760101E021E042E050E060E070E0E7
:1036A0008091BC179091BD170E94CB0161FF4EC065
:1036B00066E070E080E090E00E940B112FD3882339
:1036C000C1F066E070E080E090E00E940B1183ECB6
:1036D00092E09F938F930E94282E0F900F9006C028
:1036E00063E070E080E090E00E940B1117D3882324
:1036F000B9F329D363E070E080E090E00E940B1101
:1037000022D38111C3CF66E070E080E090E00E9498
:103710000B112AD360936516709366168093671613
:103720009093681636D36093691670936A168093E7
:103730006B1690936C1641E050E060E070E0809171
:10374000BE179091BF170E946B02A0CF8DEF92E041
:103750000E943B2E9BCF0F931F93CF93DF93CDB748
:10376000DEB764970FB6F894DEBF0FBECDBF83E01F
:1037700093E00E943B2E81E00E949C2892D40ED7B9
:103780009F938F938FE093E09F938F930E94282EB7
:1037900006D604D79F938F9382E293E09F938F93F3
:1037A0000E94282E8BE393E00E943B2E8E010F5F38
:1037B0001F4FC80188D4F2D61F930F939F938F9306
:1037C00088E493E09F938F930E94282EC80197D49A
:1037D000E5D69F938F931F930F938CE593E09F9370
:1037E0008F930E94282E81E793E00E943B2EA80130
:1037F0006EE773E08FE993E0B0D6D0D69F938F93B6
:103800001F930F938EE793E09F938F938FE993E03D
:103810009F938F9380EB93E09F938F930E94282E2A
:10382000A1D4BCD69F938F9386EE93E09F938F9302
:103830000E94282E0FB6F894DEBF0FBECDBF81E0E8
:103840008BD5ACD69F938F9385EF93E09F938F9307
:103850000E94282E86E194E00E943B2E84EF91E0A6
:1038600086D59CD69F938F9381E08F9384EF8F931F
:1038700083E294E09F938F930E94282E83E093E04D
:103880000E943B2E0FB6F894DEBF0FBECDBF1AE0EC
:1038900080E06ED4082F82D69F938F931F921F9340
:1038A00083E494E09F938F930E94282E0F900F90B3
:1038B0000F900F900F900F90083059F080E00E9409
:1038C000002966E371E080E090E00E940B11115046
:1038D000F9F6083021F481E00E94E2280DC083E669
:1038E00094E00E943B2E81E00E94F12880E00E943B
:1038F000BF280E942005FDCF64960FB6F894DEBF66
:103900000FBECDBFDF91CF911F910F910895EF9220
:10391000FF920F939B0170936E1660936D16E12CCE
:10392000F12C082F48E851E06EE674E08CEF9CE142
:103930000E94060E0F91FF90EF900895CF93DF93B2
:1039400000D01F92CDB7DEB781E09DD362E070E07A
:1039500080E090E00E940B1180E095D366E970E072
:1039600080E090E00E940B1189E794E00E943B2EDA
:1039700043D3F1DEEFE6F6E186E0818382E08083E7
:103980000E94900E69837A838B839C8380E894E005
:103990000E943B2E0FEF1FEF980146E150E06FE6CB
:1039A00076E180916D1690916E160E946C0B8C01E1
:1039B00088E894E00E943B2E44E457E060E070E029
:1039C000CE0101960E94A61001151105A9F383E00E
:1039D0000E9412296FE676E180E0F3D3DFD59F9352
:1039E0008F9381E994E09F938F930E94282E0F90EC
:1039F0000F900F900F90E0CFA1DFCF93DF93EC01FA
:103A00000E94900ECE0142DEDF91CF910895CF93B8
:103A1000DF93CDB7DEB7AC970FB6F894DEBF0FBE1D
:103A2000CDBF42E050E060E070E08091C21790911D
:103A3000C3170E946B02CC24CA94DC2C760100E0F0
:103A400021E041E050E060E070E080910802909158
:103A500009020E94CB0160FF1EC08AE194E088DD6C
:103A6000F3DD8DDDF1DD9F938F9387EA94E09F93E3
:103A70008F930E94282EF3DD89DDF1DD9F938F93D4
:103A800086EA94E09F938F930E94282E0FB6F894B5
:103A9000DEBF0FBECDBF62E0CE0147967EDD86E180
:103AA000FE017796DE01119601900D928A95E1F75D
:103AB00063E070E080E090E00E940B110FEF1FEFD9
:103AC000980146E150E0BE016F5F7F4F8091C017C3
:103AD0009091C1170E94630AA4CFEF92FF920F93B7
:103AE00041E060E070E084E690E00E94010A90937B
:103AF000C1178093C0170E94760120DD0E94B80193
:103B0000092E000CAA0BBB0B8093C2179093C3170E
:103B1000A093C417B093C5170E94B801AC01092E39
:103B2000000C660B770B40930802509309026093D8
:103B30000A0270930B02BC018091C2179091C317C7
:103B400051DD8091C6179091C717892B89F481E0C8
:103B50000E94CC079093C7178093C617009741F037
:103B600000E020E030E0A90160E070E00E9428075A
:103B7000E12CF12C03E020E030E040EC50E064EB7D
:103B800074E087E09DE10E94060E01E020E030E055
:103B900040EC50E060EC74E08DEF9CE10E94060E7A
:103BA0000F91FF90EF90089581B1816881B980E015
:103BB0000E9447275FDD85ED94E00E943B2E8DDF5C
:103BC00085E00E944E2860E070E081E01CD26091A8
:103BD000C0177091C11784E09ACE0895E5DF0E9466
:103BE000520E80E090E0089533D088F09F5790F017
:103BF000B92F9927B751A0F0D1F0660F771F881F12
:103C0000991F1AF0BA95C9F712C0B13081F03AD0B5
:103C1000B1E0089537C0672F782F8827B85F39F053
:103C2000B93FCCF3869577956795B395D9F73EF470
:103C300090958095709561957F4F8F4F9F4F089518
:103C400057FD9058440F551F59F05F3F71F047954D
:103C5000880F97FB991F61F09F3F79F08795089532
:103C6000121613061406551FF2CF4695F1DF08C051
:103C7000161617061806991FF1CF8695710561056E
:103C800008940895E894BB2766277727CB0197F916
:103C900008956530F1F4FA0180818F7390E0982FD8
:103CA00088272181822B90930E0280930D028281BE
:103CB000F0E48F9FC0011124FA01238126952695F7
:103CC000822B90930C0280930B0281E080938516E7
:103CD0000895643051F080E090E490930C0280935A
:103CE0000B0290930E0280930D0208950F931F9381
:103CF00009E41EE120E034E244EF50E060E087E2B6
:103D00000E943429909387168093861621E0892B90
:103D100009F020E0822F1F910F910895809186165F
:103D200090918716009759F040E060E070E00E94A3
:103D30008529843031F41092851680E0089582E060
:103D4000089583E0089580918616909187160097D4
:103D500039F064E00E94D129853021F083E0089594
:103D600082E0089580E0089560910D0270910E0246
:103D700080E090E00E94AF2B20E030E048EC52E47D
:103D80000E94142C20E038EF4FE756E40C94442BAB
:103D9000089560910B0270910C0280E090E00E9407
:103DA000AF2B20E030E045E253E40E94142C20E0E9
:103DB00038EF4FE756E40E94442B20E030E040E229
:103DC00052E40C94DD2A08950F931F93CF93DF9351
:103DD0001F921F92CDB7DEB78C0119822DC0E091E2
:103DE000BF16EC3250F481E08E0F8093BF16F0E0E6
:103DF000EF50F94E8A81808302C01092BF168A81EB
:103E00008A30D1F44091BF1650E0FA01E151F94EE9
:103E10001082415051099E012F5F3F4F61EF76E1C3
:103E20008091C2169091C3160E94280B898181113E
:103E30000E9420051092BF16BE016E5F7F4FC80121
:103E400090D5882361F20F900F90DF91CF911F9151
:103E50000F9108950F931F93CF93DF938C01EB0184
:103E60008091C2169091C3160E94330AB80188E867
:103E700096E10E94092E209779F0E8E8F6E101909A
:103E80000020E9F7319780E290E091838083BE01C2
:103E900088E896E10E94FE2DE8E8F6E1DF010D904A
:103EA0000020E9F711978DE09AE011969C938E938C
:103EB00012961C9201900020E9F73197E858F641DC
:103EC000AE2F88E896E1AC016A2F8091C4169091DC
:103ED000C516F2D4811111C008E215E020E030E0EF
:103EE0004DE250E06BE477E18091C2169091C316E9
:103EF0000E946C0B8BE497E102C080E090E0DF91C0
:103F0000CF911F910F9108952F923F924F925F9200
:103F10006F927F928F929F92AF92BF92CF92DF92D9
:103F2000EF92FF920F931F93CF93DF935C01FC01FD
:103F300001900020E9F731976F01C81AD90A5C2C6B
:103F40000F2EF4E78F2EF7E09F2EF02DE12CF12CB1
:103F50004C2C3701F40101811281E8010990002005
:103F6000E9F72197C01BD10B3C2EF9E0CF16D10405
:103F700058F0F4012080FEE02F1206C0B801C50100
:103F80000E94D92D892B09F5442D351408F44C2FA6
:103F900050E0B801C5010E94102E892B49F4F301AD
:103FA000EE0FFF1FE60DF71DEC58F84F20800DC0F7
:103FB0008FEFE81AF80AE3E08E0E911CF1E1EF169C
:103FC000F10439F66894222424F8822DDF91CF91F0
:103FD0001F910F91FF90EF90DF90CF90BF90AF9027
:103FE0009F908F907F906F905F904F903F902F9019
:103FF000089530DF89CF08958091C2169091C3163D
:104000000C94330A08958F929F92AF92CF92EF92C1
:104010000F931F93CF93C82F8B0141E060E070E0B6
:1040200088EC90E00E94010A9093C3168093C21618
:104030001093C1160093C0160F2EF4EE8F2EFEE1E2
:104040009F2EF02D6894AA24A6F86894CC24C6F874
:10405000E12C00E023E040E051EE60E070E08C2FC6
:104060005ED39093C5168093C416E7E0F1E080819B
:1040700080618083CF911F910F91EF90CF90AF908F
:104080009F908F900895882331F0E8E0F1E08081DF
:104090008F7E80830895E8E0F1E0808180618083F5
:1040A000089560E070E08AEF94E0D4DEEBE4F7E19D
:1040B00001900020E9F73197EB54F74181E07597C3
:1040C00008F080E00895CF93DF93EC0160E070E0AA
:1040D0008BE095E0BFDEEBE4F7E101900020E9F72B
:1040E000EC55F74139F46BE477E1CE010E94092EDB
:1040F00080E002C0188281E0DF91CF910895FC0139
:1041000001900020E9F79F01215131092817390753
:1041100029F4BC0189E395E06CCF089589E0089506
:10412000FC0101900020E9F79F0121513109281776
:10413000390729F4BC0188E495E05BCF089589E054
:104140000895FC0101900020E9F79F0121523109F7
:104150002817390729F4BC0187E595E04ACF08956F
:1041600089E0089560E070E086E995E042CF089527
:104170000F931F93E82FF0E0EE0FFF1FE059F84F69
:10418000608171818FE995E034DF811114C008E20C
:1041900015E020E030E04DE250E06BE477E1809103
:1041A000C2169091C3160E946C0B882321F08BE4F9
:1041B00097E1AADE03C08BE497E1A6DE1F910F9181
:1041C00008950F931F93CF93DF931F92CDB7DEB760
:1041D000DB0111969C911197953108F0B4C0992399
:1041E00081F160E070E0272F30E0462F50E0FD01C4
:1041F000E40FF51F928192959F709A3010F0995CB0
:1042000001C0905DF901E452F94E90832F5F3F4F5A
:10421000FD01E40FF51F92819F70492F50E04A3055
:10422000510514F0995C01C0905DF901E452F94E1A
:1042300090837E5F6F5F11969C911197691798F23A
:1042400001C070E0E72FF0E0E452F94E10824C918B
:10425000811103C088EA95E002C08AEA95E02CED5E
:1042600036E13F932F931F924F939F938F938EEA44
:1042700095E09F938F938EE197E19F938F930E9498
:104280006B2E60E070E08EE197E1B3DE0FB6F8943C
:10429000DEBF0FBECDBF811159C008E215E020E09E
:1042A00030E04DE250E06BE477E18091C2169091EE
:1042B000C3160E946C0B882309F447C08BE497E176
:1042C00023DE8E3009F042C087E089838091C016DA
:1042D0009091C116892BA9F1BE016F5F7F4F8BE4CE
:1042E00097E168D18093C616E981F0E0E55BF84E6E
:1042F000DF010D900020E9F71197AE1BBF0BAA2339
:1043000091F0BB27CD0101979C0112F42F5F3F4F25
:10431000359527952093C716AF014F5F5F4F64E136
:1043200088EC96E173D101E010E020E030E046E156
:1043300050E066EC76E18091C0169091C1160E9423
:10434000630A8EE003C084E101C080E00F90DF913A
:10435000CF911F910F910895813019F06EEB75E0A8
:1043600002C067E976E082EC95E043CE08959F9322
:104370008F9383EF95E09F938F938EE197E19F93C7
:104380008F930E946B2E60E070E08EE197E131DE4A
:104390000F900F900F900F900F900F9008952F9205
:1043A0003F924F925F926F927F928F929F92AF92C5
:1043B000BF92CF92DF92EF92FF920F931F93CF9312
:1043C000DF93CDB7DEB7A0970FB6F894DEBF0FBE70
:1043D000CDBF60E276E08CE296E03CDD95DD8111B8
:1043E000A3C080E2E6E2F2E0DE01119601900D92B8
:1043F0008A95E1F79E012F5F3F4F6901E12CF12C77
:104400000F2EF8E3AF2EF6E0BF2EF02D0EE117E1F0
:104410000F2EF1E54F2EF6E05F2EF02D0F2EF8E671
:104420008F2EF6E09F2EF02D0F2EF2E86F2EF6E085
:104430007F2EF02D3E2C2F2CFF92EF92BF92AF9249
:104440001F930F930E946B2E60E070E0C80102DDA5
:104450005BDD0F900F900F900F900F900F908111D8
:1044600063C032E03E15E8F4F60183818F938281C8
:104470008F9381818F9380818F93FF92EF925F92D0
:104480004F921F930F930E946B2E60E070E0C80163
:10449000E1DC3ADD0FB6F894DEBF0FBECDBF81116F
:1044A00043C02F923F929F928F921F930F930E942F
:1044B0006B2E60E070E0C801CDDC26DD0F900F9020
:1044C0000F900F900F900F9081112EC02F923F925E
:1044D0007F926F921F930F930E946B2E60E070E0AB
:1044E000C801B8DC11DD0F900F900F900F900F9066
:1044F0000F90811119C03FEFE31AF30A84E0C80E50
:10450000D11C98E0E916F10409F094CF60E070E066
:104510008AE996E09FDCF8DC811106C060E070E07B
:104520008BEA96E097DCF0DCA0960FB6F894DEBF3D
:104530000FBECDBFDF91CF911F910F91FF90EF90F4
:10454000DF90CF90BF90AF909F908F907F906F90B3
:104550005F904F903F902F900895EF92FF920F93AE
:104560001F93CF93DF93EC018B017A0181E0F4DE9E
:1045700081110DC0CE01D4DD811109C0C801E1DD7A
:10458000811105C0C701BBDD811101C0EBDDDF91E9
:10459000CF911F910F91FF90EF90089590E0FC0153
:1045A000EE0FFF1F8E0F9F1FFC01EC58F84F81810B
:1045B00092810895DC01009729F1FB012081FC0123
:1045C00001900020E9F73197E81BF90B822F90E06A
:1045D000E817F907C8F080E008C0880F382F330FBC
:1045E000330F830F8053890F2F5FFD01E20FF11D01
:1045F000908130ED390F3A3010F49111EECFFB017C
:104600002083089580E0089580E008950F931F931C
:10461000CF93DF93DC01EA012097E1F1FA010190E9
:104620000020E9F73197E41BF50B329710F532C003
:104630008D01040F151F30E0AE01420F531FFA0128
:104640009081913428F09753592F5295507F03C091
:10465000592F5295507F2C0F3D1FF90191819134B4
:1046600010F0975301C09053950FF80190838F5F1E
:1046700001C080E0282F220F482F50E0FE0101905A
:104680000020E9F73197EC1BFD0B4E175F0710F484
:104690008613CECFDF91CF911F910F910895CF93C5
:1046A000DF93CDB7DEB729970FB6F894DEBF0FBE04
:1046B000CDBF89E0E6E4F2E09E012F5F3F4FD901D4
:1046C00001900D928A95E1F7109279171092781760
:1046D00080917A1790917B17009731F0422F532FDA
:1046E00069E0EAD080E001C082E029960FB6F89434
:1046F000DEBF0FBECDBFDF91CF9108952091781717
:10470000309179172115310529F4FC0111821082AD
:1047100081E00895FC013183208380E008952F9289
:104720003F924F925F926F927F928F929F92AF9241
:10473000CF92EF92FF920F931F93CF93DF93CDB75A
:10474000DEB7F82E2A013B0188E090E00E94A42CFD
:104750008C018F2D90E0FC01EE0FFF1FE458F84E06
:10476000118300830115110509F469C0880F991F91
:10477000FC01E15FFD4F80819181D8018D939C9375
:104780008C2D90E0880F991F880F991F0E94A42CF0
:104790001C0186E090E00E94A42C7C014C2DB1010C
:1047A000F0D6F801F582E4828A2D90E0880F991FF7
:1047B000880F991F0E94A42C1C0186E090E00E94A3
:1047C000A42C7C014A2DB101DCD6D8011396FC92B1
:1047D000EE92129717969C928E921697FFB6F894C7
:1047E000ED91FC91119736978081826080838D9046
:1047F0009C90C301B201B3D720E030E040E051E427
:104800000E94142C9B01AC0160E074E284E79BE4FD
:104810003BD720E030E040E85FE3CFD6E5D9F401B4
:1048200032976083D801ED91FC911197359788E913
:104830008083ED91FC91349786E08083FFBEC801B0
:10484000DF91CF911F910F91FF90EF90CF90AF909C
:104850009F908F907F906F905F904F903F902F90A0
:104860000895CF93DF93DC01892B01F11296ED912E
:10487000FC911397938182812581981B92238481D7
:104880009817B1F0838126952823C081D181C20F6A
:10489000D11D68838F5F958189238383ED91FC917E
:1048A000359780818062808380E003C081E001C011
:1048B00082E0DF91CF910895EF92FF920F931F93C3
:1048C000CF93DF937C01009709F441C0DC0112967D
:1048D000ED91FC91139793818281981B8581982398
:1048E0008481891B8617A8F1662341F1842F952FB7
:1048F000DC016150462F50E04F5F5F4F480F591F5A
:10490000E701EA81FB81938182812581981B9223B3
:104910008481981779F08C91938126952923608161
:1049200071818B01020F111DE80188839F5F8581D2
:10493000982393831196A417B50711F7D701ED912A
:10494000FC91359780818062808380E003C081E0A4
:1049500001C082E0DF91CF911F910F91FF90EF9006
:1049600008950097D1F0DC011496ED91FC91159714
:1049700093818281981799F0928185818695892308
:10498000A081B181A80FB11D8C91DB018C939F5F39
:1049900085819823928380E0089581E0089583E0E3
:1049A00008951F920F920FB60F9211240BB60F921B
:1049B0002F933F934F935F936F937F938F939F9327
:1049C000AF93BF93CF93DF93EF93FF93A0917C17A7
:1049D000B0917D17109711F16091C6001496ED917A
:1049E000FC911597938182812581981B9223848164
:1049F000981761F0838126952823C081D181C20F49
:104A0000D11D68838F5F9581892383831696ED91ED
:104A1000FC911797309711F0CD011995FF91EF9107
:104A2000DF91CF91BF91AF919F918F917F916F91C6
:104A30005F914F913F912F910F900BBE0F900FBE42
:104A40000F901F9018951F920F920FB60F9211247E
:104A50000BB60F922F938F939F93AF93BF93EF93C8
:104A6000FF93E0917C17F0917D173097B9F00280A9
:104A7000F381E02D938182819817B1F09281858135
:104A8000282F26952923A081B181A20FB11D2C9139
:104A90009F5F892382832093C6000BC0E1ECF0E086
:104AA00080818F7D808305C0E1ECF0E080818F7D87
:104AB0008083FF91EF91BF91AF919F918F912F9143
:104AC0000F900BBE0F900FBE0F901F9018951F9266
:104AD0000F920FB60F9211240BB60F922F933F93A4
:104AE0004F935F936F937F938F939F93AF93BF93F6
:104AF000CF93DF93EF93FF93A0917E17B0917F1731
:104B0000109711F16091CE001496ED91FC911597DC
:104B1000938182812581981B92238481981761F06B
:104B2000838126952823C081D181C20FD11D68833E
:104B30008F5F9581892383831696ED91FC9117975A
:104B4000309711F0CD011995FF91EF91DF91CF9141
:104B5000BF91AF919F918F917F916F915F914F9195
:104B60003F912F910F900BBE0F900FBE0F901F9093
:104B700018951F920F920FB60F9211240BB60F9239
:104B80002F938F939F93AF93BF93EF93FF93E091F6
:104B90007E17F0917F173097B9F00280F381E02DF6
:104BA000938182819817B1F092818581282F269573
:104BB0002923A081B181A20FB11D2C919F5F892370
:104BC00082832093CE000BC0E9ECF0E080818F7DE2
:104BD000808305C0E9ECF0E080818F7D8083FF91C8
:104BE000EF91BF91AF919F918F912F910F900BBE3D
:104BF0000F900FBE0F901F9018951F920F920FB637
:104C00000F9211240BB60F922F933F934F935F9304
:104C10006F937F938F939F93AF93BF93CF93DF93C4
:104C2000EF93FF93A0918017B0918117109711F126
:104C30006091D6001496ED91FC9115979381828135
:104C40002581981B92238481981761F08381269592
:104C50002823C081D181C20FD11D68838F5F9581C8
:104C6000892383831696ED91FC911797309711F065
:104C7000CD011995FF91EF91DF91CF91BF91AF9148
:104C80009F918F917F916F915F914F913F912F9164
:104C90000F900BBE0F900FBE0F901F9018951F9294
:104CA0000F920FB60F9211240BB60F922F938F9382
:104CB0009F93AF93BF93EF93FF93E0918017F09191
:104CC00081173097B9F00280F381E02D93818281C2
:104CD0009817B1F092818581282F26952923A081EC
:104CE000B181A20FB11D2C919F5F892382832093F4
:104CF000D6000BC0E1EDF0E080818F7D808305C0A0
:104D0000E1EDF0E080818F7D8083FF91EF91BF9195
:104D1000AF919F918F912F910F900BBE0F900FBE6F
:104D20000F901F9018951F920F920FB60F9211249B
:104D30000BB60F922F933F934F935F936F937F9395
:104D40008F939F93AF93BF93CF93DF93EF93FF9393
:104D5000A0918217B0918317109711F160913601DD
:104D60001496ED91FC911597938182812581981B72
:104D700092238481981761F0838126952823C0812E
:104D8000D181C20FD11D68838F5F95818923838371
:104D90001696ED91FC911797309711F0CD0119956A
:104DA000FF91EF91DF91CF91BF91AF919F918F9143
:104DB0007F916F915F914F913F912F910F900BBE1B
:104DC0000F900FBE0F901F9018951F920F920FB665
:104DD0000F9211240BB60F922F938F939F93AF9343
:104DE000BF93EF93FF93E0918217F0918317309771
:104DF000B9F00280F381E02D938182819817B1F0A0
:104E000092818581282F26952923A081B181A20F27
:104E1000B11D2C919F5F89238283209336010BC0A3
:104E2000E1E3F1E080818F7D808305C0E1E3F1E083
:104E300080818F7D8083FF91EF91BF91AF919F9192
:104E40008F912F910F900BBE0F900FBE0F901F9060
:104E50001895CF93DF931F92CDB7DEB7BE016F5F7A
:104E60007F4F80918417909185177BDD8111F6CF5C
:104E7000898190E00F90DF91CF910895682F809104
:104E8000841790918517EDDC80E090E008958F9273
:104E90009F92AF92CF92EF920F93812C912C6894B6
:104EA000AA24A7F86894CC24C7F8E12C00E023E0FA
:104EB00040E051EE60E070E032DC90938517809323
:104EC0008417ECECF7E187E192E091838083938390
:104ED00082830F91EF90CF90AF909F908F90089525
:104EE00090E0FC01EE0FFF1FE80FF91FEE0FFF1F10
:104EF000EA57F84E238121111FC09C01220F331F56
:104F0000F901E80FF91FEE0FFF1FEA57F84EA081D5
:104F1000B1814C91F901E80FF91FEE0FFF1FEA571D
:104F2000F84E81E090E0028002C0880F991F0A9439
:104F3000E2F7842B8C930895FC01EE0FFF1FDF0135
:104F4000A80FB91FAA0FBB1FAA57B84E0D90BC914E
:104F5000A02D2C91E80FF91FEE0FFF1FEA57F84E16
:104F600081E090E0028002C0880F991F0A94E2F766
:104F7000809582238C93089590E0FC01EE0FFF1F33
:104F8000E80FF91FEE0FFF1FEA57F84E238121119A
:104F900020C09C01220F331FF901E80FF91FEE0F0B
:104FA000FF1FEA57F84EA081B1814C91F901E80F3B
:104FB000F91FEE0FFF1FEA57F84E81E090E00280E4
:104FC00002C0880F991F0A94E2F7809584238C937E
:104FD0000895FC01EE0FFF1FDF01A80FB91FAA0FF4
:104FE000BB1FAA57B84E0D90BC91A02D2C91E80F75
:104FF000F91FEE0FFF1FEA57F84E81E090E00280A4
:1050000002C0880F991F0A94E2F7822B8C930895AF
:10501000CC24C394D12C6894BB24B2F8C6E8D7E161
:1050200010E08C81813081F018F1823061F5E881E7
:10503000F9812081C6010A8002C0880F991F0A9455
:10504000E2F7822780831FC08D818F5F863010F446
:105050008D8319C01D82E881F9812081C6010A80F3
:1050600002C0880F991F0A94E2F7822780830BC041
:105070000D81002329F0812F7FDF01500D8303C0B4
:10508000BC82812F2DDF1F5F2696143051F66CE015
:1050900070E080E090E00E940B11C0CFEF92FF9291
:1050A0000F931F93CF93DF93082F80E487B9C6E84F
:1050B000D7E10F2EF8E2EF2EF12CF02DF982E882E5
:1050C00086E08A831B8214E01C8380E009DF80E88D
:1050D00087B9FF82EE8287E0888719861A8781E088
:1050E000FFDE80E283BB84E390E09D878C8785E0D0
:1050F0008E871F86188B82E0F3DE80E180930101AA
:1051000082E091E09B8B8A8B1C8B1D8A1E8B83E037
:10511000E7DEE12CF12C20E030E040EC50E067EAE3
:1051200077E088E098E20E94060EDF91CF911F9110
:105130000F91FF90EF900895CF93DF9390E0FC01E3
:10514000EE0FFF1FDF01A80FB91FAA0FBB1FAA5741
:10515000B84ECD91DC911197488121E030E0129654
:105160000C90129702C0220F331F0A94E2F72427F3
:105170002883FD0181E08483DF91CF910895CF934F
:10518000DF9390E0FC01EE0FFF1FDF01A80FB91FB6
:10519000AA0FBB1FAA57B84ECD91DC911197488139
:1051A00021E030E012960C90129702C0220F331FBC
:1051B0000A94E2F724272883FD0182E08483DF91AB
:1051C000CF910895282F30E0F901EE0FFF1FE20F75
:1051D000F31FEE0FFF1FEA57F84E93E09483CCCEF7
:1051E0000895282F30E0F901EE0FFF1FE20FF31FA3
:1051F000EE0FFF1FEA57F84E94E0948371CE0895A6
:1052000090E0FC01EE0FFF1FDF01A80FB91FAA0FEE
:10521000BB1FAA57B84E26E015962C931597FD0193
:105220001482089590E0FC01EE0FFF1FDF01A80F2C
:10523000B91FAA0FBB1FAA57B84E15961C921597F7
:10524000FD01148208958091AC1781110CC08CE08F
:105250008093B8008FEF8093BB0084E08093BC0004
:1052600081E08093AC170895AF92BF92CF92DF9206
:10527000EF92FF920F931F93CF93DF93A82EB62E3A
:1052800069017A0184E090E05FD3EC01892B61F140
:10529000A88281E0B81212C0C701B60120EA36E840
:1052A00041E050E027D3DA01C9014097A109B109D3
:1052B000B695A79597958795898311C0C701B601C3
:1052C00020E83AE146E050E015D3DA01C901409701
:1052D000A109B109B695A7959795879589831B83F1
:1052E0000A838C2F9D2F02C080E090E0DF91CF9148
:1052F0001F910F91FF90EF90DF90CF90BF90AF90F4
:1053000008958091BC0081700895FF920F931F93C0
:10531000CF93DF930097D1F14A30D0F5F42E8B0173
:10532000EC01EFDF811136C080919F179091A0179B
:10533000C817D90741F087DF89818093B800D093DF
:10534000A017C0939F1781E08F0D8093A1178881CC
:10535000880F8093A217FF2089F0F801A3EAB7E134
:105360004FEF4F0D642F70E0CB010196B801680F2D
:10537000791F81918D93E617F707D9F788EF80930E
:10538000250285EA8093BC0084E005C086E003C066
:1053900087E001C082E0DF91CF911F910F91FF90D4
:1053A00008951F93CF93DF93009729F16B3028F571
:1053B000162FEC01A6DF811122C080919F179091DA
:1053C000A017C817D90741F03EDF89818093B80044
:1053D000D093A017C0939F171093A1178881880FAF
:1053E00081608093A21788EF8093250285EA8093DD
:1053F000BC0085E005C086E003C087E001C082E014
:10540000DF91CF911F9108951F920F920FB60F92C7
:1054100011240BB60F922F933F934F935F936F938B
:105420007F938F939F93AF93BF93EF93FF93E091FD
:10543000B9008E2F90E0FC013897E135F10508F0B6
:1054400075C08827E458FF4F8F4F76C210929E1781
:10545000E0919E178091A117E81770F481E08E0FFC
:1054600080939E17F0E0EE55F84E80818093BB004C
:1054700085E88093BC0072C084E98093BC00809171
:105480009F179091A017DC011296ED91FC91139754
:10549000309709F463C020E040E050E064E01995E3
:1054A0005DC0E0919E1781E08E0F80939E178091E2
:1054B000BB00F0E0EE55F84E80838091B900803457
:1054C00011F410929E1720919E1730E08091A11741
:1054D00090E001972817390724F485EC8093BC00ED
:1054E0003DC085E88093BC0039C08091BB00E0914D
:1054F0009E17F0E0EE55F84E808384E98093BC005F
:1055000080919F179091A017DC011296ED91FC916C
:105510001397309719F12091A11742EA57E165E0FE
:1055200019951CC085EA8093BC0018C08091B90011
:105530008093250284E08093BC0080919F17909116
:10554000A017DC011296ED91FC911397309731F082
:1055500020E040E050E0609125021995FF91EF9125
:10556000BF91AF919F918F917F916F915F914F917B
:105570003F912F910F900BBE0F900FBE0F901F9079
:105580001895FC01411101C000D3842F90E09C01CB
:105590002150310982239323892B09F0F6D2413817
:1055A00008F0F3D2128213824483440F41504583A2
:1055B0007183608380E090E008955058BB27AA274C
:1055C0000ED021C112D130F017D120F031F49F3F1D
:1055D00011F41EF407C10EF4E095E7FBFDC0E92FBE
:1055E0000E94201E78F3BA17620773078407950795
:1055F00020F079F4A6F50C94421E0EF4E0950B2EE3
:10560000BA2FA02D0B01B90190010C01CA01A00114
:105610001124FF27591B99F0593F50F4503E68F16F
:105620001A16F040A22F232F342F4427585FF3CFB0
:10563000469537952795A795F0405395C9F77EF481
:105640001F16BA0B620B730B840BBAF09150A1F0CA
:10565000FF0FBB1F661F771F881FC2F70EC0BA0F50
:10566000621F731F841F48F4879577956795B795D8
:10567000F7959E3F08F0B1CF9395880F08F09927D2
:10568000EE0F9795879508950DD0BDC0B5D048F021
:10569000ACD038F021F45F3F21F09EC051110C9442
:1056A000431EA0C00E94201E88F39923B9F35523FE
:1056B000A1F3951B550BBB27AA2762177307840715
:1056C00038F09F5F5F4F220F331F441FAA1FA9F3BB
:1056D00034D00E2E3AF0E0E831D091505040E695AB
:1056E000001CCAF72AD0FE2F28D0660F771F881F0C
:1056F000BB1F261737074807AB07B0E809F0BB0BFD
:10570000802DBF01FF2793585F4F32F09E3F510518
:1057100070F062C00C94431E5F3FE4F3983ED4F3F4
:10572000869577956795B795F7959F5FC9F7880F29
:10573000911D9695879597F90895E1E0660F771F7B
:10574000881FBB1F621773078407BA0720F0621B0C
:10575000730B840BBA0BEE1F88F7E0950895E8945D
:1057600009C097FB3EF490958095709561957F4FA9
:105770008F4F9F4F9923A9F0F92F96E9BB27939557
:10578000F695879577956795B795F111F8CFFAF467
:10579000BB0F11F460FF1BC06F5F7F4F8F4F9F4F98
:1057A00016C0882311F096E911C0772321F09EE8F6
:1057B000872F762F05C0662371F096E8862F70E05C
:1057C00060E02AF09A95660F771F881FDAF7880F36
:1057D0009695879597F9089597F99F6780E870E007
:1057E00060E008959FEF80EC089500240A94161657
:1057F000170618060906089500240A9412161306BF
:10580000140605060895092E0394000C11F488234C
:1058100052F0BB0F40F4BF2B11F460FF04C06F5F68
:105820007F4F8F4F9F4F08950CD0EDCFDEDF28F0D4
:10583000E3DF18F0952309F0CFCFD4CF11240C94D7
:10584000431E0E94201E90F3959FC1F3950F50E0D8
:10585000551F629FF001729FBB27F00DB11D639F22
:10586000AA27F00DB11DAA1F649F6627B00DA11DC8
:10587000661F829F2227B00DA11D621F739FB00D6E
:10588000A11D621F839FA00D611D221F749F3327DE
:10589000A00D611D231F849F600D211D822F762F77
:1058A0006A2F11249F57504092F0E9F088234AF064
:1058B000EE0FFF1FBB1F661F771F881F91505040C0
:1058C000A9F79E3F510578F087CF0C94431E5F3FA8
:1058D000E4F3983ED4F3869577956795B795F79559
:1058E000E7959F5FC1F7FE2B880F911D96958795D1
:1058F00097F90895A1E21A2EAA1BBB1BFD010DC04A
:10590000AA1FBB1FEE1FFF1FA217B307E407F5076F
:1059100020F0A21BB30BE40BF50B661F771F881F4B
:10592000991F1A9469F760957095809590959B01E1
:10593000AC01BD01CF010895EE0FFF1F881F8BBF83
:105940000790F691E02D19940F931F93CF93DF9357
:105950008230910510F482E090E0E091CA17F09156
:10596000CB1720E030E0A0E0B0E0309719F14081A3
:1059700051810281138148175907C8F08417950790
:1059800069F4109731F012960C93129713961C93AA
:1059900027C00093CA171093CB1722C021153105D9
:1059A00019F04217530718F49A01BD01EF01DF0106
:1059B000F801DBCF21153105F9F0281B390B243014
:1059C000310580F48A819B816115710521F0FB010D
:1059D0009383828304C09093CB178093CA17FE01F0
:1059E000329644C0FE01E20FF31F8193919322503F
:1059F0003109398328833AC02091C8173091C917DB
:105A0000232B41F420910202309103023093C917F5
:105A10002093C81720910002309101022115310511
:105A200041F42DB73EB74091040250910502241B6A
:105A3000350BE091C817F091C917E217F307A0F4EE
:105A40002E1B3F0B2817390778F0AC014E5F5F4FD4
:105A50002417350748F04E0F5F1F5093C917409326
:105A6000C8178193919302C0E0E0F0E0CF01DF918D
:105A7000CF911F910F910895CF93DF93009709F471
:105A800081C0FC01329713821282A091CA17B09193
:105A9000CB17109781F420813181820F931F2091C1
:105AA000C8173091C9172817390751F5F093C9174E
:105AB000E093C81767C0ED0120E030E0CE17DF07A4
:105AC00040F44A815B819E0141155105F1F0EA01E4
:105AD000F5CFD383C28340815181840F951FC817AE
