S0120000342E53656D65737465722E7372656368
S1130000E5C0000004C1000002C1000000C10000FE
S1130010FEC00000FCC00000FAC00000F8C00000F0
S1130020F6C00000F4C00000F2C00000F0C0000000
S11300306BC70000ECC00000EAC00000E8C000008C
S1130040E6C00000E4C00000E2C00000E0C0000020
S1130050DEC00000DCC00000DAC00000D8C0000030
S1130060D6C000000C9498270C94EA27D0C0000056
S1130070CEC00000CCC00000CAC00000C8C0000050
S1130080C6C00000C4C00000C2C00000C0C0000060
S11300900C942E280C948028BAC000000C94CB2C0D
S11300A0B6C00000B4C00000B2C00000B0C0000080
S11300B0AEC00000ACC00000AAC00000A8C0000090
S11300C0A6C00000A4C00000A2C000000C94C42874
S11300D00C9416299CC000000C945A290C94AC2949
S11300E096C00000401D401D401D771D7F1D941DBE
S11300F0401D401D771D7F1DED2C5D2D5D2D5D2D5B
S11301005D2D5D2D5D2D5D2DED2C5D2D5D2D5D2D0C
S11301105D2D5D2D5D2D5D2DEF2C5D2D5D2D5D2DFA
S11301205D2D5D2D5D2D5D2D5D2D5D2D5D2D5D2D7B
S11301305D2D5D2D5D2D5D2DEF2C5D2D5D2D5D2DDA
S11301405D2D5D2D5D2D5D2D5D2D5D2D5D2D5D2D5B
S11301505D2D5D2D5D2D5D2D592D5D2D5D2D5D2D4F
S11301605D2D5D2D5D2D5D2D242D5D2D5D2D5D2D74
S11301705D2D5D2D5D2D5D2D5D2D5D2D5D2D5D2D2B
S11301805D2D5D2D5D2D5D2D182D5D2D5D2D5D2D60
S11301905D2D5D2D5D2D5D2D3C2D0E94810F809187
S11301A0D315823008F0EAD50E94BD1DF6CFCF9357
S11301B0DF931F92CDB7DEB7CE0101960E94BD1A20
S11301C049810E94B21C0E94091DF6CF11241FBE52
S11301D0CFEFD1E2DEBFCDBF00E00CBF17E0A0E05F
S11301E0B2E0EEE1F8E600E00BBF02C007900D922A
S11301F0A03BB107D9F728E1A0EBB7E001C01D92FD
S1130200A131B207E1F70E943D200C940D34F8CEE1
S1130210EF92FF920F93E12CF12C082F20E030E0B5
S113022040EC50E06FE672E085EA91E00E944810ED
S11302300F91FF90EF9008954F925F926F927F928B
S1130240AF92BF92CF92DF92EF92FF920F931F93E0
S1130250CF93DF93CDB7DEB766970FB6F894DEBFC2
S11302600FBECDBF5C012A013B0143E050E060E0DA
S113027070E08091CA179091CB17CBD2CC24CA944A
S1130280DC2C760101E021E043E050E060E070E026
S11302908091E8179091E9171CD26093CE17709360
S11302A0CF178093D0179093D117DC01CB018370C3
S11302B09927AA27BB270397A105B10589F50E94B1
S11302C04C1E0E94191E0E94571E0E94201E73D0AD
S11302D00E94121E62E0CE0101960E94271E86E152
S11302E0FE013196A2EDB7E101900D928A95E1F7F6
S11302F063E070E080E090E00E944D130FEF1FEF89
S1130300980146E150E062ED77E18091C817909141
S1130310C9170E94A40CB301A201C5010E94E812EE
S113032066960FB6F894DEBF0FBECDBFDF91CF91B6
S11303301F910F91FF90EF90DF90CF90BF90AF90FF
S11303407F906F905F904F900895CF93DF9300D08C
S11303501F92CDB7DEB70E94D21069837A838B8354
S11303609C8348E358E160E070E0CE01019664DFCD
S1130370F8CF9093EC178093EB1741E050E060E0E6
S113038070E08091E8179091E91743C20895EF92C5
S1130390FF920F93E12CF12C082F20E030E040EC89
S11303A050E06BE772E088E192E00E9448100F9100
S11303B0FF90EF9008958091EB179091EC170895BA
S11303C0CF92DF92EF92FF920F93CC24CA94DC2C4D
S11303D0760101E021E042E050E060E070E08091CD
S11303E0CA179091CB1775D161FF1CC066E070E00D
S11303F080E090E00E944D130E9427268093EA1724
S1130400882341F084E892E09F938F930E94EF3019
S11304100F900F9083E992E09F938F930E94EF30A7
S11304200F900F900F91FF90EF90DF90CF90089571
S113043089EB91E00E942226C3DFFECF0F93CF9376
S1130440DF93EC014FEF5FEFBA018091F7179091C2
S1130450F8170E94320A813031F4E091F517F091D7
S1130460F617D183C08300E020E030E0A90160E00A
S113047070E08091F7179091F81798D6DF91CF919B
S11304800F9108950F93CF93DF93EC014FEF5FEF3C
S1130490BA018091F7179091F817E4D7E091F51716
S11304A0F091F617D383C28300E020E030E0A90185
S11304B060E070E08091F7179091F81777D6DF919C
S11304C0CF910F9108950F93CF93DF93EC014FEFEA
S11304D05FEFBA018091F7179091F817C3D7E091B5
S11304E0F517F091F617D583C48300E020E030E0DF
S11304F0A90160E070E08091F7179091F81756D643
S1130500DF91CF910F9108950F93CF93DF93EC0177
S11305104FEF5FEFBA018091F7179091F817A2D7C8
S1130520E091F517F091F617D783C68300E020E039
S113053030E0A90160E070E08091F7179091F8171E
S113054035D6DF91CF910F910895EF92FF920F93DB
S11305502091CC173091CD17E12CF12C082F48E8CD
S113056051E064EA72E083E393E00E9448100F9143
S1130570FF90EF9008950F931F93CF93DF930FEFA6
S11305801FEF980146E150E060EB77E08091CC17D3
S11305909091CD170E94AD0D892B09F45FC0C0EB7B
S11305A0D7E0998188811F929F931F928F9384EB48
S11305B092E09F938F930E94EF3089810F900F9068
S11305C00F900F900F900F90883009F03DC08A81F2
S11305D090E0982F88272B81820F911D909300180B
S11305E08093FF178C8190E0982F88272D81820FAC
S11305F0911D9093FC178093FB172E8130E0322FCE
S113060022274F81240F311D3093FE172093FD17AD
S1130610288530E0322F22274985240F311D30935D
S1130620FA172093F9170ADF8091FF1790910018A9
S11306304ADF8091F9179091FA1724DF8091FD1712
S11306409091FE1761DF06C064E574E280E090E0FB
S11306500E944D1386EE92E00E940231DF91CF9109
S11306601F910F91089587DFFECF0F9301110CC0E6
S1130670DC01CB0182239323A423B523892B8A2B6A
S11306808B2B79F480E010C0DC01CB01822393230F
S1130690A423B523281739074A075B0721F080E014
S11306A003C081E001C081E00F910895CF93DF93EF
S11306B08FE090E0AFD1EC01009739F0FC0111928A
S11306C0119211921192CF018BD2CE01DF91CF9171
S11306D008952F923F924F925F926F927F928F92E2
S11306E09F92AF92BF92CF92DF92EF92FF920F93BD
S11306F01F93CF93DF93EC014A015B01622E702EAE
S11307000E94CC10288039804A805B80A501940126
S1130710C201B101AADF8823A1F0662089F1D501C5
S1130720C40180959095A095B09582219321A42130
S1130730B52188839983AA83BB83C12CD12C7601EC
S113074022C0C114D104E104F104E9F0611004C031
S113075040E050E0BA0104C040E050E060E071E0E5
S113076071107460482959296A297B2997018601E7
S1130770CE0104960E94E413212C312C210103C0E4
S1130780C12CD12C76010E940C12CD28CE28CF2862
S113079059F1811101C0F2D20E94A6176B017C01AC
S11307A091FD1FC00FB6F8940F92C880D980EA80DB
S11307B0FB80072DA5019401C701B60156DF8823EC
S11307C071F0662061F080949094A094B0948C2091
S11307D09D20AE20BF2088829982AA82BB820F907E
S11307E00FBE160127015524C201B101DF91CF913B
S11307F01F910F91FF90EF90DF90CF90BF90AF903B
S11308009F908F907F906F905F904F903F902F902C
S113081008954F925F926F927F92AF92BF92CF9260
S1130820DF92EF92FF920F931F93CF93DF93EC012C
S11308306A017B018C01095F1F4F0E94CC10EB857C
S1130840FC8588819981AA81BB81C82AD92AEA2A90
S1130850FB2AC882D982EA82FB82C12CD12C760180
S11308603DC0A480B58080819181A281B381AC0117
S1130870BD017727B2FD0EC0488059806A807B8015
S1130880442255226622772245284628472889F49F
S113089020E012C0488059806A807B80442255221F
S11308A066227722441555056605770521F020E078
S11308B003C021E001C021E0222371F0B0FF04C095
S11308C0C42AD52AE62AF72A488159816A817B817C
S11308D07260CF010E941F15EA2DFB2DE017F1076E
S11308E009F0BFCFC094D094E094F09488819981AA
S11308F0AA81BB81C822D922EA22FB22C882D982DA
S1130900EA82FB820E940C12688179818A819B8130
S1130910DF91CF911F910F91FF90EF90DF90CF90D7
S1130920BF90AF907F906F905F904F900895E2EDED
S1130930F7E0A6EDB7E0B183A08313821282EEE75D
S1130940F5E1F093D107E093D0071382128211826C
S1130950108288EA9DE013969C938E931297ED93F0
S1130960FC939093CD078093CC079093CF0780930B
S1130970CE0780E090E89093C7078093C607089558
S1130980CF93DF93EC01A2EDB7E001C0DF01ED915D
S1130990FC911197EC17FD07C8F312968D919C9169
S11309A013979D01280F391FC217D30749F42A81D1
S11309B03B81820F931F13969C938E931297ED01A4
S11309C08A819B819E01280F391FE217F307C1F426
S11309D02091D0073091D107E217F30771F02281FB
S11309E03381820F931F9B838A83ED91FC9111972E
S11309F0808191819983888305C03983288302C0CB
S1130A00F983E883CA17DB0711F0CD93DC93DF91F8
S1130A10CF910895EF92FF920F931F93CF93DF939B
S1130A208C010E94CC108091D0079091D107892B22
S1130A3009F47DDF8091C6079091C7078023912335
S1130A40892B09F076C00115110549F0C8010496F7
S1130A500817190718F000E010E001C08C01011517
S1130A60110509F469C08091CE079091CF078017D2
S1130A70910708F464C0C091D207D091D307E2ED86
S1130A80F7E002C0FE01EC018A819B818017910787
S1130A9020F4888199810097A9F78091D0079091DB
S1130AA0D107C817D90709F44DC0E080F18084E06C
S1130AB0E80EF11C88819981918380832A813B818E
S1130AC0201B310B2930310548F0CE01800F911FD6
S1130AD0FC01338322831B830A8352DF2A813B81F7
S1130AE08091CE079091CF07821B930B9093CF07F1
S1130AF08093CE074091CC075091CD07841795077A
S1130B0020F49093CD078093CC078091C6079091F1
S1130B10C707282B392B3B832A831982188280919B
S1130B20CA079091CB0701969093CB078093CA078D
S1130B300BC0E12CF12C08C0E12CF12C05C0E12CF8
S1130B40F12C02C0E12CF12C0E940C12E114F104EE
S1130B5011F40E94C91DC701DF91CF911F910F911C
S1130B60FF90EF9008950F931F93CF93DF93009717
S1130B7091F1EC0124974A815B812091C607309161
S1130B80C707BA0162237323672B29F1688179812E
S1130B90672B09F520953095242335233B832A833D
S1130BA00E94CC108A819B812091CE073091CF077F
S1130BB0820F931F9093CF078093CE07CE01E0DE80
S1130BC08091C8079091C90701969093C9078093B3
S1130BD0C8070E940C12DF91CF911F910F910895C5
S1130BE0FC010396928381834FEF5FEFBA01438345
S1130BF05483658376839087878392878187108265
S1130C000895FC011386128608950F931F93CF93C2
S1130C10DF93EB01088119812A813B810F3F4FEF5C
S1130C2014072407340721F4FC01A185B28511C0FF
S1130C30DC01139601C0DF011496ED91FC91159728
S1130C404081518162817381041715072607370794
S1130C5090F71496ED91FC911597FD83EC83D7835F
S1130C60C683BF83AE831596DC93CE9314979B877C
S1130C708A87FC0120812F5F2083DF91CF911F9110
S1130C800F910895CF93DF93FC01A285B385C481AE
S1130C90D581868197819F838E83C681D781848104
S1130CA095819D838C8311968D919C911297E81761
S1130CB0F90731F48681978112969C938E9311974C
S1130CC0138612868C9181508C938C91DF91CF91F5
S1130CD00895A89590EC88E10FB6F894A8958093B0
S1130CE060000FBE909360000895FC01608331970B
S1130CF070833197108231971082319720E82083D6
S1130D003197108231971082319710827797408300
S1130D103197508386970895DCDFA0914116B091F6
S1130D204216CD91CDBFDD91DEBFFF91EF91DF91F2
S1130D30CF91BF91AF919F918F917F916F915F916F
S1130D404F913F912F911F910F91FF90EF90DF9062
S1130D50CF90BF90AF909F908F907F906F905F9057
S1130D604F903F902F901F900F900CBE0F900BBE92
S1130D700F900FBE0F90089581E008950F920FB663
S1130D80F8940F920BB60F920CB60F921F92112487
S1130D902F923F924F925F926F927F928F929F9287
S1130DA0AF92BF92CF92DF92EF92FF920F931F9375
S1130DB02F933F934F935F936F937F938F939F935F
S1130DC0AF93BF93CF93DF93EF93FF93A09141161B
S1130DD0B09142160DB60D920EB60D920E94681394
S1130DE0A0914116B0914216CD91CDBFDD91DEBFE9
S1130DF0FF91EF91DF91CF91BF91AF919F918F912F
S1130E007F916F915F914F913F912F911F910F911E
S1130E10FF90EF90DF90CF90BF90AF909F908F9016
S1130E207F906F905F904F903F902F901F900F9006
S1130E300CBE0F900BBE0F900FBE0F9008950F9233
S1130E400FB6F8940F920BB60F920CB60F921F9236
S1130E5011242F923F924F925F926F927F928F92C2
S1130E609F92AF92BF92CF92DF92EF92FF920F9335
S1130E701F932F933F934F935F936F937F938F931E
S1130E809F93AF93BF93CF93DF93EF93FF93A0917F
S1130E904116B09142160DB60D920EB60D9213BEC8
S1130EA00E94E01081110E946813A0914116B09134
S1130EB04216CD91CDBFDD91DEBFFF91EF91DF9161
S1130EC0CF91BF91AF919F918F917F916F915F91DE
S1130ED04F913F912F911F910F91FF90EF90DF90D1
S1130EE0CF90BF90AF909F908F907F906F905F90C6
S1130EF04F903F902F901F900F900CBE0F900BBE01
S1130F000F900FBE0F9008959ADF1895DC01539649
S1130F102C915397222341F05A96ED91FC915B97C3
S1130F2090818AE0891B089580E008950FB6F894B3
S1130F300F92FC01868D811102C081E001C080E026
S1130F400F900FBE08950FB6F8940F92FC01268DF2
S1130F50878D281302C081E001C080E00F900FBE8E
S1130F6008950F931F93CF93DF93EC01042F1E8DED
S1130F7048A141110CC088819981892B09F042C094
S1130F808C819D810E94E4161D821C8242C0011145
S1130F9017C050E08A819B810E94903028A18A81E9
S1130FA09B81820F911D9B838A832C813D818217B3
S1130FB0930750F1888199819B838A8380E029C0BB
S1130FC050E08E819F810E94903088A190E091959D
S1130FD0819591092E813F81280F391F3F832E83EC
S1130FE0488159812417350730F42C813D81820FC3
S1130FF0931F9F838E83023049F4112349F01150CB
S113100080E007C080E005C080E003C080E001C04C
S113101080E01F5F1E8FDF91CF911F910F91089584
S1131020FC0140A14423A9F050E026813781240F1C
S1131030351F37832683848195812817390720F04B
S11310408081918197838683CB01668177810C941B
S1131050903008951F93CF93DF93EC010FB6F8946B
S11310600F921AA10BC08B89882351F0CE014396AD
S11310700E94701481110E944616115011169CF39F
S11310808FEF8AA30F900FBE0FB6F8940F9219A199
S11310900BC08885882351F0CE0108960E947014F5
S11310A081110E944616115011169CF38FEF89A3EB
S11310B00F900FBEDF91CF911F910895CF93DF93CF
S11310C0EC010FB6F8940F92E881F9818F8D28A175
S11310D090E030E0829FA001839F500D929F500DBD
S11310E011244E0F5F1F5D834C831E8EFB83EA83A6
S11310F00197289FA001299F500D389F500D11245E
S1131100CF01840F951F9F838E838FEF89A38AA3BA
S113111061110BC08885882371F0CE0108960E9466
S11311207014882341F02ADE06C0CE01089658DDEB
S1131130CE01439655DD0F900FBE81E0DF91CF9134
S113114008950F931F93F801611103C01183008365
S113115002C051834083878F60A361E0CF01AEDF7B
S11311601F910F910895DF92EF92FF920F931F93B7
S1131170CF93DF93F82EE62ED42E869FC001112440
S1131180839648DCEC01009741F08C012D2DAC01D5
S11311904D5D5F4F6E2D8F2DD4DFCE01DF91CF914A
S11311A01F910F91FF90EF90DF900895CF92DF92FF
S11311B0EF92FF920F931F93CF93DF93CDB7DEB7D8
S11311C029970FB6F894DEBF0FBECDBF7C016B012B
S11311D02E833F834887598710E00FB6F8940F9207
S11311E0F701968D878D981710F00230B1F4402FD7
S11311F0B601C701B6DEF7019389992341F0C7010F
S113120043960E947014882321F0B8DD02C0811136
S1131210B5DD0F900FBE81E04CC08E819F81A88503
S1131220B985892B8A2B8B2B21F40F900FBE80E07C
S113123040C0111105C0CE0101960E94CF1511E0E6
S11312400F900FBEA9D70FB6F8940F92F70181A1A2
S11312508F3F09F411A2F70182A18F3F09F412A272
S11312600F900FBEBE016A5F7F4FCE0101960E94B0
S1131270E015811119C0C70166DE882381F04E8113
S11312805F8168857985C70108960E94CD13C701DF
S1131290E1DE0E940C128111A0CF70DD9ECFC70148
S11312A0D9DE0E940C1299CFC701D4DE0E940C1221
S11312B080E029960FB6F894DEBF0FBECDBFDF9154
S11312C0CF911F910F91FF90EF90DF90CF900895F1
S11312D0EF92FF920F931F93CF93DF938A01FC0148
S11312E0568D378D531710F02230F9F4422F7801C0
S11312F0EC011AA18E8DCE0134DE1F3F81F48B895F
S11313008823A9F0CE0143960E947014882389F0A3
S1131310E114F10481F081E0F70180830DC0FF2422
S1131320F394F10EFAA281E007C080E005C081E0E9
S113133003C081E001C081E0DF91CF911F910F9143
S1131340FF90EF900895CF92DF92EF92FF920F9368
S11313501F93CF93DF93CDB7DEB729970FB6F894D9
S1131360DEBF0FBECDBF8C016B012E833F83488748
S11313705987E12C0FB6F8940F92F801F68CFF20F0
S113138099F0B601C8014CDEFA94F801F68E808516
S1131390882331F0C80108960E9470148111EEDC94
S11313A00F900FBE81E04FC08E819F81A885B985C3
S11313B0892B8A2B8B2B21F40F900FBE80E043C026
S11313C0E11006C0CE0101960E94CF15EE24E394ED
S11313D00F900FBEE1D60FB6F8940F92F80181A1D9
S11313E08F3F09F411A2F80182A18F3F09F412A2E0
S11313F00F900FBEBE016A5F7F4FCE0101960E941F
S1131400E015811117C0C80191DD882379F04E8160
S11314105F8168857985C80143960E94CD13C80110
S113142019DEFAD78111A6CFA9DCA4CFC80112DE38
S1131430F3D7A0CFC8010EDEEFD7C80177DD88232C
S113144009F498CF80E029960FB6F894DEBF0FBE5A
S1131450CDBFDF91CF911F910F91FF90EF90DF905F
S1131460CF900895EF92FF920F931F93CF93DF9342
S1131470CDB7DEB729970FB6F894DEBF0FBECDBF48
S11314808C014E835F8368877987E12CF12C0FB63A
S1131490F8940F92F801868D8823C9F08150868FC5
S11314A080819181892B29F40E94D017F8019583BA
S11314B08483F8018085882331F0C80108960E944E
S11314C0701481115BDC0F900FBE81E06FC08E81C0
S11314D09F81A885B985892B8A2B8B2B21F40F90AA
S11314E00FBE80E063C0F11006C0CE0101960E94D9
S11314F0CF15FF24F3940F900FBE4ED60FB6F89479
S11315000F92F80181A18F3F09F411A2F80182A181
S11315108F3F09F412A20F900FBEBE016A5F7F4F86
S1131520CE0101960E94E015811126C0C801FEDC9F
S11315308823F1F0F80180819181892B51F40FB651
S1131540F8940F92848195810E945D16E82E0F9085
S11315500FBE4E815F8168857985C80143960E94DC
S1131560CD13C80177DD58D7811191CF07DC8FCF18
S1131570C80170DD51D78BCFC8016CDD4DD7C801D0
S1131580D5DC882309F483CFEE2079F00FB6F894E4
S11315900F92C801BBDC682FF801848195810E94F9
S11315A03F170F900FBE80E001C080E029960FB670
S11315B0F894DEBF0FBECDBFDF91CF911F910F9185
S11315C0FF90EF900895CF93DF93EC010FB6F8945A
S11315D00F9289A18F3F09F419A28AA18F3F09F4C0
S11315E01AA20F900FBE8E8D811104C0CE014396B6
S11315F00E942E14CE012EDDDF91CF910895FC01BF
S11316004481558122813381240F351F808191814A
S1131610B901681B790BCB016417750710F0841BA3
S1131620950B08950F93FC018FE0DF011D928A95BD
S1131630E9F7758764875583448337832683068750
S11316400F910895AF92BF92CF92DF92EF92FF92E3
S11316500F931F93CF93DF936C015B017A01FC011D
S1131660C281D381048115810C1B1D0B40175107C6
S113167008F48A01F60184859585A801B5018C0FCB
S11316809D1F0E9490300E151F0558F4A701401BA2
S1131690510BB501600F711FF601848595850E9479
S11316A09030CE018E0D9F1DF60124813581821765
S11316B0930710F0821B930BF60193838283C70177
S11316C0DF91CF911F910F91FF90EF90DF90CF901A
S11316D0BF90AF900895CF92DF92EF92FF920F9355
S11316E01F93CF93DF931F921F92CDB7DEB77C0178
S11316F06B015A83498321153105C1F0FC018685AC
S113170080FD08C04217530708F49A013A832983DD
S113171081E00FC02017310758F042E050E0BE01CD
S11317206F5F7F4FC7018EDF81E003C080E001C09F
S113173080E0882331F049815A81B601C70182DFF4
S113174002C080E090E00F900F90DF91CF911F9145
S11317500F91FF90EF90DF90CF900895AF92BF92DA
S1131760CF92DF92EF92FF920F931F93CF93DF9369
S11317707C015B01E9014217530708F4EA01209751
S113178081F1F7010081118184819581801B910B86
S11317906E018C179D0708F46C01F701648575854B
S11317A0600F711FA601C5010E949030CC16DD06A2
S11317B058F4AE014C195D09F70164857585C501BE
S11317C08C0D9D1D0E9490300C0F1D1FF70184810C
S11317D095810817190710F0081B190BF7011183DD
S11317E00083CE01DF91CF911F910F91FF90EF9075
S11317F0DF90CF90BF90AF9008956F927F928F92B9
S11318009F92AF92BF92CF92DF92EF92FF920F938B
S11318101F93CF93DF931F921F92CDB7DEB76C0156
S11318204B015A01790101151105B1F0FC016080E9
S11318307180A801BE016F5F7F4F90DF89819A811B
S1131840E01AF10AA816B90630F4F6017182608232
S1131850A12CB12C01C05C019701A501B401C60102
S11318607DDF0F900F90DF91CF911F910F91FF902B
S1131870EF90DF90CF90BF90AF909F908F907F902C
S11318806F900895CF92DF92EF92FF920F93CF93D0
S1131890DF93EC016B01413011F401E001C000E081
S11318A0C114D10419F4CC24C394D12CCE01409694
S11318B0C817D90720F42196ADD87C0102C0E12CC9
S11318C0F12CE114F10439F09601AE01B701615F26
S11318D07F4FC701A7DEC701DF91CF910F91FF9022
S11318E0EF90DF90CF9008950F930FB6F8940F9276
S11318F0FC0120853185232B71F422853385232B2C
S113190061F4268137814481558164857585068516
S113191089DE81E003C080E001C080E00F900FBE4B
S11319200F910895FC012481358180819181820F7A
S1131930931F42815381841B950B01978217930750
S113194010F0821B930B08952F923F924F925F9257
S11319506F927F928F929F92AF92BF92CF92DF92BB
S1131960EF92FF920F931F93CF93DF93CDB7DEB720
S11319702B970FB6F894DEBF0FBECDBF4C017B870B
S11319806A871A010E831F8328873987FC018481A3
S113199095810197268520FF0CC02A01F2E04F0EA5
S11319A0511C8415950558F41E821F8218861986C9
S11319B006C08417950710F02A0101C02C018E81FE
S11319C09F81A885B985892B8A2B8B2B09F438C074
S11319D0CE0101960E94B9150FB6F8940F92C40176
S11319E0A1DF3C018415950540F560E080E090E0BE
S11319F00E94A31A0E944A16F401938782870F90CB
S1131A000FBEAE80BF80C884D984E12CF12C00E0E5
S1131A1010E0980140E050E0BA0180E00E94E21733
S1131A20F40113861286BE016A5F7F4FCE010196D0
S1131A300E94E015882381F205C00F900FBE02C0FA
S1131A40612C712C6114710419F4C4016BDF3C0125
S1131A5082019301A1016A857B85C4013CDE6C018E
S1131A60892BE9F0C401CBDDF4012681378182178B
S1131A709307A8F091D3F40180859185892B71F0A7
S1131A8080859185E12CF12C00E020E030E0A90173
S1131A9060E00E948A18F40111861086BDD4C60144
S1131AA02B960FB6F894DEBF0FBECDBFDF91CF915A
S1131AB01F910F91FF90EF90DF90CF90BF90AF9068
S1131AC09F908F907F906F905F904F903F902F905A
S1131AD00895AF92BF92CF92DF92EF92FF920F934D
S1131AE01F93CF93DF93EC017B015A0169018E852B
S1131AF080FF04C08A010E5F1F4F01C08A01CE011E
S1131B0011DF9C01A501B701CE01E5DD5C01892B44
S1131B10C1F0CE0174DD2E813F818217930788F0D6
S1131B2088859985892B69F088859985E12CF12C24
S1131B3000E020E030E0A90160E00E9481191986EC
S1131B401886C501DF91CF911F910F91FF90EF90FF
S1131B50DF90CF90BF90AF9008954F925F926F92B5
S1131B607F928F929F92AF92BF92CF92DF92EF9229
S1131B70FF920F931F93CF93DF93EC012B013A0154
S1131B80580169018E8580FF05C06894882481F816
S1131B90912C02C0812C912CA114B104C104D10454
S1131BA041F10FB6F8940F92CE0129DD7C0188161D
S1131BB0990648F060E080E090E00E94A31A0E9439
S1131BC04A16998788870F900FBE8E149F04A0F041
S1131BD0E12CF12C00E010E0980140E050E0BA0163
S1131BE080E00E94E21719861886CE0108DD7C0188
S1131BF003C0CE0104DD7C018E149F04E8F484014B
S1131C009701A301B201CE01F8DD6C01892BB1F07B
S1131C10C3D28A859B85892B69F08A859B85E12CB3
S1131C20F12C00E020E030E0A90160E00E948A1875
S1131C301B861A86F1D302C0C12CD12CC601DF91B8
S1131C40CF911F910F91FF90EF90DF90CF90BF90B5
S1131C50AF909F908F907F906F905F904F9008957A
S1131C60E091BB15F091BC15808181110CC08FEF00
S1131C709FEFDC018093851590938615A0938715BB
S1131C80B09388150895E091BB15F091BC150780B9
S1131C90F085E02D80819181A281B38180938515A7
S1131CA090938615A0938715B09388150895CF93C4
S1131CB0DF93EC018B8D9C8D0E94B305CE010E94B5
S1131CC0B305DF91CF9108954F925F926F927F9207
S1131CD08F929F92AF92BF92CF92DF92EF92FF9238
S1131CE00F93CF93DF932C015B014A013901E60185
S1131CF065EA70E08B8D9C8D0E9499308B8D9C8D54
S1131D0021E0821A9108880E991EA114B10489F465
S1131D1015C0822F90E0F501E80FF91F3081DE0134
S1131D20A80FB91F5D963C938081882329F02F5F0B
S1131D3001C020E0203168F31CA601C01D8E0A30CA
S1131D4008F009E00A8F0DA71EA6CE0102960E9494
S1131D500106CE010E960E940106DB87CA878AE03F
S1131D6090E0A0E0B0E0801B9109A109B1098E8741
S1131D709F87A88BB98BDF8BCE8B84E0FE01BF9647
S1131D80DF011D928A95E9F71BAAA301B201C401E0
S1131D900E94750699838883E114F10419F0F70110
S1131DA0D183C083DF91CF910F91FF90EF90DF90AB
S1131DB0CF90BF90AF909F908F907F906F905F90E7
S1131DC04F900895CF93C0E009C02BE0C29FC0019B
S1131DD011248D529A4E0E94F005CF5FCA30A8F3A9
S1131DE088EC95E10E94F0058DEB95E10E94F005E9
S1131DF08EEA95E10E94F00583EA95E10E94F005E0
S1131E0087E995E10E94F00588EC95E19093BC1573
S1131E108093BB158DEB95E19093BA158093B9151A
S1131E20CF910895CF93DF93EC010FB6F8940F92FE
S1131E30809196158F5F80939615809141169091AD
S1131E404216892B51F4D0934216C09341168091C7
S1131E509615813091F4B6DF10C0809190158111F0
S1131E600CC0E0914116F0914216928D8A8D89172B
S1131E7020F0D0934216C0934116809189158F5F4C
S1131E8080938915EA8D809191158E1710F4E09353
S1131E9091158BE08E9FF0011124ED52FA4E0180D2
S1131EA0F281E02DFF83EE832681378139872887ED
S1131EB0A681B7819E012E5F3F4F15963C932E93CA
S1131EC0149737832683EA8D8E9FF0011124ED52F7
S1131ED0FA4EFD87EC8780818F5F80830F900FBE61
S1131EE080919015882351F0E0914116F0914216AB
S1131EF0928D8A8D981710F40E94BE06DF91CF91BF
S1131F000895CF93DF931BC00FB6F8940F92E0911E
S1131F10AA15F091AB15C085D185CE0102960E9419
S1131F204206809196158150809396158091A21552
S1131F3081508093A2150F900FBECE01B8DE809120
S1131F40A2158111E1CFDF91CF9108958F929F92D5
S1131F50AF92BF92CF92DF92EF92FF92CF93DF9333
S1131F606B017C01C42F8090921590909315A090E2
S1131F709415B09095158091411690914216029651
S1131F800E9442068FEFC816D806E806F806B1F597
S1131F90CC23A1F1E7E9F5E1A181B281C091411619
S1131FA0D0914216BF83AE83C0914116D0914216A0
S1131FB016968D919C911797998788871696CD913F
S1131FC0DC911797809141169091421602969D8359
S1131FD08C838091411690914216029617969C9399
S1131FE08E931697A0914116B09142161D96FC93BC
S1131FF0EE931C9780818F5F80833FC0C80CD91CEF
S1132000EA1CFB1CE0914116F0914216C282D38275
S1132010E482F582C814D904EA04FB0468F46091EC
S11320204116709142168091B9159091BA156E5F60
S11320307F4F0E94050621C060914116709142169F
S11320408091BB159091BC156E5F7F4F0E94050671
S11320508091851590918615A0918715B09188156A
S1132060C816D906EA06FB0640F4C0928515D0923C
S11320708615E0928715F0928815DF91CF91FF9035
S1132080EF90DF90CF90BF90AF909F908F90089586
S11320902F923F924F925F926F927F928F929F9274
S11320A0AF92BF92CF92DF92EF92FF920F93CF93B2
S11320B0DF933C011B014A012901CA010E940A0560
S11320C06C01892B71F084E390E00E940A05EC0115
S11320D0892B19F0DC8ECB8E06C0C6010E94B30595
S11320E002C0C0E0D0E0209761F0A12CB12C6E01B9
S11320F09201A401B101C301E7DDCE0193DE81E0C9
S113210001C08FEFDF91CF910F91FF90EF90DF909F
S1132110CF90BF90AF909F908F907F906F905F9083
S11321204F903F902F900895EF92FF920F930F2EB0
S1132130F3E8EF2EF5E1FF2EF02D00E020E030E093
S113214040EC50E06FEE72E08DEC90E0A1DF813066
S113215011F40E94471B8130C9F4F8948FEF9FEF6C
S1132160DC018093851590938615A0938715B09311
S1132170881581E080939015109292151092931512
S113218010929415109295150E948C068091060267
S11321900F91FF90EF900895809182158F5F809347
S11321A0821508950FB6F8940F926091921570916C
S11321B0931580919415909195150F900FBE0895E5
S11321C0CF92DF92EF92FF92CF93DF9380918215AB
S11321D0811105C1C0909215D0909315E09094158B
S11321E0F09095158FEFC81AD80AE80AF80AC09239
S11321F09215D0929315E0929415F0929515C1140E
S1132200D104E104F104B1F48091BB159091BC15A3
S11322102091B9153091BA153093BC152093BB1594
S11322209093BA158093B91580918A158F5F809326
S11322308A1516DD8091851590918615A0918715D4
S1132240B0918815C816D906EA06FB0620F480E08A
S1132250B2C081E001C080E0E091BB15F091BC15F3
S1132260908191110CC04FEF5FEFBA014093851537
S11322705093861560938715709388159CC0E091E0
S1132280BB15F091BC150780F085E02D0084F18525
S1132290E02D4281538164817581C416D506E6061A
S11322A0F70648F440938515509386156093871577
S11322B07093881580C0A485B585C681D781208593
S11322C031853F832E83C085D185268137813D8327
S11322D02C8311964D915C9112979F012E5F3F4F75
S11322E04217530731F44085518512965C934E93FF
S11322F01197158614869C9191509C93A08DB18D55
S1132300109709F1C289D389448955895F834E8323
S1132310C489D589428953895D834C8311966D9113
S11323207C911297AF01425F5F4F6417750731F4D8
S11323304489558912965C934E931197118E108E91
S11323409C9191509C93A28D909191159A1710F4A1
S1132350A09391159BE09A9FD0011124AD52BA4EDF
S113236011960D90BC91A02DB783A68316964D911E
S11323705C911797518740871696CD91DC911797FA
S11323803D832C8317963C932E931697A28D9A9F88
S1132390D0011124AD52BA4EB587A4879C919F5F9A
S11323A09C93228DE0914116F0914216928D29174B
S11323B008F04FCF51CFE0914116F0914216E28DD3
S11323C09BE0E99FF0011124ED52FA4E9081923086
S11323D008F081E090918B15911116C016C0809180
S11323E08C1590918D15A0918E15B0918F15019635
S11323F0A11DB11D80938C1590938D15A0938E15FE
S1132400B0938F1580E001C081E0DF91CF91FF9000
S1132410EF90DF90CF900895CF92DF92EF92FF92EA
S1132420CF93DF930FB6F8940F9280918215815069
S113243080938215809182158111BEC0809196157A
S1132440811188C0BCC0E091B515F091B615008427
S1132450F185E02DA08DB18DC289D38984899589B8
S11324609F838E83C489D589828993899D838C8334
S113247011962D913C911297CF010E96281739078A
S113248031F48489958912969C938E931197118EB9
S1132490108E8C9181508C93A485B585C681D7818B
S11324A0808591859F838E83C085D1858681978120
S11324B09D838C8311968D919C9112979F012E5F21
S11324C03F4F8217930731F48085918512969C9330
S11324D08E931197158614868C9181508C93A28DBE
S11324E0809191158A1710F4A09391158BE08A9F1F
S11324F0D0011124AD52BA4E11960D90BC91A02D6D
S1132500B783A68316964D915C91179751874087A0
S11325101696CD91DC9117973D832C8317963C93A7
S11325202E931697A28D8A9FD0011124AD52BA4ED4
S1132530B587A4878C918F5F8C93928DA09141165F
S1132540B09142165A968C91981730F081E080939E
S11325508B1502C0E0E0F0E08091AE15811173CFDD
S1132560EF2B09F07DDBC0908C15D0908D15E09099
S11325708E15F0908F15C114D104E104F104A1F07B
S11325801FDE882319F081E080938B1581E0C81A3F
S1132590D108E108F108A1F710928C1510928D155D
S11325A010928E1510928F1580918B15882331F01F
S11325B00E94BE0681E003C080E001C080E00F906D
S11325C00FBEDF91CF91FF90EF90DF90CF900895F1
S11325D08F929F92AF92BF92CF92DF92EF92FF922F
S11325E01F93CF93DF93EC016A017B01D5DD8090CB
S11325F0921590909315A0909415B090951588819C
S11326009981AA81BB81AC01BD014C0D5D1D6E1D7C
S11326107F1D88169906AA06BB0660F44817590759
S11326206A077B0798F484169506A606B70680F019
S113263010E013C0481759076A077B0758F084163F
S11326409506A606B70640F010E007C010E005C0E6
S113265011E003C011E001C011E0488359836A838B
S11326607B83112341F0CB01BA01681979098A09E6
S11326709B0940E06BDCD0DE811102C00E94BE06E3
S1132680812FDF91CF911F91FF90EF90DF90CF903A
S1132690BF90AF909F908F900895CF92DF92EF926A
S11326A0FF926B017C01672B682B692B39F074DD79
S11326B040E0C701B6014ADCAFDE01C080E0811111
S11326C002C00E94BE06FF90EF90DF90CF90089565
S11326D080918215882321F081E080938B150895E1
S11326E010928B15E0914116F091421620813181B0
S11326F0E0914116F0914216838D948D82179307D1
S113270060F06091411670914216635E7F4F809134
S11327104116909142160E94D51D8091911501C0D9
S11327208150282F30E09BE0929FF001939FF00DA1
S11327301124ED52FA4E9081992391F39BE0929FDC
S1132740A001939F500D1124DF010180F281E02D3F
S11327500480F581E02D1296FC93EE9311974A5272
S11327605A4EE417F50729F444815581FD0152833B
S113277041839BE0929FF001939FF00D1124ED5251
S1132780FA4E0180F281E02D208531853093421686
S113279020934116809391150895CF92DF92EF9282
S11327A0FF926A017B016091411670914216625F4B
S11327B07F4F0E94050641E0C701B601C7DBFF90C9
S11327C0EF90DF90CF9008950F931F93CF93DF93F3
S11327D0FC01A0914116B091421670681E964D936B
S11327E05D936D937C935197A181B281C091411601
S11327F0D0914216BB8BAA8BC0914116D091421640
S113280016968D919C9117979D8B8C8B1696CD91D6
S1132810DC91179780914116909142160E969D83F4
S11328208C8380914116909142160E9617969C9334
S11328308E931697A0914116B09142165996FC9327
S1132840EE93589780818F5F808341E0C901B8017E
S11328507DDBDF91CF911F910F910895CF93DF938B
S1132860FC01CB01BA01A181B281C0914116D09182
S11328704216BB8BAA8BC0914116D0914216169674
S11328804D915C9117975D8B4C8B1696CD91DC9195
S113289017974091411650914216425F5F4F5D83F6
S11328A04C834091411650914216425F5F4F1796F8
S11328B05C934E931697A0914116B0914216599687
S11328C0FC93EE93589730813F5F3083222319F0B5
S11328D06FEF7FEFCB01422F39DBDF91CF9108956A
S11328E0CF93DF93DC011796ED91FC911897008448
S11328F0F185E02DA08DB18DC289D3898489958914
S11329009F838E83C489D589828993899D838C838F
S113291011968D919C9112979F01225F3F4F8217D0
S1132920930731F48489958912969C938E93119719
S1132930118E108E8C9181508C938091821581110F
S113294052C0A485B585C681D781808591859F8332
S11329508E83C085D185868197819D838C831196D2
S11329608D919C9112979F012E5F3F4F8217930781
S113297031F48085918512969C938E9311971586D8
S113298014868C9181508C93A28D809191158A1715
S113299010F4A09391158BE08A9FD0011124AD52BD
S11329A0BA4E11960D90BC91A02DB783A6831696AE
S11329B04D915C911797518740871696CD91DC9184
S11329C017973D832C8317963C932E931697A28DCD
S11329D08A9FD0011124AD52BA4EB587A4878C9139
S11329E08F5F8C931CC04EEA55E1DA011196CD91AC
S11329F0DC911297D38BC28B8E819F81958B848BB4
S1132A008E819F81DC0115963C932E9314973F830E
S1132A102E83518F408FDA018C918F5F8C93928D2E
S1132A20E0914116F0914216828D891720F481E0DD
S1132A3080938B1501C080E0DF91CF910895CF93EF
S1132A40DF93DC0170684D935D936D937C931397D2
S1132A501896ED91FC9119971A964D915C911B97DC
S1132A6014968D919C91159716962D913C911797DC
S1132A70EC013F832E8316968D919C9117971496A3
S1132A802D913C911597EC013D832C83EA018981BA
S1132A909A81A817B90731F416968D919C911797CE
S1132AA09A8389831B961C921E921A97DA018C9141
S1132AB081508C93A485B585C681D7818085918505
S1132AC09F838E83C085D185868197819D838C83E6
S1132AD011968D919C9112979F012E5F3F4F821703
S1132AE0930731F48085918512969C938E93119768
S1132AF0158614868C9181508C93A28D80919115AA
S1132B008A1710F4A09391158BE08A9FD0011124A9
S1132B10AD52BA4E11960D90BC91A02DB783A683E9
S1132B2016964D915C911797518740871696CD91D3
S1132B30DC9117973D832C8317963C932E9316971D
S1132B40A28D8A9FD0011124AD52BA4EB587A487B5
S1132B508C918F5F8C93928DE0914116F091421687
S1132B60828D891718F481E080938B15DF91CF91C2
S1132B7008950FB6F8940F9220918A15FC012083D2
S1132B8040919215509193156091941570919515FB
S1132B9041835283638374830F900FBE0895209101
S1132BA08A15FC01208340919215509193156091F0
S1132BB094157091951541835283638374830895AA
S1132BC08F929F92AF92BF92CF92DF92EF92FF9239
S1132BD00F931F93CF93DF93FB010FB6F8940F92DB
S1132BE0C0909215D0909315E0909415F09095159F
S1132BF0DC0111960D911D912D913C911497460184
S1132C005701801A910AA20AB30A40815181628154
S1132C1073814F3FBFEF5B076B077B0739F1EC0113
S1132C20B881A0918A15BA1759F0C016D106E206E8
S1132C30F30630F0108211821282138281E017C0F1
S1132C4084169506A606B70658F4481959096A0960
S1132C507B094083518362837383A1DF80E007C0D3
S1132C60108211821282138281E001C080E00F90F1
S1132C700FBEDF91CF911F910F91FF90EF90DF90E6
S1132C80CF90BF90AF909F908F90089581E08093F4
S1132C908B15089580914116909142160895809164
S1132CA09015882331F080918215811104C082E04F
S1132CB0089581E0089580E008950F931F93CF93C2
S1132CC0DF93FC01892B09F477C0828DA091411612
S1132CD0B09142165A969C91891708F063C04685B4
S1132CE0578560897189772394F0A0914116B0913A
S1132CF042165A969C914AE050E060E070E0491B0D
S1132D0051096109710946875787608B718B248546
S1132D1035854BE0849FC00111248D529A4E2817AB
S1132D203907B9F5EF018F010E5F1F4FC8010E94EB
S1132D304206E0914116F0914216E28DEA8F8091AD
S1132D4091158E1710F4E09391158BE08E9FF0018E
S1132D501124ED52FA4E0180F281E02DFF83EE83BF
S1132D602681378139872887A681B78115961C93D8
S1132D700E93149717830683EA8D8E9FF001112416
S1132D80ED52FA4EFD87EC8780818F5F808381E06E
S1132D9016C0A0914116B09142165A968C91828F1A
S1132DA081E00DC095A5E0914116F0914216828D07
S1132DB0981720F080E003C080E001C081E0DF913B
S1132DC0CF911F910F9108950F931F93CF93DF938A
S1132DD0FC01892B09F449C086A5815086A7228D60
S1132DE095A5291709F443C0811143C0EF018F0150
S1132DF00E5F1F4FC8010E944206EDA5EA8F8AE0CC
S1132E0090E0A0E0B0E08E1B9109A109B1098E8782
S1132E109F87A88BB98B809191158E1710F4E0933E
S1132E2091158BE08E9FF0011124ED52FA4E018032
S1132E30F281E02DFF83EE8326813781398728874D
S1132E40A681B78115961C930E9314971783068356
S1132E50EA8D8E9FF0011124ED52FA4EFD87EC8726
S1132E6080818F5F808381E005C080E003C080E0C3
S1132E7001C080E0DF91CF911F910F9108950F93CE
S1132E801F93CF93DF93FC01892B09F45AC085A5C6
S1132E90861708F4862F928D891709F452C026A547
S1132EA0213009F04EC0828F46855785608971892B
S1132EB0772364F04AE050E060E070E0481B510979
S1132EC06109710946875787608B718B2485358525
S1132ED04BE0949FC00111248D529A4E2817390754
S1132EE081F5EF018F010E5F1F4FC8010E9442065A
S1132EF0EA8D809191158E1710F4E09391158BE073
S1132F008E9FF0011124ED52FA4E0180F281E02DE2
S1132F10FF83EE832681378139872887A681B7818D
S1132F2015961C930E93149717830683EA8D8E9F30
S1132F30F0011124ED52FA4EFD87EC8780818F5FFA
S1132F408083DF91CF911F910F910895CF92DF92EB
S1132F50EF92FF92E0914116F091421666857785D3
S1132F6080899189E0914116F0914216A091411611
S1132F70B09142165A962C910F2EFAE0CF2ED12CF6
S1132F80E12CF12CF02DC21AD108E108F108C68613
S1132F90D786E08AF18AFF90EF90DF90CF90089572
S1132FA08091411690914216892B39F0E091411697
S1132FB0F091421686A58F5F86A780914116909165
S1132FC0421608954F925F926F927F92AF92BF9292
S1132FD0CF92DF92EF92FF920F931F93CF93DF93E1
S1132FE0280139010FB6F8940F92E0914116F0913F
S1132FF04216C82FD0E0EC0FFD1F83A9823079F16F
S1133000E0914116F0914216CE01880F991F880F66
S1133010991FE80FF91F87A590A9A1A9B2A9409506
S1133020509560957095482359236A237B2347A7BD
S113303050AB61AB72ABE0914116F0914216EC0FCC
S1133040FD1F81E083ABA114B104C104D10439F0A4
S113305041E0C601B5010E94A60F0E94BE060F9072
S11330600FBE0FB6F8940F92E114F104A1F0E091B1
S11330704116F0914216CE01880F991F880F991FAF
S1133080E80FF91F87A590A9A1A9B2A9F701808328
S11330909183A283B383E0914116F0914216EC0F21
S11330A0FD1F83A98230E9F4E0914116F0914216A4
S11330B0CE01880F991F880F991FE80FF91F87A564
S11330C090A9A1A9B2A94094509460947094482204
S11330D059226A227B2247A650AA61AA72AA81E0D9
S11330E001C080E02091411630914216C20FD31FD7
S11330F01BAA0F900FBEDF91CF911F910F91FF90EC
S1133100EF90DF90CF90BF90AF907F906F905F90E3
S11331104F9008958F929F92AF92BF92EF92FF9239
S11331200F93CF93DF93DC010FB6F8940F92E11461
S1133130F10489F0E62FF0E0EE0FFF1FEE0FFF1F02
S1133140E80FF91F87A490A8A1A8B2A8F70180826C
S11331509182A282B38270E0FD01E60FF71F83A97A
S113316092E093AB023001F118F4013031F04DC01C
S1133170033079F10430D1F148C0660F771F660F30
S1133180771FFD01E60FF71F87A490A8A1A8B2A896
S1133190BA01A901482959296A297B2947A750ABB3
S11331A061AB72AB01E034C0660F771F660F771F07
S11331B0FD01E60FF71F47A550A961A972A94F5F4A
S11331C05F4F6F4F7F4F47A750AB61AB72AB01E0CE
S11331D01FC0660F771F660F771FFD01E60FF71FED
S11331E027A730AB41AB52AB01E012C0823079F07B
S11331F0660F771F660F771FFD01E60FF71F27A7DE
S113320030AB41AB52AB01E003C001E001C000E0D0
S1133210813009F069C01C96ED91FC911D971696BA
S1133220CD91DC91179718968D919C9119979F8356
S11332308E831896CD91DC91199716968D919C9159
S113324017979D838C83818192819D012E5F3F4FCF
S11332508217930731F418968D919C911997928354
S113326081831D961C921E921C97808181508083BD
S11332705A96EC915A97809191158E1710F4E09319
S113328091158BE08E9FF0011124ED52FA4E0180CE
S1133290F281E02D1796FC93EE93169746815781A1
S11332A019965C934E931897C681D7813D832C83DE
S11332B0378326835A96EC915A978E9FF0011124F6
S11332C0ED52FA4E1D96FC93EE931C9780818F5F0E
S11332D080835A969C91E0914116F0914216828D1A
S11332E0891710F40E94BE060F900FBE802FDF9145
S11332F0CF910F91FF90EF90BF90AF909F908F90E0
S113330008958F929F92AF92BF92CF92DF92EF92E5
S1133310FF920F93CF93DF93DC01E114F10489F062
S1133320E62FF0E0EE0FFF1FEE0FFF1FE80FF91F6F
S113333087A490A8A1A8B2A8F70180829182A28252
S1133340B38270E0FD01E60FF71F93A982E083AB1F
S1133350023001F118F4013031F04DC0033079F13D
S11333600430D1F148C0660F771F660F771FFD0147
S1133370E60FF71F87A490A8A1A8B2A8BA01A901D3
S1133380482959296A297B2947A750AB61AB72ABFD
S113339081E034C0660F771F660F771FFD01E60FCB
S11333A0F71F47A550A961A972A94F5F5F4F6F4FDF
S11333B07F4F47A750AB61AB72AB81E01FC0660F74
S11333C0771F660F771FFD01E60FF71F27A730ABA6
S11333D041AB52AB81E012C0923079F0660F771F97
S11333E0660F771FFD01E60FF71F27A730AB41AB30
S11333F052AB81E003C081E001C080E0913009F06C
S113340096C09091821591115FC01C96ED91FC912C
S11334101D971696CD91DC91179718962D913C9196
S113342019973F832E831896CD91DC9119971696A0
S11334302D913C9117973D832C83418152819D01AD
S11334402E5F3F4F4217530731F418964D915C910C
S11334501997528341831D961C921E921C9790814A
S1133460915090835A96EC915A97909191159E178A
S113347010F4E09391159BE09E9FF0011124ED520E
S1133480FA4E0180F281E02D1796FC93EE93169785
S11334904681578119965C934E931897C681D781BC
S11334A03D832C83378326835A96EC915A979E9FAB
S11334B0F0011124ED52FA4E1D96FC93EE931C97E5
S11334C090819F5F908321C06EEA75E1FB01C18109
S11334D0D2815396DC93CE9352972E813F81559699
S11334E03C932E9354974E815F819D01225F3F4F01
S11334F0FA01358324833F832E8359967C936E93FC
S11335005897FB0190819F5F90835A962C91E0918C
S11335104116F0914216928D921748F4C114D104C9
S113352019F091E0F601908391E090938B15DF916F
S1133530CF910F91FF90EF90DF90CF90BF90AF901D
S11335409F908F900895009721F480914116909157
S113355042160FB6F8940F9270E0FC01E60FF71FC5
S113356023A9223031F4FC01E60FF71F13AA81E0EE
S113357001C080E00F900FBE0895DC01E0914D166C
S1133580F0914E16808191E0811190E09C9391110D
S113359008C00780F085E02D60817181828193816C
S11335A0089560E070E0CB010895CF92DF92EF922E
S11335B0FF920F931F93FC014283538364837583AB
S11335C0938782870417150726073707C0F00C195D
S11335D01D092E093F0986859785A089B189081799
S11335E019072A073B0700F5BF016E5F7F4F8091E3
S11335F04B1690914C160E94050680E018C00C15DD
S11336001D052E053F0528F44C155D056E057F0547
S113361068F4BF016E5F7F4F80914D1690914E16F6
S11336200E94050680E003C081E001C081E01F9193
S11336300F91FF90EF90DF90CF9008950FB6F8941C
S11336400F928091491690914A16892BE9F48AE5E4
S113365096E10E94F0058FE496E10E94F0058AE568
S113366096E190934E1680934D168FE496E19093D5
S11336704C1680934B1640E067E08AE00E94B30842
S113368090934A16809349160F900FBE0895EF92B7
S1133690FF920F93D3DF8091491690914A16892B9C
S11336A091F00F2EF7E4EF2EF6E1FF2EF02D03E05C
S11336B020E030E040EC50E064EF72E087ED90E011
S11336C00E94481001C080E00F91FF90EF90089590
S11336D08F929F92AF92BF92CF92DF92EF92FF921E
S11336E00F931F93CF93DF93CDB7DEB727970FB612
S11336F0F894DEBF0FBECDBFE0914916F0914A1693
S1133700309781F169832A833B834C835D839F8354
S11337108E836630F4F4C3DA823069F400E0A701E2
S11337209601BE016F5F7F4F8091491690914A16B2
S11337300E94D60818C000E020E030E0A901BE01D4
S11337406F5F7F4F8091491690914A160E94D60868
S11337500AC020E0A801BE016F5F7F4FCF010E9425
S1133760680901C080E027960FB6F894DEBF0FBE4B
S1133770CDBFDF91CF911F910F91FF90EF90DF901C
S1133780CF90BF90AF909F908F9008958F929F920B
S1133790AF92BF92CF92DF92EF92FF920F931F935B
S11337A0CF93DF933BC00780F085E02D808091802C
S11337B0A280B380C085D1858E010E5F1F4FC801E2
S11337C00E944206EC89FD89CE0119958E8982FFFB
S11337D025C08E859F85A889B989880D991DAA1D44
S11337E0BB1D88169906AA06BB0670F48A839B83C0
S11337F0AC83BD83DB87CA87B80180914D16909155
S11338004E160E9405060AC0C12CD12C760100E098
S113381010E0A501940160E0CE015ADFE0914D165D
S1133820F0914E1680818111BECF80914B169091FC
S11338304C1690934E1680934D16F0934C16E093CD
S11338404B16DF91CF911F910F91FF90EF90DF9076
S1133850CF90BF90AF909F908F900895CF92DF92BA
S1133860EF92FF92CF93DF93EC010E94D2106B0191
S11338707C018091431690914416A0914516B09115
S11338804616C816D906EA06FB0620F47FDF81E057
S1133890888301C01882C0924316D0924416E092E5
S11338A04516F0924616C701B601DF91CF91FF90FD
S11338B0EF90DF90CF9008954F925F926F927F9236
S11338C08F929F92AF92BF92CF92DF92EF92FF922C
S11338D00F931F93CF93DF934B015C0129013A01AE
S11338E0E0914D16F0914E160780F085E02DC085CD
S11338F0D185CE0102960E9442068E8982FF1BC0AA
S11339004E855F8568897989480D591D6A1D7B1D1F
S11339107501640193018201CE0147DE882369F0B9
S1133920C12CD12C760100E010E0A501940160E0E7
S1133930CE01CEDE02C08E7F8E8BEC89FD89CE0156
S11339401995DF91CF911F910F91FF90EF90DF9028
S1133950CF90BF90AF909F908F907F906F905F902B
S11339604F9008958F929F92AF92BF92CF92DF9221
S1133970EF92FF921F93CF93DF931F92CDB7DEB7E1
S11339806B017C01142F0E94CC10CE01019666DFDE
S11339904B015C01898181112DC011110DC08C1462
S11339A09D04AE04BF0440F00E940C12A5019401D2
S11339B0C701B60181DF20C0112341F0E0914B160D
S11339C0F0914C16808111E0811110E0B701A6013D
S11339D0481959096A097B09212F80914916909148
S11339E04A160E94E30A0E940C12811105C00E942B
S11339F0BE0602C00E940C120F90DF91CF911F915E
S1133A00FF90EF90DF90CF90BF90AF909F908F90FA
S1133A100895AF92BF92CF92DF92EF92FF920F93ED
S1133A201F93CF93DF93CDB7DEB728970FB6F894E3
S1133A30DEBF0FBECDBF82C0898188230CF47EC057
S1133A40AE80BF80D5011C968D919C911D97892BCA
S1133A5021F0C50102960E944206CE010896FEDEC0
S1133A608B019C01E9810E2E000CFF0BEA30F1055D
S1133A7008F064C08827EE58FF4F8F4F0C94632FD3
S1133A80F50186898160868BCA80DB80EC80FD80AD
S1133A9046855785608971894C0D5D1D6E1D7F1D9E
S1133AA0C50183DD882309F449C0D5015496ED91FD
S1133AB0FC915597C5011995F501868982FF3EC091
S1133AC04A815B816C817D8186859785A089B189D6
S1133AD09A01AB01280F391F4A1F5B1FC12CD12C3F
S1133AE0760100E010E060E0C501F2DD27C0D501F9
S1133AF056968C9156978E7F56968C931FC0F501DF
S1133B0086898160868B4A815B816C817D81468751
S1133B105787608B718B400F511F621F731F6801A1
S1133B207901C50142DD0AC0F501868981FD04C021
S1133B30C5010E94B30502C08E7F868B20E030E071
S1133B40A901BE016F5F7F4F8091491690914A167B
S1133B500E94A309811170CF28960FB6F894DEBF96
S1133B600FBECDBFDF91CF911F910F91FF90EF90CA
S1133B70DF90CF90BF90AF900895089584B180688E
S1133B8084B985B1806885B9089583B1806883B9A3
S1133B900895F4DF2FEF80E792E0215080409040B9
S1133BA0E1F700C00000F1DFF5CFE8DF2FEF87EA8F
S1133BB091E6215080409040E1F700C00000E5DF2D
S1133BC0F5CF41E060E070E084E690E00E94420CB2
S1133BD09093C9178093C81741E060E070E08CE2CD
S1133BE090E00E94420C9093CD178093CC170895D7
S1133BF00E9456039093CB178093CA170E945603D2
S1133C009093E9178093E817089586E090E00E9466
S1133C100A059093021880930118009711F480E02C
S1133C2090E00895E0910118F09102189183808347
S1133C300895E0910118F091021893838283089506
S1133C40E0910118F0910218958384830895E5E6C4
S1133C50F6E126E021836083A0910118B091021857
S1133C602C9111963C9111973283238312962C91B7
S1133C70129713963C9113973483258314962C91B1
S1133C80149715963C913683278326E1DC01019035
S1133C900D922A95E1F7089560917F167091801630
S1133CA08091811690918216F2D1CB010895609192
S1133CB07B1670917C1680917D1690917E16E7D1CB
S1133CC0CB010895EF92FF920F93E12CF12C082F72
S1133CD020E030E040EC50E06CEF72E088EE9EE1D2
S1133CE00E9448100F91FF90EF900895CF92DF92B9
S1133CF0EF92FF920F93CC24CA94DC2C760101E05E
S1133D0021E041E050E060E070E08091CA179091BA
S1133D10CB170E946903609303187093041880936F
S1133D2005189093061860FF4DC066E070E080E0CF
S1133D3090E00E944D1345D28823C1F066E070E004
S1133D4080E090E00E944D1381E193E09F938F9374
S1133D500E94EF300F900F9006C063E070E080E0A7
S1133D6090E00E944D132DD28823B9F33FD263E033
S1133D7070E080E090E00E944D1338D2811122C09F
S1133D8066E070E080E090E00E944D1340D26093C2
S1133D907B1670937C1680937D1690937E164CD27E
S1133DA060937F1670938016809381169093821689
S1133DB042E050E060E070E08091E8179091E917EC
S1133DC00E9409040F91FF90EF90DF90CF90089527
S1133DD08DDFFECF0F931F93CF93DF93CDB7DEB765
S1133DE064970FB6F894DEBF0FBECDBF81E00E948A
S1133DF0632BAAD326D69F938F938BE493E09F9350
S1133E008F930E94EF301ED51CD69F938F938EE51F
S1133E1093E09F938F930E94EF3087E793E00E9493
S1133E2002318E010F5F1F4FC801A0D30AD61F9322
S1133E300F939F938F9384E893E09F938F930E94B3
S1133E40EF30C801AFD3FDD59F938F931F930F938A
S1133E5088E993E09F938F930E94EF308DEA93E07B
S1133E600E940231A8016AEB73E08BED93E0C8D5A0
S1133E70E8D59F938F931F930F938AEB93E09F93BF
S1133E808F938BED93E09F938F938CEE93E09F93AE
S1133E908F930E94EF30B9D3D4D59F938F9382E24E
S1133EA094E09F938F930E94EF300FB6F894DEBF97
S1133EB00FBECDBF81E0A3D4C4D59F938F9381E37C
S1133EC094E09F938F930E94EF3082E594E00E94E8
S1133ED0023184EF91E09ED4B4D59F938F9381E017
S1133EE08F9384EF8F938FE594E09F938F930E9439
S1133EF0EF300FB6F894DEBF0FBECDBF1AE080E0FE
S1133F008AD3082F9ED59F938F931F921F938FE779
S1133F1094E09F938F930E94EF300F900F900F9037
S1133F200F900F900F90083059F080E00E94C72B3B
S1133F3066E371E080E090E00E944D131150F9F6C1
S1133F40083021F481E00E94A92B0DC08FE994E090
S1133F500E94023181E00E94B82B80E00E94862BEF
S1133F600E94BE06FDCF64960FB6F894DEBF0FBE66
S1133F70CDBFDF91CF911F910F910895EF92FF92E2
S1133F800F932091C8173091C917E12CF12C082FF9
S1133F9048E851E06AEA74E082E190E20E94481045
S1133FA00F91FF90EF9008950F931F930FEF1FEF62
S1133FB0980146E150E063E876E18091C81790915A
S1133FC0C9170E94AD0D892BA1F083E00E94D92B63
S1133FD063E876E180E048D334D59F938F9385EBF3
S1133FE094E09F938F930E94EF300F900F900F9067
S1133FF00F901F910F91089581E098D262E070E0D4
S113400080E090E00E944D1380E090D266E970E079
S113401080E090E00E944D1342D2DCDE80E090E02C
S1134020C3DFFCCFE9DF83E090E00E94080181E078
S11340300E94C70181E046DEE8CD0895AAD083E05E
S1134040DCC50895D5DDBDCD089581B1816881B900
S113405080E00E940E2AF2DFE6DF85E00E94152B45
S11340606091CC177091CD1781E020D284E086DF77
S113407085E00E94A502E6CF0895E7DF8AEC94E08C
S11340800E9402310E94941080E090E0089533D0A1
S113409088F09F5790F0B92F9927B751A0F0D1F02D
S11340A0660F771F881F991F1AF0BA95C9F712C0B7
S11340B0B13081F03AD0B1E0089537C0672F782F3E
S11340C08827B85F39F0B93FCCF386957795679523
S11340D0B395D9F73EF490958095709561957F4F8F
S11340E08F4F9F4F089557FD9058440F551F59F017
S11340F05F3F71F04795880F97FB991F61F09F3FD1
S113410079F087950895121613061406551FF2CFF9
S11341104695F1DF08C0161617061806991FF1CF49
S113412086957105610508940895E894BB27662770
S11341307727CB0197F908956530F1F4FA0180816E
S11341408F7390E0982F88272181822B90930A0205
S1134150809309028281F0E48F9FC0011124FA0147
S1134160238126952695822B90930802809307023B
S113417081E0809399160895643051F080E090E4D2
S1134180909308028093070290930A028093090295
S113419008950F931F930CE910E220E034E244EFFA
S11341A050E060E087E20E94FB2B90939B16809383
S11341B09A1621E0892B09F020E0822F1F910F919C
S11341C0089580919A1690919B16009759F040E0BB
S11341D060E070E00E944C2C843031F41092991607
S11341E080E0089582E0089583E0089580919A160E
S11341F090919B16009739F064E00E94982C8530CA
S113420021F083E0089582E0089580E008956091AC
S1134210090270910A0280E090E00E94762E20E06C
S113422030E048EC52E40E94DB2E20E038EF4FE708
S113423056E40C940B2E08956091070270910802C5
S113424080E090E00E94762E20E030E045E253E4E6
S11342500E94DB2E20E038EF4FE756E40E940B2E3D
S113426020E030E040E252E40C94A42D08950F9332
S11342701F93CF93DF931F921F92CDB7DEB78C01AC
S113428019822DC0E091D316EC3250F481E08E0FE8
S11342908093D316F0E0EB5FF84E8A81808302C0EE
S11342A01092D3168A818A30D1F44091D31650E00B
S11342B0FA01ED5FF84E1082415051099E012F5FC3
S11342C03F4F65E077E18091D6169091D7160E9412
S11342D0690D898181110E94BE061092D316BE0118
S11342E06E5F7F4FC80104D6882361F20F900F9050
S11342F0DF91CF911F910F9108950F931F93CF9347
S1134300DF938C01EB018091D6169091D7160E9411
S1134310740CB8018CE996E10E94D030209779F0B2
S1134320ECE9F6E101900020E9F7319780E290E0B2
S113433091838083BE018CE996E10E94C530ECE94B
S1134340F6E1DF010D900020E9F711978DE09AE086
S113435011969C938E9312961C9201900020E9F77B
S11343603197EC59F641AE2F8CE996E1AC016A2FF6
S11343708091D8169091D91666D5811111C008E2A2
S113438015E020E030E04DE250E06FE577E1809108
S1134390D6169091D7160E94AD0D8FE597E102C015
S11343A080E090E0DF91CF911F910F9108952F92BB
S11343B03F924F925F926F927F928F929F92AF92B1
S11343C0BF92CF92DF92EF92FF920F931F93CF93FE
S11343D0DF935C01FC0101900020E9F731976F0144
S11343E0C81AD90A5C2C0F2EF4E78F2EF7E09F2E03
S11343F0F02DE12CF12C4C2C3701F40101811281B8
S1134400E80109900020E9F72197C01BD10B3C2E4D
S1134410F9E0CF16D10458F0F4012080FEE02F1209
S113442006C0B801C5010E94A030892B09F5442DAE
S1134430351408F44C2F50E0B801C5010E94D73060
S1134440892B49F4F301EE0FFF1FE60DF71DEC581D
S1134450F84F20800DC08FEFE81AF80AE3E08E0EC3
S1134460911CF1E1EF16F10439F66894222424F842
S1134470822DDF91CF911F910F91FF90EF90DF90EC
S1134480CF90BF90AF909F908F907F906F905F90F0
S11344904F903F902F90089530DF89CF08958091F9
S11344A0D6169091D7160C94740C08958F929F92FF
S11344B0AF92CF92EF920F931F93CF93C82F8B019C
S11344C041E060E070E088EC90E00E94420C909340
S11344D0D7168093D6161093D5160093D4160F2EA4
S11344E0F7E38F2EF1E29F2EF02D6894AA24A6F80C
S11344F06894CC24C6F8E12C00E023E040E051EEBF
S113450060E070E08C2FD2D39093D9168093D816A4
S1134510E7E0F1E0808180618083CF911F910F916A
S1134520EF90CF90AF909F908F900895882331F0B3
S1134530E8E0F1E080818F7E80830895E8E0F1E097
S1134540808180618083089560E070E08AEF94E068
S1134550D4DEEFE5F7E101900020E9F73197EF555C
S1134560F74181E0759708F080E00895CF93DF93D9
S1134570EC0160E070E08BE095E0BFDEEFE5F7E191
S113458001900020E9F7E057F74139F46FE577E14E
S1134590CE010E94D03080E002C0188281E0DF9119
S11345A0CF910895FC0101900020E9F79F0121516A
S11345B031092817390729F4BC0189E395E06CCF48
S11345C0089589E00895FC0101900020E9F79F0116
S11345D0215131092817390729F4BC0188E495E0F1
S11345E05BCF089589E00895FC0101900020E9F76C
S11345F09F01215231092817390729F4BC0187E5A5
S113460095E04ACF089589E0089560E070E086E976
S113461095E042CF08950F931F93E82FF0E0EE0F3B
S1134620FF1FE059F84F608171818FE995E034DF15
S1134630811114C008E215E020E030E04DE250E0C2
S11346406FE577E18091D6169091D7160E94AD0D53
S1134650882321F08FE597E1AADE03C08FE597E177
S1134660A6DE1F910F9108950F931F93CF93DF93AD
S11346701F92CDB7DEB7DB0111969C91119795314E
S113468008F0B4C0992381F160E070E0272F30E096
S1134690462F50E0FD01E40FF51F928192959F7023
S11346A09A3010F0995C01C0905DF901E051F94E27
S11346B090832F5F3F4FFD01E40FF51F92819F70A0
S11346C0492F50E04A30510514F0995C01C0905DC7
S11346D0F901E051F94E90837E5F6F5F11969C91D2
S11346E01197691798F201C070E0E72FF0E0E051EC
S11346F0F94E10824C91811103C088EA95E002C002
S11347008AEA95E020EF36E13F932F931F924F936F
S11347109F938F938EEA95E09F938F9382E397E123
S11347209F938F930E94323160E070E082E397E1BF
S1134730B3DE0FB6F894DEBF0FBECDBF811159C0F2
S113474008E215E020E030E04DE250E06FE577E16B
S11347508091D6169091D7160E94AD0D882309F446
S113476047C08FE597E123DE8E3009F042C087E031
S113477089838091D4169091D516892BA9F1BE0115
S11347806F5F7F4F8FE597E168D18093DA16E981F7
S1134790F0E0E15AF84EDF010D900020E9F711979F
S11347A0AE1BBF0BAA2391F0BB27CD0101979C013F
S11347B012F42F5F3F4F359527952093DB16AF01F9
S11347C04F5F5F4F64E18CED96E173D101E010E03F
S11347D020E030E046E150E06AED76E18091D416C5
S11347E09091D5160E94A40C8EE003C084E101C010
S11347F080E00F90DF91CF911F910F910895813048
S113480019F06EEB75E002C067E976E082EC95E0A2
S113481043CE08959F938F9383EF95E09F938F9357
S113482082E397E19F938F930E94323160E070E0BE
S113483082E397E131DE0F900F900F900F900F906D
S11348400F9008952F923F924F925F926F927F92B2
S11348508F929F92AF92BF92CF92DF92EF92FF928C
S11348600F931F93CF93DF93CDB7DEB7A0970FB607
S1134870F894DEBF0FBECDBF60E276E08CE296E036
S11348803CDD95DD8111A3C080E2E2E2F2E0DE01CD
S1134890119601900D928A95E1F79E012F5F3F4F8B
S11348A06901E12CF12C0F2EF8E3AF2EF6E0BF2EB8
S11348B0F02D02E317E10F2EF1E54F2EF6E05F2E07
S11348C0F02D0F2EF8E68F2EF6E09F2EF02D0F2EF2
S11348D0F2E86F2EF6E07F2EF02D3E2C2F2CFF9267
S11348E0EF92BF92AF921F930F930E94323160E018
S11348F070E0C80102DD5BDD0F900F900F900F9008
S11349000F900F90811163C032E03E15E8F4F60178
S113491083818F9382818F9381818F9380818F9301
S1134920FF92EF925F924F921F930F930E94323146
S113493060E070E0C801E1DC3ADD0FB6F894DEBF58
S11349400FBECDBF811143C02F923F929F928F9291
S11349501F930F930E94323160E070E0C801CDDCF8
S113496026DD0F900F900F900F900F900F908111F4
S11349702EC02F923F927F926F921F930F930E94AB
S1134980323160E070E0C801B8DC11DD0F900F90A7
S11349900F900F900F900F90811119C03FEFE31A01
S11349A0F30A84E0C80ED11C98E0E916F10409F07A
S11349B094CF60E070E08AE996E09FDCF8DC811136
S11349C006C060E070E08BEA96E097DCF0DCA0962D
S11349D00FB6F894DEBF0FBECDBFDF91CF911F910C
S11349E00F91FF90EF90DF90CF90BF90AF909F908A
S11349F08F907F906F905F904F903F902F9008958D
S1134A00EF92FF920F931F93CF93DF93EC018B01EF
S1134A107A0181E0F4DE81110DC0CE01D4DD811173
S1134A2009C0C801E1DD811105C0C701BBDD8111E9
S1134A3001C0EBDDDF91CF911F910F91FF90EF90BB
S1134A40089590E0FC01EE0FFF1F8E0F9F1FFC01E5
S1134A50EC58F84F818192810895DC01009729F187
S1134A60FB012081FC0101900020E9F73197E81B4C
S1134A70F90B822F90E0E817F907C8F080E008C02E
S1134A80880F382F330F330F830F8053890F2F5F15
S1134A90FD01E20FF11D908130ED390F3A3010F431
S1134AA09111EECFFB012083089580E0089580E00A
S1134AB008950F931F93CF93DF93DC01EA012097AE
S1134AC0E1F1FA0101900020E9F73197E41BF50BBD
S1134AD0329710F532C08D01040F151F30E0AE017E
S1134AE0420F531FFA019081913428F09753592FA4
S1134AF05295507F03C0592F5295507F2C0F3D1F64
S1134B00F9019181913410F0975301C09053950F9E
S1134B10F80190838F5F01C080E0282F220F482F77
S1134B2050E0FE0101900020E9F73197EC1BFD0BEA
S1134B304E175F0710F48613CECFDF91CF911F91EC
S1134B400F91089580918F17860F80938F179091FE
S1134B509217913079F028F09230A9F0933019F13E
S1134B6008956F3F09F048C010928F1781E0809339
S1134B7092170895663809F03FC010928E1782E0AC
S1134B80809392170895E0918E1781E08E0F8093A1
S1134B908E17F0E0E457F84E6083823069F583E0C5
S1134BA080939217089590918E1721E0290F2093F6
S1134BB08E17963009F581110EC0ECE8F7E180817B
S1134BC090E0982F88272181820F911D909394174C
S1134BD08093931704C01092941710929317109215
S1134BE09217E0919017F0919117309729F08091E6
S1134BF0931790919417199508958F929F92AF925D
S1134C00CF92EF920F930F2EF2EA8F2EF5E29F2EA2
S1134C10F02D6894AA24A4F86894CC24C4F8E12C58
S1134C2000E023E040E855E260E070E03FD090937C
S1134C309617809395170F91EF90CF90AF909F9018
S1134C408F90089590939117809390170895CF9320
S1134C50DF93CDB7DEB729970FB6F894DEBF0FBE4A
S1134C60CDBF89E0E2E4F2E09E012F5F3F4FD9011E
S1134C7001900D928A95E1F7109294171092931770
S1134C808091951790919617009731F0422F532FEA
S1134C9069E0D9D080E001C082E029960FB6F8948B
S1134CA0DEBF0FBECDBFDF91CF9108952F923F920B
S1134CB04F925F926F927F928F929F92AF92CF9218
S1134CC0EF92FF920F931F93CF93DF93CDB7DEB78D
S1134CD0F82E2A013B0188E090E00E946B2F8C01A2
S1134CE08F2D90E0FC01EE0FFF1FE956F84E118363
S1134CF000830115110509F469C0880F991FFC018F
S1134D00E55FFD4F80819181D8018D939C938C2D1B
S1134D1090E0880F991F880F991F0E946B2F1C0128
S1134D2086E090E00E946B2F7C014C2DB101F0D6FF
S1134D30F801F582E4828A2D90E0880F991F880F8C
S1134D40991F0E946B2F1C0186E090E00E946B2F3C
S1134D507C014A2DB101DCD6D8011396FC92EE9267
S1134D60129717969C928E921697FFB6F894ED912F
S1134D70FC91119736978081826080838D909C90FE
S1134D80C301B201B3D720E030E040E051E40E9417
S1134D90DB2E9B01AC0160E074E284E79BE43BD72B
S1134DA020E030E040E85FE3CFD671D9F4013297D8
S1134DB06083D801ED91FC911197359788E9808340
S1134DC0ED91FC91349786E08083FFBEC801DF91AA
S1134DD0CF911F910F91FF90EF90CF90AF909F9044
S1134DE08F907F906F905F904F903F902F90089599
S1134DF0CF93DF93DC01892B01F11296ED91FC91A5
S1134E001397938182812581981B9223848198171B
S1134E10B1F0838126952823C081D181C20FD11D91
S1134E2068838F5F958189238383ED91FC91359706
S1134E3080818062808380E003C081E001C082E0E1
S1134E40DF91CF910895EF92FF920F931F93CF9329
S1134E50DF937C01009709F441C0DC011296ED91C7
S1134E60FC91139793818281981B85819823848177
S1134E70891B8617A8F1662341F1842F952FDC0145
S1134E806150462F50E04F5F5F4F480F591FE701B5
S1134E90EA81FB81938182812581981B92238481FD
S1134EA0981779F08C9193812695292360817181DB
S1134EB08B01020F111DE80188839F5F8581982370
S1134EC093831196A417B50711F7D701ED91FC91BF
S1134ED0359780818062808380E003C081E001C0D7
S1134EE082E0DF91CF911F910F91FF90EF90089591
S1134EF00097D1F0DC011496ED91FC911597938104
S1134F008281981799F09281858186958923A08161
S1134F10B181A80FB11D8C91DB018C939F5F8581BA
S1134F209823928380E0089581E0089583E00895B2
S1134F301F920F920FB60F9211240BB60F922F935C
S1134F403F934F935F936F937F938F939F93AF930D
S1134F50BF93CF93DF93EF93FF93A0919717B091F3
S1134F609817109711F16091C6001496ED91FC9179
S1134F701597938182812581981B922384819817A8
S1134F8061F0838126952823C081D181C20FD11D70
S1134F9068838F5F9581892383831696ED91FC91B5
S1134FA01797309711F0CD011995FF91EF91DF918B
S1134FB0CF91BF91AF919F918F917F916F915F91AD
S1134FC04F913F912F910F900BBE0F900FBE0F90FA
S1134FD01F9018951F920F920FB60F9211240BB6C3
S1134FE00F922F938F939F93AF93BF93EF93FF935E
S1134FF0E0919717F09198173097B9F00280F381F8
S1135000E02D938182819817B1F092818581282FB8
S113501026952923A081B181A20FB11D2C919F5FF8
S1135020892382832093C6000BC0E1ECF0E08081E9
S11350308F7D808305C0E1ECF0E080818F7D8083EB
S1135040FF91EF91BF91AF919F918F912F910F900D
S11350500BBE0F900FBE0F901F9018951F920F92CA
S11350600FB60F9211240BB60F922F933F934F93C9
S11350705F936F937F938F939F93AF93BF93CF93DC
S1135080DF93EF93FF93A0919917B0919A1710971C
S113509011F16091CE001496ED91FC9115979381D6
S11350A082812581981B92238481981761F08381E2
S11350B026952823C081D181C20FD11D68838F5FBB
S11350C09581892383831696ED91FC9117973097E8
S11350D011F0CD011995FF91EF91DF91CF91BF911F
S11350E0AF919F918F917F916F915F914F913F917C
S11350F02F910F900BBE0F900FBE0F901F9018951D
S11351001F920F920FB60F9211240BB60F922F938A
S11351108F939F93AF93BF93EF93FF93E09199176E
S1135120F0919A173097B9F00280F381E02D9381C2
S113513082819817B1F092818581282F26952923A1
S1135140A081B181A20FB11D2C919F5F892382831D
S11351502093CE000BC0E9ECF0E080818F7D80834A
S113516005C0E9ECF0E080818F7D8083FF91EF91B1
S1135170BF91AF919F918F912F910F900BBE0F9084
S11351800FBE0F901F9018951F920F920FB60F929B
S113519011240BB60F922F933F934F935F936F930A
S11351A07F938F939F93AF93BF93CF93DF93EF93AB
S11351B0FF93A0919B17B0919C17109711F16091E8
S11351C0D6001496ED91FC911597938182812581E7
S11351D0981B92238481981761F083812695282354
S11351E0C081D181C20FD11D68838F5F95818923CE
S11351F083831696ED91FC911797309711F0CD01AA
S11352001995FF91EF91DF91CF91BF91AF919F914C
S11352108F917F916F915F914F913F912F910F905B
S11352200BBE0F900FBE0F901F9018951F920F92F8
S11352300FB60F9211240BB60F922F938F939F9357
S1135240AF93BF93EF93FF93E0919B17F0919C175B
S11352503097B9F00280F381E02D93818281981711
S1135260B1F092818581282F26952923A081B181CF
S1135270A20FB11D2C919F5F892382832093D600B6
S11352800BC0E1EDF0E080818F7D808305C0E1ED0E
S1135290F0E080818F7D8083FF91EF91BF91AF918A
S11352A09F918F912F910F900BBE0F900FBE0F9077
S11352B01F9018951F920F920FB60F9211240BB6E0
S11352C00F922F933F934F935F936F937F938F939B
S11352D09F93AF93BF93CF93DF93EF93FF93A091EB
S11352E09D17B0919E17109711F160913601149695
S11352F0ED91FC911597938182812581981B9223CE
S11353008481981761F0838126952823C081D181F7
S1135310C20FD11D68838F5F95818923838316967D
S1135320ED91FC911797309711F0CD011995FF91EC
S1135330EF91DF91CF91BF91AF919F918F917F9129
S11353406F915F914F913F912F910F900BBE0F90F2
S11353500FBE0F901F9018951F920F920FB60F92C9
S113536011240BB60F922F938F939F93AF93BF93F8
S1135370EF93FF93E0919D17F0919E173097B9F04A
S11353800280F381E02D938182819817B1F092819C
S11353908581282F26952923A081B181A20FB11DD3
S11353A02C919F5F89238283209336010BC0E1E314
S11353B0F1E080818F7D808305C0E1E3F1E08081AD
S11353C08F7D8083FF91EF91BF91AF919F918F91DA
S11353D02F910F900BBE0F900FBE0F901F9018953A
S11353E0CF93DF931F92CDB7DEB7BE016F5F7F4FC0
S11353F080919F179091A0177BDD8111F6CF898151
S113540090E00F90DF91CF910895682F80919F17BE
S11354109091A017EDDC80E090E008958F929F9228
S1135420AF92CF92EF920F93812C912C6894AA247F
S1135430A7F86894CC24C7F8E12C00E023E040E00E
S113544051EE60E070E032DC9093A01780939F17D8
S1135450EBE0F8E183E192E091838083938382839C
S11354600F91EF90CF90AF909F908F90089590E020
S1135470FC01EE0FFF1FE80FF91FEE0FFF1FEF55A2
S1135480F84E238121111FC09C01220F331FF90103
S1135490E80FF91FEE0FFF1FEF55F84EA081B18101
S11354A04C91F901E80FF91FEE0FFF1FEF55F84E6D
S11354B081E090E0028002C0880F991F0A94E2F70D
S11354C0842B8C930895FC01EE0FFF1FDF01A80FBE
S11354D0B91FAA0FBB1FAF55B84E0D90BC91A02D9C
S11354E02C91E80FF91FEE0FFF1FEF55F84E81E0E6
S11354F090E0028002C0880F991F0A94E2F7809519
S113550082238C93089590E0FC01EE0FFF1FE80FB7
S1135510F91FEE0FFF1FEF55F84E2381211120C014
S11355209C01220F331FF901E80FF91FEE0FFF1F33
S1135530EF55F84EA081B1814C91F901E80FF91FA4
S1135540EE0FFF1FEF55F84E81E090E0028002C09D
S1135550880F991F0A94E2F7809584238C93089509
S1135560FC01EE0FFF1FDF01A80FB91FAA0FBB1F1D
S1135570AF55B84E0D90BC91A02D2C91E80FF91F9A
S1135580EE0FFF1FEF55F84E81E090E0028002C05D
S1135590880F991F0A94E2F7822B8C930895CC24E8
S11355A0C394D12C6894BB24B2F8C1EAD7E110E0CB
S11355B08C81813081F018F1823061F5E881F981C4
S11355C02081C6010A8002C0880F991F0A94E2F75D
S11355D0822780831FC08D818F5F863010F48D8376
S11355E019C01D82E881F9812081C6010A8002C0A8
S11355F0880F991F0A94E2F7822780830BC00D81DC
S1135600002329F0812F7FDF01500D8303C0BC826A
S1135610812F2DDF1F5F2696143051F66CE070E069
S113562080E090E00E944D13C0CFEF92FF920F9361
S11356301F93CF93DF93082F80E487B9C1EAD7E1A2
S11356400F2EF8E2EF2EF12CF02DF982E88286E09D
S11356508A831B8214E01C8380E009DF80E887B919
S1135660FF82EE8287E0888719861A8781E0FFDE51
S113567080E283BB84E390E09D878C8785E08E87FE
S11356801F86188B82E0F3DE80E18093010182E0C3
S113569091E09B8B8A8B1C8B1D8A1E8B83E0E7DE3B
S11356A0E12CF12C20E030E040EC50E067EA77E0B8
S11356B08FEC9AE20E944810DF91CF911F910F91D5
S11356C0FF90EF900895CF93DF9390E0FC01EE0FED
S11356D0FF1FDF01A80FB91FAA0FBB1FAF55B84E9C
S11356E0CD91DC911197488121E030E012960C9025
S11356F0129702C0220F331F0A94E2F7242728834B
S1135700FD0181E08483DF91CF910895CF93DF93EE
S113571090E0FC01EE0FFF1FDF01A80FB91FAA0FD5
S1135720BB1FAF55B84ECD91DC911197488121E054
S113573030E012960C90129702C0220F331F0A9485
S1135740E2F724272883FD0182E08483DF91CF914F
S11357500895282F30E0F901EE0FFF1FE20FF31F29
S1135760EE0FFF1FEF55F84E93E09483CCCE0895CF
S1135770282F30E0F901EE0FFF1FE20FF31FEE0FA9
S1135780FF1FEF55F84E94E0948371CE089590E096
S1135790FC01EE0FFF1FDF01A80FB91FAA0FBB1FEB
S11357A0AF55B84E26E015962C931597FD0114823B
S11357B0089590E0FC01EE0FFF1FDF01A80FB91F51
S11357C0AA0FBB1FAF55B84E15961C921597FD0135
S11357D0148208958091C71781110CC08CE08093C6
S11357E0B8008FEF8093BB0084E08093BC0081E01D
S11357F08093C7170895AF92BF92CF92DF92EF9232
S1135800FF920F931F93CF93DF93A82EB62E6901B7
S11358107A0184E090E05FD3EC01892B61F1A882E6
S113582081E0B81212C0C701B60120EA36E841E0AF
S113583050E027D3DA01C9014097A109B109B6950F
S1135840A79597958795898311C0C701B60120E86C
S11358503AE146E050E015D3DA01C9014097A109C5
S1135860B109B695A7959795879589831B830A8374
S11358708C2F9D2F02C080E090E0DF91CF911F918B
S11358800F91FF90EF90DF90CF90BF90AF9008956D
S11358908091BC0081700895FF920F931F93CF9362
S11358A0DF930097D1F14A30D0F5F42E8B01EC014F
S11358B0EFDF811136C08091BA179091BB17C817DA
S11358C0D90741F087DF89818093B800D093BB1753
S11358D0C093BA1781E08F0D8093BC178881880F1D
S11358E08093BD17FF2089F0F801AEEBB7E14FEFCD
S11358F04F0D642F70E0CB010196B801680F791F3A
S113590081918D93E617F707D9F788EF80932102E9
S113591085EA8093BC0084E005C086E003C087E08C
S113592001C082E0DF91CF911F910F91FF90089504
S11359301F93CF93DF93009729F16B3028F5162F2F
S1135940EC01A6DF811122C08091BA179091BB1798
S1135950C817D90741F03EDF89818093B800D093FE
S1135960BB17C093BA171093BC178881880F816046
S11359708093BD1788EF8093210285EA8093BC0051
S113598085E005C086E003C087E001C082E0DF91C6
S1135990CF911F9108951F920F920FB60F92112469
S11359A00BB60F922F933F934F935F936F937F9315
S11359B08F939F93AF93BF93EF93FF93E091B900BD
S11359C08E2F90E0FC013897E135F10508F075C0A1
S11359D08827E458FF4F8F4F76C21092B917E09191
S11359E0B9178091BC17E81770F481E08E0F80938B
S11359F0B917F0E0E354F84E80818093BB0085E84A
S1135A008093BC0072C084E98093BC008091BA1773
S1135A109091BB17DC011296ED91FC91139730978E
S1135A2009F463C020E040E050E064E019955DC0F3
S1135A30E091B91781E08E0F8093B9178091BB0074
S1135A40F0E0E354F84E80838091B900803411F47F
S1135A501092B9172091B91730E08091BC1790E0EB
S1135A6001972817390724F485EC8093BC003DC0C6
S1135A7085E88093BC0039C08091BB00E091B917E0
S1135A80F0E0E354F84E808384E98093BC00809175
S1135A90BA179091BB17DC011296ED91FC91139704
S1135AA0309719F12091BC174DEB57E165E019953A
S1135AB01CC085EA8093BC0018C08091B900809313
S1135AC0210284E08093BC008091BA179091BB17A7
S1135AD0DC011296ED91FC911397309731F020E0A0
S1135AE040E050E0609121021995FF91EF91BF9140
S1135AF0AF919F918F917F916F915F914F913F9162
S1135B002F910F900BBE0F900FBE0F901F90189502
S1135B10FC01411101C000D3842F90E09C0121506D
S1135B20310982239323892B09F0F6D2413808F0F6
S1135B30F3D2128213824483440F4150458371830C
S1135B40608380E090E008955058BB27AA270ED0C8
S1135B5021C112D130F017D120F031F49F3F11F45C
S1135B601EF407C10EF4E095E7FBFDC0E92F0E9487
S1135B70732078F3BA17620773078407950720F038
S1135B8079F4A6F50C9495200EF4E0950B2EBA2F1B
S1135B90A02D0B01B90190010C01CA01A00111242F
S1135BA0FF27591B99F0593F50F4503E68F11A16DB
S1135BB0F040A22F232F342F4427585FF3CF46956C
S1135BC037952795A795F0405395C9F77EF41F168E
S1135BD0BA0B620B730B840BBAF09150A1F0FF0F58
S1135BE0BB1F661F771F881FC2F70EC0BA0F621F44
S1135BF0731F841F48F4879577956795B795F79534
S1135C009E3F08F0B1CF9395880F08F09927EE0FC7
S1135C109795879508950DD0BDC0B5D048F0ACD008
S1135C2038F021F45F3F21F09EC051110C9496206E
S1135C30A0C00E94732088F39923B9F35523A1F3DC
S1135C40951B550BBB27AA2762177307840738F0E7
S1135C509F5F5F4F220F331F441FAA1FA9F334D045
S1135C600E2E3AF0E0E831D091505040E695001CF9
S1135C70CAF72AD0FE2F28D0660F771F881FBB1FB4
S1135C80261737074807AB07B0E809F0BB0B802D90
S1135C90BF01FF2793585F4F32F09E3F510570F0CC
S1135CA062C00C9496205F3FE4F3983ED4F386954B
S1135CB077956795B795F7959F5FC9F7880F911DFD
S1135CC09695879597F90895E1E0660F771F881FE9
S1135CD0BB1F621773078407BA0720F0621B730B9C
S1135CE0840BBA0BEE1F88F7E0950895E89409C079
